{
	"contracts/utils/Invoicing.sol": {
		"Invoicing": {
			"abi": [
				{
					"inputs": [
						{
							"internalType": "address",
							"name": "_projectContract",
							"type": "address"
						},
						{
							"internalType": "address",
							"name": "_freelancer",
							"type": "address"
						}
					],
					"stateMutability": "nonpayable",
					"type": "constructor"
				},
				{
					"inputs": [
						{
							"internalType": "address",
							"name": "owner",
							"type": "address"
						}
					],
					"name": "OwnableInvalidOwner",
					"type": "error"
				},
				{
					"inputs": [
						{
							"internalType": "address",
							"name": "account",
							"type": "address"
						}
					],
					"name": "OwnableUnauthorizedAccount",
					"type": "error"
				},
				{
					"anonymous": false,
					"inputs": [
						{
							"indexed": true,
							"internalType": "uint256",
							"name": "id",
							"type": "uint256"
						},
						{
							"indexed": false,
							"internalType": "string",
							"name": "description",
							"type": "string"
						},
						{
							"indexed": false,
							"internalType": "uint256",
							"name": "amount",
							"type": "uint256"
						}
					],
					"name": "InvoiceCreated",
					"type": "event"
				},
				{
					"anonymous": false,
					"inputs": [
						{
							"indexed": true,
							"internalType": "uint256",
							"name": "id",
							"type": "uint256"
						},
						{
							"indexed": false,
							"internalType": "enum Invoicing.InvoiceStatus",
							"name": "status",
							"type": "uint8"
						}
					],
					"name": "InvoiceStatusChanged",
					"type": "event"
				},
				{
					"anonymous": false,
					"inputs": [
						{
							"indexed": true,
							"internalType": "address",
							"name": "previousOwner",
							"type": "address"
						},
						{
							"indexed": true,
							"internalType": "address",
							"name": "newOwner",
							"type": "address"
						}
					],
					"name": "OwnershipTransferred",
					"type": "event"
				},
				{
					"inputs": [
						{
							"internalType": "uint256",
							"name": "_invoiceId",
							"type": "uint256"
						}
					],
					"name": "approveInvoice",
					"outputs": [],
					"stateMutability": "nonpayable",
					"type": "function"
				},
				{
					"inputs": [
						{
							"internalType": "string",
							"name": "_desc",
							"type": "string"
						},
						{
							"internalType": "uint256",
							"name": "_amount",
							"type": "uint256"
						}
					],
					"name": "createInvoice",
					"outputs": [],
					"stateMutability": "nonpayable",
					"type": "function"
				},
				{
					"inputs": [],
					"name": "freelancer",
					"outputs": [
						{
							"internalType": "address",
							"name": "",
							"type": "address"
						}
					],
					"stateMutability": "view",
					"type": "function"
				},
				{
					"inputs": [],
					"name": "invoiceCounter",
					"outputs": [
						{
							"internalType": "uint256",
							"name": "",
							"type": "uint256"
						}
					],
					"stateMutability": "view",
					"type": "function"
				},
				{
					"inputs": [
						{
							"internalType": "uint256",
							"name": "",
							"type": "uint256"
						}
					],
					"name": "invoices",
					"outputs": [
						{
							"internalType": "uint256",
							"name": "id",
							"type": "uint256"
						},
						{
							"internalType": "string",
							"name": "description",
							"type": "string"
						},
						{
							"internalType": "uint256",
							"name": "amount",
							"type": "uint256"
						},
						{
							"internalType": "enum Invoicing.InvoiceStatus",
							"name": "status",
							"type": "uint8"
						}
					],
					"stateMutability": "view",
					"type": "function"
				},
				{
					"inputs": [],
					"name": "owner",
					"outputs": [
						{
							"internalType": "address",
							"name": "",
							"type": "address"
						}
					],
					"stateMutability": "view",
					"type": "function"
				},
				{
					"inputs": [
						{
							"internalType": "uint256",
							"name": "_invoiceId",
							"type": "uint256"
						}
					],
					"name": "rejectInvoice",
					"outputs": [],
					"stateMutability": "nonpayable",
					"type": "function"
				},
				{
					"inputs": [],
					"name": "renounceOwnership",
					"outputs": [],
					"stateMutability": "nonpayable",
					"type": "function"
				},
				{
					"inputs": [
						{
							"internalType": "address",
							"name": "newOwner",
							"type": "address"
						}
					],
					"name": "transferOwnership",
					"outputs": [],
					"stateMutability": "nonpayable",
					"type": "function"
				}
			],
			"devdoc": {
				"errors": {
					"OwnableInvalidOwner(address)": [
						{
							"details": "The owner is not a valid owner account. (eg. `address(0)`)"
						}
					],
					"OwnableUnauthorizedAccount(address)": [
						{
							"details": "The caller account is not authorized to perform an operation."
						}
					]
				},
				"kind": "dev",
				"methods": {
					"owner()": {
						"details": "Returns the address of the current owner."
					},
					"renounceOwnership()": {
						"details": "Leaves the contract without owner. It will not be possible to call `onlyOwner` functions. Can only be called by the current owner. NOTE: Renouncing ownership will leave the contract without an owner, thereby disabling any functionality that is only available to the owner."
					},
					"transferOwnership(address)": {
						"details": "Transfers ownership of the contract to a new account (`newOwner`). Can only be called by the current owner."
					}
				},
				"version": 1
			},
			"evm": {
				"assembly": "    /* \"contracts/utils/Invoicing.sol\":113:1612  contract Invoicing is Ownable {... */\n  mstore(0x40, 0x80)\n    /* \"contracts/utils/Invoicing.sol\":540:654  constructor(address _projectContract, address _freelancer) Ownable(_projectContract) { freelancer = _freelancer; } */\n  callvalue\n  dup1\n  iszero\n  tag_1\n  jumpi\n  revert(0x00, 0x00)\ntag_1:\n  pop\n  mload(0x40)\n  sub(codesize, bytecodeSize)\n  dup1\n  bytecodeSize\n  dup4\n  codecopy\n  dup2\n  dup2\n  add\n  0x40\n  mstore\n  dup2\n  add\n  swap1\n  tag_2\n  swap2\n  swap1\n  tag_3\n  jump\t// in\ntag_2:\n    /* \"contracts/utils/Invoicing.sol\":607:623  _projectContract */\n  dup2\n    /* \"@openzeppelin/contracts/access/Ownable.sol\":1297:1298  0 */\n  0x00\n    /* \"@openzeppelin/contracts/access/Ownable.sol\":1273:1299  initialOwner == address(0) */\n  0xffffffffffffffffffffffffffffffffffffffff\n  and\n    /* \"@openzeppelin/contracts/access/Ownable.sol\":1273:1285  initialOwner */\n  dup2\n    /* \"@openzeppelin/contracts/access/Ownable.sol\":1273:1299  initialOwner == address(0) */\n  0xffffffffffffffffffffffffffffffffffffffff\n  and\n  sub\n    /* \"@openzeppelin/contracts/access/Ownable.sol\":1269:1364  if (initialOwner == address(0)) {... */\n  tag_7\n  jumpi\n    /* \"@openzeppelin/contracts/access/Ownable.sol\":1350:1351  0 */\n  0x00\n    /* \"@openzeppelin/contracts/access/Ownable.sol\":1322:1353  OwnableInvalidOwner(address(0)) */\n  mload(0x40)\n  0x1e4fbdf700000000000000000000000000000000000000000000000000000000\n  dup2\n  mstore\n  0x04\n  add\n  tag_8\n  swap2\n  swap1\n  tag_9\n  jump\t// in\ntag_8:\n  mload(0x40)\n  dup1\n  swap2\n  sub\n  swap1\n  revert\n    /* \"@openzeppelin/contracts/access/Ownable.sol\":1269:1364  if (initialOwner == address(0)) {... */\ntag_7:\n    /* \"@openzeppelin/contracts/access/Ownable.sol\":1373:1405  _transferOwnership(initialOwner) */\n  tag_10\n    /* \"@openzeppelin/contracts/access/Ownable.sol\":1392:1404  initialOwner */\n  dup2\n    /* \"@openzeppelin/contracts/access/Ownable.sol\":1373:1391  _transferOwnership */\n  shl(0x20, tag_11)\n    /* \"@openzeppelin/contracts/access/Ownable.sol\":1373:1405  _transferOwnership(initialOwner) */\n  0x20\n  shr\n  jump\t// in\ntag_10:\n    /* \"@openzeppelin/contracts/access/Ownable.sol\":1225:1412  constructor(address initialOwner) {... */\n  pop\n    /* \"contracts/utils/Invoicing.sol\":640:651  _freelancer */\n  dup1\n    /* \"contracts/utils/Invoicing.sol\":627:637  freelancer */\n  0x03\n  0x00\n    /* \"contracts/utils/Invoicing.sol\":627:651  freelancer = _freelancer */\n  0x0100\n  exp\n  dup2\n  sload\n  dup2\n  0xffffffffffffffffffffffffffffffffffffffff\n  mul\n  not\n  and\n  swap1\n  dup4\n  0xffffffffffffffffffffffffffffffffffffffff\n  and\n  mul\n  or\n  swap1\n  sstore\n  pop\n    /* \"contracts/utils/Invoicing.sol\":540:654  constructor(address _projectContract, address _freelancer) Ownable(_projectContract) { freelancer = _freelancer; } */\n  pop\n  pop\n    /* \"contracts/utils/Invoicing.sol\":113:1612  contract Invoicing is Ownable {... */\n  jump(tag_13)\n    /* \"@openzeppelin/contracts/access/Ownable.sol\":2912:3099  function _transferOwnership(address newOwner) internal virtual {... */\ntag_11:\n    /* \"@openzeppelin/contracts/access/Ownable.sol\":2985:3001  address oldOwner */\n  0x00\n    /* \"@openzeppelin/contracts/access/Ownable.sol\":3004:3010  _owner */\n  0x00\n  0x00\n  swap1\n  sload\n  swap1\n  0x0100\n  exp\n  swap1\n  div\n  0xffffffffffffffffffffffffffffffffffffffff\n  and\n    /* \"@openzeppelin/contracts/access/Ownable.sol\":2985:3010  address oldOwner = _owner */\n  swap1\n  pop\n    /* \"@openzeppelin/contracts/access/Ownable.sol\":3029:3037  newOwner */\n  dup2\n    /* \"@openzeppelin/contracts/access/Ownable.sol\":3020:3026  _owner */\n  0x00\n  0x00\n    /* \"@openzeppelin/contracts/access/Ownable.sol\":3020:3037  _owner = newOwner */\n  0x0100\n  exp\n  dup2\n  sload\n  dup2\n  0xffffffffffffffffffffffffffffffffffffffff\n  mul\n  not\n  and\n  swap1\n  dup4\n  0xffffffffffffffffffffffffffffffffffffffff\n  and\n  mul\n  or\n  swap1\n  sstore\n  pop\n    /* \"@openzeppelin/contracts/access/Ownable.sol\":3083:3091  newOwner */\n  dup2\n    /* \"@openzeppelin/contracts/access/Ownable.sol\":3052:3092  OwnershipTransferred(oldOwner, newOwner) */\n  0xffffffffffffffffffffffffffffffffffffffff\n  and\n    /* \"@openzeppelin/contracts/access/Ownable.sol\":3073:3081  oldOwner */\n  dup2\n    /* \"@openzeppelin/contracts/access/Ownable.sol\":3052:3092  OwnershipTransferred(oldOwner, newOwner) */\n  0xffffffffffffffffffffffffffffffffffffffff\n  and\n  0x8be0079c531659141344cd1fd0a4f28419497f9722a3daafe3b4186f6b6457e0\n  mload(0x40)\n  mload(0x40)\n  dup1\n  swap2\n  sub\n  swap1\n  log3\n    /* \"@openzeppelin/contracts/access/Ownable.sol\":2975:3099  {... */\n  pop\n    /* \"@openzeppelin/contracts/access/Ownable.sol\":2912:3099  function _transferOwnership(address newOwner) internal virtual {... */\n  pop\n  jump\t// out\n    /* \"#utility.yul\":88:205   */\ntag_16:\n    /* \"#utility.yul\":197:198   */\n  0x00\n    /* \"#utility.yul\":194:195   */\n  0x00\n    /* \"#utility.yul\":187:199   */\n  revert\n    /* \"#utility.yul\":334:460   */\ntag_18:\n    /* \"#utility.yul\":371:378   */\n  0x00\n    /* \"#utility.yul\":411:453   */\n  0xffffffffffffffffffffffffffffffffffffffff\n    /* \"#utility.yul\":404:409   */\n  dup3\n    /* \"#utility.yul\":400:454   */\n  and\n    /* \"#utility.yul\":389:454   */\n  swap1\n  pop\n    /* \"#utility.yul\":334:460   */\n  swap2\n  swap1\n  pop\n  jump\t// out\n    /* \"#utility.yul\":466:562   */\ntag_19:\n    /* \"#utility.yul\":503:510   */\n  0x00\n    /* \"#utility.yul\":532:556   */\n  tag_29\n    /* \"#utility.yul\":550:555   */\n  dup3\n    /* \"#utility.yul\":532:556   */\n  tag_18\n  jump\t// in\ntag_29:\n    /* \"#utility.yul\":521:556   */\n  swap1\n  pop\n    /* \"#utility.yul\":466:562   */\n  swap2\n  swap1\n  pop\n  jump\t// out\n    /* \"#utility.yul\":568:690   */\ntag_20:\n    /* \"#utility.yul\":641:665   */\n  tag_31\n    /* \"#utility.yul\":659:664   */\n  dup2\n    /* \"#utility.yul\":641:665   */\n  tag_19\n  jump\t// in\ntag_31:\n    /* \"#utility.yul\":634:639   */\n  dup2\n    /* \"#utility.yul\":631:666   */\n  eq\n    /* \"#utility.yul\":621:684   */\n  tag_32\n  jumpi\n    /* \"#utility.yul\":680:681   */\n  0x00\n    /* \"#utility.yul\":677:678   */\n  0x00\n    /* \"#utility.yul\":670:682   */\n  revert\n    /* \"#utility.yul\":621:684   */\ntag_32:\n    /* \"#utility.yul\":568:690   */\n  pop\n  jump\t// out\n    /* \"#utility.yul\":696:839   */\ntag_21:\n    /* \"#utility.yul\":753:758   */\n  0x00\n    /* \"#utility.yul\":784:790   */\n  dup2\n    /* \"#utility.yul\":778:791   */\n  mload\n    /* \"#utility.yul\":769:791   */\n  swap1\n  pop\n    /* \"#utility.yul\":800:833   */\n  tag_34\n    /* \"#utility.yul\":827:832   */\n  dup2\n    /* \"#utility.yul\":800:833   */\n  tag_20\n  jump\t// in\ntag_34:\n    /* \"#utility.yul\":696:839   */\n  swap3\n  swap2\n  pop\n  pop\n  jump\t// out\n    /* \"#utility.yul\":845:1352   */\ntag_3:\n    /* \"#utility.yul\":924:930   */\n  0x00\n    /* \"#utility.yul\":932:938   */\n  0x00\n    /* \"#utility.yul\":981:983   */\n  0x40\n    /* \"#utility.yul\":969:978   */\n  dup4\n    /* \"#utility.yul\":960:967   */\n  dup6\n    /* \"#utility.yul\":956:979   */\n  sub\n    /* \"#utility.yul\":952:984   */\n  slt\n    /* \"#utility.yul\":949:1068   */\n  iszero\n  tag_36\n  jumpi\n    /* \"#utility.yul\":987:1066   */\n  tag_37\n  tag_16\n  jump\t// in\ntag_37:\n    /* \"#utility.yul\":949:1068   */\ntag_36:\n    /* \"#utility.yul\":1107:1108   */\n  0x00\n    /* \"#utility.yul\":1132:1196   */\n  tag_38\n    /* \"#utility.yul\":1188:1195   */\n  dup6\n    /* \"#utility.yul\":1179:1185   */\n  dup3\n    /* \"#utility.yul\":1168:1177   */\n  dup7\n    /* \"#utility.yul\":1164:1186   */\n  add\n    /* \"#utility.yul\":1132:1196   */\n  tag_21\n  jump\t// in\ntag_38:\n    /* \"#utility.yul\":1122:1196   */\n  swap3\n  pop\n    /* \"#utility.yul\":1078:1206   */\n  pop\n    /* \"#utility.yul\":1245:1247   */\n  0x20\n    /* \"#utility.yul\":1271:1335   */\n  tag_39\n    /* \"#utility.yul\":1327:1334   */\n  dup6\n    /* \"#utility.yul\":1318:1324   */\n  dup3\n    /* \"#utility.yul\":1307:1316   */\n  dup7\n    /* \"#utility.yul\":1303:1325   */\n  add\n    /* \"#utility.yul\":1271:1335   */\n  tag_21\n  jump\t// in\ntag_39:\n    /* \"#utility.yul\":1261:1335   */\n  swap2\n  pop\n    /* \"#utility.yul\":1216:1345   */\n  pop\n    /* \"#utility.yul\":845:1352   */\n  swap3\n  pop\n  swap3\n  swap1\n  pop\n  jump\t// out\n    /* \"#utility.yul\":1358:1476   */\ntag_22:\n    /* \"#utility.yul\":1445:1469   */\n  tag_41\n    /* \"#utility.yul\":1463:1468   */\n  dup2\n    /* \"#utility.yul\":1445:1469   */\n  tag_19\n  jump\t// in\ntag_41:\n    /* \"#utility.yul\":1440:1443   */\n  dup3\n    /* \"#utility.yul\":1433:1470   */\n  mstore\n    /* \"#utility.yul\":1358:1476   */\n  pop\n  pop\n  jump\t// out\n    /* \"#utility.yul\":1482:1704   */\ntag_9:\n    /* \"#utility.yul\":1575:1579   */\n  0x00\n    /* \"#utility.yul\":1613:1615   */\n  0x20\n    /* \"#utility.yul\":1602:1611   */\n  dup3\n    /* \"#utility.yul\":1598:1616   */\n  add\n    /* \"#utility.yul\":1590:1616   */\n  swap1\n  pop\n    /* \"#utility.yul\":1626:1697   */\n  tag_43\n    /* \"#utility.yul\":1694:1695   */\n  0x00\n    /* \"#utility.yul\":1683:1692   */\n  dup4\n    /* \"#utility.yul\":1679:1696   */\n  add\n    /* \"#utility.yul\":1670:1676   */\n  dup5\n    /* \"#utility.yul\":1626:1697   */\n  tag_22\n  jump\t// in\ntag_43:\n    /* \"#utility.yul\":1482:1704   */\n  swap3\n  swap2\n  pop\n  pop\n  jump\t// out\n    /* \"contracts/utils/Invoicing.sol\":113:1612  contract Invoicing is Ownable {... */\ntag_13:\n  dataSize(sub_0)\n  dup1\n  dataOffset(sub_0)\n  0x00\n  codecopy\n  0x00\n  return\nstop\n\nsub_0: assembly {\n        /* \"contracts/utils/Invoicing.sol\":113:1612  contract Invoicing is Ownable {... */\n      mstore(0x40, 0x80)\n      callvalue\n      dup1\n      iszero\n      tag_1\n      jumpi\n      revert(0x00, 0x00)\n    tag_1:\n      pop\n      jumpi(tag_2, lt(calldatasize, 0x04))\n      shr(0xe0, calldataload(0x00))\n      dup1\n      0xa37dda2c\n      gt\n      tag_12\n      jumpi\n      dup1\n      0xa37dda2c\n      eq\n      tag_7\n      jumpi\n      dup1\n      0xa57b381c\n      eq\n      tag_8\n      jumpi\n      dup1\n      0xb32413b7\n      eq\n      tag_9\n      jumpi\n      dup1\n      0xd4280d5a\n      eq\n      tag_10\n      jumpi\n      dup1\n      0xf2fde38b\n      eq\n      tag_11\n      jumpi\n      jump(tag_2)\n    tag_12:\n      dup1\n      0x0f9a715e\n      eq\n      tag_3\n      jumpi\n      dup1\n      0x4e6d1405\n      eq\n      tag_4\n      jumpi\n      dup1\n      0x715018a6\n      eq\n      tag_5\n      jumpi\n      dup1\n      0x8da5cb5b\n      eq\n      tag_6\n      jumpi\n    tag_2:\n      revert(0x00, 0x00)\n        /* \"contracts/utils/Invoicing.sol\":1311:1609  function rejectInvoice(uint _invoiceId) external onlyOwner { Invoice storage invoice = invoices[_invoiceId]; require(invoice.status == InvoiceStatus.Pending, \"Invoicing: Invoice not pending\"); invoice.status = InvoiceStatus.Rejected; emit InvoiceStatusChanged(_invoiceId, InvoiceStatus.Rejected); } */\n    tag_3:\n      tag_13\n      0x04\n      dup1\n      calldatasize\n      sub\n      dup2\n      add\n      swap1\n      tag_14\n      swap2\n      swap1\n      tag_15\n      jump\t// in\n    tag_14:\n      tag_16\n      jump\t// in\n    tag_13:\n      stop\n        /* \"contracts/utils/Invoicing.sol\":294:334  mapping(uint => Invoice) public invoices */\n    tag_4:\n      tag_17\n      0x04\n      dup1\n      calldatasize\n      sub\n      dup2\n      add\n      swap1\n      tag_18\n      swap2\n      swap1\n      tag_15\n      jump\t// in\n    tag_18:\n      tag_19\n      jump\t// in\n    tag_17:\n      mload(0x40)\n      tag_20\n      swap5\n      swap4\n      swap3\n      swap2\n      swap1\n      tag_21\n      jump\t// in\n    tag_20:\n      mload(0x40)\n      dup1\n      swap2\n      sub\n      swap1\n      return\n        /* \"@openzeppelin/contracts/access/Ownable.sol\":2293:2394  function renounceOwnership() public virtual onlyOwner {... */\n    tag_5:\n      tag_22\n      tag_23\n      jump\t// in\n    tag_22:\n      stop\n        /* \"@openzeppelin/contracts/access/Ownable.sol\":1638:1723  function owner() public view virtual returns (address) {... */\n    tag_6:\n      tag_24\n      tag_25\n      jump\t// in\n    tag_24:\n      mload(0x40)\n      tag_26\n      swap2\n      swap1\n      tag_27\n      jump\t// in\n    tag_26:\n      mload(0x40)\n      dup1\n      swap2\n      sub\n      swap1\n      return\n        /* \"contracts/utils/Invoicing.sol\":364:389  address public freelancer */\n    tag_7:\n      tag_28\n      tag_29\n      jump\t// in\n    tag_28:\n      mload(0x40)\n      tag_30\n      swap2\n      swap1\n      tag_27\n      jump\t// in\n    tag_30:\n      mload(0x40)\n      dup1\n      swap2\n      sub\n      swap1\n      return\n        /* \"contracts/utils/Invoicing.sol\":336:362  uint public invoiceCounter */\n    tag_8:\n      tag_31\n      tag_32\n      jump\t// in\n    tag_31:\n      mload(0x40)\n      tag_33\n      swap2\n      swap1\n      tag_34\n      jump\t// in\n    tag_33:\n      mload(0x40)\n      dup1\n      swap2\n      sub\n      swap1\n      return\n        /* \"contracts/utils/Invoicing.sol\":1006:1305  function approveInvoice(uint _invoiceId) external onlyOwner { Invoice storage invoice = invoices[_invoiceId]; require(invoice.status == InvoiceStatus.Pending, \"Invoicing: Invoice not pending\"); invoice.status = InvoiceStatus.Approved; emit InvoiceStatusChanged(_invoiceId, InvoiceStatus.Approved); } */\n    tag_9:\n      tag_35\n      0x04\n      dup1\n      calldatasize\n      sub\n      dup2\n      add\n      swap1\n      tag_36\n      swap2\n      swap1\n      tag_15\n      jump\t// in\n    tag_36:\n      tag_37\n      jump\t// in\n    tag_35:\n      stop\n        /* \"contracts/utils/Invoicing.sol\":660:1000  function createInvoice(string memory _desc, uint _amount) external {... */\n    tag_10:\n      tag_38\n      0x04\n      dup1\n      calldatasize\n      sub\n      dup2\n      add\n      swap1\n      tag_39\n      swap2\n      swap1\n      tag_40\n      jump\t// in\n    tag_39:\n      tag_41\n      jump\t// in\n    tag_38:\n      stop\n        /* \"@openzeppelin/contracts/access/Ownable.sol\":2543:2758  function transferOwnership(address newOwner) public virtual onlyOwner {... */\n    tag_11:\n      tag_42\n      0x04\n      dup1\n      calldatasize\n      sub\n      dup2\n      add\n      swap1\n      tag_43\n      swap2\n      swap1\n      tag_44\n      jump\t// in\n    tag_43:\n      tag_45\n      jump\t// in\n    tag_42:\n      stop\n        /* \"contracts/utils/Invoicing.sol\":1311:1609  function rejectInvoice(uint _invoiceId) external onlyOwner { Invoice storage invoice = invoices[_invoiceId]; require(invoice.status == InvoiceStatus.Pending, \"Invoicing: Invoice not pending\"); invoice.status = InvoiceStatus.Rejected; emit InvoiceStatusChanged(_invoiceId, InvoiceStatus.Rejected); } */\n    tag_16:\n        /* \"@openzeppelin/contracts/access/Ownable.sol\":1531:1544  _checkOwner() */\n      tag_47\n        /* \"@openzeppelin/contracts/access/Ownable.sol\":1531:1542  _checkOwner */\n      tag_48\n        /* \"@openzeppelin/contracts/access/Ownable.sol\":1531:1544  _checkOwner() */\n      jump\t// in\n    tag_47:\n        /* \"contracts/utils/Invoicing.sol\":1372:1395  Invoice storage invoice */\n      0x00\n        /* \"contracts/utils/Invoicing.sol\":1398:1406  invoices */\n      0x01\n        /* \"contracts/utils/Invoicing.sol\":1398:1418  invoices[_invoiceId] */\n      0x00\n        /* \"contracts/utils/Invoicing.sol\":1407:1417  _invoiceId */\n      dup4\n        /* \"contracts/utils/Invoicing.sol\":1398:1418  invoices[_invoiceId] */\n      dup2\n      mstore\n      0x20\n      add\n      swap1\n      dup2\n      mstore\n      0x20\n      add\n      0x00\n      keccak256\n        /* \"contracts/utils/Invoicing.sol\":1372:1418  Invoice storage invoice = invoices[_invoiceId] */\n      swap1\n      pop\n        /* \"contracts/utils/Invoicing.sol\":1446:1467  InvoiceStatus.Pending */\n      0x00\n        /* \"contracts/utils/Invoicing.sol\":1428:1467  invoice.status == InvoiceStatus.Pending */\n      0x02\n      dup2\n      gt\n      iszero\n      tag_50\n      jumpi\n      tag_51\n      tag_52\n      jump\t// in\n    tag_51:\n    tag_50:\n        /* \"contracts/utils/Invoicing.sol\":1428:1435  invoice */\n      dup2\n        /* \"contracts/utils/Invoicing.sol\":1428:1442  invoice.status */\n      0x03\n      add\n      0x00\n      swap1\n      sload\n      swap1\n      0x0100\n      exp\n      swap1\n      div\n      0xff\n      and\n        /* \"contracts/utils/Invoicing.sol\":1428:1467  invoice.status == InvoiceStatus.Pending */\n      0x02\n      dup2\n      gt\n      iszero\n      tag_53\n      jumpi\n      tag_54\n      tag_52\n      jump\t// in\n    tag_54:\n    tag_53:\n      eq\n        /* \"contracts/utils/Invoicing.sol\":1420:1502  require(invoice.status == InvoiceStatus.Pending, \"Invoicing: Invoice not pending\") */\n      tag_55\n      jumpi\n      mload(0x40)\n      0x08c379a000000000000000000000000000000000000000000000000000000000\n      dup2\n      mstore\n      0x04\n      add\n      tag_56\n      swap1\n      tag_57\n      jump\t// in\n    tag_56:\n      mload(0x40)\n      dup1\n      swap2\n      sub\n      swap1\n      revert\n    tag_55:\n        /* \"contracts/utils/Invoicing.sol\":1521:1543  InvoiceStatus.Rejected */\n      0x02\n        /* \"contracts/utils/Invoicing.sol\":1504:1511  invoice */\n      dup2\n        /* \"contracts/utils/Invoicing.sol\":1504:1518  invoice.status */\n      0x03\n      add\n      0x00\n        /* \"contracts/utils/Invoicing.sol\":1504:1543  invoice.status = InvoiceStatus.Rejected */\n      0x0100\n      exp\n      dup2\n      sload\n      dup2\n      0xff\n      mul\n      not\n      and\n      swap1\n      dup4\n      0x02\n      dup2\n      gt\n      iszero\n      tag_58\n      jumpi\n      tag_59\n      tag_52\n      jump\t// in\n    tag_59:\n    tag_58:\n      mul\n      or\n      swap1\n      sstore\n      pop\n        /* \"contracts/utils/Invoicing.sol\":1571:1581  _invoiceId */\n      dup2\n        /* \"contracts/utils/Invoicing.sol\":1550:1606  InvoiceStatusChanged(_invoiceId, InvoiceStatus.Rejected) */\n      0x63186546e41a4082c1fa29562d179c8a9f175e2136c3f5f39504f67117f781fb\n        /* \"contracts/utils/Invoicing.sol\":1583:1605  InvoiceStatus.Rejected */\n      0x02\n        /* \"contracts/utils/Invoicing.sol\":1550:1606  InvoiceStatusChanged(_invoiceId, InvoiceStatus.Rejected) */\n      mload(0x40)\n      tag_60\n      swap2\n      swap1\n      tag_61\n      jump\t// in\n    tag_60:\n      mload(0x40)\n      dup1\n      swap2\n      sub\n      swap1\n      log2\n        /* \"contracts/utils/Invoicing.sol\":1370:1609  { Invoice storage invoice = invoices[_invoiceId]; require(invoice.status == InvoiceStatus.Pending, \"Invoicing: Invoice not pending\"); invoice.status = InvoiceStatus.Rejected; emit InvoiceStatusChanged(_invoiceId, InvoiceStatus.Rejected); } */\n      pop\n        /* \"contracts/utils/Invoicing.sol\":1311:1609  function rejectInvoice(uint _invoiceId) external onlyOwner { Invoice storage invoice = invoices[_invoiceId]; require(invoice.status == InvoiceStatus.Pending, \"Invoicing: Invoice not pending\"); invoice.status = InvoiceStatus.Rejected; emit InvoiceStatusChanged(_invoiceId, InvoiceStatus.Rejected); } */\n      pop\n      jump\t// out\n        /* \"contracts/utils/Invoicing.sol\":294:334  mapping(uint => Invoice) public invoices */\n    tag_19:\n      mstore(0x20, 0x01)\n      dup1\n      0x00\n      mstore\n      keccak256(0x00, 0x40)\n      0x00\n      swap2\n      pop\n      swap1\n      pop\n      dup1\n      0x00\n      add\n      sload\n      swap1\n      dup1\n      0x01\n      add\n      dup1\n      sload\n      tag_62\n      swap1\n      tag_63\n      jump\t// in\n    tag_62:\n      dup1\n      0x1f\n      add\n      0x20\n      dup1\n      swap2\n      div\n      mul\n      0x20\n      add\n      mload(0x40)\n      swap1\n      dup2\n      add\n      0x40\n      mstore\n      dup1\n      swap3\n      swap2\n      swap1\n      dup2\n      dup2\n      mstore\n      0x20\n      add\n      dup3\n      dup1\n      sload\n      tag_64\n      swap1\n      tag_63\n      jump\t// in\n    tag_64:\n      dup1\n      iszero\n      tag_65\n      jumpi\n      dup1\n      0x1f\n      lt\n      tag_66\n      jumpi\n      0x0100\n      dup1\n      dup4\n      sload\n      div\n      mul\n      dup4\n      mstore\n      swap2\n      0x20\n      add\n      swap2\n      jump(tag_65)\n    tag_66:\n      dup3\n      add\n      swap2\n      swap1\n      0x00\n      mstore\n      keccak256(0x00, 0x20)\n      swap1\n    tag_67:\n      dup2\n      sload\n      dup2\n      mstore\n      swap1\n      0x01\n      add\n      swap1\n      0x20\n      add\n      dup1\n      dup4\n      gt\n      tag_67\n      jumpi\n      dup3\n      swap1\n      sub\n      0x1f\n      and\n      dup3\n      add\n      swap2\n    tag_65:\n      pop\n      pop\n      pop\n      pop\n      pop\n      swap1\n      dup1\n      0x02\n      add\n      sload\n      swap1\n      dup1\n      0x03\n      add\n      0x00\n      swap1\n      sload\n      swap1\n      0x0100\n      exp\n      swap1\n      div\n      0xff\n      and\n      swap1\n      pop\n      dup5\n      jump\t// out\n        /* \"@openzeppelin/contracts/access/Ownable.sol\":2293:2394  function renounceOwnership() public virtual onlyOwner {... */\n    tag_23:\n        /* \"@openzeppelin/contracts/access/Ownable.sol\":1531:1544  _checkOwner() */\n      tag_69\n        /* \"@openzeppelin/contracts/access/Ownable.sol\":1531:1542  _checkOwner */\n      tag_48\n        /* \"@openzeppelin/contracts/access/Ownable.sol\":1531:1544  _checkOwner() */\n      jump\t// in\n    tag_69:\n        /* \"@openzeppelin/contracts/access/Ownable.sol\":2357:2387  _transferOwnership(address(0)) */\n      tag_71\n        /* \"@openzeppelin/contracts/access/Ownable.sol\":2384:2385  0 */\n      0x00\n        /* \"@openzeppelin/contracts/access/Ownable.sol\":2357:2375  _transferOwnership */\n      tag_72\n        /* \"@openzeppelin/contracts/access/Ownable.sol\":2357:2387  _transferOwnership(address(0)) */\n      jump\t// in\n    tag_71:\n        /* \"@openzeppelin/contracts/access/Ownable.sol\":2293:2394  function renounceOwnership() public virtual onlyOwner {... */\n      jump\t// out\n        /* \"@openzeppelin/contracts/access/Ownable.sol\":1638:1723  function owner() public view virtual returns (address) {... */\n    tag_25:\n        /* \"@openzeppelin/contracts/access/Ownable.sol\":1684:1691  address */\n      0x00\n        /* \"@openzeppelin/contracts/access/Ownable.sol\":1710:1716  _owner */\n      0x00\n      0x00\n      swap1\n      sload\n      swap1\n      0x0100\n      exp\n      swap1\n      div\n      0xffffffffffffffffffffffffffffffffffffffff\n      and\n        /* \"@openzeppelin/contracts/access/Ownable.sol\":1703:1716  return _owner */\n      swap1\n      pop\n        /* \"@openzeppelin/contracts/access/Ownable.sol\":1638:1723  function owner() public view virtual returns (address) {... */\n      swap1\n      jump\t// out\n        /* \"contracts/utils/Invoicing.sol\":364:389  address public freelancer */\n    tag_29:\n      0x03\n      0x00\n      swap1\n      sload\n      swap1\n      0x0100\n      exp\n      swap1\n      div\n      0xffffffffffffffffffffffffffffffffffffffff\n      and\n      dup2\n      jump\t// out\n        /* \"contracts/utils/Invoicing.sol\":336:362  uint public invoiceCounter */\n    tag_32:\n      sload(0x02)\n      dup2\n      jump\t// out\n        /* \"contracts/utils/Invoicing.sol\":1006:1305  function approveInvoice(uint _invoiceId) external onlyOwner { Invoice storage invoice = invoices[_invoiceId]; require(invoice.status == InvoiceStatus.Pending, \"Invoicing: Invoice not pending\"); invoice.status = InvoiceStatus.Approved; emit InvoiceStatusChanged(_invoiceId, InvoiceStatus.Approved); } */\n    tag_37:\n        /* \"@openzeppelin/contracts/access/Ownable.sol\":1531:1544  _checkOwner() */\n      tag_75\n        /* \"@openzeppelin/contracts/access/Ownable.sol\":1531:1542  _checkOwner */\n      tag_48\n        /* \"@openzeppelin/contracts/access/Ownable.sol\":1531:1544  _checkOwner() */\n      jump\t// in\n    tag_75:\n        /* \"contracts/utils/Invoicing.sol\":1068:1091  Invoice storage invoice */\n      0x00\n        /* \"contracts/utils/Invoicing.sol\":1094:1102  invoices */\n      0x01\n        /* \"contracts/utils/Invoicing.sol\":1094:1114  invoices[_invoiceId] */\n      0x00\n        /* \"contracts/utils/Invoicing.sol\":1103:1113  _invoiceId */\n      dup4\n        /* \"contracts/utils/Invoicing.sol\":1094:1114  invoices[_invoiceId] */\n      dup2\n      mstore\n      0x20\n      add\n      swap1\n      dup2\n      mstore\n      0x20\n      add\n      0x00\n      keccak256\n        /* \"contracts/utils/Invoicing.sol\":1068:1114  Invoice storage invoice = invoices[_invoiceId] */\n      swap1\n      pop\n        /* \"contracts/utils/Invoicing.sol\":1142:1163  InvoiceStatus.Pending */\n      0x00\n        /* \"contracts/utils/Invoicing.sol\":1124:1163  invoice.status == InvoiceStatus.Pending */\n      0x02\n      dup2\n      gt\n      iszero\n      tag_77\n      jumpi\n      tag_78\n      tag_52\n      jump\t// in\n    tag_78:\n    tag_77:\n        /* \"contracts/utils/Invoicing.sol\":1124:1131  invoice */\n      dup2\n        /* \"contracts/utils/Invoicing.sol\":1124:1138  invoice.status */\n      0x03\n      add\n      0x00\n      swap1\n      sload\n      swap1\n      0x0100\n      exp\n      swap1\n      div\n      0xff\n      and\n        /* \"contracts/utils/Invoicing.sol\":1124:1163  invoice.status == InvoiceStatus.Pending */\n      0x02\n      dup2\n      gt\n      iszero\n      tag_79\n      jumpi\n      tag_80\n      tag_52\n      jump\t// in\n    tag_80:\n    tag_79:\n      eq\n        /* \"contracts/utils/Invoicing.sol\":1116:1198  require(invoice.status == InvoiceStatus.Pending, \"Invoicing: Invoice not pending\") */\n      tag_81\n      jumpi\n      mload(0x40)\n      0x08c379a000000000000000000000000000000000000000000000000000000000\n      dup2\n      mstore\n      0x04\n      add\n      tag_82\n      swap1\n      tag_57\n      jump\t// in\n    tag_82:\n      mload(0x40)\n      dup1\n      swap2\n      sub\n      swap1\n      revert\n    tag_81:\n        /* \"contracts/utils/Invoicing.sol\":1217:1239  InvoiceStatus.Approved */\n      0x01\n        /* \"contracts/utils/Invoicing.sol\":1200:1207  invoice */\n      dup2\n        /* \"contracts/utils/Invoicing.sol\":1200:1214  invoice.status */\n      0x03\n      add\n      0x00\n        /* \"contracts/utils/Invoicing.sol\":1200:1239  invoice.status = InvoiceStatus.Approved */\n      0x0100\n      exp\n      dup2\n      sload\n      dup2\n      0xff\n      mul\n      not\n      and\n      swap1\n      dup4\n      0x02\n      dup2\n      gt\n      iszero\n      tag_83\n      jumpi\n      tag_84\n      tag_52\n      jump\t// in\n    tag_84:\n    tag_83:\n      mul\n      or\n      swap1\n      sstore\n      pop\n        /* \"contracts/utils/Invoicing.sol\":1267:1277  _invoiceId */\n      dup2\n        /* \"contracts/utils/Invoicing.sol\":1246:1302  InvoiceStatusChanged(_invoiceId, InvoiceStatus.Approved) */\n      0x63186546e41a4082c1fa29562d179c8a9f175e2136c3f5f39504f67117f781fb\n        /* \"contracts/utils/Invoicing.sol\":1279:1301  InvoiceStatus.Approved */\n      0x01\n        /* \"contracts/utils/Invoicing.sol\":1246:1302  InvoiceStatusChanged(_invoiceId, InvoiceStatus.Approved) */\n      mload(0x40)\n      tag_85\n      swap2\n      swap1\n      tag_61\n      jump\t// in\n    tag_85:\n      mload(0x40)\n      dup1\n      swap2\n      sub\n      swap1\n      log2\n        /* \"contracts/utils/Invoicing.sol\":1066:1305  { Invoice storage invoice = invoices[_invoiceId]; require(invoice.status == InvoiceStatus.Pending, \"Invoicing: Invoice not pending\"); invoice.status = InvoiceStatus.Approved; emit InvoiceStatusChanged(_invoiceId, InvoiceStatus.Approved); } */\n      pop\n        /* \"contracts/utils/Invoicing.sol\":1006:1305  function approveInvoice(uint _invoiceId) external onlyOwner { Invoice storage invoice = invoices[_invoiceId]; require(invoice.status == InvoiceStatus.Pending, \"Invoicing: Invoice not pending\"); invoice.status = InvoiceStatus.Approved; emit InvoiceStatusChanged(_invoiceId, InvoiceStatus.Approved); } */\n      pop\n      jump\t// out\n        /* \"contracts/utils/Invoicing.sol\":660:1000  function createInvoice(string memory _desc, uint _amount) external {... */\n    tag_41:\n        /* \"contracts/utils/Invoicing.sol\":760:770  freelancer */\n      0x03\n      0x00\n      swap1\n      sload\n      swap1\n      0x0100\n      exp\n      swap1\n      div\n      0xffffffffffffffffffffffffffffffffffffffff\n      and\n        /* \"contracts/utils/Invoicing.sol\":746:770  msg.sender == freelancer */\n      0xffffffffffffffffffffffffffffffffffffffff\n      and\n        /* \"contracts/utils/Invoicing.sol\":746:756  msg.sender */\n      caller\n        /* \"contracts/utils/Invoicing.sol\":746:770  msg.sender == freelancer */\n      0xffffffffffffffffffffffffffffffffffffffff\n      and\n      eq\n        /* \"contracts/utils/Invoicing.sol\":738:812  require(msg.sender == freelancer, \"Invoicing: Not the project freelancer\") */\n      tag_87\n      jumpi\n      mload(0x40)\n      0x08c379a000000000000000000000000000000000000000000000000000000000\n      dup2\n      mstore\n      0x04\n      add\n      tag_88\n      swap1\n      tag_89\n      jump\t// in\n    tag_88:\n      mload(0x40)\n      dup1\n      swap2\n      sub\n      swap1\n      revert\n    tag_87:\n        /* \"contracts/utils/Invoicing.sol\":823:837  invoiceCounter */\n      0x02\n      0x00\n        /* \"contracts/utils/Invoicing.sol\":823:839  invoiceCounter++ */\n      dup2\n      sload\n      dup1\n      swap3\n      swap2\n      swap1\n      tag_90\n      swap1\n      tag_91\n      jump\t// in\n    tag_90:\n      swap2\n      swap1\n      pop\n      sstore\n      pop\n        /* \"contracts/utils/Invoicing.sol\":868:930  Invoice(invoiceCounter, _desc, _amount, InvoiceStatus.Pending) */\n      mload(0x40)\n      dup1\n      0x80\n      add\n      0x40\n      mstore\n      dup1\n        /* \"contracts/utils/Invoicing.sol\":876:890  invoiceCounter */\n      sload(0x02)\n        /* \"contracts/utils/Invoicing.sol\":868:930  Invoice(invoiceCounter, _desc, _amount, InvoiceStatus.Pending) */\n      dup2\n      mstore\n      0x20\n      add\n        /* \"contracts/utils/Invoicing.sol\":892:897  _desc */\n      dup4\n        /* \"contracts/utils/Invoicing.sol\":868:930  Invoice(invoiceCounter, _desc, _amount, InvoiceStatus.Pending) */\n      dup2\n      mstore\n      0x20\n      add\n        /* \"contracts/utils/Invoicing.sol\":899:906  _amount */\n      dup3\n        /* \"contracts/utils/Invoicing.sol\":868:930  Invoice(invoiceCounter, _desc, _amount, InvoiceStatus.Pending) */\n      dup2\n      mstore\n      0x20\n      add\n        /* \"contracts/utils/Invoicing.sol\":908:929  InvoiceStatus.Pending */\n      0x00\n        /* \"contracts/utils/Invoicing.sol\":868:930  Invoice(invoiceCounter, _desc, _amount, InvoiceStatus.Pending) */\n      0x02\n      dup2\n      gt\n      iszero\n      tag_92\n      jumpi\n      tag_93\n      tag_52\n      jump\t// in\n    tag_93:\n    tag_92:\n      dup2\n      mstore\n      pop\n        /* \"contracts/utils/Invoicing.sol\":841:849  invoices */\n      0x01\n        /* \"contracts/utils/Invoicing.sol\":841:865  invoices[invoiceCounter] */\n      0x00\n        /* \"contracts/utils/Invoicing.sol\":850:864  invoiceCounter */\n      sload(0x02)\n        /* \"contracts/utils/Invoicing.sol\":841:865  invoices[invoiceCounter] */\n      dup2\n      mstore\n      0x20\n      add\n      swap1\n      dup2\n      mstore\n      0x20\n      add\n      0x00\n      keccak256\n        /* \"contracts/utils/Invoicing.sol\":841:930  invoices[invoiceCounter] = Invoice(invoiceCounter, _desc, _amount, InvoiceStatus.Pending) */\n      0x00\n      dup3\n      add\n      mload\n      dup2\n      0x00\n      add\n      sstore\n      0x20\n      dup3\n      add\n      mload\n      dup2\n      0x01\n      add\n      swap1\n      dup2\n      tag_94\n      swap2\n      swap1\n      tag_95\n      jump\t// in\n    tag_94:\n      pop\n      0x40\n      dup3\n      add\n      mload\n      dup2\n      0x02\n      add\n      sstore\n      0x60\n      dup3\n      add\n      mload\n      dup2\n      0x03\n      add\n      exp(0x0100, 0x00)\n      dup2\n      sload\n      dup2\n      0xff\n      mul\n      not\n      and\n      swap1\n      dup4\n      0x02\n      dup2\n      gt\n      iszero\n      tag_96\n      jumpi\n      tag_97\n      tag_52\n      jump\t// in\n    tag_97:\n    tag_96:\n      mul\n      or\n      swap1\n      sstore\n      pop\n      swap1\n      pop\n      pop\n        /* \"contracts/utils/Invoicing.sol\":961:975  invoiceCounter */\n      sload(0x02)\n        /* \"contracts/utils/Invoicing.sol\":946:992  InvoiceCreated(invoiceCounter, _desc, _amount) */\n      0x7a7ddaccb026ceb5b95e8c35cacf01335336c5be6e99ba75ad63bcf811824d38\n        /* \"contracts/utils/Invoicing.sol\":977:982  _desc */\n      dup4\n        /* \"contracts/utils/Invoicing.sol\":984:991  _amount */\n      dup4\n        /* \"contracts/utils/Invoicing.sol\":946:992  InvoiceCreated(invoiceCounter, _desc, _amount) */\n      mload(0x40)\n      tag_98\n      swap3\n      swap2\n      swap1\n      tag_99\n      jump\t// in\n    tag_98:\n      mload(0x40)\n      dup1\n      swap2\n      sub\n      swap1\n      log2\n        /* \"contracts/utils/Invoicing.sol\":660:1000  function createInvoice(string memory _desc, uint _amount) external {... */\n      pop\n      pop\n      jump\t// out\n        /* \"@openzeppelin/contracts/access/Ownable.sol\":2543:2758  function transferOwnership(address newOwner) public virtual onlyOwner {... */\n    tag_45:\n        /* \"@openzeppelin/contracts/access/Ownable.sol\":1531:1544  _checkOwner() */\n      tag_101\n        /* \"@openzeppelin/contracts/access/Ownable.sol\":1531:1542  _checkOwner */\n      tag_48\n        /* \"@openzeppelin/contracts/access/Ownable.sol\":1531:1544  _checkOwner() */\n      jump\t// in\n    tag_101:\n        /* \"@openzeppelin/contracts/access/Ownable.sol\":2647:2648  0 */\n      0x00\n        /* \"@openzeppelin/contracts/access/Ownable.sol\":2627:2649  newOwner == address(0) */\n      0xffffffffffffffffffffffffffffffffffffffff\n      and\n        /* \"@openzeppelin/contracts/access/Ownable.sol\":2627:2635  newOwner */\n      dup2\n        /* \"@openzeppelin/contracts/access/Ownable.sol\":2627:2649  newOwner == address(0) */\n      0xffffffffffffffffffffffffffffffffffffffff\n      and\n      sub\n        /* \"@openzeppelin/contracts/access/Ownable.sol\":2623:2714  if (newOwner == address(0)) {... */\n      tag_103\n      jumpi\n        /* \"@openzeppelin/contracts/access/Ownable.sol\":2700:2701  0 */\n      0x00\n        /* \"@openzeppelin/contracts/access/Ownable.sol\":2672:2703  OwnableInvalidOwner(address(0)) */\n      mload(0x40)\n      0x1e4fbdf700000000000000000000000000000000000000000000000000000000\n      dup2\n      mstore\n      0x04\n      add\n      tag_104\n      swap2\n      swap1\n      tag_27\n      jump\t// in\n    tag_104:\n      mload(0x40)\n      dup1\n      swap2\n      sub\n      swap1\n      revert\n        /* \"@openzeppelin/contracts/access/Ownable.sol\":2623:2714  if (newOwner == address(0)) {... */\n    tag_103:\n        /* \"@openzeppelin/contracts/access/Ownable.sol\":2723:2751  _transferOwnership(newOwner) */\n      tag_105\n        /* \"@openzeppelin/contracts/access/Ownable.sol\":2742:2750  newOwner */\n      dup2\n        /* \"@openzeppelin/contracts/access/Ownable.sol\":2723:2741  _transferOwnership */\n      tag_72\n        /* \"@openzeppelin/contracts/access/Ownable.sol\":2723:2751  _transferOwnership(newOwner) */\n      jump\t// in\n    tag_105:\n        /* \"@openzeppelin/contracts/access/Ownable.sol\":2543:2758  function transferOwnership(address newOwner) public virtual onlyOwner {... */\n      pop\n      jump\t// out\n        /* \"@openzeppelin/contracts/access/Ownable.sol\":1796:1958  function _checkOwner() internal view virtual {... */\n    tag_48:\n        /* \"@openzeppelin/contracts/access/Ownable.sol\":1866:1878  _msgSender() */\n      tag_107\n        /* \"@openzeppelin/contracts/access/Ownable.sol\":1866:1876  _msgSender */\n      tag_108\n        /* \"@openzeppelin/contracts/access/Ownable.sol\":1866:1878  _msgSender() */\n      jump\t// in\n    tag_107:\n        /* \"@openzeppelin/contracts/access/Ownable.sol\":1855:1878  owner() != _msgSender() */\n      0xffffffffffffffffffffffffffffffffffffffff\n      and\n        /* \"@openzeppelin/contracts/access/Ownable.sol\":1855:1862  owner() */\n      tag_109\n        /* \"@openzeppelin/contracts/access/Ownable.sol\":1855:1860  owner */\n      tag_25\n        /* \"@openzeppelin/contracts/access/Ownable.sol\":1855:1862  owner() */\n      jump\t// in\n    tag_109:\n        /* \"@openzeppelin/contracts/access/Ownable.sol\":1855:1878  owner() != _msgSender() */\n      0xffffffffffffffffffffffffffffffffffffffff\n      and\n      eq\n        /* \"@openzeppelin/contracts/access/Ownable.sol\":1851:1952  if (owner() != _msgSender()) {... */\n      tag_110\n      jumpi\n        /* \"@openzeppelin/contracts/access/Ownable.sol\":1928:1940  _msgSender() */\n      tag_111\n        /* \"@openzeppelin/contracts/access/Ownable.sol\":1928:1938  _msgSender */\n      tag_108\n        /* \"@openzeppelin/contracts/access/Ownable.sol\":1928:1940  _msgSender() */\n      jump\t// in\n    tag_111:\n        /* \"@openzeppelin/contracts/access/Ownable.sol\":1901:1941  OwnableUnauthorizedAccount(_msgSender()) */\n      mload(0x40)\n      0x118cdaa700000000000000000000000000000000000000000000000000000000\n      dup2\n      mstore\n      0x04\n      add\n      tag_112\n      swap2\n      swap1\n      tag_27\n      jump\t// in\n    tag_112:\n      mload(0x40)\n      dup1\n      swap2\n      sub\n      swap1\n      revert\n        /* \"@openzeppelin/contracts/access/Ownable.sol\":1851:1952  if (owner() != _msgSender()) {... */\n    tag_110:\n        /* \"@openzeppelin/contracts/access/Ownable.sol\":1796:1958  function _checkOwner() internal view virtual {... */\n      jump\t// out\n        /* \"@openzeppelin/contracts/access/Ownable.sol\":2912:3099  function _transferOwnership(address newOwner) internal virtual {... */\n    tag_72:\n        /* \"@openzeppelin/contracts/access/Ownable.sol\":2985:3001  address oldOwner */\n      0x00\n        /* \"@openzeppelin/contracts/access/Ownable.sol\":3004:3010  _owner */\n      0x00\n      0x00\n      swap1\n      sload\n      swap1\n      0x0100\n      exp\n      swap1\n      div\n      0xffffffffffffffffffffffffffffffffffffffff\n      and\n        /* \"@openzeppelin/contracts/access/Ownable.sol\":2985:3010  address oldOwner = _owner */\n      swap1\n      pop\n        /* \"@openzeppelin/contracts/access/Ownable.sol\":3029:3037  newOwner */\n      dup2\n        /* \"@openzeppelin/contracts/access/Ownable.sol\":3020:3026  _owner */\n      0x00\n      0x00\n        /* \"@openzeppelin/contracts/access/Ownable.sol\":3020:3037  _owner = newOwner */\n      0x0100\n      exp\n      dup2\n      sload\n      dup2\n      0xffffffffffffffffffffffffffffffffffffffff\n      mul\n      not\n      and\n      swap1\n      dup4\n      0xffffffffffffffffffffffffffffffffffffffff\n      and\n      mul\n      or\n      swap1\n      sstore\n      pop\n        /* \"@openzeppelin/contracts/access/Ownable.sol\":3083:3091  newOwner */\n      dup2\n        /* \"@openzeppelin/contracts/access/Ownable.sol\":3052:3092  OwnershipTransferred(oldOwner, newOwner) */\n      0xffffffffffffffffffffffffffffffffffffffff\n      and\n        /* \"@openzeppelin/contracts/access/Ownable.sol\":3073:3081  oldOwner */\n      dup2\n        /* \"@openzeppelin/contracts/access/Ownable.sol\":3052:3092  OwnershipTransferred(oldOwner, newOwner) */\n      0xffffffffffffffffffffffffffffffffffffffff\n      and\n      0x8be0079c531659141344cd1fd0a4f28419497f9722a3daafe3b4186f6b6457e0\n      mload(0x40)\n      mload(0x40)\n      dup1\n      swap2\n      sub\n      swap1\n      log3\n        /* \"@openzeppelin/contracts/access/Ownable.sol\":2975:3099  {... */\n      pop\n        /* \"@openzeppelin/contracts/access/Ownable.sol\":2912:3099  function _transferOwnership(address newOwner) internal virtual {... */\n      pop\n      jump\t// out\n        /* \"@openzeppelin/contracts/utils/Context.sol\":656:752  function _msgSender() internal view virtual returns (address) {... */\n    tag_108:\n        /* \"@openzeppelin/contracts/utils/Context.sol\":709:716  address */\n      0x00\n        /* \"@openzeppelin/contracts/utils/Context.sol\":735:745  msg.sender */\n      caller\n        /* \"@openzeppelin/contracts/utils/Context.sol\":728:745  return msg.sender */\n      swap1\n      pop\n        /* \"@openzeppelin/contracts/utils/Context.sol\":656:752  function _msgSender() internal view virtual returns (address) {... */\n      swap1\n      jump\t// out\n        /* \"#utility.yul\":7:82   */\n    tag_115:\n        /* \"#utility.yul\":40:46   */\n      0x00\n        /* \"#utility.yul\":73:75   */\n      0x40\n        /* \"#utility.yul\":67:76   */\n      mload\n        /* \"#utility.yul\":57:76   */\n      swap1\n      pop\n        /* \"#utility.yul\":7:82   */\n      swap1\n      jump\t// out\n        /* \"#utility.yul\":88:205   */\n    tag_116:\n        /* \"#utility.yul\":197:198   */\n      0x00\n        /* \"#utility.yul\":194:195   */\n      0x00\n        /* \"#utility.yul\":187:199   */\n      revert\n        /* \"#utility.yul\":211:328   */\n    tag_117:\n        /* \"#utility.yul\":320:321   */\n      0x00\n        /* \"#utility.yul\":317:318   */\n      0x00\n        /* \"#utility.yul\":310:322   */\n      revert\n        /* \"#utility.yul\":334:411   */\n    tag_118:\n        /* \"#utility.yul\":371:378   */\n      0x00\n        /* \"#utility.yul\":400:405   */\n      dup2\n        /* \"#utility.yul\":389:405   */\n      swap1\n      pop\n        /* \"#utility.yul\":334:411   */\n      swap2\n      swap1\n      pop\n      jump\t// out\n        /* \"#utility.yul\":417:539   */\n    tag_119:\n        /* \"#utility.yul\":490:514   */\n      tag_172\n        /* \"#utility.yul\":508:513   */\n      dup2\n        /* \"#utility.yul\":490:514   */\n      tag_118\n      jump\t// in\n    tag_172:\n        /* \"#utility.yul\":483:488   */\n      dup2\n        /* \"#utility.yul\":480:515   */\n      eq\n        /* \"#utility.yul\":470:533   */\n      tag_173\n      jumpi\n        /* \"#utility.yul\":529:530   */\n      0x00\n        /* \"#utility.yul\":526:527   */\n      0x00\n        /* \"#utility.yul\":519:531   */\n      revert\n        /* \"#utility.yul\":470:533   */\n    tag_173:\n        /* \"#utility.yul\":417:539   */\n      pop\n      jump\t// out\n        /* \"#utility.yul\":545:684   */\n    tag_120:\n        /* \"#utility.yul\":591:596   */\n      0x00\n        /* \"#utility.yul\":629:635   */\n      dup2\n        /* \"#utility.yul\":616:636   */\n      calldataload\n        /* \"#utility.yul\":607:636   */\n      swap1\n      pop\n        /* \"#utility.yul\":645:678   */\n      tag_175\n        /* \"#utility.yul\":672:677   */\n      dup2\n        /* \"#utility.yul\":645:678   */\n      tag_119\n      jump\t// in\n    tag_175:\n        /* \"#utility.yul\":545:684   */\n      swap3\n      swap2\n      pop\n      pop\n      jump\t// out\n        /* \"#utility.yul\":690:1019   */\n    tag_15:\n        /* \"#utility.yul\":749:755   */\n      0x00\n        /* \"#utility.yul\":798:800   */\n      0x20\n        /* \"#utility.yul\":786:795   */\n      dup3\n        /* \"#utility.yul\":777:784   */\n      dup5\n        /* \"#utility.yul\":773:796   */\n      sub\n        /* \"#utility.yul\":769:801   */\n      slt\n        /* \"#utility.yul\":766:885   */\n      iszero\n      tag_177\n      jumpi\n        /* \"#utility.yul\":804:883   */\n      tag_178\n      tag_116\n      jump\t// in\n    tag_178:\n        /* \"#utility.yul\":766:885   */\n    tag_177:\n        /* \"#utility.yul\":924:925   */\n      0x00\n        /* \"#utility.yul\":949:1002   */\n      tag_179\n        /* \"#utility.yul\":994:1001   */\n      dup5\n        /* \"#utility.yul\":985:991   */\n      dup3\n        /* \"#utility.yul\":974:983   */\n      dup6\n        /* \"#utility.yul\":970:992   */\n      add\n        /* \"#utility.yul\":949:1002   */\n      tag_120\n      jump\t// in\n    tag_179:\n        /* \"#utility.yul\":939:1002   */\n      swap2\n      pop\n        /* \"#utility.yul\":895:1012   */\n      pop\n        /* \"#utility.yul\":690:1019   */\n      swap3\n      swap2\n      pop\n      pop\n      jump\t// out\n        /* \"#utility.yul\":1025:1143   */\n    tag_121:\n        /* \"#utility.yul\":1112:1136   */\n      tag_181\n        /* \"#utility.yul\":1130:1135   */\n      dup2\n        /* \"#utility.yul\":1112:1136   */\n      tag_118\n      jump\t// in\n    tag_181:\n        /* \"#utility.yul\":1107:1110   */\n      dup3\n        /* \"#utility.yul\":1100:1137   */\n      mstore\n        /* \"#utility.yul\":1025:1143   */\n      pop\n      pop\n      jump\t// out\n        /* \"#utility.yul\":1149:1248   */\n    tag_122:\n        /* \"#utility.yul\":1201:1207   */\n      0x00\n        /* \"#utility.yul\":1235:1240   */\n      dup2\n        /* \"#utility.yul\":1229:1241   */\n      mload\n        /* \"#utility.yul\":1219:1241   */\n      swap1\n      pop\n        /* \"#utility.yul\":1149:1248   */\n      swap2\n      swap1\n      pop\n      jump\t// out\n        /* \"#utility.yul\":1254:1423   */\n    tag_123:\n        /* \"#utility.yul\":1338:1349   */\n      0x00\n        /* \"#utility.yul\":1372:1378   */\n      dup3\n        /* \"#utility.yul\":1367:1370   */\n      dup3\n        /* \"#utility.yul\":1360:1379   */\n      mstore\n        /* \"#utility.yul\":1412:1416   */\n      0x20\n        /* \"#utility.yul\":1407:1410   */\n      dup3\n        /* \"#utility.yul\":1403:1417   */\n      add\n        /* \"#utility.yul\":1388:1417   */\n      swap1\n      pop\n        /* \"#utility.yul\":1254:1423   */\n      swap3\n      swap2\n      pop\n      pop\n      jump\t// out\n        /* \"#utility.yul\":1429:1568   */\n    tag_124:\n        /* \"#utility.yul\":1518:1524   */\n      dup3\n        /* \"#utility.yul\":1513:1516   */\n      dup2\n        /* \"#utility.yul\":1508:1511   */\n      dup4\n        /* \"#utility.yul\":1502:1525   */\n      mcopy\n        /* \"#utility.yul\":1559:1560   */\n      0x00\n        /* \"#utility.yul\":1550:1556   */\n      dup4\n        /* \"#utility.yul\":1545:1548   */\n      dup4\n        /* \"#utility.yul\":1541:1557   */\n      add\n        /* \"#utility.yul\":1534:1561   */\n      mstore\n        /* \"#utility.yul\":1429:1568   */\n      pop\n      pop\n      pop\n      jump\t// out\n        /* \"#utility.yul\":1574:1676   */\n    tag_125:\n        /* \"#utility.yul\":1615:1621   */\n      0x00\n        /* \"#utility.yul\":1666:1668   */\n      0x1f\n        /* \"#utility.yul\":1662:1669   */\n      not\n        /* \"#utility.yul\":1657:1659   */\n      0x1f\n        /* \"#utility.yul\":1650:1655   */\n      dup4\n        /* \"#utility.yul\":1646:1660   */\n      add\n        /* \"#utility.yul\":1642:1670   */\n      and\n        /* \"#utility.yul\":1632:1670   */\n      swap1\n      pop\n        /* \"#utility.yul\":1574:1676   */\n      swap2\n      swap1\n      pop\n      jump\t// out\n        /* \"#utility.yul\":1682:2059   */\n    tag_126:\n        /* \"#utility.yul\":1770:1773   */\n      0x00\n        /* \"#utility.yul\":1798:1837   */\n      tag_187\n        /* \"#utility.yul\":1831:1836   */\n      dup3\n        /* \"#utility.yul\":1798:1837   */\n      tag_122\n      jump\t// in\n    tag_187:\n        /* \"#utility.yul\":1853:1924   */\n      tag_188\n        /* \"#utility.yul\":1917:1923   */\n      dup2\n        /* \"#utility.yul\":1912:1915   */\n      dup6\n        /* \"#utility.yul\":1853:1924   */\n      tag_123\n      jump\t// in\n    tag_188:\n        /* \"#utility.yul\":1846:1924   */\n      swap4\n      pop\n        /* \"#utility.yul\":1933:1998   */\n      tag_189\n        /* \"#utility.yul\":1991:1997   */\n      dup2\n        /* \"#utility.yul\":1986:1989   */\n      dup6\n        /* \"#utility.yul\":1979:1983   */\n      0x20\n        /* \"#utility.yul\":1972:1977   */\n      dup7\n        /* \"#utility.yul\":1968:1984   */\n      add\n        /* \"#utility.yul\":1933:1998   */\n      tag_124\n      jump\t// in\n    tag_189:\n        /* \"#utility.yul\":2023:2052   */\n      tag_190\n        /* \"#utility.yul\":2045:2051   */\n      dup2\n        /* \"#utility.yul\":2023:2052   */\n      tag_125\n      jump\t// in\n    tag_190:\n        /* \"#utility.yul\":2018:2021   */\n      dup5\n        /* \"#utility.yul\":2014:2053   */\n      add\n        /* \"#utility.yul\":2007:2053   */\n      swap2\n      pop\n        /* \"#utility.yul\":1774:2059   */\n      pop\n        /* \"#utility.yul\":1682:2059   */\n      swap3\n      swap2\n      pop\n      pop\n      jump\t// out\n        /* \"#utility.yul\":2065:2245   */\n    tag_52:\n        /* \"#utility.yul\":2113:2190   */\n      0x4e487b7100000000000000000000000000000000000000000000000000000000\n        /* \"#utility.yul\":2110:2111   */\n      0x00\n        /* \"#utility.yul\":2103:2191   */\n      mstore\n        /* \"#utility.yul\":2210:2214   */\n      0x21\n        /* \"#utility.yul\":2207:2208   */\n      0x04\n        /* \"#utility.yul\":2200:2215   */\n      mstore\n        /* \"#utility.yul\":2234:2238   */\n      0x24\n        /* \"#utility.yul\":2231:2232   */\n      0x00\n        /* \"#utility.yul\":2224:2239   */\n      revert\n        /* \"#utility.yul\":2251:2373   */\n    tag_127:\n        /* \"#utility.yul\":2341:2342   */\n      0x03\n        /* \"#utility.yul\":2334:2339   */\n      dup2\n        /* \"#utility.yul\":2331:2343   */\n      lt\n        /* \"#utility.yul\":2321:2367   */\n      tag_193\n      jumpi\n        /* \"#utility.yul\":2347:2365   */\n      tag_194\n      tag_52\n      jump\t// in\n    tag_194:\n        /* \"#utility.yul\":2321:2367   */\n    tag_193:\n        /* \"#utility.yul\":2251:2373   */\n      pop\n      jump\t// out\n        /* \"#utility.yul\":2379:2524   */\n    tag_128:\n        /* \"#utility.yul\":2433:2440   */\n      0x00\n        /* \"#utility.yul\":2462:2467   */\n      dup2\n        /* \"#utility.yul\":2451:2467   */\n      swap1\n      pop\n        /* \"#utility.yul\":2468:2518   */\n      tag_196\n        /* \"#utility.yul\":2512:2517   */\n      dup3\n        /* \"#utility.yul\":2468:2518   */\n      tag_127\n      jump\t// in\n    tag_196:\n        /* \"#utility.yul\":2379:2524   */\n      swap2\n      swap1\n      pop\n      jump\t// out\n        /* \"#utility.yul\":2530:2675   */\n    tag_129:\n        /* \"#utility.yul\":2595:2604   */\n      0x00\n        /* \"#utility.yul\":2628:2669   */\n      tag_198\n        /* \"#utility.yul\":2663:2668   */\n      dup3\n        /* \"#utility.yul\":2628:2669   */\n      tag_128\n      jump\t// in\n    tag_198:\n        /* \"#utility.yul\":2615:2669   */\n      swap1\n      pop\n        /* \"#utility.yul\":2530:2675   */\n      swap2\n      swap1\n      pop\n      jump\t// out\n        /* \"#utility.yul\":2681:2842   */\n    tag_130:\n        /* \"#utility.yul\":2783:2835   */\n      tag_200\n        /* \"#utility.yul\":2829:2834   */\n      dup2\n        /* \"#utility.yul\":2783:2835   */\n      tag_129\n      jump\t// in\n    tag_200:\n        /* \"#utility.yul\":2778:2781   */\n      dup3\n        /* \"#utility.yul\":2771:2836   */\n      mstore\n        /* \"#utility.yul\":2681:2842   */\n      pop\n      pop\n      jump\t// out\n        /* \"#utility.yul\":2848:3522   */\n    tag_21:\n        /* \"#utility.yul\":3060:3064   */\n      0x00\n        /* \"#utility.yul\":3098:3101   */\n      0x80\n        /* \"#utility.yul\":3087:3096   */\n      dup3\n        /* \"#utility.yul\":3083:3102   */\n      add\n        /* \"#utility.yul\":3075:3102   */\n      swap1\n      pop\n        /* \"#utility.yul\":3112:3183   */\n      tag_202\n        /* \"#utility.yul\":3180:3181   */\n      0x00\n        /* \"#utility.yul\":3169:3178   */\n      dup4\n        /* \"#utility.yul\":3165:3182   */\n      add\n        /* \"#utility.yul\":3156:3162   */\n      dup8\n        /* \"#utility.yul\":3112:3183   */\n      tag_121\n      jump\t// in\n    tag_202:\n        /* \"#utility.yul\":3230:3239   */\n      dup2\n        /* \"#utility.yul\":3224:3228   */\n      dup2\n        /* \"#utility.yul\":3220:3240   */\n      sub\n        /* \"#utility.yul\":3215:3217   */\n      0x20\n        /* \"#utility.yul\":3204:3213   */\n      dup4\n        /* \"#utility.yul\":3200:3218   */\n      add\n        /* \"#utility.yul\":3193:3241   */\n      mstore\n        /* \"#utility.yul\":3258:3336   */\n      tag_203\n        /* \"#utility.yul\":3331:3335   */\n      dup2\n        /* \"#utility.yul\":3322:3328   */\n      dup7\n        /* \"#utility.yul\":3258:3336   */\n      tag_126\n      jump\t// in\n    tag_203:\n        /* \"#utility.yul\":3250:3336   */\n      swap1\n      pop\n        /* \"#utility.yul\":3346:3418   */\n      tag_204\n        /* \"#utility.yul\":3414:3416   */\n      0x40\n        /* \"#utility.yul\":3403:3412   */\n      dup4\n        /* \"#utility.yul\":3399:3417   */\n      add\n        /* \"#utility.yul\":3390:3396   */\n      dup6\n        /* \"#utility.yul\":3346:3418   */\n      tag_121\n      jump\t// in\n    tag_204:\n        /* \"#utility.yul\":3428:3515   */\n      tag_205\n        /* \"#utility.yul\":3511:3513   */\n      0x60\n        /* \"#utility.yul\":3500:3509   */\n      dup4\n        /* \"#utility.yul\":3496:3514   */\n      add\n        /* \"#utility.yul\":3487:3493   */\n      dup5\n        /* \"#utility.yul\":3428:3515   */\n      tag_130\n      jump\t// in\n    tag_205:\n        /* \"#utility.yul\":2848:3522   */\n      swap6\n      swap5\n      pop\n      pop\n      pop\n      pop\n      pop\n      jump\t// out\n        /* \"#utility.yul\":3528:3654   */\n    tag_131:\n        /* \"#utility.yul\":3565:3572   */\n      0x00\n        /* \"#utility.yul\":3605:3647   */\n      0xffffffffffffffffffffffffffffffffffffffff\n        /* \"#utility.yul\":3598:3603   */\n      dup3\n        /* \"#utility.yul\":3594:3648   */\n      and\n        /* \"#utility.yul\":3583:3648   */\n      swap1\n      pop\n        /* \"#utility.yul\":3528:3654   */\n      swap2\n      swap1\n      pop\n      jump\t// out\n        /* \"#utility.yul\":3660:3756   */\n    tag_132:\n        /* \"#utility.yul\":3697:3704   */\n      0x00\n        /* \"#utility.yul\":3726:3750   */\n      tag_208\n        /* \"#utility.yul\":3744:3749   */\n      dup3\n        /* \"#utility.yul\":3726:3750   */\n      tag_131\n      jump\t// in\n    tag_208:\n        /* \"#utility.yul\":3715:3750   */\n      swap1\n      pop\n        /* \"#utility.yul\":3660:3756   */\n      swap2\n      swap1\n      pop\n      jump\t// out\n        /* \"#utility.yul\":3762:3880   */\n    tag_133:\n        /* \"#utility.yul\":3849:3873   */\n      tag_210\n        /* \"#utility.yul\":3867:3872   */\n      dup2\n        /* \"#utility.yul\":3849:3873   */\n      tag_132\n      jump\t// in\n    tag_210:\n        /* \"#utility.yul\":3844:3847   */\n      dup3\n        /* \"#utility.yul\":3837:3874   */\n      mstore\n        /* \"#utility.yul\":3762:3880   */\n      pop\n      pop\n      jump\t// out\n        /* \"#utility.yul\":3886:4108   */\n    tag_27:\n        /* \"#utility.yul\":3979:3983   */\n      0x00\n        /* \"#utility.yul\":4017:4019   */\n      0x20\n        /* \"#utility.yul\":4006:4015   */\n      dup3\n        /* \"#utility.yul\":4002:4020   */\n      add\n        /* \"#utility.yul\":3994:4020   */\n      swap1\n      pop\n        /* \"#utility.yul\":4030:4101   */\n      tag_212\n        /* \"#utility.yul\":4098:4099   */\n      0x00\n        /* \"#utility.yul\":4087:4096   */\n      dup4\n        /* \"#utility.yul\":4083:4100   */\n      add\n        /* \"#utility.yul\":4074:4080   */\n      dup5\n        /* \"#utility.yul\":4030:4101   */\n      tag_133\n      jump\t// in\n    tag_212:\n        /* \"#utility.yul\":3886:4108   */\n      swap3\n      swap2\n      pop\n      pop\n      jump\t// out\n        /* \"#utility.yul\":4114:4336   */\n    tag_34:\n        /* \"#utility.yul\":4207:4211   */\n      0x00\n        /* \"#utility.yul\":4245:4247   */\n      0x20\n        /* \"#utility.yul\":4234:4243   */\n      dup3\n        /* \"#utility.yul\":4230:4248   */\n      add\n        /* \"#utility.yul\":4222:4248   */\n      swap1\n      pop\n        /* \"#utility.yul\":4258:4329   */\n      tag_214\n        /* \"#utility.yul\":4326:4327   */\n      0x00\n        /* \"#utility.yul\":4315:4324   */\n      dup4\n        /* \"#utility.yul\":4311:4328   */\n      add\n        /* \"#utility.yul\":4302:4308   */\n      dup5\n        /* \"#utility.yul\":4258:4329   */\n      tag_121\n      jump\t// in\n    tag_214:\n        /* \"#utility.yul\":4114:4336   */\n      swap3\n      swap2\n      pop\n      pop\n      jump\t// out\n        /* \"#utility.yul\":4342:4459   */\n    tag_134:\n        /* \"#utility.yul\":4451:4452   */\n      0x00\n        /* \"#utility.yul\":4448:4449   */\n      0x00\n        /* \"#utility.yul\":4441:4453   */\n      revert\n        /* \"#utility.yul\":4465:4582   */\n    tag_135:\n        /* \"#utility.yul\":4574:4575   */\n      0x00\n        /* \"#utility.yul\":4571:4572   */\n      0x00\n        /* \"#utility.yul\":4564:4576   */\n      revert\n        /* \"#utility.yul\":4588:4768   */\n    tag_136:\n        /* \"#utility.yul\":4636:4713   */\n      0x4e487b7100000000000000000000000000000000000000000000000000000000\n        /* \"#utility.yul\":4633:4634   */\n      0x00\n        /* \"#utility.yul\":4626:4714   */\n      mstore\n        /* \"#utility.yul\":4733:4737   */\n      0x41\n        /* \"#utility.yul\":4730:4731   */\n      0x04\n        /* \"#utility.yul\":4723:4738   */\n      mstore\n        /* \"#utility.yul\":4757:4761   */\n      0x24\n        /* \"#utility.yul\":4754:4755   */\n      0x00\n        /* \"#utility.yul\":4747:4762   */\n      revert\n        /* \"#utility.yul\":4774:5055   */\n    tag_137:\n        /* \"#utility.yul\":4857:4884   */\n      tag_219\n        /* \"#utility.yul\":4879:4883   */\n      dup3\n        /* \"#utility.yul\":4857:4884   */\n      tag_125\n      jump\t// in\n    tag_219:\n        /* \"#utility.yul\":4849:4855   */\n      dup2\n        /* \"#utility.yul\":4845:4885   */\n      add\n        /* \"#utility.yul\":4987:4993   */\n      dup2\n        /* \"#utility.yul\":4975:4985   */\n      dup2\n        /* \"#utility.yul\":4972:4994   */\n      lt\n        /* \"#utility.yul\":4951:4969   */\n      0xffffffffffffffff\n        /* \"#utility.yul\":4939:4949   */\n      dup3\n        /* \"#utility.yul\":4936:4970   */\n      gt\n        /* \"#utility.yul\":4933:4995   */\n      or\n        /* \"#utility.yul\":4930:5018   */\n      iszero\n      tag_220\n      jumpi\n        /* \"#utility.yul\":4998:5016   */\n      tag_221\n      tag_136\n      jump\t// in\n    tag_221:\n        /* \"#utility.yul\":4930:5018   */\n    tag_220:\n        /* \"#utility.yul\":5038:5048   */\n      dup1\n        /* \"#utility.yul\":5034:5036   */\n      0x40\n        /* \"#utility.yul\":5027:5049   */\n      mstore\n        /* \"#utility.yul\":4817:5055   */\n      pop\n        /* \"#utility.yul\":4774:5055   */\n      pop\n      pop\n      jump\t// out\n        /* \"#utility.yul\":5061:5190   */\n    tag_138:\n        /* \"#utility.yul\":5095:5101   */\n      0x00\n        /* \"#utility.yul\":5122:5142   */\n      tag_223\n      tag_115\n      jump\t// in\n    tag_223:\n        /* \"#utility.yul\":5112:5142   */\n      swap1\n      pop\n        /* \"#utility.yul\":5151:5184   */\n      tag_224\n        /* \"#utility.yul\":5179:5183   */\n      dup3\n        /* \"#utility.yul\":5171:5177   */\n      dup3\n        /* \"#utility.yul\":5151:5184   */\n      tag_137\n      jump\t// in\n    tag_224:\n        /* \"#utility.yul\":5061:5190   */\n      swap2\n      swap1\n      pop\n      jump\t// out\n        /* \"#utility.yul\":5196:5504   */\n    tag_139:\n        /* \"#utility.yul\":5258:5262   */\n      0x00\n        /* \"#utility.yul\":5348:5366   */\n      0xffffffffffffffff\n        /* \"#utility.yul\":5340:5346   */\n      dup3\n        /* \"#utility.yul\":5337:5367   */\n      gt\n        /* \"#utility.yul\":5334:5390   */\n      iszero\n      tag_226\n      jumpi\n        /* \"#utility.yul\":5370:5388   */\n      tag_227\n      tag_136\n      jump\t// in\n    tag_227:\n        /* \"#utility.yul\":5334:5390   */\n    tag_226:\n        /* \"#utility.yul\":5408:5437   */\n      tag_228\n        /* \"#utility.yul\":5430:5436   */\n      dup3\n        /* \"#utility.yul\":5408:5437   */\n      tag_125\n      jump\t// in\n    tag_228:\n        /* \"#utility.yul\":5400:5437   */\n      swap1\n      pop\n        /* \"#utility.yul\":5492:5496   */\n      0x20\n        /* \"#utility.yul\":5486:5490   */\n      dup2\n        /* \"#utility.yul\":5482:5497   */\n      add\n        /* \"#utility.yul\":5474:5497   */\n      swap1\n      pop\n        /* \"#utility.yul\":5196:5504   */\n      swap2\n      swap1\n      pop\n      jump\t// out\n        /* \"#utility.yul\":5510:5658   */\n    tag_140:\n        /* \"#utility.yul\":5608:5614   */\n      dup3\n        /* \"#utility.yul\":5603:5606   */\n      dup2\n        /* \"#utility.yul\":5598:5601   */\n      dup4\n        /* \"#utility.yul\":5585:5615   */\n      calldatacopy\n        /* \"#utility.yul\":5649:5650   */\n      0x00\n        /* \"#utility.yul\":5640:5646   */\n      dup4\n        /* \"#utility.yul\":5635:5638   */\n      dup4\n        /* \"#utility.yul\":5631:5647   */\n      add\n        /* \"#utility.yul\":5624:5651   */\n      mstore\n        /* \"#utility.yul\":5510:5658   */\n      pop\n      pop\n      pop\n      jump\t// out\n        /* \"#utility.yul\":5664:6089   */\n    tag_141:\n        /* \"#utility.yul\":5742:5747   */\n      0x00\n        /* \"#utility.yul\":5767:5833   */\n      tag_231\n        /* \"#utility.yul\":5783:5832   */\n      tag_232\n        /* \"#utility.yul\":5825:5831   */\n      dup5\n        /* \"#utility.yul\":5783:5832   */\n      tag_139\n      jump\t// in\n    tag_232:\n        /* \"#utility.yul\":5767:5833   */\n      tag_138\n      jump\t// in\n    tag_231:\n        /* \"#utility.yul\":5758:5833   */\n      swap1\n      pop\n        /* \"#utility.yul\":5856:5862   */\n      dup3\n        /* \"#utility.yul\":5849:5854   */\n      dup2\n        /* \"#utility.yul\":5842:5863   */\n      mstore\n        /* \"#utility.yul\":5894:5898   */\n      0x20\n        /* \"#utility.yul\":5887:5892   */\n      dup2\n        /* \"#utility.yul\":5883:5899   */\n      add\n        /* \"#utility.yul\":5932:5935   */\n      dup5\n        /* \"#utility.yul\":5923:5929   */\n      dup5\n        /* \"#utility.yul\":5918:5921   */\n      dup5\n        /* \"#utility.yul\":5914:5930   */\n      add\n        /* \"#utility.yul\":5911:5936   */\n      gt\n        /* \"#utility.yul\":5908:6020   */\n      iszero\n      tag_233\n      jumpi\n        /* \"#utility.yul\":5939:6018   */\n      tag_234\n      tag_135\n      jump\t// in\n    tag_234:\n        /* \"#utility.yul\":5908:6020   */\n    tag_233:\n        /* \"#utility.yul\":6029:6083   */\n      tag_235\n        /* \"#utility.yul\":6076:6082   */\n      dup5\n        /* \"#utility.yul\":6071:6074   */\n      dup3\n        /* \"#utility.yul\":6066:6069   */\n      dup6\n        /* \"#utility.yul\":6029:6083   */\n      tag_140\n      jump\t// in\n    tag_235:\n        /* \"#utility.yul\":5748:6089   */\n      pop\n        /* \"#utility.yul\":5664:6089   */\n      swap4\n      swap3\n      pop\n      pop\n      pop\n      jump\t// out\n        /* \"#utility.yul\":6109:6449   */\n    tag_142:\n        /* \"#utility.yul\":6165:6170   */\n      0x00\n        /* \"#utility.yul\":6214:6217   */\n      dup3\n        /* \"#utility.yul\":6207:6211   */\n      0x1f\n        /* \"#utility.yul\":6199:6205   */\n      dup4\n        /* \"#utility.yul\":6195:6212   */\n      add\n        /* \"#utility.yul\":6191:6218   */\n      slt\n        /* \"#utility.yul\":6181:6303   */\n      tag_237\n      jumpi\n        /* \"#utility.yul\":6222:6301   */\n      tag_238\n      tag_134\n      jump\t// in\n    tag_238:\n        /* \"#utility.yul\":6181:6303   */\n    tag_237:\n        /* \"#utility.yul\":6339:6345   */\n      dup2\n        /* \"#utility.yul\":6326:6346   */\n      calldataload\n        /* \"#utility.yul\":6364:6443   */\n      tag_239\n        /* \"#utility.yul\":6439:6442   */\n      dup5\n        /* \"#utility.yul\":6431:6437   */\n      dup3\n        /* \"#utility.yul\":6424:6428   */\n      0x20\n        /* \"#utility.yul\":6416:6422   */\n      dup7\n        /* \"#utility.yul\":6412:6429   */\n      add\n        /* \"#utility.yul\":6364:6443   */\n      tag_141\n      jump\t// in\n    tag_239:\n        /* \"#utility.yul\":6355:6443   */\n      swap2\n      pop\n        /* \"#utility.yul\":6171:6449   */\n      pop\n        /* \"#utility.yul\":6109:6449   */\n      swap3\n      swap2\n      pop\n      pop\n      jump\t// out\n        /* \"#utility.yul\":6455:7109   */\n    tag_40:\n        /* \"#utility.yul\":6533:6539   */\n      0x00\n        /* \"#utility.yul\":6541:6547   */\n      0x00\n        /* \"#utility.yul\":6590:6592   */\n      0x40\n        /* \"#utility.yul\":6578:6587   */\n      dup4\n        /* \"#utility.yul\":6569:6576   */\n      dup6\n        /* \"#utility.yul\":6565:6588   */\n      sub\n        /* \"#utility.yul\":6561:6593   */\n      slt\n        /* \"#utility.yul\":6558:6677   */\n      iszero\n      tag_241\n      jumpi\n        /* \"#utility.yul\":6596:6675   */\n      tag_242\n      tag_116\n      jump\t// in\n    tag_242:\n        /* \"#utility.yul\":6558:6677   */\n    tag_241:\n        /* \"#utility.yul\":6744:6745   */\n      0x00\n        /* \"#utility.yul\":6733:6742   */\n      dup4\n        /* \"#utility.yul\":6729:6746   */\n      add\n        /* \"#utility.yul\":6716:6747   */\n      calldataload\n        /* \"#utility.yul\":6774:6792   */\n      0xffffffffffffffff\n        /* \"#utility.yul\":6766:6772   */\n      dup2\n        /* \"#utility.yul\":6763:6793   */\n      gt\n        /* \"#utility.yul\":6760:6877   */\n      iszero\n      tag_243\n      jumpi\n        /* \"#utility.yul\":6796:6875   */\n      tag_244\n      tag_117\n      jump\t// in\n    tag_244:\n        /* \"#utility.yul\":6760:6877   */\n    tag_243:\n        /* \"#utility.yul\":6901:6964   */\n      tag_245\n        /* \"#utility.yul\":6956:6963   */\n      dup6\n        /* \"#utility.yul\":6947:6953   */\n      dup3\n        /* \"#utility.yul\":6936:6945   */\n      dup7\n        /* \"#utility.yul\":6932:6954   */\n      add\n        /* \"#utility.yul\":6901:6964   */\n      tag_142\n      jump\t// in\n    tag_245:\n        /* \"#utility.yul\":6891:6964   */\n      swap3\n      pop\n        /* \"#utility.yul\":6687:6974   */\n      pop\n        /* \"#utility.yul\":7013:7015   */\n      0x20\n        /* \"#utility.yul\":7039:7092   */\n      tag_246\n        /* \"#utility.yul\":7084:7091   */\n      dup6\n        /* \"#utility.yul\":7075:7081   */\n      dup3\n        /* \"#utility.yul\":7064:7073   */\n      dup7\n        /* \"#utility.yul\":7060:7082   */\n      add\n        /* \"#utility.yul\":7039:7092   */\n      tag_120\n      jump\t// in\n    tag_246:\n        /* \"#utility.yul\":7029:7092   */\n      swap2\n      pop\n        /* \"#utility.yul\":6984:7102   */\n      pop\n        /* \"#utility.yul\":6455:7109   */\n      swap3\n      pop\n      swap3\n      swap1\n      pop\n      jump\t// out\n        /* \"#utility.yul\":7115:7237   */\n    tag_143:\n        /* \"#utility.yul\":7188:7212   */\n      tag_248\n        /* \"#utility.yul\":7206:7211   */\n      dup2\n        /* \"#utility.yul\":7188:7212   */\n      tag_132\n      jump\t// in\n    tag_248:\n        /* \"#utility.yul\":7181:7186   */\n      dup2\n        /* \"#utility.yul\":7178:7213   */\n      eq\n        /* \"#utility.yul\":7168:7231   */\n      tag_249\n      jumpi\n        /* \"#utility.yul\":7227:7228   */\n      0x00\n        /* \"#utility.yul\":7224:7225   */\n      0x00\n        /* \"#utility.yul\":7217:7229   */\n      revert\n        /* \"#utility.yul\":7168:7231   */\n    tag_249:\n        /* \"#utility.yul\":7115:7237   */\n      pop\n      jump\t// out\n        /* \"#utility.yul\":7243:7382   */\n    tag_144:\n        /* \"#utility.yul\":7289:7294   */\n      0x00\n        /* \"#utility.yul\":7327:7333   */\n      dup2\n        /* \"#utility.yul\":7314:7334   */\n      calldataload\n        /* \"#utility.yul\":7305:7334   */\n      swap1\n      pop\n        /* \"#utility.yul\":7343:7376   */\n      tag_251\n        /* \"#utility.yul\":7370:7375   */\n      dup2\n        /* \"#utility.yul\":7343:7376   */\n      tag_143\n      jump\t// in\n    tag_251:\n        /* \"#utility.yul\":7243:7382   */\n      swap3\n      swap2\n      pop\n      pop\n      jump\t// out\n        /* \"#utility.yul\":7388:7717   */\n    tag_44:\n        /* \"#utility.yul\":7447:7453   */\n      0x00\n        /* \"#utility.yul\":7496:7498   */\n      0x20\n        /* \"#utility.yul\":7484:7493   */\n      dup3\n        /* \"#utility.yul\":7475:7482   */\n      dup5\n        /* \"#utility.yul\":7471:7494   */\n      sub\n        /* \"#utility.yul\":7467:7499   */\n      slt\n        /* \"#utility.yul\":7464:7583   */\n      iszero\n      tag_253\n      jumpi\n        /* \"#utility.yul\":7502:7581   */\n      tag_254\n      tag_116\n      jump\t// in\n    tag_254:\n        /* \"#utility.yul\":7464:7583   */\n    tag_253:\n        /* \"#utility.yul\":7622:7623   */\n      0x00\n        /* \"#utility.yul\":7647:7700   */\n      tag_255\n        /* \"#utility.yul\":7692:7699   */\n      dup5\n        /* \"#utility.yul\":7683:7689   */\n      dup3\n        /* \"#utility.yul\":7672:7681   */\n      dup6\n        /* \"#utility.yul\":7668:7690   */\n      add\n        /* \"#utility.yul\":7647:7700   */\n      tag_144\n      jump\t// in\n    tag_255:\n        /* \"#utility.yul\":7637:7700   */\n      swap2\n      pop\n        /* \"#utility.yul\":7593:7710   */\n      pop\n        /* \"#utility.yul\":7388:7717   */\n      swap3\n      swap2\n      pop\n      pop\n      jump\t// out\n        /* \"#utility.yul\":7723:7903   */\n    tag_145:\n        /* \"#utility.yul\":7863:7895   */\n      0x496e766f6963696e673a20496e766f696365206e6f742070656e64696e670000\n        /* \"#utility.yul\":7859:7860   */\n      0x00\n        /* \"#utility.yul\":7851:7857   */\n      dup3\n        /* \"#utility.yul\":7847:7861   */\n      add\n        /* \"#utility.yul\":7840:7896   */\n      mstore\n        /* \"#utility.yul\":7723:7903   */\n      pop\n      jump\t// out\n        /* \"#utility.yul\":7909:8275   */\n    tag_146:\n        /* \"#utility.yul\":8051:8054   */\n      0x00\n        /* \"#utility.yul\":8072:8139   */\n      tag_258\n        /* \"#utility.yul\":8136:8138   */\n      0x1e\n        /* \"#utility.yul\":8131:8134   */\n      dup4\n        /* \"#utility.yul\":8072:8139   */\n      tag_123\n      jump\t// in\n    tag_258:\n        /* \"#utility.yul\":8065:8139   */\n      swap2\n      pop\n        /* \"#utility.yul\":8148:8241   */\n      tag_259\n        /* \"#utility.yul\":8237:8240   */\n      dup3\n        /* \"#utility.yul\":8148:8241   */\n      tag_145\n      jump\t// in\n    tag_259:\n        /* \"#utility.yul\":8266:8268   */\n      0x20\n        /* \"#utility.yul\":8261:8264   */\n      dup3\n        /* \"#utility.yul\":8257:8269   */\n      add\n        /* \"#utility.yul\":8250:8269   */\n      swap1\n      pop\n        /* \"#utility.yul\":7909:8275   */\n      swap2\n      swap1\n      pop\n      jump\t// out\n        /* \"#utility.yul\":8281:8700   */\n    tag_57:\n        /* \"#utility.yul\":8447:8451   */\n      0x00\n        /* \"#utility.yul\":8485:8487   */\n      0x20\n        /* \"#utility.yul\":8474:8483   */\n      dup3\n        /* \"#utility.yul\":8470:8488   */\n      add\n        /* \"#utility.yul\":8462:8488   */\n      swap1\n      pop\n        /* \"#utility.yul\":8534:8543   */\n      dup2\n        /* \"#utility.yul\":8528:8532   */\n      dup2\n        /* \"#utility.yul\":8524:8544   */\n      sub\n        /* \"#utility.yul\":8520:8521   */\n      0x00\n        /* \"#utility.yul\":8509:8518   */\n      dup4\n        /* \"#utility.yul\":8505:8522   */\n      add\n        /* \"#utility.yul\":8498:8545   */\n      mstore\n        /* \"#utility.yul\":8562:8693   */\n      tag_261\n        /* \"#utility.yul\":8688:8692   */\n      dup2\n        /* \"#utility.yul\":8562:8693   */\n      tag_146\n      jump\t// in\n    tag_261:\n        /* \"#utility.yul\":8554:8693   */\n      swap1\n      pop\n        /* \"#utility.yul\":8281:8700   */\n      swap2\n      swap1\n      pop\n      jump\t// out\n        /* \"#utility.yul\":8706:8958   */\n    tag_61:\n        /* \"#utility.yul\":8814:8818   */\n      0x00\n        /* \"#utility.yul\":8852:8854   */\n      0x20\n        /* \"#utility.yul\":8841:8850   */\n      dup3\n        /* \"#utility.yul\":8837:8855   */\n      add\n        /* \"#utility.yul\":8829:8855   */\n      swap1\n      pop\n        /* \"#utility.yul\":8865:8951   */\n      tag_263\n        /* \"#utility.yul\":8948:8949   */\n      0x00\n        /* \"#utility.yul\":8937:8946   */\n      dup4\n        /* \"#utility.yul\":8933:8950   */\n      add\n        /* \"#utility.yul\":8924:8930   */\n      dup5\n        /* \"#utility.yul\":8865:8951   */\n      tag_130\n      jump\t// in\n    tag_263:\n        /* \"#utility.yul\":8706:8958   */\n      swap3\n      swap2\n      pop\n      pop\n      jump\t// out\n        /* \"#utility.yul\":8964:9144   */\n    tag_147:\n        /* \"#utility.yul\":9012:9089   */\n      0x4e487b7100000000000000000000000000000000000000000000000000000000\n        /* \"#utility.yul\":9009:9010   */\n      0x00\n        /* \"#utility.yul\":9002:9090   */\n      mstore\n        /* \"#utility.yul\":9109:9113   */\n      0x22\n        /* \"#utility.yul\":9106:9107   */\n      0x04\n        /* \"#utility.yul\":9099:9114   */\n      mstore\n        /* \"#utility.yul\":9133:9137   */\n      0x24\n        /* \"#utility.yul\":9130:9131   */\n      0x00\n        /* \"#utility.yul\":9123:9138   */\n      revert\n        /* \"#utility.yul\":9150:9470   */\n    tag_63:\n        /* \"#utility.yul\":9194:9200   */\n      0x00\n        /* \"#utility.yul\":9231:9232   */\n      0x02\n        /* \"#utility.yul\":9225:9229   */\n      dup3\n        /* \"#utility.yul\":9221:9233   */\n      div\n        /* \"#utility.yul\":9211:9233   */\n      swap1\n      pop\n        /* \"#utility.yul\":9278:9279   */\n      0x01\n        /* \"#utility.yul\":9272:9276   */\n      dup3\n        /* \"#utility.yul\":9268:9280   */\n      and\n        /* \"#utility.yul\":9299:9317   */\n      dup1\n        /* \"#utility.yul\":9289:9370   */\n      tag_266\n      jumpi\n        /* \"#utility.yul\":9355:9359   */\n      0x7f\n        /* \"#utility.yul\":9347:9353   */\n      dup3\n        /* \"#utility.yul\":9343:9360   */\n      and\n        /* \"#utility.yul\":9333:9360   */\n      swap2\n      pop\n        /* \"#utility.yul\":9289:9370   */\n    tag_266:\n        /* \"#utility.yul\":9417:9419   */\n      0x20\n        /* \"#utility.yul\":9409:9415   */\n      dup3\n        /* \"#utility.yul\":9406:9420   */\n      lt\n        /* \"#utility.yul\":9386:9404   */\n      dup2\n        /* \"#utility.yul\":9383:9421   */\n      sub\n        /* \"#utility.yul\":9380:9464   */\n      tag_267\n      jumpi\n        /* \"#utility.yul\":9436:9454   */\n      tag_268\n      tag_147\n      jump\t// in\n    tag_268:\n        /* \"#utility.yul\":9380:9464   */\n    tag_267:\n        /* \"#utility.yul\":9201:9470   */\n      pop\n        /* \"#utility.yul\":9150:9470   */\n      swap2\n      swap1\n      pop\n      jump\t// out\n        /* \"#utility.yul\":9476:9700   */\n    tag_148:\n        /* \"#utility.yul\":9616:9650   */\n      0x496e766f6963696e673a204e6f74207468652070726f6a65637420667265656c\n        /* \"#utility.yul\":9612:9613   */\n      0x00\n        /* \"#utility.yul\":9604:9610   */\n      dup3\n        /* \"#utility.yul\":9600:9614   */\n      add\n        /* \"#utility.yul\":9593:9651   */\n      mstore\n        /* \"#utility.yul\":9685:9692   */\n      0x616e636572000000000000000000000000000000000000000000000000000000\n        /* \"#utility.yul\":9680:9682   */\n      0x20\n        /* \"#utility.yul\":9672:9678   */\n      dup3\n        /* \"#utility.yul\":9668:9683   */\n      add\n        /* \"#utility.yul\":9661:9693   */\n      mstore\n        /* \"#utility.yul\":9476:9700   */\n      pop\n      jump\t// out\n        /* \"#utility.yul\":9706:10072   */\n    tag_149:\n        /* \"#utility.yul\":9848:9851   */\n      0x00\n        /* \"#utility.yul\":9869:9936   */\n      tag_271\n        /* \"#utility.yul\":9933:9935   */\n      0x25\n        /* \"#utility.yul\":9928:9931   */\n      dup4\n        /* \"#utility.yul\":9869:9936   */\n      tag_123\n      jump\t// in\n    tag_271:\n        /* \"#utility.yul\":9862:9936   */\n      swap2\n      pop\n        /* \"#utility.yul\":9945:10038   */\n      tag_272\n        /* \"#utility.yul\":10034:10037   */\n      dup3\n        /* \"#utility.yul\":9945:10038   */\n      tag_148\n      jump\t// in\n    tag_272:\n        /* \"#utility.yul\":10063:10065   */\n      0x40\n        /* \"#utility.yul\":10058:10061   */\n      dup3\n        /* \"#utility.yul\":10054:10066   */\n      add\n        /* \"#utility.yul\":10047:10066   */\n      swap1\n      pop\n        /* \"#utility.yul\":9706:10072   */\n      swap2\n      swap1\n      pop\n      jump\t// out\n        /* \"#utility.yul\":10078:10497   */\n    tag_89:\n        /* \"#utility.yul\":10244:10248   */\n      0x00\n        /* \"#utility.yul\":10282:10284   */\n      0x20\n        /* \"#utility.yul\":10271:10280   */\n      dup3\n        /* \"#utility.yul\":10267:10285   */\n      add\n        /* \"#utility.yul\":10259:10285   */\n      swap1\n      pop\n        /* \"#utility.yul\":10331:10340   */\n      dup2\n        /* \"#utility.yul\":10325:10329   */\n      dup2\n        /* \"#utility.yul\":10321:10341   */\n      sub\n        /* \"#utility.yul\":10317:10318   */\n      0x00\n        /* \"#utility.yul\":10306:10315   */\n      dup4\n        /* \"#utility.yul\":10302:10319   */\n      add\n        /* \"#utility.yul\":10295:10342   */\n      mstore\n        /* \"#utility.yul\":10359:10490   */\n      tag_274\n        /* \"#utility.yul\":10485:10489   */\n      dup2\n        /* \"#utility.yul\":10359:10490   */\n      tag_149\n      jump\t// in\n    tag_274:\n        /* \"#utility.yul\":10351:10490   */\n      swap1\n      pop\n        /* \"#utility.yul\":10078:10497   */\n      swap2\n      swap1\n      pop\n      jump\t// out\n        /* \"#utility.yul\":10503:10683   */\n    tag_150:\n        /* \"#utility.yul\":10551:10628   */\n      0x4e487b7100000000000000000000000000000000000000000000000000000000\n        /* \"#utility.yul\":10548:10549   */\n      0x00\n        /* \"#utility.yul\":10541:10629   */\n      mstore\n        /* \"#utility.yul\":10648:10652   */\n      0x11\n        /* \"#utility.yul\":10645:10646   */\n      0x04\n        /* \"#utility.yul\":10638:10653   */\n      mstore\n        /* \"#utility.yul\":10672:10676   */\n      0x24\n        /* \"#utility.yul\":10669:10670   */\n      0x00\n        /* \"#utility.yul\":10662:10677   */\n      revert\n        /* \"#utility.yul\":10689:10922   */\n    tag_91:\n        /* \"#utility.yul\":10728:10731   */\n      0x00\n        /* \"#utility.yul\":10751:10775   */\n      tag_277\n        /* \"#utility.yul\":10769:10774   */\n      dup3\n        /* \"#utility.yul\":10751:10775   */\n      tag_118\n      jump\t// in\n    tag_277:\n        /* \"#utility.yul\":10742:10775   */\n      swap2\n      pop\n        /* \"#utility.yul\":10797:10863   */\n      0xffffffffffffffffffffffffffffffffffffffffffffffffffffffffffffffff\n        /* \"#utility.yul\":10790:10795   */\n      dup3\n        /* \"#utility.yul\":10787:10864   */\n      sub\n        /* \"#utility.yul\":10784:10887   */\n      tag_278\n      jumpi\n        /* \"#utility.yul\":10867:10885   */\n      tag_279\n      tag_150\n      jump\t// in\n    tag_279:\n        /* \"#utility.yul\":10784:10887   */\n    tag_278:\n        /* \"#utility.yul\":10914:10915   */\n      0x01\n        /* \"#utility.yul\":10907:10912   */\n      dup3\n        /* \"#utility.yul\":10903:10916   */\n      add\n        /* \"#utility.yul\":10896:10916   */\n      swap1\n      pop\n        /* \"#utility.yul\":10689:10922   */\n      swap2\n      swap1\n      pop\n      jump\t// out\n        /* \"#utility.yul\":10928:11069   */\n    tag_151:\n        /* \"#utility.yul\":10977:10981   */\n      0x00\n        /* \"#utility.yul\":11000:11003   */\n      dup2\n        /* \"#utility.yul\":10992:11003   */\n      swap1\n      pop\n        /* \"#utility.yul\":11023:11026   */\n      dup2\n        /* \"#utility.yul\":11020:11021   */\n      0x00\n        /* \"#utility.yul\":11013:11027   */\n      mstore\n        /* \"#utility.yul\":11057:11061   */\n      0x20\n        /* \"#utility.yul\":11054:11055   */\n      0x00\n        /* \"#utility.yul\":11044:11062   */\n      keccak256\n        /* \"#utility.yul\":11036:11062   */\n      swap1\n      pop\n        /* \"#utility.yul\":10928:11069   */\n      swap2\n      swap1\n      pop\n      jump\t// out\n        /* \"#utility.yul\":11075:11168   */\n    tag_152:\n        /* \"#utility.yul\":11112:11118   */\n      0x00\n        /* \"#utility.yul\":11159:11161   */\n      0x20\n        /* \"#utility.yul\":11154:11156   */\n      0x1f\n        /* \"#utility.yul\":11147:11152   */\n      dup4\n        /* \"#utility.yul\":11143:11157   */\n      add\n        /* \"#utility.yul\":11139:11162   */\n      div\n        /* \"#utility.yul\":11129:11162   */\n      swap1\n      pop\n        /* \"#utility.yul\":11075:11168   */\n      swap2\n      swap1\n      pop\n      jump\t// out\n        /* \"#utility.yul\":11174:11281   */\n    tag_153:\n        /* \"#utility.yul\":11218:11226   */\n      0x00\n        /* \"#utility.yul\":11268:11273   */\n      dup3\n        /* \"#utility.yul\":11262:11266   */\n      dup3\n        /* \"#utility.yul\":11258:11274   */\n      shl\n        /* \"#utility.yul\":11237:11274   */\n      swap1\n      pop\n        /* \"#utility.yul\":11174:11281   */\n      swap3\n      swap2\n      pop\n      pop\n      jump\t// out\n        /* \"#utility.yul\":11287:11680   */\n    tag_154:\n        /* \"#utility.yul\":11356:11362   */\n      0x00\n        /* \"#utility.yul\":11406:11407   */\n      0x08\n        /* \"#utility.yul\":11394:11404   */\n      dup4\n        /* \"#utility.yul\":11390:11408   */\n      mul\n        /* \"#utility.yul\":11429:11526   */\n      tag_284\n        /* \"#utility.yul\":11459:11525   */\n      0xffffffffffffffffffffffffffffffffffffffffffffffffffffffffffffffff\n        /* \"#utility.yul\":11448:11457   */\n      dup3\n        /* \"#utility.yul\":11429:11526   */\n      tag_153\n      jump\t// in\n    tag_284:\n        /* \"#utility.yul\":11547:11586   */\n      tag_285\n        /* \"#utility.yul\":11577:11585   */\n      dup7\n        /* \"#utility.yul\":11566:11575   */\n      dup4\n        /* \"#utility.yul\":11547:11586   */\n      tag_153\n      jump\t// in\n    tag_285:\n        /* \"#utility.yul\":11535:11586   */\n      swap6\n      pop\n        /* \"#utility.yul\":11619:11623   */\n      dup1\n        /* \"#utility.yul\":11615:11624   */\n      not\n        /* \"#utility.yul\":11608:11613   */\n      dup5\n        /* \"#utility.yul\":11604:11625   */\n      and\n        /* \"#utility.yul\":11595:11625   */\n      swap4\n      pop\n        /* \"#utility.yul\":11668:11672   */\n      dup1\n        /* \"#utility.yul\":11658:11666   */\n      dup7\n        /* \"#utility.yul\":11654:11673   */\n      and\n        /* \"#utility.yul\":11647:11652   */\n      dup5\n        /* \"#utility.yul\":11644:11674   */\n      or\n        /* \"#utility.yul\":11634:11674   */\n      swap3\n      pop\n        /* \"#utility.yul\":11363:11680   */\n      pop\n      pop\n        /* \"#utility.yul\":11287:11680   */\n      swap4\n      swap3\n      pop\n      pop\n      pop\n      jump\t// out\n        /* \"#utility.yul\":11686:11746   */\n    tag_155:\n        /* \"#utility.yul\":11714:11717   */\n      0x00\n        /* \"#utility.yul\":11735:11740   */\n      dup2\n        /* \"#utility.yul\":11728:11740   */\n      swap1\n      pop\n        /* \"#utility.yul\":11686:11746   */\n      swap2\n      swap1\n      pop\n      jump\t// out\n        /* \"#utility.yul\":11752:11894   */\n    tag_156:\n        /* \"#utility.yul\":11802:11811   */\n      0x00\n        /* \"#utility.yul\":11835:11888   */\n      tag_288\n        /* \"#utility.yul\":11853:11887   */\n      tag_289\n        /* \"#utility.yul\":11862:11886   */\n      tag_290\n        /* \"#utility.yul\":11880:11885   */\n      dup5\n        /* \"#utility.yul\":11862:11886   */\n      tag_118\n      jump\t// in\n    tag_290:\n        /* \"#utility.yul\":11853:11887   */\n      tag_155\n      jump\t// in\n    tag_289:\n        /* \"#utility.yul\":11835:11888   */\n      tag_118\n      jump\t// in\n    tag_288:\n        /* \"#utility.yul\":11822:11888   */\n      swap1\n      pop\n        /* \"#utility.yul\":11752:11894   */\n      swap2\n      swap1\n      pop\n      jump\t// out\n        /* \"#utility.yul\":11900:11975   */\n    tag_157:\n        /* \"#utility.yul\":11943:11946   */\n      0x00\n        /* \"#utility.yul\":11964:11969   */\n      dup2\n        /* \"#utility.yul\":11957:11969   */\n      swap1\n      pop\n        /* \"#utility.yul\":11900:11975   */\n      swap2\n      swap1\n      pop\n      jump\t// out\n        /* \"#utility.yul\":11981:12250   */\n    tag_158:\n        /* \"#utility.yul\":12091:12130   */\n      tag_293\n        /* \"#utility.yul\":12122:12129   */\n      dup4\n        /* \"#utility.yul\":12091:12130   */\n      tag_156\n      jump\t// in\n    tag_293:\n        /* \"#utility.yul\":12152:12243   */\n      tag_294\n        /* \"#utility.yul\":12201:12242   */\n      tag_295\n        /* \"#utility.yul\":12225:12241   */\n      dup3\n        /* \"#utility.yul\":12201:12242   */\n      tag_157\n      jump\t// in\n    tag_295:\n        /* \"#utility.yul\":12193:12199   */\n      dup5\n        /* \"#utility.yul\":12186:12190   */\n      dup5\n        /* \"#utility.yul\":12180:12191   */\n      sload\n        /* \"#utility.yul\":12152:12243   */\n      tag_154\n      jump\t// in\n    tag_294:\n        /* \"#utility.yul\":12146:12150   */\n      dup3\n        /* \"#utility.yul\":12139:12244   */\n      sstore\n        /* \"#utility.yul\":12057:12250   */\n      pop\n        /* \"#utility.yul\":11981:12250   */\n      pop\n      pop\n      pop\n      jump\t// out\n        /* \"#utility.yul\":12256:12329   */\n    tag_159:\n        /* \"#utility.yul\":12301:12304   */\n      0x00\n        /* \"#utility.yul\":12322:12323   */\n      0x00\n        /* \"#utility.yul\":12315:12323   */\n      swap1\n      pop\n        /* \"#utility.yul\":12256:12329   */\n      swap1\n      jump\t// out\n        /* \"#utility.yul\":12335:12524   */\n    tag_160:\n        /* \"#utility.yul\":12412:12444   */\n      tag_298\n      tag_159\n      jump\t// in\n    tag_298:\n        /* \"#utility.yul\":12453:12518   */\n      tag_299\n        /* \"#utility.yul\":12511:12517   */\n      dup2\n        /* \"#utility.yul\":12503:12509   */\n      dup5\n        /* \"#utility.yul\":12497:12501   */\n      dup5\n        /* \"#utility.yul\":12453:12518   */\n      tag_158\n      jump\t// in\n    tag_299:\n        /* \"#utility.yul\":12388:12524   */\n      pop\n        /* \"#utility.yul\":12335:12524   */\n      pop\n      pop\n      jump\t// out\n        /* \"#utility.yul\":12530:12716   */\n    tag_161:\n        /* \"#utility.yul\":12590:12710   */\n    tag_301:\n        /* \"#utility.yul\":12607:12610   */\n      dup2\n        /* \"#utility.yul\":12600:12605   */\n      dup2\n        /* \"#utility.yul\":12597:12611   */\n      lt\n        /* \"#utility.yul\":12590:12710   */\n      iszero\n      tag_303\n      jumpi\n        /* \"#utility.yul\":12661:12700   */\n      tag_304\n        /* \"#utility.yul\":12698:12699   */\n      0x00\n        /* \"#utility.yul\":12691:12696   */\n      dup3\n        /* \"#utility.yul\":12661:12700   */\n      tag_160\n      jump\t// in\n    tag_304:\n        /* \"#utility.yul\":12634:12635   */\n      0x01\n        /* \"#utility.yul\":12627:12632   */\n      dup2\n        /* \"#utility.yul\":12623:12636   */\n      add\n        /* \"#utility.yul\":12614:12636   */\n      swap1\n      pop\n        /* \"#utility.yul\":12590:12710   */\n      jump(tag_301)\n    tag_303:\n        /* \"#utility.yul\":12530:12716   */\n      pop\n      pop\n      jump\t// out\n        /* \"#utility.yul\":12722:13265   */\n    tag_162:\n        /* \"#utility.yul\":12823:12825   */\n      0x1f\n        /* \"#utility.yul\":12818:12821   */\n      dup3\n        /* \"#utility.yul\":12815:12826   */\n      gt\n        /* \"#utility.yul\":12812:13258   */\n      iszero\n      tag_306\n      jumpi\n        /* \"#utility.yul\":12857:12895   */\n      tag_307\n        /* \"#utility.yul\":12889:12894   */\n      dup2\n        /* \"#utility.yul\":12857:12895   */\n      tag_151\n      jump\t// in\n    tag_307:\n        /* \"#utility.yul\":12941:12970   */\n      tag_308\n        /* \"#utility.yul\":12959:12969   */\n      dup5\n        /* \"#utility.yul\":12941:12970   */\n      tag_152\n      jump\t// in\n    tag_308:\n        /* \"#utility.yul\":12931:12939   */\n      dup2\n        /* \"#utility.yul\":12927:12971   */\n      add\n        /* \"#utility.yul\":13124:13126   */\n      0x20\n        /* \"#utility.yul\":13112:13122   */\n      dup6\n        /* \"#utility.yul\":13109:13127   */\n      lt\n        /* \"#utility.yul\":13106:13155   */\n      iszero\n      tag_309\n      jumpi\n        /* \"#utility.yul\":13145:13153   */\n      dup2\n        /* \"#utility.yul\":13130:13153   */\n      swap1\n      pop\n        /* \"#utility.yul\":13106:13155   */\n    tag_309:\n        /* \"#utility.yul\":13168:13248   */\n      tag_310\n        /* \"#utility.yul\":13224:13246   */\n      tag_311\n        /* \"#utility.yul\":13242:13245   */\n      dup6\n        /* \"#utility.yul\":13224:13246   */\n      tag_152\n      jump\t// in\n    tag_311:\n        /* \"#utility.yul\":13214:13222   */\n      dup4\n        /* \"#utility.yul\":13210:13247   */\n      add\n        /* \"#utility.yul\":13197:13208   */\n      dup3\n        /* \"#utility.yul\":13168:13248   */\n      tag_161\n      jump\t// in\n    tag_310:\n        /* \"#utility.yul\":12827:13258   */\n      pop\n      pop\n        /* \"#utility.yul\":12812:13258   */\n    tag_306:\n        /* \"#utility.yul\":12722:13265   */\n      pop\n      pop\n      pop\n      jump\t// out\n        /* \"#utility.yul\":13271:13388   */\n    tag_163:\n        /* \"#utility.yul\":13325:13333   */\n      0x00\n        /* \"#utility.yul\":13375:13380   */\n      dup3\n        /* \"#utility.yul\":13369:13373   */\n      dup3\n        /* \"#utility.yul\":13365:13381   */\n      shr\n        /* \"#utility.yul\":13344:13381   */\n      swap1\n      pop\n        /* \"#utility.yul\":13271:13388   */\n      swap3\n      swap2\n      pop\n      pop\n      jump\t// out\n        /* \"#utility.yul\":13394:13563   */\n    tag_164:\n        /* \"#utility.yul\":13438:13444   */\n      0x00\n        /* \"#utility.yul\":13471:13522   */\n      tag_314\n        /* \"#utility.yul\":13519:13520   */\n      0x00\n        /* \"#utility.yul\":13515:13521   */\n      not\n        /* \"#utility.yul\":13507:13512   */\n      dup5\n        /* \"#utility.yul\":13504:13505   */\n      0x08\n        /* \"#utility.yul\":13500:13513   */\n      mul\n        /* \"#utility.yul\":13471:13522   */\n      tag_163\n      jump\t// in\n    tag_314:\n        /* \"#utility.yul\":13467:13523   */\n      not\n        /* \"#utility.yul\":13552:13556   */\n      dup1\n        /* \"#utility.yul\":13546:13550   */\n      dup4\n        /* \"#utility.yul\":13542:13557   */\n      and\n        /* \"#utility.yul\":13532:13557   */\n      swap2\n      pop\n        /* \"#utility.yul\":13445:13563   */\n      pop\n        /* \"#utility.yul\":13394:13563   */\n      swap3\n      swap2\n      pop\n      pop\n      jump\t// out\n        /* \"#utility.yul\":13568:13863   */\n    tag_165:\n        /* \"#utility.yul\":13644:13648   */\n      0x00\n        /* \"#utility.yul\":13790:13819   */\n      tag_316\n        /* \"#utility.yul\":13815:13818   */\n      dup4\n        /* \"#utility.yul\":13809:13813   */\n      dup4\n        /* \"#utility.yul\":13790:13819   */\n      tag_164\n      jump\t// in\n    tag_316:\n        /* \"#utility.yul\":13782:13819   */\n      swap2\n      pop\n        /* \"#utility.yul\":13852:13855   */\n      dup3\n        /* \"#utility.yul\":13849:13850   */\n      0x02\n        /* \"#utility.yul\":13845:13856   */\n      mul\n        /* \"#utility.yul\":13839:13843   */\n      dup3\n        /* \"#utility.yul\":13836:13857   */\n      or\n        /* \"#utility.yul\":13828:13857   */\n      swap1\n      pop\n        /* \"#utility.yul\":13568:13863   */\n      swap3\n      swap2\n      pop\n      pop\n      jump\t// out\n        /* \"#utility.yul\":13868:15263   */\n    tag_95:\n        /* \"#utility.yul\":13985:14022   */\n      tag_318\n        /* \"#utility.yul\":14018:14021   */\n      dup3\n        /* \"#utility.yul\":13985:14022   */\n      tag_122\n      jump\t// in\n    tag_318:\n        /* \"#utility.yul\":14087:14105   */\n      0xffffffffffffffff\n        /* \"#utility.yul\":14079:14085   */\n      dup2\n        /* \"#utility.yul\":14076:14106   */\n      gt\n        /* \"#utility.yul\":14073:14129   */\n      iszero\n      tag_319\n      jumpi\n        /* \"#utility.yul\":14109:14127   */\n      tag_320\n      tag_136\n      jump\t// in\n    tag_320:\n        /* \"#utility.yul\":14073:14129   */\n    tag_319:\n        /* \"#utility.yul\":14153:14191   */\n      tag_321\n        /* \"#utility.yul\":14185:14189   */\n      dup3\n        /* \"#utility.yul\":14179:14190   */\n      sload\n        /* \"#utility.yul\":14153:14191   */\n      tag_63\n      jump\t// in\n    tag_321:\n        /* \"#utility.yul\":14238:14305   */\n      tag_322\n        /* \"#utility.yul\":14298:14304   */\n      dup3\n        /* \"#utility.yul\":14290:14296   */\n      dup3\n        /* \"#utility.yul\":14284:14288   */\n      dup6\n        /* \"#utility.yul\":14238:14305   */\n      tag_162\n      jump\t// in\n    tag_322:\n        /* \"#utility.yul\":14332:14333   */\n      0x00\n        /* \"#utility.yul\":14356:14360   */\n      0x20\n        /* \"#utility.yul\":14343:14360   */\n      swap1\n      pop\n        /* \"#utility.yul\":14388:14390   */\n      0x1f\n        /* \"#utility.yul\":14380:14386   */\n      dup4\n        /* \"#utility.yul\":14377:14391   */\n      gt\n        /* \"#utility.yul\":14405:14406   */\n      0x01\n        /* \"#utility.yul\":14400:15018   */\n      dup2\n      eq\n      tag_324\n      jumpi\n        /* \"#utility.yul\":15062:15063   */\n      0x00\n        /* \"#utility.yul\":15079:15085   */\n      dup5\n        /* \"#utility.yul\":15076:15153   */\n      iszero\n      tag_325\n      jumpi\n        /* \"#utility.yul\":15128:15137   */\n      dup3\n        /* \"#utility.yul\":15123:15126   */\n      dup8\n        /* \"#utility.yul\":15119:15138   */\n      add\n        /* \"#utility.yul\":15113:15139   */\n      mload\n        /* \"#utility.yul\":15104:15139   */\n      swap1\n      pop\n        /* \"#utility.yul\":15076:15153   */\n    tag_325:\n        /* \"#utility.yul\":15179:15246   */\n      tag_326\n        /* \"#utility.yul\":15239:15245   */\n      dup6\n        /* \"#utility.yul\":15232:15237   */\n      dup3\n        /* \"#utility.yul\":15179:15246   */\n      tag_165\n      jump\t// in\n    tag_326:\n        /* \"#utility.yul\":15173:15177   */\n      dup7\n        /* \"#utility.yul\":15166:15247   */\n      sstore\n        /* \"#utility.yul\":15035:15257   */\n      pop\n        /* \"#utility.yul\":14370:15257   */\n      jump(tag_323)\n        /* \"#utility.yul\":14400:15018   */\n    tag_324:\n        /* \"#utility.yul\":14452:14456   */\n      0x1f\n        /* \"#utility.yul\":14448:14457   */\n      not\n        /* \"#utility.yul\":14440:14446   */\n      dup5\n        /* \"#utility.yul\":14436:14458   */\n      and\n        /* \"#utility.yul\":14486:14523   */\n      tag_327\n        /* \"#utility.yul\":14518:14522   */\n      dup7\n        /* \"#utility.yul\":14486:14523   */\n      tag_151\n      jump\t// in\n    tag_327:\n        /* \"#utility.yul\":14545:14546   */\n      0x00\n        /* \"#utility.yul\":14559:14767   */\n    tag_328:\n        /* \"#utility.yul\":14573:14580   */\n      dup3\n        /* \"#utility.yul\":14570:14571   */\n      dup2\n        /* \"#utility.yul\":14567:14581   */\n      lt\n        /* \"#utility.yul\":14559:14767   */\n      iszero\n      tag_330\n      jumpi\n        /* \"#utility.yul\":14652:14661   */\n      dup5\n        /* \"#utility.yul\":14647:14650   */\n      dup10\n        /* \"#utility.yul\":14643:14662   */\n      add\n        /* \"#utility.yul\":14637:14663   */\n      mload\n        /* \"#utility.yul\":14629:14635   */\n      dup3\n        /* \"#utility.yul\":14622:14664   */\n      sstore\n        /* \"#utility.yul\":14703:14704   */\n      0x01\n        /* \"#utility.yul\":14695:14701   */\n      dup3\n        /* \"#utility.yul\":14691:14705   */\n      add\n        /* \"#utility.yul\":14681:14705   */\n      swap2\n      pop\n        /* \"#utility.yul\":14750:14752   */\n      0x20\n        /* \"#utility.yul\":14739:14748   */\n      dup6\n        /* \"#utility.yul\":14735:14753   */\n      add\n        /* \"#utility.yul\":14722:14753   */\n      swap5\n      pop\n        /* \"#utility.yul\":14596:14600   */\n      0x20\n        /* \"#utility.yul\":14593:14594   */\n      dup2\n        /* \"#utility.yul\":14589:14601   */\n      add\n        /* \"#utility.yul\":14584:14601   */\n      swap1\n      pop\n        /* \"#utility.yul\":14559:14767   */\n      jump(tag_328)\n    tag_330:\n        /* \"#utility.yul\":14795:14801   */\n      dup7\n        /* \"#utility.yul\":14786:14793   */\n      dup4\n        /* \"#utility.yul\":14783:14802   */\n      lt\n        /* \"#utility.yul\":14780:14959   */\n      iszero\n      tag_331\n      jumpi\n        /* \"#utility.yul\":14853:14862   */\n      dup5\n        /* \"#utility.yul\":14848:14851   */\n      dup10\n        /* \"#utility.yul\":14844:14863   */\n      add\n        /* \"#utility.yul\":14838:14864   */\n      mload\n        /* \"#utility.yul\":14896:14944   */\n      tag_332\n        /* \"#utility.yul\":14938:14942   */\n      0x1f\n        /* \"#utility.yul\":14930:14936   */\n      dup10\n        /* \"#utility.yul\":14926:14943   */\n      and\n        /* \"#utility.yul\":14915:14924   */\n      dup3\n        /* \"#utility.yul\":14896:14944   */\n      tag_164\n      jump\t// in\n    tag_332:\n        /* \"#utility.yul\":14888:14894   */\n      dup4\n        /* \"#utility.yul\":14881:14945   */\n      sstore\n        /* \"#utility.yul\":14803:14959   */\n      pop\n        /* \"#utility.yul\":14780:14959   */\n    tag_331:\n        /* \"#utility.yul\":15005:15006   */\n      0x01\n        /* \"#utility.yul\":15001:15002   */\n      0x02\n        /* \"#utility.yul\":14993:14999   */\n      dup9\n        /* \"#utility.yul\":14989:15003   */\n      mul\n        /* \"#utility.yul\":14985:15007   */\n      add\n        /* \"#utility.yul\":14979:14983   */\n      dup9\n        /* \"#utility.yul\":14972:15008   */\n      sstore\n        /* \"#utility.yul\":14407:15018   */\n      pop\n      pop\n      pop\n        /* \"#utility.yul\":14370:15257   */\n    tag_323:\n      pop\n        /* \"#utility.yul\":13960:15263   */\n      pop\n      pop\n      pop\n        /* \"#utility.yul\":13868:15263   */\n      pop\n      pop\n      jump\t// out\n        /* \"#utility.yul\":15269:15692   */\n    tag_99:\n        /* \"#utility.yul\":15410:15414   */\n      0x00\n        /* \"#utility.yul\":15448:15450   */\n      0x40\n        /* \"#utility.yul\":15437:15446   */\n      dup3\n        /* \"#utility.yul\":15433:15451   */\n      add\n        /* \"#utility.yul\":15425:15451   */\n      swap1\n      pop\n        /* \"#utility.yul\":15497:15506   */\n      dup2\n        /* \"#utility.yul\":15491:15495   */\n      dup2\n        /* \"#utility.yul\":15487:15507   */\n      sub\n        /* \"#utility.yul\":15483:15484   */\n      0x00\n        /* \"#utility.yul\":15472:15481   */\n      dup4\n        /* \"#utility.yul\":15468:15485   */\n      add\n        /* \"#utility.yul\":15461:15508   */\n      mstore\n        /* \"#utility.yul\":15525:15603   */\n      tag_334\n        /* \"#utility.yul\":15598:15602   */\n      dup2\n        /* \"#utility.yul\":15589:15595   */\n      dup6\n        /* \"#utility.yul\":15525:15603   */\n      tag_126\n      jump\t// in\n    tag_334:\n        /* \"#utility.yul\":15517:15603   */\n      swap1\n      pop\n        /* \"#utility.yul\":15613:15685   */\n      tag_335\n        /* \"#utility.yul\":15681:15683   */\n      0x20\n        /* \"#utility.yul\":15670:15679   */\n      dup4\n        /* \"#utility.yul\":15666:15684   */\n      add\n        /* \"#utility.yul\":15657:15663   */\n      dup5\n        /* \"#utility.yul\":15613:15685   */\n      tag_121\n      jump\t// in\n    tag_335:\n        /* \"#utility.yul\":15269:15692   */\n      swap4\n      swap3\n      pop\n      pop\n      pop\n      jump\t// out\n\n    auxdata: 0xa264697066735822122010ff1216fdc3a82db79ea4592e2cfb52eed65073a1831deb397607a9cd53dab564736f6c634300081e0033\n}\n",
				"bytecode": {
					"linkReferences": {},
					"object": "608060405234801561000f575f5ffd5b5060405161134538038061134583398181016040528101906100319190610218565b815f73ffffffffffffffffffffffffffffffffffffffff168173ffffffffffffffffffffffffffffffffffffffff16036100a2575f6040517f1e4fbdf70000000000000000000000000000000000000000000000000000000081526004016100999190610265565b60405180910390fd5b6100b1816100f960201b60201c565b508060035f6101000a81548173ffffffffffffffffffffffffffffffffffffffff021916908373ffffffffffffffffffffffffffffffffffffffff160217905550505061027e565b5f5f5f9054906101000a900473ffffffffffffffffffffffffffffffffffffffff169050815f5f6101000a81548173ffffffffffffffffffffffffffffffffffffffff021916908373ffffffffffffffffffffffffffffffffffffffff1602179055508173ffffffffffffffffffffffffffffffffffffffff168173ffffffffffffffffffffffffffffffffffffffff167f8be0079c531659141344cd1fd0a4f28419497f9722a3daafe3b4186f6b6457e060405160405180910390a35050565b5f5ffd5b5f73ffffffffffffffffffffffffffffffffffffffff82169050919050565b5f6101e7826101be565b9050919050565b6101f7816101dd565b8114610201575f5ffd5b50565b5f81519050610212816101ee565b92915050565b5f5f6040838503121561022e5761022d6101ba565b5b5f61023b85828601610204565b925050602061024c85828601610204565b9150509250929050565b61025f816101dd565b82525050565b5f6020820190506102785f830184610256565b92915050565b6110ba8061028b5f395ff3fe608060405234801561000f575f5ffd5b5060043610610091575f3560e01c8063a37dda2c11610064578063a37dda2c1461010c578063a57b381c1461012a578063b32413b714610148578063d4280d5a14610164578063f2fde38b1461018057610091565b80630f9a715e146100955780634e6d1405146100b1578063715018a6146100e45780638da5cb5b146100ee575b5f5ffd5b6100af60048036038101906100aa9190610854565b61019c565b005b6100cb60048036038101906100c69190610854565b610297565b6040516100db9493929190610971565b60405180910390f35b6100ec610355565b005b6100f6610368565b60405161010391906109fa565b60405180910390f35b61011461038f565b60405161012191906109fa565b60405180910390f35b6101326103b4565b60405161013f9190610a13565b60405180910390f35b610162600480360381019061015d9190610854565b6103ba565b005b61017e60048036038101906101799190610b58565b6104b5565b005b61019a60048036038101906101959190610bdc565b61063d565b005b6101a46106c1565b5f60015f8381526020019081526020015f2090505f60028111156101cb576101ca6108fe565b5b816003015f9054906101000a900460ff1660028111156101ee576101ed6108fe565b5b1461022e576040517f08c379a000000000000000000000000000000000000000000000000000000000815260040161022590610c51565b60405180910390fd5b6002816003015f6101000a81548160ff02191690836002811115610255576102546108fe565b5b0217905550817f63186546e41a4082c1fa29562d179c8a9f175e2136c3f5f39504f67117f781fb600260405161028b9190610c6f565b60405180910390a25050565b6001602052805f5260405f205f91509050805f0154908060010180546102bc90610cb5565b80601f01602080910402602001604051908101604052809291908181526020018280546102e890610cb5565b80156103335780601f1061030a57610100808354040283529160200191610333565b820191905f5260205f20905b81548152906001019060200180831161031657829003601f168201915b505050505090806002015490806003015f9054906101000a900460ff16905084565b61035d6106c1565b6103665f610748565b565b5f5f5f9054906101000a900473ffffffffffffffffffffffffffffffffffffffff16905090565b60035f9054906101000a900473ffffffffffffffffffffffffffffffffffffffff1681565b60025481565b6103c26106c1565b5f60015f8381526020019081526020015f2090505f60028111156103e9576103e86108fe565b5b816003015f9054906101000a900460ff16600281111561040c5761040b6108fe565b5b1461044c576040517f08c379a000000000000000000000000000000000000000000000000000000000815260040161044390610c51565b60405180910390fd5b6001816003015f6101000a81548160ff02191690836002811115610473576104726108fe565b5b0217905550817f63186546e41a4082c1fa29562d179c8a9f175e2136c3f5f39504f67117f781fb60016040516104a99190610c6f565b60405180910390a25050565b60035f9054906101000a900473ffffffffffffffffffffffffffffffffffffffff1673ffffffffffffffffffffffffffffffffffffffff163373ffffffffffffffffffffffffffffffffffffffff1614610544576040517f08c379a000000000000000000000000000000000000000000000000000000000815260040161053b90610d55565b60405180910390fd5b60025f81548092919061055690610da0565b9190505550604051806080016040528060025481526020018381526020018281526020015f600281111561058d5761058c6108fe565b5b81525060015f60025481526020019081526020015f205f820151815f015560208201518160010190816105c09190610f87565b50604082015181600201556060820151816003015f6101000a81548160ff021916908360028111156105f5576105f46108fe565b5b02179055509050506002547f7a7ddaccb026ceb5b95e8c35cacf01335336c5be6e99ba75ad63bcf811824d388383604051610631929190611056565b60405180910390a25050565b6106456106c1565b5f73ffffffffffffffffffffffffffffffffffffffff168173ffffffffffffffffffffffffffffffffffffffff16036106b5575f6040517f1e4fbdf70000000000000000000000000000000000000000000000000000000081526004016106ac91906109fa565b60405180910390fd5b6106be81610748565b50565b6106c9610809565b73ffffffffffffffffffffffffffffffffffffffff166106e7610368565b73ffffffffffffffffffffffffffffffffffffffff16146107465761070a610809565b6040517f118cdaa700000000000000000000000000000000000000000000000000000000815260040161073d91906109fa565b60405180910390fd5b565b5f5f5f9054906101000a900473ffffffffffffffffffffffffffffffffffffffff169050815f5f6101000a81548173ffffffffffffffffffffffffffffffffffffffff021916908373ffffffffffffffffffffffffffffffffffffffff1602179055508173ffffffffffffffffffffffffffffffffffffffff168173ffffffffffffffffffffffffffffffffffffffff167f8be0079c531659141344cd1fd0a4f28419497f9722a3daafe3b4186f6b6457e060405160405180910390a35050565b5f33905090565b5f604051905090565b5f5ffd5b5f5ffd5b5f819050919050565b61083381610821565b811461083d575f5ffd5b50565b5f8135905061084e8161082a565b92915050565b5f6020828403121561086957610868610819565b5b5f61087684828501610840565b91505092915050565b61088881610821565b82525050565b5f81519050919050565b5f82825260208201905092915050565b8281835e5f83830152505050565b5f601f19601f8301169050919050565b5f6108d08261088e565b6108da8185610898565b93506108ea8185602086016108a8565b6108f3816108b6565b840191505092915050565b7f4e487b71000000000000000000000000000000000000000000000000000000005f52602160045260245ffd5b6003811061093c5761093b6108fe565b5b50565b5f81905061094c8261092b565b919050565b5f61095b8261093f565b9050919050565b61096b81610951565b82525050565b5f6080820190506109845f83018761087f565b818103602083015261099681866108c6565b90506109a5604083018561087f565b6109b26060830184610962565b95945050505050565b5f73ffffffffffffffffffffffffffffffffffffffff82169050919050565b5f6109e4826109bb565b9050919050565b6109f4816109da565b82525050565b5f602082019050610a0d5f8301846109eb565b92915050565b5f602082019050610a265f83018461087f565b92915050565b5f5ffd5b5f5ffd5b7f4e487b71000000000000000000000000000000000000000000000000000000005f52604160045260245ffd5b610a6a826108b6565b810181811067ffffffffffffffff82111715610a8957610a88610a34565b5b80604052505050565b5f610a9b610810565b9050610aa78282610a61565b919050565b5f67ffffffffffffffff821115610ac657610ac5610a34565b5b610acf826108b6565b9050602081019050919050565b828183375f83830152505050565b5f610afc610af784610aac565b610a92565b905082815260208101848484011115610b1857610b17610a30565b5b610b23848285610adc565b509392505050565b5f82601f830112610b3f57610b3e610a2c565b5b8135610b4f848260208601610aea565b91505092915050565b5f5f60408385031215610b6e57610b6d610819565b5b5f83013567ffffffffffffffff811115610b8b57610b8a61081d565b5b610b9785828601610b2b565b9250506020610ba885828601610840565b9150509250929050565b610bbb816109da565b8114610bc5575f5ffd5b50565b5f81359050610bd681610bb2565b92915050565b5f60208284031215610bf157610bf0610819565b5b5f610bfe84828501610bc8565b91505092915050565b7f496e766f6963696e673a20496e766f696365206e6f742070656e64696e6700005f82015250565b5f610c3b601e83610898565b9150610c4682610c07565b602082019050919050565b5f6020820190508181035f830152610c6881610c2f565b9050919050565b5f602082019050610c825f830184610962565b92915050565b7f4e487b71000000000000000000000000000000000000000000000000000000005f52602260045260245ffd5b5f6002820490506001821680610ccc57607f821691505b602082108103610cdf57610cde610c88565b5b50919050565b7f496e766f6963696e673a204e6f74207468652070726f6a65637420667265656c5f8201527f616e636572000000000000000000000000000000000000000000000000000000602082015250565b5f610d3f602583610898565b9150610d4a82610ce5565b604082019050919050565b5f6020820190508181035f830152610d6c81610d33565b9050919050565b7f4e487b71000000000000000000000000000000000000000000000000000000005f52601160045260245ffd5b5f610daa82610821565b91507fffffffffffffffffffffffffffffffffffffffffffffffffffffffffffffffff8203610ddc57610ddb610d73565b5b600182019050919050565b5f819050815f5260205f209050919050565b5f6020601f8301049050919050565b5f82821b905092915050565b5f60088302610e437fffffffffffffffffffffffffffffffffffffffffffffffffffffffffffffffff82610e08565b610e4d8683610e08565b95508019841693508086168417925050509392505050565b5f819050919050565b5f610e88610e83610e7e84610821565b610e65565b610821565b9050919050565b5f819050919050565b610ea183610e6e565b610eb5610ead82610e8f565b848454610e14565b825550505050565b5f5f905090565b610ecc610ebd565b610ed7818484610e98565b505050565b5b81811015610efa57610eef5f82610ec4565b600181019050610edd565b5050565b601f821115610f3f57610f1081610de7565b610f1984610df9565b81016020851015610f28578190505b610f3c610f3485610df9565b830182610edc565b50505b505050565b5f82821c905092915050565b5f610f5f5f1984600802610f44565b1980831691505092915050565b5f610f778383610f50565b9150826002028217905092915050565b610f908261088e565b67ffffffffffffffff811115610fa957610fa8610a34565b5b610fb38254610cb5565b610fbe828285610efe565b5f60209050601f831160018114610fef575f8415610fdd578287015190505b610fe78582610f6c565b86555061104e565b601f198416610ffd86610de7565b5f5b8281101561102457848901518255600182019150602085019450602081019050610fff565b86831015611041578489015161103d601f891682610f50565b8355505b6001600288020188555050505b505050505050565b5f6040820190508181035f83015261106e81856108c6565b905061107d602083018461087f565b939250505056fea264697066735822122010ff1216fdc3a82db79ea4592e2cfb52eed65073a1831deb397607a9cd53dab564736f6c634300081e0033",
					"opcodes": "PUSH1 0x80 PUSH1 0x40 MSTORE CALLVALUE DUP1 ISZERO PUSH2 0xF JUMPI PUSH0 PUSH0 REVERT JUMPDEST POP PUSH1 0x40 MLOAD PUSH2 0x1345 CODESIZE SUB DUP1 PUSH2 0x1345 DUP4 CODECOPY DUP2 DUP2 ADD PUSH1 0x40 MSTORE DUP2 ADD SWAP1 PUSH2 0x31 SWAP2 SWAP1 PUSH2 0x218 JUMP JUMPDEST DUP2 PUSH0 PUSH20 0xFFFFFFFFFFFFFFFFFFFFFFFFFFFFFFFFFFFFFFFF AND DUP2 PUSH20 0xFFFFFFFFFFFFFFFFFFFFFFFFFFFFFFFFFFFFFFFF AND SUB PUSH2 0xA2 JUMPI PUSH0 PUSH1 0x40 MLOAD PUSH32 0x1E4FBDF700000000000000000000000000000000000000000000000000000000 DUP2 MSTORE PUSH1 0x4 ADD PUSH2 0x99 SWAP2 SWAP1 PUSH2 0x265 JUMP JUMPDEST PUSH1 0x40 MLOAD DUP1 SWAP2 SUB SWAP1 REVERT JUMPDEST PUSH2 0xB1 DUP2 PUSH2 0xF9 PUSH1 0x20 SHL PUSH1 0x20 SHR JUMP JUMPDEST POP DUP1 PUSH1 0x3 PUSH0 PUSH2 0x100 EXP DUP2 SLOAD DUP2 PUSH20 0xFFFFFFFFFFFFFFFFFFFFFFFFFFFFFFFFFFFFFFFF MUL NOT AND SWAP1 DUP4 PUSH20 0xFFFFFFFFFFFFFFFFFFFFFFFFFFFFFFFFFFFFFFFF AND MUL OR SWAP1 SSTORE POP POP POP PUSH2 0x27E JUMP JUMPDEST PUSH0 PUSH0 PUSH0 SWAP1 SLOAD SWAP1 PUSH2 0x100 EXP SWAP1 DIV PUSH20 0xFFFFFFFFFFFFFFFFFFFFFFFFFFFFFFFFFFFFFFFF AND SWAP1 POP DUP2 PUSH0 PUSH0 PUSH2 0x100 EXP DUP2 SLOAD DUP2 PUSH20 0xFFFFFFFFFFFFFFFFFFFFFFFFFFFFFFFFFFFFFFFF MUL NOT AND SWAP1 DUP4 PUSH20 0xFFFFFFFFFFFFFFFFFFFFFFFFFFFFFFFFFFFFFFFF AND MUL OR SWAP1 SSTORE POP DUP2 PUSH20 0xFFFFFFFFFFFFFFFFFFFFFFFFFFFFFFFFFFFFFFFF AND DUP2 PUSH20 0xFFFFFFFFFFFFFFFFFFFFFFFFFFFFFFFFFFFFFFFF AND PUSH32 0x8BE0079C531659141344CD1FD0A4F28419497F9722A3DAAFE3B4186F6B6457E0 PUSH1 0x40 MLOAD PUSH1 0x40 MLOAD DUP1 SWAP2 SUB SWAP1 LOG3 POP POP JUMP JUMPDEST PUSH0 PUSH0 REVERT JUMPDEST PUSH0 PUSH20 0xFFFFFFFFFFFFFFFFFFFFFFFFFFFFFFFFFFFFFFFF DUP3 AND SWAP1 POP SWAP2 SWAP1 POP JUMP JUMPDEST PUSH0 PUSH2 0x1E7 DUP3 PUSH2 0x1BE JUMP JUMPDEST SWAP1 POP SWAP2 SWAP1 POP JUMP JUMPDEST PUSH2 0x1F7 DUP2 PUSH2 0x1DD JUMP JUMPDEST DUP2 EQ PUSH2 0x201 JUMPI PUSH0 PUSH0 REVERT JUMPDEST POP JUMP JUMPDEST PUSH0 DUP2 MLOAD SWAP1 POP PUSH2 0x212 DUP2 PUSH2 0x1EE JUMP JUMPDEST SWAP3 SWAP2 POP POP JUMP JUMPDEST PUSH0 PUSH0 PUSH1 0x40 DUP4 DUP6 SUB SLT ISZERO PUSH2 0x22E JUMPI PUSH2 0x22D PUSH2 0x1BA JUMP JUMPDEST JUMPDEST PUSH0 PUSH2 0x23B DUP6 DUP3 DUP7 ADD PUSH2 0x204 JUMP JUMPDEST SWAP3 POP POP PUSH1 0x20 PUSH2 0x24C DUP6 DUP3 DUP7 ADD PUSH2 0x204 JUMP JUMPDEST SWAP2 POP POP SWAP3 POP SWAP3 SWAP1 POP JUMP JUMPDEST PUSH2 0x25F DUP2 PUSH2 0x1DD JUMP JUMPDEST DUP3 MSTORE POP POP JUMP JUMPDEST PUSH0 PUSH1 0x20 DUP3 ADD SWAP1 POP PUSH2 0x278 PUSH0 DUP4 ADD DUP5 PUSH2 0x256 JUMP JUMPDEST SWAP3 SWAP2 POP POP JUMP JUMPDEST PUSH2 0x10BA DUP1 PUSH2 0x28B PUSH0 CODECOPY PUSH0 RETURN INVALID PUSH1 0x80 PUSH1 0x40 MSTORE CALLVALUE DUP1 ISZERO PUSH2 0xF JUMPI PUSH0 PUSH0 REVERT JUMPDEST POP PUSH1 0x4 CALLDATASIZE LT PUSH2 0x91 JUMPI PUSH0 CALLDATALOAD PUSH1 0xE0 SHR DUP1 PUSH4 0xA37DDA2C GT PUSH2 0x64 JUMPI DUP1 PUSH4 0xA37DDA2C EQ PUSH2 0x10C JUMPI DUP1 PUSH4 0xA57B381C EQ PUSH2 0x12A JUMPI DUP1 PUSH4 0xB32413B7 EQ PUSH2 0x148 JUMPI DUP1 PUSH4 0xD4280D5A EQ PUSH2 0x164 JUMPI DUP1 PUSH4 0xF2FDE38B EQ PUSH2 0x180 JUMPI PUSH2 0x91 JUMP JUMPDEST DUP1 PUSH4 0xF9A715E EQ PUSH2 0x95 JUMPI DUP1 PUSH4 0x4E6D1405 EQ PUSH2 0xB1 JUMPI DUP1 PUSH4 0x715018A6 EQ PUSH2 0xE4 JUMPI DUP1 PUSH4 0x8DA5CB5B EQ PUSH2 0xEE JUMPI JUMPDEST PUSH0 PUSH0 REVERT JUMPDEST PUSH2 0xAF PUSH1 0x4 DUP1 CALLDATASIZE SUB DUP2 ADD SWAP1 PUSH2 0xAA SWAP2 SWAP1 PUSH2 0x854 JUMP JUMPDEST PUSH2 0x19C JUMP JUMPDEST STOP JUMPDEST PUSH2 0xCB PUSH1 0x4 DUP1 CALLDATASIZE SUB DUP2 ADD SWAP1 PUSH2 0xC6 SWAP2 SWAP1 PUSH2 0x854 JUMP JUMPDEST PUSH2 0x297 JUMP JUMPDEST PUSH1 0x40 MLOAD PUSH2 0xDB SWAP5 SWAP4 SWAP3 SWAP2 SWAP1 PUSH2 0x971 JUMP JUMPDEST PUSH1 0x40 MLOAD DUP1 SWAP2 SUB SWAP1 RETURN JUMPDEST PUSH2 0xEC PUSH2 0x355 JUMP JUMPDEST STOP JUMPDEST PUSH2 0xF6 PUSH2 0x368 JUMP JUMPDEST PUSH1 0x40 MLOAD PUSH2 0x103 SWAP2 SWAP1 PUSH2 0x9FA JUMP JUMPDEST PUSH1 0x40 MLOAD DUP1 SWAP2 SUB SWAP1 RETURN JUMPDEST PUSH2 0x114 PUSH2 0x38F JUMP JUMPDEST PUSH1 0x40 MLOAD PUSH2 0x121 SWAP2 SWAP1 PUSH2 0x9FA JUMP JUMPDEST PUSH1 0x40 MLOAD DUP1 SWAP2 SUB SWAP1 RETURN JUMPDEST PUSH2 0x132 PUSH2 0x3B4 JUMP JUMPDEST PUSH1 0x40 MLOAD PUSH2 0x13F SWAP2 SWAP1 PUSH2 0xA13 JUMP JUMPDEST PUSH1 0x40 MLOAD DUP1 SWAP2 SUB SWAP1 RETURN JUMPDEST PUSH2 0x162 PUSH1 0x4 DUP1 CALLDATASIZE SUB DUP2 ADD SWAP1 PUSH2 0x15D SWAP2 SWAP1 PUSH2 0x854 JUMP JUMPDEST PUSH2 0x3BA JUMP JUMPDEST STOP JUMPDEST PUSH2 0x17E PUSH1 0x4 DUP1 CALLDATASIZE SUB DUP2 ADD SWAP1 PUSH2 0x179 SWAP2 SWAP1 PUSH2 0xB58 JUMP JUMPDEST PUSH2 0x4B5 JUMP JUMPDEST STOP JUMPDEST PUSH2 0x19A PUSH1 0x4 DUP1 CALLDATASIZE SUB DUP2 ADD SWAP1 PUSH2 0x195 SWAP2 SWAP1 PUSH2 0xBDC JUMP JUMPDEST PUSH2 0x63D JUMP JUMPDEST STOP JUMPDEST PUSH2 0x1A4 PUSH2 0x6C1 JUMP JUMPDEST PUSH0 PUSH1 0x1 PUSH0 DUP4 DUP2 MSTORE PUSH1 0x20 ADD SWAP1 DUP2 MSTORE PUSH1 0x20 ADD PUSH0 KECCAK256 SWAP1 POP PUSH0 PUSH1 0x2 DUP2 GT ISZERO PUSH2 0x1CB JUMPI PUSH2 0x1CA PUSH2 0x8FE JUMP JUMPDEST JUMPDEST DUP2 PUSH1 0x3 ADD PUSH0 SWAP1 SLOAD SWAP1 PUSH2 0x100 EXP SWAP1 DIV PUSH1 0xFF AND PUSH1 0x2 DUP2 GT ISZERO PUSH2 0x1EE JUMPI PUSH2 0x1ED PUSH2 0x8FE JUMP JUMPDEST JUMPDEST EQ PUSH2 0x22E JUMPI PUSH1 0x40 MLOAD PUSH32 0x8C379A000000000000000000000000000000000000000000000000000000000 DUP2 MSTORE PUSH1 0x4 ADD PUSH2 0x225 SWAP1 PUSH2 0xC51 JUMP JUMPDEST PUSH1 0x40 MLOAD DUP1 SWAP2 SUB SWAP1 REVERT JUMPDEST PUSH1 0x2 DUP2 PUSH1 0x3 ADD PUSH0 PUSH2 0x100 EXP DUP2 SLOAD DUP2 PUSH1 0xFF MUL NOT AND SWAP1 DUP4 PUSH1 0x2 DUP2 GT ISZERO PUSH2 0x255 JUMPI PUSH2 0x254 PUSH2 0x8FE JUMP JUMPDEST JUMPDEST MUL OR SWAP1 SSTORE POP DUP2 PUSH32 0x63186546E41A4082C1FA29562D179C8A9F175E2136C3F5F39504F67117F781FB PUSH1 0x2 PUSH1 0x40 MLOAD PUSH2 0x28B SWAP2 SWAP1 PUSH2 0xC6F JUMP JUMPDEST PUSH1 0x40 MLOAD DUP1 SWAP2 SUB SWAP1 LOG2 POP POP JUMP JUMPDEST PUSH1 0x1 PUSH1 0x20 MSTORE DUP1 PUSH0 MSTORE PUSH1 0x40 PUSH0 KECCAK256 PUSH0 SWAP2 POP SWAP1 POP DUP1 PUSH0 ADD SLOAD SWAP1 DUP1 PUSH1 0x1 ADD DUP1 SLOAD PUSH2 0x2BC SWAP1 PUSH2 0xCB5 JUMP JUMPDEST DUP1 PUSH1 0x1F ADD PUSH1 0x20 DUP1 SWAP2 DIV MUL PUSH1 0x20 ADD PUSH1 0x40 MLOAD SWAP1 DUP2 ADD PUSH1 0x40 MSTORE DUP1 SWAP3 SWAP2 SWAP1 DUP2 DUP2 MSTORE PUSH1 0x20 ADD DUP3 DUP1 SLOAD PUSH2 0x2E8 SWAP1 PUSH2 0xCB5 JUMP JUMPDEST DUP1 ISZERO PUSH2 0x333 JUMPI DUP1 PUSH1 0x1F LT PUSH2 0x30A JUMPI PUSH2 0x100 DUP1 DUP4 SLOAD DIV MUL DUP4 MSTORE SWAP2 PUSH1 0x20 ADD SWAP2 PUSH2 0x333 JUMP JUMPDEST DUP3 ADD SWAP2 SWAP1 PUSH0 MSTORE PUSH1 0x20 PUSH0 KECCAK256 SWAP1 JUMPDEST DUP2 SLOAD DUP2 MSTORE SWAP1 PUSH1 0x1 ADD SWAP1 PUSH1 0x20 ADD DUP1 DUP4 GT PUSH2 0x316 JUMPI DUP3 SWAP1 SUB PUSH1 0x1F AND DUP3 ADD SWAP2 JUMPDEST POP POP POP POP POP SWAP1 DUP1 PUSH1 0x2 ADD SLOAD SWAP1 DUP1 PUSH1 0x3 ADD PUSH0 SWAP1 SLOAD SWAP1 PUSH2 0x100 EXP SWAP1 DIV PUSH1 0xFF AND SWAP1 POP DUP5 JUMP JUMPDEST PUSH2 0x35D PUSH2 0x6C1 JUMP JUMPDEST PUSH2 0x366 PUSH0 PUSH2 0x748 JUMP JUMPDEST JUMP JUMPDEST PUSH0 PUSH0 PUSH0 SWAP1 SLOAD SWAP1 PUSH2 0x100 EXP SWAP1 DIV PUSH20 0xFFFFFFFFFFFFFFFFFFFFFFFFFFFFFFFFFFFFFFFF AND SWAP1 POP SWAP1 JUMP JUMPDEST PUSH1 0x3 PUSH0 SWAP1 SLOAD SWAP1 PUSH2 0x100 EXP SWAP1 DIV PUSH20 0xFFFFFFFFFFFFFFFFFFFFFFFFFFFFFFFFFFFFFFFF AND DUP2 JUMP JUMPDEST PUSH1 0x2 SLOAD DUP2 JUMP JUMPDEST PUSH2 0x3C2 PUSH2 0x6C1 JUMP JUMPDEST PUSH0 PUSH1 0x1 PUSH0 DUP4 DUP2 MSTORE PUSH1 0x20 ADD SWAP1 DUP2 MSTORE PUSH1 0x20 ADD PUSH0 KECCAK256 SWAP1 POP PUSH0 PUSH1 0x2 DUP2 GT ISZERO PUSH2 0x3E9 JUMPI PUSH2 0x3E8 PUSH2 0x8FE JUMP JUMPDEST JUMPDEST DUP2 PUSH1 0x3 ADD PUSH0 SWAP1 SLOAD SWAP1 PUSH2 0x100 EXP SWAP1 DIV PUSH1 0xFF AND PUSH1 0x2 DUP2 GT ISZERO PUSH2 0x40C JUMPI PUSH2 0x40B PUSH2 0x8FE JUMP JUMPDEST JUMPDEST EQ PUSH2 0x44C JUMPI PUSH1 0x40 MLOAD PUSH32 0x8C379A000000000000000000000000000000000000000000000000000000000 DUP2 MSTORE PUSH1 0x4 ADD PUSH2 0x443 SWAP1 PUSH2 0xC51 JUMP JUMPDEST PUSH1 0x40 MLOAD DUP1 SWAP2 SUB SWAP1 REVERT JUMPDEST PUSH1 0x1 DUP2 PUSH1 0x3 ADD PUSH0 PUSH2 0x100 EXP DUP2 SLOAD DUP2 PUSH1 0xFF MUL NOT AND SWAP1 DUP4 PUSH1 0x2 DUP2 GT ISZERO PUSH2 0x473 JUMPI PUSH2 0x472 PUSH2 0x8FE JUMP JUMPDEST JUMPDEST MUL OR SWAP1 SSTORE POP DUP2 PUSH32 0x63186546E41A4082C1FA29562D179C8A9F175E2136C3F5F39504F67117F781FB PUSH1 0x1 PUSH1 0x40 MLOAD PUSH2 0x4A9 SWAP2 SWAP1 PUSH2 0xC6F JUMP JUMPDEST PUSH1 0x40 MLOAD DUP1 SWAP2 SUB SWAP1 LOG2 POP POP JUMP JUMPDEST PUSH1 0x3 PUSH0 SWAP1 SLOAD SWAP1 PUSH2 0x100 EXP SWAP1 DIV PUSH20 0xFFFFFFFFFFFFFFFFFFFFFFFFFFFFFFFFFFFFFFFF AND PUSH20 0xFFFFFFFFFFFFFFFFFFFFFFFFFFFFFFFFFFFFFFFF AND CALLER PUSH20 0xFFFFFFFFFFFFFFFFFFFFFFFFFFFFFFFFFFFFFFFF AND EQ PUSH2 0x544 JUMPI PUSH1 0x40 MLOAD PUSH32 0x8C379A000000000000000000000000000000000000000000000000000000000 DUP2 MSTORE PUSH1 0x4 ADD PUSH2 0x53B SWAP1 PUSH2 0xD55 JUMP JUMPDEST PUSH1 0x40 MLOAD DUP1 SWAP2 SUB SWAP1 REVERT JUMPDEST PUSH1 0x2 PUSH0 DUP2 SLOAD DUP1 SWAP3 SWAP2 SWAP1 PUSH2 0x556 SWAP1 PUSH2 0xDA0 JUMP JUMPDEST SWAP2 SWAP1 POP SSTORE POP PUSH1 0x40 MLOAD DUP1 PUSH1 0x80 ADD PUSH1 0x40 MSTORE DUP1 PUSH1 0x2 SLOAD DUP2 MSTORE PUSH1 0x20 ADD DUP4 DUP2 MSTORE PUSH1 0x20 ADD DUP3 DUP2 MSTORE PUSH1 0x20 ADD PUSH0 PUSH1 0x2 DUP2 GT ISZERO PUSH2 0x58D JUMPI PUSH2 0x58C PUSH2 0x8FE JUMP JUMPDEST JUMPDEST DUP2 MSTORE POP PUSH1 0x1 PUSH0 PUSH1 0x2 SLOAD DUP2 MSTORE PUSH1 0x20 ADD SWAP1 DUP2 MSTORE PUSH1 0x20 ADD PUSH0 KECCAK256 PUSH0 DUP3 ADD MLOAD DUP2 PUSH0 ADD SSTORE PUSH1 0x20 DUP3 ADD MLOAD DUP2 PUSH1 0x1 ADD SWAP1 DUP2 PUSH2 0x5C0 SWAP2 SWAP1 PUSH2 0xF87 JUMP JUMPDEST POP PUSH1 0x40 DUP3 ADD MLOAD DUP2 PUSH1 0x2 ADD SSTORE PUSH1 0x60 DUP3 ADD MLOAD DUP2 PUSH1 0x3 ADD PUSH0 PUSH2 0x100 EXP DUP2 SLOAD DUP2 PUSH1 0xFF MUL NOT AND SWAP1 DUP4 PUSH1 0x2 DUP2 GT ISZERO PUSH2 0x5F5 JUMPI PUSH2 0x5F4 PUSH2 0x8FE JUMP JUMPDEST JUMPDEST MUL OR SWAP1 SSTORE POP SWAP1 POP POP PUSH1 0x2 SLOAD PUSH32 0x7A7DDACCB026CEB5B95E8C35CACF01335336C5BE6E99BA75AD63BCF811824D38 DUP4 DUP4 PUSH1 0x40 MLOAD PUSH2 0x631 SWAP3 SWAP2 SWAP1 PUSH2 0x1056 JUMP JUMPDEST PUSH1 0x40 MLOAD DUP1 SWAP2 SUB SWAP1 LOG2 POP POP JUMP JUMPDEST PUSH2 0x645 PUSH2 0x6C1 JUMP JUMPDEST PUSH0 PUSH20 0xFFFFFFFFFFFFFFFFFFFFFFFFFFFFFFFFFFFFFFFF AND DUP2 PUSH20 0xFFFFFFFFFFFFFFFFFFFFFFFFFFFFFFFFFFFFFFFF AND SUB PUSH2 0x6B5 JUMPI PUSH0 PUSH1 0x40 MLOAD PUSH32 0x1E4FBDF700000000000000000000000000000000000000000000000000000000 DUP2 MSTORE PUSH1 0x4 ADD PUSH2 0x6AC SWAP2 SWAP1 PUSH2 0x9FA JUMP JUMPDEST PUSH1 0x40 MLOAD DUP1 SWAP2 SUB SWAP1 REVERT JUMPDEST PUSH2 0x6BE DUP2 PUSH2 0x748 JUMP JUMPDEST POP JUMP JUMPDEST PUSH2 0x6C9 PUSH2 0x809 JUMP JUMPDEST PUSH20 0xFFFFFFFFFFFFFFFFFFFFFFFFFFFFFFFFFFFFFFFF AND PUSH2 0x6E7 PUSH2 0x368 JUMP JUMPDEST PUSH20 0xFFFFFFFFFFFFFFFFFFFFFFFFFFFFFFFFFFFFFFFF AND EQ PUSH2 0x746 JUMPI PUSH2 0x70A PUSH2 0x809 JUMP JUMPDEST PUSH1 0x40 MLOAD PUSH32 0x118CDAA700000000000000000000000000000000000000000000000000000000 DUP2 MSTORE PUSH1 0x4 ADD PUSH2 0x73D SWAP2 SWAP1 PUSH2 0x9FA JUMP JUMPDEST PUSH1 0x40 MLOAD DUP1 SWAP2 SUB SWAP1 REVERT JUMPDEST JUMP JUMPDEST PUSH0 PUSH0 PUSH0 SWAP1 SLOAD SWAP1 PUSH2 0x100 EXP SWAP1 DIV PUSH20 0xFFFFFFFFFFFFFFFFFFFFFFFFFFFFFFFFFFFFFFFF AND SWAP1 POP DUP2 PUSH0 PUSH0 PUSH2 0x100 EXP DUP2 SLOAD DUP2 PUSH20 0xFFFFFFFFFFFFFFFFFFFFFFFFFFFFFFFFFFFFFFFF MUL NOT AND SWAP1 DUP4 PUSH20 0xFFFFFFFFFFFFFFFFFFFFFFFFFFFFFFFFFFFFFFFF AND MUL OR SWAP1 SSTORE POP DUP2 PUSH20 0xFFFFFFFFFFFFFFFFFFFFFFFFFFFFFFFFFFFFFFFF AND DUP2 PUSH20 0xFFFFFFFFFFFFFFFFFFFFFFFFFFFFFFFFFFFFFFFF AND PUSH32 0x8BE0079C531659141344CD1FD0A4F28419497F9722A3DAAFE3B4186F6B6457E0 PUSH1 0x40 MLOAD PUSH1 0x40 MLOAD DUP1 SWAP2 SUB SWAP1 LOG3 POP POP JUMP JUMPDEST PUSH0 CALLER SWAP1 POP SWAP1 JUMP JUMPDEST PUSH0 PUSH1 0x40 MLOAD SWAP1 POP SWAP1 JUMP JUMPDEST PUSH0 PUSH0 REVERT JUMPDEST PUSH0 PUSH0 REVERT JUMPDEST PUSH0 DUP2 SWAP1 POP SWAP2 SWAP1 POP JUMP JUMPDEST PUSH2 0x833 DUP2 PUSH2 0x821 JUMP JUMPDEST DUP2 EQ PUSH2 0x83D JUMPI PUSH0 PUSH0 REVERT JUMPDEST POP JUMP JUMPDEST PUSH0 DUP2 CALLDATALOAD SWAP1 POP PUSH2 0x84E DUP2 PUSH2 0x82A JUMP JUMPDEST SWAP3 SWAP2 POP POP JUMP JUMPDEST PUSH0 PUSH1 0x20 DUP3 DUP5 SUB SLT ISZERO PUSH2 0x869 JUMPI PUSH2 0x868 PUSH2 0x819 JUMP JUMPDEST JUMPDEST PUSH0 PUSH2 0x876 DUP5 DUP3 DUP6 ADD PUSH2 0x840 JUMP JUMPDEST SWAP2 POP POP SWAP3 SWAP2 POP POP JUMP JUMPDEST PUSH2 0x888 DUP2 PUSH2 0x821 JUMP JUMPDEST DUP3 MSTORE POP POP JUMP JUMPDEST PUSH0 DUP2 MLOAD SWAP1 POP SWAP2 SWAP1 POP JUMP JUMPDEST PUSH0 DUP3 DUP3 MSTORE PUSH1 0x20 DUP3 ADD SWAP1 POP SWAP3 SWAP2 POP POP JUMP JUMPDEST DUP3 DUP2 DUP4 MCOPY PUSH0 DUP4 DUP4 ADD MSTORE POP POP POP JUMP JUMPDEST PUSH0 PUSH1 0x1F NOT PUSH1 0x1F DUP4 ADD AND SWAP1 POP SWAP2 SWAP1 POP JUMP JUMPDEST PUSH0 PUSH2 0x8D0 DUP3 PUSH2 0x88E JUMP JUMPDEST PUSH2 0x8DA DUP2 DUP6 PUSH2 0x898 JUMP JUMPDEST SWAP4 POP PUSH2 0x8EA DUP2 DUP6 PUSH1 0x20 DUP7 ADD PUSH2 0x8A8 JUMP JUMPDEST PUSH2 0x8F3 DUP2 PUSH2 0x8B6 JUMP JUMPDEST DUP5 ADD SWAP2 POP POP SWAP3 SWAP2 POP POP JUMP JUMPDEST PUSH32 0x4E487B7100000000000000000000000000000000000000000000000000000000 PUSH0 MSTORE PUSH1 0x21 PUSH1 0x4 MSTORE PUSH1 0x24 PUSH0 REVERT JUMPDEST PUSH1 0x3 DUP2 LT PUSH2 0x93C JUMPI PUSH2 0x93B PUSH2 0x8FE JUMP JUMPDEST JUMPDEST POP JUMP JUMPDEST PUSH0 DUP2 SWAP1 POP PUSH2 0x94C DUP3 PUSH2 0x92B JUMP JUMPDEST SWAP2 SWAP1 POP JUMP JUMPDEST PUSH0 PUSH2 0x95B DUP3 PUSH2 0x93F JUMP JUMPDEST SWAP1 POP SWAP2 SWAP1 POP JUMP JUMPDEST PUSH2 0x96B DUP2 PUSH2 0x951 JUMP JUMPDEST DUP3 MSTORE POP POP JUMP JUMPDEST PUSH0 PUSH1 0x80 DUP3 ADD SWAP1 POP PUSH2 0x984 PUSH0 DUP4 ADD DUP8 PUSH2 0x87F JUMP JUMPDEST DUP2 DUP2 SUB PUSH1 0x20 DUP4 ADD MSTORE PUSH2 0x996 DUP2 DUP7 PUSH2 0x8C6 JUMP JUMPDEST SWAP1 POP PUSH2 0x9A5 PUSH1 0x40 DUP4 ADD DUP6 PUSH2 0x87F JUMP JUMPDEST PUSH2 0x9B2 PUSH1 0x60 DUP4 ADD DUP5 PUSH2 0x962 JUMP JUMPDEST SWAP6 SWAP5 POP POP POP POP POP JUMP JUMPDEST PUSH0 PUSH20 0xFFFFFFFFFFFFFFFFFFFFFFFFFFFFFFFFFFFFFFFF DUP3 AND SWAP1 POP SWAP2 SWAP1 POP JUMP JUMPDEST PUSH0 PUSH2 0x9E4 DUP3 PUSH2 0x9BB JUMP JUMPDEST SWAP1 POP SWAP2 SWAP1 POP JUMP JUMPDEST PUSH2 0x9F4 DUP2 PUSH2 0x9DA JUMP JUMPDEST DUP3 MSTORE POP POP JUMP JUMPDEST PUSH0 PUSH1 0x20 DUP3 ADD SWAP1 POP PUSH2 0xA0D PUSH0 DUP4 ADD DUP5 PUSH2 0x9EB JUMP JUMPDEST SWAP3 SWAP2 POP POP JUMP JUMPDEST PUSH0 PUSH1 0x20 DUP3 ADD SWAP1 POP PUSH2 0xA26 PUSH0 DUP4 ADD DUP5 PUSH2 0x87F JUMP JUMPDEST SWAP3 SWAP2 POP POP JUMP JUMPDEST PUSH0 PUSH0 REVERT JUMPDEST PUSH0 PUSH0 REVERT JUMPDEST PUSH32 0x4E487B7100000000000000000000000000000000000000000000000000000000 PUSH0 MSTORE PUSH1 0x41 PUSH1 0x4 MSTORE PUSH1 0x24 PUSH0 REVERT JUMPDEST PUSH2 0xA6A DUP3 PUSH2 0x8B6 JUMP JUMPDEST DUP2 ADD DUP2 DUP2 LT PUSH8 0xFFFFFFFFFFFFFFFF DUP3 GT OR ISZERO PUSH2 0xA89 JUMPI PUSH2 0xA88 PUSH2 0xA34 JUMP JUMPDEST JUMPDEST DUP1 PUSH1 0x40 MSTORE POP POP POP JUMP JUMPDEST PUSH0 PUSH2 0xA9B PUSH2 0x810 JUMP JUMPDEST SWAP1 POP PUSH2 0xAA7 DUP3 DUP3 PUSH2 0xA61 JUMP JUMPDEST SWAP2 SWAP1 POP JUMP JUMPDEST PUSH0 PUSH8 0xFFFFFFFFFFFFFFFF DUP3 GT ISZERO PUSH2 0xAC6 JUMPI PUSH2 0xAC5 PUSH2 0xA34 JUMP JUMPDEST JUMPDEST PUSH2 0xACF DUP3 PUSH2 0x8B6 JUMP JUMPDEST SWAP1 POP PUSH1 0x20 DUP2 ADD SWAP1 POP SWAP2 SWAP1 POP JUMP JUMPDEST DUP3 DUP2 DUP4 CALLDATACOPY PUSH0 DUP4 DUP4 ADD MSTORE POP POP POP JUMP JUMPDEST PUSH0 PUSH2 0xAFC PUSH2 0xAF7 DUP5 PUSH2 0xAAC JUMP JUMPDEST PUSH2 0xA92 JUMP JUMPDEST SWAP1 POP DUP3 DUP2 MSTORE PUSH1 0x20 DUP2 ADD DUP5 DUP5 DUP5 ADD GT ISZERO PUSH2 0xB18 JUMPI PUSH2 0xB17 PUSH2 0xA30 JUMP JUMPDEST JUMPDEST PUSH2 0xB23 DUP5 DUP3 DUP6 PUSH2 0xADC JUMP JUMPDEST POP SWAP4 SWAP3 POP POP POP JUMP JUMPDEST PUSH0 DUP3 PUSH1 0x1F DUP4 ADD SLT PUSH2 0xB3F JUMPI PUSH2 0xB3E PUSH2 0xA2C JUMP JUMPDEST JUMPDEST DUP2 CALLDATALOAD PUSH2 0xB4F DUP5 DUP3 PUSH1 0x20 DUP7 ADD PUSH2 0xAEA JUMP JUMPDEST SWAP2 POP POP SWAP3 SWAP2 POP POP JUMP JUMPDEST PUSH0 PUSH0 PUSH1 0x40 DUP4 DUP6 SUB SLT ISZERO PUSH2 0xB6E JUMPI PUSH2 0xB6D PUSH2 0x819 JUMP JUMPDEST JUMPDEST PUSH0 DUP4 ADD CALLDATALOAD PUSH8 0xFFFFFFFFFFFFFFFF DUP2 GT ISZERO PUSH2 0xB8B JUMPI PUSH2 0xB8A PUSH2 0x81D JUMP JUMPDEST JUMPDEST PUSH2 0xB97 DUP6 DUP3 DUP7 ADD PUSH2 0xB2B JUMP JUMPDEST SWAP3 POP POP PUSH1 0x20 PUSH2 0xBA8 DUP6 DUP3 DUP7 ADD PUSH2 0x840 JUMP JUMPDEST SWAP2 POP POP SWAP3 POP SWAP3 SWAP1 POP JUMP JUMPDEST PUSH2 0xBBB DUP2 PUSH2 0x9DA JUMP JUMPDEST DUP2 EQ PUSH2 0xBC5 JUMPI PUSH0 PUSH0 REVERT JUMPDEST POP JUMP JUMPDEST PUSH0 DUP2 CALLDATALOAD SWAP1 POP PUSH2 0xBD6 DUP2 PUSH2 0xBB2 JUMP JUMPDEST SWAP3 SWAP2 POP POP JUMP JUMPDEST PUSH0 PUSH1 0x20 DUP3 DUP5 SUB SLT ISZERO PUSH2 0xBF1 JUMPI PUSH2 0xBF0 PUSH2 0x819 JUMP JUMPDEST JUMPDEST PUSH0 PUSH2 0xBFE DUP5 DUP3 DUP6 ADD PUSH2 0xBC8 JUMP JUMPDEST SWAP2 POP POP SWAP3 SWAP2 POP POP JUMP JUMPDEST PUSH32 0x496E766F6963696E673A20496E766F696365206E6F742070656E64696E670000 PUSH0 DUP3 ADD MSTORE POP JUMP JUMPDEST PUSH0 PUSH2 0xC3B PUSH1 0x1E DUP4 PUSH2 0x898 JUMP JUMPDEST SWAP2 POP PUSH2 0xC46 DUP3 PUSH2 0xC07 JUMP JUMPDEST PUSH1 0x20 DUP3 ADD SWAP1 POP SWAP2 SWAP1 POP JUMP JUMPDEST PUSH0 PUSH1 0x20 DUP3 ADD SWAP1 POP DUP2 DUP2 SUB PUSH0 DUP4 ADD MSTORE PUSH2 0xC68 DUP2 PUSH2 0xC2F JUMP JUMPDEST SWAP1 POP SWAP2 SWAP1 POP JUMP JUMPDEST PUSH0 PUSH1 0x20 DUP3 ADD SWAP1 POP PUSH2 0xC82 PUSH0 DUP4 ADD DUP5 PUSH2 0x962 JUMP JUMPDEST SWAP3 SWAP2 POP POP JUMP JUMPDEST PUSH32 0x4E487B7100000000000000000000000000000000000000000000000000000000 PUSH0 MSTORE PUSH1 0x22 PUSH1 0x4 MSTORE PUSH1 0x24 PUSH0 REVERT JUMPDEST PUSH0 PUSH1 0x2 DUP3 DIV SWAP1 POP PUSH1 0x1 DUP3 AND DUP1 PUSH2 0xCCC JUMPI PUSH1 0x7F DUP3 AND SWAP2 POP JUMPDEST PUSH1 0x20 DUP3 LT DUP2 SUB PUSH2 0xCDF JUMPI PUSH2 0xCDE PUSH2 0xC88 JUMP JUMPDEST JUMPDEST POP SWAP2 SWAP1 POP JUMP JUMPDEST PUSH32 0x496E766F6963696E673A204E6F74207468652070726F6A65637420667265656C PUSH0 DUP3 ADD MSTORE PUSH32 0x616E636572000000000000000000000000000000000000000000000000000000 PUSH1 0x20 DUP3 ADD MSTORE POP JUMP JUMPDEST PUSH0 PUSH2 0xD3F PUSH1 0x25 DUP4 PUSH2 0x898 JUMP JUMPDEST SWAP2 POP PUSH2 0xD4A DUP3 PUSH2 0xCE5 JUMP JUMPDEST PUSH1 0x40 DUP3 ADD SWAP1 POP SWAP2 SWAP1 POP JUMP JUMPDEST PUSH0 PUSH1 0x20 DUP3 ADD SWAP1 POP DUP2 DUP2 SUB PUSH0 DUP4 ADD MSTORE PUSH2 0xD6C DUP2 PUSH2 0xD33 JUMP JUMPDEST SWAP1 POP SWAP2 SWAP1 POP JUMP JUMPDEST PUSH32 0x4E487B7100000000000000000000000000000000000000000000000000000000 PUSH0 MSTORE PUSH1 0x11 PUSH1 0x4 MSTORE PUSH1 0x24 PUSH0 REVERT JUMPDEST PUSH0 PUSH2 0xDAA DUP3 PUSH2 0x821 JUMP JUMPDEST SWAP2 POP PUSH32 0xFFFFFFFFFFFFFFFFFFFFFFFFFFFFFFFFFFFFFFFFFFFFFFFFFFFFFFFFFFFFFFFF DUP3 SUB PUSH2 0xDDC JUMPI PUSH2 0xDDB PUSH2 0xD73 JUMP JUMPDEST JUMPDEST PUSH1 0x1 DUP3 ADD SWAP1 POP SWAP2 SWAP1 POP JUMP JUMPDEST PUSH0 DUP2 SWAP1 POP DUP2 PUSH0 MSTORE PUSH1 0x20 PUSH0 KECCAK256 SWAP1 POP SWAP2 SWAP1 POP JUMP JUMPDEST PUSH0 PUSH1 0x20 PUSH1 0x1F DUP4 ADD DIV SWAP1 POP SWAP2 SWAP1 POP JUMP JUMPDEST PUSH0 DUP3 DUP3 SHL SWAP1 POP SWAP3 SWAP2 POP POP JUMP JUMPDEST PUSH0 PUSH1 0x8 DUP4 MUL PUSH2 0xE43 PUSH32 0xFFFFFFFFFFFFFFFFFFFFFFFFFFFFFFFFFFFFFFFFFFFFFFFFFFFFFFFFFFFFFFFF DUP3 PUSH2 0xE08 JUMP JUMPDEST PUSH2 0xE4D DUP7 DUP4 PUSH2 0xE08 JUMP JUMPDEST SWAP6 POP DUP1 NOT DUP5 AND SWAP4 POP DUP1 DUP7 AND DUP5 OR SWAP3 POP POP POP SWAP4 SWAP3 POP POP POP JUMP JUMPDEST PUSH0 DUP2 SWAP1 POP SWAP2 SWAP1 POP JUMP JUMPDEST PUSH0 PUSH2 0xE88 PUSH2 0xE83 PUSH2 0xE7E DUP5 PUSH2 0x821 JUMP JUMPDEST PUSH2 0xE65 JUMP JUMPDEST PUSH2 0x821 JUMP JUMPDEST SWAP1 POP SWAP2 SWAP1 POP JUMP JUMPDEST PUSH0 DUP2 SWAP1 POP SWAP2 SWAP1 POP JUMP JUMPDEST PUSH2 0xEA1 DUP4 PUSH2 0xE6E JUMP JUMPDEST PUSH2 0xEB5 PUSH2 0xEAD DUP3 PUSH2 0xE8F JUMP JUMPDEST DUP5 DUP5 SLOAD PUSH2 0xE14 JUMP JUMPDEST DUP3 SSTORE POP POP POP POP JUMP JUMPDEST PUSH0 PUSH0 SWAP1 POP SWAP1 JUMP JUMPDEST PUSH2 0xECC PUSH2 0xEBD JUMP JUMPDEST PUSH2 0xED7 DUP2 DUP5 DUP5 PUSH2 0xE98 JUMP JUMPDEST POP POP POP JUMP JUMPDEST JUMPDEST DUP2 DUP2 LT ISZERO PUSH2 0xEFA JUMPI PUSH2 0xEEF PUSH0 DUP3 PUSH2 0xEC4 JUMP JUMPDEST PUSH1 0x1 DUP2 ADD SWAP1 POP PUSH2 0xEDD JUMP JUMPDEST POP POP JUMP JUMPDEST PUSH1 0x1F DUP3 GT ISZERO PUSH2 0xF3F JUMPI PUSH2 0xF10 DUP2 PUSH2 0xDE7 JUMP JUMPDEST PUSH2 0xF19 DUP5 PUSH2 0xDF9 JUMP JUMPDEST DUP2 ADD PUSH1 0x20 DUP6 LT ISZERO PUSH2 0xF28 JUMPI DUP2 SWAP1 POP JUMPDEST PUSH2 0xF3C PUSH2 0xF34 DUP6 PUSH2 0xDF9 JUMP JUMPDEST DUP4 ADD DUP3 PUSH2 0xEDC JUMP JUMPDEST POP POP JUMPDEST POP POP POP JUMP JUMPDEST PUSH0 DUP3 DUP3 SHR SWAP1 POP SWAP3 SWAP2 POP POP JUMP JUMPDEST PUSH0 PUSH2 0xF5F PUSH0 NOT DUP5 PUSH1 0x8 MUL PUSH2 0xF44 JUMP JUMPDEST NOT DUP1 DUP4 AND SWAP2 POP POP SWAP3 SWAP2 POP POP JUMP JUMPDEST PUSH0 PUSH2 0xF77 DUP4 DUP4 PUSH2 0xF50 JUMP JUMPDEST SWAP2 POP DUP3 PUSH1 0x2 MUL DUP3 OR SWAP1 POP SWAP3 SWAP2 POP POP JUMP JUMPDEST PUSH2 0xF90 DUP3 PUSH2 0x88E JUMP JUMPDEST PUSH8 0xFFFFFFFFFFFFFFFF DUP2 GT ISZERO PUSH2 0xFA9 JUMPI PUSH2 0xFA8 PUSH2 0xA34 JUMP JUMPDEST JUMPDEST PUSH2 0xFB3 DUP3 SLOAD PUSH2 0xCB5 JUMP JUMPDEST PUSH2 0xFBE DUP3 DUP3 DUP6 PUSH2 0xEFE JUMP JUMPDEST PUSH0 PUSH1 0x20 SWAP1 POP PUSH1 0x1F DUP4 GT PUSH1 0x1 DUP2 EQ PUSH2 0xFEF JUMPI PUSH0 DUP5 ISZERO PUSH2 0xFDD JUMPI DUP3 DUP8 ADD MLOAD SWAP1 POP JUMPDEST PUSH2 0xFE7 DUP6 DUP3 PUSH2 0xF6C JUMP JUMPDEST DUP7 SSTORE POP PUSH2 0x104E JUMP JUMPDEST PUSH1 0x1F NOT DUP5 AND PUSH2 0xFFD DUP7 PUSH2 0xDE7 JUMP JUMPDEST PUSH0 JUMPDEST DUP3 DUP2 LT ISZERO PUSH2 0x1024 JUMPI DUP5 DUP10 ADD MLOAD DUP3 SSTORE PUSH1 0x1 DUP3 ADD SWAP2 POP PUSH1 0x20 DUP6 ADD SWAP5 POP PUSH1 0x20 DUP2 ADD SWAP1 POP PUSH2 0xFFF JUMP JUMPDEST DUP7 DUP4 LT ISZERO PUSH2 0x1041 JUMPI DUP5 DUP10 ADD MLOAD PUSH2 0x103D PUSH1 0x1F DUP10 AND DUP3 PUSH2 0xF50 JUMP JUMPDEST DUP4 SSTORE POP JUMPDEST PUSH1 0x1 PUSH1 0x2 DUP9 MUL ADD DUP9 SSTORE POP POP POP JUMPDEST POP POP POP POP POP POP JUMP JUMPDEST PUSH0 PUSH1 0x40 DUP3 ADD SWAP1 POP DUP2 DUP2 SUB PUSH0 DUP4 ADD MSTORE PUSH2 0x106E DUP2 DUP6 PUSH2 0x8C6 JUMP JUMPDEST SWAP1 POP PUSH2 0x107D PUSH1 0x20 DUP4 ADD DUP5 PUSH2 0x87F JUMP JUMPDEST SWAP4 SWAP3 POP POP POP JUMP INVALID LOG2 PUSH5 0x6970667358 0x22 SLT KECCAK256 LT SELFDESTRUCT SLT AND REVERT 0xC3 0xA8 0x2D 0xB7 SWAP15 LOG4 MSIZE 0x2E 0x2C EXTSTATICCALL MSTORE RETURNCONTRACT 0xD6 POP PUSH20 0xA1831DEB397607A9CD53DAB564736F6C63430008 0x1E STOP CALLER "
				},
				"gasEstimates": {
					"creation": {
						"codeDepositCost": "856400",
						"executionCost": "infinite",
						"totalCost": "infinite"
					},
					"external": {
						"approveInvoice(uint256)": "infinite",
						"createInvoice(string,uint256)": "infinite",
						"freelancer()": "2508",
						"invoiceCounter()": "2447",
						"invoices(uint256)": "infinite",
						"owner()": "2581",
						"rejectInvoice(uint256)": "infinite",
						"renounceOwnership()": "infinite",
						"transferOwnership(address)": "infinite"
					}
				},
				"methodIdentifiers": {
					"approveInvoice(uint256)": "b32413b7",
					"createInvoice(string,uint256)": "d4280d5a",
					"freelancer()": "a37dda2c",
					"invoiceCounter()": "a57b381c",
					"invoices(uint256)": "4e6d1405",
					"owner()": "8da5cb5b",
					"rejectInvoice(uint256)": "0f9a715e",
					"renounceOwnership()": "715018a6",
					"transferOwnership(address)": "f2fde38b"
				}
			},
			"storageLayout": {
				"storage": [
					{
						"astId": 8,
						"contract": "contracts/utils/Invoicing.sol:Invoicing",
						"label": "_owner",
						"offset": 0,
						"slot": "0",
						"type": "t_address"
					},
					{
						"astId": 201,
						"contract": "contracts/utils/Invoicing.sol:Invoicing",
						"label": "invoices",
						"offset": 0,
						"slot": "1",
						"type": "t_mapping(t_uint256,t_struct(Invoice)196_storage)"
					},
					{
						"astId": 203,
						"contract": "contracts/utils/Invoicing.sol:Invoicing",
						"label": "invoiceCounter",
						"offset": 0,
						"slot": "2",
						"type": "t_uint256"
					},
					{
						"astId": 205,
						"contract": "contracts/utils/Invoicing.sol:Invoicing",
						"label": "freelancer",
						"offset": 0,
						"slot": "3",
						"type": "t_address"
					}
				],
				"types": {
					"t_address": {
						"encoding": "inplace",
						"label": "address",
						"numberOfBytes": "20"
					},
					"t_enum(InvoiceStatus)186": {
						"encoding": "inplace",
						"label": "enum Invoicing.InvoiceStatus",
						"numberOfBytes": "1"
					},
					"t_mapping(t_uint256,t_struct(Invoice)196_storage)": {
						"encoding": "mapping",
						"key": "t_uint256",
						"label": "mapping(uint256 => struct Invoicing.Invoice)",
						"numberOfBytes": "32",
						"value": "t_struct(Invoice)196_storage"
					},
					"t_string_storage": {
						"encoding": "bytes",
						"label": "string",
						"numberOfBytes": "32"
					},
					"t_struct(Invoice)196_storage": {
						"encoding": "inplace",
						"label": "struct Invoicing.Invoice",
						"members": [
							{
								"astId": 188,
								"contract": "contracts/utils/Invoicing.sol:Invoicing",
								"label": "id",
								"offset": 0,
								"slot": "0",
								"type": "t_uint256"
							},
							{
								"astId": 190,
								"contract": "contracts/utils/Invoicing.sol:Invoicing",
								"label": "description",
								"offset": 0,
								"slot": "1",
								"type": "t_string_storage"
							},
							{
								"astId": 192,
								"contract": "contracts/utils/Invoicing.sol:Invoicing",
								"label": "amount",
								"offset": 0,
								"slot": "2",
								"type": "t_uint256"
							},
							{
								"astId": 195,
								"contract": "contracts/utils/Invoicing.sol:Invoicing",
								"label": "status",
								"offset": 0,
								"slot": "3",
								"type": "t_enum(InvoiceStatus)186"
							}
						],
						"numberOfBytes": "128"
					},
					"t_uint256": {
						"encoding": "inplace",
						"label": "uint256",
						"numberOfBytes": "32"
					}
				}
			},
			"userdoc": {
				"kind": "user",
				"methods": {},
				"version": 1
			}
		}
	}
}