{
	"contracts/Governance/DisputeResolution_flattened.sol": {
		"Escrow": {
			"abi": [
				{
					"inputs": [
						{
							"internalType": "address",
							"name": "_token",
							"type": "address"
						},
						{
							"internalType": "address",
							"name": "_depositor",
							"type": "address"
						},
						{
							"internalType": "address",
							"name": "_beneficiary",
							"type": "address"
						},
						{
							"internalType": "uint256",
							"name": "_amount",
							"type": "uint256"
						}
					],
					"stateMutability": "nonpayable",
					"type": "constructor"
				},
				{
					"anonymous": false,
					"inputs": [
						{
							"indexed": false,
							"internalType": "address",
							"name": "winner",
							"type": "address"
						}
					],
					"name": "DisputeResolved",
					"type": "event"
				},
				{
					"anonymous": false,
					"inputs": [
						{
							"indexed": false,
							"internalType": "uint256",
							"name": "amount",
							"type": "uint256"
						}
					],
					"name": "Funded",
					"type": "event"
				},
				{
					"anonymous": false,
					"inputs": [],
					"name": "LockedForDispute",
					"type": "event"
				},
				{
					"anonymous": false,
					"inputs": [
						{
							"indexed": true,
							"internalType": "address",
							"name": "to",
							"type": "address"
						},
						{
							"indexed": false,
							"internalType": "uint256",
							"name": "amount",
							"type": "uint256"
						}
					],
					"name": "Refunded",
					"type": "event"
				},
				{
					"anonymous": false,
					"inputs": [
						{
							"indexed": true,
							"internalType": "address",
							"name": "to",
							"type": "address"
						},
						{
							"indexed": false,
							"internalType": "uint256",
							"name": "amount",
							"type": "uint256"
						}
					],
					"name": "Released",
					"type": "event"
				},
				{
					"inputs": [],
					"name": "amount",
					"outputs": [
						{
							"internalType": "uint256",
							"name": "",
							"type": "uint256"
						}
					],
					"stateMutability": "view",
					"type": "function"
				},
				{
					"inputs": [],
					"name": "beneficiary",
					"outputs": [
						{
							"internalType": "address",
							"name": "",
							"type": "address"
						}
					],
					"stateMutability": "view",
					"type": "function"
				},
				{
					"inputs": [],
					"name": "depositor",
					"outputs": [
						{
							"internalType": "address",
							"name": "",
							"type": "address"
						}
					],
					"stateMutability": "view",
					"type": "function"
				},
				{
					"inputs": [],
					"name": "disputeResolver",
					"outputs": [
						{
							"internalType": "address",
							"name": "",
							"type": "address"
						}
					],
					"stateMutability": "view",
					"type": "function"
				},
				{
					"inputs": [],
					"name": "fund",
					"outputs": [],
					"stateMutability": "nonpayable",
					"type": "function"
				},
				{
					"inputs": [],
					"name": "lockForDispute",
					"outputs": [],
					"stateMutability": "nonpayable",
					"type": "function"
				},
				{
					"inputs": [],
					"name": "release",
					"outputs": [],
					"stateMutability": "nonpayable",
					"type": "function"
				},
				{
					"inputs": [
						{
							"internalType": "address",
							"name": "winner",
							"type": "address"
						}
					],
					"name": "resolveDispute",
					"outputs": [],
					"stateMutability": "nonpayable",
					"type": "function"
				},
				{
					"inputs": [
						{
							"internalType": "address",
							"name": "_resolver",
							"type": "address"
						}
					],
					"name": "setDisputeResolver",
					"outputs": [],
					"stateMutability": "nonpayable",
					"type": "function"
				},
				{
					"inputs": [],
					"name": "state",
					"outputs": [
						{
							"internalType": "enum Escrow.EscrowState",
							"name": "",
							"type": "uint8"
						}
					],
					"stateMutability": "view",
					"type": "function"
				},
				{
					"inputs": [],
					"name": "token",
					"outputs": [
						{
							"internalType": "address",
							"name": "",
							"type": "address"
						}
					],
					"stateMutability": "view",
					"type": "function"
				}
			],
			"devdoc": {
				"kind": "dev",
				"methods": {},
				"version": 1
			},
			"evm": {
				"assembly": "    /* \"contracts/Governance/DisputeResolution_flattened.sol\":6936:9118  contract Escrow {... */\n  mstore(0x40, 0x0100)\n    /* \"contracts/Governance/DisputeResolution_flattened.sol\":7443:7668  constructor(address _token, address _depositor, address _beneficiary, uint256 _amount) {... */\n  callvalue\n  dup1\n  iszero\n  tag_1\n  jumpi\n  revert(0x00, 0x00)\ntag_1:\n  pop\n  mload(0x40)\n  sub(codesize, bytecodeSize)\n  dup1\n  bytecodeSize\n  dup4\n  codecopy\n  dup2\n  dup2\n  add\n  0x40\n  mstore\n  dup2\n  add\n  swap1\n  tag_2\n  swap2\n  swap1\n  tag_3\n  jump\t// in\ntag_2:\n    /* \"contracts/Governance/DisputeResolution_flattened.sol\":7548:7554  _token */\n  dup4\n    /* \"contracts/Governance/DisputeResolution_flattened.sol\":7540:7554  token = _token */\n  0xffffffffffffffffffffffffffffffffffffffff\n  and\n  0xc0\n  dup2\n  0xffffffffffffffffffffffffffffffffffffffff\n  and\n  dup2\n  mstore\n  pop\n  pop\n    /* \"contracts/Governance/DisputeResolution_flattened.sol\":7568:7578  _depositor */\n  dup3\n    /* \"contracts/Governance/DisputeResolution_flattened.sol\":7556:7578  depositor = _depositor */\n  0xffffffffffffffffffffffffffffffffffffffff\n  and\n  0x80\n  dup2\n  0xffffffffffffffffffffffffffffffffffffffff\n  and\n  dup2\n  mstore\n  pop\n  pop\n    /* \"contracts/Governance/DisputeResolution_flattened.sol\":7594:7606  _beneficiary */\n  dup2\n    /* \"contracts/Governance/DisputeResolution_flattened.sol\":7580:7606  beneficiary = _beneficiary */\n  0xffffffffffffffffffffffffffffffffffffffff\n  and\n  0xa0\n  dup2\n  0xffffffffffffffffffffffffffffffffffffffff\n  and\n  dup2\n  mstore\n  pop\n  pop\n    /* \"contracts/Governance/DisputeResolution_flattened.sol\":7617:7624  _amount */\n  dup1\n    /* \"contracts/Governance/DisputeResolution_flattened.sol\":7608:7624  amount = _amount */\n  0xe0\n  dup2\n  dup2\n  mstore\n  pop\n  pop\n    /* \"contracts/Governance/DisputeResolution_flattened.sol\":7634:7661  EscrowState.AwaitingFunding */\n  0x00\n    /* \"contracts/Governance/DisputeResolution_flattened.sol\":7626:7631  state */\n  0x00\n  0x00\n    /* \"contracts/Governance/DisputeResolution_flattened.sol\":7626:7661  state = EscrowState.AwaitingFunding */\n  0x0100\n  exp\n  dup2\n  sload\n  dup2\n  0xff\n  mul\n  not\n  and\n  swap1\n  dup4\n  0x04\n  dup2\n  gt\n  iszero\n  tag_6\n  jumpi\n  tag_7\n  tag_8\n  jump\t// in\ntag_7:\ntag_6:\n  mul\n  or\n  swap1\n  sstore\n  pop\n    /* \"contracts/Governance/DisputeResolution_flattened.sol\":7443:7668  constructor(address _token, address _depositor, address _beneficiary, uint256 _amount) {... */\n  pop\n  pop\n  pop\n  pop\n    /* \"contracts/Governance/DisputeResolution_flattened.sol\":6936:9118  contract Escrow {... */\n  jump(tag_9)\n    /* \"#utility.yul\":88:205   */\ntag_11:\n    /* \"#utility.yul\":197:198   */\n  0x00\n    /* \"#utility.yul\":194:195   */\n  0x00\n    /* \"#utility.yul\":187:199   */\n  revert\n    /* \"#utility.yul\":334:460   */\ntag_13:\n    /* \"#utility.yul\":371:378   */\n  0x00\n    /* \"#utility.yul\":411:453   */\n  0xffffffffffffffffffffffffffffffffffffffff\n    /* \"#utility.yul\":404:409   */\n  dup3\n    /* \"#utility.yul\":400:454   */\n  and\n    /* \"#utility.yul\":389:454   */\n  swap1\n  pop\n    /* \"#utility.yul\":334:460   */\n  swap2\n  swap1\n  pop\n  jump\t// out\n    /* \"#utility.yul\":466:562   */\ntag_14:\n    /* \"#utility.yul\":503:510   */\n  0x00\n    /* \"#utility.yul\":532:556   */\n  tag_26\n    /* \"#utility.yul\":550:555   */\n  dup3\n    /* \"#utility.yul\":532:556   */\n  tag_13\n  jump\t// in\ntag_26:\n    /* \"#utility.yul\":521:556   */\n  swap1\n  pop\n    /* \"#utility.yul\":466:562   */\n  swap2\n  swap1\n  pop\n  jump\t// out\n    /* \"#utility.yul\":568:690   */\ntag_15:\n    /* \"#utility.yul\":641:665   */\n  tag_28\n    /* \"#utility.yul\":659:664   */\n  dup2\n    /* \"#utility.yul\":641:665   */\n  tag_14\n  jump\t// in\ntag_28:\n    /* \"#utility.yul\":634:639   */\n  dup2\n    /* \"#utility.yul\":631:666   */\n  eq\n    /* \"#utility.yul\":621:684   */\n  tag_29\n  jumpi\n    /* \"#utility.yul\":680:681   */\n  0x00\n    /* \"#utility.yul\":677:678   */\n  0x00\n    /* \"#utility.yul\":670:682   */\n  revert\n    /* \"#utility.yul\":621:684   */\ntag_29:\n    /* \"#utility.yul\":568:690   */\n  pop\n  jump\t// out\n    /* \"#utility.yul\":696:839   */\ntag_16:\n    /* \"#utility.yul\":753:758   */\n  0x00\n    /* \"#utility.yul\":784:790   */\n  dup2\n    /* \"#utility.yul\":778:791   */\n  mload\n    /* \"#utility.yul\":769:791   */\n  swap1\n  pop\n    /* \"#utility.yul\":800:833   */\n  tag_31\n    /* \"#utility.yul\":827:832   */\n  dup2\n    /* \"#utility.yul\":800:833   */\n  tag_15\n  jump\t// in\ntag_31:\n    /* \"#utility.yul\":696:839   */\n  swap3\n  swap2\n  pop\n  pop\n  jump\t// out\n    /* \"#utility.yul\":845:922   */\ntag_17:\n    /* \"#utility.yul\":882:889   */\n  0x00\n    /* \"#utility.yul\":911:916   */\n  dup2\n    /* \"#utility.yul\":900:916   */\n  swap1\n  pop\n    /* \"#utility.yul\":845:922   */\n  swap2\n  swap1\n  pop\n  jump\t// out\n    /* \"#utility.yul\":928:1050   */\ntag_18:\n    /* \"#utility.yul\":1001:1025   */\n  tag_34\n    /* \"#utility.yul\":1019:1024   */\n  dup2\n    /* \"#utility.yul\":1001:1025   */\n  tag_17\n  jump\t// in\ntag_34:\n    /* \"#utility.yul\":994:999   */\n  dup2\n    /* \"#utility.yul\":991:1026   */\n  eq\n    /* \"#utility.yul\":981:1044   */\n  tag_35\n  jumpi\n    /* \"#utility.yul\":1040:1041   */\n  0x00\n    /* \"#utility.yul\":1037:1038   */\n  0x00\n    /* \"#utility.yul\":1030:1042   */\n  revert\n    /* \"#utility.yul\":981:1044   */\ntag_35:\n    /* \"#utility.yul\":928:1050   */\n  pop\n  jump\t// out\n    /* \"#utility.yul\":1056:1199   */\ntag_19:\n    /* \"#utility.yul\":1113:1118   */\n  0x00\n    /* \"#utility.yul\":1144:1150   */\n  dup2\n    /* \"#utility.yul\":1138:1151   */\n  mload\n    /* \"#utility.yul\":1129:1151   */\n  swap1\n  pop\n    /* \"#utility.yul\":1160:1193   */\n  tag_37\n    /* \"#utility.yul\":1187:1192   */\n  dup2\n    /* \"#utility.yul\":1160:1193   */\n  tag_18\n  jump\t// in\ntag_37:\n    /* \"#utility.yul\":1056:1199   */\n  swap3\n  swap2\n  pop\n  pop\n  jump\t// out\n    /* \"#utility.yul\":1205:2025   */\ntag_3:\n    /* \"#utility.yul\":1302:1308   */\n  0x00\n    /* \"#utility.yul\":1310:1316   */\n  0x00\n    /* \"#utility.yul\":1318:1324   */\n  0x00\n    /* \"#utility.yul\":1326:1332   */\n  0x00\n    /* \"#utility.yul\":1375:1378   */\n  0x80\n    /* \"#utility.yul\":1363:1372   */\n  dup6\n    /* \"#utility.yul\":1354:1361   */\n  dup8\n    /* \"#utility.yul\":1350:1373   */\n  sub\n    /* \"#utility.yul\":1346:1379   */\n  slt\n    /* \"#utility.yul\":1343:1463   */\n  iszero\n  tag_39\n  jumpi\n    /* \"#utility.yul\":1382:1461   */\n  tag_40\n  tag_11\n  jump\t// in\ntag_40:\n    /* \"#utility.yul\":1343:1463   */\ntag_39:\n    /* \"#utility.yul\":1502:1503   */\n  0x00\n    /* \"#utility.yul\":1527:1591   */\n  tag_41\n    /* \"#utility.yul\":1583:1590   */\n  dup8\n    /* \"#utility.yul\":1574:1580   */\n  dup3\n    /* \"#utility.yul\":1563:1572   */\n  dup9\n    /* \"#utility.yul\":1559:1581   */\n  add\n    /* \"#utility.yul\":1527:1591   */\n  tag_16\n  jump\t// in\ntag_41:\n    /* \"#utility.yul\":1517:1591   */\n  swap5\n  pop\n    /* \"#utility.yul\":1473:1601   */\n  pop\n    /* \"#utility.yul\":1640:1642   */\n  0x20\n    /* \"#utility.yul\":1666:1730   */\n  tag_42\n    /* \"#utility.yul\":1722:1729   */\n  dup8\n    /* \"#utility.yul\":1713:1719   */\n  dup3\n    /* \"#utility.yul\":1702:1711   */\n  dup9\n    /* \"#utility.yul\":1698:1720   */\n  add\n    /* \"#utility.yul\":1666:1730   */\n  tag_16\n  jump\t// in\ntag_42:\n    /* \"#utility.yul\":1656:1730   */\n  swap4\n  pop\n    /* \"#utility.yul\":1611:1740   */\n  pop\n    /* \"#utility.yul\":1779:1781   */\n  0x40\n    /* \"#utility.yul\":1805:1869   */\n  tag_43\n    /* \"#utility.yul\":1861:1868   */\n  dup8\n    /* \"#utility.yul\":1852:1858   */\n  dup3\n    /* \"#utility.yul\":1841:1850   */\n  dup9\n    /* \"#utility.yul\":1837:1859   */\n  add\n    /* \"#utility.yul\":1805:1869   */\n  tag_16\n  jump\t// in\ntag_43:\n    /* \"#utility.yul\":1795:1869   */\n  swap3\n  pop\n    /* \"#utility.yul\":1750:1879   */\n  pop\n    /* \"#utility.yul\":1918:1920   */\n  0x60\n    /* \"#utility.yul\":1944:2008   */\n  tag_44\n    /* \"#utility.yul\":2000:2007   */\n  dup8\n    /* \"#utility.yul\":1991:1997   */\n  dup3\n    /* \"#utility.yul\":1980:1989   */\n  dup9\n    /* \"#utility.yul\":1976:1998   */\n  add\n    /* \"#utility.yul\":1944:2008   */\n  tag_19\n  jump\t// in\ntag_44:\n    /* \"#utility.yul\":1934:2008   */\n  swap2\n  pop\n    /* \"#utility.yul\":1889:2018   */\n  pop\n    /* \"#utility.yul\":1205:2025   */\n  swap3\n  swap6\n  swap2\n  swap5\n  pop\n  swap3\n  pop\n  jump\t// out\n    /* \"#utility.yul\":2031:2211   */\ntag_8:\n    /* \"#utility.yul\":2079:2156   */\n  0x4e487b7100000000000000000000000000000000000000000000000000000000\n    /* \"#utility.yul\":2076:2077   */\n  0x00\n    /* \"#utility.yul\":2069:2157   */\n  mstore\n    /* \"#utility.yul\":2176:2180   */\n  0x21\n    /* \"#utility.yul\":2173:2174   */\n  0x04\n    /* \"#utility.yul\":2166:2181   */\n  mstore\n    /* \"#utility.yul\":2200:2204   */\n  0x24\n    /* \"#utility.yul\":2197:2198   */\n  0x00\n    /* \"#utility.yul\":2190:2205   */\n  revert\n    /* \"contracts/Governance/DisputeResolution_flattened.sol\":6936:9118  contract Escrow {... */\ntag_9:\n  mload(0x80)\n  mload(0xa0)\n  mload(0xc0)\n  mload(0xe0)\n  codecopy(0x00, dataOffset(sub_0), dataSize(sub_0))\n  0x00\n  assignImmutable(\"0x0c547abaeb802d560e2d858972ba2ab023d02ad4d4b45f6e7fe8ba1d5749bc58\")\n  0x00\n  assignImmutable(\"0xb7020dd003fcd4d96af1507ff4dc7e2c1158f23ad0bacfdf3455869cf9fb4898\")\n  0x00\n  assignImmutable(\"0x4b4b9efaff899efa2095e6e12f4c7ffa5d130c6cf88a562d7f7bbc11486ed4fb\")\n  0x00\n  assignImmutable(\"0x3884709d17f664eaba4ac467a7268cd72e3e0fe0c4e85152b1894161243c55c2\")\n  return(0x00, dataSize(sub_0))\nstop\n\nsub_0: assembly {\n        /* \"contracts/Governance/DisputeResolution_flattened.sol\":6936:9118  contract Escrow {... */\n      mstore(0x40, 0x80)\n      callvalue\n      dup1\n      iszero\n      tag_1\n      jumpi\n      revert(0x00, 0x00)\n    tag_1:\n      pop\n      jumpi(tag_2, lt(calldatasize, 0x04))\n      shr(0xe0, calldataload(0x00))\n      dup1\n      0xb60d4288\n      gt\n      tag_14\n      jumpi\n      dup1\n      0xb60d4288\n      eq\n      tag_8\n      jumpi\n      dup1\n      0xc19d93fb\n      eq\n      tag_9\n      jumpi\n      dup1\n      0xc7c4ff46\n      eq\n      tag_10\n      jumpi\n      dup1\n      0xd8461182\n      eq\n      tag_11\n      jumpi\n      dup1\n      0xf5a3f4af\n      eq\n      tag_12\n      jumpi\n      dup1\n      0xfc0c546a\n      eq\n      tag_13\n      jumpi\n      jump(tag_2)\n    tag_14:\n      dup1\n      0x2b11cf20\n      eq\n      tag_3\n      jumpi\n      dup1\n      0x38af3eed\n      eq\n      tag_4\n      jumpi\n      dup1\n      0x86d1a69f\n      eq\n      tag_5\n      jumpi\n      dup1\n      0x924e63f6\n      eq\n      tag_6\n      jumpi\n      dup1\n      0xaa8c217c\n      eq\n      tag_7\n      jumpi\n    tag_2:\n      revert(0x00, 0x00)\n        /* \"contracts/Governance/DisputeResolution_flattened.sol\":8189:8459  function lockForDispute() external { require(msg.sender == depositor || msg.sender == beneficiary, \"Escrow: Not a party to the contract\"); require(state == EscrowState.Funded, \"Escrow: Can only lock funded escrow\"); state = EscrowState.Locked; emit LockedForDispute(); } */\n    tag_3:\n      tag_15\n      tag_16\n      jump\t// in\n    tag_15:\n      stop\n        /* \"contracts/Governance/DisputeResolution_flattened.sol\":7071:7107  address public immutable beneficiary */\n    tag_4:\n      tag_17\n      tag_18\n      jump\t// in\n    tag_17:\n      mload(0x40)\n      tag_19\n      swap2\n      swap1\n      tag_20\n      jump\t// in\n    tag_19:\n      mload(0x40)\n      dup1\n      swap2\n      sub\n      swap1\n      return\n        /* \"contracts/Governance/DisputeResolution_flattened.sol\":7894:8184  function release() external { require(msg.sender == depositor, \"Escrow: Caller is not the depositor\"); require(state == EscrowState.Funded, \"Escrow: Not in a releasable state\"); state = EscrowState.Released; IERC20(token).transfer(beneficiary, amount); emit Released(beneficiary, amount); } */\n    tag_5:\n      tag_21\n      tag_22\n      jump\t// in\n    tag_21:\n      stop\n        /* \"contracts/Governance/DisputeResolution_flattened.sol\":8897:9116  function setDisputeResolver(address _resolver) external { require(msg.sender == depositor, \"Escrow: Not depositor\"); require(disputeResolver == address(0), \"Escrow: Resolver already set\"); disputeResolver = _resolver; } */\n    tag_6:\n      tag_23\n      0x04\n      dup1\n      calldatasize\n      sub\n      dup2\n      add\n      swap1\n      tag_24\n      swap2\n      swap1\n      tag_25\n      jump\t// in\n    tag_24:\n      tag_26\n      jump\t// in\n    tag_23:\n      stop\n        /* \"contracts/Governance/DisputeResolution_flattened.sol\":7141:7172  uint256 public immutable amount */\n    tag_7:\n      tag_27\n      tag_28\n      jump\t// in\n    tag_27:\n      mload(0x40)\n      tag_29\n      swap2\n      swap1\n      tag_30\n      jump\t// in\n    tag_29:\n      mload(0x40)\n      dup1\n      swap2\n      sub\n      swap1\n      return\n        /* \"contracts/Governance/DisputeResolution_flattened.sol\":7673:7889  function fund() external { require(state == EscrowState.AwaitingFunding, \"Escrow: Not awaiting funds\"); IERC20(token).transferFrom(depositor, address(this), amount); state = EscrowState.Funded; emit Funded(amount); } */\n    tag_8:\n      tag_31\n      tag_32\n      jump\t// in\n    tag_31:\n      stop\n        /* \"contracts/Governance/DisputeResolution_flattened.sol\":7178:7202  EscrowState public state */\n    tag_9:\n      tag_33\n      tag_34\n      jump\t// in\n    tag_33:\n      mload(0x40)\n      tag_35\n      swap2\n      swap1\n      tag_36\n      jump\t// in\n    tag_35:\n      mload(0x40)\n      dup1\n      swap2\n      sub\n      swap1\n      return\n        /* \"contracts/Governance/DisputeResolution_flattened.sol\":7035:7069  address public immutable depositor */\n    tag_10:\n      tag_37\n      tag_38\n      jump\t// in\n    tag_37:\n      mload(0x40)\n      tag_39\n      swap2\n      swap1\n      tag_20\n      jump\t// in\n    tag_39:\n      mload(0x40)\n      dup1\n      swap2\n      sub\n      swap1\n      return\n        /* \"contracts/Governance/DisputeResolution_flattened.sol\":8464:8892  function resolveDispute(address winner) external { require(msg.sender == disputeResolver, \"Escrow: Caller is not the dispute resolver\"); require(state == EscrowState.Locked, \"Escrow: Not locked for dispute\"); if (winner == beneficiary) { state = EscrowState.Released; IERC20(token).transfer(beneficiary, amount); } else { state = EscrowState.Refunded; IERC20(token).transfer(depositor, amount); } emit DisputeResolved(winner); } */\n    tag_11:\n      tag_40\n      0x04\n      dup1\n      calldatasize\n      sub\n      dup2\n      add\n      swap1\n      tag_41\n      swap2\n      swap1\n      tag_25\n      jump\t// in\n    tag_41:\n      tag_42\n      jump\t// in\n    tag_40:\n      stop\n        /* \"contracts/Governance/DisputeResolution_flattened.sol\":7204:7234  address public disputeResolver */\n    tag_12:\n      tag_43\n      tag_44\n      jump\t// in\n    tag_43:\n      mload(0x40)\n      tag_45\n      swap2\n      swap1\n      tag_20\n      jump\t// in\n    tag_45:\n      mload(0x40)\n      dup1\n      swap2\n      sub\n      swap1\n      return\n        /* \"contracts/Governance/DisputeResolution_flattened.sol\":7109:7139  address public immutable token */\n    tag_13:\n      tag_46\n      tag_47\n      jump\t// in\n    tag_46:\n      mload(0x40)\n      tag_48\n      swap2\n      swap1\n      tag_20\n      jump\t// in\n    tag_48:\n      mload(0x40)\n      dup1\n      swap2\n      sub\n      swap1\n      return\n        /* \"contracts/Governance/DisputeResolution_flattened.sol\":8189:8459  function lockForDispute() external { require(msg.sender == depositor || msg.sender == beneficiary, \"Escrow: Not a party to the contract\"); require(state == EscrowState.Funded, \"Escrow: Can only lock funded escrow\"); state = EscrowState.Locked; emit LockedForDispute(); } */\n    tag_16:\n        /* \"contracts/Governance/DisputeResolution_flattened.sol\":8248:8257  depositor */\n      immutable(\"0x3884709d17f664eaba4ac467a7268cd72e3e0fe0c4e85152b1894161243c55c2\")\n        /* \"contracts/Governance/DisputeResolution_flattened.sol\":8234:8257  msg.sender == depositor */\n      0xffffffffffffffffffffffffffffffffffffffff\n      and\n        /* \"contracts/Governance/DisputeResolution_flattened.sol\":8234:8244  msg.sender */\n      caller\n        /* \"contracts/Governance/DisputeResolution_flattened.sol\":8234:8257  msg.sender == depositor */\n      0xffffffffffffffffffffffffffffffffffffffff\n      and\n      eq\n        /* \"contracts/Governance/DisputeResolution_flattened.sol\":8234:8286  msg.sender == depositor || msg.sender == beneficiary */\n      dup1\n      tag_50\n      jumpi\n      pop\n        /* \"contracts/Governance/DisputeResolution_flattened.sol\":8275:8286  beneficiary */\n      immutable(\"0x4b4b9efaff899efa2095e6e12f4c7ffa5d130c6cf88a562d7f7bbc11486ed4fb\")\n        /* \"contracts/Governance/DisputeResolution_flattened.sol\":8261:8286  msg.sender == beneficiary */\n      0xffffffffffffffffffffffffffffffffffffffff\n      and\n        /* \"contracts/Governance/DisputeResolution_flattened.sol\":8261:8271  msg.sender */\n      caller\n        /* \"contracts/Governance/DisputeResolution_flattened.sol\":8261:8286  msg.sender == beneficiary */\n      0xffffffffffffffffffffffffffffffffffffffff\n      and\n      eq\n        /* \"contracts/Governance/DisputeResolution_flattened.sol\":8234:8286  msg.sender == depositor || msg.sender == beneficiary */\n    tag_50:\n        /* \"contracts/Governance/DisputeResolution_flattened.sol\":8226:8326  require(msg.sender == depositor || msg.sender == beneficiary, \"Escrow: Not a party to the contract\") */\n      tag_51\n      jumpi\n      mload(0x40)\n      0x08c379a000000000000000000000000000000000000000000000000000000000\n      dup2\n      mstore\n      0x04\n      add\n      tag_52\n      swap1\n      tag_53\n      jump\t// in\n    tag_52:\n      mload(0x40)\n      dup1\n      swap2\n      sub\n      swap1\n      revert\n    tag_51:\n        /* \"contracts/Governance/DisputeResolution_flattened.sol\":8345:8363  EscrowState.Funded */\n      0x01\n        /* \"contracts/Governance/DisputeResolution_flattened.sol\":8336:8363  state == EscrowState.Funded */\n      0x04\n      dup2\n      gt\n      iszero\n      tag_54\n      jumpi\n      tag_55\n      tag_56\n      jump\t// in\n    tag_55:\n    tag_54:\n        /* \"contracts/Governance/DisputeResolution_flattened.sol\":8336:8341  state */\n      0x00\n      0x00\n      swap1\n      sload\n      swap1\n      0x0100\n      exp\n      swap1\n      div\n      0xff\n      and\n        /* \"contracts/Governance/DisputeResolution_flattened.sol\":8336:8363  state == EscrowState.Funded */\n      0x04\n      dup2\n      gt\n      iszero\n      tag_57\n      jumpi\n      tag_58\n      tag_56\n      jump\t// in\n    tag_58:\n    tag_57:\n      eq\n        /* \"contracts/Governance/DisputeResolution_flattened.sol\":8328:8403  require(state == EscrowState.Funded, \"Escrow: Can only lock funded escrow\") */\n      tag_59\n      jumpi\n      mload(0x40)\n      0x08c379a000000000000000000000000000000000000000000000000000000000\n      dup2\n      mstore\n      0x04\n      add\n      tag_60\n      swap1\n      tag_61\n      jump\t// in\n    tag_60:\n      mload(0x40)\n      dup1\n      swap2\n      sub\n      swap1\n      revert\n    tag_59:\n        /* \"contracts/Governance/DisputeResolution_flattened.sol\":8413:8431  EscrowState.Locked */\n      0x04\n        /* \"contracts/Governance/DisputeResolution_flattened.sol\":8405:8410  state */\n      0x00\n      0x00\n        /* \"contracts/Governance/DisputeResolution_flattened.sol\":8405:8431  state = EscrowState.Locked */\n      0x0100\n      exp\n      dup2\n      sload\n      dup2\n      0xff\n      mul\n      not\n      and\n      swap1\n      dup4\n      0x04\n      dup2\n      gt\n      iszero\n      tag_62\n      jumpi\n      tag_63\n      tag_56\n      jump\t// in\n    tag_63:\n    tag_62:\n      mul\n      or\n      swap1\n      sstore\n      pop\n        /* \"contracts/Governance/DisputeResolution_flattened.sol\":8438:8456  LockedForDispute() */\n      0xd83f22a069e41ae320261253bdc2be5ecace05aa326339d7674afa8a549d0b78\n      mload(0x40)\n      mload(0x40)\n      dup1\n      swap2\n      sub\n      swap1\n      log1\n        /* \"contracts/Governance/DisputeResolution_flattened.sol\":8189:8459  function lockForDispute() external { require(msg.sender == depositor || msg.sender == beneficiary, \"Escrow: Not a party to the contract\"); require(state == EscrowState.Funded, \"Escrow: Can only lock funded escrow\"); state = EscrowState.Locked; emit LockedForDispute(); } */\n      jump\t// out\n        /* \"contracts/Governance/DisputeResolution_flattened.sol\":7071:7107  address public immutable beneficiary */\n    tag_18:\n      immutable(\"0x4b4b9efaff899efa2095e6e12f4c7ffa5d130c6cf88a562d7f7bbc11486ed4fb\")\n      dup2\n      jump\t// out\n        /* \"contracts/Governance/DisputeResolution_flattened.sol\":7894:8184  function release() external { require(msg.sender == depositor, \"Escrow: Caller is not the depositor\"); require(state == EscrowState.Funded, \"Escrow: Not in a releasable state\"); state = EscrowState.Released; IERC20(token).transfer(beneficiary, amount); emit Released(beneficiary, amount); } */\n    tag_22:\n        /* \"contracts/Governance/DisputeResolution_flattened.sol\":7946:7955  depositor */\n      immutable(\"0x3884709d17f664eaba4ac467a7268cd72e3e0fe0c4e85152b1894161243c55c2\")\n        /* \"contracts/Governance/DisputeResolution_flattened.sol\":7932:7955  msg.sender == depositor */\n      0xffffffffffffffffffffffffffffffffffffffff\n      and\n        /* \"contracts/Governance/DisputeResolution_flattened.sol\":7932:7942  msg.sender */\n      caller\n        /* \"contracts/Governance/DisputeResolution_flattened.sol\":7932:7955  msg.sender == depositor */\n      0xffffffffffffffffffffffffffffffffffffffff\n      and\n      eq\n        /* \"contracts/Governance/DisputeResolution_flattened.sol\":7924:7995  require(msg.sender == depositor, \"Escrow: Caller is not the depositor\") */\n      tag_65\n      jumpi\n      mload(0x40)\n      0x08c379a000000000000000000000000000000000000000000000000000000000\n      dup2\n      mstore\n      0x04\n      add\n      tag_66\n      swap1\n      tag_67\n      jump\t// in\n    tag_66:\n      mload(0x40)\n      dup1\n      swap2\n      sub\n      swap1\n      revert\n    tag_65:\n        /* \"contracts/Governance/DisputeResolution_flattened.sol\":8014:8032  EscrowState.Funded */\n      0x01\n        /* \"contracts/Governance/DisputeResolution_flattened.sol\":8005:8032  state == EscrowState.Funded */\n      0x04\n      dup2\n      gt\n      iszero\n      tag_68\n      jumpi\n      tag_69\n      tag_56\n      jump\t// in\n    tag_69:\n    tag_68:\n        /* \"contracts/Governance/DisputeResolution_flattened.sol\":8005:8010  state */\n      0x00\n      0x00\n      swap1\n      sload\n      swap1\n      0x0100\n      exp\n      swap1\n      div\n      0xff\n      and\n        /* \"contracts/Governance/DisputeResolution_flattened.sol\":8005:8032  state == EscrowState.Funded */\n      0x04\n      dup2\n      gt\n      iszero\n      tag_70\n      jumpi\n      tag_71\n      tag_56\n      jump\t// in\n    tag_71:\n    tag_70:\n      eq\n        /* \"contracts/Governance/DisputeResolution_flattened.sol\":7997:8070  require(state == EscrowState.Funded, \"Escrow: Not in a releasable state\") */\n      tag_72\n      jumpi\n      mload(0x40)\n      0x08c379a000000000000000000000000000000000000000000000000000000000\n      dup2\n      mstore\n      0x04\n      add\n      tag_73\n      swap1\n      tag_74\n      jump\t// in\n    tag_73:\n      mload(0x40)\n      dup1\n      swap2\n      sub\n      swap1\n      revert\n    tag_72:\n        /* \"contracts/Governance/DisputeResolution_flattened.sol\":8080:8100  EscrowState.Released */\n      0x02\n        /* \"contracts/Governance/DisputeResolution_flattened.sol\":8072:8077  state */\n      0x00\n      0x00\n        /* \"contracts/Governance/DisputeResolution_flattened.sol\":8072:8100  state = EscrowState.Released */\n      0x0100\n      exp\n      dup2\n      sload\n      dup2\n      0xff\n      mul\n      not\n      and\n      swap1\n      dup4\n      0x04\n      dup2\n      gt\n      iszero\n      tag_75\n      jumpi\n      tag_76\n      tag_56\n      jump\t// in\n    tag_76:\n    tag_75:\n      mul\n      or\n      swap1\n      sstore\n      pop\n        /* \"contracts/Governance/DisputeResolution_flattened.sol\":8109:8114  token */\n      immutable(\"0xb7020dd003fcd4d96af1507ff4dc7e2c1158f23ad0bacfdf3455869cf9fb4898\")\n        /* \"contracts/Governance/DisputeResolution_flattened.sol\":8102:8124  IERC20(token).transfer */\n      0xffffffffffffffffffffffffffffffffffffffff\n      and\n      0xa9059cbb\n        /* \"contracts/Governance/DisputeResolution_flattened.sol\":8125:8136  beneficiary */\n      immutable(\"0x4b4b9efaff899efa2095e6e12f4c7ffa5d130c6cf88a562d7f7bbc11486ed4fb\")\n        /* \"contracts/Governance/DisputeResolution_flattened.sol\":8138:8144  amount */\n      immutable(\"0x0c547abaeb802d560e2d858972ba2ab023d02ad4d4b45f6e7fe8ba1d5749bc58\")\n        /* \"contracts/Governance/DisputeResolution_flattened.sol\":8102:8145  IERC20(token).transfer(beneficiary, amount) */\n      mload(0x40)\n      dup4\n      0xffffffff\n      and\n      0xe0\n      shl\n      dup2\n      mstore\n      0x04\n      add\n      tag_77\n      swap3\n      swap2\n      swap1\n      tag_78\n      jump\t// in\n    tag_77:\n      0x20\n      mload(0x40)\n      dup1\n      dup4\n      sub\n      dup2\n      0x00\n      dup8\n      gas\n      call\n      iszero\n      dup1\n      iszero\n      tag_80\n      jumpi\n      returndatacopy(0x00, 0x00, returndatasize)\n      revert(0x00, returndatasize)\n    tag_80:\n      pop\n      pop\n      pop\n      pop\n      mload(0x40)\n      returndatasize\n      not(0x1f)\n      0x1f\n      dup3\n      add\n      and\n      dup3\n      add\n      dup1\n      0x40\n      mstore\n      pop\n      dup2\n      add\n      swap1\n      tag_81\n      swap2\n      swap1\n      tag_82\n      jump\t// in\n    tag_81:\n      pop\n        /* \"contracts/Governance/DisputeResolution_flattened.sol\":8161:8172  beneficiary */\n      immutable(\"0x4b4b9efaff899efa2095e6e12f4c7ffa5d130c6cf88a562d7f7bbc11486ed4fb\")\n        /* \"contracts/Governance/DisputeResolution_flattened.sol\":8152:8181  Released(beneficiary, amount) */\n      0xffffffffffffffffffffffffffffffffffffffff\n      and\n      0xb21fb52d5749b80f3182f8c6992236b5e5576681880914484d7f4c9b062e619e\n        /* \"contracts/Governance/DisputeResolution_flattened.sol\":8174:8180  amount */\n      immutable(\"0x0c547abaeb802d560e2d858972ba2ab023d02ad4d4b45f6e7fe8ba1d5749bc58\")\n        /* \"contracts/Governance/DisputeResolution_flattened.sol\":8152:8181  Released(beneficiary, amount) */\n      mload(0x40)\n      tag_83\n      swap2\n      swap1\n      tag_30\n      jump\t// in\n    tag_83:\n      mload(0x40)\n      dup1\n      swap2\n      sub\n      swap1\n      log2\n        /* \"contracts/Governance/DisputeResolution_flattened.sol\":7894:8184  function release() external { require(msg.sender == depositor, \"Escrow: Caller is not the depositor\"); require(state == EscrowState.Funded, \"Escrow: Not in a releasable state\"); state = EscrowState.Released; IERC20(token).transfer(beneficiary, amount); emit Released(beneficiary, amount); } */\n      jump\t// out\n        /* \"contracts/Governance/DisputeResolution_flattened.sol\":8897:9116  function setDisputeResolver(address _resolver) external { require(msg.sender == depositor, \"Escrow: Not depositor\"); require(disputeResolver == address(0), \"Escrow: Resolver already set\"); disputeResolver = _resolver; } */\n    tag_26:\n        /* \"contracts/Governance/DisputeResolution_flattened.sol\":8977:8986  depositor */\n      immutable(\"0x3884709d17f664eaba4ac467a7268cd72e3e0fe0c4e85152b1894161243c55c2\")\n        /* \"contracts/Governance/DisputeResolution_flattened.sol\":8963:8986  msg.sender == depositor */\n      0xffffffffffffffffffffffffffffffffffffffff\n      and\n        /* \"contracts/Governance/DisputeResolution_flattened.sol\":8963:8973  msg.sender */\n      caller\n        /* \"contracts/Governance/DisputeResolution_flattened.sol\":8963:8986  msg.sender == depositor */\n      0xffffffffffffffffffffffffffffffffffffffff\n      and\n      eq\n        /* \"contracts/Governance/DisputeResolution_flattened.sol\":8955:9012  require(msg.sender == depositor, \"Escrow: Not depositor\") */\n      tag_85\n      jumpi\n      mload(0x40)\n      0x08c379a000000000000000000000000000000000000000000000000000000000\n      dup2\n      mstore\n      0x04\n      add\n      tag_86\n      swap1\n      tag_87\n      jump\t// in\n    tag_86:\n      mload(0x40)\n      dup1\n      swap2\n      sub\n      swap1\n      revert\n    tag_85:\n        /* \"contracts/Governance/DisputeResolution_flattened.sol\":9049:9050  0 */\n      0x00\n        /* \"contracts/Governance/DisputeResolution_flattened.sol\":9022:9051  disputeResolver == address(0) */\n      0xffffffffffffffffffffffffffffffffffffffff\n      and\n        /* \"contracts/Governance/DisputeResolution_flattened.sol\":9022:9037  disputeResolver */\n      0x00\n      0x01\n      swap1\n      sload\n      swap1\n      0x0100\n      exp\n      swap1\n      div\n      0xffffffffffffffffffffffffffffffffffffffff\n      and\n        /* \"contracts/Governance/DisputeResolution_flattened.sol\":9022:9051  disputeResolver == address(0) */\n      0xffffffffffffffffffffffffffffffffffffffff\n      and\n      eq\n        /* \"contracts/Governance/DisputeResolution_flattened.sol\":9014:9084  require(disputeResolver == address(0), \"Escrow: Resolver already set\") */\n      tag_88\n      jumpi\n      mload(0x40)\n      0x08c379a000000000000000000000000000000000000000000000000000000000\n      dup2\n      mstore\n      0x04\n      add\n      tag_89\n      swap1\n      tag_90\n      jump\t// in\n    tag_89:\n      mload(0x40)\n      dup1\n      swap2\n      sub\n      swap1\n      revert\n    tag_88:\n        /* \"contracts/Governance/DisputeResolution_flattened.sol\":9104:9113  _resolver */\n      dup1\n        /* \"contracts/Governance/DisputeResolution_flattened.sol\":9086:9101  disputeResolver */\n      0x00\n      0x01\n        /* \"contracts/Governance/DisputeResolution_flattened.sol\":9086:9113  disputeResolver = _resolver */\n      0x0100\n      exp\n      dup2\n      sload\n      dup2\n      0xffffffffffffffffffffffffffffffffffffffff\n      mul\n      not\n      and\n      swap1\n      dup4\n      0xffffffffffffffffffffffffffffffffffffffff\n      and\n      mul\n      or\n      swap1\n      sstore\n      pop\n        /* \"contracts/Governance/DisputeResolution_flattened.sol\":8897:9116  function setDisputeResolver(address _resolver) external { require(msg.sender == depositor, \"Escrow: Not depositor\"); require(disputeResolver == address(0), \"Escrow: Resolver already set\"); disputeResolver = _resolver; } */\n      pop\n      jump\t// out\n        /* \"contracts/Governance/DisputeResolution_flattened.sol\":7141:7172  uint256 public immutable amount */\n    tag_28:\n      immutable(\"0x0c547abaeb802d560e2d858972ba2ab023d02ad4d4b45f6e7fe8ba1d5749bc58\")\n      dup2\n      jump\t// out\n        /* \"contracts/Governance/DisputeResolution_flattened.sol\":7673:7889  function fund() external { require(state == EscrowState.AwaitingFunding, \"Escrow: Not awaiting funds\"); IERC20(token).transferFrom(depositor, address(this), amount); state = EscrowState.Funded; emit Funded(amount); } */\n    tag_32:\n        /* \"contracts/Governance/DisputeResolution_flattened.sol\":7717:7744  EscrowState.AwaitingFunding */\n      0x00\n        /* \"contracts/Governance/DisputeResolution_flattened.sol\":7708:7744  state == EscrowState.AwaitingFunding */\n      0x04\n      dup2\n      gt\n      iszero\n      tag_92\n      jumpi\n      tag_93\n      tag_56\n      jump\t// in\n    tag_93:\n    tag_92:\n        /* \"contracts/Governance/DisputeResolution_flattened.sol\":7708:7713  state */\n      0x00\n      0x00\n      swap1\n      sload\n      swap1\n      0x0100\n      exp\n      swap1\n      div\n      0xff\n      and\n        /* \"contracts/Governance/DisputeResolution_flattened.sol\":7708:7744  state == EscrowState.AwaitingFunding */\n      0x04\n      dup2\n      gt\n      iszero\n      tag_94\n      jumpi\n      tag_95\n      tag_56\n      jump\t// in\n    tag_95:\n    tag_94:\n      eq\n        /* \"contracts/Governance/DisputeResolution_flattened.sol\":7700:7775  require(state == EscrowState.AwaitingFunding, \"Escrow: Not awaiting funds\") */\n      tag_96\n      jumpi\n      mload(0x40)\n      0x08c379a000000000000000000000000000000000000000000000000000000000\n      dup2\n      mstore\n      0x04\n      add\n      tag_97\n      swap1\n      tag_98\n      jump\t// in\n    tag_97:\n      mload(0x40)\n      dup1\n      swap2\n      sub\n      swap1\n      revert\n    tag_96:\n        /* \"contracts/Governance/DisputeResolution_flattened.sol\":7784:7789  token */\n      immutable(\"0xb7020dd003fcd4d96af1507ff4dc7e2c1158f23ad0bacfdf3455869cf9fb4898\")\n        /* \"contracts/Governance/DisputeResolution_flattened.sol\":7777:7803  IERC20(token).transferFrom */\n      0xffffffffffffffffffffffffffffffffffffffff\n      and\n      0x23b872dd\n        /* \"contracts/Governance/DisputeResolution_flattened.sol\":7804:7813  depositor */\n      immutable(\"0x3884709d17f664eaba4ac467a7268cd72e3e0fe0c4e85152b1894161243c55c2\")\n        /* \"contracts/Governance/DisputeResolution_flattened.sol\":7823:7827  this */\n      address\n        /* \"contracts/Governance/DisputeResolution_flattened.sol\":7830:7836  amount */\n      immutable(\"0x0c547abaeb802d560e2d858972ba2ab023d02ad4d4b45f6e7fe8ba1d5749bc58\")\n        /* \"contracts/Governance/DisputeResolution_flattened.sol\":7777:7837  IERC20(token).transferFrom(depositor, address(this), amount) */\n      mload(0x40)\n      dup5\n      0xffffffff\n      and\n      0xe0\n      shl\n      dup2\n      mstore\n      0x04\n      add\n      tag_99\n      swap4\n      swap3\n      swap2\n      swap1\n      tag_100\n      jump\t// in\n    tag_99:\n      0x20\n      mload(0x40)\n      dup1\n      dup4\n      sub\n      dup2\n      0x00\n      dup8\n      gas\n      call\n      iszero\n      dup1\n      iszero\n      tag_102\n      jumpi\n      returndatacopy(0x00, 0x00, returndatasize)\n      revert(0x00, returndatasize)\n    tag_102:\n      pop\n      pop\n      pop\n      pop\n      mload(0x40)\n      returndatasize\n      not(0x1f)\n      0x1f\n      dup3\n      add\n      and\n      dup3\n      add\n      dup1\n      0x40\n      mstore\n      pop\n      dup2\n      add\n      swap1\n      tag_103\n      swap2\n      swap1\n      tag_82\n      jump\t// in\n    tag_103:\n      pop\n        /* \"contracts/Governance/DisputeResolution_flattened.sol\":7847:7865  EscrowState.Funded */\n      0x01\n        /* \"contracts/Governance/DisputeResolution_flattened.sol\":7839:7844  state */\n      0x00\n      0x00\n        /* \"contracts/Governance/DisputeResolution_flattened.sol\":7839:7865  state = EscrowState.Funded */\n      0x0100\n      exp\n      dup2\n      sload\n      dup2\n      0xff\n      mul\n      not\n      and\n      swap1\n      dup4\n      0x04\n      dup2\n      gt\n      iszero\n      tag_104\n      jumpi\n      tag_105\n      tag_56\n      jump\t// in\n    tag_105:\n    tag_104:\n      mul\n      or\n      swap1\n      sstore\n      pop\n        /* \"contracts/Governance/DisputeResolution_flattened.sol\":7872:7886  Funded(amount) */\n      0xc4c14883ae9fd8e26d5d59e3485ed29fd126d781d7e498a4ca5c54c8268e4936\n        /* \"contracts/Governance/DisputeResolution_flattened.sol\":7879:7885  amount */\n      immutable(\"0x0c547abaeb802d560e2d858972ba2ab023d02ad4d4b45f6e7fe8ba1d5749bc58\")\n        /* \"contracts/Governance/DisputeResolution_flattened.sol\":7872:7886  Funded(amount) */\n      mload(0x40)\n      tag_106\n      swap2\n      swap1\n      tag_30\n      jump\t// in\n    tag_106:\n      mload(0x40)\n      dup1\n      swap2\n      sub\n      swap1\n      log1\n        /* \"contracts/Governance/DisputeResolution_flattened.sol\":7673:7889  function fund() external { require(state == EscrowState.AwaitingFunding, \"Escrow: Not awaiting funds\"); IERC20(token).transferFrom(depositor, address(this), amount); state = EscrowState.Funded; emit Funded(amount); } */\n      jump\t// out\n        /* \"contracts/Governance/DisputeResolution_flattened.sol\":7178:7202  EscrowState public state */\n    tag_34:\n      0x00\n      0x00\n      swap1\n      sload\n      swap1\n      0x0100\n      exp\n      swap1\n      div\n      0xff\n      and\n      dup2\n      jump\t// out\n        /* \"contracts/Governance/DisputeResolution_flattened.sol\":7035:7069  address public immutable depositor */\n    tag_38:\n      immutable(\"0x3884709d17f664eaba4ac467a7268cd72e3e0fe0c4e85152b1894161243c55c2\")\n      dup2\n      jump\t// out\n        /* \"contracts/Governance/DisputeResolution_flattened.sol\":8464:8892  function resolveDispute(address winner) external { require(msg.sender == disputeResolver, \"Escrow: Caller is not the dispute resolver\"); require(state == EscrowState.Locked, \"Escrow: Not locked for dispute\"); if (winner == beneficiary) { state = EscrowState.Released; IERC20(token).transfer(beneficiary, amount); } else { state = EscrowState.Refunded; IERC20(token).transfer(depositor, amount); } emit DisputeResolved(winner); } */\n    tag_42:\n        /* \"contracts/Governance/DisputeResolution_flattened.sol\":8537:8552  disputeResolver */\n      0x00\n      0x01\n      swap1\n      sload\n      swap1\n      0x0100\n      exp\n      swap1\n      div\n      0xffffffffffffffffffffffffffffffffffffffff\n      and\n        /* \"contracts/Governance/DisputeResolution_flattened.sol\":8523:8552  msg.sender == disputeResolver */\n      0xffffffffffffffffffffffffffffffffffffffff\n      and\n        /* \"contracts/Governance/DisputeResolution_flattened.sol\":8523:8533  msg.sender */\n      caller\n        /* \"contracts/Governance/DisputeResolution_flattened.sol\":8523:8552  msg.sender == disputeResolver */\n      0xffffffffffffffffffffffffffffffffffffffff\n      and\n      eq\n        /* \"contracts/Governance/DisputeResolution_flattened.sol\":8515:8599  require(msg.sender == disputeResolver, \"Escrow: Caller is not the dispute resolver\") */\n      tag_108\n      jumpi\n      mload(0x40)\n      0x08c379a000000000000000000000000000000000000000000000000000000000\n      dup2\n      mstore\n      0x04\n      add\n      tag_109\n      swap1\n      tag_110\n      jump\t// in\n    tag_109:\n      mload(0x40)\n      dup1\n      swap2\n      sub\n      swap1\n      revert\n    tag_108:\n        /* \"contracts/Governance/DisputeResolution_flattened.sol\":8618:8636  EscrowState.Locked */\n      0x04\n        /* \"contracts/Governance/DisputeResolution_flattened.sol\":8609:8636  state == EscrowState.Locked */\n      dup1\n      dup2\n      gt\n      iszero\n      tag_111\n      jumpi\n      tag_112\n      tag_56\n      jump\t// in\n    tag_112:\n    tag_111:\n        /* \"contracts/Governance/DisputeResolution_flattened.sol\":8609:8614  state */\n      0x00\n      0x00\n      swap1\n      sload\n      swap1\n      0x0100\n      exp\n      swap1\n      div\n      0xff\n      and\n        /* \"contracts/Governance/DisputeResolution_flattened.sol\":8609:8636  state == EscrowState.Locked */\n      0x04\n      dup2\n      gt\n      iszero\n      tag_113\n      jumpi\n      tag_114\n      tag_56\n      jump\t// in\n    tag_114:\n    tag_113:\n      eq\n        /* \"contracts/Governance/DisputeResolution_flattened.sol\":8601:8671  require(state == EscrowState.Locked, \"Escrow: Not locked for dispute\") */\n      tag_115\n      jumpi\n      mload(0x40)\n      0x08c379a000000000000000000000000000000000000000000000000000000000\n      dup2\n      mstore\n      0x04\n      add\n      tag_116\n      swap1\n      tag_117\n      jump\t// in\n    tag_116:\n      mload(0x40)\n      dup1\n      swap2\n      sub\n      swap1\n      revert\n    tag_115:\n        /* \"contracts/Governance/DisputeResolution_flattened.sol\":8687:8698  beneficiary */\n      immutable(\"0x4b4b9efaff899efa2095e6e12f4c7ffa5d130c6cf88a562d7f7bbc11486ed4fb\")\n        /* \"contracts/Governance/DisputeResolution_flattened.sol\":8677:8698  winner == beneficiary */\n      0xffffffffffffffffffffffffffffffffffffffff\n      and\n        /* \"contracts/Governance/DisputeResolution_flattened.sol\":8677:8683  winner */\n      dup2\n        /* \"contracts/Governance/DisputeResolution_flattened.sol\":8677:8698  winner == beneficiary */\n      0xffffffffffffffffffffffffffffffffffffffff\n      and\n      sub\n        /* \"contracts/Governance/DisputeResolution_flattened.sol\":8673:8860  if (winner == beneficiary) { state = EscrowState.Released; IERC20(token).transfer(beneficiary, amount); } else { state = EscrowState.Refunded; IERC20(token).transfer(depositor, amount); } */\n      tag_118\n      jumpi\n        /* \"contracts/Governance/DisputeResolution_flattened.sol\":8710:8730  EscrowState.Released */\n      0x02\n        /* \"contracts/Governance/DisputeResolution_flattened.sol\":8702:8707  state */\n      0x00\n      0x00\n        /* \"contracts/Governance/DisputeResolution_flattened.sol\":8702:8730  state = EscrowState.Released */\n      0x0100\n      exp\n      dup2\n      sload\n      dup2\n      0xff\n      mul\n      not\n      and\n      swap1\n      dup4\n      0x04\n      dup2\n      gt\n      iszero\n      tag_119\n      jumpi\n      tag_120\n      tag_56\n      jump\t// in\n    tag_120:\n    tag_119:\n      mul\n      or\n      swap1\n      sstore\n      pop\n        /* \"contracts/Governance/DisputeResolution_flattened.sol\":8739:8744  token */\n      immutable(\"0xb7020dd003fcd4d96af1507ff4dc7e2c1158f23ad0bacfdf3455869cf9fb4898\")\n        /* \"contracts/Governance/DisputeResolution_flattened.sol\":8732:8754  IERC20(token).transfer */\n      0xffffffffffffffffffffffffffffffffffffffff\n      and\n      0xa9059cbb\n        /* \"contracts/Governance/DisputeResolution_flattened.sol\":8755:8766  beneficiary */\n      immutable(\"0x4b4b9efaff899efa2095e6e12f4c7ffa5d130c6cf88a562d7f7bbc11486ed4fb\")\n        /* \"contracts/Governance/DisputeResolution_flattened.sol\":8768:8774  amount */\n      immutable(\"0x0c547abaeb802d560e2d858972ba2ab023d02ad4d4b45f6e7fe8ba1d5749bc58\")\n        /* \"contracts/Governance/DisputeResolution_flattened.sol\":8732:8775  IERC20(token).transfer(beneficiary, amount) */\n      mload(0x40)\n      dup4\n      0xffffffff\n      and\n      0xe0\n      shl\n      dup2\n      mstore\n      0x04\n      add\n      tag_121\n      swap3\n      swap2\n      swap1\n      tag_78\n      jump\t// in\n    tag_121:\n      0x20\n      mload(0x40)\n      dup1\n      dup4\n      sub\n      dup2\n      0x00\n      dup8\n      gas\n      call\n      iszero\n      dup1\n      iszero\n      tag_123\n      jumpi\n      returndatacopy(0x00, 0x00, returndatasize)\n      revert(0x00, returndatasize)\n    tag_123:\n      pop\n      pop\n      pop\n      pop\n      mload(0x40)\n      returndatasize\n      not(0x1f)\n      0x1f\n      dup3\n      add\n      and\n      dup3\n      add\n      dup1\n      0x40\n      mstore\n      pop\n      dup2\n      add\n      swap1\n      tag_124\n      swap2\n      swap1\n      tag_82\n      jump\t// in\n    tag_124:\n      pop\n        /* \"contracts/Governance/DisputeResolution_flattened.sol\":8673:8860  if (winner == beneficiary) { state = EscrowState.Released; IERC20(token).transfer(beneficiary, amount); } else { state = EscrowState.Refunded; IERC20(token).transfer(depositor, amount); } */\n      jump(tag_125)\n    tag_118:\n        /* \"contracts/Governance/DisputeResolution_flattened.sol\":8794:8814  EscrowState.Refunded */\n      0x03\n        /* \"contracts/Governance/DisputeResolution_flattened.sol\":8786:8791  state */\n      0x00\n      0x00\n        /* \"contracts/Governance/DisputeResolution_flattened.sol\":8786:8814  state = EscrowState.Refunded */\n      0x0100\n      exp\n      dup2\n      sload\n      dup2\n      0xff\n      mul\n      not\n      and\n      swap1\n      dup4\n      0x04\n      dup2\n      gt\n      iszero\n      tag_126\n      jumpi\n      tag_127\n      tag_56\n      jump\t// in\n    tag_127:\n    tag_126:\n      mul\n      or\n      swap1\n      sstore\n      pop\n        /* \"contracts/Governance/DisputeResolution_flattened.sol\":8823:8828  token */\n      immutable(\"0xb7020dd003fcd4d96af1507ff4dc7e2c1158f23ad0bacfdf3455869cf9fb4898\")\n        /* \"contracts/Governance/DisputeResolution_flattened.sol\":8816:8838  IERC20(token).transfer */\n      0xffffffffffffffffffffffffffffffffffffffff\n      and\n      0xa9059cbb\n        /* \"contracts/Governance/DisputeResolution_flattened.sol\":8839:8848  depositor */\n      immutable(\"0x3884709d17f664eaba4ac467a7268cd72e3e0fe0c4e85152b1894161243c55c2\")\n        /* \"contracts/Governance/DisputeResolution_flattened.sol\":8850:8856  amount */\n      immutable(\"0x0c547abaeb802d560e2d858972ba2ab023d02ad4d4b45f6e7fe8ba1d5749bc58\")\n        /* \"contracts/Governance/DisputeResolution_flattened.sol\":8816:8857  IERC20(token).transfer(depositor, amount) */\n      mload(0x40)\n      dup4\n      0xffffffff\n      and\n      0xe0\n      shl\n      dup2\n      mstore\n      0x04\n      add\n      tag_128\n      swap3\n      swap2\n      swap1\n      tag_78\n      jump\t// in\n    tag_128:\n      0x20\n      mload(0x40)\n      dup1\n      dup4\n      sub\n      dup2\n      0x00\n      dup8\n      gas\n      call\n      iszero\n      dup1\n      iszero\n      tag_130\n      jumpi\n      returndatacopy(0x00, 0x00, returndatasize)\n      revert(0x00, returndatasize)\n    tag_130:\n      pop\n      pop\n      pop\n      pop\n      mload(0x40)\n      returndatasize\n      not(0x1f)\n      0x1f\n      dup3\n      add\n      and\n      dup3\n      add\n      dup1\n      0x40\n      mstore\n      pop\n      dup2\n      add\n      swap1\n      tag_131\n      swap2\n      swap1\n      tag_82\n      jump\t// in\n    tag_131:\n      pop\n        /* \"contracts/Governance/DisputeResolution_flattened.sol\":8673:8860  if (winner == beneficiary) { state = EscrowState.Released; IERC20(token).transfer(beneficiary, amount); } else { state = EscrowState.Refunded; IERC20(token).transfer(depositor, amount); } */\n    tag_125:\n        /* \"contracts/Governance/DisputeResolution_flattened.sol\":8866:8889  DisputeResolved(winner) */\n      0x8476b4c4cd5f496cfe2043ed12cd9e3e3540e97649536b9aa3fa67f06a7134db\n        /* \"contracts/Governance/DisputeResolution_flattened.sol\":8882:8888  winner */\n      dup2\n        /* \"contracts/Governance/DisputeResolution_flattened.sol\":8866:8889  DisputeResolved(winner) */\n      mload(0x40)\n      tag_132\n      swap2\n      swap1\n      tag_20\n      jump\t// in\n    tag_132:\n      mload(0x40)\n      dup1\n      swap2\n      sub\n      swap1\n      log1\n        /* \"contracts/Governance/DisputeResolution_flattened.sol\":8464:8892  function resolveDispute(address winner) external { require(msg.sender == disputeResolver, \"Escrow: Caller is not the dispute resolver\"); require(state == EscrowState.Locked, \"Escrow: Not locked for dispute\"); if (winner == beneficiary) { state = EscrowState.Released; IERC20(token).transfer(beneficiary, amount); } else { state = EscrowState.Refunded; IERC20(token).transfer(depositor, amount); } emit DisputeResolved(winner); } */\n      pop\n      jump\t// out\n        /* \"contracts/Governance/DisputeResolution_flattened.sol\":7204:7234  address public disputeResolver */\n    tag_44:\n      0x00\n      0x01\n      swap1\n      sload\n      swap1\n      0x0100\n      exp\n      swap1\n      div\n      0xffffffffffffffffffffffffffffffffffffffff\n      and\n      dup2\n      jump\t// out\n        /* \"contracts/Governance/DisputeResolution_flattened.sol\":7109:7139  address public immutable token */\n    tag_47:\n      immutable(\"0xb7020dd003fcd4d96af1507ff4dc7e2c1158f23ad0bacfdf3455869cf9fb4898\")\n      dup2\n      jump\t// out\n        /* \"#utility.yul\":7:133   */\n    tag_133:\n        /* \"#utility.yul\":44:51   */\n      0x00\n        /* \"#utility.yul\":84:126   */\n      0xffffffffffffffffffffffffffffffffffffffff\n        /* \"#utility.yul\":77:82   */\n      dup3\n        /* \"#utility.yul\":73:127   */\n      and\n        /* \"#utility.yul\":62:127   */\n      swap1\n      pop\n        /* \"#utility.yul\":7:133   */\n      swap2\n      swap1\n      pop\n      jump\t// out\n        /* \"#utility.yul\":139:235   */\n    tag_134:\n        /* \"#utility.yul\":176:183   */\n      0x00\n        /* \"#utility.yul\":205:229   */\n      tag_172\n        /* \"#utility.yul\":223:228   */\n      dup3\n        /* \"#utility.yul\":205:229   */\n      tag_133\n      jump\t// in\n    tag_172:\n        /* \"#utility.yul\":194:229   */\n      swap1\n      pop\n        /* \"#utility.yul\":139:235   */\n      swap2\n      swap1\n      pop\n      jump\t// out\n        /* \"#utility.yul\":241:359   */\n    tag_135:\n        /* \"#utility.yul\":328:352   */\n      tag_174\n        /* \"#utility.yul\":346:351   */\n      dup2\n        /* \"#utility.yul\":328:352   */\n      tag_134\n      jump\t// in\n    tag_174:\n        /* \"#utility.yul\":323:326   */\n      dup3\n        /* \"#utility.yul\":316:353   */\n      mstore\n        /* \"#utility.yul\":241:359   */\n      pop\n      pop\n      jump\t// out\n        /* \"#utility.yul\":365:587   */\n    tag_20:\n        /* \"#utility.yul\":458:462   */\n      0x00\n        /* \"#utility.yul\":496:498   */\n      0x20\n        /* \"#utility.yul\":485:494   */\n      dup3\n        /* \"#utility.yul\":481:499   */\n      add\n        /* \"#utility.yul\":473:499   */\n      swap1\n      pop\n        /* \"#utility.yul\":509:580   */\n      tag_176\n        /* \"#utility.yul\":577:578   */\n      0x00\n        /* \"#utility.yul\":566:575   */\n      dup4\n        /* \"#utility.yul\":562:579   */\n      add\n        /* \"#utility.yul\":553:559   */\n      dup5\n        /* \"#utility.yul\":509:580   */\n      tag_135\n      jump\t// in\n    tag_176:\n        /* \"#utility.yul\":365:587   */\n      swap3\n      swap2\n      pop\n      pop\n      jump\t// out\n        /* \"#utility.yul\":674:791   */\n    tag_137:\n        /* \"#utility.yul\":783:784   */\n      0x00\n        /* \"#utility.yul\":780:781   */\n      0x00\n        /* \"#utility.yul\":773:785   */\n      revert\n        /* \"#utility.yul\":920:1042   */\n    tag_139:\n        /* \"#utility.yul\":993:1017   */\n      tag_181\n        /* \"#utility.yul\":1011:1016   */\n      dup2\n        /* \"#utility.yul\":993:1017   */\n      tag_134\n      jump\t// in\n    tag_181:\n        /* \"#utility.yul\":986:991   */\n      dup2\n        /* \"#utility.yul\":983:1018   */\n      eq\n        /* \"#utility.yul\":973:1036   */\n      tag_182\n      jumpi\n        /* \"#utility.yul\":1032:1033   */\n      0x00\n        /* \"#utility.yul\":1029:1030   */\n      0x00\n        /* \"#utility.yul\":1022:1034   */\n      revert\n        /* \"#utility.yul\":973:1036   */\n    tag_182:\n        /* \"#utility.yul\":920:1042   */\n      pop\n      jump\t// out\n        /* \"#utility.yul\":1048:1187   */\n    tag_140:\n        /* \"#utility.yul\":1094:1099   */\n      0x00\n        /* \"#utility.yul\":1132:1138   */\n      dup2\n        /* \"#utility.yul\":1119:1139   */\n      calldataload\n        /* \"#utility.yul\":1110:1139   */\n      swap1\n      pop\n        /* \"#utility.yul\":1148:1181   */\n      tag_184\n        /* \"#utility.yul\":1175:1180   */\n      dup2\n        /* \"#utility.yul\":1148:1181   */\n      tag_139\n      jump\t// in\n    tag_184:\n        /* \"#utility.yul\":1048:1187   */\n      swap3\n      swap2\n      pop\n      pop\n      jump\t// out\n        /* \"#utility.yul\":1193:1522   */\n    tag_25:\n        /* \"#utility.yul\":1252:1258   */\n      0x00\n        /* \"#utility.yul\":1301:1303   */\n      0x20\n        /* \"#utility.yul\":1289:1298   */\n      dup3\n        /* \"#utility.yul\":1280:1287   */\n      dup5\n        /* \"#utility.yul\":1276:1299   */\n      sub\n        /* \"#utility.yul\":1272:1304   */\n      slt\n        /* \"#utility.yul\":1269:1388   */\n      iszero\n      tag_186\n      jumpi\n        /* \"#utility.yul\":1307:1386   */\n      tag_187\n      tag_137\n      jump\t// in\n    tag_187:\n        /* \"#utility.yul\":1269:1388   */\n    tag_186:\n        /* \"#utility.yul\":1427:1428   */\n      0x00\n        /* \"#utility.yul\":1452:1505   */\n      tag_188\n        /* \"#utility.yul\":1497:1504   */\n      dup5\n        /* \"#utility.yul\":1488:1494   */\n      dup3\n        /* \"#utility.yul\":1477:1486   */\n      dup6\n        /* \"#utility.yul\":1473:1495   */\n      add\n        /* \"#utility.yul\":1452:1505   */\n      tag_140\n      jump\t// in\n    tag_188:\n        /* \"#utility.yul\":1442:1505   */\n      swap2\n      pop\n        /* \"#utility.yul\":1398:1515   */\n      pop\n        /* \"#utility.yul\":1193:1522   */\n      swap3\n      swap2\n      pop\n      pop\n      jump\t// out\n        /* \"#utility.yul\":1528:1605   */\n    tag_141:\n        /* \"#utility.yul\":1565:1572   */\n      0x00\n        /* \"#utility.yul\":1594:1599   */\n      dup2\n        /* \"#utility.yul\":1583:1599   */\n      swap1\n      pop\n        /* \"#utility.yul\":1528:1605   */\n      swap2\n      swap1\n      pop\n      jump\t// out\n        /* \"#utility.yul\":1611:1729   */\n    tag_142:\n        /* \"#utility.yul\":1698:1722   */\n      tag_191\n        /* \"#utility.yul\":1716:1721   */\n      dup2\n        /* \"#utility.yul\":1698:1722   */\n      tag_141\n      jump\t// in\n    tag_191:\n        /* \"#utility.yul\":1693:1696   */\n      dup3\n        /* \"#utility.yul\":1686:1723   */\n      mstore\n        /* \"#utility.yul\":1611:1729   */\n      pop\n      pop\n      jump\t// out\n        /* \"#utility.yul\":1735:1957   */\n    tag_30:\n        /* \"#utility.yul\":1828:1832   */\n      0x00\n        /* \"#utility.yul\":1866:1868   */\n      0x20\n        /* \"#utility.yul\":1855:1864   */\n      dup3\n        /* \"#utility.yul\":1851:1869   */\n      add\n        /* \"#utility.yul\":1843:1869   */\n      swap1\n      pop\n        /* \"#utility.yul\":1879:1950   */\n      tag_193\n        /* \"#utility.yul\":1947:1948   */\n      0x00\n        /* \"#utility.yul\":1936:1945   */\n      dup4\n        /* \"#utility.yul\":1932:1949   */\n      add\n        /* \"#utility.yul\":1923:1929   */\n      dup5\n        /* \"#utility.yul\":1879:1950   */\n      tag_142\n      jump\t// in\n    tag_193:\n        /* \"#utility.yul\":1735:1957   */\n      swap3\n      swap2\n      pop\n      pop\n      jump\t// out\n        /* \"#utility.yul\":1963:2143   */\n    tag_56:\n        /* \"#utility.yul\":2011:2088   */\n      0x4e487b7100000000000000000000000000000000000000000000000000000000\n        /* \"#utility.yul\":2008:2009   */\n      0x00\n        /* \"#utility.yul\":2001:2089   */\n      mstore\n        /* \"#utility.yul\":2108:2112   */\n      0x21\n        /* \"#utility.yul\":2105:2106   */\n      0x04\n        /* \"#utility.yul\":2098:2113   */\n      mstore\n        /* \"#utility.yul\":2132:2136   */\n      0x24\n        /* \"#utility.yul\":2129:2130   */\n      0x00\n        /* \"#utility.yul\":2122:2137   */\n      revert\n        /* \"#utility.yul\":2149:2269   */\n    tag_143:\n        /* \"#utility.yul\":2237:2238   */\n      0x05\n        /* \"#utility.yul\":2230:2235   */\n      dup2\n        /* \"#utility.yul\":2227:2239   */\n      lt\n        /* \"#utility.yul\":2217:2263   */\n      tag_196\n      jumpi\n        /* \"#utility.yul\":2243:2261   */\n      tag_197\n      tag_56\n      jump\t// in\n    tag_197:\n        /* \"#utility.yul\":2217:2263   */\n    tag_196:\n        /* \"#utility.yul\":2149:2269   */\n      pop\n      jump\t// out\n        /* \"#utility.yul\":2275:2416   */\n    tag_144:\n        /* \"#utility.yul\":2327:2334   */\n      0x00\n        /* \"#utility.yul\":2356:2361   */\n      dup2\n        /* \"#utility.yul\":2345:2361   */\n      swap1\n      pop\n        /* \"#utility.yul\":2362:2410   */\n      tag_199\n        /* \"#utility.yul\":2404:2409   */\n      dup3\n        /* \"#utility.yul\":2362:2410   */\n      tag_143\n      jump\t// in\n    tag_199:\n        /* \"#utility.yul\":2275:2416   */\n      swap2\n      swap1\n      pop\n      jump\t// out\n        /* \"#utility.yul\":2422:2563   */\n    tag_145:\n        /* \"#utility.yul\":2485:2494   */\n      0x00\n        /* \"#utility.yul\":2518:2557   */\n      tag_201\n        /* \"#utility.yul\":2551:2556   */\n      dup3\n        /* \"#utility.yul\":2518:2557   */\n      tag_144\n      jump\t// in\n    tag_201:\n        /* \"#utility.yul\":2505:2557   */\n      swap1\n      pop\n        /* \"#utility.yul\":2422:2563   */\n      swap2\n      swap1\n      pop\n      jump\t// out\n        /* \"#utility.yul\":2569:2726   */\n    tag_146:\n        /* \"#utility.yul\":2669:2719   */\n      tag_203\n        /* \"#utility.yul\":2713:2718   */\n      dup2\n        /* \"#utility.yul\":2669:2719   */\n      tag_145\n      jump\t// in\n    tag_203:\n        /* \"#utility.yul\":2664:2667   */\n      dup3\n        /* \"#utility.yul\":2657:2720   */\n      mstore\n        /* \"#utility.yul\":2569:2726   */\n      pop\n      pop\n      jump\t// out\n        /* \"#utility.yul\":2732:2980   */\n    tag_36:\n        /* \"#utility.yul\":2838:2842   */\n      0x00\n        /* \"#utility.yul\":2876:2878   */\n      0x20\n        /* \"#utility.yul\":2865:2874   */\n      dup3\n        /* \"#utility.yul\":2861:2879   */\n      add\n        /* \"#utility.yul\":2853:2879   */\n      swap1\n      pop\n        /* \"#utility.yul\":2889:2973   */\n      tag_205\n        /* \"#utility.yul\":2970:2971   */\n      0x00\n        /* \"#utility.yul\":2959:2968   */\n      dup4\n        /* \"#utility.yul\":2955:2972   */\n      add\n        /* \"#utility.yul\":2946:2952   */\n      dup5\n        /* \"#utility.yul\":2889:2973   */\n      tag_146\n      jump\t// in\n    tag_205:\n        /* \"#utility.yul\":2732:2980   */\n      swap3\n      swap2\n      pop\n      pop\n      jump\t// out\n        /* \"#utility.yul\":2986:3155   */\n    tag_147:\n        /* \"#utility.yul\":3070:3081   */\n      0x00\n        /* \"#utility.yul\":3104:3110   */\n      dup3\n        /* \"#utility.yul\":3099:3102   */\n      dup3\n        /* \"#utility.yul\":3092:3111   */\n      mstore\n        /* \"#utility.yul\":3144:3148   */\n      0x20\n        /* \"#utility.yul\":3139:3142   */\n      dup3\n        /* \"#utility.yul\":3135:3149   */\n      add\n        /* \"#utility.yul\":3120:3149   */\n      swap1\n      pop\n        /* \"#utility.yul\":2986:3155   */\n      swap3\n      swap2\n      pop\n      pop\n      jump\t// out\n        /* \"#utility.yul\":3161:3383   */\n    tag_148:\n        /* \"#utility.yul\":3301:3335   */\n      0x457363726f773a204e6f74206120706172747920746f2074686520636f6e7472\n        /* \"#utility.yul\":3297:3298   */\n      0x00\n        /* \"#utility.yul\":3289:3295   */\n      dup3\n        /* \"#utility.yul\":3285:3299   */\n      add\n        /* \"#utility.yul\":3278:3336   */\n      mstore\n        /* \"#utility.yul\":3370:3375   */\n      0x6163740000000000000000000000000000000000000000000000000000000000\n        /* \"#utility.yul\":3365:3367   */\n      0x20\n        /* \"#utility.yul\":3357:3363   */\n      dup3\n        /* \"#utility.yul\":3353:3368   */\n      add\n        /* \"#utility.yul\":3346:3376   */\n      mstore\n        /* \"#utility.yul\":3161:3383   */\n      pop\n      jump\t// out\n        /* \"#utility.yul\":3389:3755   */\n    tag_149:\n        /* \"#utility.yul\":3531:3534   */\n      0x00\n        /* \"#utility.yul\":3552:3619   */\n      tag_209\n        /* \"#utility.yul\":3616:3618   */\n      0x23\n        /* \"#utility.yul\":3611:3614   */\n      dup4\n        /* \"#utility.yul\":3552:3619   */\n      tag_147\n      jump\t// in\n    tag_209:\n        /* \"#utility.yul\":3545:3619   */\n      swap2\n      pop\n        /* \"#utility.yul\":3628:3721   */\n      tag_210\n        /* \"#utility.yul\":3717:3720   */\n      dup3\n        /* \"#utility.yul\":3628:3721   */\n      tag_148\n      jump\t// in\n    tag_210:\n        /* \"#utility.yul\":3746:3748   */\n      0x40\n        /* \"#utility.yul\":3741:3744   */\n      dup3\n        /* \"#utility.yul\":3737:3749   */\n      add\n        /* \"#utility.yul\":3730:3749   */\n      swap1\n      pop\n        /* \"#utility.yul\":3389:3755   */\n      swap2\n      swap1\n      pop\n      jump\t// out\n        /* \"#utility.yul\":3761:4180   */\n    tag_53:\n        /* \"#utility.yul\":3927:3931   */\n      0x00\n        /* \"#utility.yul\":3965:3967   */\n      0x20\n        /* \"#utility.yul\":3954:3963   */\n      dup3\n        /* \"#utility.yul\":3950:3968   */\n      add\n        /* \"#utility.yul\":3942:3968   */\n      swap1\n      pop\n        /* \"#utility.yul\":4014:4023   */\n      dup2\n        /* \"#utility.yul\":4008:4012   */\n      dup2\n        /* \"#utility.yul\":4004:4024   */\n      sub\n        /* \"#utility.yul\":4000:4001   */\n      0x00\n        /* \"#utility.yul\":3989:3998   */\n      dup4\n        /* \"#utility.yul\":3985:4002   */\n      add\n        /* \"#utility.yul\":3978:4025   */\n      mstore\n        /* \"#utility.yul\":4042:4173   */\n      tag_212\n        /* \"#utility.yul\":4168:4172   */\n      dup2\n        /* \"#utility.yul\":4042:4173   */\n      tag_149\n      jump\t// in\n    tag_212:\n        /* \"#utility.yul\":4034:4173   */\n      swap1\n      pop\n        /* \"#utility.yul\":3761:4180   */\n      swap2\n      swap1\n      pop\n      jump\t// out\n        /* \"#utility.yul\":4186:4408   */\n    tag_150:\n        /* \"#utility.yul\":4326:4360   */\n      0x457363726f773a2043616e206f6e6c79206c6f636b2066756e64656420657363\n        /* \"#utility.yul\":4322:4323   */\n      0x00\n        /* \"#utility.yul\":4314:4320   */\n      dup3\n        /* \"#utility.yul\":4310:4324   */\n      add\n        /* \"#utility.yul\":4303:4361   */\n      mstore\n        /* \"#utility.yul\":4395:4400   */\n      0x726f770000000000000000000000000000000000000000000000000000000000\n        /* \"#utility.yul\":4390:4392   */\n      0x20\n        /* \"#utility.yul\":4382:4388   */\n      dup3\n        /* \"#utility.yul\":4378:4393   */\n      add\n        /* \"#utility.yul\":4371:4401   */\n      mstore\n        /* \"#utility.yul\":4186:4408   */\n      pop\n      jump\t// out\n        /* \"#utility.yul\":4414:4780   */\n    tag_151:\n        /* \"#utility.yul\":4556:4559   */\n      0x00\n        /* \"#utility.yul\":4577:4644   */\n      tag_215\n        /* \"#utility.yul\":4641:4643   */\n      0x23\n        /* \"#utility.yul\":4636:4639   */\n      dup4\n        /* \"#utility.yul\":4577:4644   */\n      tag_147\n      jump\t// in\n    tag_215:\n        /* \"#utility.yul\":4570:4644   */\n      swap2\n      pop\n        /* \"#utility.yul\":4653:4746   */\n      tag_216\n        /* \"#utility.yul\":4742:4745   */\n      dup3\n        /* \"#utility.yul\":4653:4746   */\n      tag_150\n      jump\t// in\n    tag_216:\n        /* \"#utility.yul\":4771:4773   */\n      0x40\n        /* \"#utility.yul\":4766:4769   */\n      dup3\n        /* \"#utility.yul\":4762:4774   */\n      add\n        /* \"#utility.yul\":4755:4774   */\n      swap1\n      pop\n        /* \"#utility.yul\":4414:4780   */\n      swap2\n      swap1\n      pop\n      jump\t// out\n        /* \"#utility.yul\":4786:5205   */\n    tag_61:\n        /* \"#utility.yul\":4952:4956   */\n      0x00\n        /* \"#utility.yul\":4990:4992   */\n      0x20\n        /* \"#utility.yul\":4979:4988   */\n      dup3\n        /* \"#utility.yul\":4975:4993   */\n      add\n        /* \"#utility.yul\":4967:4993   */\n      swap1\n      pop\n        /* \"#utility.yul\":5039:5048   */\n      dup2\n        /* \"#utility.yul\":5033:5037   */\n      dup2\n        /* \"#utility.yul\":5029:5049   */\n      sub\n        /* \"#utility.yul\":5025:5026   */\n      0x00\n        /* \"#utility.yul\":5014:5023   */\n      dup4\n        /* \"#utility.yul\":5010:5027   */\n      add\n        /* \"#utility.yul\":5003:5050   */\n      mstore\n        /* \"#utility.yul\":5067:5198   */\n      tag_218\n        /* \"#utility.yul\":5193:5197   */\n      dup2\n        /* \"#utility.yul\":5067:5198   */\n      tag_151\n      jump\t// in\n    tag_218:\n        /* \"#utility.yul\":5059:5198   */\n      swap1\n      pop\n        /* \"#utility.yul\":4786:5205   */\n      swap2\n      swap1\n      pop\n      jump\t// out\n        /* \"#utility.yul\":5211:5433   */\n    tag_152:\n        /* \"#utility.yul\":5351:5385   */\n      0x457363726f773a2043616c6c6572206973206e6f7420746865206465706f7369\n        /* \"#utility.yul\":5347:5348   */\n      0x00\n        /* \"#utility.yul\":5339:5345   */\n      dup3\n        /* \"#utility.yul\":5335:5349   */\n      add\n        /* \"#utility.yul\":5328:5386   */\n      mstore\n        /* \"#utility.yul\":5420:5425   */\n      0x746f720000000000000000000000000000000000000000000000000000000000\n        /* \"#utility.yul\":5415:5417   */\n      0x20\n        /* \"#utility.yul\":5407:5413   */\n      dup3\n        /* \"#utility.yul\":5403:5418   */\n      add\n        /* \"#utility.yul\":5396:5426   */\n      mstore\n        /* \"#utility.yul\":5211:5433   */\n      pop\n      jump\t// out\n        /* \"#utility.yul\":5439:5805   */\n    tag_153:\n        /* \"#utility.yul\":5581:5584   */\n      0x00\n        /* \"#utility.yul\":5602:5669   */\n      tag_221\n        /* \"#utility.yul\":5666:5668   */\n      0x23\n        /* \"#utility.yul\":5661:5664   */\n      dup4\n        /* \"#utility.yul\":5602:5669   */\n      tag_147\n      jump\t// in\n    tag_221:\n        /* \"#utility.yul\":5595:5669   */\n      swap2\n      pop\n        /* \"#utility.yul\":5678:5771   */\n      tag_222\n        /* \"#utility.yul\":5767:5770   */\n      dup3\n        /* \"#utility.yul\":5678:5771   */\n      tag_152\n      jump\t// in\n    tag_222:\n        /* \"#utility.yul\":5796:5798   */\n      0x40\n        /* \"#utility.yul\":5791:5794   */\n      dup3\n        /* \"#utility.yul\":5787:5799   */\n      add\n        /* \"#utility.yul\":5780:5799   */\n      swap1\n      pop\n        /* \"#utility.yul\":5439:5805   */\n      swap2\n      swap1\n      pop\n      jump\t// out\n        /* \"#utility.yul\":5811:6230   */\n    tag_67:\n        /* \"#utility.yul\":5977:5981   */\n      0x00\n        /* \"#utility.yul\":6015:6017   */\n      0x20\n        /* \"#utility.yul\":6004:6013   */\n      dup3\n        /* \"#utility.yul\":6000:6018   */\n      add\n        /* \"#utility.yul\":5992:6018   */\n      swap1\n      pop\n        /* \"#utility.yul\":6064:6073   */\n      dup2\n        /* \"#utility.yul\":6058:6062   */\n      dup2\n        /* \"#utility.yul\":6054:6074   */\n      sub\n        /* \"#utility.yul\":6050:6051   */\n      0x00\n        /* \"#utility.yul\":6039:6048   */\n      dup4\n        /* \"#utility.yul\":6035:6052   */\n      add\n        /* \"#utility.yul\":6028:6075   */\n      mstore\n        /* \"#utility.yul\":6092:6223   */\n      tag_224\n        /* \"#utility.yul\":6218:6222   */\n      dup2\n        /* \"#utility.yul\":6092:6223   */\n      tag_153\n      jump\t// in\n    tag_224:\n        /* \"#utility.yul\":6084:6223   */\n      swap1\n      pop\n        /* \"#utility.yul\":5811:6230   */\n      swap2\n      swap1\n      pop\n      jump\t// out\n        /* \"#utility.yul\":6236:6456   */\n    tag_154:\n        /* \"#utility.yul\":6376:6410   */\n      0x457363726f773a204e6f7420696e20612072656c65617361626c652073746174\n        /* \"#utility.yul\":6372:6373   */\n      0x00\n        /* \"#utility.yul\":6364:6370   */\n      dup3\n        /* \"#utility.yul\":6360:6374   */\n      add\n        /* \"#utility.yul\":6353:6411   */\n      mstore\n        /* \"#utility.yul\":6445:6448   */\n      0x6500000000000000000000000000000000000000000000000000000000000000\n        /* \"#utility.yul\":6440:6442   */\n      0x20\n        /* \"#utility.yul\":6432:6438   */\n      dup3\n        /* \"#utility.yul\":6428:6443   */\n      add\n        /* \"#utility.yul\":6421:6449   */\n      mstore\n        /* \"#utility.yul\":6236:6456   */\n      pop\n      jump\t// out\n        /* \"#utility.yul\":6462:6828   */\n    tag_155:\n        /* \"#utility.yul\":6604:6607   */\n      0x00\n        /* \"#utility.yul\":6625:6692   */\n      tag_227\n        /* \"#utility.yul\":6689:6691   */\n      0x21\n        /* \"#utility.yul\":6684:6687   */\n      dup4\n        /* \"#utility.yul\":6625:6692   */\n      tag_147\n      jump\t// in\n    tag_227:\n        /* \"#utility.yul\":6618:6692   */\n      swap2\n      pop\n        /* \"#utility.yul\":6701:6794   */\n      tag_228\n        /* \"#utility.yul\":6790:6793   */\n      dup3\n        /* \"#utility.yul\":6701:6794   */\n      tag_154\n      jump\t// in\n    tag_228:\n        /* \"#utility.yul\":6819:6821   */\n      0x40\n        /* \"#utility.yul\":6814:6817   */\n      dup3\n        /* \"#utility.yul\":6810:6822   */\n      add\n        /* \"#utility.yul\":6803:6822   */\n      swap1\n      pop\n        /* \"#utility.yul\":6462:6828   */\n      swap2\n      swap1\n      pop\n      jump\t// out\n        /* \"#utility.yul\":6834:7253   */\n    tag_74:\n        /* \"#utility.yul\":7000:7004   */\n      0x00\n        /* \"#utility.yul\":7038:7040   */\n      0x20\n        /* \"#utility.yul\":7027:7036   */\n      dup3\n        /* \"#utility.yul\":7023:7041   */\n      add\n        /* \"#utility.yul\":7015:7041   */\n      swap1\n      pop\n        /* \"#utility.yul\":7087:7096   */\n      dup2\n        /* \"#utility.yul\":7081:7085   */\n      dup2\n        /* \"#utility.yul\":7077:7097   */\n      sub\n        /* \"#utility.yul\":7073:7074   */\n      0x00\n        /* \"#utility.yul\":7062:7071   */\n      dup4\n        /* \"#utility.yul\":7058:7075   */\n      add\n        /* \"#utility.yul\":7051:7098   */\n      mstore\n        /* \"#utility.yul\":7115:7246   */\n      tag_230\n        /* \"#utility.yul\":7241:7245   */\n      dup2\n        /* \"#utility.yul\":7115:7246   */\n      tag_155\n      jump\t// in\n    tag_230:\n        /* \"#utility.yul\":7107:7246   */\n      swap1\n      pop\n        /* \"#utility.yul\":6834:7253   */\n      swap2\n      swap1\n      pop\n      jump\t// out\n        /* \"#utility.yul\":7259:7591   */\n    tag_78:\n        /* \"#utility.yul\":7380:7384   */\n      0x00\n        /* \"#utility.yul\":7418:7420   */\n      0x40\n        /* \"#utility.yul\":7407:7416   */\n      dup3\n        /* \"#utility.yul\":7403:7421   */\n      add\n        /* \"#utility.yul\":7395:7421   */\n      swap1\n      pop\n        /* \"#utility.yul\":7431:7502   */\n      tag_232\n        /* \"#utility.yul\":7499:7500   */\n      0x00\n        /* \"#utility.yul\":7488:7497   */\n      dup4\n        /* \"#utility.yul\":7484:7501   */\n      add\n        /* \"#utility.yul\":7475:7481   */\n      dup6\n        /* \"#utility.yul\":7431:7502   */\n      tag_135\n      jump\t// in\n    tag_232:\n        /* \"#utility.yul\":7512:7584   */\n      tag_233\n        /* \"#utility.yul\":7580:7582   */\n      0x20\n        /* \"#utility.yul\":7569:7578   */\n      dup4\n        /* \"#utility.yul\":7565:7583   */\n      add\n        /* \"#utility.yul\":7556:7562   */\n      dup5\n        /* \"#utility.yul\":7512:7584   */\n      tag_142\n      jump\t// in\n    tag_233:\n        /* \"#utility.yul\":7259:7591   */\n      swap4\n      swap3\n      pop\n      pop\n      pop\n      jump\t// out\n        /* \"#utility.yul\":7597:7687   */\n    tag_156:\n        /* \"#utility.yul\":7631:7638   */\n      0x00\n        /* \"#utility.yul\":7674:7679   */\n      dup2\n        /* \"#utility.yul\":7667:7680   */\n      iszero\n        /* \"#utility.yul\":7660:7681   */\n      iszero\n        /* \"#utility.yul\":7649:7681   */\n      swap1\n      pop\n        /* \"#utility.yul\":7597:7687   */\n      swap2\n      swap1\n      pop\n      jump\t// out\n        /* \"#utility.yul\":7693:7809   */\n    tag_157:\n        /* \"#utility.yul\":7763:7784   */\n      tag_236\n        /* \"#utility.yul\":7778:7783   */\n      dup2\n        /* \"#utility.yul\":7763:7784   */\n      tag_156\n      jump\t// in\n    tag_236:\n        /* \"#utility.yul\":7756:7761   */\n      dup2\n        /* \"#utility.yul\":7753:7785   */\n      eq\n        /* \"#utility.yul\":7743:7803   */\n      tag_237\n      jumpi\n        /* \"#utility.yul\":7799:7800   */\n      0x00\n        /* \"#utility.yul\":7796:7797   */\n      0x00\n        /* \"#utility.yul\":7789:7801   */\n      revert\n        /* \"#utility.yul\":7743:7803   */\n    tag_237:\n        /* \"#utility.yul\":7693:7809   */\n      pop\n      jump\t// out\n        /* \"#utility.yul\":7815:7952   */\n    tag_158:\n        /* \"#utility.yul\":7869:7874   */\n      0x00\n        /* \"#utility.yul\":7900:7906   */\n      dup2\n        /* \"#utility.yul\":7894:7907   */\n      mload\n        /* \"#utility.yul\":7885:7907   */\n      swap1\n      pop\n        /* \"#utility.yul\":7916:7946   */\n      tag_239\n        /* \"#utility.yul\":7940:7945   */\n      dup2\n        /* \"#utility.yul\":7916:7946   */\n      tag_157\n      jump\t// in\n    tag_239:\n        /* \"#utility.yul\":7815:7952   */\n      swap3\n      swap2\n      pop\n      pop\n      jump\t// out\n        /* \"#utility.yul\":7958:8303   */\n    tag_82:\n        /* \"#utility.yul\":8025:8031   */\n      0x00\n        /* \"#utility.yul\":8074:8076   */\n      0x20\n        /* \"#utility.yul\":8062:8071   */\n      dup3\n        /* \"#utility.yul\":8053:8060   */\n      dup5\n        /* \"#utility.yul\":8049:8072   */\n      sub\n        /* \"#utility.yul\":8045:8077   */\n      slt\n        /* \"#utility.yul\":8042:8161   */\n      iszero\n      tag_241\n      jumpi\n        /* \"#utility.yul\":8080:8159   */\n      tag_242\n      tag_137\n      jump\t// in\n    tag_242:\n        /* \"#utility.yul\":8042:8161   */\n    tag_241:\n        /* \"#utility.yul\":8200:8201   */\n      0x00\n        /* \"#utility.yul\":8225:8286   */\n      tag_243\n        /* \"#utility.yul\":8278:8285   */\n      dup5\n        /* \"#utility.yul\":8269:8275   */\n      dup3\n        /* \"#utility.yul\":8258:8267   */\n      dup6\n        /* \"#utility.yul\":8254:8276   */\n      add\n        /* \"#utility.yul\":8225:8286   */\n      tag_158\n      jump\t// in\n    tag_243:\n        /* \"#utility.yul\":8215:8286   */\n      swap2\n      pop\n        /* \"#utility.yul\":8171:8296   */\n      pop\n        /* \"#utility.yul\":7958:8303   */\n      swap3\n      swap2\n      pop\n      pop\n      jump\t// out\n        /* \"#utility.yul\":8309:8480   */\n    tag_159:\n        /* \"#utility.yul\":8449:8472   */\n      0x457363726f773a204e6f74206465706f7369746f720000000000000000000000\n        /* \"#utility.yul\":8445:8446   */\n      0x00\n        /* \"#utility.yul\":8437:8443   */\n      dup3\n        /* \"#utility.yul\":8433:8447   */\n      add\n        /* \"#utility.yul\":8426:8473   */\n      mstore\n        /* \"#utility.yul\":8309:8480   */\n      pop\n      jump\t// out\n        /* \"#utility.yul\":8486:8852   */\n    tag_160:\n        /* \"#utility.yul\":8628:8631   */\n      0x00\n        /* \"#utility.yul\":8649:8716   */\n      tag_246\n        /* \"#utility.yul\":8713:8715   */\n      0x15\n        /* \"#utility.yul\":8708:8711   */\n      dup4\n        /* \"#utility.yul\":8649:8716   */\n      tag_147\n      jump\t// in\n    tag_246:\n        /* \"#utility.yul\":8642:8716   */\n      swap2\n      pop\n        /* \"#utility.yul\":8725:8818   */\n      tag_247\n        /* \"#utility.yul\":8814:8817   */\n      dup3\n        /* \"#utility.yul\":8725:8818   */\n      tag_159\n      jump\t// in\n    tag_247:\n        /* \"#utility.yul\":8843:8845   */\n      0x20\n        /* \"#utility.yul\":8838:8841   */\n      dup3\n        /* \"#utility.yul\":8834:8846   */\n      add\n        /* \"#utility.yul\":8827:8846   */\n      swap1\n      pop\n        /* \"#utility.yul\":8486:8852   */\n      swap2\n      swap1\n      pop\n      jump\t// out\n        /* \"#utility.yul\":8858:9277   */\n    tag_87:\n        /* \"#utility.yul\":9024:9028   */\n      0x00\n        /* \"#utility.yul\":9062:9064   */\n      0x20\n        /* \"#utility.yul\":9051:9060   */\n      dup3\n        /* \"#utility.yul\":9047:9065   */\n      add\n        /* \"#utility.yul\":9039:9065   */\n      swap1\n      pop\n        /* \"#utility.yul\":9111:9120   */\n      dup2\n        /* \"#utility.yul\":9105:9109   */\n      dup2\n        /* \"#utility.yul\":9101:9121   */\n      sub\n        /* \"#utility.yul\":9097:9098   */\n      0x00\n        /* \"#utility.yul\":9086:9095   */\n      dup4\n        /* \"#utility.yul\":9082:9099   */\n      add\n        /* \"#utility.yul\":9075:9122   */\n      mstore\n        /* \"#utility.yul\":9139:9270   */\n      tag_249\n        /* \"#utility.yul\":9265:9269   */\n      dup2\n        /* \"#utility.yul\":9139:9270   */\n      tag_160\n      jump\t// in\n    tag_249:\n        /* \"#utility.yul\":9131:9270   */\n      swap1\n      pop\n        /* \"#utility.yul\":8858:9277   */\n      swap2\n      swap1\n      pop\n      jump\t// out\n        /* \"#utility.yul\":9283:9461   */\n    tag_161:\n        /* \"#utility.yul\":9423:9453   */\n      0x457363726f773a205265736f6c76657220616c72656164792073657400000000\n        /* \"#utility.yul\":9419:9420   */\n      0x00\n        /* \"#utility.yul\":9411:9417   */\n      dup3\n        /* \"#utility.yul\":9407:9421   */\n      add\n        /* \"#utility.yul\":9400:9454   */\n      mstore\n        /* \"#utility.yul\":9283:9461   */\n      pop\n      jump\t// out\n        /* \"#utility.yul\":9467:9833   */\n    tag_162:\n        /* \"#utility.yul\":9609:9612   */\n      0x00\n        /* \"#utility.yul\":9630:9697   */\n      tag_252\n        /* \"#utility.yul\":9694:9696   */\n      0x1c\n        /* \"#utility.yul\":9689:9692   */\n      dup4\n        /* \"#utility.yul\":9630:9697   */\n      tag_147\n      jump\t// in\n    tag_252:\n        /* \"#utility.yul\":9623:9697   */\n      swap2\n      pop\n        /* \"#utility.yul\":9706:9799   */\n      tag_253\n        /* \"#utility.yul\":9795:9798   */\n      dup3\n        /* \"#utility.yul\":9706:9799   */\n      tag_161\n      jump\t// in\n    tag_253:\n        /* \"#utility.yul\":9824:9826   */\n      0x20\n        /* \"#utility.yul\":9819:9822   */\n      dup3\n        /* \"#utility.yul\":9815:9827   */\n      add\n        /* \"#utility.yul\":9808:9827   */\n      swap1\n      pop\n        /* \"#utility.yul\":9467:9833   */\n      swap2\n      swap1\n      pop\n      jump\t// out\n        /* \"#utility.yul\":9839:10258   */\n    tag_90:\n        /* \"#utility.yul\":10005:10009   */\n      0x00\n        /* \"#utility.yul\":10043:10045   */\n      0x20\n        /* \"#utility.yul\":10032:10041   */\n      dup3\n        /* \"#utility.yul\":10028:10046   */\n      add\n        /* \"#utility.yul\":10020:10046   */\n      swap1\n      pop\n        /* \"#utility.yul\":10092:10101   */\n      dup2\n        /* \"#utility.yul\":10086:10090   */\n      dup2\n        /* \"#utility.yul\":10082:10102   */\n      sub\n        /* \"#utility.yul\":10078:10079   */\n      0x00\n        /* \"#utility.yul\":10067:10076   */\n      dup4\n        /* \"#utility.yul\":10063:10080   */\n      add\n        /* \"#utility.yul\":10056:10103   */\n      mstore\n        /* \"#utility.yul\":10120:10251   */\n      tag_255\n        /* \"#utility.yul\":10246:10250   */\n      dup2\n        /* \"#utility.yul\":10120:10251   */\n      tag_162\n      jump\t// in\n    tag_255:\n        /* \"#utility.yul\":10112:10251   */\n      swap1\n      pop\n        /* \"#utility.yul\":9839:10258   */\n      swap2\n      swap1\n      pop\n      jump\t// out\n        /* \"#utility.yul\":10264:10440   */\n    tag_163:\n        /* \"#utility.yul\":10404:10432   */\n      0x457363726f773a204e6f74206177616974696e672066756e6473000000000000\n        /* \"#utility.yul\":10400:10401   */\n      0x00\n        /* \"#utility.yul\":10392:10398   */\n      dup3\n        /* \"#utility.yul\":10388:10402   */\n      add\n        /* \"#utility.yul\":10381:10433   */\n      mstore\n        /* \"#utility.yul\":10264:10440   */\n      pop\n      jump\t// out\n        /* \"#utility.yul\":10446:10812   */\n    tag_164:\n        /* \"#utility.yul\":10588:10591   */\n      0x00\n        /* \"#utility.yul\":10609:10676   */\n      tag_258\n        /* \"#utility.yul\":10673:10675   */\n      0x1a\n        /* \"#utility.yul\":10668:10671   */\n      dup4\n        /* \"#utility.yul\":10609:10676   */\n      tag_147\n      jump\t// in\n    tag_258:\n        /* \"#utility.yul\":10602:10676   */\n      swap2\n      pop\n        /* \"#utility.yul\":10685:10778   */\n      tag_259\n        /* \"#utility.yul\":10774:10777   */\n      dup3\n        /* \"#utility.yul\":10685:10778   */\n      tag_163\n      jump\t// in\n    tag_259:\n        /* \"#utility.yul\":10803:10805   */\n      0x20\n        /* \"#utility.yul\":10798:10801   */\n      dup3\n        /* \"#utility.yul\":10794:10806   */\n      add\n        /* \"#utility.yul\":10787:10806   */\n      swap1\n      pop\n        /* \"#utility.yul\":10446:10812   */\n      swap2\n      swap1\n      pop\n      jump\t// out\n        /* \"#utility.yul\":10818:11237   */\n    tag_98:\n        /* \"#utility.yul\":10984:10988   */\n      0x00\n        /* \"#utility.yul\":11022:11024   */\n      0x20\n        /* \"#utility.yul\":11011:11020   */\n      dup3\n        /* \"#utility.yul\":11007:11025   */\n      add\n        /* \"#utility.yul\":10999:11025   */\n      swap1\n      pop\n        /* \"#utility.yul\":11071:11080   */\n      dup2\n        /* \"#utility.yul\":11065:11069   */\n      dup2\n        /* \"#utility.yul\":11061:11081   */\n      sub\n        /* \"#utility.yul\":11057:11058   */\n      0x00\n        /* \"#utility.yul\":11046:11055   */\n      dup4\n        /* \"#utility.yul\":11042:11059   */\n      add\n        /* \"#utility.yul\":11035:11082   */\n      mstore\n        /* \"#utility.yul\":11099:11230   */\n      tag_261\n        /* \"#utility.yul\":11225:11229   */\n      dup2\n        /* \"#utility.yul\":11099:11230   */\n      tag_164\n      jump\t// in\n    tag_261:\n        /* \"#utility.yul\":11091:11230   */\n      swap1\n      pop\n        /* \"#utility.yul\":10818:11237   */\n      swap2\n      swap1\n      pop\n      jump\t// out\n        /* \"#utility.yul\":11243:11685   */\n    tag_100:\n        /* \"#utility.yul\":11392:11396   */\n      0x00\n        /* \"#utility.yul\":11430:11432   */\n      0x60\n        /* \"#utility.yul\":11419:11428   */\n      dup3\n        /* \"#utility.yul\":11415:11433   */\n      add\n        /* \"#utility.yul\":11407:11433   */\n      swap1\n      pop\n        /* \"#utility.yul\":11443:11514   */\n      tag_263\n        /* \"#utility.yul\":11511:11512   */\n      0x00\n        /* \"#utility.yul\":11500:11509   */\n      dup4\n        /* \"#utility.yul\":11496:11513   */\n      add\n        /* \"#utility.yul\":11487:11493   */\n      dup7\n        /* \"#utility.yul\":11443:11514   */\n      tag_135\n      jump\t// in\n    tag_263:\n        /* \"#utility.yul\":11524:11596   */\n      tag_264\n        /* \"#utility.yul\":11592:11594   */\n      0x20\n        /* \"#utility.yul\":11581:11590   */\n      dup4\n        /* \"#utility.yul\":11577:11595   */\n      add\n        /* \"#utility.yul\":11568:11574   */\n      dup6\n        /* \"#utility.yul\":11524:11596   */\n      tag_135\n      jump\t// in\n    tag_264:\n        /* \"#utility.yul\":11606:11678   */\n      tag_265\n        /* \"#utility.yul\":11674:11676   */\n      0x40\n        /* \"#utility.yul\":11663:11672   */\n      dup4\n        /* \"#utility.yul\":11659:11677   */\n      add\n        /* \"#utility.yul\":11650:11656   */\n      dup5\n        /* \"#utility.yul\":11606:11678   */\n      tag_142\n      jump\t// in\n    tag_265:\n        /* \"#utility.yul\":11243:11685   */\n      swap5\n      swap4\n      pop\n      pop\n      pop\n      pop\n      jump\t// out\n        /* \"#utility.yul\":11691:11920   */\n    tag_165:\n        /* \"#utility.yul\":11831:11865   */\n      0x457363726f773a2043616c6c6572206973206e6f742074686520646973707574\n        /* \"#utility.yul\":11827:11828   */\n      0x00\n        /* \"#utility.yul\":11819:11825   */\n      dup3\n        /* \"#utility.yul\":11815:11829   */\n      add\n        /* \"#utility.yul\":11808:11866   */\n      mstore\n        /* \"#utility.yul\":11900:11912   */\n      0x65207265736f6c76657200000000000000000000000000000000000000000000\n        /* \"#utility.yul\":11895:11897   */\n      0x20\n        /* \"#utility.yul\":11887:11893   */\n      dup3\n        /* \"#utility.yul\":11883:11898   */\n      add\n        /* \"#utility.yul\":11876:11913   */\n      mstore\n        /* \"#utility.yul\":11691:11920   */\n      pop\n      jump\t// out\n        /* \"#utility.yul\":11926:12292   */\n    tag_166:\n        /* \"#utility.yul\":12068:12071   */\n      0x00\n        /* \"#utility.yul\":12089:12156   */\n      tag_268\n        /* \"#utility.yul\":12153:12155   */\n      0x2a\n        /* \"#utility.yul\":12148:12151   */\n      dup4\n        /* \"#utility.yul\":12089:12156   */\n      tag_147\n      jump\t// in\n    tag_268:\n        /* \"#utility.yul\":12082:12156   */\n      swap2\n      pop\n        /* \"#utility.yul\":12165:12258   */\n      tag_269\n        /* \"#utility.yul\":12254:12257   */\n      dup3\n        /* \"#utility.yul\":12165:12258   */\n      tag_165\n      jump\t// in\n    tag_269:\n        /* \"#utility.yul\":12283:12285   */\n      0x40\n        /* \"#utility.yul\":12278:12281   */\n      dup3\n        /* \"#utility.yul\":12274:12286   */\n      add\n        /* \"#utility.yul\":12267:12286   */\n      swap1\n      pop\n        /* \"#utility.yul\":11926:12292   */\n      swap2\n      swap1\n      pop\n      jump\t// out\n        /* \"#utility.yul\":12298:12717   */\n    tag_110:\n        /* \"#utility.yul\":12464:12468   */\n      0x00\n        /* \"#utility.yul\":12502:12504   */\n      0x20\n        /* \"#utility.yul\":12491:12500   */\n      dup3\n        /* \"#utility.yul\":12487:12505   */\n      add\n        /* \"#utility.yul\":12479:12505   */\n      swap1\n      pop\n        /* \"#utility.yul\":12551:12560   */\n      dup2\n        /* \"#utility.yul\":12545:12549   */\n      dup2\n        /* \"#utility.yul\":12541:12561   */\n      sub\n        /* \"#utility.yul\":12537:12538   */\n      0x00\n        /* \"#utility.yul\":12526:12535   */\n      dup4\n        /* \"#utility.yul\":12522:12539   */\n      add\n        /* \"#utility.yul\":12515:12562   */\n      mstore\n        /* \"#utility.yul\":12579:12710   */\n      tag_271\n        /* \"#utility.yul\":12705:12709   */\n      dup2\n        /* \"#utility.yul\":12579:12710   */\n      tag_166\n      jump\t// in\n    tag_271:\n        /* \"#utility.yul\":12571:12710   */\n      swap1\n      pop\n        /* \"#utility.yul\":12298:12717   */\n      swap2\n      swap1\n      pop\n      jump\t// out\n        /* \"#utility.yul\":12723:12903   */\n    tag_167:\n        /* \"#utility.yul\":12863:12895   */\n      0x457363726f773a204e6f74206c6f636b656420666f7220646973707574650000\n        /* \"#utility.yul\":12859:12860   */\n      0x00\n        /* \"#utility.yul\":12851:12857   */\n      dup3\n        /* \"#utility.yul\":12847:12861   */\n      add\n        /* \"#utility.yul\":12840:12896   */\n      mstore\n        /* \"#utility.yul\":12723:12903   */\n      pop\n      jump\t// out\n        /* \"#utility.yul\":12909:13275   */\n    tag_168:\n        /* \"#utility.yul\":13051:13054   */\n      0x00\n        /* \"#utility.yul\":13072:13139   */\n      tag_274\n        /* \"#utility.yul\":13136:13138   */\n      0x1e\n        /* \"#utility.yul\":13131:13134   */\n      dup4\n        /* \"#utility.yul\":13072:13139   */\n      tag_147\n      jump\t// in\n    tag_274:\n        /* \"#utility.yul\":13065:13139   */\n      swap2\n      pop\n        /* \"#utility.yul\":13148:13241   */\n      tag_275\n        /* \"#utility.yul\":13237:13240   */\n      dup3\n        /* \"#utility.yul\":13148:13241   */\n      tag_167\n      jump\t// in\n    tag_275:\n        /* \"#utility.yul\":13266:13268   */\n      0x20\n        /* \"#utility.yul\":13261:13264   */\n      dup3\n        /* \"#utility.yul\":13257:13269   */\n      add\n        /* \"#utility.yul\":13250:13269   */\n      swap1\n      pop\n        /* \"#utility.yul\":12909:13275   */\n      swap2\n      swap1\n      pop\n      jump\t// out\n        /* \"#utility.yul\":13281:13700   */\n    tag_117:\n        /* \"#utility.yul\":13447:13451   */\n      0x00\n        /* \"#utility.yul\":13485:13487   */\n      0x20\n        /* \"#utility.yul\":13474:13483   */\n      dup3\n        /* \"#utility.yul\":13470:13488   */\n      add\n        /* \"#utility.yul\":13462:13488   */\n      swap1\n      pop\n        /* \"#utility.yul\":13534:13543   */\n      dup2\n        /* \"#utility.yul\":13528:13532   */\n      dup2\n        /* \"#utility.yul\":13524:13544   */\n      sub\n        /* \"#utility.yul\":13520:13521   */\n      0x00\n        /* \"#utility.yul\":13509:13518   */\n      dup4\n        /* \"#utility.yul\":13505:13522   */\n      add\n        /* \"#utility.yul\":13498:13545   */\n      mstore\n        /* \"#utility.yul\":13562:13693   */\n      tag_277\n        /* \"#utility.yul\":13688:13692   */\n      dup2\n        /* \"#utility.yul\":13562:13693   */\n      tag_168\n      jump\t// in\n    tag_277:\n        /* \"#utility.yul\":13554:13693   */\n      swap1\n      pop\n        /* \"#utility.yul\":13281:13700   */\n      swap2\n      swap1\n      pop\n      jump\t// out\n\n    auxdata: 0xa2646970667358221220fc442917c88bd1654b1b0c98fcc2d9ee672d6f5e60ff485d08a5748881ca8e7e64736f6c634300081e0033\n}\n",
				"bytecode": {
					"linkReferences": {},
					"object": "610100604052348015610010575f5ffd5b5060405161175138038061175183398181016040528101906100329190610198565b8373ffffffffffffffffffffffffffffffffffffffff1660c08173ffffffffffffffffffffffffffffffffffffffff16815250508273ffffffffffffffffffffffffffffffffffffffff1660808173ffffffffffffffffffffffffffffffffffffffff16815250508173ffffffffffffffffffffffffffffffffffffffff1660a08173ffffffffffffffffffffffffffffffffffffffff16815250508060e081815250505f5f5f6101000a81548160ff021916908360048111156100f9576100f86101fc565b5b021790555050505050610229565b5f5ffd5b5f73ffffffffffffffffffffffffffffffffffffffff82169050919050565b5f6101348261010b565b9050919050565b6101448161012a565b811461014e575f5ffd5b50565b5f8151905061015f8161013b565b92915050565b5f819050919050565b61017781610165565b8114610181575f5ffd5b50565b5f815190506101928161016e565b92915050565b5f5f5f5f608085870312156101b0576101af610107565b5b5f6101bd87828801610151565b94505060206101ce87828801610151565b93505060406101df87828801610151565b92505060606101f087828801610184565b91505092959194509250565b7f4e487b71000000000000000000000000000000000000000000000000000000005f52602160045260245ffd5b60805160a05160c05160e0516114696102e85f395f8181610512015281816105e901528181610781015281816108760152818161094001528181610b880152610c9201525f81816104b50152818161081801528181610b2b01528181610c350152610d7101525f818161020c01528181610366015281816104f10152818161059101528181610aaf0152610b6701525f81816101b70152818161038a0152818161062101528181610854015281816109890152610c7101526114695ff3fe608060405234801561000f575f5ffd5b50600436106100a7575f3560e01c8063b60d42881161006f578063b60d428814610117578063c19d93fb14610121578063c7c4ff461461013f578063d84611821461015d578063f5a3f4af14610179578063fc0c546a14610197576100a7565b80632b11cf20146100ab57806338af3eed146100b557806386d1a69f146100d3578063924e63f6146100dd578063aa8c217c146100f9575b5f5ffd5b6100b36101b5565b005b6100bd610364565b6040516100ca9190610dd2565b60405180910390f35b6100db610388565b005b6100f760048036038101906100f29190610e19565b61061f565b005b61010161077f565b60405161010e9190610e5c565b60405180910390f35b61011f6107a3565b005b610129610976565b6040516101369190610ee8565b60405180910390f35b610147610987565b6040516101549190610dd2565b60405180910390f35b61017760048036038101906101729190610e19565b6109ab565b005b610181610d4a565b60405161018e9190610dd2565b60405180910390f35b61019f610d6f565b6040516101ac9190610dd2565b60405180910390f35b7f000000000000000000000000000000000000000000000000000000000000000073ffffffffffffffffffffffffffffffffffffffff163373ffffffffffffffffffffffffffffffffffffffff16148061025a57507f000000000000000000000000000000000000000000000000000000000000000073ffffffffffffffffffffffffffffffffffffffff163373ffffffffffffffffffffffffffffffffffffffff16145b610299576040517f08c379a000000000000000000000000000000000000000000000000000000000815260040161029090610f81565b60405180910390fd5b600160048111156102ad576102ac610e75565b5b5f5f9054906101000a900460ff1660048111156102cd576102cc610e75565b5b1461030d576040517f08c379a00000000000000000000000000000000000000000000000000000000081526004016103049061100f565b60405180910390fd5b60045f5f6101000a81548160ff0219169083600481111561033157610330610e75565b5b02179055507fd83f22a069e41ae320261253bdc2be5ecace05aa326339d7674afa8a549d0b7860405160405180910390a1565b7f000000000000000000000000000000000000000000000000000000000000000081565b7f000000000000000000000000000000000000000000000000000000000000000073ffffffffffffffffffffffffffffffffffffffff163373ffffffffffffffffffffffffffffffffffffffff1614610416576040517f08c379a000000000000000000000000000000000000000000000000000000000815260040161040d9061109d565b60405180910390fd5b6001600481111561042a57610429610e75565b5b5f5f9054906101000a900460ff16600481111561044a57610449610e75565b5b1461048a576040517f08c379a00000000000000000000000000000000000000000000000000000000081526004016104819061112b565b60405180910390fd5b60025f5f6101000a81548160ff021916908360048111156104ae576104ad610e75565b5b02179055507f000000000000000000000000000000000000000000000000000000000000000073ffffffffffffffffffffffffffffffffffffffff1663a9059cbb7f00000000000000000000000000000000000000000000000000000000000000007f00000000000000000000000000000000000000000000000000000000000000006040518363ffffffff1660e01b815260040161054e929190611149565b6020604051808303815f875af115801561056a573d5f5f3e3d5ffd5b505050506040513d601f19601f8201168201806040525081019061058e91906111a5565b507f000000000000000000000000000000000000000000000000000000000000000073ffffffffffffffffffffffffffffffffffffffff167fb21fb52d5749b80f3182f8c6992236b5e5576681880914484d7f4c9b062e619e7f00000000000000000000000000000000000000000000000000000000000000006040516106159190610e5c565b60405180910390a2565b7f000000000000000000000000000000000000000000000000000000000000000073ffffffffffffffffffffffffffffffffffffffff163373ffffffffffffffffffffffffffffffffffffffff16146106ad576040517f08c379a00000000000000000000000000000000000000000000000000000000081526004016106a49061121a565b60405180910390fd5b5f73ffffffffffffffffffffffffffffffffffffffff165f60019054906101000a900473ffffffffffffffffffffffffffffffffffffffff1673ffffffffffffffffffffffffffffffffffffffff161461073c576040517f08c379a000000000000000000000000000000000000000000000000000000000815260040161073390611282565b60405180910390fd5b805f60016101000a81548173ffffffffffffffffffffffffffffffffffffffff021916908373ffffffffffffffffffffffffffffffffffffffff16021790555050565b7f000000000000000000000000000000000000000000000000000000000000000081565b5f60048111156107b6576107b5610e75565b5b5f5f9054906101000a900460ff1660048111156107d6576107d5610e75565b5b14610816576040517f08c379a000000000000000000000000000000000000000000000000000000000815260040161080d906112ea565b60405180910390fd5b7f000000000000000000000000000000000000000000000000000000000000000073ffffffffffffffffffffffffffffffffffffffff166323b872dd7f0000000000000000000000000000000000000000000000000000000000000000307f00000000000000000000000000000000000000000000000000000000000000006040518463ffffffff1660e01b81526004016108b393929190611308565b6020604051808303815f875af11580156108cf573d5f5f3e3d5ffd5b505050506040513d601f19601f820116820180604052508101906108f391906111a5565b5060015f5f6101000a81548160ff0219169083600481111561091857610917610e75565b5b02179055507fc4c14883ae9fd8e26d5d59e3485ed29fd126d781d7e498a4ca5c54c8268e49367f000000000000000000000000000000000000000000000000000000000000000060405161096c9190610e5c565b60405180910390a1565b5f5f9054906101000a900460ff1681565b7f000000000000000000000000000000000000000000000000000000000000000081565b5f60019054906101000a900473ffffffffffffffffffffffffffffffffffffffff1673ffffffffffffffffffffffffffffffffffffffff163373ffffffffffffffffffffffffffffffffffffffff1614610a3a576040517f08c379a0000000000000000000000000000000000000000000000000000000008152600401610a31906113ad565b60405180910390fd5b600480811115610a4d57610a4c610e75565b5b5f5f9054906101000a900460ff166004811115610a6d57610a6c610e75565b5b14610aad576040517f08c379a0000000000000000000000000000000000000000000000000000000008152600401610aa490611415565b60405180910390fd5b7f000000000000000000000000000000000000000000000000000000000000000073ffffffffffffffffffffffffffffffffffffffff168173ffffffffffffffffffffffffffffffffffffffff1603610c0a5760025f5f6101000a81548160ff02191690836004811115610b2457610b23610e75565b5b02179055507f000000000000000000000000000000000000000000000000000000000000000073ffffffffffffffffffffffffffffffffffffffff1663a9059cbb7f00000000000000000000000000000000000000000000000000000000000000007f00000000000000000000000000000000000000000000000000000000000000006040518363ffffffff1660e01b8152600401610bc4929190611149565b6020604051808303815f875af1158015610be0573d5f5f3e3d5ffd5b505050506040513d601f19601f82011682018060405250810190610c0491906111a5565b50610d10565b60035f5f6101000a81548160ff02191690836004811115610c2e57610c2d610e75565b5b02179055507f000000000000000000000000000000000000000000000000000000000000000073ffffffffffffffffffffffffffffffffffffffff1663a9059cbb7f00000000000000000000000000000000000000000000000000000000000000007f00000000000000000000000000000000000000000000000000000000000000006040518363ffffffff1660e01b8152600401610cce929190611149565b6020604051808303815f875af1158015610cea573d5f5f3e3d5ffd5b505050506040513d601f19601f82011682018060405250810190610d0e91906111a5565b505b7f8476b4c4cd5f496cfe2043ed12cd9e3e3540e97649536b9aa3fa67f06a7134db81604051610d3f9190610dd2565b60405180910390a150565b5f60019054906101000a900473ffffffffffffffffffffffffffffffffffffffff1681565b7f000000000000000000000000000000000000000000000000000000000000000081565b5f73ffffffffffffffffffffffffffffffffffffffff82169050919050565b5f610dbc82610d93565b9050919050565b610dcc81610db2565b82525050565b5f602082019050610de55f830184610dc3565b92915050565b5f5ffd5b610df881610db2565b8114610e02575f5ffd5b50565b5f81359050610e1381610def565b92915050565b5f60208284031215610e2e57610e2d610deb565b5b5f610e3b84828501610e05565b91505092915050565b5f819050919050565b610e5681610e44565b82525050565b5f602082019050610e6f5f830184610e4d565b92915050565b7f4e487b71000000000000000000000000000000000000000000000000000000005f52602160045260245ffd5b60058110610eb357610eb2610e75565b5b50565b5f819050610ec382610ea2565b919050565b5f610ed282610eb6565b9050919050565b610ee281610ec8565b82525050565b5f602082019050610efb5f830184610ed9565b92915050565b5f82825260208201905092915050565b7f457363726f773a204e6f74206120706172747920746f2074686520636f6e74725f8201527f6163740000000000000000000000000000000000000000000000000000000000602082015250565b5f610f6b602383610f01565b9150610f7682610f11565b604082019050919050565b5f6020820190508181035f830152610f9881610f5f565b9050919050565b7f457363726f773a2043616e206f6e6c79206c6f636b2066756e646564206573635f8201527f726f770000000000000000000000000000000000000000000000000000000000602082015250565b5f610ff9602383610f01565b915061100482610f9f565b604082019050919050565b5f6020820190508181035f83015261102681610fed565b9050919050565b7f457363726f773a2043616c6c6572206973206e6f7420746865206465706f73695f8201527f746f720000000000000000000000000000000000000000000000000000000000602082015250565b5f611087602383610f01565b91506110928261102d565b604082019050919050565b5f6020820190508181035f8301526110b48161107b565b9050919050565b7f457363726f773a204e6f7420696e20612072656c65617361626c6520737461745f8201527f6500000000000000000000000000000000000000000000000000000000000000602082015250565b5f611115602183610f01565b9150611120826110bb565b604082019050919050565b5f6020820190508181035f83015261114281611109565b9050919050565b5f60408201905061115c5f830185610dc3565b6111696020830184610e4d565b9392505050565b5f8115159050919050565b61118481611170565b811461118e575f5ffd5b50565b5f8151905061119f8161117b565b92915050565b5f602082840312156111ba576111b9610deb565b5b5f6111c784828501611191565b91505092915050565b7f457363726f773a204e6f74206465706f7369746f7200000000000000000000005f82015250565b5f611204601583610f01565b915061120f826111d0565b602082019050919050565b5f6020820190508181035f830152611231816111f8565b9050919050565b7f457363726f773a205265736f6c76657220616c726561647920736574000000005f82015250565b5f61126c601c83610f01565b915061127782611238565b602082019050919050565b5f6020820190508181035f83015261129981611260565b9050919050565b7f457363726f773a204e6f74206177616974696e672066756e64730000000000005f82015250565b5f6112d4601a83610f01565b91506112df826112a0565b602082019050919050565b5f6020820190508181035f830152611301816112c8565b9050919050565b5f60608201905061131b5f830186610dc3565b6113286020830185610dc3565b6113356040830184610e4d565b949350505050565b7f457363726f773a2043616c6c6572206973206e6f7420746865206469737075745f8201527f65207265736f6c76657200000000000000000000000000000000000000000000602082015250565b5f611397602a83610f01565b91506113a28261133d565b604082019050919050565b5f6020820190508181035f8301526113c48161138b565b9050919050565b7f457363726f773a204e6f74206c6f636b656420666f72206469737075746500005f82015250565b5f6113ff601e83610f01565b915061140a826113cb565b602082019050919050565b5f6020820190508181035f83015261142c816113f3565b905091905056fea2646970667358221220fc442917c88bd1654b1b0c98fcc2d9ee672d6f5e60ff485d08a5748881ca8e7e64736f6c634300081e0033",
					"opcodes": "PUSH2 0x100 PUSH1 0x40 MSTORE CALLVALUE DUP1 ISZERO PUSH2 0x10 JUMPI PUSH0 PUSH0 REVERT JUMPDEST POP PUSH1 0x40 MLOAD PUSH2 0x1751 CODESIZE SUB DUP1 PUSH2 0x1751 DUP4 CODECOPY DUP2 DUP2 ADD PUSH1 0x40 MSTORE DUP2 ADD SWAP1 PUSH2 0x32 SWAP2 SWAP1 PUSH2 0x198 JUMP JUMPDEST DUP4 PUSH20 0xFFFFFFFFFFFFFFFFFFFFFFFFFFFFFFFFFFFFFFFF AND PUSH1 0xC0 DUP2 PUSH20 0xFFFFFFFFFFFFFFFFFFFFFFFFFFFFFFFFFFFFFFFF AND DUP2 MSTORE POP POP DUP3 PUSH20 0xFFFFFFFFFFFFFFFFFFFFFFFFFFFFFFFFFFFFFFFF AND PUSH1 0x80 DUP2 PUSH20 0xFFFFFFFFFFFFFFFFFFFFFFFFFFFFFFFFFFFFFFFF AND DUP2 MSTORE POP POP DUP2 PUSH20 0xFFFFFFFFFFFFFFFFFFFFFFFFFFFFFFFFFFFFFFFF AND PUSH1 0xA0 DUP2 PUSH20 0xFFFFFFFFFFFFFFFFFFFFFFFFFFFFFFFFFFFFFFFF AND DUP2 MSTORE POP POP DUP1 PUSH1 0xE0 DUP2 DUP2 MSTORE POP POP PUSH0 PUSH0 PUSH0 PUSH2 0x100 EXP DUP2 SLOAD DUP2 PUSH1 0xFF MUL NOT AND SWAP1 DUP4 PUSH1 0x4 DUP2 GT ISZERO PUSH2 0xF9 JUMPI PUSH2 0xF8 PUSH2 0x1FC JUMP JUMPDEST JUMPDEST MUL OR SWAP1 SSTORE POP POP POP POP POP PUSH2 0x229 JUMP JUMPDEST PUSH0 PUSH0 REVERT JUMPDEST PUSH0 PUSH20 0xFFFFFFFFFFFFFFFFFFFFFFFFFFFFFFFFFFFFFFFF DUP3 AND SWAP1 POP SWAP2 SWAP1 POP JUMP JUMPDEST PUSH0 PUSH2 0x134 DUP3 PUSH2 0x10B JUMP JUMPDEST SWAP1 POP SWAP2 SWAP1 POP JUMP JUMPDEST PUSH2 0x144 DUP2 PUSH2 0x12A JUMP JUMPDEST DUP2 EQ PUSH2 0x14E JUMPI PUSH0 PUSH0 REVERT JUMPDEST POP JUMP JUMPDEST PUSH0 DUP2 MLOAD SWAP1 POP PUSH2 0x15F DUP2 PUSH2 0x13B JUMP JUMPDEST SWAP3 SWAP2 POP POP JUMP JUMPDEST PUSH0 DUP2 SWAP1 POP SWAP2 SWAP1 POP JUMP JUMPDEST PUSH2 0x177 DUP2 PUSH2 0x165 JUMP JUMPDEST DUP2 EQ PUSH2 0x181 JUMPI PUSH0 PUSH0 REVERT JUMPDEST POP JUMP JUMPDEST PUSH0 DUP2 MLOAD SWAP1 POP PUSH2 0x192 DUP2 PUSH2 0x16E JUMP JUMPDEST SWAP3 SWAP2 POP POP JUMP JUMPDEST PUSH0 PUSH0 PUSH0 PUSH0 PUSH1 0x80 DUP6 DUP8 SUB SLT ISZERO PUSH2 0x1B0 JUMPI PUSH2 0x1AF PUSH2 0x107 JUMP JUMPDEST JUMPDEST PUSH0 PUSH2 0x1BD DUP8 DUP3 DUP9 ADD PUSH2 0x151 JUMP JUMPDEST SWAP5 POP POP PUSH1 0x20 PUSH2 0x1CE DUP8 DUP3 DUP9 ADD PUSH2 0x151 JUMP JUMPDEST SWAP4 POP POP PUSH1 0x40 PUSH2 0x1DF DUP8 DUP3 DUP9 ADD PUSH2 0x151 JUMP JUMPDEST SWAP3 POP POP PUSH1 0x60 PUSH2 0x1F0 DUP8 DUP3 DUP9 ADD PUSH2 0x184 JUMP JUMPDEST SWAP2 POP POP SWAP3 SWAP6 SWAP2 SWAP5 POP SWAP3 POP JUMP JUMPDEST PUSH32 0x4E487B7100000000000000000000000000000000000000000000000000000000 PUSH0 MSTORE PUSH1 0x21 PUSH1 0x4 MSTORE PUSH1 0x24 PUSH0 REVERT JUMPDEST PUSH1 0x80 MLOAD PUSH1 0xA0 MLOAD PUSH1 0xC0 MLOAD PUSH1 0xE0 MLOAD PUSH2 0x1469 PUSH2 0x2E8 PUSH0 CODECOPY PUSH0 DUP2 DUP2 PUSH2 0x512 ADD MSTORE DUP2 DUP2 PUSH2 0x5E9 ADD MSTORE DUP2 DUP2 PUSH2 0x781 ADD MSTORE DUP2 DUP2 PUSH2 0x876 ADD MSTORE DUP2 DUP2 PUSH2 0x940 ADD MSTORE DUP2 DUP2 PUSH2 0xB88 ADD MSTORE PUSH2 0xC92 ADD MSTORE PUSH0 DUP2 DUP2 PUSH2 0x4B5 ADD MSTORE DUP2 DUP2 PUSH2 0x818 ADD MSTORE DUP2 DUP2 PUSH2 0xB2B ADD MSTORE DUP2 DUP2 PUSH2 0xC35 ADD MSTORE PUSH2 0xD71 ADD MSTORE PUSH0 DUP2 DUP2 PUSH2 0x20C ADD MSTORE DUP2 DUP2 PUSH2 0x366 ADD MSTORE DUP2 DUP2 PUSH2 0x4F1 ADD MSTORE DUP2 DUP2 PUSH2 0x591 ADD MSTORE DUP2 DUP2 PUSH2 0xAAF ADD MSTORE PUSH2 0xB67 ADD MSTORE PUSH0 DUP2 DUP2 PUSH2 0x1B7 ADD MSTORE DUP2 DUP2 PUSH2 0x38A ADD MSTORE DUP2 DUP2 PUSH2 0x621 ADD MSTORE DUP2 DUP2 PUSH2 0x854 ADD MSTORE DUP2 DUP2 PUSH2 0x989 ADD MSTORE PUSH2 0xC71 ADD MSTORE PUSH2 0x1469 PUSH0 RETURN INVALID PUSH1 0x80 PUSH1 0x40 MSTORE CALLVALUE DUP1 ISZERO PUSH2 0xF JUMPI PUSH0 PUSH0 REVERT JUMPDEST POP PUSH1 0x4 CALLDATASIZE LT PUSH2 0xA7 JUMPI PUSH0 CALLDATALOAD PUSH1 0xE0 SHR DUP1 PUSH4 0xB60D4288 GT PUSH2 0x6F JUMPI DUP1 PUSH4 0xB60D4288 EQ PUSH2 0x117 JUMPI DUP1 PUSH4 0xC19D93FB EQ PUSH2 0x121 JUMPI DUP1 PUSH4 0xC7C4FF46 EQ PUSH2 0x13F JUMPI DUP1 PUSH4 0xD8461182 EQ PUSH2 0x15D JUMPI DUP1 PUSH4 0xF5A3F4AF EQ PUSH2 0x179 JUMPI DUP1 PUSH4 0xFC0C546A EQ PUSH2 0x197 JUMPI PUSH2 0xA7 JUMP JUMPDEST DUP1 PUSH4 0x2B11CF20 EQ PUSH2 0xAB JUMPI DUP1 PUSH4 0x38AF3EED EQ PUSH2 0xB5 JUMPI DUP1 PUSH4 0x86D1A69F EQ PUSH2 0xD3 JUMPI DUP1 PUSH4 0x924E63F6 EQ PUSH2 0xDD JUMPI DUP1 PUSH4 0xAA8C217C EQ PUSH2 0xF9 JUMPI JUMPDEST PUSH0 PUSH0 REVERT JUMPDEST PUSH2 0xB3 PUSH2 0x1B5 JUMP JUMPDEST STOP JUMPDEST PUSH2 0xBD PUSH2 0x364 JUMP JUMPDEST PUSH1 0x40 MLOAD PUSH2 0xCA SWAP2 SWAP1 PUSH2 0xDD2 JUMP JUMPDEST PUSH1 0x40 MLOAD DUP1 SWAP2 SUB SWAP1 RETURN JUMPDEST PUSH2 0xDB PUSH2 0x388 JUMP JUMPDEST STOP JUMPDEST PUSH2 0xF7 PUSH1 0x4 DUP1 CALLDATASIZE SUB DUP2 ADD SWAP1 PUSH2 0xF2 SWAP2 SWAP1 PUSH2 0xE19 JUMP JUMPDEST PUSH2 0x61F JUMP JUMPDEST STOP JUMPDEST PUSH2 0x101 PUSH2 0x77F JUMP JUMPDEST PUSH1 0x40 MLOAD PUSH2 0x10E SWAP2 SWAP1 PUSH2 0xE5C JUMP JUMPDEST PUSH1 0x40 MLOAD DUP1 SWAP2 SUB SWAP1 RETURN JUMPDEST PUSH2 0x11F PUSH2 0x7A3 JUMP JUMPDEST STOP JUMPDEST PUSH2 0x129 PUSH2 0x976 JUMP JUMPDEST PUSH1 0x40 MLOAD PUSH2 0x136 SWAP2 SWAP1 PUSH2 0xEE8 JUMP JUMPDEST PUSH1 0x40 MLOAD DUP1 SWAP2 SUB SWAP1 RETURN JUMPDEST PUSH2 0x147 PUSH2 0x987 JUMP JUMPDEST PUSH1 0x40 MLOAD PUSH2 0x154 SWAP2 SWAP1 PUSH2 0xDD2 JUMP JUMPDEST PUSH1 0x40 MLOAD DUP1 SWAP2 SUB SWAP1 RETURN JUMPDEST PUSH2 0x177 PUSH1 0x4 DUP1 CALLDATASIZE SUB DUP2 ADD SWAP1 PUSH2 0x172 SWAP2 SWAP1 PUSH2 0xE19 JUMP JUMPDEST PUSH2 0x9AB JUMP JUMPDEST STOP JUMPDEST PUSH2 0x181 PUSH2 0xD4A JUMP JUMPDEST PUSH1 0x40 MLOAD PUSH2 0x18E SWAP2 SWAP1 PUSH2 0xDD2 JUMP JUMPDEST PUSH1 0x40 MLOAD DUP1 SWAP2 SUB SWAP1 RETURN JUMPDEST PUSH2 0x19F PUSH2 0xD6F JUMP JUMPDEST PUSH1 0x40 MLOAD PUSH2 0x1AC SWAP2 SWAP1 PUSH2 0xDD2 JUMP JUMPDEST PUSH1 0x40 MLOAD DUP1 SWAP2 SUB SWAP1 RETURN JUMPDEST PUSH32 0x0 PUSH20 0xFFFFFFFFFFFFFFFFFFFFFFFFFFFFFFFFFFFFFFFF AND CALLER PUSH20 0xFFFFFFFFFFFFFFFFFFFFFFFFFFFFFFFFFFFFFFFF AND EQ DUP1 PUSH2 0x25A JUMPI POP PUSH32 0x0 PUSH20 0xFFFFFFFFFFFFFFFFFFFFFFFFFFFFFFFFFFFFFFFF AND CALLER PUSH20 0xFFFFFFFFFFFFFFFFFFFFFFFFFFFFFFFFFFFFFFFF AND EQ JUMPDEST PUSH2 0x299 JUMPI PUSH1 0x40 MLOAD PUSH32 0x8C379A000000000000000000000000000000000000000000000000000000000 DUP2 MSTORE PUSH1 0x4 ADD PUSH2 0x290 SWAP1 PUSH2 0xF81 JUMP JUMPDEST PUSH1 0x40 MLOAD DUP1 SWAP2 SUB SWAP1 REVERT JUMPDEST PUSH1 0x1 PUSH1 0x4 DUP2 GT ISZERO PUSH2 0x2AD JUMPI PUSH2 0x2AC PUSH2 0xE75 JUMP JUMPDEST JUMPDEST PUSH0 PUSH0 SWAP1 SLOAD SWAP1 PUSH2 0x100 EXP SWAP1 DIV PUSH1 0xFF AND PUSH1 0x4 DUP2 GT ISZERO PUSH2 0x2CD JUMPI PUSH2 0x2CC PUSH2 0xE75 JUMP JUMPDEST JUMPDEST EQ PUSH2 0x30D JUMPI PUSH1 0x40 MLOAD PUSH32 0x8C379A000000000000000000000000000000000000000000000000000000000 DUP2 MSTORE PUSH1 0x4 ADD PUSH2 0x304 SWAP1 PUSH2 0x100F JUMP JUMPDEST PUSH1 0x40 MLOAD DUP1 SWAP2 SUB SWAP1 REVERT JUMPDEST PUSH1 0x4 PUSH0 PUSH0 PUSH2 0x100 EXP DUP2 SLOAD DUP2 PUSH1 0xFF MUL NOT AND SWAP1 DUP4 PUSH1 0x4 DUP2 GT ISZERO PUSH2 0x331 JUMPI PUSH2 0x330 PUSH2 0xE75 JUMP JUMPDEST JUMPDEST MUL OR SWAP1 SSTORE POP PUSH32 0xD83F22A069E41AE320261253BDC2BE5ECACE05AA326339D7674AFA8A549D0B78 PUSH1 0x40 MLOAD PUSH1 0x40 MLOAD DUP1 SWAP2 SUB SWAP1 LOG1 JUMP JUMPDEST PUSH32 0x0 DUP2 JUMP JUMPDEST PUSH32 0x0 PUSH20 0xFFFFFFFFFFFFFFFFFFFFFFFFFFFFFFFFFFFFFFFF AND CALLER PUSH20 0xFFFFFFFFFFFFFFFFFFFFFFFFFFFFFFFFFFFFFFFF AND EQ PUSH2 0x416 JUMPI PUSH1 0x40 MLOAD PUSH32 0x8C379A000000000000000000000000000000000000000000000000000000000 DUP2 MSTORE PUSH1 0x4 ADD PUSH2 0x40D SWAP1 PUSH2 0x109D JUMP JUMPDEST PUSH1 0x40 MLOAD DUP1 SWAP2 SUB SWAP1 REVERT JUMPDEST PUSH1 0x1 PUSH1 0x4 DUP2 GT ISZERO PUSH2 0x42A JUMPI PUSH2 0x429 PUSH2 0xE75 JUMP JUMPDEST JUMPDEST PUSH0 PUSH0 SWAP1 SLOAD SWAP1 PUSH2 0x100 EXP SWAP1 DIV PUSH1 0xFF AND PUSH1 0x4 DUP2 GT ISZERO PUSH2 0x44A JUMPI PUSH2 0x449 PUSH2 0xE75 JUMP JUMPDEST JUMPDEST EQ PUSH2 0x48A JUMPI PUSH1 0x40 MLOAD PUSH32 0x8C379A000000000000000000000000000000000000000000000000000000000 DUP2 MSTORE PUSH1 0x4 ADD PUSH2 0x481 SWAP1 PUSH2 0x112B JUMP JUMPDEST PUSH1 0x40 MLOAD DUP1 SWAP2 SUB SWAP1 REVERT JUMPDEST PUSH1 0x2 PUSH0 PUSH0 PUSH2 0x100 EXP DUP2 SLOAD DUP2 PUSH1 0xFF MUL NOT AND SWAP1 DUP4 PUSH1 0x4 DUP2 GT ISZERO PUSH2 0x4AE JUMPI PUSH2 0x4AD PUSH2 0xE75 JUMP JUMPDEST JUMPDEST MUL OR SWAP1 SSTORE POP PUSH32 0x0 PUSH20 0xFFFFFFFFFFFFFFFFFFFFFFFFFFFFFFFFFFFFFFFF AND PUSH4 0xA9059CBB PUSH32 0x0 PUSH32 0x0 PUSH1 0x40 MLOAD DUP4 PUSH4 0xFFFFFFFF AND PUSH1 0xE0 SHL DUP2 MSTORE PUSH1 0x4 ADD PUSH2 0x54E SWAP3 SWAP2 SWAP1 PUSH2 0x1149 JUMP JUMPDEST PUSH1 0x20 PUSH1 0x40 MLOAD DUP1 DUP4 SUB DUP2 PUSH0 DUP8 GAS CALL ISZERO DUP1 ISZERO PUSH2 0x56A JUMPI RETURNDATASIZE PUSH0 PUSH0 RETURNDATACOPY RETURNDATASIZE PUSH0 REVERT JUMPDEST POP POP POP POP PUSH1 0x40 MLOAD RETURNDATASIZE PUSH1 0x1F NOT PUSH1 0x1F DUP3 ADD AND DUP3 ADD DUP1 PUSH1 0x40 MSTORE POP DUP2 ADD SWAP1 PUSH2 0x58E SWAP2 SWAP1 PUSH2 0x11A5 JUMP JUMPDEST POP PUSH32 0x0 PUSH20 0xFFFFFFFFFFFFFFFFFFFFFFFFFFFFFFFFFFFFFFFF AND PUSH32 0xB21FB52D5749B80F3182F8C6992236B5E5576681880914484D7F4C9B062E619E PUSH32 0x0 PUSH1 0x40 MLOAD PUSH2 0x615 SWAP2 SWAP1 PUSH2 0xE5C JUMP JUMPDEST PUSH1 0x40 MLOAD DUP1 SWAP2 SUB SWAP1 LOG2 JUMP JUMPDEST PUSH32 0x0 PUSH20 0xFFFFFFFFFFFFFFFFFFFFFFFFFFFFFFFFFFFFFFFF AND CALLER PUSH20 0xFFFFFFFFFFFFFFFFFFFFFFFFFFFFFFFFFFFFFFFF AND EQ PUSH2 0x6AD JUMPI PUSH1 0x40 MLOAD PUSH32 0x8C379A000000000000000000000000000000000000000000000000000000000 DUP2 MSTORE PUSH1 0x4 ADD PUSH2 0x6A4 SWAP1 PUSH2 0x121A JUMP JUMPDEST PUSH1 0x40 MLOAD DUP1 SWAP2 SUB SWAP1 REVERT JUMPDEST PUSH0 PUSH20 0xFFFFFFFFFFFFFFFFFFFFFFFFFFFFFFFFFFFFFFFF AND PUSH0 PUSH1 0x1 SWAP1 SLOAD SWAP1 PUSH2 0x100 EXP SWAP1 DIV PUSH20 0xFFFFFFFFFFFFFFFFFFFFFFFFFFFFFFFFFFFFFFFF AND PUSH20 0xFFFFFFFFFFFFFFFFFFFFFFFFFFFFFFFFFFFFFFFF AND EQ PUSH2 0x73C JUMPI PUSH1 0x40 MLOAD PUSH32 0x8C379A000000000000000000000000000000000000000000000000000000000 DUP2 MSTORE PUSH1 0x4 ADD PUSH2 0x733 SWAP1 PUSH2 0x1282 JUMP JUMPDEST PUSH1 0x40 MLOAD DUP1 SWAP2 SUB SWAP1 REVERT JUMPDEST DUP1 PUSH0 PUSH1 0x1 PUSH2 0x100 EXP DUP2 SLOAD DUP2 PUSH20 0xFFFFFFFFFFFFFFFFFFFFFFFFFFFFFFFFFFFFFFFF MUL NOT AND SWAP1 DUP4 PUSH20 0xFFFFFFFFFFFFFFFFFFFFFFFFFFFFFFFFFFFFFFFF AND MUL OR SWAP1 SSTORE POP POP JUMP JUMPDEST PUSH32 0x0 DUP2 JUMP JUMPDEST PUSH0 PUSH1 0x4 DUP2 GT ISZERO PUSH2 0x7B6 JUMPI PUSH2 0x7B5 PUSH2 0xE75 JUMP JUMPDEST JUMPDEST PUSH0 PUSH0 SWAP1 SLOAD SWAP1 PUSH2 0x100 EXP SWAP1 DIV PUSH1 0xFF AND PUSH1 0x4 DUP2 GT ISZERO PUSH2 0x7D6 JUMPI PUSH2 0x7D5 PUSH2 0xE75 JUMP JUMPDEST JUMPDEST EQ PUSH2 0x816 JUMPI PUSH1 0x40 MLOAD PUSH32 0x8C379A000000000000000000000000000000000000000000000000000000000 DUP2 MSTORE PUSH1 0x4 ADD PUSH2 0x80D SWAP1 PUSH2 0x12EA JUMP JUMPDEST PUSH1 0x40 MLOAD DUP1 SWAP2 SUB SWAP1 REVERT JUMPDEST PUSH32 0x0 PUSH20 0xFFFFFFFFFFFFFFFFFFFFFFFFFFFFFFFFFFFFFFFF AND PUSH4 0x23B872DD PUSH32 0x0 ADDRESS PUSH32 0x0 PUSH1 0x40 MLOAD DUP5 PUSH4 0xFFFFFFFF AND PUSH1 0xE0 SHL DUP2 MSTORE PUSH1 0x4 ADD PUSH2 0x8B3 SWAP4 SWAP3 SWAP2 SWAP1 PUSH2 0x1308 JUMP JUMPDEST PUSH1 0x20 PUSH1 0x40 MLOAD DUP1 DUP4 SUB DUP2 PUSH0 DUP8 GAS CALL ISZERO DUP1 ISZERO PUSH2 0x8CF JUMPI RETURNDATASIZE PUSH0 PUSH0 RETURNDATACOPY RETURNDATASIZE PUSH0 REVERT JUMPDEST POP POP POP POP PUSH1 0x40 MLOAD RETURNDATASIZE PUSH1 0x1F NOT PUSH1 0x1F DUP3 ADD AND DUP3 ADD DUP1 PUSH1 0x40 MSTORE POP DUP2 ADD SWAP1 PUSH2 0x8F3 SWAP2 SWAP1 PUSH2 0x11A5 JUMP JUMPDEST POP PUSH1 0x1 PUSH0 PUSH0 PUSH2 0x100 EXP DUP2 SLOAD DUP2 PUSH1 0xFF MUL NOT AND SWAP1 DUP4 PUSH1 0x4 DUP2 GT ISZERO PUSH2 0x918 JUMPI PUSH2 0x917 PUSH2 0xE75 JUMP JUMPDEST JUMPDEST MUL OR SWAP1 SSTORE POP PUSH32 0xC4C14883AE9FD8E26D5D59E3485ED29FD126D781D7E498A4CA5C54C8268E4936 PUSH32 0x0 PUSH1 0x40 MLOAD PUSH2 0x96C SWAP2 SWAP1 PUSH2 0xE5C JUMP JUMPDEST PUSH1 0x40 MLOAD DUP1 SWAP2 SUB SWAP1 LOG1 JUMP JUMPDEST PUSH0 PUSH0 SWAP1 SLOAD SWAP1 PUSH2 0x100 EXP SWAP1 DIV PUSH1 0xFF AND DUP2 JUMP JUMPDEST PUSH32 0x0 DUP2 JUMP JUMPDEST PUSH0 PUSH1 0x1 SWAP1 SLOAD SWAP1 PUSH2 0x100 EXP SWAP1 DIV PUSH20 0xFFFFFFFFFFFFFFFFFFFFFFFFFFFFFFFFFFFFFFFF AND PUSH20 0xFFFFFFFFFFFFFFFFFFFFFFFFFFFFFFFFFFFFFFFF AND CALLER PUSH20 0xFFFFFFFFFFFFFFFFFFFFFFFFFFFFFFFFFFFFFFFF AND EQ PUSH2 0xA3A JUMPI PUSH1 0x40 MLOAD PUSH32 0x8C379A000000000000000000000000000000000000000000000000000000000 DUP2 MSTORE PUSH1 0x4 ADD PUSH2 0xA31 SWAP1 PUSH2 0x13AD JUMP JUMPDEST PUSH1 0x40 MLOAD DUP1 SWAP2 SUB SWAP1 REVERT JUMPDEST PUSH1 0x4 DUP1 DUP2 GT ISZERO PUSH2 0xA4D JUMPI PUSH2 0xA4C PUSH2 0xE75 JUMP JUMPDEST JUMPDEST PUSH0 PUSH0 SWAP1 SLOAD SWAP1 PUSH2 0x100 EXP SWAP1 DIV PUSH1 0xFF AND PUSH1 0x4 DUP2 GT ISZERO PUSH2 0xA6D JUMPI PUSH2 0xA6C PUSH2 0xE75 JUMP JUMPDEST JUMPDEST EQ PUSH2 0xAAD JUMPI PUSH1 0x40 MLOAD PUSH32 0x8C379A000000000000000000000000000000000000000000000000000000000 DUP2 MSTORE PUSH1 0x4 ADD PUSH2 0xAA4 SWAP1 PUSH2 0x1415 JUMP JUMPDEST PUSH1 0x40 MLOAD DUP1 SWAP2 SUB SWAP1 REVERT JUMPDEST PUSH32 0x0 PUSH20 0xFFFFFFFFFFFFFFFFFFFFFFFFFFFFFFFFFFFFFFFF AND DUP2 PUSH20 0xFFFFFFFFFFFFFFFFFFFFFFFFFFFFFFFFFFFFFFFF AND SUB PUSH2 0xC0A JUMPI PUSH1 0x2 PUSH0 PUSH0 PUSH2 0x100 EXP DUP2 SLOAD DUP2 PUSH1 0xFF MUL NOT AND SWAP1 DUP4 PUSH1 0x4 DUP2 GT ISZERO PUSH2 0xB24 JUMPI PUSH2 0xB23 PUSH2 0xE75 JUMP JUMPDEST JUMPDEST MUL OR SWAP1 SSTORE POP PUSH32 0x0 PUSH20 0xFFFFFFFFFFFFFFFFFFFFFFFFFFFFFFFFFFFFFFFF AND PUSH4 0xA9059CBB PUSH32 0x0 PUSH32 0x0 PUSH1 0x40 MLOAD DUP4 PUSH4 0xFFFFFFFF AND PUSH1 0xE0 SHL DUP2 MSTORE PUSH1 0x4 ADD PUSH2 0xBC4 SWAP3 SWAP2 SWAP1 PUSH2 0x1149 JUMP JUMPDEST PUSH1 0x20 PUSH1 0x40 MLOAD DUP1 DUP4 SUB DUP2 PUSH0 DUP8 GAS CALL ISZERO DUP1 ISZERO PUSH2 0xBE0 JUMPI RETURNDATASIZE PUSH0 PUSH0 RETURNDATACOPY RETURNDATASIZE PUSH0 REVERT JUMPDEST POP POP POP POP PUSH1 0x40 MLOAD RETURNDATASIZE PUSH1 0x1F NOT PUSH1 0x1F DUP3 ADD AND DUP3 ADD DUP1 PUSH1 0x40 MSTORE POP DUP2 ADD SWAP1 PUSH2 0xC04 SWAP2 SWAP1 PUSH2 0x11A5 JUMP JUMPDEST POP PUSH2 0xD10 JUMP JUMPDEST PUSH1 0x3 PUSH0 PUSH0 PUSH2 0x100 EXP DUP2 SLOAD DUP2 PUSH1 0xFF MUL NOT AND SWAP1 DUP4 PUSH1 0x4 DUP2 GT ISZERO PUSH2 0xC2E JUMPI PUSH2 0xC2D PUSH2 0xE75 JUMP JUMPDEST JUMPDEST MUL OR SWAP1 SSTORE POP PUSH32 0x0 PUSH20 0xFFFFFFFFFFFFFFFFFFFFFFFFFFFFFFFFFFFFFFFF AND PUSH4 0xA9059CBB PUSH32 0x0 PUSH32 0x0 PUSH1 0x40 MLOAD DUP4 PUSH4 0xFFFFFFFF AND PUSH1 0xE0 SHL DUP2 MSTORE PUSH1 0x4 ADD PUSH2 0xCCE SWAP3 SWAP2 SWAP1 PUSH2 0x1149 JUMP JUMPDEST PUSH1 0x20 PUSH1 0x40 MLOAD DUP1 DUP4 SUB DUP2 PUSH0 DUP8 GAS CALL ISZERO DUP1 ISZERO PUSH2 0xCEA JUMPI RETURNDATASIZE PUSH0 PUSH0 RETURNDATACOPY RETURNDATASIZE PUSH0 REVERT JUMPDEST POP POP POP POP PUSH1 0x40 MLOAD RETURNDATASIZE PUSH1 0x1F NOT PUSH1 0x1F DUP3 ADD AND DUP3 ADD DUP1 PUSH1 0x40 MSTORE POP DUP2 ADD SWAP1 PUSH2 0xD0E SWAP2 SWAP1 PUSH2 0x11A5 JUMP JUMPDEST POP JUMPDEST PUSH32 0x8476B4C4CD5F496CFE2043ED12CD9E3E3540E97649536B9AA3FA67F06A7134DB DUP2 PUSH1 0x40 MLOAD PUSH2 0xD3F SWAP2 SWAP1 PUSH2 0xDD2 JUMP JUMPDEST PUSH1 0x40 MLOAD DUP1 SWAP2 SUB SWAP1 LOG1 POP JUMP JUMPDEST PUSH0 PUSH1 0x1 SWAP1 SLOAD SWAP1 PUSH2 0x100 EXP SWAP1 DIV PUSH20 0xFFFFFFFFFFFFFFFFFFFFFFFFFFFFFFFFFFFFFFFF AND DUP2 JUMP JUMPDEST PUSH32 0x0 DUP2 JUMP JUMPDEST PUSH0 PUSH20 0xFFFFFFFFFFFFFFFFFFFFFFFFFFFFFFFFFFFFFFFF DUP3 AND SWAP1 POP SWAP2 SWAP1 POP JUMP JUMPDEST PUSH0 PUSH2 0xDBC DUP3 PUSH2 0xD93 JUMP JUMPDEST SWAP1 POP SWAP2 SWAP1 POP JUMP JUMPDEST PUSH2 0xDCC DUP2 PUSH2 0xDB2 JUMP JUMPDEST DUP3 MSTORE POP POP JUMP JUMPDEST PUSH0 PUSH1 0x20 DUP3 ADD SWAP1 POP PUSH2 0xDE5 PUSH0 DUP4 ADD DUP5 PUSH2 0xDC3 JUMP JUMPDEST SWAP3 SWAP2 POP POP JUMP JUMPDEST PUSH0 PUSH0 REVERT JUMPDEST PUSH2 0xDF8 DUP2 PUSH2 0xDB2 JUMP JUMPDEST DUP2 EQ PUSH2 0xE02 JUMPI PUSH0 PUSH0 REVERT JUMPDEST POP JUMP JUMPDEST PUSH0 DUP2 CALLDATALOAD SWAP1 POP PUSH2 0xE13 DUP2 PUSH2 0xDEF JUMP JUMPDEST SWAP3 SWAP2 POP POP JUMP JUMPDEST PUSH0 PUSH1 0x20 DUP3 DUP5 SUB SLT ISZERO PUSH2 0xE2E JUMPI PUSH2 0xE2D PUSH2 0xDEB JUMP JUMPDEST JUMPDEST PUSH0 PUSH2 0xE3B DUP5 DUP3 DUP6 ADD PUSH2 0xE05 JUMP JUMPDEST SWAP2 POP POP SWAP3 SWAP2 POP POP JUMP JUMPDEST PUSH0 DUP2 SWAP1 POP SWAP2 SWAP1 POP JUMP JUMPDEST PUSH2 0xE56 DUP2 PUSH2 0xE44 JUMP JUMPDEST DUP3 MSTORE POP POP JUMP JUMPDEST PUSH0 PUSH1 0x20 DUP3 ADD SWAP1 POP PUSH2 0xE6F PUSH0 DUP4 ADD DUP5 PUSH2 0xE4D JUMP JUMPDEST SWAP3 SWAP2 POP POP JUMP JUMPDEST PUSH32 0x4E487B7100000000000000000000000000000000000000000000000000000000 PUSH0 MSTORE PUSH1 0x21 PUSH1 0x4 MSTORE PUSH1 0x24 PUSH0 REVERT JUMPDEST PUSH1 0x5 DUP2 LT PUSH2 0xEB3 JUMPI PUSH2 0xEB2 PUSH2 0xE75 JUMP JUMPDEST JUMPDEST POP JUMP JUMPDEST PUSH0 DUP2 SWAP1 POP PUSH2 0xEC3 DUP3 PUSH2 0xEA2 JUMP JUMPDEST SWAP2 SWAP1 POP JUMP JUMPDEST PUSH0 PUSH2 0xED2 DUP3 PUSH2 0xEB6 JUMP JUMPDEST SWAP1 POP SWAP2 SWAP1 POP JUMP JUMPDEST PUSH2 0xEE2 DUP2 PUSH2 0xEC8 JUMP JUMPDEST DUP3 MSTORE POP POP JUMP JUMPDEST PUSH0 PUSH1 0x20 DUP3 ADD SWAP1 POP PUSH2 0xEFB PUSH0 DUP4 ADD DUP5 PUSH2 0xED9 JUMP JUMPDEST SWAP3 SWAP2 POP POP JUMP JUMPDEST PUSH0 DUP3 DUP3 MSTORE PUSH1 0x20 DUP3 ADD SWAP1 POP SWAP3 SWAP2 POP POP JUMP JUMPDEST PUSH32 0x457363726F773A204E6F74206120706172747920746F2074686520636F6E7472 PUSH0 DUP3 ADD MSTORE PUSH32 0x6163740000000000000000000000000000000000000000000000000000000000 PUSH1 0x20 DUP3 ADD MSTORE POP JUMP JUMPDEST PUSH0 PUSH2 0xF6B PUSH1 0x23 DUP4 PUSH2 0xF01 JUMP JUMPDEST SWAP2 POP PUSH2 0xF76 DUP3 PUSH2 0xF11 JUMP JUMPDEST PUSH1 0x40 DUP3 ADD SWAP1 POP SWAP2 SWAP1 POP JUMP JUMPDEST PUSH0 PUSH1 0x20 DUP3 ADD SWAP1 POP DUP2 DUP2 SUB PUSH0 DUP4 ADD MSTORE PUSH2 0xF98 DUP2 PUSH2 0xF5F JUMP JUMPDEST SWAP1 POP SWAP2 SWAP1 POP JUMP JUMPDEST PUSH32 0x457363726F773A2043616E206F6E6C79206C6F636B2066756E64656420657363 PUSH0 DUP3 ADD MSTORE PUSH32 0x726F770000000000000000000000000000000000000000000000000000000000 PUSH1 0x20 DUP3 ADD MSTORE POP JUMP JUMPDEST PUSH0 PUSH2 0xFF9 PUSH1 0x23 DUP4 PUSH2 0xF01 JUMP JUMPDEST SWAP2 POP PUSH2 0x1004 DUP3 PUSH2 0xF9F JUMP JUMPDEST PUSH1 0x40 DUP3 ADD SWAP1 POP SWAP2 SWAP1 POP JUMP JUMPDEST PUSH0 PUSH1 0x20 DUP3 ADD SWAP1 POP DUP2 DUP2 SUB PUSH0 DUP4 ADD MSTORE PUSH2 0x1026 DUP2 PUSH2 0xFED JUMP JUMPDEST SWAP1 POP SWAP2 SWAP1 POP JUMP JUMPDEST PUSH32 0x457363726F773A2043616C6C6572206973206E6F7420746865206465706F7369 PUSH0 DUP3 ADD MSTORE PUSH32 0x746F720000000000000000000000000000000000000000000000000000000000 PUSH1 0x20 DUP3 ADD MSTORE POP JUMP JUMPDEST PUSH0 PUSH2 0x1087 PUSH1 0x23 DUP4 PUSH2 0xF01 JUMP JUMPDEST SWAP2 POP PUSH2 0x1092 DUP3 PUSH2 0x102D JUMP JUMPDEST PUSH1 0x40 DUP3 ADD SWAP1 POP SWAP2 SWAP1 POP JUMP JUMPDEST PUSH0 PUSH1 0x20 DUP3 ADD SWAP1 POP DUP2 DUP2 SUB PUSH0 DUP4 ADD MSTORE PUSH2 0x10B4 DUP2 PUSH2 0x107B JUMP JUMPDEST SWAP1 POP SWAP2 SWAP1 POP JUMP JUMPDEST PUSH32 0x457363726F773A204E6F7420696E20612072656C65617361626C652073746174 PUSH0 DUP3 ADD MSTORE PUSH32 0x6500000000000000000000000000000000000000000000000000000000000000 PUSH1 0x20 DUP3 ADD MSTORE POP JUMP JUMPDEST PUSH0 PUSH2 0x1115 PUSH1 0x21 DUP4 PUSH2 0xF01 JUMP JUMPDEST SWAP2 POP PUSH2 0x1120 DUP3 PUSH2 0x10BB JUMP JUMPDEST PUSH1 0x40 DUP3 ADD SWAP1 POP SWAP2 SWAP1 POP JUMP JUMPDEST PUSH0 PUSH1 0x20 DUP3 ADD SWAP1 POP DUP2 DUP2 SUB PUSH0 DUP4 ADD MSTORE PUSH2 0x1142 DUP2 PUSH2 0x1109 JUMP JUMPDEST SWAP1 POP SWAP2 SWAP1 POP JUMP JUMPDEST PUSH0 PUSH1 0x40 DUP3 ADD SWAP1 POP PUSH2 0x115C PUSH0 DUP4 ADD DUP6 PUSH2 0xDC3 JUMP JUMPDEST PUSH2 0x1169 PUSH1 0x20 DUP4 ADD DUP5 PUSH2 0xE4D JUMP JUMPDEST SWAP4 SWAP3 POP POP POP JUMP JUMPDEST PUSH0 DUP2 ISZERO ISZERO SWAP1 POP SWAP2 SWAP1 POP JUMP JUMPDEST PUSH2 0x1184 DUP2 PUSH2 0x1170 JUMP JUMPDEST DUP2 EQ PUSH2 0x118E JUMPI PUSH0 PUSH0 REVERT JUMPDEST POP JUMP JUMPDEST PUSH0 DUP2 MLOAD SWAP1 POP PUSH2 0x119F DUP2 PUSH2 0x117B JUMP JUMPDEST SWAP3 SWAP2 POP POP JUMP JUMPDEST PUSH0 PUSH1 0x20 DUP3 DUP5 SUB SLT ISZERO PUSH2 0x11BA JUMPI PUSH2 0x11B9 PUSH2 0xDEB JUMP JUMPDEST JUMPDEST PUSH0 PUSH2 0x11C7 DUP5 DUP3 DUP6 ADD PUSH2 0x1191 JUMP JUMPDEST SWAP2 POP POP SWAP3 SWAP2 POP POP JUMP JUMPDEST PUSH32 0x457363726F773A204E6F74206465706F7369746F720000000000000000000000 PUSH0 DUP3 ADD MSTORE POP JUMP JUMPDEST PUSH0 PUSH2 0x1204 PUSH1 0x15 DUP4 PUSH2 0xF01 JUMP JUMPDEST SWAP2 POP PUSH2 0x120F DUP3 PUSH2 0x11D0 JUMP JUMPDEST PUSH1 0x20 DUP3 ADD SWAP1 POP SWAP2 SWAP1 POP JUMP JUMPDEST PUSH0 PUSH1 0x20 DUP3 ADD SWAP1 POP DUP2 DUP2 SUB PUSH0 DUP4 ADD MSTORE PUSH2 0x1231 DUP2 PUSH2 0x11F8 JUMP JUMPDEST SWAP1 POP SWAP2 SWAP1 POP JUMP JUMPDEST PUSH32 0x457363726F773A205265736F6C76657220616C72656164792073657400000000 PUSH0 DUP3 ADD MSTORE POP JUMP JUMPDEST PUSH0 PUSH2 0x126C PUSH1 0x1C DUP4 PUSH2 0xF01 JUMP JUMPDEST SWAP2 POP PUSH2 0x1277 DUP3 PUSH2 0x1238 JUMP JUMPDEST PUSH1 0x20 DUP3 ADD SWAP1 POP SWAP2 SWAP1 POP JUMP JUMPDEST PUSH0 PUSH1 0x20 DUP3 ADD SWAP1 POP DUP2 DUP2 SUB PUSH0 DUP4 ADD MSTORE PUSH2 0x1299 DUP2 PUSH2 0x1260 JUMP JUMPDEST SWAP1 POP SWAP2 SWAP1 POP JUMP JUMPDEST PUSH32 0x457363726F773A204E6F74206177616974696E672066756E6473000000000000 PUSH0 DUP3 ADD MSTORE POP JUMP JUMPDEST PUSH0 PUSH2 0x12D4 PUSH1 0x1A DUP4 PUSH2 0xF01 JUMP JUMPDEST SWAP2 POP PUSH2 0x12DF DUP3 PUSH2 0x12A0 JUMP JUMPDEST PUSH1 0x20 DUP3 ADD SWAP1 POP SWAP2 SWAP1 POP JUMP JUMPDEST PUSH0 PUSH1 0x20 DUP3 ADD SWAP1 POP DUP2 DUP2 SUB PUSH0 DUP4 ADD MSTORE PUSH2 0x1301 DUP2 PUSH2 0x12C8 JUMP JUMPDEST SWAP1 POP SWAP2 SWAP1 POP JUMP JUMPDEST PUSH0 PUSH1 0x60 DUP3 ADD SWAP1 POP PUSH2 0x131B PUSH0 DUP4 ADD DUP7 PUSH2 0xDC3 JUMP JUMPDEST PUSH2 0x1328 PUSH1 0x20 DUP4 ADD DUP6 PUSH2 0xDC3 JUMP JUMPDEST PUSH2 0x1335 PUSH1 0x40 DUP4 ADD DUP5 PUSH2 0xE4D JUMP JUMPDEST SWAP5 SWAP4 POP POP POP POP JUMP JUMPDEST PUSH32 0x457363726F773A2043616C6C6572206973206E6F742074686520646973707574 PUSH0 DUP3 ADD MSTORE PUSH32 0x65207265736F6C76657200000000000000000000000000000000000000000000 PUSH1 0x20 DUP3 ADD MSTORE POP JUMP JUMPDEST PUSH0 PUSH2 0x1397 PUSH1 0x2A DUP4 PUSH2 0xF01 JUMP JUMPDEST SWAP2 POP PUSH2 0x13A2 DUP3 PUSH2 0x133D JUMP JUMPDEST PUSH1 0x40 DUP3 ADD SWAP1 POP SWAP2 SWAP1 POP JUMP JUMPDEST PUSH0 PUSH1 0x20 DUP3 ADD SWAP1 POP DUP2 DUP2 SUB PUSH0 DUP4 ADD MSTORE PUSH2 0x13C4 DUP2 PUSH2 0x138B JUMP JUMPDEST SWAP1 POP SWAP2 SWAP1 POP JUMP JUMPDEST PUSH32 0x457363726F773A204E6F74206C6F636B656420666F7220646973707574650000 PUSH0 DUP3 ADD MSTORE POP JUMP JUMPDEST PUSH0 PUSH2 0x13FF PUSH1 0x1E DUP4 PUSH2 0xF01 JUMP JUMPDEST SWAP2 POP PUSH2 0x140A DUP3 PUSH2 0x13CB JUMP JUMPDEST PUSH1 0x20 DUP3 ADD SWAP1 POP SWAP2 SWAP1 POP JUMP JUMPDEST PUSH0 PUSH1 0x20 DUP3 ADD SWAP1 POP DUP2 DUP2 SUB PUSH0 DUP4 ADD MSTORE PUSH2 0x142C DUP2 PUSH2 0x13F3 JUMP JUMPDEST SWAP1 POP SWAP2 SWAP1 POP JUMP INVALID LOG2 PUSH5 0x6970667358 0x22 SLT KECCAK256 0xFC PREVRANDAO 0x29 OR 0xC8 DUP12 DATALOADN 0x654B SHL 0xC SWAP9 0xFC 0xC2 0xD9 RETURNCONTRACT 0x67 0x2D PUSH16 0x5E60FF485D08A5748881CA8E7E64736F PUSH13 0x634300081E0033000000000000 "
				},
				"gasEstimates": {
					"creation": {
						"codeDepositCost": "1045000",
						"executionCost": "infinite",
						"totalCost": "infinite"
					},
					"external": {
						"amount()": "infinite",
						"beneficiary()": "infinite",
						"depositor()": "infinite",
						"disputeResolver()": "2646",
						"fund()": "infinite",
						"lockForDispute()": "infinite",
						"release()": "infinite",
						"resolveDispute(address)": "infinite",
						"setDisputeResolver(address)": "infinite",
						"state()": "2575",
						"token()": "infinite"
					}
				},
				"methodIdentifiers": {
					"amount()": "aa8c217c",
					"beneficiary()": "38af3eed",
					"depositor()": "c7c4ff46",
					"disputeResolver()": "f5a3f4af",
					"fund()": "b60d4288",
					"lockForDispute()": "2b11cf20",
					"release()": "86d1a69f",
					"resolveDispute(address)": "d8461182",
					"setDisputeResolver(address)": "924e63f6",
					"state()": "c19d93fb",
					"token()": "fc0c546a"
				}
			},
			"storageLayout": {
				"storage": [
					{
						"astId": 269,
						"contract": "contracts/Governance/DisputeResolution_flattened.sol:Escrow",
						"label": "state",
						"offset": 0,
						"slot": "0",
						"type": "t_enum(EscrowState)258"
					},
					{
						"astId": 271,
						"contract": "contracts/Governance/DisputeResolution_flattened.sol:Escrow",
						"label": "disputeResolver",
						"offset": 1,
						"slot": "0",
						"type": "t_address"
					}
				],
				"types": {
					"t_address": {
						"encoding": "inplace",
						"label": "address",
						"numberOfBytes": "20"
					},
					"t_enum(EscrowState)258": {
						"encoding": "inplace",
						"label": "enum Escrow.EscrowState",
						"numberOfBytes": "1"
					}
				}
			},
			"userdoc": {
				"kind": "user",
				"methods": {},
				"version": 1
			}
		}
	}
}