{
	"contracts/core/UserIdentity_flattened.sol": {
		"UserIdentity": {
			"abi": [
				{
					"inputs": [
						{
							"internalType": "address",
							"name": "initialOwner",
							"type": "address"
						}
					],
					"stateMutability": "nonpayable",
					"type": "constructor"
				},
				{
					"inputs": [
						{
							"internalType": "address",
							"name": "owner",
							"type": "address"
						}
					],
					"name": "OwnableInvalidOwner",
					"type": "error"
				},
				{
					"inputs": [
						{
							"internalType": "address",
							"name": "account",
							"type": "address"
						}
					],
					"name": "OwnableUnauthorizedAccount",
					"type": "error"
				},
				{
					"inputs": [],
					"name": "Unauthorized",
					"type": "error"
				},
				{
					"inputs": [
						{
							"internalType": "address",
							"name": "user",
							"type": "address"
						}
					],
					"name": "UserNotFound",
					"type": "error"
				},
				{
					"inputs": [
						{
							"internalType": "string",
							"name": "username",
							"type": "string"
						}
					],
					"name": "UsernameTaken",
					"type": "error"
				},
				{
					"anonymous": false,
					"inputs": [
						{
							"indexed": true,
							"internalType": "string",
							"name": "role",
							"type": "string"
						},
						{
							"indexed": true,
							"internalType": "address",
							"name": "contractAddress",
							"type": "address"
						}
					],
					"name": "AuthorizedContractSet",
					"type": "event"
				},
				{
					"anonymous": false,
					"inputs": [
						{
							"indexed": true,
							"internalType": "address",
							"name": "previousOwner",
							"type": "address"
						},
						{
							"indexed": true,
							"internalType": "address",
							"name": "newOwner",
							"type": "address"
						}
					],
					"name": "OwnershipTransferred",
					"type": "event"
				},
				{
					"anonymous": false,
					"inputs": [
						{
							"indexed": true,
							"internalType": "address",
							"name": "user",
							"type": "address"
						},
						{
							"indexed": false,
							"internalType": "string",
							"name": "username",
							"type": "string"
						}
					],
					"name": "ProfileCreated",
					"type": "event"
				},
				{
					"anonymous": false,
					"inputs": [
						{
							"indexed": true,
							"internalType": "address",
							"name": "user",
							"type": "address"
						}
					],
					"name": "ProfileUpdated",
					"type": "event"
				},
				{
					"inputs": [
						{
							"internalType": "string",
							"name": "_username",
							"type": "string"
						},
						{
							"internalType": "string",
							"name": "_skills",
							"type": "string"
						},
						{
							"internalType": "bytes",
							"name": "_ipfsPortfolioHash",
							"type": "bytes"
						}
					],
					"name": "createProfile",
					"outputs": [],
					"stateMutability": "nonpayable",
					"type": "function"
				},
				{
					"inputs": [
						{
							"internalType": "address",
							"name": "_user",
							"type": "address"
						}
					],
					"name": "getProfile",
					"outputs": [
						{
							"components": [
								{
									"internalType": "address",
									"name": "userAddress",
									"type": "address"
								},
								{
									"internalType": "string",
									"name": "username",
									"type": "string"
								},
								{
									"internalType": "string",
									"name": "skills",
									"type": "string"
								},
								{
									"internalType": "bytes",
									"name": "ipfsPortfolioHash",
									"type": "bytes"
								},
								{
									"internalType": "uint256",
									"name": "reputationScore",
									"type": "uint256"
								},
								{
									"internalType": "uint256",
									"name": "projectsCompleted",
									"type": "uint256"
								}
							],
							"internalType": "struct IUserIdentity.UserProfile",
							"name": "",
							"type": "tuple"
						}
					],
					"stateMutability": "view",
					"type": "function"
				},
				{
					"inputs": [
						{
							"internalType": "address",
							"name": "_user",
							"type": "address"
						}
					],
					"name": "incrementProjectsCompleted",
					"outputs": [],
					"stateMutability": "nonpayable",
					"type": "function"
				},
				{
					"inputs": [],
					"name": "owner",
					"outputs": [
						{
							"internalType": "address",
							"name": "",
							"type": "address"
						}
					],
					"stateMutability": "view",
					"type": "function"
				},
				{
					"inputs": [
						{
							"internalType": "address",
							"name": "",
							"type": "address"
						}
					],
					"name": "profiles",
					"outputs": [
						{
							"internalType": "address",
							"name": "userAddress",
							"type": "address"
						},
						{
							"internalType": "string",
							"name": "username",
							"type": "string"
						},
						{
							"internalType": "string",
							"name": "skills",
							"type": "string"
						},
						{
							"internalType": "bytes",
							"name": "ipfsPortfolioHash",
							"type": "bytes"
						},
						{
							"internalType": "uint256",
							"name": "reputationScore",
							"type": "uint256"
						},
						{
							"internalType": "uint256",
							"name": "projectsCompleted",
							"type": "uint256"
						}
					],
					"stateMutability": "view",
					"type": "function"
				},
				{
					"inputs": [],
					"name": "projectAuthorityAddress",
					"outputs": [
						{
							"internalType": "address",
							"name": "",
							"type": "address"
						}
					],
					"stateMutability": "view",
					"type": "function"
				},
				{
					"inputs": [],
					"name": "renounceOwnership",
					"outputs": [],
					"stateMutability": "nonpayable",
					"type": "function"
				},
				{
					"inputs": [],
					"name": "reputationContractAddress",
					"outputs": [
						{
							"internalType": "address",
							"name": "",
							"type": "address"
						}
					],
					"stateMutability": "view",
					"type": "function"
				},
				{
					"inputs": [
						{
							"internalType": "address",
							"name": "_address",
							"type": "address"
						}
					],
					"name": "setProjectAuthority",
					"outputs": [],
					"stateMutability": "nonpayable",
					"type": "function"
				},
				{
					"inputs": [
						{
							"internalType": "address",
							"name": "_address",
							"type": "address"
						}
					],
					"name": "setReputationContract",
					"outputs": [],
					"stateMutability": "nonpayable",
					"type": "function"
				},
				{
					"inputs": [
						{
							"internalType": "address",
							"name": "newOwner",
							"type": "address"
						}
					],
					"name": "transferOwnership",
					"outputs": [],
					"stateMutability": "nonpayable",
					"type": "function"
				},
				{
					"inputs": [
						{
							"internalType": "string",
							"name": "_skills",
							"type": "string"
						},
						{
							"internalType": "bytes",
							"name": "_ipfsPortfolioHash",
							"type": "bytes"
						}
					],
					"name": "updateProfile",
					"outputs": [],
					"stateMutability": "nonpayable",
					"type": "function"
				},
				{
					"inputs": [
						{
							"internalType": "address",
							"name": "_user",
							"type": "address"
						},
						{
							"internalType": "uint256",
							"name": "_newScore",
							"type": "uint256"
						}
					],
					"name": "updateReputation",
					"outputs": [],
					"stateMutability": "nonpayable",
					"type": "function"
				}
			],
			"devdoc": {
				"errors": {
					"OwnableInvalidOwner(address)": [
						{
							"details": "The owner is not a valid owner account. (eg. `address(0)`)"
						}
					],
					"OwnableUnauthorizedAccount(address)": [
						{
							"details": "The caller account is not authorized to perform an operation."
						}
					]
				},
				"kind": "dev",
				"methods": {
					"owner()": {
						"details": "Returns the address of the current owner."
					},
					"renounceOwnership()": {
						"details": "Leaves the contract without owner. It will not be possible to call `onlyOwner` functions. Can only be called by the current owner. NOTE: Renouncing ownership will leave the contract without an owner, thereby disabling any functionality that is only available to the owner."
					},
					"transferOwnership(address)": {
						"details": "Transfers ownership of the contract to a new account (`newOwner`). Can only be called by the current owner."
					}
				},
				"version": 1
			},
			"evm": {
				"assembly": "    /* \"contracts/core/UserIdentity_flattened.sol\":6345:8875  contract UserIdentity is Ownable {... */\n  mstore(0x40, 0x80)\n    /* \"contracts/core/UserIdentity_flattened.sol\":6897:6955  constructor(address initialOwner) Ownable(initialOwner) {} */\n  callvalue\n  dup1\n  iszero\n  tag_1\n  jumpi\n  revert(0x00, 0x00)\ntag_1:\n  pop\n  mload(0x40)\n  sub(codesize, bytecodeSize)\n  dup1\n  bytecodeSize\n  dup4\n  codecopy\n  dup2\n  dup2\n  add\n  0x40\n  mstore\n  dup2\n  add\n  swap1\n  tag_2\n  swap2\n  swap1\n  tag_3\n  jump\t// in\ntag_2:\n    /* \"contracts/core/UserIdentity_flattened.sol\":6939:6951  initialOwner */\n  dup1\n    /* \"contracts/core/UserIdentity_flattened.sol\":2259:2260  0 */\n  0x00\n    /* \"contracts/core/UserIdentity_flattened.sol\":2235:2261  initialOwner == address(0) */\n  0xffffffffffffffffffffffffffffffffffffffff\n  and\n    /* \"contracts/core/UserIdentity_flattened.sol\":2235:2247  initialOwner */\n  dup2\n    /* \"contracts/core/UserIdentity_flattened.sol\":2235:2261  initialOwner == address(0) */\n  0xffffffffffffffffffffffffffffffffffffffff\n  and\n  sub\n    /* \"contracts/core/UserIdentity_flattened.sol\":2231:2326  if (initialOwner == address(0)) {... */\n  tag_7\n  jumpi\n    /* \"contracts/core/UserIdentity_flattened.sol\":2312:2313  0 */\n  0x00\n    /* \"contracts/core/UserIdentity_flattened.sol\":2284:2315  OwnableInvalidOwner(address(0)) */\n  mload(0x40)\n  0x1e4fbdf700000000000000000000000000000000000000000000000000000000\n  dup2\n  mstore\n  0x04\n  add\n  tag_8\n  swap2\n  swap1\n  tag_9\n  jump\t// in\ntag_8:\n  mload(0x40)\n  dup1\n  swap2\n  sub\n  swap1\n  revert\n    /* \"contracts/core/UserIdentity_flattened.sol\":2231:2326  if (initialOwner == address(0)) {... */\ntag_7:\n    /* \"contracts/core/UserIdentity_flattened.sol\":2335:2367  _transferOwnership(initialOwner) */\n  tag_10\n    /* \"contracts/core/UserIdentity_flattened.sol\":2354:2366  initialOwner */\n  dup2\n    /* \"contracts/core/UserIdentity_flattened.sol\":2335:2353  _transferOwnership */\n  shl(0x20, tag_11)\n    /* \"contracts/core/UserIdentity_flattened.sol\":2335:2367  _transferOwnership(initialOwner) */\n  0x20\n  shr\n  jump\t// in\ntag_10:\n    /* \"contracts/core/UserIdentity_flattened.sol\":2187:2374  constructor(address initialOwner) {... */\n  pop\n    /* \"contracts/core/UserIdentity_flattened.sol\":6897:6955  constructor(address initialOwner) Ownable(initialOwner) {} */\n  pop\n    /* \"contracts/core/UserIdentity_flattened.sol\":6345:8875  contract UserIdentity is Ownable {... */\n  jump(tag_13)\n    /* \"contracts/core/UserIdentity_flattened.sol\":3874:4061  function _transferOwnership(address newOwner) internal virtual {... */\ntag_11:\n    /* \"contracts/core/UserIdentity_flattened.sol\":3947:3963  address oldOwner */\n  0x00\n    /* \"contracts/core/UserIdentity_flattened.sol\":3966:3972  _owner */\n  0x00\n  0x00\n  swap1\n  sload\n  swap1\n  0x0100\n  exp\n  swap1\n  div\n  0xffffffffffffffffffffffffffffffffffffffff\n  and\n    /* \"contracts/core/UserIdentity_flattened.sol\":3947:3972  address oldOwner = _owner */\n  swap1\n  pop\n    /* \"contracts/core/UserIdentity_flattened.sol\":3991:3999  newOwner */\n  dup2\n    /* \"contracts/core/UserIdentity_flattened.sol\":3982:3988  _owner */\n  0x00\n  0x00\n    /* \"contracts/core/UserIdentity_flattened.sol\":3982:3999  _owner = newOwner */\n  0x0100\n  exp\n  dup2\n  sload\n  dup2\n  0xffffffffffffffffffffffffffffffffffffffff\n  mul\n  not\n  and\n  swap1\n  dup4\n  0xffffffffffffffffffffffffffffffffffffffff\n  and\n  mul\n  or\n  swap1\n  sstore\n  pop\n    /* \"contracts/core/UserIdentity_flattened.sol\":4045:4053  newOwner */\n  dup2\n    /* \"contracts/core/UserIdentity_flattened.sol\":4014:4054  OwnershipTransferred(oldOwner, newOwner) */\n  0xffffffffffffffffffffffffffffffffffffffff\n  and\n    /* \"contracts/core/UserIdentity_flattened.sol\":4035:4043  oldOwner */\n  dup2\n    /* \"contracts/core/UserIdentity_flattened.sol\":4014:4054  OwnershipTransferred(oldOwner, newOwner) */\n  0xffffffffffffffffffffffffffffffffffffffff\n  and\n  0x8be0079c531659141344cd1fd0a4f28419497f9722a3daafe3b4186f6b6457e0\n  mload(0x40)\n  mload(0x40)\n  dup1\n  swap2\n  sub\n  swap1\n  log3\n    /* \"contracts/core/UserIdentity_flattened.sol\":3937:4061  {... */\n  pop\n    /* \"contracts/core/UserIdentity_flattened.sol\":3874:4061  function _transferOwnership(address newOwner) internal virtual {... */\n  pop\n  jump\t// out\n    /* \"#utility.yul\":88:205   */\ntag_16:\n    /* \"#utility.yul\":197:198   */\n  0x00\n    /* \"#utility.yul\":194:195   */\n  0x00\n    /* \"#utility.yul\":187:199   */\n  revert\n    /* \"#utility.yul\":334:460   */\ntag_18:\n    /* \"#utility.yul\":371:378   */\n  0x00\n    /* \"#utility.yul\":411:453   */\n  0xffffffffffffffffffffffffffffffffffffffff\n    /* \"#utility.yul\":404:409   */\n  dup3\n    /* \"#utility.yul\":400:454   */\n  and\n    /* \"#utility.yul\":389:454   */\n  swap1\n  pop\n    /* \"#utility.yul\":334:460   */\n  swap2\n  swap1\n  pop\n  jump\t// out\n    /* \"#utility.yul\":466:562   */\ntag_19:\n    /* \"#utility.yul\":503:510   */\n  0x00\n    /* \"#utility.yul\":532:556   */\n  tag_29\n    /* \"#utility.yul\":550:555   */\n  dup3\n    /* \"#utility.yul\":532:556   */\n  tag_18\n  jump\t// in\ntag_29:\n    /* \"#utility.yul\":521:556   */\n  swap1\n  pop\n    /* \"#utility.yul\":466:562   */\n  swap2\n  swap1\n  pop\n  jump\t// out\n    /* \"#utility.yul\":568:690   */\ntag_20:\n    /* \"#utility.yul\":641:665   */\n  tag_31\n    /* \"#utility.yul\":659:664   */\n  dup2\n    /* \"#utility.yul\":641:665   */\n  tag_19\n  jump\t// in\ntag_31:\n    /* \"#utility.yul\":634:639   */\n  dup2\n    /* \"#utility.yul\":631:666   */\n  eq\n    /* \"#utility.yul\":621:684   */\n  tag_32\n  jumpi\n    /* \"#utility.yul\":680:681   */\n  0x00\n    /* \"#utility.yul\":677:678   */\n  0x00\n    /* \"#utility.yul\":670:682   */\n  revert\n    /* \"#utility.yul\":621:684   */\ntag_32:\n    /* \"#utility.yul\":568:690   */\n  pop\n  jump\t// out\n    /* \"#utility.yul\":696:839   */\ntag_21:\n    /* \"#utility.yul\":753:758   */\n  0x00\n    /* \"#utility.yul\":784:790   */\n  dup2\n    /* \"#utility.yul\":778:791   */\n  mload\n    /* \"#utility.yul\":769:791   */\n  swap1\n  pop\n    /* \"#utility.yul\":800:833   */\n  tag_34\n    /* \"#utility.yul\":827:832   */\n  dup2\n    /* \"#utility.yul\":800:833   */\n  tag_20\n  jump\t// in\ntag_34:\n    /* \"#utility.yul\":696:839   */\n  swap3\n  swap2\n  pop\n  pop\n  jump\t// out\n    /* \"#utility.yul\":845:1196   */\ntag_3:\n    /* \"#utility.yul\":915:921   */\n  0x00\n    /* \"#utility.yul\":964:966   */\n  0x20\n    /* \"#utility.yul\":952:961   */\n  dup3\n    /* \"#utility.yul\":943:950   */\n  dup5\n    /* \"#utility.yul\":939:962   */\n  sub\n    /* \"#utility.yul\":935:967   */\n  slt\n    /* \"#utility.yul\":932:1051   */\n  iszero\n  tag_36\n  jumpi\n    /* \"#utility.yul\":970:1049   */\n  tag_37\n  tag_16\n  jump\t// in\ntag_37:\n    /* \"#utility.yul\":932:1051   */\ntag_36:\n    /* \"#utility.yul\":1090:1091   */\n  0x00\n    /* \"#utility.yul\":1115:1179   */\n  tag_38\n    /* \"#utility.yul\":1171:1178   */\n  dup5\n    /* \"#utility.yul\":1162:1168   */\n  dup3\n    /* \"#utility.yul\":1151:1160   */\n  dup6\n    /* \"#utility.yul\":1147:1169   */\n  add\n    /* \"#utility.yul\":1115:1179   */\n  tag_21\n  jump\t// in\ntag_38:\n    /* \"#utility.yul\":1105:1179   */\n  swap2\n  pop\n    /* \"#utility.yul\":1061:1189   */\n  pop\n    /* \"#utility.yul\":845:1196   */\n  swap3\n  swap2\n  pop\n  pop\n  jump\t// out\n    /* \"#utility.yul\":1202:1320   */\ntag_22:\n    /* \"#utility.yul\":1289:1313   */\n  tag_40\n    /* \"#utility.yul\":1307:1312   */\n  dup2\n    /* \"#utility.yul\":1289:1313   */\n  tag_19\n  jump\t// in\ntag_40:\n    /* \"#utility.yul\":1284:1287   */\n  dup3\n    /* \"#utility.yul\":1277:1314   */\n  mstore\n    /* \"#utility.yul\":1202:1320   */\n  pop\n  pop\n  jump\t// out\n    /* \"#utility.yul\":1326:1548   */\ntag_9:\n    /* \"#utility.yul\":1419:1423   */\n  0x00\n    /* \"#utility.yul\":1457:1459   */\n  0x20\n    /* \"#utility.yul\":1446:1455   */\n  dup3\n    /* \"#utility.yul\":1442:1460   */\n  add\n    /* \"#utility.yul\":1434:1460   */\n  swap1\n  pop\n    /* \"#utility.yul\":1470:1541   */\n  tag_42\n    /* \"#utility.yul\":1538:1539   */\n  0x00\n    /* \"#utility.yul\":1527:1536   */\n  dup4\n    /* \"#utility.yul\":1523:1540   */\n  add\n    /* \"#utility.yul\":1514:1520   */\n  dup5\n    /* \"#utility.yul\":1470:1541   */\n  tag_22\n  jump\t// in\ntag_42:\n    /* \"#utility.yul\":1326:1548   */\n  swap3\n  swap2\n  pop\n  pop\n  jump\t// out\n    /* \"contracts/core/UserIdentity_flattened.sol\":6345:8875  contract UserIdentity is Ownable {... */\ntag_13:\n  dataSize(sub_0)\n  dup1\n  dataOffset(sub_0)\n  0x00\n  codecopy\n  0x00\n  return\nstop\n\nsub_0: assembly {\n        /* \"contracts/core/UserIdentity_flattened.sol\":6345:8875  contract UserIdentity is Ownable {... */\n      mstore(0x40, 0x80)\n      callvalue\n      dup1\n      iszero\n      tag_1\n      jumpi\n      revert(0x00, 0x00)\n    tag_1:\n      pop\n      jumpi(tag_2, lt(calldatasize, 0x04))\n      shr(0xe0, calldataload(0x00))\n      dup1\n      0x6eeb9b10\n      gt\n      tag_16\n      jumpi\n      dup1\n      0x9584660f\n      gt\n      tag_17\n      jumpi\n      dup1\n      0x9584660f\n      eq\n      tag_12\n      jumpi\n      dup1\n      0xbbe15627\n      eq\n      tag_13\n      jumpi\n      dup1\n      0xf2fde38b\n      eq\n      tag_14\n      jumpi\n      dup1\n      0xf5c91a08\n      eq\n      tag_15\n      jumpi\n      jump(tag_2)\n    tag_17:\n      dup1\n      0x6eeb9b10\n      eq\n      tag_9\n      jumpi\n      dup1\n      0x715018a6\n      eq\n      tag_10\n      jumpi\n      dup1\n      0x8da5cb5b\n      eq\n      tag_11\n      jumpi\n      jump(tag_2)\n    tag_16:\n      dup1\n      0x0139746c\n      eq\n      tag_3\n      jumpi\n      dup1\n      0x0f53a470\n      eq\n      tag_4\n      jumpi\n      dup1\n      0x1f54f729\n      eq\n      tag_5\n      jumpi\n      dup1\n      0x412738c8\n      eq\n      tag_6\n      jumpi\n      dup1\n      0x43f05743\n      eq\n      tag_7\n      jumpi\n      dup1\n      0x6b071cb3\n      eq\n      tag_8\n      jumpi\n    tag_2:\n      revert(0x00, 0x00)\n        /* \"contracts/core/UserIdentity_flattened.sol\":8710:8873  function setProjectAuthority(address _address) external onlyOwner { projectAuthorityAddress = _address; emit AuthorizedContractSet(\"ProjectAuthority\", _address); } */\n    tag_3:\n      tag_18\n      0x04\n      dup1\n      calldatasize\n      sub\n      dup2\n      add\n      swap1\n      tag_19\n      swap2\n      swap1\n      tag_20\n      jump\t// in\n    tag_19:\n      tag_21\n      jump\t// in\n    tag_18:\n      stop\n        /* \"contracts/core/UserIdentity_flattened.sol\":8016:8230  function getProfile(address _user) external view returns (IUserIdentity.UserProfile memory) {... */\n    tag_4:\n      tag_22\n      0x04\n      dup1\n      calldatasize\n      sub\n      dup2\n      add\n      swap1\n      tag_23\n      swap2\n      swap1\n      tag_20\n      jump\t// in\n    tag_23:\n      tag_24\n      jump\t// in\n    tag_22:\n      mload(0x40)\n      tag_25\n      swap2\n      swap1\n      tag_26\n      jump\t// in\n    tag_25:\n      mload(0x40)\n      dup1\n      swap2\n      sub\n      swap1\n      return\n        /* \"contracts/core/UserIdentity_flattened.sol\":6501:6541  address public reputationContractAddress */\n    tag_5:\n      tag_27\n      tag_28\n      jump\t// in\n    tag_27:\n      mload(0x40)\n      tag_29\n      swap2\n      swap1\n      tag_30\n      jump\t// in\n    tag_29:\n      mload(0x40)\n      dup1\n      swap2\n      sub\n      swap1\n      return\n        /* \"contracts/core/UserIdentity_flattened.sol\":7066:7661  function createProfile(string memory _username, string memory _skills, bytes memory _ipfsPortfolioHash) external {... */\n    tag_6:\n      tag_31\n      0x04\n      dup1\n      calldatasize\n      sub\n      dup2\n      add\n      swap1\n      tag_32\n      swap2\n      swap1\n      tag_33\n      jump\t// in\n    tag_32:\n      tag_34\n      jump\t// in\n    tag_31:\n      stop\n        /* \"contracts/core/UserIdentity_flattened.sol\":8399:8539  function incrementProjectsCompleted(address _user) external onlyAuthorized(projectAuthorityAddress) { profiles[_user].projectsCompleted++; } */\n    tag_7:\n      tag_35\n      0x04\n      dup1\n      calldatasize\n      sub\n      dup2\n      add\n      swap1\n      tag_36\n      swap2\n      swap1\n      tag_20\n      jump\t// in\n    tag_36:\n      tag_37\n      jump\t// in\n    tag_35:\n      stop\n        /* \"contracts/core/UserIdentity_flattened.sol\":6547:6585  address public projectAuthorityAddress */\n    tag_8:\n      tag_38\n      tag_39\n      jump\t// in\n    tag_38:\n      mload(0x40)\n      tag_40\n      swap2\n      swap1\n      tag_30\n      jump\t// in\n    tag_40:\n      mload(0x40)\n      dup1\n      swap2\n      sub\n      swap1\n      return\n        /* \"contracts/core/UserIdentity_flattened.sol\":7666:8011  function updateProfile(string memory _skills, bytes memory _ipfsPortfolioHash) external {... */\n    tag_9:\n      tag_41\n      0x04\n      dup1\n      calldatasize\n      sub\n      dup2\n      add\n      swap1\n      tag_42\n      swap2\n      swap1\n      tag_43\n      jump\t// in\n    tag_42:\n      tag_44\n      jump\t// in\n    tag_41:\n      stop\n        /* \"contracts/core/UserIdentity_flattened.sol\":3255:3356  function renounceOwnership() public virtual onlyOwner {... */\n    tag_10:\n      tag_45\n      tag_46\n      jump\t// in\n    tag_45:\n      stop\n        /* \"contracts/core/UserIdentity_flattened.sol\":2600:2685  function owner() public view virtual returns (address) {... */\n    tag_11:\n      tag_47\n      tag_48\n      jump\t// in\n    tag_47:\n      mload(0x40)\n      tag_49\n      swap2\n      swap1\n      tag_30\n      jump\t// in\n    tag_49:\n      mload(0x40)\n      dup1\n      swap2\n      sub\n      swap1\n      return\n        /* \"contracts/core/UserIdentity_flattened.sol\":8544:8705  function setReputationContract(address _address) external onlyOwner { reputationContractAddress = _address; emit AuthorizedContractSet(\"Reputation\", _address); } */\n    tag_12:\n      tag_50\n      0x04\n      dup1\n      calldatasize\n      sub\n      dup2\n      add\n      swap1\n      tag_51\n      swap2\n      swap1\n      tag_20\n      jump\t// in\n    tag_51:\n      tag_52\n      jump\t// in\n    tag_50:\n      stop\n        /* \"contracts/core/UserIdentity_flattened.sol\":6384:6445  mapping(address => IUserIdentity.UserProfile) public profiles */\n    tag_13:\n      tag_53\n      0x04\n      dup1\n      calldatasize\n      sub\n      dup2\n      add\n      swap1\n      tag_54\n      swap2\n      swap1\n      tag_20\n      jump\t// in\n    tag_54:\n      tag_55\n      jump\t// in\n    tag_53:\n      mload(0x40)\n      tag_56\n      swap7\n      swap6\n      swap5\n      swap4\n      swap3\n      swap2\n      swap1\n      tag_57\n      jump\t// in\n    tag_56:\n      mload(0x40)\n      dup1\n      swap2\n      sub\n      swap1\n      return\n        /* \"contracts/core/UserIdentity_flattened.sol\":3505:3720  function transferOwnership(address newOwner) public virtual onlyOwner {... */\n    tag_14:\n      tag_58\n      0x04\n      dup1\n      calldatasize\n      sub\n      dup2\n      add\n      swap1\n      tag_59\n      swap2\n      swap1\n      tag_20\n      jump\t// in\n    tag_59:\n      tag_60\n      jump\t// in\n    tag_58:\n      stop\n        /* \"contracts/core/UserIdentity_flattened.sol\":8235:8394  function updateReputation(address _user, uint256 _newScore) external onlyAuthorized(reputationContractAddress) { profiles[_user].reputationScore = _newScore; } */\n    tag_15:\n      tag_61\n      0x04\n      dup1\n      calldatasize\n      sub\n      dup2\n      add\n      swap1\n      tag_62\n      swap2\n      swap1\n      tag_63\n      jump\t// in\n    tag_62:\n      tag_64\n      jump\t// in\n    tag_61:\n      stop\n        /* \"contracts/core/UserIdentity_flattened.sol\":8710:8873  function setProjectAuthority(address _address) external onlyOwner { projectAuthorityAddress = _address; emit AuthorizedContractSet(\"ProjectAuthority\", _address); } */\n    tag_21:\n        /* \"contracts/core/UserIdentity_flattened.sol\":2493:2506  _checkOwner() */\n      tag_66\n        /* \"contracts/core/UserIdentity_flattened.sol\":2493:2504  _checkOwner */\n      tag_67\n        /* \"contracts/core/UserIdentity_flattened.sol\":2493:2506  _checkOwner() */\n      jump\t// in\n    tag_66:\n        /* \"contracts/core/UserIdentity_flattened.sol\":8804:8812  _address */\n      dup1\n        /* \"contracts/core/UserIdentity_flattened.sol\":8778:8801  projectAuthorityAddress */\n      0x04\n      0x00\n        /* \"contracts/core/UserIdentity_flattened.sol\":8778:8812  projectAuthorityAddress = _address */\n      0x0100\n      exp\n      dup2\n      sload\n      dup2\n      0xffffffffffffffffffffffffffffffffffffffff\n      mul\n      not\n      and\n      swap1\n      dup4\n      0xffffffffffffffffffffffffffffffffffffffff\n      and\n      mul\n      or\n      swap1\n      sstore\n      pop\n        /* \"contracts/core/UserIdentity_flattened.sol\":8861:8869  _address */\n      dup1\n        /* \"contracts/core/UserIdentity_flattened.sol\":8819:8870  AuthorizedContractSet(\"ProjectAuthority\", _address) */\n      0xffffffffffffffffffffffffffffffffffffffff\n      and\n      mload(0x40)\n      tag_69\n      swap1\n      tag_70\n      jump\t// in\n    tag_69:\n      mload(0x40)\n      dup1\n      swap2\n      sub\n      swap1\n      keccak256\n      0xb67ae4aaf94e550de2207405b340f22ed2172f1ad8f6bbccab6b5dfcd8c72b37\n      mload(0x40)\n      mload(0x40)\n      dup1\n      swap2\n      sub\n      swap1\n      log3\n        /* \"contracts/core/UserIdentity_flattened.sol\":8710:8873  function setProjectAuthority(address _address) external onlyOwner { projectAuthorityAddress = _address; emit AuthorizedContractSet(\"ProjectAuthority\", _address); } */\n      pop\n      jump\t// out\n        /* \"contracts/core/UserIdentity_flattened.sol\":8016:8230  function getProfile(address _user) external view returns (IUserIdentity.UserProfile memory) {... */\n    tag_24:\n        /* \"contracts/core/UserIdentity_flattened.sol\":8074:8106  IUserIdentity.UserProfile memory */\n      tag_71\n      tag_72\n      jump\t// in\n    tag_71:\n        /* \"contracts/core/UserIdentity_flattened.sol\":8161:8162  0 */\n      0x00\n        /* \"contracts/core/UserIdentity_flattened.sol\":8122:8163  profiles[_user].userAddress == address(0) */\n      0xffffffffffffffffffffffffffffffffffffffff\n      and\n        /* \"contracts/core/UserIdentity_flattened.sol\":8122:8130  profiles */\n      0x01\n        /* \"contracts/core/UserIdentity_flattened.sol\":8122:8137  profiles[_user] */\n      0x00\n        /* \"contracts/core/UserIdentity_flattened.sol\":8131:8136  _user */\n      dup5\n        /* \"contracts/core/UserIdentity_flattened.sol\":8122:8137  profiles[_user] */\n      0xffffffffffffffffffffffffffffffffffffffff\n      and\n      0xffffffffffffffffffffffffffffffffffffffff\n      and\n      dup2\n      mstore\n      0x20\n      add\n      swap1\n      dup2\n      mstore\n      0x20\n      add\n      0x00\n      keccak256\n        /* \"contracts/core/UserIdentity_flattened.sol\":8122:8149  profiles[_user].userAddress */\n      0x00\n      add\n      0x00\n      swap1\n      sload\n      swap1\n      0x0100\n      exp\n      swap1\n      div\n      0xffffffffffffffffffffffffffffffffffffffff\n      and\n        /* \"contracts/core/UserIdentity_flattened.sol\":8122:8163  profiles[_user].userAddress == address(0) */\n      0xffffffffffffffffffffffffffffffffffffffff\n      and\n      sub\n        /* \"contracts/core/UserIdentity_flattened.sol\":8118:8191  if (profiles[_user].userAddress == address(0)) revert UserNotFound(_user) */\n      tag_74\n      jumpi\n        /* \"contracts/core/UserIdentity_flattened.sol\":8185:8190  _user */\n      dup2\n        /* \"contracts/core/UserIdentity_flattened.sol\":8172:8191  UserNotFound(_user) */\n      mload(0x40)\n      0x4fae3c9a00000000000000000000000000000000000000000000000000000000\n      dup2\n      mstore\n      0x04\n      add\n      tag_75\n      swap2\n      swap1\n      tag_30\n      jump\t// in\n    tag_75:\n      mload(0x40)\n      dup1\n      swap2\n      sub\n      swap1\n      revert\n        /* \"contracts/core/UserIdentity_flattened.sol\":8118:8191  if (profiles[_user].userAddress == address(0)) revert UserNotFound(_user) */\n    tag_74:\n        /* \"contracts/core/UserIdentity_flattened.sol\":8208:8216  profiles */\n      0x01\n        /* \"contracts/core/UserIdentity_flattened.sol\":8208:8223  profiles[_user] */\n      0x00\n        /* \"contracts/core/UserIdentity_flattened.sol\":8217:8222  _user */\n      dup4\n        /* \"contracts/core/UserIdentity_flattened.sol\":8208:8223  profiles[_user] */\n      0xffffffffffffffffffffffffffffffffffffffff\n      and\n      0xffffffffffffffffffffffffffffffffffffffff\n      and\n      dup2\n      mstore\n      0x20\n      add\n      swap1\n      dup2\n      mstore\n      0x20\n      add\n      0x00\n      keccak256\n        /* \"contracts/core/UserIdentity_flattened.sol\":8201:8223  return profiles[_user] */\n      mload(0x40)\n      dup1\n      0xc0\n      add\n      0x40\n      mstore\n      swap1\n      dup2\n      0x00\n      dup3\n      add\n      0x00\n      swap1\n      sload\n      swap1\n      0x0100\n      exp\n      swap1\n      div\n      0xffffffffffffffffffffffffffffffffffffffff\n      and\n      0xffffffffffffffffffffffffffffffffffffffff\n      and\n      0xffffffffffffffffffffffffffffffffffffffff\n      and\n      dup2\n      mstore\n      0x20\n      add\n      0x01\n      dup3\n      add\n      dup1\n      sload\n      tag_76\n      swap1\n      tag_77\n      jump\t// in\n    tag_76:\n      dup1\n      0x1f\n      add\n      0x20\n      dup1\n      swap2\n      div\n      mul\n      0x20\n      add\n      mload(0x40)\n      swap1\n      dup2\n      add\n      0x40\n      mstore\n      dup1\n      swap3\n      swap2\n      swap1\n      dup2\n      dup2\n      mstore\n      0x20\n      add\n      dup3\n      dup1\n      sload\n      tag_78\n      swap1\n      tag_77\n      jump\t// in\n    tag_78:\n      dup1\n      iszero\n      tag_79\n      jumpi\n      dup1\n      0x1f\n      lt\n      tag_80\n      jumpi\n      0x0100\n      dup1\n      dup4\n      sload\n      div\n      mul\n      dup4\n      mstore\n      swap2\n      0x20\n      add\n      swap2\n      jump(tag_79)\n    tag_80:\n      dup3\n      add\n      swap2\n      swap1\n      0x00\n      mstore\n      keccak256(0x00, 0x20)\n      swap1\n    tag_81:\n      dup2\n      sload\n      dup2\n      mstore\n      swap1\n      0x01\n      add\n      swap1\n      0x20\n      add\n      dup1\n      dup4\n      gt\n      tag_81\n      jumpi\n      dup3\n      swap1\n      sub\n      0x1f\n      and\n      dup3\n      add\n      swap2\n    tag_79:\n      pop\n      pop\n      pop\n      pop\n      pop\n      dup2\n      mstore\n      0x20\n      add\n      0x02\n      dup3\n      add\n      dup1\n      sload\n      tag_82\n      swap1\n      tag_77\n      jump\t// in\n    tag_82:\n      dup1\n      0x1f\n      add\n      0x20\n      dup1\n      swap2\n      div\n      mul\n      0x20\n      add\n      mload(0x40)\n      swap1\n      dup2\n      add\n      0x40\n      mstore\n      dup1\n      swap3\n      swap2\n      swap1\n      dup2\n      dup2\n      mstore\n      0x20\n      add\n      dup3\n      dup1\n      sload\n      tag_83\n      swap1\n      tag_77\n      jump\t// in\n    tag_83:\n      dup1\n      iszero\n      tag_84\n      jumpi\n      dup1\n      0x1f\n      lt\n      tag_85\n      jumpi\n      0x0100\n      dup1\n      dup4\n      sload\n      div\n      mul\n      dup4\n      mstore\n      swap2\n      0x20\n      add\n      swap2\n      jump(tag_84)\n    tag_85:\n      dup3\n      add\n      swap2\n      swap1\n      0x00\n      mstore\n      keccak256(0x00, 0x20)\n      swap1\n    tag_86:\n      dup2\n      sload\n      dup2\n      mstore\n      swap1\n      0x01\n      add\n      swap1\n      0x20\n      add\n      dup1\n      dup4\n      gt\n      tag_86\n      jumpi\n      dup3\n      swap1\n      sub\n      0x1f\n      and\n      dup3\n      add\n      swap2\n    tag_84:\n      pop\n      pop\n      pop\n      pop\n      pop\n      dup2\n      mstore\n      0x20\n      add\n      0x03\n      dup3\n      add\n      dup1\n      sload\n      tag_87\n      swap1\n      tag_77\n      jump\t// in\n    tag_87:\n      dup1\n      0x1f\n      add\n      0x20\n      dup1\n      swap2\n      div\n      mul\n      0x20\n      add\n      mload(0x40)\n      swap1\n      dup2\n      add\n      0x40\n      mstore\n      dup1\n      swap3\n      swap2\n      swap1\n      dup2\n      dup2\n      mstore\n      0x20\n      add\n      dup3\n      dup1\n      sload\n      tag_88\n      swap1\n      tag_77\n      jump\t// in\n    tag_88:\n      dup1\n      iszero\n      tag_89\n      jumpi\n      dup1\n      0x1f\n      lt\n      tag_90\n      jumpi\n      0x0100\n      dup1\n      dup4\n      sload\n      div\n      mul\n      dup4\n      mstore\n      swap2\n      0x20\n      add\n      swap2\n      jump(tag_89)\n    tag_90:\n      dup3\n      add\n      swap2\n      swap1\n      0x00\n      mstore\n      keccak256(0x00, 0x20)\n      swap1\n    tag_91:\n      dup2\n      sload\n      dup2\n      mstore\n      swap1\n      0x01\n      add\n      swap1\n      0x20\n      add\n      dup1\n      dup4\n      gt\n      tag_91\n      jumpi\n      dup3\n      swap1\n      sub\n      0x1f\n      and\n      dup3\n      add\n      swap2\n    tag_89:\n      pop\n      pop\n      pop\n      pop\n      pop\n      dup2\n      mstore\n      0x20\n      add\n      0x04\n      dup3\n      add\n      sload\n      dup2\n      mstore\n      0x20\n      add\n      0x05\n      dup3\n      add\n      sload\n      dup2\n      mstore\n      pop\n      pop\n      swap1\n      pop\n        /* \"contracts/core/UserIdentity_flattened.sol\":8016:8230  function getProfile(address _user) external view returns (IUserIdentity.UserProfile memory) {... */\n      swap2\n      swap1\n      pop\n      jump\t// out\n        /* \"contracts/core/UserIdentity_flattened.sol\":6501:6541  address public reputationContractAddress */\n    tag_28:\n      0x03\n      0x00\n      swap1\n      sload\n      swap1\n      0x0100\n      exp\n      swap1\n      div\n      0xffffffffffffffffffffffffffffffffffffffff\n      and\n      dup2\n      jump\t// out\n        /* \"contracts/core/UserIdentity_flattened.sol\":7066:7661  function createProfile(string memory _username, string memory _skills, bytes memory _ipfsPortfolioHash) external {... */\n    tag_34:\n        /* \"contracts/core/UserIdentity_flattened.sol\":7237:7238  0 */\n      0x00\n        /* \"contracts/core/UserIdentity_flattened.sol\":7193:7239  profiles[msg.sender].userAddress != address(0) */\n      0xffffffffffffffffffffffffffffffffffffffff\n      and\n        /* \"contracts/core/UserIdentity_flattened.sol\":7193:7201  profiles */\n      0x01\n        /* \"contracts/core/UserIdentity_flattened.sol\":7193:7213  profiles[msg.sender] */\n      0x00\n        /* \"contracts/core/UserIdentity_flattened.sol\":7202:7212  msg.sender */\n      caller\n        /* \"contracts/core/UserIdentity_flattened.sol\":7193:7213  profiles[msg.sender] */\n      0xffffffffffffffffffffffffffffffffffffffff\n      and\n      0xffffffffffffffffffffffffffffffffffffffff\n      and\n      dup2\n      mstore\n      0x20\n      add\n      swap1\n      dup2\n      mstore\n      0x20\n      add\n      0x00\n      keccak256\n        /* \"contracts/core/UserIdentity_flattened.sol\":7193:7225  profiles[msg.sender].userAddress */\n      0x00\n      add\n      0x00\n      swap1\n      sload\n      swap1\n      0x0100\n      exp\n      swap1\n      div\n      0xffffffffffffffffffffffffffffffffffffffff\n      and\n        /* \"contracts/core/UserIdentity_flattened.sol\":7193:7239  profiles[msg.sender].userAddress != address(0) */\n      0xffffffffffffffffffffffffffffffffffffffff\n      and\n      eq\n        /* \"contracts/core/UserIdentity_flattened.sol\":7189:7270  if (profiles[msg.sender].userAddress != address(0)) revert(\"User already exists\") */\n      tag_93\n      jumpi\n        /* \"contracts/core/UserIdentity_flattened.sol\":7241:7270  revert(\"User already exists\") */\n      mload(0x40)\n      0x08c379a000000000000000000000000000000000000000000000000000000000\n      dup2\n      mstore\n      0x04\n      add\n      tag_94\n      swap1\n      tag_95\n      jump\t// in\n    tag_94:\n      mload(0x40)\n      dup1\n      swap2\n      sub\n      swap1\n      revert\n        /* \"contracts/core/UserIdentity_flattened.sol\":7189:7270  if (profiles[msg.sender].userAddress != address(0)) revert(\"User already exists\") */\n    tag_93:\n        /* \"contracts/core/UserIdentity_flattened.sol\":7316:7317  0 */\n      0x00\n        /* \"contracts/core/UserIdentity_flattened.sol\":7284:7318  usernames[_username] != address(0) */\n      0xffffffffffffffffffffffffffffffffffffffff\n      and\n        /* \"contracts/core/UserIdentity_flattened.sol\":7284:7293  usernames */\n      0x02\n        /* \"contracts/core/UserIdentity_flattened.sol\":7294:7303  _username */\n      dup5\n        /* \"contracts/core/UserIdentity_flattened.sol\":7284:7304  usernames[_username] */\n      mload(0x40)\n      tag_96\n      swap2\n      swap1\n      tag_97\n      jump\t// in\n    tag_96:\n      swap1\n      dup2\n      mstore\n      0x20\n      add\n      mload(0x40)\n      dup1\n      swap2\n      sub\n      swap1\n      keccak256\n      0x00\n      swap1\n      sload\n      swap1\n      0x0100\n      exp\n      swap1\n      div\n      0xffffffffffffffffffffffffffffffffffffffff\n      and\n        /* \"contracts/core/UserIdentity_flattened.sol\":7284:7318  usernames[_username] != address(0) */\n      0xffffffffffffffffffffffffffffffffffffffff\n      and\n      eq\n        /* \"contracts/core/UserIdentity_flattened.sol\":7280:7351  if (usernames[_username] != address(0)) revert UsernameTaken(_username) */\n      tag_98\n      jumpi\n        /* \"contracts/core/UserIdentity_flattened.sol\":7341:7350  _username */\n      dup3\n        /* \"contracts/core/UserIdentity_flattened.sol\":7327:7351  UsernameTaken(_username) */\n      mload(0x40)\n      0x2b4e256700000000000000000000000000000000000000000000000000000000\n      dup2\n      mstore\n      0x04\n      add\n      tag_99\n      swap2\n      swap1\n      tag_100\n      jump\t// in\n    tag_99:\n      mload(0x40)\n      dup1\n      swap2\n      sub\n      swap1\n      revert\n        /* \"contracts/core/UserIdentity_flattened.sol\":7280:7351  if (usernames[_username] != address(0)) revert UsernameTaken(_username) */\n    tag_98:\n        /* \"contracts/core/UserIdentity_flattened.sol\":7384:7559  IUserIdentity.UserProfile({ userAddress: msg.sender, username: _username, skills: _skills, ipfsPortfolioHash: _ipfsPortfolioHash, reputationScore: 100, projectsCompleted: 0 }) */\n      mload(0x40)\n      dup1\n      0xc0\n      add\n      0x40\n      mstore\n      dup1\n        /* \"contracts/core/UserIdentity_flattened.sol\":7425:7435  msg.sender */\n      caller\n        /* \"contracts/core/UserIdentity_flattened.sol\":7384:7559  IUserIdentity.UserProfile({ userAddress: msg.sender, username: _username, skills: _skills, ipfsPortfolioHash: _ipfsPortfolioHash, reputationScore: 100, projectsCompleted: 0 }) */\n      0xffffffffffffffffffffffffffffffffffffffff\n      and\n      dup2\n      mstore\n      0x20\n      add\n        /* \"contracts/core/UserIdentity_flattened.sol\":7447:7456  _username */\n      dup5\n        /* \"contracts/core/UserIdentity_flattened.sol\":7384:7559  IUserIdentity.UserProfile({ userAddress: msg.sender, username: _username, skills: _skills, ipfsPortfolioHash: _ipfsPortfolioHash, reputationScore: 100, projectsCompleted: 0 }) */\n      dup2\n      mstore\n      0x20\n      add\n        /* \"contracts/core/UserIdentity_flattened.sol\":7466:7473  _skills */\n      dup4\n        /* \"contracts/core/UserIdentity_flattened.sol\":7384:7559  IUserIdentity.UserProfile({ userAddress: msg.sender, username: _username, skills: _skills, ipfsPortfolioHash: _ipfsPortfolioHash, reputationScore: 100, projectsCompleted: 0 }) */\n      dup2\n      mstore\n      0x20\n      add\n        /* \"contracts/core/UserIdentity_flattened.sol\":7494:7512  _ipfsPortfolioHash */\n      dup3\n        /* \"contracts/core/UserIdentity_flattened.sol\":7384:7559  IUserIdentity.UserProfile({ userAddress: msg.sender, username: _username, skills: _skills, ipfsPortfolioHash: _ipfsPortfolioHash, reputationScore: 100, projectsCompleted: 0 }) */\n      dup2\n      mstore\n      0x20\n      add\n        /* \"contracts/core/UserIdentity_flattened.sol\":7531:7534  100 */\n      0x64\n        /* \"contracts/core/UserIdentity_flattened.sol\":7384:7559  IUserIdentity.UserProfile({ userAddress: msg.sender, username: _username, skills: _skills, ipfsPortfolioHash: _ipfsPortfolioHash, reputationScore: 100, projectsCompleted: 0 }) */\n      dup2\n      mstore\n      0x20\n      add\n        /* \"contracts/core/UserIdentity_flattened.sol\":7555:7556  0 */\n      0x00\n        /* \"contracts/core/UserIdentity_flattened.sol\":7384:7559  IUserIdentity.UserProfile({ userAddress: msg.sender, username: _username, skills: _skills, ipfsPortfolioHash: _ipfsPortfolioHash, reputationScore: 100, projectsCompleted: 0 }) */\n      dup2\n      mstore\n      pop\n        /* \"contracts/core/UserIdentity_flattened.sol\":7361:7369  profiles */\n      0x01\n        /* \"contracts/core/UserIdentity_flattened.sol\":7361:7381  profiles[msg.sender] */\n      0x00\n        /* \"contracts/core/UserIdentity_flattened.sol\":7370:7380  msg.sender */\n      caller\n        /* \"contracts/core/UserIdentity_flattened.sol\":7361:7381  profiles[msg.sender] */\n      0xffffffffffffffffffffffffffffffffffffffff\n      and\n      0xffffffffffffffffffffffffffffffffffffffff\n      and\n      dup2\n      mstore\n      0x20\n      add\n      swap1\n      dup2\n      mstore\n      0x20\n      add\n      0x00\n      keccak256\n        /* \"contracts/core/UserIdentity_flattened.sol\":7361:7559  profiles[msg.sender] = IUserIdentity.UserProfile({ userAddress: msg.sender, username: _username, skills: _skills, ipfsPortfolioHash: _ipfsPortfolioHash, reputationScore: 100, projectsCompleted: 0 }) */\n      0x00\n      dup3\n      add\n      mload\n      dup2\n      0x00\n      add\n      exp(0x0100, 0x00)\n      dup2\n      sload\n      dup2\n      0xffffffffffffffffffffffffffffffffffffffff\n      mul\n      not\n      and\n      swap1\n      dup4\n      0xffffffffffffffffffffffffffffffffffffffff\n      and\n      mul\n      or\n      swap1\n      sstore\n      pop\n      0x20\n      dup3\n      add\n      mload\n      dup2\n      0x01\n      add\n      swap1\n      dup2\n      tag_101\n      swap2\n      swap1\n      tag_102\n      jump\t// in\n    tag_101:\n      pop\n      0x40\n      dup3\n      add\n      mload\n      dup2\n      0x02\n      add\n      swap1\n      dup2\n      tag_103\n      swap2\n      swap1\n      tag_102\n      jump\t// in\n    tag_103:\n      pop\n      0x60\n      dup3\n      add\n      mload\n      dup2\n      0x03\n      add\n      swap1\n      dup2\n      tag_104\n      swap2\n      swap1\n      tag_105\n      jump\t// in\n    tag_104:\n      pop\n      0x80\n      dup3\n      add\n      mload\n      dup2\n      0x04\n      add\n      sstore\n      0xa0\n      dup3\n      add\n      mload\n      dup2\n      0x05\n      add\n      sstore\n      swap1\n      pop\n      pop\n        /* \"contracts/core/UserIdentity_flattened.sol\":7592:7602  msg.sender */\n      caller\n        /* \"contracts/core/UserIdentity_flattened.sol\":7569:7578  usernames */\n      0x02\n        /* \"contracts/core/UserIdentity_flattened.sol\":7579:7588  _username */\n      dup5\n        /* \"contracts/core/UserIdentity_flattened.sol\":7569:7589  usernames[_username] */\n      mload(0x40)\n      tag_106\n      swap2\n      swap1\n      tag_97\n      jump\t// in\n    tag_106:\n      swap1\n      dup2\n      mstore\n      0x20\n      add\n      mload(0x40)\n      dup1\n      swap2\n      sub\n      swap1\n      keccak256\n      0x00\n        /* \"contracts/core/UserIdentity_flattened.sol\":7569:7602  usernames[_username] = msg.sender */\n      0x0100\n      exp\n      dup2\n      sload\n      dup2\n      0xffffffffffffffffffffffffffffffffffffffff\n      mul\n      not\n      and\n      swap1\n      dup4\n      0xffffffffffffffffffffffffffffffffffffffff\n      and\n      mul\n      or\n      swap1\n      sstore\n      pop\n        /* \"contracts/core/UserIdentity_flattened.sol\":7632:7642  msg.sender */\n      caller\n        /* \"contracts/core/UserIdentity_flattened.sol\":7617:7654  ProfileCreated(msg.sender, _username) */\n      0xffffffffffffffffffffffffffffffffffffffff\n      and\n      0xbafddecbd1dec1c1afb76d693f1de16901f521bdf29a02438e3e6806c0b8d948\n        /* \"contracts/core/UserIdentity_flattened.sol\":7644:7653  _username */\n      dup5\n        /* \"contracts/core/UserIdentity_flattened.sol\":7617:7654  ProfileCreated(msg.sender, _username) */\n      mload(0x40)\n      tag_107\n      swap2\n      swap1\n      tag_100\n      jump\t// in\n    tag_107:\n      mload(0x40)\n      dup1\n      swap2\n      sub\n      swap1\n      log2\n        /* \"contracts/core/UserIdentity_flattened.sol\":7066:7661  function createProfile(string memory _username, string memory _skills, bytes memory _ipfsPortfolioHash) external {... */\n      pop\n      pop\n      pop\n      jump\t// out\n        /* \"contracts/core/UserIdentity_flattened.sol\":8399:8539  function incrementProjectsCompleted(address _user) external onlyAuthorized(projectAuthorityAddress) { profiles[_user].projectsCompleted++; } */\n    tag_37:\n        /* \"contracts/core/UserIdentity_flattened.sol\":8474:8497  projectAuthorityAddress */\n      0x04\n      0x00\n      swap1\n      sload\n      swap1\n      0x0100\n      exp\n      swap1\n      div\n      0xffffffffffffffffffffffffffffffffffffffff\n      and\n        /* \"contracts/core/UserIdentity_flattened.sol\":7023:7032  authority */\n      dup1\n        /* \"contracts/core/UserIdentity_flattened.sol\":7009:7032  msg.sender != authority */\n      0xffffffffffffffffffffffffffffffffffffffff\n      and\n        /* \"contracts/core/UserIdentity_flattened.sol\":7009:7019  msg.sender */\n      caller\n        /* \"contracts/core/UserIdentity_flattened.sol\":7009:7032  msg.sender != authority */\n      0xffffffffffffffffffffffffffffffffffffffff\n      and\n      eq\n        /* \"contracts/core/UserIdentity_flattened.sol\":7005:7055  if (msg.sender != authority) revert Unauthorized() */\n      tag_109\n      jumpi\n        /* \"contracts/core/UserIdentity_flattened.sol\":7041:7055  Unauthorized() */\n      mload(0x40)\n      0x82b4290000000000000000000000000000000000000000000000000000000000\n      dup2\n      mstore\n      0x04\n      add\n      mload(0x40)\n      dup1\n      swap2\n      sub\n      swap1\n      revert\n        /* \"contracts/core/UserIdentity_flattened.sol\":7005:7055  if (msg.sender != authority) revert Unauthorized() */\n    tag_109:\n        /* \"contracts/core/UserIdentity_flattened.sol\":8501:8509  profiles */\n      0x01\n        /* \"contracts/core/UserIdentity_flattened.sol\":8501:8516  profiles[_user] */\n      0x00\n        /* \"contracts/core/UserIdentity_flattened.sol\":8510:8515  _user */\n      dup4\n        /* \"contracts/core/UserIdentity_flattened.sol\":8501:8516  profiles[_user] */\n      0xffffffffffffffffffffffffffffffffffffffff\n      and\n      0xffffffffffffffffffffffffffffffffffffffff\n      and\n      dup2\n      mstore\n      0x20\n      add\n      swap1\n      dup2\n      mstore\n      0x20\n      add\n      0x00\n      keccak256\n        /* \"contracts/core/UserIdentity_flattened.sol\":8501:8534  profiles[_user].projectsCompleted */\n      0x05\n      add\n      0x00\n        /* \"contracts/core/UserIdentity_flattened.sol\":8501:8536  profiles[_user].projectsCompleted++ */\n      dup2\n      sload\n      dup1\n      swap3\n      swap2\n      swap1\n      tag_111\n      swap1\n      tag_112\n      jump\t// in\n    tag_111:\n      swap2\n      swap1\n      pop\n      sstore\n      pop\n        /* \"contracts/core/UserIdentity_flattened.sol\":8399:8539  function incrementProjectsCompleted(address _user) external onlyAuthorized(projectAuthorityAddress) { profiles[_user].projectsCompleted++; } */\n      pop\n      pop\n      jump\t// out\n        /* \"contracts/core/UserIdentity_flattened.sol\":6547:6585  address public projectAuthorityAddress */\n    tag_39:\n      0x04\n      0x00\n      swap1\n      sload\n      swap1\n      0x0100\n      exp\n      swap1\n      div\n      0xffffffffffffffffffffffffffffffffffffffff\n      and\n      dup2\n      jump\t// out\n        /* \"contracts/core/UserIdentity_flattened.sol\":7666:8011  function updateProfile(string memory _skills, bytes memory _ipfsPortfolioHash) external {... */\n    tag_44:\n        /* \"contracts/core/UserIdentity_flattened.sol\":7812:7813  0 */\n      0x00\n        /* \"contracts/core/UserIdentity_flattened.sol\":7768:7814  profiles[msg.sender].userAddress == address(0) */\n      0xffffffffffffffffffffffffffffffffffffffff\n      and\n        /* \"contracts/core/UserIdentity_flattened.sol\":7768:7776  profiles */\n      0x01\n        /* \"contracts/core/UserIdentity_flattened.sol\":7768:7788  profiles[msg.sender] */\n      0x00\n        /* \"contracts/core/UserIdentity_flattened.sol\":7777:7787  msg.sender */\n      caller\n        /* \"contracts/core/UserIdentity_flattened.sol\":7768:7788  profiles[msg.sender] */\n      0xffffffffffffffffffffffffffffffffffffffff\n      and\n      0xffffffffffffffffffffffffffffffffffffffff\n      and\n      dup2\n      mstore\n      0x20\n      add\n      swap1\n      dup2\n      mstore\n      0x20\n      add\n      0x00\n      keccak256\n        /* \"contracts/core/UserIdentity_flattened.sol\":7768:7800  profiles[msg.sender].userAddress */\n      0x00\n      add\n      0x00\n      swap1\n      sload\n      swap1\n      0x0100\n      exp\n      swap1\n      div\n      0xffffffffffffffffffffffffffffffffffffffff\n      and\n        /* \"contracts/core/UserIdentity_flattened.sol\":7768:7814  profiles[msg.sender].userAddress == address(0) */\n      0xffffffffffffffffffffffffffffffffffffffff\n      and\n      sub\n        /* \"contracts/core/UserIdentity_flattened.sol\":7764:7847  if (profiles[msg.sender].userAddress == address(0)) revert UserNotFound(msg.sender) */\n      tag_114\n      jumpi\n        /* \"contracts/core/UserIdentity_flattened.sol\":7836:7846  msg.sender */\n      caller\n        /* \"contracts/core/UserIdentity_flattened.sol\":7823:7847  UserNotFound(msg.sender) */\n      mload(0x40)\n      0x4fae3c9a00000000000000000000000000000000000000000000000000000000\n      dup2\n      mstore\n      0x04\n      add\n      tag_115\n      swap2\n      swap1\n      tag_30\n      jump\t// in\n    tag_115:\n      mload(0x40)\n      dup1\n      swap2\n      sub\n      swap1\n      revert\n        /* \"contracts/core/UserIdentity_flattened.sol\":7764:7847  if (profiles[msg.sender].userAddress == address(0)) revert UserNotFound(msg.sender) */\n    tag_114:\n        /* \"contracts/core/UserIdentity_flattened.sol\":7887:7894  _skills */\n      dup2\n        /* \"contracts/core/UserIdentity_flattened.sol\":7857:7865  profiles */\n      0x01\n        /* \"contracts/core/UserIdentity_flattened.sol\":7857:7877  profiles[msg.sender] */\n      0x00\n        /* \"contracts/core/UserIdentity_flattened.sol\":7866:7876  msg.sender */\n      caller\n        /* \"contracts/core/UserIdentity_flattened.sol\":7857:7877  profiles[msg.sender] */\n      0xffffffffffffffffffffffffffffffffffffffff\n      and\n      0xffffffffffffffffffffffffffffffffffffffff\n      and\n      dup2\n      mstore\n      0x20\n      add\n      swap1\n      dup2\n      mstore\n      0x20\n      add\n      0x00\n      keccak256\n        /* \"contracts/core/UserIdentity_flattened.sol\":7857:7884  profiles[msg.sender].skills */\n      0x02\n      add\n        /* \"contracts/core/UserIdentity_flattened.sol\":7857:7894  profiles[msg.sender].skills = _skills */\n      swap1\n      dup2\n      tag_116\n      swap2\n      swap1\n      tag_102\n      jump\t// in\n    tag_116:\n      pop\n        /* \"contracts/core/UserIdentity_flattened.sol\":7945:7963  _ipfsPortfolioHash */\n      dup1\n        /* \"contracts/core/UserIdentity_flattened.sol\":7904:7912  profiles */\n      0x01\n        /* \"contracts/core/UserIdentity_flattened.sol\":7904:7924  profiles[msg.sender] */\n      0x00\n        /* \"contracts/core/UserIdentity_flattened.sol\":7913:7923  msg.sender */\n      caller\n        /* \"contracts/core/UserIdentity_flattened.sol\":7904:7924  profiles[msg.sender] */\n      0xffffffffffffffffffffffffffffffffffffffff\n      and\n      0xffffffffffffffffffffffffffffffffffffffff\n      and\n      dup2\n      mstore\n      0x20\n      add\n      swap1\n      dup2\n      mstore\n      0x20\n      add\n      0x00\n      keccak256\n        /* \"contracts/core/UserIdentity_flattened.sol\":7904:7942  profiles[msg.sender].ipfsPortfolioHash */\n      0x03\n      add\n        /* \"contracts/core/UserIdentity_flattened.sol\":7904:7963  profiles[msg.sender].ipfsPortfolioHash = _ipfsPortfolioHash */\n      swap1\n      dup2\n      tag_117\n      swap2\n      swap1\n      tag_105\n      jump\t// in\n    tag_117:\n      pop\n        /* \"contracts/core/UserIdentity_flattened.sol\":7993:8003  msg.sender */\n      caller\n        /* \"contracts/core/UserIdentity_flattened.sol\":7978:8004  ProfileUpdated(msg.sender) */\n      0xffffffffffffffffffffffffffffffffffffffff\n      and\n      0xbe4ec58a792f909e102ee3d745d0c3b34a4d437a54d903c4db098d31c556422f\n      mload(0x40)\n      mload(0x40)\n      dup1\n      swap2\n      sub\n      swap1\n      log2\n        /* \"contracts/core/UserIdentity_flattened.sol\":7666:8011  function updateProfile(string memory _skills, bytes memory _ipfsPortfolioHash) external {... */\n      pop\n      pop\n      jump\t// out\n        /* \"contracts/core/UserIdentity_flattened.sol\":3255:3356  function renounceOwnership() public virtual onlyOwner {... */\n    tag_46:\n        /* \"contracts/core/UserIdentity_flattened.sol\":2493:2506  _checkOwner() */\n      tag_119\n        /* \"contracts/core/UserIdentity_flattened.sol\":2493:2504  _checkOwner */\n      tag_67\n        /* \"contracts/core/UserIdentity_flattened.sol\":2493:2506  _checkOwner() */\n      jump\t// in\n    tag_119:\n        /* \"contracts/core/UserIdentity_flattened.sol\":3319:3349  _transferOwnership(address(0)) */\n      tag_121\n        /* \"contracts/core/UserIdentity_flattened.sol\":3346:3347  0 */\n      0x00\n        /* \"contracts/core/UserIdentity_flattened.sol\":3319:3337  _transferOwnership */\n      tag_122\n        /* \"contracts/core/UserIdentity_flattened.sol\":3319:3349  _transferOwnership(address(0)) */\n      jump\t// in\n    tag_121:\n        /* \"contracts/core/UserIdentity_flattened.sol\":3255:3356  function renounceOwnership() public virtual onlyOwner {... */\n      jump\t// out\n        /* \"contracts/core/UserIdentity_flattened.sol\":2600:2685  function owner() public view virtual returns (address) {... */\n    tag_48:\n        /* \"contracts/core/UserIdentity_flattened.sol\":2646:2653  address */\n      0x00\n        /* \"contracts/core/UserIdentity_flattened.sol\":2672:2678  _owner */\n      0x00\n      0x00\n      swap1\n      sload\n      swap1\n      0x0100\n      exp\n      swap1\n      div\n      0xffffffffffffffffffffffffffffffffffffffff\n      and\n        /* \"contracts/core/UserIdentity_flattened.sol\":2665:2678  return _owner */\n      swap1\n      pop\n        /* \"contracts/core/UserIdentity_flattened.sol\":2600:2685  function owner() public view virtual returns (address) {... */\n      swap1\n      jump\t// out\n        /* \"contracts/core/UserIdentity_flattened.sol\":8544:8705  function setReputationContract(address _address) external onlyOwner { reputationContractAddress = _address; emit AuthorizedContractSet(\"Reputation\", _address); } */\n    tag_52:\n        /* \"contracts/core/UserIdentity_flattened.sol\":2493:2506  _checkOwner() */\n      tag_125\n        /* \"contracts/core/UserIdentity_flattened.sol\":2493:2504  _checkOwner */\n      tag_67\n        /* \"contracts/core/UserIdentity_flattened.sol\":2493:2506  _checkOwner() */\n      jump\t// in\n    tag_125:\n        /* \"contracts/core/UserIdentity_flattened.sol\":8642:8650  _address */\n      dup1\n        /* \"contracts/core/UserIdentity_flattened.sol\":8614:8639  reputationContractAddress */\n      0x03\n      0x00\n        /* \"contracts/core/UserIdentity_flattened.sol\":8614:8650  reputationContractAddress = _address */\n      0x0100\n      exp\n      dup2\n      sload\n      dup2\n      0xffffffffffffffffffffffffffffffffffffffff\n      mul\n      not\n      and\n      swap1\n      dup4\n      0xffffffffffffffffffffffffffffffffffffffff\n      and\n      mul\n      or\n      swap1\n      sstore\n      pop\n        /* \"contracts/core/UserIdentity_flattened.sol\":8693:8701  _address */\n      dup1\n        /* \"contracts/core/UserIdentity_flattened.sol\":8657:8702  AuthorizedContractSet(\"Reputation\", _address) */\n      0xffffffffffffffffffffffffffffffffffffffff\n      and\n      mload(0x40)\n      tag_127\n      swap1\n      tag_128\n      jump\t// in\n    tag_127:\n      mload(0x40)\n      dup1\n      swap2\n      sub\n      swap1\n      keccak256\n      0xb67ae4aaf94e550de2207405b340f22ed2172f1ad8f6bbccab6b5dfcd8c72b37\n      mload(0x40)\n      mload(0x40)\n      dup1\n      swap2\n      sub\n      swap1\n      log3\n        /* \"contracts/core/UserIdentity_flattened.sol\":8544:8705  function setReputationContract(address _address) external onlyOwner { reputationContractAddress = _address; emit AuthorizedContractSet(\"Reputation\", _address); } */\n      pop\n      jump\t// out\n        /* \"contracts/core/UserIdentity_flattened.sol\":6384:6445  mapping(address => IUserIdentity.UserProfile) public profiles */\n    tag_55:\n      mstore(0x20, 0x01)\n      dup1\n      0x00\n      mstore\n      keccak256(0x00, 0x40)\n      0x00\n      swap2\n      pop\n      swap1\n      pop\n      dup1\n      0x00\n      add\n      0x00\n      swap1\n      sload\n      swap1\n      0x0100\n      exp\n      swap1\n      div\n      0xffffffffffffffffffffffffffffffffffffffff\n      and\n      swap1\n      dup1\n      0x01\n      add\n      dup1\n      sload\n      tag_129\n      swap1\n      tag_77\n      jump\t// in\n    tag_129:\n      dup1\n      0x1f\n      add\n      0x20\n      dup1\n      swap2\n      div\n      mul\n      0x20\n      add\n      mload(0x40)\n      swap1\n      dup2\n      add\n      0x40\n      mstore\n      dup1\n      swap3\n      swap2\n      swap1\n      dup2\n      dup2\n      mstore\n      0x20\n      add\n      dup3\n      dup1\n      sload\n      tag_130\n      swap1\n      tag_77\n      jump\t// in\n    tag_130:\n      dup1\n      iszero\n      tag_131\n      jumpi\n      dup1\n      0x1f\n      lt\n      tag_132\n      jumpi\n      0x0100\n      dup1\n      dup4\n      sload\n      div\n      mul\n      dup4\n      mstore\n      swap2\n      0x20\n      add\n      swap2\n      jump(tag_131)\n    tag_132:\n      dup3\n      add\n      swap2\n      swap1\n      0x00\n      mstore\n      keccak256(0x00, 0x20)\n      swap1\n    tag_133:\n      dup2\n      sload\n      dup2\n      mstore\n      swap1\n      0x01\n      add\n      swap1\n      0x20\n      add\n      dup1\n      dup4\n      gt\n      tag_133\n      jumpi\n      dup3\n      swap1\n      sub\n      0x1f\n      and\n      dup3\n      add\n      swap2\n    tag_131:\n      pop\n      pop\n      pop\n      pop\n      pop\n      swap1\n      dup1\n      0x02\n      add\n      dup1\n      sload\n      tag_134\n      swap1\n      tag_77\n      jump\t// in\n    tag_134:\n      dup1\n      0x1f\n      add\n      0x20\n      dup1\n      swap2\n      div\n      mul\n      0x20\n      add\n      mload(0x40)\n      swap1\n      dup2\n      add\n      0x40\n      mstore\n      dup1\n      swap3\n      swap2\n      swap1\n      dup2\n      dup2\n      mstore\n      0x20\n      add\n      dup3\n      dup1\n      sload\n      tag_135\n      swap1\n      tag_77\n      jump\t// in\n    tag_135:\n      dup1\n      iszero\n      tag_136\n      jumpi\n      dup1\n      0x1f\n      lt\n      tag_137\n      jumpi\n      0x0100\n      dup1\n      dup4\n      sload\n      div\n      mul\n      dup4\n      mstore\n      swap2\n      0x20\n      add\n      swap2\n      jump(tag_136)\n    tag_137:\n      dup3\n      add\n      swap2\n      swap1\n      0x00\n      mstore\n      keccak256(0x00, 0x20)\n      swap1\n    tag_138:\n      dup2\n      sload\n      dup2\n      mstore\n      swap1\n      0x01\n      add\n      swap1\n      0x20\n      add\n      dup1\n      dup4\n      gt\n      tag_138\n      jumpi\n      dup3\n      swap1\n      sub\n      0x1f\n      and\n      dup3\n      add\n      swap2\n    tag_136:\n      pop\n      pop\n      pop\n      pop\n      pop\n      swap1\n      dup1\n      0x03\n      add\n      dup1\n      sload\n      tag_139\n      swap1\n      tag_77\n      jump\t// in\n    tag_139:\n      dup1\n      0x1f\n      add\n      0x20\n      dup1\n      swap2\n      div\n      mul\n      0x20\n      add\n      mload(0x40)\n      swap1\n      dup2\n      add\n      0x40\n      mstore\n      dup1\n      swap3\n      swap2\n      swap1\n      dup2\n      dup2\n      mstore\n      0x20\n      add\n      dup3\n      dup1\n      sload\n      tag_140\n      swap1\n      tag_77\n      jump\t// in\n    tag_140:\n      dup1\n      iszero\n      tag_141\n      jumpi\n      dup1\n      0x1f\n      lt\n      tag_142\n      jumpi\n      0x0100\n      dup1\n      dup4\n      sload\n      div\n      mul\n      dup4\n      mstore\n      swap2\n      0x20\n      add\n      swap2\n      jump(tag_141)\n    tag_142:\n      dup3\n      add\n      swap2\n      swap1\n      0x00\n      mstore\n      keccak256(0x00, 0x20)\n      swap1\n    tag_143:\n      dup2\n      sload\n      dup2\n      mstore\n      swap1\n      0x01\n      add\n      swap1\n      0x20\n      add\n      dup1\n      dup4\n      gt\n      tag_143\n      jumpi\n      dup3\n      swap1\n      sub\n      0x1f\n      and\n      dup3\n      add\n      swap2\n    tag_141:\n      pop\n      pop\n      pop\n      pop\n      pop\n      swap1\n      dup1\n      0x04\n      add\n      sload\n      swap1\n      dup1\n      0x05\n      add\n      sload\n      swap1\n      pop\n      dup7\n      jump\t// out\n        /* \"contracts/core/UserIdentity_flattened.sol\":3505:3720  function transferOwnership(address newOwner) public virtual onlyOwner {... */\n    tag_60:\n        /* \"contracts/core/UserIdentity_flattened.sol\":2493:2506  _checkOwner() */\n      tag_145\n        /* \"contracts/core/UserIdentity_flattened.sol\":2493:2504  _checkOwner */\n      tag_67\n        /* \"contracts/core/UserIdentity_flattened.sol\":2493:2506  _checkOwner() */\n      jump\t// in\n    tag_145:\n        /* \"contracts/core/UserIdentity_flattened.sol\":3609:3610  0 */\n      0x00\n        /* \"contracts/core/UserIdentity_flattened.sol\":3589:3611  newOwner == address(0) */\n      0xffffffffffffffffffffffffffffffffffffffff\n      and\n        /* \"contracts/core/UserIdentity_flattened.sol\":3589:3597  newOwner */\n      dup2\n        /* \"contracts/core/UserIdentity_flattened.sol\":3589:3611  newOwner == address(0) */\n      0xffffffffffffffffffffffffffffffffffffffff\n      and\n      sub\n        /* \"contracts/core/UserIdentity_flattened.sol\":3585:3676  if (newOwner == address(0)) {... */\n      tag_147\n      jumpi\n        /* \"contracts/core/UserIdentity_flattened.sol\":3662:3663  0 */\n      0x00\n        /* \"contracts/core/UserIdentity_flattened.sol\":3634:3665  OwnableInvalidOwner(address(0)) */\n      mload(0x40)\n      0x1e4fbdf700000000000000000000000000000000000000000000000000000000\n      dup2\n      mstore\n      0x04\n      add\n      tag_148\n      swap2\n      swap1\n      tag_30\n      jump\t// in\n    tag_148:\n      mload(0x40)\n      dup1\n      swap2\n      sub\n      swap1\n      revert\n        /* \"contracts/core/UserIdentity_flattened.sol\":3585:3676  if (newOwner == address(0)) {... */\n    tag_147:\n        /* \"contracts/core/UserIdentity_flattened.sol\":3685:3713  _transferOwnership(newOwner) */\n      tag_149\n        /* \"contracts/core/UserIdentity_flattened.sol\":3704:3712  newOwner */\n      dup2\n        /* \"contracts/core/UserIdentity_flattened.sol\":3685:3703  _transferOwnership */\n      tag_122\n        /* \"contracts/core/UserIdentity_flattened.sol\":3685:3713  _transferOwnership(newOwner) */\n      jump\t// in\n    tag_149:\n        /* \"contracts/core/UserIdentity_flattened.sol\":3505:3720  function transferOwnership(address newOwner) public virtual onlyOwner {... */\n      pop\n      jump\t// out\n        /* \"contracts/core/UserIdentity_flattened.sol\":8235:8394  function updateReputation(address _user, uint256 _newScore) external onlyAuthorized(reputationContractAddress) { profiles[_user].reputationScore = _newScore; } */\n    tag_64:\n        /* \"contracts/core/UserIdentity_flattened.sol\":8319:8344  reputationContractAddress */\n      0x03\n      0x00\n      swap1\n      sload\n      swap1\n      0x0100\n      exp\n      swap1\n      div\n      0xffffffffffffffffffffffffffffffffffffffff\n      and\n        /* \"contracts/core/UserIdentity_flattened.sol\":7023:7032  authority */\n      dup1\n        /* \"contracts/core/UserIdentity_flattened.sol\":7009:7032  msg.sender != authority */\n      0xffffffffffffffffffffffffffffffffffffffff\n      and\n        /* \"contracts/core/UserIdentity_flattened.sol\":7009:7019  msg.sender */\n      caller\n        /* \"contracts/core/UserIdentity_flattened.sol\":7009:7032  msg.sender != authority */\n      0xffffffffffffffffffffffffffffffffffffffff\n      and\n      eq\n        /* \"contracts/core/UserIdentity_flattened.sol\":7005:7055  if (msg.sender != authority) revert Unauthorized() */\n      tag_151\n      jumpi\n        /* \"contracts/core/UserIdentity_flattened.sol\":7041:7055  Unauthorized() */\n      mload(0x40)\n      0x82b4290000000000000000000000000000000000000000000000000000000000\n      dup2\n      mstore\n      0x04\n      add\n      mload(0x40)\n      dup1\n      swap2\n      sub\n      swap1\n      revert\n        /* \"contracts/core/UserIdentity_flattened.sol\":7005:7055  if (msg.sender != authority) revert Unauthorized() */\n    tag_151:\n        /* \"contracts/core/UserIdentity_flattened.sol\":8382:8391  _newScore */\n      dup2\n        /* \"contracts/core/UserIdentity_flattened.sol\":8348:8356  profiles */\n      0x01\n        /* \"contracts/core/UserIdentity_flattened.sol\":8348:8363  profiles[_user] */\n      0x00\n        /* \"contracts/core/UserIdentity_flattened.sol\":8357:8362  _user */\n      dup6\n        /* \"contracts/core/UserIdentity_flattened.sol\":8348:8363  profiles[_user] */\n      0xffffffffffffffffffffffffffffffffffffffff\n      and\n      0xffffffffffffffffffffffffffffffffffffffff\n      and\n      dup2\n      mstore\n      0x20\n      add\n      swap1\n      dup2\n      mstore\n      0x20\n      add\n      0x00\n      keccak256\n        /* \"contracts/core/UserIdentity_flattened.sol\":8348:8379  profiles[_user].reputationScore */\n      0x04\n      add\n        /* \"contracts/core/UserIdentity_flattened.sol\":8348:8391  profiles[_user].reputationScore = _newScore */\n      dup2\n      swap1\n      sstore\n      pop\n        /* \"contracts/core/UserIdentity_flattened.sol\":8235:8394  function updateReputation(address _user, uint256 _newScore) external onlyAuthorized(reputationContractAddress) { profiles[_user].reputationScore = _newScore; } */\n      pop\n      pop\n      pop\n      jump\t// out\n        /* \"contracts/core/UserIdentity_flattened.sol\":2758:2920  function _checkOwner() internal view virtual {... */\n    tag_67:\n        /* \"contracts/core/UserIdentity_flattened.sol\":2828:2840  _msgSender() */\n      tag_154\n        /* \"contracts/core/UserIdentity_flattened.sol\":2828:2838  _msgSender */\n      tag_155\n        /* \"contracts/core/UserIdentity_flattened.sol\":2828:2840  _msgSender() */\n      jump\t// in\n    tag_154:\n        /* \"contracts/core/UserIdentity_flattened.sol\":2817:2840  owner() != _msgSender() */\n      0xffffffffffffffffffffffffffffffffffffffff\n      and\n        /* \"contracts/core/UserIdentity_flattened.sol\":2817:2824  owner() */\n      tag_156\n        /* \"contracts/core/UserIdentity_flattened.sol\":2817:2822  owner */\n      tag_48\n        /* \"contracts/core/UserIdentity_flattened.sol\":2817:2824  owner() */\n      jump\t// in\n    tag_156:\n        /* \"contracts/core/UserIdentity_flattened.sol\":2817:2840  owner() != _msgSender() */\n      0xffffffffffffffffffffffffffffffffffffffff\n      and\n      eq\n        /* \"contracts/core/UserIdentity_flattened.sol\":2813:2914  if (owner() != _msgSender()) {... */\n      tag_157\n      jumpi\n        /* \"contracts/core/UserIdentity_flattened.sol\":2890:2902  _msgSender() */\n      tag_158\n        /* \"contracts/core/UserIdentity_flattened.sol\":2890:2900  _msgSender */\n      tag_155\n        /* \"contracts/core/UserIdentity_flattened.sol\":2890:2902  _msgSender() */\n      jump\t// in\n    tag_158:\n        /* \"contracts/core/UserIdentity_flattened.sol\":2863:2903  OwnableUnauthorizedAccount(_msgSender()) */\n      mload(0x40)\n      0x118cdaa700000000000000000000000000000000000000000000000000000000\n      dup2\n      mstore\n      0x04\n      add\n      tag_159\n      swap2\n      swap1\n      tag_30\n      jump\t// in\n    tag_159:\n      mload(0x40)\n      dup1\n      swap2\n      sub\n      swap1\n      revert\n        /* \"contracts/core/UserIdentity_flattened.sol\":2813:2914  if (owner() != _msgSender()) {... */\n    tag_157:\n        /* \"contracts/core/UserIdentity_flattened.sol\":2758:2920  function _checkOwner() internal view virtual {... */\n      jump\t// out\n        /* \"contracts/core/UserIdentity_flattened.sol\":3874:4061  function _transferOwnership(address newOwner) internal virtual {... */\n    tag_122:\n        /* \"contracts/core/UserIdentity_flattened.sol\":3947:3963  address oldOwner */\n      0x00\n        /* \"contracts/core/UserIdentity_flattened.sol\":3966:3972  _owner */\n      0x00\n      0x00\n      swap1\n      sload\n      swap1\n      0x0100\n      exp\n      swap1\n      div\n      0xffffffffffffffffffffffffffffffffffffffff\n      and\n        /* \"contracts/core/UserIdentity_flattened.sol\":3947:3972  address oldOwner = _owner */\n      swap1\n      pop\n        /* \"contracts/core/UserIdentity_flattened.sol\":3991:3999  newOwner */\n      dup2\n        /* \"contracts/core/UserIdentity_flattened.sol\":3982:3988  _owner */\n      0x00\n      0x00\n        /* \"contracts/core/UserIdentity_flattened.sol\":3982:3999  _owner = newOwner */\n      0x0100\n      exp\n      dup2\n      sload\n      dup2\n      0xffffffffffffffffffffffffffffffffffffffff\n      mul\n      not\n      and\n      swap1\n      dup4\n      0xffffffffffffffffffffffffffffffffffffffff\n      and\n      mul\n      or\n      swap1\n      sstore\n      pop\n        /* \"contracts/core/UserIdentity_flattened.sol\":4045:4053  newOwner */\n      dup2\n        /* \"contracts/core/UserIdentity_flattened.sol\":4014:4054  OwnershipTransferred(oldOwner, newOwner) */\n      0xffffffffffffffffffffffffffffffffffffffff\n      and\n        /* \"contracts/core/UserIdentity_flattened.sol\":4035:4043  oldOwner */\n      dup2\n        /* \"contracts/core/UserIdentity_flattened.sol\":4014:4054  OwnershipTransferred(oldOwner, newOwner) */\n      0xffffffffffffffffffffffffffffffffffffffff\n      and\n      0x8be0079c531659141344cd1fd0a4f28419497f9722a3daafe3b4186f6b6457e0\n      mload(0x40)\n      mload(0x40)\n      dup1\n      swap2\n      sub\n      swap1\n      log3\n        /* \"contracts/core/UserIdentity_flattened.sol\":3937:4061  {... */\n      pop\n        /* \"contracts/core/UserIdentity_flattened.sol\":3874:4061  function _transferOwnership(address newOwner) internal virtual {... */\n      pop\n      jump\t// out\n        /* \"contracts/core/UserIdentity_flattened.sol\":678:774  function _msgSender() internal view virtual returns (address) {... */\n    tag_155:\n        /* \"contracts/core/UserIdentity_flattened.sol\":731:738  address */\n      0x00\n        /* \"contracts/core/UserIdentity_flattened.sol\":757:767  msg.sender */\n      caller\n        /* \"contracts/core/UserIdentity_flattened.sol\":750:767  return msg.sender */\n      swap1\n      pop\n        /* \"contracts/core/UserIdentity_flattened.sol\":678:774  function _msgSender() internal view virtual returns (address) {... */\n      swap1\n      jump\t// out\n    tag_72:\n      mload(0x40)\n      dup1\n      0xc0\n      add\n      0x40\n      mstore\n      dup1\n      and(0xffffffffffffffffffffffffffffffffffffffff, 0x00)\n      dup2\n      mstore\n      0x20\n      add\n      0x60\n      dup2\n      mstore\n      0x20\n      add\n      0x60\n      dup2\n      mstore\n      0x20\n      add\n      0x60\n      dup2\n      mstore\n      0x20\n      add\n      0x00\n      dup2\n      mstore\n      0x20\n      add\n      0x00\n      dup2\n      mstore\n      pop\n      swap1\n      jump\t// out\n        /* \"#utility.yul\":7:82   */\n    tag_162:\n        /* \"#utility.yul\":40:46   */\n      0x00\n        /* \"#utility.yul\":73:75   */\n      0x40\n        /* \"#utility.yul\":67:76   */\n      mload\n        /* \"#utility.yul\":57:76   */\n      swap1\n      pop\n        /* \"#utility.yul\":7:82   */\n      swap1\n      jump\t// out\n        /* \"#utility.yul\":88:205   */\n    tag_163:\n        /* \"#utility.yul\":197:198   */\n      0x00\n        /* \"#utility.yul\":194:195   */\n      0x00\n        /* \"#utility.yul\":187:199   */\n      revert\n        /* \"#utility.yul\":211:328   */\n    tag_164:\n        /* \"#utility.yul\":320:321   */\n      0x00\n        /* \"#utility.yul\":317:318   */\n      0x00\n        /* \"#utility.yul\":310:322   */\n      revert\n        /* \"#utility.yul\":334:460   */\n    tag_165:\n        /* \"#utility.yul\":371:378   */\n      0x00\n        /* \"#utility.yul\":411:453   */\n      0xffffffffffffffffffffffffffffffffffffffff\n        /* \"#utility.yul\":404:409   */\n      dup3\n        /* \"#utility.yul\":400:454   */\n      and\n        /* \"#utility.yul\":389:454   */\n      swap1\n      pop\n        /* \"#utility.yul\":334:460   */\n      swap2\n      swap1\n      pop\n      jump\t// out\n        /* \"#utility.yul\":466:562   */\n    tag_166:\n        /* \"#utility.yul\":503:510   */\n      0x00\n        /* \"#utility.yul\":532:556   */\n      tag_234\n        /* \"#utility.yul\":550:555   */\n      dup3\n        /* \"#utility.yul\":532:556   */\n      tag_165\n      jump\t// in\n    tag_234:\n        /* \"#utility.yul\":521:556   */\n      swap1\n      pop\n        /* \"#utility.yul\":466:562   */\n      swap2\n      swap1\n      pop\n      jump\t// out\n        /* \"#utility.yul\":568:690   */\n    tag_167:\n        /* \"#utility.yul\":641:665   */\n      tag_236\n        /* \"#utility.yul\":659:664   */\n      dup2\n        /* \"#utility.yul\":641:665   */\n      tag_166\n      jump\t// in\n    tag_236:\n        /* \"#utility.yul\":634:639   */\n      dup2\n        /* \"#utility.yul\":631:666   */\n      eq\n        /* \"#utility.yul\":621:684   */\n      tag_237\n      jumpi\n        /* \"#utility.yul\":680:681   */\n      0x00\n        /* \"#utility.yul\":677:678   */\n      0x00\n        /* \"#utility.yul\":670:682   */\n      revert\n        /* \"#utility.yul\":621:684   */\n    tag_237:\n        /* \"#utility.yul\":568:690   */\n      pop\n      jump\t// out\n        /* \"#utility.yul\":696:835   */\n    tag_168:\n        /* \"#utility.yul\":742:747   */\n      0x00\n        /* \"#utility.yul\":780:786   */\n      dup2\n        /* \"#utility.yul\":767:787   */\n      calldataload\n        /* \"#utility.yul\":758:787   */\n      swap1\n      pop\n        /* \"#utility.yul\":796:829   */\n      tag_239\n        /* \"#utility.yul\":823:828   */\n      dup2\n        /* \"#utility.yul\":796:829   */\n      tag_167\n      jump\t// in\n    tag_239:\n        /* \"#utility.yul\":696:835   */\n      swap3\n      swap2\n      pop\n      pop\n      jump\t// out\n        /* \"#utility.yul\":841:1170   */\n    tag_20:\n        /* \"#utility.yul\":900:906   */\n      0x00\n        /* \"#utility.yul\":949:951   */\n      0x20\n        /* \"#utility.yul\":937:946   */\n      dup3\n        /* \"#utility.yul\":928:935   */\n      dup5\n        /* \"#utility.yul\":924:947   */\n      sub\n        /* \"#utility.yul\":920:952   */\n      slt\n        /* \"#utility.yul\":917:1036   */\n      iszero\n      tag_241\n      jumpi\n        /* \"#utility.yul\":955:1034   */\n      tag_242\n      tag_163\n      jump\t// in\n    tag_242:\n        /* \"#utility.yul\":917:1036   */\n    tag_241:\n        /* \"#utility.yul\":1075:1076   */\n      0x00\n        /* \"#utility.yul\":1100:1153   */\n      tag_243\n        /* \"#utility.yul\":1145:1152   */\n      dup5\n        /* \"#utility.yul\":1136:1142   */\n      dup3\n        /* \"#utility.yul\":1125:1134   */\n      dup6\n        /* \"#utility.yul\":1121:1143   */\n      add\n        /* \"#utility.yul\":1100:1153   */\n      tag_168\n      jump\t// in\n    tag_243:\n        /* \"#utility.yul\":1090:1153   */\n      swap2\n      pop\n        /* \"#utility.yul\":1046:1163   */\n      pop\n        /* \"#utility.yul\":841:1170   */\n      swap3\n      swap2\n      pop\n      pop\n      jump\t// out\n        /* \"#utility.yul\":1176:1284   */\n    tag_169:\n        /* \"#utility.yul\":1253:1277   */\n      tag_245\n        /* \"#utility.yul\":1271:1276   */\n      dup2\n        /* \"#utility.yul\":1253:1277   */\n      tag_166\n      jump\t// in\n    tag_245:\n        /* \"#utility.yul\":1248:1251   */\n      dup3\n        /* \"#utility.yul\":1241:1278   */\n      mstore\n        /* \"#utility.yul\":1176:1284   */\n      pop\n      pop\n      jump\t// out\n        /* \"#utility.yul\":1290:1389   */\n    tag_170:\n        /* \"#utility.yul\":1342:1348   */\n      0x00\n        /* \"#utility.yul\":1376:1381   */\n      dup2\n        /* \"#utility.yul\":1370:1382   */\n      mload\n        /* \"#utility.yul\":1360:1382   */\n      swap1\n      pop\n        /* \"#utility.yul\":1290:1389   */\n      swap2\n      swap1\n      pop\n      jump\t// out\n        /* \"#utility.yul\":1395:1554   */\n    tag_171:\n        /* \"#utility.yul\":1469:1480   */\n      0x00\n        /* \"#utility.yul\":1503:1509   */\n      dup3\n        /* \"#utility.yul\":1498:1501   */\n      dup3\n        /* \"#utility.yul\":1491:1510   */\n      mstore\n        /* \"#utility.yul\":1543:1547   */\n      0x20\n        /* \"#utility.yul\":1538:1541   */\n      dup3\n        /* \"#utility.yul\":1534:1548   */\n      add\n        /* \"#utility.yul\":1519:1548   */\n      swap1\n      pop\n        /* \"#utility.yul\":1395:1554   */\n      swap3\n      swap2\n      pop\n      pop\n      jump\t// out\n        /* \"#utility.yul\":1560:1699   */\n    tag_172:\n        /* \"#utility.yul\":1649:1655   */\n      dup3\n        /* \"#utility.yul\":1644:1647   */\n      dup2\n        /* \"#utility.yul\":1639:1642   */\n      dup4\n        /* \"#utility.yul\":1633:1656   */\n      mcopy\n        /* \"#utility.yul\":1690:1691   */\n      0x00\n        /* \"#utility.yul\":1681:1687   */\n      dup4\n        /* \"#utility.yul\":1676:1679   */\n      dup4\n        /* \"#utility.yul\":1672:1688   */\n      add\n        /* \"#utility.yul\":1665:1692   */\n      mstore\n        /* \"#utility.yul\":1560:1699   */\n      pop\n      pop\n      pop\n      jump\t// out\n        /* \"#utility.yul\":1705:1807   */\n    tag_173:\n        /* \"#utility.yul\":1746:1752   */\n      0x00\n        /* \"#utility.yul\":1797:1799   */\n      0x1f\n        /* \"#utility.yul\":1793:1800   */\n      not\n        /* \"#utility.yul\":1788:1790   */\n      0x1f\n        /* \"#utility.yul\":1781:1786   */\n      dup4\n        /* \"#utility.yul\":1777:1791   */\n      add\n        /* \"#utility.yul\":1773:1801   */\n      and\n        /* \"#utility.yul\":1763:1801   */\n      swap1\n      pop\n        /* \"#utility.yul\":1705:1807   */\n      swap2\n      swap1\n      pop\n      jump\t// out\n        /* \"#utility.yul\":1813:2170   */\n    tag_174:\n        /* \"#utility.yul\":1891:1894   */\n      0x00\n        /* \"#utility.yul\":1919:1958   */\n      tag_251\n        /* \"#utility.yul\":1952:1957   */\n      dup3\n        /* \"#utility.yul\":1919:1958   */\n      tag_170\n      jump\t// in\n    tag_251:\n        /* \"#utility.yul\":1974:2035   */\n      tag_252\n        /* \"#utility.yul\":2028:2034   */\n      dup2\n        /* \"#utility.yul\":2023:2026   */\n      dup6\n        /* \"#utility.yul\":1974:2035   */\n      tag_171\n      jump\t// in\n    tag_252:\n        /* \"#utility.yul\":1967:2035   */\n      swap4\n      pop\n        /* \"#utility.yul\":2044:2109   */\n      tag_253\n        /* \"#utility.yul\":2102:2108   */\n      dup2\n        /* \"#utility.yul\":2097:2100   */\n      dup6\n        /* \"#utility.yul\":2090:2094   */\n      0x20\n        /* \"#utility.yul\":2083:2088   */\n      dup7\n        /* \"#utility.yul\":2079:2095   */\n      add\n        /* \"#utility.yul\":2044:2109   */\n      tag_172\n      jump\t// in\n    tag_253:\n        /* \"#utility.yul\":2134:2163   */\n      tag_254\n        /* \"#utility.yul\":2156:2162   */\n      dup2\n        /* \"#utility.yul\":2134:2163   */\n      tag_173\n      jump\t// in\n    tag_254:\n        /* \"#utility.yul\":2129:2132   */\n      dup5\n        /* \"#utility.yul\":2125:2164   */\n      add\n        /* \"#utility.yul\":2118:2164   */\n      swap2\n      pop\n        /* \"#utility.yul\":1895:2170   */\n      pop\n        /* \"#utility.yul\":1813:2170   */\n      swap3\n      swap2\n      pop\n      pop\n      jump\t// out\n        /* \"#utility.yul\":2176:2274   */\n    tag_175:\n        /* \"#utility.yul\":2227:2233   */\n      0x00\n        /* \"#utility.yul\":2261:2266   */\n      dup2\n        /* \"#utility.yul\":2255:2267   */\n      mload\n        /* \"#utility.yul\":2245:2267   */\n      swap1\n      pop\n        /* \"#utility.yul\":2176:2274   */\n      swap2\n      swap1\n      pop\n      jump\t// out\n        /* \"#utility.yul\":2280:2438   */\n    tag_176:\n        /* \"#utility.yul\":2353:2364   */\n      0x00\n        /* \"#utility.yul\":2387:2393   */\n      dup3\n        /* \"#utility.yul\":2382:2385   */\n      dup3\n        /* \"#utility.yul\":2375:2394   */\n      mstore\n        /* \"#utility.yul\":2427:2431   */\n      0x20\n        /* \"#utility.yul\":2422:2425   */\n      dup3\n        /* \"#utility.yul\":2418:2432   */\n      add\n        /* \"#utility.yul\":2403:2432   */\n      swap1\n      pop\n        /* \"#utility.yul\":2280:2438   */\n      swap3\n      swap2\n      pop\n      pop\n      jump\t// out\n        /* \"#utility.yul\":2444:2797   */\n    tag_177:\n        /* \"#utility.yul\":2520:2523   */\n      0x00\n        /* \"#utility.yul\":2548:2586   */\n      tag_258\n        /* \"#utility.yul\":2580:2585   */\n      dup3\n        /* \"#utility.yul\":2548:2586   */\n      tag_175\n      jump\t// in\n    tag_258:\n        /* \"#utility.yul\":2602:2662   */\n      tag_259\n        /* \"#utility.yul\":2655:2661   */\n      dup2\n        /* \"#utility.yul\":2650:2653   */\n      dup6\n        /* \"#utility.yul\":2602:2662   */\n      tag_176\n      jump\t// in\n    tag_259:\n        /* \"#utility.yul\":2595:2662   */\n      swap4\n      pop\n        /* \"#utility.yul\":2671:2736   */\n      tag_260\n        /* \"#utility.yul\":2729:2735   */\n      dup2\n        /* \"#utility.yul\":2724:2727   */\n      dup6\n        /* \"#utility.yul\":2717:2721   */\n      0x20\n        /* \"#utility.yul\":2710:2715   */\n      dup7\n        /* \"#utility.yul\":2706:2722   */\n      add\n        /* \"#utility.yul\":2671:2736   */\n      tag_172\n      jump\t// in\n    tag_260:\n        /* \"#utility.yul\":2761:2790   */\n      tag_261\n        /* \"#utility.yul\":2783:2789   */\n      dup2\n        /* \"#utility.yul\":2761:2790   */\n      tag_173\n      jump\t// in\n    tag_261:\n        /* \"#utility.yul\":2756:2759   */\n      dup5\n        /* \"#utility.yul\":2752:2791   */\n      add\n        /* \"#utility.yul\":2745:2791   */\n      swap2\n      pop\n        /* \"#utility.yul\":2524:2797   */\n      pop\n        /* \"#utility.yul\":2444:2797   */\n      swap3\n      swap2\n      pop\n      pop\n      jump\t// out\n        /* \"#utility.yul\":2803:2880   */\n    tag_178:\n        /* \"#utility.yul\":2840:2847   */\n      0x00\n        /* \"#utility.yul\":2869:2874   */\n      dup2\n        /* \"#utility.yul\":2858:2874   */\n      swap1\n      pop\n        /* \"#utility.yul\":2803:2880   */\n      swap2\n      swap1\n      pop\n      jump\t// out\n        /* \"#utility.yul\":2886:2994   */\n    tag_179:\n        /* \"#utility.yul\":2963:2987   */\n      tag_264\n        /* \"#utility.yul\":2981:2986   */\n      dup2\n        /* \"#utility.yul\":2963:2987   */\n      tag_178\n      jump\t// in\n    tag_264:\n        /* \"#utility.yul\":2958:2961   */\n      dup3\n        /* \"#utility.yul\":2951:2988   */\n      mstore\n        /* \"#utility.yul\":2886:2994   */\n      pop\n      pop\n      jump\t// out\n        /* \"#utility.yul\":3076:4574   */\n    tag_180:\n        /* \"#utility.yul\":3201:3204   */\n      0x00\n        /* \"#utility.yul\":3237:3241   */\n      0xc0\n        /* \"#utility.yul\":3232:3235   */\n      dup4\n        /* \"#utility.yul\":3228:3242   */\n      add\n        /* \"#utility.yul\":3331:3335   */\n      0x00\n        /* \"#utility.yul\":3324:3329   */\n      dup4\n        /* \"#utility.yul\":3320:3336   */\n      add\n        /* \"#utility.yul\":3314:3337   */\n      mload\n        /* \"#utility.yul\":3350:3413   */\n      tag_266\n        /* \"#utility.yul\":3407:3411   */\n      0x00\n        /* \"#utility.yul\":3402:3405   */\n      dup7\n        /* \"#utility.yul\":3398:3412   */\n      add\n        /* \"#utility.yul\":3384:3396   */\n      dup3\n        /* \"#utility.yul\":3350:3413   */\n      tag_169\n      jump\t// in\n    tag_266:\n        /* \"#utility.yul\":3252:3423   */\n      pop\n        /* \"#utility.yul\":3509:3513   */\n      0x20\n        /* \"#utility.yul\":3502:3507   */\n      dup4\n        /* \"#utility.yul\":3498:3514   */\n      add\n        /* \"#utility.yul\":3492:3515   */\n      mload\n        /* \"#utility.yul\":3562:3565   */\n      dup5\n        /* \"#utility.yul\":3556:3560   */\n      dup3\n        /* \"#utility.yul\":3552:3566   */\n      sub\n        /* \"#utility.yul\":3545:3549   */\n      0x20\n        /* \"#utility.yul\":3540:3543   */\n      dup7\n        /* \"#utility.yul\":3536:3550   */\n      add\n        /* \"#utility.yul\":3529:3567   */\n      mstore\n        /* \"#utility.yul\":3588:3661   */\n      tag_267\n        /* \"#utility.yul\":3656:3660   */\n      dup3\n        /* \"#utility.yul\":3642:3654   */\n      dup3\n        /* \"#utility.yul\":3588:3661   */\n      tag_174\n      jump\t// in\n    tag_267:\n        /* \"#utility.yul\":3580:3661   */\n      swap2\n      pop\n        /* \"#utility.yul\":3433:3672   */\n      pop\n        /* \"#utility.yul\":3756:3760   */\n      0x40\n        /* \"#utility.yul\":3749:3754   */\n      dup4\n        /* \"#utility.yul\":3745:3761   */\n      add\n        /* \"#utility.yul\":3739:3762   */\n      mload\n        /* \"#utility.yul\":3809:3812   */\n      dup5\n        /* \"#utility.yul\":3803:3807   */\n      dup3\n        /* \"#utility.yul\":3799:3813   */\n      sub\n        /* \"#utility.yul\":3792:3796   */\n      0x40\n        /* \"#utility.yul\":3787:3790   */\n      dup7\n        /* \"#utility.yul\":3783:3797   */\n      add\n        /* \"#utility.yul\":3776:3814   */\n      mstore\n        /* \"#utility.yul\":3835:3908   */\n      tag_268\n        /* \"#utility.yul\":3903:3907   */\n      dup3\n        /* \"#utility.yul\":3889:3901   */\n      dup3\n        /* \"#utility.yul\":3835:3908   */\n      tag_174\n      jump\t// in\n    tag_268:\n        /* \"#utility.yul\":3827:3908   */\n      swap2\n      pop\n        /* \"#utility.yul\":3682:3919   */\n      pop\n        /* \"#utility.yul\":4014:4018   */\n      0x60\n        /* \"#utility.yul\":4007:4012   */\n      dup4\n        /* \"#utility.yul\":4003:4019   */\n      add\n        /* \"#utility.yul\":3997:4020   */\n      mload\n        /* \"#utility.yul\":4067:4070   */\n      dup5\n        /* \"#utility.yul\":4061:4065   */\n      dup3\n        /* \"#utility.yul\":4057:4071   */\n      sub\n        /* \"#utility.yul\":4050:4054   */\n      0x60\n        /* \"#utility.yul\":4045:4048   */\n      dup7\n        /* \"#utility.yul\":4041:4055   */\n      add\n        /* \"#utility.yul\":4034:4072   */\n      mstore\n        /* \"#utility.yul\":4093:4164   */\n      tag_269\n        /* \"#utility.yul\":4159:4163   */\n      dup3\n        /* \"#utility.yul\":4145:4157   */\n      dup3\n        /* \"#utility.yul\":4093:4164   */\n      tag_177\n      jump\t// in\n    tag_269:\n        /* \"#utility.yul\":4085:4164   */\n      swap2\n      pop\n        /* \"#utility.yul\":3929:4175   */\n      pop\n        /* \"#utility.yul\":4268:4272   */\n      0x80\n        /* \"#utility.yul\":4261:4266   */\n      dup4\n        /* \"#utility.yul\":4257:4273   */\n      add\n        /* \"#utility.yul\":4251:4274   */\n      mload\n        /* \"#utility.yul\":4287:4350   */\n      tag_270\n        /* \"#utility.yul\":4344:4348   */\n      0x80\n        /* \"#utility.yul\":4339:4342   */\n      dup7\n        /* \"#utility.yul\":4335:4349   */\n      add\n        /* \"#utility.yul\":4321:4333   */\n      dup3\n        /* \"#utility.yul\":4287:4350   */\n      tag_179\n      jump\t// in\n    tag_270:\n        /* \"#utility.yul\":4185:4360   */\n      pop\n        /* \"#utility.yul\":4455:4459   */\n      0xa0\n        /* \"#utility.yul\":4448:4453   */\n      dup4\n        /* \"#utility.yul\":4444:4460   */\n      add\n        /* \"#utility.yul\":4438:4461   */\n      mload\n        /* \"#utility.yul\":4474:4537   */\n      tag_271\n        /* \"#utility.yul\":4531:4535   */\n      0xa0\n        /* \"#utility.yul\":4526:4529   */\n      dup7\n        /* \"#utility.yul\":4522:4536   */\n      add\n        /* \"#utility.yul\":4508:4520   */\n      dup3\n        /* \"#utility.yul\":4474:4537   */\n      tag_179\n      jump\t// in\n    tag_271:\n        /* \"#utility.yul\":4370:4547   */\n      pop\n        /* \"#utility.yul\":4564:4568   */\n      dup1\n        /* \"#utility.yul\":4557:4568   */\n      swap2\n      pop\n        /* \"#utility.yul\":3206:4574   */\n      pop\n        /* \"#utility.yul\":3076:4574   */\n      swap3\n      swap2\n      pop\n      pop\n      jump\t// out\n        /* \"#utility.yul\":4580:4965   */\n    tag_26:\n        /* \"#utility.yul\":4729:4733   */\n      0x00\n        /* \"#utility.yul\":4767:4769   */\n      0x20\n        /* \"#utility.yul\":4756:4765   */\n      dup3\n        /* \"#utility.yul\":4752:4770   */\n      add\n        /* \"#utility.yul\":4744:4770   */\n      swap1\n      pop\n        /* \"#utility.yul\":4816:4825   */\n      dup2\n        /* \"#utility.yul\":4810:4814   */\n      dup2\n        /* \"#utility.yul\":4806:4826   */\n      sub\n        /* \"#utility.yul\":4802:4803   */\n      0x00\n        /* \"#utility.yul\":4791:4800   */\n      dup4\n        /* \"#utility.yul\":4787:4804   */\n      add\n        /* \"#utility.yul\":4780:4827   */\n      mstore\n        /* \"#utility.yul\":4844:4958   */\n      tag_273\n        /* \"#utility.yul\":4953:4957   */\n      dup2\n        /* \"#utility.yul\":4944:4950   */\n      dup5\n        /* \"#utility.yul\":4844:4958   */\n      tag_180\n      jump\t// in\n    tag_273:\n        /* \"#utility.yul\":4836:4958   */\n      swap1\n      pop\n        /* \"#utility.yul\":4580:4965   */\n      swap3\n      swap2\n      pop\n      pop\n      jump\t// out\n        /* \"#utility.yul\":4971:5089   */\n    tag_181:\n        /* \"#utility.yul\":5058:5082   */\n      tag_275\n        /* \"#utility.yul\":5076:5081   */\n      dup2\n        /* \"#utility.yul\":5058:5082   */\n      tag_166\n      jump\t// in\n    tag_275:\n        /* \"#utility.yul\":5053:5056   */\n      dup3\n        /* \"#utility.yul\":5046:5083   */\n      mstore\n        /* \"#utility.yul\":4971:5089   */\n      pop\n      pop\n      jump\t// out\n        /* \"#utility.yul\":5095:5317   */\n    tag_30:\n        /* \"#utility.yul\":5188:5192   */\n      0x00\n        /* \"#utility.yul\":5226:5228   */\n      0x20\n        /* \"#utility.yul\":5215:5224   */\n      dup3\n        /* \"#utility.yul\":5211:5229   */\n      add\n        /* \"#utility.yul\":5203:5229   */\n      swap1\n      pop\n        /* \"#utility.yul\":5239:5310   */\n      tag_277\n        /* \"#utility.yul\":5307:5308   */\n      0x00\n        /* \"#utility.yul\":5296:5305   */\n      dup4\n        /* \"#utility.yul\":5292:5309   */\n      add\n        /* \"#utility.yul\":5283:5289   */\n      dup5\n        /* \"#utility.yul\":5239:5310   */\n      tag_181\n      jump\t// in\n    tag_277:\n        /* \"#utility.yul\":5095:5317   */\n      swap3\n      swap2\n      pop\n      pop\n      jump\t// out\n        /* \"#utility.yul\":5323:5440   */\n    tag_182:\n        /* \"#utility.yul\":5432:5433   */\n      0x00\n        /* \"#utility.yul\":5429:5430   */\n      0x00\n        /* \"#utility.yul\":5422:5434   */\n      revert\n        /* \"#utility.yul\":5446:5563   */\n    tag_183:\n        /* \"#utility.yul\":5555:5556   */\n      0x00\n        /* \"#utility.yul\":5552:5553   */\n      0x00\n        /* \"#utility.yul\":5545:5557   */\n      revert\n        /* \"#utility.yul\":5569:5749   */\n    tag_184:\n        /* \"#utility.yul\":5617:5694   */\n      0x4e487b7100000000000000000000000000000000000000000000000000000000\n        /* \"#utility.yul\":5614:5615   */\n      0x00\n        /* \"#utility.yul\":5607:5695   */\n      mstore\n        /* \"#utility.yul\":5714:5718   */\n      0x41\n        /* \"#utility.yul\":5711:5712   */\n      0x04\n        /* \"#utility.yul\":5704:5719   */\n      mstore\n        /* \"#utility.yul\":5738:5742   */\n      0x24\n        /* \"#utility.yul\":5735:5736   */\n      0x00\n        /* \"#utility.yul\":5728:5743   */\n      revert\n        /* \"#utility.yul\":5755:6036   */\n    tag_185:\n        /* \"#utility.yul\":5838:5865   */\n      tag_282\n        /* \"#utility.yul\":5860:5864   */\n      dup3\n        /* \"#utility.yul\":5838:5865   */\n      tag_173\n      jump\t// in\n    tag_282:\n        /* \"#utility.yul\":5830:5836   */\n      dup2\n        /* \"#utility.yul\":5826:5866   */\n      add\n        /* \"#utility.yul\":5968:5974   */\n      dup2\n        /* \"#utility.yul\":5956:5966   */\n      dup2\n        /* \"#utility.yul\":5953:5975   */\n      lt\n        /* \"#utility.yul\":5932:5950   */\n      0xffffffffffffffff\n        /* \"#utility.yul\":5920:5930   */\n      dup3\n        /* \"#utility.yul\":5917:5951   */\n      gt\n        /* \"#utility.yul\":5914:5976   */\n      or\n        /* \"#utility.yul\":5911:5999   */\n      iszero\n      tag_283\n      jumpi\n        /* \"#utility.yul\":5979:5997   */\n      tag_284\n      tag_184\n      jump\t// in\n    tag_284:\n        /* \"#utility.yul\":5911:5999   */\n    tag_283:\n        /* \"#utility.yul\":6019:6029   */\n      dup1\n        /* \"#utility.yul\":6015:6017   */\n      0x40\n        /* \"#utility.yul\":6008:6030   */\n      mstore\n        /* \"#utility.yul\":5798:6036   */\n      pop\n        /* \"#utility.yul\":5755:6036   */\n      pop\n      pop\n      jump\t// out\n        /* \"#utility.yul\":6042:6171   */\n    tag_186:\n        /* \"#utility.yul\":6076:6082   */\n      0x00\n        /* \"#utility.yul\":6103:6123   */\n      tag_286\n      tag_162\n      jump\t// in\n    tag_286:\n        /* \"#utility.yul\":6093:6123   */\n      swap1\n      pop\n        /* \"#utility.yul\":6132:6165   */\n      tag_287\n        /* \"#utility.yul\":6160:6164   */\n      dup3\n        /* \"#utility.yul\":6152:6158   */\n      dup3\n        /* \"#utility.yul\":6132:6165   */\n      tag_185\n      jump\t// in\n    tag_287:\n        /* \"#utility.yul\":6042:6171   */\n      swap2\n      swap1\n      pop\n      jump\t// out\n        /* \"#utility.yul\":6177:6485   */\n    tag_187:\n        /* \"#utility.yul\":6239:6243   */\n      0x00\n        /* \"#utility.yul\":6329:6347   */\n      0xffffffffffffffff\n        /* \"#utility.yul\":6321:6327   */\n      dup3\n        /* \"#utility.yul\":6318:6348   */\n      gt\n        /* \"#utility.yul\":6315:6371   */\n      iszero\n      tag_289\n      jumpi\n        /* \"#utility.yul\":6351:6369   */\n      tag_290\n      tag_184\n      jump\t// in\n    tag_290:\n        /* \"#utility.yul\":6315:6371   */\n    tag_289:\n        /* \"#utility.yul\":6389:6418   */\n      tag_291\n        /* \"#utility.yul\":6411:6417   */\n      dup3\n        /* \"#utility.yul\":6389:6418   */\n      tag_173\n      jump\t// in\n    tag_291:\n        /* \"#utility.yul\":6381:6418   */\n      swap1\n      pop\n        /* \"#utility.yul\":6473:6477   */\n      0x20\n        /* \"#utility.yul\":6467:6471   */\n      dup2\n        /* \"#utility.yul\":6463:6478   */\n      add\n        /* \"#utility.yul\":6455:6478   */\n      swap1\n      pop\n        /* \"#utility.yul\":6177:6485   */\n      swap2\n      swap1\n      pop\n      jump\t// out\n        /* \"#utility.yul\":6491:6639   */\n    tag_188:\n        /* \"#utility.yul\":6589:6595   */\n      dup3\n        /* \"#utility.yul\":6584:6587   */\n      dup2\n        /* \"#utility.yul\":6579:6582   */\n      dup4\n        /* \"#utility.yul\":6566:6596   */\n      calldatacopy\n        /* \"#utility.yul\":6630:6631   */\n      0x00\n        /* \"#utility.yul\":6621:6627   */\n      dup4\n        /* \"#utility.yul\":6616:6619   */\n      dup4\n        /* \"#utility.yul\":6612:6628   */\n      add\n        /* \"#utility.yul\":6605:6632   */\n      mstore\n        /* \"#utility.yul\":6491:6639   */\n      pop\n      pop\n      pop\n      jump\t// out\n        /* \"#utility.yul\":6645:7070   */\n    tag_189:\n        /* \"#utility.yul\":6723:6728   */\n      0x00\n        /* \"#utility.yul\":6748:6814   */\n      tag_294\n        /* \"#utility.yul\":6764:6813   */\n      tag_295\n        /* \"#utility.yul\":6806:6812   */\n      dup5\n        /* \"#utility.yul\":6764:6813   */\n      tag_187\n      jump\t// in\n    tag_295:\n        /* \"#utility.yul\":6748:6814   */\n      tag_186\n      jump\t// in\n    tag_294:\n        /* \"#utility.yul\":6739:6814   */\n      swap1\n      pop\n        /* \"#utility.yul\":6837:6843   */\n      dup3\n        /* \"#utility.yul\":6830:6835   */\n      dup2\n        /* \"#utility.yul\":6823:6844   */\n      mstore\n        /* \"#utility.yul\":6875:6879   */\n      0x20\n        /* \"#utility.yul\":6868:6873   */\n      dup2\n        /* \"#utility.yul\":6864:6880   */\n      add\n        /* \"#utility.yul\":6913:6916   */\n      dup5\n        /* \"#utility.yul\":6904:6910   */\n      dup5\n        /* \"#utility.yul\":6899:6902   */\n      dup5\n        /* \"#utility.yul\":6895:6911   */\n      add\n        /* \"#utility.yul\":6892:6917   */\n      gt\n        /* \"#utility.yul\":6889:7001   */\n      iszero\n      tag_296\n      jumpi\n        /* \"#utility.yul\":6920:6999   */\n      tag_297\n      tag_183\n      jump\t// in\n    tag_297:\n        /* \"#utility.yul\":6889:7001   */\n    tag_296:\n        /* \"#utility.yul\":7010:7064   */\n      tag_298\n        /* \"#utility.yul\":7057:7063   */\n      dup5\n        /* \"#utility.yul\":7052:7055   */\n      dup3\n        /* \"#utility.yul\":7047:7050   */\n      dup6\n        /* \"#utility.yul\":7010:7064   */\n      tag_188\n      jump\t// in\n    tag_298:\n        /* \"#utility.yul\":6729:7070   */\n      pop\n        /* \"#utility.yul\":6645:7070   */\n      swap4\n      swap3\n      pop\n      pop\n      pop\n      jump\t// out\n        /* \"#utility.yul\":7090:7430   */\n    tag_190:\n        /* \"#utility.yul\":7146:7151   */\n      0x00\n        /* \"#utility.yul\":7195:7198   */\n      dup3\n        /* \"#utility.yul\":7188:7192   */\n      0x1f\n        /* \"#utility.yul\":7180:7186   */\n      dup4\n        /* \"#utility.yul\":7176:7193   */\n      add\n        /* \"#utility.yul\":7172:7199   */\n      slt\n        /* \"#utility.yul\":7162:7284   */\n      tag_300\n      jumpi\n        /* \"#utility.yul\":7203:7282   */\n      tag_301\n      tag_182\n      jump\t// in\n    tag_301:\n        /* \"#utility.yul\":7162:7284   */\n    tag_300:\n        /* \"#utility.yul\":7320:7326   */\n      dup2\n        /* \"#utility.yul\":7307:7327   */\n      calldataload\n        /* \"#utility.yul\":7345:7424   */\n      tag_302\n        /* \"#utility.yul\":7420:7423   */\n      dup5\n        /* \"#utility.yul\":7412:7418   */\n      dup3\n        /* \"#utility.yul\":7405:7409   */\n      0x20\n        /* \"#utility.yul\":7397:7403   */\n      dup7\n        /* \"#utility.yul\":7393:7410   */\n      add\n        /* \"#utility.yul\":7345:7424   */\n      tag_189\n      jump\t// in\n    tag_302:\n        /* \"#utility.yul\":7336:7424   */\n      swap2\n      pop\n        /* \"#utility.yul\":7152:7430   */\n      pop\n        /* \"#utility.yul\":7090:7430   */\n      swap3\n      swap2\n      pop\n      pop\n      jump\t// out\n        /* \"#utility.yul\":7436:7743   */\n    tag_191:\n        /* \"#utility.yul\":7497:7501   */\n      0x00\n        /* \"#utility.yul\":7587:7605   */\n      0xffffffffffffffff\n        /* \"#utility.yul\":7579:7585   */\n      dup3\n        /* \"#utility.yul\":7576:7606   */\n      gt\n        /* \"#utility.yul\":7573:7629   */\n      iszero\n      tag_304\n      jumpi\n        /* \"#utility.yul\":7609:7627   */\n      tag_305\n      tag_184\n      jump\t// in\n    tag_305:\n        /* \"#utility.yul\":7573:7629   */\n    tag_304:\n        /* \"#utility.yul\":7647:7676   */\n      tag_306\n        /* \"#utility.yul\":7669:7675   */\n      dup3\n        /* \"#utility.yul\":7647:7676   */\n      tag_173\n      jump\t// in\n    tag_306:\n        /* \"#utility.yul\":7639:7676   */\n      swap1\n      pop\n        /* \"#utility.yul\":7731:7735   */\n      0x20\n        /* \"#utility.yul\":7725:7729   */\n      dup2\n        /* \"#utility.yul\":7721:7736   */\n      add\n        /* \"#utility.yul\":7713:7736   */\n      swap1\n      pop\n        /* \"#utility.yul\":7436:7743   */\n      swap2\n      swap1\n      pop\n      jump\t// out\n        /* \"#utility.yul\":7749:8172   */\n    tag_192:\n        /* \"#utility.yul\":7826:7831   */\n      0x00\n        /* \"#utility.yul\":7851:7916   */\n      tag_308\n        /* \"#utility.yul\":7867:7915   */\n      tag_309\n        /* \"#utility.yul\":7908:7914   */\n      dup5\n        /* \"#utility.yul\":7867:7915   */\n      tag_191\n      jump\t// in\n    tag_309:\n        /* \"#utility.yul\":7851:7916   */\n      tag_186\n      jump\t// in\n    tag_308:\n        /* \"#utility.yul\":7842:7916   */\n      swap1\n      pop\n        /* \"#utility.yul\":7939:7945   */\n      dup3\n        /* \"#utility.yul\":7932:7937   */\n      dup2\n        /* \"#utility.yul\":7925:7946   */\n      mstore\n        /* \"#utility.yul\":7977:7981   */\n      0x20\n        /* \"#utility.yul\":7970:7975   */\n      dup2\n        /* \"#utility.yul\":7966:7982   */\n      add\n        /* \"#utility.yul\":8015:8018   */\n      dup5\n        /* \"#utility.yul\":8006:8012   */\n      dup5\n        /* \"#utility.yul\":8001:8004   */\n      dup5\n        /* \"#utility.yul\":7997:8013   */\n      add\n        /* \"#utility.yul\":7994:8019   */\n      gt\n        /* \"#utility.yul\":7991:8103   */\n      iszero\n      tag_310\n      jumpi\n        /* \"#utility.yul\":8022:8101   */\n      tag_311\n      tag_183\n      jump\t// in\n    tag_311:\n        /* \"#utility.yul\":7991:8103   */\n    tag_310:\n        /* \"#utility.yul\":8112:8166   */\n      tag_312\n        /* \"#utility.yul\":8159:8165   */\n      dup5\n        /* \"#utility.yul\":8154:8157   */\n      dup3\n        /* \"#utility.yul\":8149:8152   */\n      dup6\n        /* \"#utility.yul\":8112:8166   */\n      tag_188\n      jump\t// in\n    tag_312:\n        /* \"#utility.yul\":7832:8172   */\n      pop\n        /* \"#utility.yul\":7749:8172   */\n      swap4\n      swap3\n      pop\n      pop\n      pop\n      jump\t// out\n        /* \"#utility.yul\":8191:8529   */\n    tag_193:\n        /* \"#utility.yul\":8246:8251   */\n      0x00\n        /* \"#utility.yul\":8295:8298   */\n      dup3\n        /* \"#utility.yul\":8288:8292   */\n      0x1f\n        /* \"#utility.yul\":8280:8286   */\n      dup4\n        /* \"#utility.yul\":8276:8293   */\n      add\n        /* \"#utility.yul\":8272:8299   */\n      slt\n        /* \"#utility.yul\":8262:8384   */\n      tag_314\n      jumpi\n        /* \"#utility.yul\":8303:8382   */\n      tag_315\n      tag_182\n      jump\t// in\n    tag_315:\n        /* \"#utility.yul\":8262:8384   */\n    tag_314:\n        /* \"#utility.yul\":8420:8426   */\n      dup2\n        /* \"#utility.yul\":8407:8427   */\n      calldataload\n        /* \"#utility.yul\":8445:8523   */\n      tag_316\n        /* \"#utility.yul\":8519:8522   */\n      dup5\n        /* \"#utility.yul\":8511:8517   */\n      dup3\n        /* \"#utility.yul\":8504:8508   */\n      0x20\n        /* \"#utility.yul\":8496:8502   */\n      dup7\n        /* \"#utility.yul\":8492:8509   */\n      add\n        /* \"#utility.yul\":8445:8523   */\n      tag_192\n      jump\t// in\n    tag_316:\n        /* \"#utility.yul\":8436:8523   */\n      swap2\n      pop\n        /* \"#utility.yul\":8252:8529   */\n      pop\n        /* \"#utility.yul\":8191:8529   */\n      swap3\n      swap2\n      pop\n      pop\n      jump\t// out\n        /* \"#utility.yul\":8535:9692   */\n    tag_33:\n        /* \"#utility.yul\":8641:8647   */\n      0x00\n        /* \"#utility.yul\":8649:8655   */\n      0x00\n        /* \"#utility.yul\":8657:8663   */\n      0x00\n        /* \"#utility.yul\":8706:8708   */\n      0x60\n        /* \"#utility.yul\":8694:8703   */\n      dup5\n        /* \"#utility.yul\":8685:8692   */\n      dup7\n        /* \"#utility.yul\":8681:8704   */\n      sub\n        /* \"#utility.yul\":8677:8709   */\n      slt\n        /* \"#utility.yul\":8674:8793   */\n      iszero\n      tag_318\n      jumpi\n        /* \"#utility.yul\":8712:8791   */\n      tag_319\n      tag_163\n      jump\t// in\n    tag_319:\n        /* \"#utility.yul\":8674:8793   */\n    tag_318:\n        /* \"#utility.yul\":8860:8861   */\n      0x00\n        /* \"#utility.yul\":8849:8858   */\n      dup5\n        /* \"#utility.yul\":8845:8862   */\n      add\n        /* \"#utility.yul\":8832:8863   */\n      calldataload\n        /* \"#utility.yul\":8890:8908   */\n      0xffffffffffffffff\n        /* \"#utility.yul\":8882:8888   */\n      dup2\n        /* \"#utility.yul\":8879:8909   */\n      gt\n        /* \"#utility.yul\":8876:8993   */\n      iszero\n      tag_320\n      jumpi\n        /* \"#utility.yul\":8912:8991   */\n      tag_321\n      tag_164\n      jump\t// in\n    tag_321:\n        /* \"#utility.yul\":8876:8993   */\n    tag_320:\n        /* \"#utility.yul\":9017:9080   */\n      tag_322\n        /* \"#utility.yul\":9072:9079   */\n      dup7\n        /* \"#utility.yul\":9063:9069   */\n      dup3\n        /* \"#utility.yul\":9052:9061   */\n      dup8\n        /* \"#utility.yul\":9048:9070   */\n      add\n        /* \"#utility.yul\":9017:9080   */\n      tag_190\n      jump\t// in\n    tag_322:\n        /* \"#utility.yul\":9007:9080   */\n      swap4\n      pop\n        /* \"#utility.yul\":8803:9090   */\n      pop\n        /* \"#utility.yul\":9157:9159   */\n      0x20\n        /* \"#utility.yul\":9146:9155   */\n      dup5\n        /* \"#utility.yul\":9142:9160   */\n      add\n        /* \"#utility.yul\":9129:9161   */\n      calldataload\n        /* \"#utility.yul\":9188:9206   */\n      0xffffffffffffffff\n        /* \"#utility.yul\":9180:9186   */\n      dup2\n        /* \"#utility.yul\":9177:9207   */\n      gt\n        /* \"#utility.yul\":9174:9291   */\n      iszero\n      tag_323\n      jumpi\n        /* \"#utility.yul\":9210:9289   */\n      tag_324\n      tag_164\n      jump\t// in\n    tag_324:\n        /* \"#utility.yul\":9174:9291   */\n    tag_323:\n        /* \"#utility.yul\":9315:9378   */\n      tag_325\n        /* \"#utility.yul\":9370:9377   */\n      dup7\n        /* \"#utility.yul\":9361:9367   */\n      dup3\n        /* \"#utility.yul\":9350:9359   */\n      dup8\n        /* \"#utility.yul\":9346:9368   */\n      add\n        /* \"#utility.yul\":9315:9378   */\n      tag_190\n      jump\t// in\n    tag_325:\n        /* \"#utility.yul\":9305:9378   */\n      swap3\n      pop\n        /* \"#utility.yul\":9100:9388   */\n      pop\n        /* \"#utility.yul\":9455:9457   */\n      0x40\n        /* \"#utility.yul\":9444:9453   */\n      dup5\n        /* \"#utility.yul\":9440:9458   */\n      add\n        /* \"#utility.yul\":9427:9459   */\n      calldataload\n        /* \"#utility.yul\":9486:9504   */\n      0xffffffffffffffff\n        /* \"#utility.yul\":9478:9484   */\n      dup2\n        /* \"#utility.yul\":9475:9505   */\n      gt\n        /* \"#utility.yul\":9472:9589   */\n      iszero\n      tag_326\n      jumpi\n        /* \"#utility.yul\":9508:9587   */\n      tag_327\n      tag_164\n      jump\t// in\n    tag_327:\n        /* \"#utility.yul\":9472:9589   */\n    tag_326:\n        /* \"#utility.yul\":9613:9675   */\n      tag_328\n        /* \"#utility.yul\":9667:9674   */\n      dup7\n        /* \"#utility.yul\":9658:9664   */\n      dup3\n        /* \"#utility.yul\":9647:9656   */\n      dup8\n        /* \"#utility.yul\":9643:9665   */\n      add\n        /* \"#utility.yul\":9613:9675   */\n      tag_193\n      jump\t// in\n    tag_328:\n        /* \"#utility.yul\":9603:9675   */\n      swap2\n      pop\n        /* \"#utility.yul\":9398:9685   */\n      pop\n        /* \"#utility.yul\":8535:9692   */\n      swap3\n      pop\n      swap3\n      pop\n      swap3\n      jump\t// out\n        /* \"#utility.yul\":9698:10530   */\n    tag_43:\n        /* \"#utility.yul\":9785:9791   */\n      0x00\n        /* \"#utility.yul\":9793:9799   */\n      0x00\n        /* \"#utility.yul\":9842:9844   */\n      0x40\n        /* \"#utility.yul\":9830:9839   */\n      dup4\n        /* \"#utility.yul\":9821:9828   */\n      dup6\n        /* \"#utility.yul\":9817:9840   */\n      sub\n        /* \"#utility.yul\":9813:9845   */\n      slt\n        /* \"#utility.yul\":9810:9929   */\n      iszero\n      tag_330\n      jumpi\n        /* \"#utility.yul\":9848:9927   */\n      tag_331\n      tag_163\n      jump\t// in\n    tag_331:\n        /* \"#utility.yul\":9810:9929   */\n    tag_330:\n        /* \"#utility.yul\":9996:9997   */\n      0x00\n        /* \"#utility.yul\":9985:9994   */\n      dup4\n        /* \"#utility.yul\":9981:9998   */\n      add\n        /* \"#utility.yul\":9968:9999   */\n      calldataload\n        /* \"#utility.yul\":10026:10044   */\n      0xffffffffffffffff\n        /* \"#utility.yul\":10018:10024   */\n      dup2\n        /* \"#utility.yul\":10015:10045   */\n      gt\n        /* \"#utility.yul\":10012:10129   */\n      iszero\n      tag_332\n      jumpi\n        /* \"#utility.yul\":10048:10127   */\n      tag_333\n      tag_164\n      jump\t// in\n    tag_333:\n        /* \"#utility.yul\":10012:10129   */\n    tag_332:\n        /* \"#utility.yul\":10153:10216   */\n      tag_334\n        /* \"#utility.yul\":10208:10215   */\n      dup6\n        /* \"#utility.yul\":10199:10205   */\n      dup3\n        /* \"#utility.yul\":10188:10197   */\n      dup7\n        /* \"#utility.yul\":10184:10206   */\n      add\n        /* \"#utility.yul\":10153:10216   */\n      tag_190\n      jump\t// in\n    tag_334:\n        /* \"#utility.yul\":10143:10216   */\n      swap3\n      pop\n        /* \"#utility.yul\":9939:10226   */\n      pop\n        /* \"#utility.yul\":10293:10295   */\n      0x20\n        /* \"#utility.yul\":10282:10291   */\n      dup4\n        /* \"#utility.yul\":10278:10296   */\n      add\n        /* \"#utility.yul\":10265:10297   */\n      calldataload\n        /* \"#utility.yul\":10324:10342   */\n      0xffffffffffffffff\n        /* \"#utility.yul\":10316:10322   */\n      dup2\n        /* \"#utility.yul\":10313:10343   */\n      gt\n        /* \"#utility.yul\":10310:10427   */\n      iszero\n      tag_335\n      jumpi\n        /* \"#utility.yul\":10346:10425   */\n      tag_336\n      tag_164\n      jump\t// in\n    tag_336:\n        /* \"#utility.yul\":10310:10427   */\n    tag_335:\n        /* \"#utility.yul\":10451:10513   */\n      tag_337\n        /* \"#utility.yul\":10505:10512   */\n      dup6\n        /* \"#utility.yul\":10496:10502   */\n      dup3\n        /* \"#utility.yul\":10485:10494   */\n      dup7\n        /* \"#utility.yul\":10481:10503   */\n      add\n        /* \"#utility.yul\":10451:10513   */\n      tag_193\n      jump\t// in\n    tag_337:\n        /* \"#utility.yul\":10441:10513   */\n      swap2\n      pop\n        /* \"#utility.yul\":10236:10523   */\n      pop\n        /* \"#utility.yul\":9698:10530   */\n      swap3\n      pop\n      swap3\n      swap1\n      pop\n      jump\t// out\n        /* \"#utility.yul\":10536:10705   */\n    tag_194:\n        /* \"#utility.yul\":10620:10631   */\n      0x00\n        /* \"#utility.yul\":10654:10660   */\n      dup3\n        /* \"#utility.yul\":10649:10652   */\n      dup3\n        /* \"#utility.yul\":10642:10661   */\n      mstore\n        /* \"#utility.yul\":10694:10698   */\n      0x20\n        /* \"#utility.yul\":10689:10692   */\n      dup3\n        /* \"#utility.yul\":10685:10699   */\n      add\n        /* \"#utility.yul\":10670:10699   */\n      swap1\n      pop\n        /* \"#utility.yul\":10536:10705   */\n      swap3\n      swap2\n      pop\n      pop\n      jump\t// out\n        /* \"#utility.yul\":10711:11088   */\n    tag_195:\n        /* \"#utility.yul\":10799:10802   */\n      0x00\n        /* \"#utility.yul\":10827:10866   */\n      tag_340\n        /* \"#utility.yul\":10860:10865   */\n      dup3\n        /* \"#utility.yul\":10827:10866   */\n      tag_170\n      jump\t// in\n    tag_340:\n        /* \"#utility.yul\":10882:10953   */\n      tag_341\n        /* \"#utility.yul\":10946:10952   */\n      dup2\n        /* \"#utility.yul\":10941:10944   */\n      dup6\n        /* \"#utility.yul\":10882:10953   */\n      tag_194\n      jump\t// in\n    tag_341:\n        /* \"#utility.yul\":10875:10953   */\n      swap4\n      pop\n        /* \"#utility.yul\":10962:11027   */\n      tag_342\n        /* \"#utility.yul\":11020:11026   */\n      dup2\n        /* \"#utility.yul\":11015:11018   */\n      dup6\n        /* \"#utility.yul\":11008:11012   */\n      0x20\n        /* \"#utility.yul\":11001:11006   */\n      dup7\n        /* \"#utility.yul\":10997:11013   */\n      add\n        /* \"#utility.yul\":10962:11027   */\n      tag_172\n      jump\t// in\n    tag_342:\n        /* \"#utility.yul\":11052:11081   */\n      tag_343\n        /* \"#utility.yul\":11074:11080   */\n      dup2\n        /* \"#utility.yul\":11052:11081   */\n      tag_173\n      jump\t// in\n    tag_343:\n        /* \"#utility.yul\":11047:11050   */\n      dup5\n        /* \"#utility.yul\":11043:11082   */\n      add\n        /* \"#utility.yul\":11036:11082   */\n      swap2\n      pop\n        /* \"#utility.yul\":10803:11088   */\n      pop\n        /* \"#utility.yul\":10711:11088   */\n      swap3\n      swap2\n      pop\n      pop\n      jump\t// out\n        /* \"#utility.yul\":11094:11262   */\n    tag_196:\n        /* \"#utility.yul\":11177:11188   */\n      0x00\n        /* \"#utility.yul\":11211:11217   */\n      dup3\n        /* \"#utility.yul\":11206:11209   */\n      dup3\n        /* \"#utility.yul\":11199:11218   */\n      mstore\n        /* \"#utility.yul\":11251:11255   */\n      0x20\n        /* \"#utility.yul\":11246:11249   */\n      dup3\n        /* \"#utility.yul\":11242:11256   */\n      add\n        /* \"#utility.yul\":11227:11256   */\n      swap1\n      pop\n        /* \"#utility.yul\":11094:11262   */\n      swap3\n      swap2\n      pop\n      pop\n      jump\t// out\n        /* \"#utility.yul\":11268:11641   */\n    tag_197:\n        /* \"#utility.yul\":11354:11357   */\n      0x00\n        /* \"#utility.yul\":11382:11420   */\n      tag_346\n        /* \"#utility.yul\":11414:11419   */\n      dup3\n        /* \"#utility.yul\":11382:11420   */\n      tag_175\n      jump\t// in\n    tag_346:\n        /* \"#utility.yul\":11436:11506   */\n      tag_347\n        /* \"#utility.yul\":11499:11505   */\n      dup2\n        /* \"#utility.yul\":11494:11497   */\n      dup6\n        /* \"#utility.yul\":11436:11506   */\n      tag_196\n      jump\t// in\n    tag_347:\n        /* \"#utility.yul\":11429:11506   */\n      swap4\n      pop\n        /* \"#utility.yul\":11515:11580   */\n      tag_348\n        /* \"#utility.yul\":11573:11579   */\n      dup2\n        /* \"#utility.yul\":11568:11571   */\n      dup6\n        /* \"#utility.yul\":11561:11565   */\n      0x20\n        /* \"#utility.yul\":11554:11559   */\n      dup7\n        /* \"#utility.yul\":11550:11566   */\n      add\n        /* \"#utility.yul\":11515:11580   */\n      tag_172\n      jump\t// in\n    tag_348:\n        /* \"#utility.yul\":11605:11634   */\n      tag_349\n        /* \"#utility.yul\":11627:11633   */\n      dup2\n        /* \"#utility.yul\":11605:11634   */\n      tag_173\n      jump\t// in\n    tag_349:\n        /* \"#utility.yul\":11600:11603   */\n      dup5\n        /* \"#utility.yul\":11596:11635   */\n      add\n        /* \"#utility.yul\":11589:11635   */\n      swap2\n      pop\n        /* \"#utility.yul\":11358:11641   */\n      pop\n        /* \"#utility.yul\":11268:11641   */\n      swap3\n      swap2\n      pop\n      pop\n      jump\t// out\n        /* \"#utility.yul\":11647:11765   */\n    tag_198:\n        /* \"#utility.yul\":11734:11758   */\n      tag_351\n        /* \"#utility.yul\":11752:11757   */\n      dup2\n        /* \"#utility.yul\":11734:11758   */\n      tag_178\n      jump\t// in\n    tag_351:\n        /* \"#utility.yul\":11729:11732   */\n      dup3\n        /* \"#utility.yul\":11722:11759   */\n      mstore\n        /* \"#utility.yul\":11647:11765   */\n      pop\n      pop\n      jump\t// out\n        /* \"#utility.yul\":11771:12815   */\n    tag_57:\n        /* \"#utility.yul\":12062:12066   */\n      0x00\n        /* \"#utility.yul\":12100:12103   */\n      0xc0\n        /* \"#utility.yul\":12089:12098   */\n      dup3\n        /* \"#utility.yul\":12085:12104   */\n      add\n        /* \"#utility.yul\":12077:12104   */\n      swap1\n      pop\n        /* \"#utility.yul\":12114:12185   */\n      tag_353\n        /* \"#utility.yul\":12182:12183   */\n      0x00\n        /* \"#utility.yul\":12171:12180   */\n      dup4\n        /* \"#utility.yul\":12167:12184   */\n      add\n        /* \"#utility.yul\":12158:12164   */\n      dup10\n        /* \"#utility.yul\":12114:12185   */\n      tag_181\n      jump\t// in\n    tag_353:\n        /* \"#utility.yul\":12232:12241   */\n      dup2\n        /* \"#utility.yul\":12226:12230   */\n      dup2\n        /* \"#utility.yul\":12222:12242   */\n      sub\n        /* \"#utility.yul\":12217:12219   */\n      0x20\n        /* \"#utility.yul\":12206:12215   */\n      dup4\n        /* \"#utility.yul\":12202:12220   */\n      add\n        /* \"#utility.yul\":12195:12243   */\n      mstore\n        /* \"#utility.yul\":12260:12338   */\n      tag_354\n        /* \"#utility.yul\":12333:12337   */\n      dup2\n        /* \"#utility.yul\":12324:12330   */\n      dup9\n        /* \"#utility.yul\":12260:12338   */\n      tag_195\n      jump\t// in\n    tag_354:\n        /* \"#utility.yul\":12252:12338   */\n      swap1\n      pop\n        /* \"#utility.yul\":12385:12394   */\n      dup2\n        /* \"#utility.yul\":12379:12383   */\n      dup2\n        /* \"#utility.yul\":12375:12395   */\n      sub\n        /* \"#utility.yul\":12370:12372   */\n      0x40\n        /* \"#utility.yul\":12359:12368   */\n      dup4\n        /* \"#utility.yul\":12355:12373   */\n      add\n        /* \"#utility.yul\":12348:12396   */\n      mstore\n        /* \"#utility.yul\":12413:12491   */\n      tag_355\n        /* \"#utility.yul\":12486:12490   */\n      dup2\n        /* \"#utility.yul\":12477:12483   */\n      dup8\n        /* \"#utility.yul\":12413:12491   */\n      tag_195\n      jump\t// in\n    tag_355:\n        /* \"#utility.yul\":12405:12491   */\n      swap1\n      pop\n        /* \"#utility.yul\":12538:12547   */\n      dup2\n        /* \"#utility.yul\":12532:12536   */\n      dup2\n        /* \"#utility.yul\":12528:12548   */\n      sub\n        /* \"#utility.yul\":12523:12525   */\n      0x60\n        /* \"#utility.yul\":12512:12521   */\n      dup4\n        /* \"#utility.yul\":12508:12526   */\n      add\n        /* \"#utility.yul\":12501:12549   */\n      mstore\n        /* \"#utility.yul\":12566:12642   */\n      tag_356\n        /* \"#utility.yul\":12637:12641   */\n      dup2\n        /* \"#utility.yul\":12628:12634   */\n      dup7\n        /* \"#utility.yul\":12566:12642   */\n      tag_197\n      jump\t// in\n    tag_356:\n        /* \"#utility.yul\":12558:12642   */\n      swap1\n      pop\n        /* \"#utility.yul\":12652:12725   */\n      tag_357\n        /* \"#utility.yul\":12720:12723   */\n      0x80\n        /* \"#utility.yul\":12709:12718   */\n      dup4\n        /* \"#utility.yul\":12705:12724   */\n      add\n        /* \"#utility.yul\":12696:12702   */\n      dup6\n        /* \"#utility.yul\":12652:12725   */\n      tag_198\n      jump\t// in\n    tag_357:\n        /* \"#utility.yul\":12735:12808   */\n      tag_358\n        /* \"#utility.yul\":12803:12806   */\n      0xa0\n        /* \"#utility.yul\":12792:12801   */\n      dup4\n        /* \"#utility.yul\":12788:12807   */\n      add\n        /* \"#utility.yul\":12779:12785   */\n      dup5\n        /* \"#utility.yul\":12735:12808   */\n      tag_198\n      jump\t// in\n    tag_358:\n        /* \"#utility.yul\":11771:12815   */\n      swap8\n      swap7\n      pop\n      pop\n      pop\n      pop\n      pop\n      pop\n      pop\n      jump\t// out\n        /* \"#utility.yul\":12821:12943   */\n    tag_199:\n        /* \"#utility.yul\":12894:12918   */\n      tag_360\n        /* \"#utility.yul\":12912:12917   */\n      dup2\n        /* \"#utility.yul\":12894:12918   */\n      tag_178\n      jump\t// in\n    tag_360:\n        /* \"#utility.yul\":12887:12892   */\n      dup2\n        /* \"#utility.yul\":12884:12919   */\n      eq\n        /* \"#utility.yul\":12874:12937   */\n      tag_361\n      jumpi\n        /* \"#utility.yul\":12933:12934   */\n      0x00\n        /* \"#utility.yul\":12930:12931   */\n      0x00\n        /* \"#utility.yul\":12923:12935   */\n      revert\n        /* \"#utility.yul\":12874:12937   */\n    tag_361:\n        /* \"#utility.yul\":12821:12943   */\n      pop\n      jump\t// out\n        /* \"#utility.yul\":12949:13088   */\n    tag_200:\n        /* \"#utility.yul\":12995:13000   */\n      0x00\n        /* \"#utility.yul\":13033:13039   */\n      dup2\n        /* \"#utility.yul\":13020:13040   */\n      calldataload\n        /* \"#utility.yul\":13011:13040   */\n      swap1\n      pop\n        /* \"#utility.yul\":13049:13082   */\n      tag_363\n        /* \"#utility.yul\":13076:13081   */\n      dup2\n        /* \"#utility.yul\":13049:13082   */\n      tag_199\n      jump\t// in\n    tag_363:\n        /* \"#utility.yul\":12949:13088   */\n      swap3\n      swap2\n      pop\n      pop\n      jump\t// out\n        /* \"#utility.yul\":13094:13568   */\n    tag_63:\n        /* \"#utility.yul\":13162:13168   */\n      0x00\n        /* \"#utility.yul\":13170:13176   */\n      0x00\n        /* \"#utility.yul\":13219:13221   */\n      0x40\n        /* \"#utility.yul\":13207:13216   */\n      dup4\n        /* \"#utility.yul\":13198:13205   */\n      dup6\n        /* \"#utility.yul\":13194:13217   */\n      sub\n        /* \"#utility.yul\":13190:13222   */\n      slt\n        /* \"#utility.yul\":13187:13306   */\n      iszero\n      tag_365\n      jumpi\n        /* \"#utility.yul\":13225:13304   */\n      tag_366\n      tag_163\n      jump\t// in\n    tag_366:\n        /* \"#utility.yul\":13187:13306   */\n    tag_365:\n        /* \"#utility.yul\":13345:13346   */\n      0x00\n        /* \"#utility.yul\":13370:13423   */\n      tag_367\n        /* \"#utility.yul\":13415:13422   */\n      dup6\n        /* \"#utility.yul\":13406:13412   */\n      dup3\n        /* \"#utility.yul\":13395:13404   */\n      dup7\n        /* \"#utility.yul\":13391:13413   */\n      add\n        /* \"#utility.yul\":13370:13423   */\n      tag_168\n      jump\t// in\n    tag_367:\n        /* \"#utility.yul\":13360:13423   */\n      swap3\n      pop\n        /* \"#utility.yul\":13316:13433   */\n      pop\n        /* \"#utility.yul\":13472:13474   */\n      0x20\n        /* \"#utility.yul\":13498:13551   */\n      tag_368\n        /* \"#utility.yul\":13543:13550   */\n      dup6\n        /* \"#utility.yul\":13534:13540   */\n      dup3\n        /* \"#utility.yul\":13523:13532   */\n      dup7\n        /* \"#utility.yul\":13519:13541   */\n      add\n        /* \"#utility.yul\":13498:13551   */\n      tag_200\n      jump\t// in\n    tag_368:\n        /* \"#utility.yul\":13488:13551   */\n      swap2\n      pop\n        /* \"#utility.yul\":13443:13561   */\n      pop\n        /* \"#utility.yul\":13094:13568   */\n      swap3\n      pop\n      swap3\n      swap1\n      pop\n      jump\t// out\n        /* \"#utility.yul\":13574:13722   */\n    tag_201:\n        /* \"#utility.yul\":13676:13687   */\n      0x00\n        /* \"#utility.yul\":13713:13716   */\n      dup2\n        /* \"#utility.yul\":13698:13716   */\n      swap1\n      pop\n        /* \"#utility.yul\":13574:13722   */\n      swap3\n      swap2\n      pop\n      pop\n      jump\t// out\n        /* \"#utility.yul\":13728:13894   */\n    tag_202:\n        /* \"#utility.yul\":13868:13886   */\n      0x50726f6a656374417574686f7269747900000000000000000000000000000000\n        /* \"#utility.yul\":13864:13865   */\n      0x00\n        /* \"#utility.yul\":13856:13862   */\n      dup3\n        /* \"#utility.yul\":13852:13866   */\n      add\n        /* \"#utility.yul\":13845:13887   */\n      mstore\n        /* \"#utility.yul\":13728:13894   */\n      pop\n      jump\t// out\n        /* \"#utility.yul\":13900:14302   */\n    tag_203:\n        /* \"#utility.yul\":14060:14063   */\n      0x00\n        /* \"#utility.yul\":14081:14166   */\n      tag_372\n        /* \"#utility.yul\":14163:14165   */\n      0x10\n        /* \"#utility.yul\":14158:14161   */\n      dup4\n        /* \"#utility.yul\":14081:14166   */\n      tag_201\n      jump\t// in\n    tag_372:\n        /* \"#utility.yul\":14074:14166   */\n      swap2\n      pop\n        /* \"#utility.yul\":14175:14268   */\n      tag_373\n        /* \"#utility.yul\":14264:14267   */\n      dup3\n        /* \"#utility.yul\":14175:14268   */\n      tag_202\n      jump\t// in\n    tag_373:\n        /* \"#utility.yul\":14293:14295   */\n      0x10\n        /* \"#utility.yul\":14288:14291   */\n      dup3\n        /* \"#utility.yul\":14284:14296   */\n      add\n        /* \"#utility.yul\":14277:14296   */\n      swap1\n      pop\n        /* \"#utility.yul\":13900:14302   */\n      swap2\n      swap1\n      pop\n      jump\t// out\n        /* \"#utility.yul\":14308:14689   */\n    tag_70:\n        /* \"#utility.yul\":14493:14496   */\n      0x00\n        /* \"#utility.yul\":14515:14663   */\n      tag_375\n        /* \"#utility.yul\":14659:14662   */\n      dup3\n        /* \"#utility.yul\":14515:14663   */\n      tag_203\n      jump\t// in\n    tag_375:\n        /* \"#utility.yul\":14508:14663   */\n      swap2\n      pop\n        /* \"#utility.yul\":14680:14683   */\n      dup2\n        /* \"#utility.yul\":14673:14683   */\n      swap1\n      pop\n        /* \"#utility.yul\":14308:14689   */\n      swap2\n      swap1\n      pop\n      jump\t// out\n        /* \"#utility.yul\":14695:14875   */\n    tag_204:\n        /* \"#utility.yul\":14743:14820   */\n      0x4e487b7100000000000000000000000000000000000000000000000000000000\n        /* \"#utility.yul\":14740:14741   */\n      0x00\n        /* \"#utility.yul\":14733:14821   */\n      mstore\n        /* \"#utility.yul\":14840:14844   */\n      0x22\n        /* \"#utility.yul\":14837:14838   */\n      0x04\n        /* \"#utility.yul\":14830:14845   */\n      mstore\n        /* \"#utility.yul\":14864:14868   */\n      0x24\n        /* \"#utility.yul\":14861:14862   */\n      0x00\n        /* \"#utility.yul\":14854:14869   */\n      revert\n        /* \"#utility.yul\":14881:15201   */\n    tag_77:\n        /* \"#utility.yul\":14925:14931   */\n      0x00\n        /* \"#utility.yul\":14962:14963   */\n      0x02\n        /* \"#utility.yul\":14956:14960   */\n      dup3\n        /* \"#utility.yul\":14952:14964   */\n      div\n        /* \"#utility.yul\":14942:14964   */\n      swap1\n      pop\n        /* \"#utility.yul\":15009:15010   */\n      0x01\n        /* \"#utility.yul\":15003:15007   */\n      dup3\n        /* \"#utility.yul\":14999:15011   */\n      and\n        /* \"#utility.yul\":15030:15048   */\n      dup1\n        /* \"#utility.yul\":15020:15101   */\n      tag_378\n      jumpi\n        /* \"#utility.yul\":15086:15090   */\n      0x7f\n        /* \"#utility.yul\":15078:15084   */\n      dup3\n        /* \"#utility.yul\":15074:15091   */\n      and\n        /* \"#utility.yul\":15064:15091   */\n      swap2\n      pop\n        /* \"#utility.yul\":15020:15101   */\n    tag_378:\n        /* \"#utility.yul\":15148:15150   */\n      0x20\n        /* \"#utility.yul\":15140:15146   */\n      dup3\n        /* \"#utility.yul\":15137:15151   */\n      lt\n        /* \"#utility.yul\":15117:15135   */\n      dup2\n        /* \"#utility.yul\":15114:15152   */\n      sub\n        /* \"#utility.yul\":15111:15195   */\n      tag_379\n      jumpi\n        /* \"#utility.yul\":15167:15185   */\n      tag_380\n      tag_204\n      jump\t// in\n    tag_380:\n        /* \"#utility.yul\":15111:15195   */\n    tag_379:\n        /* \"#utility.yul\":14932:15201   */\n      pop\n        /* \"#utility.yul\":14881:15201   */\n      swap2\n      swap1\n      pop\n      jump\t// out\n        /* \"#utility.yul\":15207:15376   */\n    tag_205:\n        /* \"#utility.yul\":15347:15368   */\n      0x5573657220616c72656164792065786973747300000000000000000000000000\n        /* \"#utility.yul\":15343:15344   */\n      0x00\n        /* \"#utility.yul\":15335:15341   */\n      dup3\n        /* \"#utility.yul\":15331:15345   */\n      add\n        /* \"#utility.yul\":15324:15369   */\n      mstore\n        /* \"#utility.yul\":15207:15376   */\n      pop\n      jump\t// out\n        /* \"#utility.yul\":15382:15748   */\n    tag_206:\n        /* \"#utility.yul\":15524:15527   */\n      0x00\n        /* \"#utility.yul\":15545:15612   */\n      tag_383\n        /* \"#utility.yul\":15609:15611   */\n      0x13\n        /* \"#utility.yul\":15604:15607   */\n      dup4\n        /* \"#utility.yul\":15545:15612   */\n      tag_194\n      jump\t// in\n    tag_383:\n        /* \"#utility.yul\":15538:15612   */\n      swap2\n      pop\n        /* \"#utility.yul\":15621:15714   */\n      tag_384\n        /* \"#utility.yul\":15710:15713   */\n      dup3\n        /* \"#utility.yul\":15621:15714   */\n      tag_205\n      jump\t// in\n    tag_384:\n        /* \"#utility.yul\":15739:15741   */\n      0x20\n        /* \"#utility.yul\":15734:15737   */\n      dup3\n        /* \"#utility.yul\":15730:15742   */\n      add\n        /* \"#utility.yul\":15723:15742   */\n      swap1\n      pop\n        /* \"#utility.yul\":15382:15748   */\n      swap2\n      swap1\n      pop\n      jump\t// out\n        /* \"#utility.yul\":15754:16173   */\n    tag_95:\n        /* \"#utility.yul\":15920:15924   */\n      0x00\n        /* \"#utility.yul\":15958:15960   */\n      0x20\n        /* \"#utility.yul\":15947:15956   */\n      dup3\n        /* \"#utility.yul\":15943:15961   */\n      add\n        /* \"#utility.yul\":15935:15961   */\n      swap1\n      pop\n        /* \"#utility.yul\":16007:16016   */\n      dup2\n        /* \"#utility.yul\":16001:16005   */\n      dup2\n        /* \"#utility.yul\":15997:16017   */\n      sub\n        /* \"#utility.yul\":15993:15994   */\n      0x00\n        /* \"#utility.yul\":15982:15991   */\n      dup4\n        /* \"#utility.yul\":15978:15995   */\n      add\n        /* \"#utility.yul\":15971:16018   */\n      mstore\n        /* \"#utility.yul\":16035:16166   */\n      tag_386\n        /* \"#utility.yul\":16161:16165   */\n      dup2\n        /* \"#utility.yul\":16035:16166   */\n      tag_206\n      jump\t// in\n    tag_386:\n        /* \"#utility.yul\":16027:16166   */\n      swap1\n      pop\n        /* \"#utility.yul\":15754:16173   */\n      swap2\n      swap1\n      pop\n      jump\t// out\n        /* \"#utility.yul\":16179:16569   */\n    tag_207:\n        /* \"#utility.yul\":16285:16288   */\n      0x00\n        /* \"#utility.yul\":16313:16352   */\n      tag_388\n        /* \"#utility.yul\":16346:16351   */\n      dup3\n        /* \"#utility.yul\":16313:16352   */\n      tag_170\n      jump\t// in\n    tag_388:\n        /* \"#utility.yul\":16368:16457   */\n      tag_389\n        /* \"#utility.yul\":16450:16456   */\n      dup2\n        /* \"#utility.yul\":16445:16448   */\n      dup6\n        /* \"#utility.yul\":16368:16457   */\n      tag_201\n      jump\t// in\n    tag_389:\n        /* \"#utility.yul\":16361:16457   */\n      swap4\n      pop\n        /* \"#utility.yul\":16466:16531   */\n      tag_390\n        /* \"#utility.yul\":16524:16530   */\n      dup2\n        /* \"#utility.yul\":16519:16522   */\n      dup6\n        /* \"#utility.yul\":16512:16516   */\n      0x20\n        /* \"#utility.yul\":16505:16510   */\n      dup7\n        /* \"#utility.yul\":16501:16517   */\n      add\n        /* \"#utility.yul\":16466:16531   */\n      tag_172\n      jump\t// in\n    tag_390:\n        /* \"#utility.yul\":16556:16562   */\n      dup1\n        /* \"#utility.yul\":16551:16554   */\n      dup5\n        /* \"#utility.yul\":16547:16563   */\n      add\n        /* \"#utility.yul\":16540:16563   */\n      swap2\n      pop\n        /* \"#utility.yul\":16289:16569   */\n      pop\n        /* \"#utility.yul\":16179:16569   */\n      swap3\n      swap2\n      pop\n      pop\n      jump\t// out\n        /* \"#utility.yul\":16575:16850   */\n    tag_97:\n        /* \"#utility.yul\":16707:16710   */\n      0x00\n        /* \"#utility.yul\":16729:16824   */\n      tag_392\n        /* \"#utility.yul\":16820:16823   */\n      dup3\n        /* \"#utility.yul\":16811:16817   */\n      dup5\n        /* \"#utility.yul\":16729:16824   */\n      tag_207\n      jump\t// in\n    tag_392:\n        /* \"#utility.yul\":16722:16824   */\n      swap2\n      pop\n        /* \"#utility.yul\":16841:16844   */\n      dup2\n        /* \"#utility.yul\":16834:16844   */\n      swap1\n      pop\n        /* \"#utility.yul\":16575:16850   */\n      swap3\n      swap2\n      pop\n      pop\n      jump\t// out\n        /* \"#utility.yul\":16856:17169   */\n    tag_100:\n        /* \"#utility.yul\":16969:16973   */\n      0x00\n        /* \"#utility.yul\":17007:17009   */\n      0x20\n        /* \"#utility.yul\":16996:17005   */\n      dup3\n        /* \"#utility.yul\":16992:17010   */\n      add\n        /* \"#utility.yul\":16984:17010   */\n      swap1\n      pop\n        /* \"#utility.yul\":17056:17065   */\n      dup2\n        /* \"#utility.yul\":17050:17054   */\n      dup2\n        /* \"#utility.yul\":17046:17066   */\n      sub\n        /* \"#utility.yul\":17042:17043   */\n      0x00\n        /* \"#utility.yul\":17031:17040   */\n      dup4\n        /* \"#utility.yul\":17027:17044   */\n      add\n        /* \"#utility.yul\":17020:17067   */\n      mstore\n        /* \"#utility.yul\":17084:17162   */\n      tag_394\n        /* \"#utility.yul\":17157:17161   */\n      dup2\n        /* \"#utility.yul\":17148:17154   */\n      dup5\n        /* \"#utility.yul\":17084:17162   */\n      tag_195\n      jump\t// in\n    tag_394:\n        /* \"#utility.yul\":17076:17162   */\n      swap1\n      pop\n        /* \"#utility.yul\":16856:17169   */\n      swap3\n      swap2\n      pop\n      pop\n      jump\t// out\n        /* \"#utility.yul\":17175:17316   */\n    tag_208:\n        /* \"#utility.yul\":17224:17228   */\n      0x00\n        /* \"#utility.yul\":17247:17250   */\n      dup2\n        /* \"#utility.yul\":17239:17250   */\n      swap1\n      pop\n        /* \"#utility.yul\":17270:17273   */\n      dup2\n        /* \"#utility.yul\":17267:17268   */\n      0x00\n        /* \"#utility.yul\":17260:17274   */\n      mstore\n        /* \"#utility.yul\":17304:17308   */\n      0x20\n        /* \"#utility.yul\":17301:17302   */\n      0x00\n        /* \"#utility.yul\":17291:17309   */\n      keccak256\n        /* \"#utility.yul\":17283:17309   */\n      swap1\n      pop\n        /* \"#utility.yul\":17175:17316   */\n      swap2\n      swap1\n      pop\n      jump\t// out\n        /* \"#utility.yul\":17322:17415   */\n    tag_209:\n        /* \"#utility.yul\":17359:17365   */\n      0x00\n        /* \"#utility.yul\":17406:17408   */\n      0x20\n        /* \"#utility.yul\":17401:17403   */\n      0x1f\n        /* \"#utility.yul\":17394:17399   */\n      dup4\n        /* \"#utility.yul\":17390:17404   */\n      add\n        /* \"#utility.yul\":17386:17409   */\n      div\n        /* \"#utility.yul\":17376:17409   */\n      swap1\n      pop\n        /* \"#utility.yul\":17322:17415   */\n      swap2\n      swap1\n      pop\n      jump\t// out\n        /* \"#utility.yul\":17421:17528   */\n    tag_210:\n        /* \"#utility.yul\":17465:17473   */\n      0x00\n        /* \"#utility.yul\":17515:17520   */\n      dup3\n        /* \"#utility.yul\":17509:17513   */\n      dup3\n        /* \"#utility.yul\":17505:17521   */\n      shl\n        /* \"#utility.yul\":17484:17521   */\n      swap1\n      pop\n        /* \"#utility.yul\":17421:17528   */\n      swap3\n      swap2\n      pop\n      pop\n      jump\t// out\n        /* \"#utility.yul\":17534:17927   */\n    tag_211:\n        /* \"#utility.yul\":17603:17609   */\n      0x00\n        /* \"#utility.yul\":17653:17654   */\n      0x08\n        /* \"#utility.yul\":17641:17651   */\n      dup4\n        /* \"#utility.yul\":17637:17655   */\n      mul\n        /* \"#utility.yul\":17676:17773   */\n      tag_399\n        /* \"#utility.yul\":17706:17772   */\n      0xffffffffffffffffffffffffffffffffffffffffffffffffffffffffffffffff\n        /* \"#utility.yul\":17695:17704   */\n      dup3\n        /* \"#utility.yul\":17676:17773   */\n      tag_210\n      jump\t// in\n    tag_399:\n        /* \"#utility.yul\":17794:17833   */\n      tag_400\n        /* \"#utility.yul\":17824:17832   */\n      dup7\n        /* \"#utility.yul\":17813:17822   */\n      dup4\n        /* \"#utility.yul\":17794:17833   */\n      tag_210\n      jump\t// in\n    tag_400:\n        /* \"#utility.yul\":17782:17833   */\n      swap6\n      pop\n        /* \"#utility.yul\":17866:17870   */\n      dup1\n        /* \"#utility.yul\":17862:17871   */\n      not\n        /* \"#utility.yul\":17855:17860   */\n      dup5\n        /* \"#utility.yul\":17851:17872   */\n      and\n        /* \"#utility.yul\":17842:17872   */\n      swap4\n      pop\n        /* \"#utility.yul\":17915:17919   */\n      dup1\n        /* \"#utility.yul\":17905:17913   */\n      dup7\n        /* \"#utility.yul\":17901:17920   */\n      and\n        /* \"#utility.yul\":17894:17899   */\n      dup5\n        /* \"#utility.yul\":17891:17921   */\n      or\n        /* \"#utility.yul\":17881:17921   */\n      swap3\n      pop\n        /* \"#utility.yul\":17610:17927   */\n      pop\n      pop\n        /* \"#utility.yul\":17534:17927   */\n      swap4\n      swap3\n      pop\n      pop\n      pop\n      jump\t// out\n        /* \"#utility.yul\":17933:17993   */\n    tag_212:\n        /* \"#utility.yul\":17961:17964   */\n      0x00\n        /* \"#utility.yul\":17982:17987   */\n      dup2\n        /* \"#utility.yul\":17975:17987   */\n      swap1\n      pop\n        /* \"#utility.yul\":17933:17993   */\n      swap2\n      swap1\n      pop\n      jump\t// out\n        /* \"#utility.yul\":17999:18141   */\n    tag_213:\n        /* \"#utility.yul\":18049:18058   */\n      0x00\n        /* \"#utility.yul\":18082:18135   */\n      tag_403\n        /* \"#utility.yul\":18100:18134   */\n      tag_404\n        /* \"#utility.yul\":18109:18133   */\n      tag_405\n        /* \"#utility.yul\":18127:18132   */\n      dup5\n        /* \"#utility.yul\":18109:18133   */\n      tag_178\n      jump\t// in\n    tag_405:\n        /* \"#utility.yul\":18100:18134   */\n      tag_212\n      jump\t// in\n    tag_404:\n        /* \"#utility.yul\":18082:18135   */\n      tag_178\n      jump\t// in\n    tag_403:\n        /* \"#utility.yul\":18069:18135   */\n      swap1\n      pop\n        /* \"#utility.yul\":17999:18141   */\n      swap2\n      swap1\n      pop\n      jump\t// out\n        /* \"#utility.yul\":18147:18222   */\n    tag_214:\n        /* \"#utility.yul\":18190:18193   */\n      0x00\n        /* \"#utility.yul\":18211:18216   */\n      dup2\n        /* \"#utility.yul\":18204:18216   */\n      swap1\n      pop\n        /* \"#utility.yul\":18147:18222   */\n      swap2\n      swap1\n      pop\n      jump\t// out\n        /* \"#utility.yul\":18228:18497   */\n    tag_215:\n        /* \"#utility.yul\":18338:18377   */\n      tag_408\n        /* \"#utility.yul\":18369:18376   */\n      dup4\n        /* \"#utility.yul\":18338:18377   */\n      tag_213\n      jump\t// in\n    tag_408:\n        /* \"#utility.yul\":18399:18490   */\n      tag_409\n        /* \"#utility.yul\":18448:18489   */\n      tag_410\n        /* \"#utility.yul\":18472:18488   */\n      dup3\n        /* \"#utility.yul\":18448:18489   */\n      tag_214\n      jump\t// in\n    tag_410:\n        /* \"#utility.yul\":18440:18446   */\n      dup5\n        /* \"#utility.yul\":18433:18437   */\n      dup5\n        /* \"#utility.yul\":18427:18438   */\n      sload\n        /* \"#utility.yul\":18399:18490   */\n      tag_211\n      jump\t// in\n    tag_409:\n        /* \"#utility.yul\":18393:18397   */\n      dup3\n        /* \"#utility.yul\":18386:18491   */\n      sstore\n        /* \"#utility.yul\":18304:18497   */\n      pop\n        /* \"#utility.yul\":18228:18497   */\n      pop\n      pop\n      pop\n      jump\t// out\n        /* \"#utility.yul\":18503:18576   */\n    tag_216:\n        /* \"#utility.yul\":18548:18551   */\n      0x00\n        /* \"#utility.yul\":18569:18570   */\n      0x00\n        /* \"#utility.yul\":18562:18570   */\n      swap1\n      pop\n        /* \"#utility.yul\":18503:18576   */\n      swap1\n      jump\t// out\n        /* \"#utility.yul\":18582:18771   */\n    tag_217:\n        /* \"#utility.yul\":18659:18691   */\n      tag_413\n      tag_216\n      jump\t// in\n    tag_413:\n        /* \"#utility.yul\":18700:18765   */\n      tag_414\n        /* \"#utility.yul\":18758:18764   */\n      dup2\n        /* \"#utility.yul\":18750:18756   */\n      dup5\n        /* \"#utility.yul\":18744:18748   */\n      dup5\n        /* \"#utility.yul\":18700:18765   */\n      tag_215\n      jump\t// in\n    tag_414:\n        /* \"#utility.yul\":18635:18771   */\n      pop\n        /* \"#utility.yul\":18582:18771   */\n      pop\n      pop\n      jump\t// out\n        /* \"#utility.yul\":18777:18963   */\n    tag_218:\n        /* \"#utility.yul\":18837:18957   */\n    tag_416:\n        /* \"#utility.yul\":18854:18857   */\n      dup2\n        /* \"#utility.yul\":18847:18852   */\n      dup2\n        /* \"#utility.yul\":18844:18858   */\n      lt\n        /* \"#utility.yul\":18837:18957   */\n      iszero\n      tag_418\n      jumpi\n        /* \"#utility.yul\":18908:18947   */\n      tag_419\n        /* \"#utility.yul\":18945:18946   */\n      0x00\n        /* \"#utility.yul\":18938:18943   */\n      dup3\n        /* \"#utility.yul\":18908:18947   */\n      tag_217\n      jump\t// in\n    tag_419:\n        /* \"#utility.yul\":18881:18882   */\n      0x01\n        /* \"#utility.yul\":18874:18879   */\n      dup2\n        /* \"#utility.yul\":18870:18883   */\n      add\n        /* \"#utility.yul\":18861:18883   */\n      swap1\n      pop\n        /* \"#utility.yul\":18837:18957   */\n      jump(tag_416)\n    tag_418:\n        /* \"#utility.yul\":18777:18963   */\n      pop\n      pop\n      jump\t// out\n        /* \"#utility.yul\":18969:19512   */\n    tag_219:\n        /* \"#utility.yul\":19070:19072   */\n      0x1f\n        /* \"#utility.yul\":19065:19068   */\n      dup3\n        /* \"#utility.yul\":19062:19073   */\n      gt\n        /* \"#utility.yul\":19059:19505   */\n      iszero\n      tag_421\n      jumpi\n        /* \"#utility.yul\":19104:19142   */\n      tag_422\n        /* \"#utility.yul\":19136:19141   */\n      dup2\n        /* \"#utility.yul\":19104:19142   */\n      tag_208\n      jump\t// in\n    tag_422:\n        /* \"#utility.yul\":19188:19217   */\n      tag_423\n        /* \"#utility.yul\":19206:19216   */\n      dup5\n        /* \"#utility.yul\":19188:19217   */\n      tag_209\n      jump\t// in\n    tag_423:\n        /* \"#utility.yul\":19178:19186   */\n      dup2\n        /* \"#utility.yul\":19174:19218   */\n      add\n        /* \"#utility.yul\":19371:19373   */\n      0x20\n        /* \"#utility.yul\":19359:19369   */\n      dup6\n        /* \"#utility.yul\":19356:19374   */\n      lt\n        /* \"#utility.yul\":19353:19402   */\n      iszero\n      tag_424\n      jumpi\n        /* \"#utility.yul\":19392:19400   */\n      dup2\n        /* \"#utility.yul\":19377:19400   */\n      swap1\n      pop\n        /* \"#utility.yul\":19353:19402   */\n    tag_424:\n        /* \"#utility.yul\":19415:19495   */\n      tag_425\n        /* \"#utility.yul\":19471:19493   */\n      tag_426\n        /* \"#utility.yul\":19489:19492   */\n      dup6\n        /* \"#utility.yul\":19471:19493   */\n      tag_209\n      jump\t// in\n    tag_426:\n        /* \"#utility.yul\":19461:19469   */\n      dup4\n        /* \"#utility.yul\":19457:19494   */\n      add\n        /* \"#utility.yul\":19444:19455   */\n      dup3\n        /* \"#utility.yul\":19415:19495   */\n      tag_218\n      jump\t// in\n    tag_425:\n        /* \"#utility.yul\":19074:19505   */\n      pop\n      pop\n        /* \"#utility.yul\":19059:19505   */\n    tag_421:\n        /* \"#utility.yul\":18969:19512   */\n      pop\n      pop\n      pop\n      jump\t// out\n        /* \"#utility.yul\":19518:19635   */\n    tag_220:\n        /* \"#utility.yul\":19572:19580   */\n      0x00\n        /* \"#utility.yul\":19622:19627   */\n      dup3\n        /* \"#utility.yul\":19616:19620   */\n      dup3\n        /* \"#utility.yul\":19612:19628   */\n      shr\n        /* \"#utility.yul\":19591:19628   */\n      swap1\n      pop\n        /* \"#utility.yul\":19518:19635   */\n      swap3\n      swap2\n      pop\n      pop\n      jump\t// out\n        /* \"#utility.yul\":19641:19810   */\n    tag_221:\n        /* \"#utility.yul\":19685:19691   */\n      0x00\n        /* \"#utility.yul\":19718:19769   */\n      tag_429\n        /* \"#utility.yul\":19766:19767   */\n      0x00\n        /* \"#utility.yul\":19762:19768   */\n      not\n        /* \"#utility.yul\":19754:19759   */\n      dup5\n        /* \"#utility.yul\":19751:19752   */\n      0x08\n        /* \"#utility.yul\":19747:19760   */\n      mul\n        /* \"#utility.yul\":19718:19769   */\n      tag_220\n      jump\t// in\n    tag_429:\n        /* \"#utility.yul\":19714:19770   */\n      not\n        /* \"#utility.yul\":19799:19803   */\n      dup1\n        /* \"#utility.yul\":19793:19797   */\n      dup4\n        /* \"#utility.yul\":19789:19804   */\n      and\n        /* \"#utility.yul\":19779:19804   */\n      swap2\n      pop\n        /* \"#utility.yul\":19692:19810   */\n      pop\n        /* \"#utility.yul\":19641:19810   */\n      swap3\n      swap2\n      pop\n      pop\n      jump\t// out\n        /* \"#utility.yul\":19815:20110   */\n    tag_222:\n        /* \"#utility.yul\":19891:19895   */\n      0x00\n        /* \"#utility.yul\":20037:20066   */\n      tag_431\n        /* \"#utility.yul\":20062:20065   */\n      dup4\n        /* \"#utility.yul\":20056:20060   */\n      dup4\n        /* \"#utility.yul\":20037:20066   */\n      tag_221\n      jump\t// in\n    tag_431:\n        /* \"#utility.yul\":20029:20066   */\n      swap2\n      pop\n        /* \"#utility.yul\":20099:20102   */\n      dup3\n        /* \"#utility.yul\":20096:20097   */\n      0x02\n        /* \"#utility.yul\":20092:20103   */\n      mul\n        /* \"#utility.yul\":20086:20090   */\n      dup3\n        /* \"#utility.yul\":20083:20104   */\n      or\n        /* \"#utility.yul\":20075:20104   */\n      swap1\n      pop\n        /* \"#utility.yul\":19815:20110   */\n      swap3\n      swap2\n      pop\n      pop\n      jump\t// out\n        /* \"#utility.yul\":20115:21510   */\n    tag_102:\n        /* \"#utility.yul\":20232:20269   */\n      tag_433\n        /* \"#utility.yul\":20265:20268   */\n      dup3\n        /* \"#utility.yul\":20232:20269   */\n      tag_170\n      jump\t// in\n    tag_433:\n        /* \"#utility.yul\":20334:20352   */\n      0xffffffffffffffff\n        /* \"#utility.yul\":20326:20332   */\n      dup2\n        /* \"#utility.yul\":20323:20353   */\n      gt\n        /* \"#utility.yul\":20320:20376   */\n      iszero\n      tag_434\n      jumpi\n        /* \"#utility.yul\":20356:20374   */\n      tag_435\n      tag_184\n      jump\t// in\n    tag_435:\n        /* \"#utility.yul\":20320:20376   */\n    tag_434:\n        /* \"#utility.yul\":20400:20438   */\n      tag_436\n        /* \"#utility.yul\":20432:20436   */\n      dup3\n        /* \"#utility.yul\":20426:20437   */\n      sload\n        /* \"#utility.yul\":20400:20438   */\n      tag_77\n      jump\t// in\n    tag_436:\n        /* \"#utility.yul\":20485:20552   */\n      tag_437\n        /* \"#utility.yul\":20545:20551   */\n      dup3\n        /* \"#utility.yul\":20537:20543   */\n      dup3\n        /* \"#utility.yul\":20531:20535   */\n      dup6\n        /* \"#utility.yul\":20485:20552   */\n      tag_219\n      jump\t// in\n    tag_437:\n        /* \"#utility.yul\":20579:20580   */\n      0x00\n        /* \"#utility.yul\":20603:20607   */\n      0x20\n        /* \"#utility.yul\":20590:20607   */\n      swap1\n      pop\n        /* \"#utility.yul\":20635:20637   */\n      0x1f\n        /* \"#utility.yul\":20627:20633   */\n      dup4\n        /* \"#utility.yul\":20624:20638   */\n      gt\n        /* \"#utility.yul\":20652:20653   */\n      0x01\n        /* \"#utility.yul\":20647:21265   */\n      dup2\n      eq\n      tag_439\n      jumpi\n        /* \"#utility.yul\":21309:21310   */\n      0x00\n        /* \"#utility.yul\":21326:21332   */\n      dup5\n        /* \"#utility.yul\":21323:21400   */\n      iszero\n      tag_440\n      jumpi\n        /* \"#utility.yul\":21375:21384   */\n      dup3\n        /* \"#utility.yul\":21370:21373   */\n      dup8\n        /* \"#utility.yul\":21366:21385   */\n      add\n        /* \"#utility.yul\":21360:21386   */\n      mload\n        /* \"#utility.yul\":21351:21386   */\n      swap1\n      pop\n        /* \"#utility.yul\":21323:21400   */\n    tag_440:\n        /* \"#utility.yul\":21426:21493   */\n      tag_441\n        /* \"#utility.yul\":21486:21492   */\n      dup6\n        /* \"#utility.yul\":21479:21484   */\n      dup3\n        /* \"#utility.yul\":21426:21493   */\n      tag_222\n      jump\t// in\n    tag_441:\n        /* \"#utility.yul\":21420:21424   */\n      dup7\n        /* \"#utility.yul\":21413:21494   */\n      sstore\n        /* \"#utility.yul\":21282:21504   */\n      pop\n        /* \"#utility.yul\":20617:21504   */\n      jump(tag_438)\n        /* \"#utility.yul\":20647:21265   */\n    tag_439:\n        /* \"#utility.yul\":20699:20703   */\n      0x1f\n        /* \"#utility.yul\":20695:20704   */\n      not\n        /* \"#utility.yul\":20687:20693   */\n      dup5\n        /* \"#utility.yul\":20683:20705   */\n      and\n        /* \"#utility.yul\":20733:20770   */\n      tag_442\n        /* \"#utility.yul\":20765:20769   */\n      dup7\n        /* \"#utility.yul\":20733:20770   */\n      tag_208\n      jump\t// in\n    tag_442:\n        /* \"#utility.yul\":20792:20793   */\n      0x00\n        /* \"#utility.yul\":20806:21014   */\n    tag_443:\n        /* \"#utility.yul\":20820:20827   */\n      dup3\n        /* \"#utility.yul\":20817:20818   */\n      dup2\n        /* \"#utility.yul\":20814:20828   */\n      lt\n        /* \"#utility.yul\":20806:21014   */\n      iszero\n      tag_445\n      jumpi\n        /* \"#utility.yul\":20899:20908   */\n      dup5\n        /* \"#utility.yul\":20894:20897   */\n      dup10\n        /* \"#utility.yul\":20890:20909   */\n      add\n        /* \"#utility.yul\":20884:20910   */\n      mload\n        /* \"#utility.yul\":20876:20882   */\n      dup3\n        /* \"#utility.yul\":20869:20911   */\n      sstore\n        /* \"#utility.yul\":20950:20951   */\n      0x01\n        /* \"#utility.yul\":20942:20948   */\n      dup3\n        /* \"#utility.yul\":20938:20952   */\n      add\n        /* \"#utility.yul\":20928:20952   */\n      swap2\n      pop\n        /* \"#utility.yul\":20997:20999   */\n      0x20\n        /* \"#utility.yul\":20986:20995   */\n      dup6\n        /* \"#utility.yul\":20982:21000   */\n      add\n        /* \"#utility.yul\":20969:21000   */\n      swap5\n      pop\n        /* \"#utility.yul\":20843:20847   */\n      0x20\n        /* \"#utility.yul\":20840:20841   */\n      dup2\n        /* \"#utility.yul\":20836:20848   */\n      add\n        /* \"#utility.yul\":20831:20848   */\n      swap1\n      pop\n        /* \"#utility.yul\":20806:21014   */\n      jump(tag_443)\n    tag_445:\n        /* \"#utility.yul\":21042:21048   */\n      dup7\n        /* \"#utility.yul\":21033:21040   */\n      dup4\n        /* \"#utility.yul\":21030:21049   */\n      lt\n        /* \"#utility.yul\":21027:21206   */\n      iszero\n      tag_446\n      jumpi\n        /* \"#utility.yul\":21100:21109   */\n      dup5\n        /* \"#utility.yul\":21095:21098   */\n      dup10\n        /* \"#utility.yul\":21091:21110   */\n      add\n        /* \"#utility.yul\":21085:21111   */\n      mload\n        /* \"#utility.yul\":21143:21191   */\n      tag_447\n        /* \"#utility.yul\":21185:21189   */\n      0x1f\n        /* \"#utility.yul\":21177:21183   */\n      dup10\n        /* \"#utility.yul\":21173:21190   */\n      and\n        /* \"#utility.yul\":21162:21171   */\n      dup3\n        /* \"#utility.yul\":21143:21191   */\n      tag_221\n      jump\t// in\n    tag_447:\n        /* \"#utility.yul\":21135:21141   */\n      dup4\n        /* \"#utility.yul\":21128:21192   */\n      sstore\n        /* \"#utility.yul\":21050:21206   */\n      pop\n        /* \"#utility.yul\":21027:21206   */\n    tag_446:\n        /* \"#utility.yul\":21252:21253   */\n      0x01\n        /* \"#utility.yul\":21248:21249   */\n      0x02\n        /* \"#utility.yul\":21240:21246   */\n      dup9\n        /* \"#utility.yul\":21236:21250   */\n      mul\n        /* \"#utility.yul\":21232:21254   */\n      add\n        /* \"#utility.yul\":21226:21230   */\n      dup9\n        /* \"#utility.yul\":21219:21255   */\n      sstore\n        /* \"#utility.yul\":20654:21265   */\n      pop\n      pop\n      pop\n        /* \"#utility.yul\":20617:21504   */\n    tag_438:\n      pop\n        /* \"#utility.yul\":20207:21510   */\n      pop\n      pop\n      pop\n        /* \"#utility.yul\":20115:21510   */\n      pop\n      pop\n      jump\t// out\n        /* \"#utility.yul\":21516:21656   */\n    tag_223:\n        /* \"#utility.yul\":21564:21568   */\n      0x00\n        /* \"#utility.yul\":21587:21590   */\n      dup2\n        /* \"#utility.yul\":21579:21590   */\n      swap1\n      pop\n        /* \"#utility.yul\":21610:21613   */\n      dup2\n        /* \"#utility.yul\":21607:21608   */\n      0x00\n        /* \"#utility.yul\":21600:21614   */\n      mstore\n        /* \"#utility.yul\":21644:21648   */\n      0x20\n        /* \"#utility.yul\":21641:21642   */\n      0x00\n        /* \"#utility.yul\":21631:21649   */\n      keccak256\n        /* \"#utility.yul\":21623:21649   */\n      swap1\n      pop\n        /* \"#utility.yul\":21516:21656   */\n      swap2\n      swap1\n      pop\n      jump\t// out\n        /* \"#utility.yul\":21662:22203   */\n    tag_224:\n        /* \"#utility.yul\":21762:21764   */\n      0x1f\n        /* \"#utility.yul\":21757:21760   */\n      dup3\n        /* \"#utility.yul\":21754:21765   */\n      gt\n        /* \"#utility.yul\":21751:22196   */\n      iszero\n      tag_450\n      jumpi\n        /* \"#utility.yul\":21796:21833   */\n      tag_451\n        /* \"#utility.yul\":21827:21832   */\n      dup2\n        /* \"#utility.yul\":21796:21833   */\n      tag_223\n      jump\t// in\n    tag_451:\n        /* \"#utility.yul\":21879:21908   */\n      tag_452\n        /* \"#utility.yul\":21897:21907   */\n      dup5\n        /* \"#utility.yul\":21879:21908   */\n      tag_209\n      jump\t// in\n    tag_452:\n        /* \"#utility.yul\":21869:21877   */\n      dup2\n        /* \"#utility.yul\":21865:21909   */\n      add\n        /* \"#utility.yul\":22062:22064   */\n      0x20\n        /* \"#utility.yul\":22050:22060   */\n      dup6\n        /* \"#utility.yul\":22047:22065   */\n      lt\n        /* \"#utility.yul\":22044:22093   */\n      iszero\n      tag_453\n      jumpi\n        /* \"#utility.yul\":22083:22091   */\n      dup2\n        /* \"#utility.yul\":22068:22091   */\n      swap1\n      pop\n        /* \"#utility.yul\":22044:22093   */\n    tag_453:\n        /* \"#utility.yul\":22106:22186   */\n      tag_454\n        /* \"#utility.yul\":22162:22184   */\n      tag_455\n        /* \"#utility.yul\":22180:22183   */\n      dup6\n        /* \"#utility.yul\":22162:22184   */\n      tag_209\n      jump\t// in\n    tag_455:\n        /* \"#utility.yul\":22152:22160   */\n      dup4\n        /* \"#utility.yul\":22148:22185   */\n      add\n        /* \"#utility.yul\":22135:22146   */\n      dup3\n        /* \"#utility.yul\":22106:22186   */\n      tag_218\n      jump\t// in\n    tag_454:\n        /* \"#utility.yul\":21766:22196   */\n      pop\n      pop\n        /* \"#utility.yul\":21751:22196   */\n    tag_450:\n        /* \"#utility.yul\":21662:22203   */\n      pop\n      pop\n      pop\n      jump\t// out\n        /* \"#utility.yul\":22209:23599   */\n    tag_105:\n        /* \"#utility.yul\":22324:22360   */\n      tag_457\n        /* \"#utility.yul\":22356:22359   */\n      dup3\n        /* \"#utility.yul\":22324:22360   */\n      tag_175\n      jump\t// in\n    tag_457:\n        /* \"#utility.yul\":22425:22443   */\n      0xffffffffffffffff\n        /* \"#utility.yul\":22417:22423   */\n      dup2\n        /* \"#utility.yul\":22414:22444   */\n      gt\n        /* \"#utility.yul\":22411:22467   */\n      iszero\n      tag_458\n      jumpi\n        /* \"#utility.yul\":22447:22465   */\n      tag_459\n      tag_184\n      jump\t// in\n    tag_459:\n        /* \"#utility.yul\":22411:22467   */\n    tag_458:\n        /* \"#utility.yul\":22491:22529   */\n      tag_460\n        /* \"#utility.yul\":22523:22527   */\n      dup3\n        /* \"#utility.yul\":22517:22528   */\n      sload\n        /* \"#utility.yul\":22491:22529   */\n      tag_77\n      jump\t// in\n    tag_460:\n        /* \"#utility.yul\":22576:22642   */\n      tag_461\n        /* \"#utility.yul\":22635:22641   */\n      dup3\n        /* \"#utility.yul\":22627:22633   */\n      dup3\n        /* \"#utility.yul\":22621:22625   */\n      dup6\n        /* \"#utility.yul\":22576:22642   */\n      tag_224\n      jump\t// in\n    tag_461:\n        /* \"#utility.yul\":22669:22670   */\n      0x00\n        /* \"#utility.yul\":22693:22697   */\n      0x20\n        /* \"#utility.yul\":22680:22697   */\n      swap1\n      pop\n        /* \"#utility.yul\":22725:22727   */\n      0x1f\n        /* \"#utility.yul\":22717:22723   */\n      dup4\n        /* \"#utility.yul\":22714:22728   */\n      gt\n        /* \"#utility.yul\":22742:22743   */\n      0x01\n        /* \"#utility.yul\":22737:23354   */\n      dup2\n      eq\n      tag_463\n      jumpi\n        /* \"#utility.yul\":23398:23399   */\n      0x00\n        /* \"#utility.yul\":23415:23421   */\n      dup5\n        /* \"#utility.yul\":23412:23489   */\n      iszero\n      tag_464\n      jumpi\n        /* \"#utility.yul\":23464:23473   */\n      dup3\n        /* \"#utility.yul\":23459:23462   */\n      dup8\n        /* \"#utility.yul\":23455:23474   */\n      add\n        /* \"#utility.yul\":23449:23475   */\n      mload\n        /* \"#utility.yul\":23440:23475   */\n      swap1\n      pop\n        /* \"#utility.yul\":23412:23489   */\n    tag_464:\n        /* \"#utility.yul\":23515:23582   */\n      tag_465\n        /* \"#utility.yul\":23575:23581   */\n      dup6\n        /* \"#utility.yul\":23568:23573   */\n      dup3\n        /* \"#utility.yul\":23515:23582   */\n      tag_222\n      jump\t// in\n    tag_465:\n        /* \"#utility.yul\":23509:23513   */\n      dup7\n        /* \"#utility.yul\":23502:23583   */\n      sstore\n        /* \"#utility.yul\":23371:23593   */\n      pop\n        /* \"#utility.yul\":22707:23593   */\n      jump(tag_462)\n        /* \"#utility.yul\":22737:23354   */\n    tag_463:\n        /* \"#utility.yul\":22789:22793   */\n      0x1f\n        /* \"#utility.yul\":22785:22794   */\n      not\n        /* \"#utility.yul\":22777:22783   */\n      dup5\n        /* \"#utility.yul\":22773:22795   */\n      and\n        /* \"#utility.yul\":22823:22859   */\n      tag_466\n        /* \"#utility.yul\":22854:22858   */\n      dup7\n        /* \"#utility.yul\":22823:22859   */\n      tag_223\n      jump\t// in\n    tag_466:\n        /* \"#utility.yul\":22881:22882   */\n      0x00\n        /* \"#utility.yul\":22895:23103   */\n    tag_467:\n        /* \"#utility.yul\":22909:22916   */\n      dup3\n        /* \"#utility.yul\":22906:22907   */\n      dup2\n        /* \"#utility.yul\":22903:22917   */\n      lt\n        /* \"#utility.yul\":22895:23103   */\n      iszero\n      tag_469\n      jumpi\n        /* \"#utility.yul\":22988:22997   */\n      dup5\n        /* \"#utility.yul\":22983:22986   */\n      dup10\n        /* \"#utility.yul\":22979:22998   */\n      add\n        /* \"#utility.yul\":22973:22999   */\n      mload\n        /* \"#utility.yul\":22965:22971   */\n      dup3\n        /* \"#utility.yul\":22958:23000   */\n      sstore\n        /* \"#utility.yul\":23039:23040   */\n      0x01\n        /* \"#utility.yul\":23031:23037   */\n      dup3\n        /* \"#utility.yul\":23027:23041   */\n      add\n        /* \"#utility.yul\":23017:23041   */\n      swap2\n      pop\n        /* \"#utility.yul\":23086:23088   */\n      0x20\n        /* \"#utility.yul\":23075:23084   */\n      dup6\n        /* \"#utility.yul\":23071:23089   */\n      add\n        /* \"#utility.yul\":23058:23089   */\n      swap5\n      pop\n        /* \"#utility.yul\":22932:22936   */\n      0x20\n        /* \"#utility.yul\":22929:22930   */\n      dup2\n        /* \"#utility.yul\":22925:22937   */\n      add\n        /* \"#utility.yul\":22920:22937   */\n      swap1\n      pop\n        /* \"#utility.yul\":22895:23103   */\n      jump(tag_467)\n    tag_469:\n        /* \"#utility.yul\":23131:23137   */\n      dup7\n        /* \"#utility.yul\":23122:23129   */\n      dup4\n        /* \"#utility.yul\":23119:23138   */\n      lt\n        /* \"#utility.yul\":23116:23295   */\n      iszero\n      tag_470\n      jumpi\n        /* \"#utility.yul\":23189:23198   */\n      dup5\n        /* \"#utility.yul\":23184:23187   */\n      dup10\n        /* \"#utility.yul\":23180:23199   */\n      add\n        /* \"#utility.yul\":23174:23200   */\n      mload\n        /* \"#utility.yul\":23232:23280   */\n      tag_471\n        /* \"#utility.yul\":23274:23278   */\n      0x1f\n        /* \"#utility.yul\":23266:23272   */\n      dup10\n        /* \"#utility.yul\":23262:23279   */\n      and\n        /* \"#utility.yul\":23251:23260   */\n      dup3\n        /* \"#utility.yul\":23232:23280   */\n      tag_221\n      jump\t// in\n    tag_471:\n        /* \"#utility.yul\":23224:23230   */\n      dup4\n        /* \"#utility.yul\":23217:23281   */\n      sstore\n        /* \"#utility.yul\":23139:23295   */\n      pop\n        /* \"#utility.yul\":23116:23295   */\n    tag_470:\n        /* \"#utility.yul\":23341:23342   */\n      0x01\n        /* \"#utility.yul\":23337:23338   */\n      0x02\n        /* \"#utility.yul\":23329:23335   */\n      dup9\n        /* \"#utility.yul\":23325:23339   */\n      mul\n        /* \"#utility.yul\":23321:23343   */\n      add\n        /* \"#utility.yul\":23315:23319   */\n      dup9\n        /* \"#utility.yul\":23308:23344   */\n      sstore\n        /* \"#utility.yul\":22744:23354   */\n      pop\n      pop\n      pop\n        /* \"#utility.yul\":22707:23593   */\n    tag_462:\n      pop\n        /* \"#utility.yul\":22299:23599   */\n      pop\n      pop\n      pop\n        /* \"#utility.yul\":22209:23599   */\n      pop\n      pop\n      jump\t// out\n        /* \"#utility.yul\":23605:23785   */\n    tag_225:\n        /* \"#utility.yul\":23653:23730   */\n      0x4e487b7100000000000000000000000000000000000000000000000000000000\n        /* \"#utility.yul\":23650:23651   */\n      0x00\n        /* \"#utility.yul\":23643:23731   */\n      mstore\n        /* \"#utility.yul\":23750:23754   */\n      0x11\n        /* \"#utility.yul\":23747:23748   */\n      0x04\n        /* \"#utility.yul\":23740:23755   */\n      mstore\n        /* \"#utility.yul\":23774:23778   */\n      0x24\n        /* \"#utility.yul\":23771:23772   */\n      0x00\n        /* \"#utility.yul\":23764:23779   */\n      revert\n        /* \"#utility.yul\":23791:24024   */\n    tag_112:\n        /* \"#utility.yul\":23830:23833   */\n      0x00\n        /* \"#utility.yul\":23853:23877   */\n      tag_474\n        /* \"#utility.yul\":23871:23876   */\n      dup3\n        /* \"#utility.yul\":23853:23877   */\n      tag_178\n      jump\t// in\n    tag_474:\n        /* \"#utility.yul\":23844:23877   */\n      swap2\n      pop\n        /* \"#utility.yul\":23899:23965   */\n      0xffffffffffffffffffffffffffffffffffffffffffffffffffffffffffffffff\n        /* \"#utility.yul\":23892:23897   */\n      dup3\n        /* \"#utility.yul\":23889:23966   */\n      sub\n        /* \"#utility.yul\":23886:23989   */\n      tag_475\n      jumpi\n        /* \"#utility.yul\":23969:23987   */\n      tag_476\n      tag_225\n      jump\t// in\n    tag_476:\n        /* \"#utility.yul\":23886:23989   */\n    tag_475:\n        /* \"#utility.yul\":24016:24017   */\n      0x01\n        /* \"#utility.yul\":24009:24014   */\n      dup3\n        /* \"#utility.yul\":24005:24018   */\n      add\n        /* \"#utility.yul\":23998:24018   */\n      swap1\n      pop\n        /* \"#utility.yul\":23791:24024   */\n      swap2\n      swap1\n      pop\n      jump\t// out\n        /* \"#utility.yul\":24030:24190   */\n    tag_226:\n        /* \"#utility.yul\":24170:24182   */\n      0x52657075746174696f6e00000000000000000000000000000000000000000000\n        /* \"#utility.yul\":24166:24167   */\n      0x00\n        /* \"#utility.yul\":24158:24164   */\n      dup3\n        /* \"#utility.yul\":24154:24168   */\n      add\n        /* \"#utility.yul\":24147:24183   */\n      mstore\n        /* \"#utility.yul\":24030:24190   */\n      pop\n      jump\t// out\n        /* \"#utility.yul\":24196:24598   */\n    tag_227:\n        /* \"#utility.yul\":24356:24359   */\n      0x00\n        /* \"#utility.yul\":24377:24462   */\n      tag_479\n        /* \"#utility.yul\":24459:24461   */\n      0x0a\n        /* \"#utility.yul\":24454:24457   */\n      dup4\n        /* \"#utility.yul\":24377:24462   */\n      tag_201\n      jump\t// in\n    tag_479:\n        /* \"#utility.yul\":24370:24462   */\n      swap2\n      pop\n        /* \"#utility.yul\":24471:24564   */\n      tag_480\n        /* \"#utility.yul\":24560:24563   */\n      dup3\n        /* \"#utility.yul\":24471:24564   */\n      tag_226\n      jump\t// in\n    tag_480:\n        /* \"#utility.yul\":24589:24591   */\n      0x0a\n        /* \"#utility.yul\":24584:24587   */\n      dup3\n        /* \"#utility.yul\":24580:24592   */\n      add\n        /* \"#utility.yul\":24573:24592   */\n      swap1\n      pop\n        /* \"#utility.yul\":24196:24598   */\n      swap2\n      swap1\n      pop\n      jump\t// out\n        /* \"#utility.yul\":24604:24985   */\n    tag_128:\n        /* \"#utility.yul\":24789:24792   */\n      0x00\n        /* \"#utility.yul\":24811:24959   */\n      tag_482\n        /* \"#utility.yul\":24955:24958   */\n      dup3\n        /* \"#utility.yul\":24811:24959   */\n      tag_227\n      jump\t// in\n    tag_482:\n        /* \"#utility.yul\":24804:24959   */\n      swap2\n      pop\n        /* \"#utility.yul\":24976:24979   */\n      dup2\n        /* \"#utility.yul\":24969:24979   */\n      swap1\n      pop\n        /* \"#utility.yul\":24604:24985   */\n      swap2\n      swap1\n      pop\n      jump\t// out\n\n    auxdata: 0xa2646970667358221220e328715d9f51ab9dd20f913f1e07d019cf2f400e9cd0b25ab0bba9651433c14864736f6c634300081e0033\n}\n",
				"bytecode": {
					"linkReferences": {},
					"object": "608060405234801561000f575f5ffd5b50604051612132380380612132833981810160405281019061003191906101d7565b805f73ffffffffffffffffffffffffffffffffffffffff168173ffffffffffffffffffffffffffffffffffffffff16036100a2575f6040517f1e4fbdf70000000000000000000000000000000000000000000000000000000081526004016100999190610211565b60405180910390fd5b6100b1816100b860201b60201c565b505061022a565b5f5f5f9054906101000a900473ffffffffffffffffffffffffffffffffffffffff169050815f5f6101000a81548173ffffffffffffffffffffffffffffffffffffffff021916908373ffffffffffffffffffffffffffffffffffffffff1602179055508173ffffffffffffffffffffffffffffffffffffffff168173ffffffffffffffffffffffffffffffffffffffff167f8be0079c531659141344cd1fd0a4f28419497f9722a3daafe3b4186f6b6457e060405160405180910390a35050565b5f5ffd5b5f73ffffffffffffffffffffffffffffffffffffffff82169050919050565b5f6101a68261017d565b9050919050565b6101b68161019c565b81146101c0575f5ffd5b50565b5f815190506101d1816101ad565b92915050565b5f602082840312156101ec576101eb610179565b5b5f6101f9848285016101c3565b91505092915050565b61020b8161019c565b82525050565b5f6020820190506102245f830184610202565b92915050565b611efb806102375f395ff3fe608060405234801561000f575f5ffd5b50600436106100cd575f3560e01c80636eeb9b101161008a5780639584660f116100645780639584660f146101d5578063bbe15627146101f1578063f2fde38b14610226578063f5c91a0814610242576100cd565b80636eeb9b1014610191578063715018a6146101ad5780638da5cb5b146101b7576100cd565b80630139746c146100d15780630f53a470146100ed5780631f54f7291461011d578063412738c81461013b57806343f05743146101575780636b071cb314610173575b5f5ffd5b6100eb60048036038101906100e6919061127b565b61025e565b005b6101076004803603810190610102919061127b565b610300565b6040516101149190611423565b60405180910390f35b61012561063d565b6040516101329190611452565b60405180910390f35b61015560048036038101906101509190611635565b610662565b005b610171600480360381019061016c919061127b565b6109a8565b005b61017b610a88565b6040516101889190611452565b60405180910390f35b6101ab60048036038101906101a691906116d9565b610aad565b005b6101b5610c5e565b005b6101bf610c71565b6040516101cc9190611452565b60405180910390f35b6101ef60048036038101906101ea919061127b565b610c98565b005b61020b6004803603810190610206919061127b565b610d3a565b60405161021d969594939291906117ee565b60405180910390f35b610240600480360381019061023b919061127b565b610f23565b005b61025c6004803603810190610257919061188c565b610fa7565b005b610266611078565b8060045f6101000a81548173ffffffffffffffffffffffffffffffffffffffff021916908373ffffffffffffffffffffffffffffffffffffffff1602179055508073ffffffffffffffffffffffffffffffffffffffff166040516102c99061191e565b60405180910390207fb67ae4aaf94e550de2207405b340f22ed2172f1ad8f6bbccab6b5dfcd8c72b3760405160405180910390a350565b6103086111c7565b5f73ffffffffffffffffffffffffffffffffffffffff1660015f8473ffffffffffffffffffffffffffffffffffffffff1673ffffffffffffffffffffffffffffffffffffffff1681526020019081526020015f205f015f9054906101000a900473ffffffffffffffffffffffffffffffffffffffff1673ffffffffffffffffffffffffffffffffffffffff16036103d657816040517f4fae3c9a0000000000000000000000000000000000000000000000000000000081526004016103cd9190611452565b60405180910390fd5b60015f8373ffffffffffffffffffffffffffffffffffffffff1673ffffffffffffffffffffffffffffffffffffffff1681526020019081526020015f206040518060c00160405290815f82015f9054906101000a900473ffffffffffffffffffffffffffffffffffffffff1673ffffffffffffffffffffffffffffffffffffffff1673ffffffffffffffffffffffffffffffffffffffff1681526020016001820180546104829061195f565b80601f01602080910402602001604051908101604052809291908181526020018280546104ae9061195f565b80156104f95780601f106104d0576101008083540402835291602001916104f9565b820191905f5260205f20905b8154815290600101906020018083116104dc57829003601f168201915b505050505081526020016002820180546105129061195f565b80601f016020809104026020016040519081016040528092919081815260200182805461053e9061195f565b80156105895780601f1061056057610100808354040283529160200191610589565b820191905f5260205f20905b81548152906001019060200180831161056c57829003601f168201915b505050505081526020016003820180546105a29061195f565b80601f01602080910402602001604051908101604052809291908181526020018280546105ce9061195f565b80156106195780601f106105f057610100808354040283529160200191610619565b820191905f5260205f20905b8154815290600101906020018083116105fc57829003601f168201915b50505050508152602001600482015481526020016005820154815250509050919050565b60035f9054906101000a900473ffffffffffffffffffffffffffffffffffffffff1681565b5f73ffffffffffffffffffffffffffffffffffffffff1660015f3373ffffffffffffffffffffffffffffffffffffffff1673ffffffffffffffffffffffffffffffffffffffff1681526020019081526020015f205f015f9054906101000a900473ffffffffffffffffffffffffffffffffffffffff1673ffffffffffffffffffffffffffffffffffffffff161461072e576040517f08c379a0000000000000000000000000000000000000000000000000000000008152600401610725906119d9565b60405180910390fd5b5f73ffffffffffffffffffffffffffffffffffffffff166002846040516107559190611a27565b90815260200160405180910390205f9054906101000a900473ffffffffffffffffffffffffffffffffffffffff1673ffffffffffffffffffffffffffffffffffffffff16146107db57826040517f2b4e25670000000000000000000000000000000000000000000000000000000081526004016107d29190611a3d565b60405180910390fd5b6040518060c001604052803373ffffffffffffffffffffffffffffffffffffffff168152602001848152602001838152602001828152602001606481526020015f81525060015f3373ffffffffffffffffffffffffffffffffffffffff1673ffffffffffffffffffffffffffffffffffffffff1681526020019081526020015f205f820151815f015f6101000a81548173ffffffffffffffffffffffffffffffffffffffff021916908373ffffffffffffffffffffffffffffffffffffffff16021790555060208201518160010190816108b59190611bfd565b5060408201518160020190816108cb9190611bfd565b5060608201518160030190816108e19190611d24565b506080820151816004015560a082015181600501559050503360028460405161090a9190611a27565b90815260200160405180910390205f6101000a81548173ffffffffffffffffffffffffffffffffffffffff021916908373ffffffffffffffffffffffffffffffffffffffff1602179055503373ffffffffffffffffffffffffffffffffffffffff167fbafddecbd1dec1c1afb76d693f1de16901f521bdf29a02438e3e6806c0b8d9488460405161099b9190611a3d565b60405180910390a2505050565b60045f9054906101000a900473ffffffffffffffffffffffffffffffffffffffff168073ffffffffffffffffffffffffffffffffffffffff163373ffffffffffffffffffffffffffffffffffffffff1614610a2f576040517f82b4290000000000000000000000000000000000000000000000000000000000815260040160405180910390fd5b60015f8373ffffffffffffffffffffffffffffffffffffffff1673ffffffffffffffffffffffffffffffffffffffff1681526020019081526020015f206005015f815480929190610a7f90611e20565b91905055505050565b60045f9054906101000a900473ffffffffffffffffffffffffffffffffffffffff1681565b5f73ffffffffffffffffffffffffffffffffffffffff1660015f3373ffffffffffffffffffffffffffffffffffffffff1673ffffffffffffffffffffffffffffffffffffffff1681526020019081526020015f205f015f9054906101000a900473ffffffffffffffffffffffffffffffffffffffff1673ffffffffffffffffffffffffffffffffffffffff1603610b7b57336040517f4fae3c9a000000000000000000000000000000000000000000000000000000008152600401610b729190611452565b60405180910390fd5b8160015f3373ffffffffffffffffffffffffffffffffffffffff1673ffffffffffffffffffffffffffffffffffffffff1681526020019081526020015f206002019081610bc89190611bfd565b508060015f3373ffffffffffffffffffffffffffffffffffffffff1673ffffffffffffffffffffffffffffffffffffffff1681526020019081526020015f206003019081610c169190611d24565b503373ffffffffffffffffffffffffffffffffffffffff167fbe4ec58a792f909e102ee3d745d0c3b34a4d437a54d903c4db098d31c556422f60405160405180910390a25050565b610c66611078565b610c6f5f6110ff565b565b5f5f5f9054906101000a900473ffffffffffffffffffffffffffffffffffffffff16905090565b610ca0611078565b8060035f6101000a81548173ffffffffffffffffffffffffffffffffffffffff021916908373ffffffffffffffffffffffffffffffffffffffff1602179055508073ffffffffffffffffffffffffffffffffffffffff16604051610d0390611eb1565b60405180910390207fb67ae4aaf94e550de2207405b340f22ed2172f1ad8f6bbccab6b5dfcd8c72b3760405160405180910390a350565b6001602052805f5260405f205f91509050805f015f9054906101000a900473ffffffffffffffffffffffffffffffffffffffff1690806001018054610d7e9061195f565b80601f0160208091040260200160405190810160405280929190818152602001828054610daa9061195f565b8015610df55780601f10610dcc57610100808354040283529160200191610df5565b820191905f5260205f20905b815481529060010190602001808311610dd857829003601f168201915b505050505090806002018054610e0a9061195f565b80601f0160208091040260200160405190810160405280929190818152602001828054610e369061195f565b8015610e815780601f10610e5857610100808354040283529160200191610e81565b820191905f5260205f20905b815481529060010190602001808311610e6457829003601f168201915b505050505090806003018054610e969061195f565b80601f0160208091040260200160405190810160405280929190818152602001828054610ec29061195f565b8015610f0d5780601f10610ee457610100808354040283529160200191610f0d565b820191905f5260205f20905b815481529060010190602001808311610ef057829003601f168201915b5050505050908060040154908060050154905086565b610f2b611078565b5f73ffffffffffffffffffffffffffffffffffffffff168173ffffffffffffffffffffffffffffffffffffffff1603610f9b575f6040517f1e4fbdf7000000000000000000000000000000000000000000000000000000008152600401610f929190611452565b60405180910390fd5b610fa4816110ff565b50565b60035f9054906101000a900473ffffffffffffffffffffffffffffffffffffffff168073ffffffffffffffffffffffffffffffffffffffff163373ffffffffffffffffffffffffffffffffffffffff161461102e576040517f82b4290000000000000000000000000000000000000000000000000000000000815260040160405180910390fd5b8160015f8573ffffffffffffffffffffffffffffffffffffffff1673ffffffffffffffffffffffffffffffffffffffff1681526020019081526020015f2060040181905550505050565b6110806111c0565b73ffffffffffffffffffffffffffffffffffffffff1661109e610c71565b73ffffffffffffffffffffffffffffffffffffffff16146110fd576110c16111c0565b6040517f118cdaa70000000000000000000000000000000000000000000000000000000081526004016110f49190611452565b60405180910390fd5b565b5f5f5f9054906101000a900473ffffffffffffffffffffffffffffffffffffffff169050815f5f6101000a81548173ffffffffffffffffffffffffffffffffffffffff021916908373ffffffffffffffffffffffffffffffffffffffff1602179055508173ffffffffffffffffffffffffffffffffffffffff168173ffffffffffffffffffffffffffffffffffffffff167f8be0079c531659141344cd1fd0a4f28419497f9722a3daafe3b4186f6b6457e060405160405180910390a35050565b5f33905090565b6040518060c001604052805f73ffffffffffffffffffffffffffffffffffffffff1681526020016060815260200160608152602001606081526020015f81526020015f81525090565b5f604051905090565b5f5ffd5b5f5ffd5b5f73ffffffffffffffffffffffffffffffffffffffff82169050919050565b5f61124a82611221565b9050919050565b61125a81611240565b8114611264575f5ffd5b50565b5f8135905061127581611251565b92915050565b5f602082840312156112905761128f611219565b5b5f61129d84828501611267565b91505092915050565b6112af81611240565b82525050565b5f81519050919050565b5f82825260208201905092915050565b8281835e5f83830152505050565b5f601f19601f8301169050919050565b5f6112f7826112b5565b61130181856112bf565b93506113118185602086016112cf565b61131a816112dd565b840191505092915050565b5f81519050919050565b5f82825260208201905092915050565b5f61134982611325565b611353818561132f565b93506113638185602086016112cf565b61136c816112dd565b840191505092915050565b5f819050919050565b61138981611377565b82525050565b5f60c083015f8301516113a45f8601826112a6565b50602083015184820360208601526113bc82826112ed565b915050604083015184820360408601526113d682826112ed565b915050606083015184820360608601526113f0828261133f565b91505060808301516114056080860182611380565b5060a083015161141860a0860182611380565b508091505092915050565b5f6020820190508181035f83015261143b818461138f565b905092915050565b61144c81611240565b82525050565b5f6020820190506114655f830184611443565b92915050565b5f5ffd5b5f5ffd5b7f4e487b71000000000000000000000000000000000000000000000000000000005f52604160045260245ffd5b6114a9826112dd565b810181811067ffffffffffffffff821117156114c8576114c7611473565b5b80604052505050565b5f6114da611210565b90506114e682826114a0565b919050565b5f67ffffffffffffffff82111561150557611504611473565b5b61150e826112dd565b9050602081019050919050565b828183375f83830152505050565b5f61153b611536846114eb565b6114d1565b9050828152602081018484840111156115575761155661146f565b5b61156284828561151b565b509392505050565b5f82601f83011261157e5761157d61146b565b5b813561158e848260208601611529565b91505092915050565b5f67ffffffffffffffff8211156115b1576115b0611473565b5b6115ba826112dd565b9050602081019050919050565b5f6115d96115d484611597565b6114d1565b9050828152602081018484840111156115f5576115f461146f565b5b61160084828561151b565b509392505050565b5f82601f83011261161c5761161b61146b565b5b813561162c8482602086016115c7565b91505092915050565b5f5f5f6060848603121561164c5761164b611219565b5b5f84013567ffffffffffffffff8111156116695761166861121d565b5b6116758682870161156a565b935050602084013567ffffffffffffffff8111156116965761169561121d565b5b6116a28682870161156a565b925050604084013567ffffffffffffffff8111156116c3576116c261121d565b5b6116cf86828701611608565b9150509250925092565b5f5f604083850312156116ef576116ee611219565b5b5f83013567ffffffffffffffff81111561170c5761170b61121d565b5b6117188582860161156a565b925050602083013567ffffffffffffffff8111156117395761173861121d565b5b61174585828601611608565b9150509250929050565b5f82825260208201905092915050565b5f611769826112b5565b611773818561174f565b93506117838185602086016112cf565b61178c816112dd565b840191505092915050565b5f82825260208201905092915050565b5f6117b182611325565b6117bb8185611797565b93506117cb8185602086016112cf565b6117d4816112dd565b840191505092915050565b6117e881611377565b82525050565b5f60c0820190506118015f830189611443565b8181036020830152611813818861175f565b90508181036040830152611827818761175f565b9050818103606083015261183b81866117a7565b905061184a60808301856117df565b61185760a08301846117df565b979650505050505050565b61186b81611377565b8114611875575f5ffd5b50565b5f8135905061188681611862565b92915050565b5f5f604083850312156118a2576118a1611219565b5b5f6118af85828601611267565b92505060206118c085828601611878565b9150509250929050565b5f81905092915050565b7f50726f6a656374417574686f72697479000000000000000000000000000000005f82015250565b5f6119086010836118ca565b9150611913826118d4565b601082019050919050565b5f611928826118fc565b9150819050919050565b7f4e487b71000000000000000000000000000000000000000000000000000000005f52602260045260245ffd5b5f600282049050600182168061197657607f821691505b60208210810361198957611988611932565b5b50919050565b7f5573657220616c726561647920657869737473000000000000000000000000005f82015250565b5f6119c360138361174f565b91506119ce8261198f565b602082019050919050565b5f6020820190508181035f8301526119f0816119b7565b9050919050565b5f611a01826112b5565b611a0b81856118ca565b9350611a1b8185602086016112cf565b80840191505092915050565b5f611a3282846119f7565b915081905092915050565b5f6020820190508181035f830152611a55818461175f565b905092915050565b5f819050815f5260205f209050919050565b5f6020601f8301049050919050565b5f82821b905092915050565b5f60088302611ab97fffffffffffffffffffffffffffffffffffffffffffffffffffffffffffffffff82611a7e565b611ac38683611a7e565b95508019841693508086168417925050509392505050565b5f819050919050565b5f611afe611af9611af484611377565b611adb565b611377565b9050919050565b5f819050919050565b611b1783611ae4565b611b2b611b2382611b05565b848454611a8a565b825550505050565b5f5f905090565b611b42611b33565b611b4d818484611b0e565b505050565b5b81811015611b7057611b655f82611b3a565b600181019050611b53565b5050565b601f821115611bb557611b8681611a5d565b611b8f84611a6f565b81016020851015611b9e578190505b611bb2611baa85611a6f565b830182611b52565b50505b505050565b5f82821c905092915050565b5f611bd55f1984600802611bba565b1980831691505092915050565b5f611bed8383611bc6565b9150826002028217905092915050565b611c06826112b5565b67ffffffffffffffff811115611c1f57611c1e611473565b5b611c29825461195f565b611c34828285611b74565b5f60209050601f831160018114611c65575f8415611c53578287015190505b611c5d8582611be2565b865550611cc4565b601f198416611c7386611a5d565b5f5b82811015611c9a57848901518255600182019150602085019450602081019050611c75565b86831015611cb75784890151611cb3601f891682611bc6565b8355505b6001600288020188555050505b505050505050565b5f819050815f5260205f209050919050565b601f821115611d1f57611cf081611ccc565b611cf984611a6f565b81016020851015611d08578190505b611d1c611d1485611a6f565b830182611b52565b50505b505050565b611d2d82611325565b67ffffffffffffffff811115611d4657611d45611473565b5b611d50825461195f565b611d5b828285611cde565b5f60209050601f831160018114611d8c575f8415611d7a578287015190505b611d848582611be2565b865550611deb565b601f198416611d9a86611ccc565b5f5b82811015611dc157848901518255600182019150602085019450602081019050611d9c565b86831015611dde5784890151611dda601f891682611bc6565b8355505b6001600288020188555050505b505050505050565b7f4e487b71000000000000000000000000000000000000000000000000000000005f52601160045260245ffd5b5f611e2a82611377565b91507fffffffffffffffffffffffffffffffffffffffffffffffffffffffffffffffff8203611e5c57611e5b611df3565b5b600182019050919050565b7f52657075746174696f6e000000000000000000000000000000000000000000005f82015250565b5f611e9b600a836118ca565b9150611ea682611e67565b600a82019050919050565b5f611ebb82611e8f565b915081905091905056fea2646970667358221220e328715d9f51ab9dd20f913f1e07d019cf2f400e9cd0b25ab0bba9651433c14864736f6c634300081e0033",
					"opcodes": "PUSH1 0x80 PUSH1 0x40 MSTORE CALLVALUE DUP1 ISZERO PUSH2 0xF JUMPI PUSH0 PUSH0 REVERT JUMPDEST POP PUSH1 0x40 MLOAD PUSH2 0x2132 CODESIZE SUB DUP1 PUSH2 0x2132 DUP4 CODECOPY DUP2 DUP2 ADD PUSH1 0x40 MSTORE DUP2 ADD SWAP1 PUSH2 0x31 SWAP2 SWAP1 PUSH2 0x1D7 JUMP JUMPDEST DUP1 PUSH0 PUSH20 0xFFFFFFFFFFFFFFFFFFFFFFFFFFFFFFFFFFFFFFFF AND DUP2 PUSH20 0xFFFFFFFFFFFFFFFFFFFFFFFFFFFFFFFFFFFFFFFF AND SUB PUSH2 0xA2 JUMPI PUSH0 PUSH1 0x40 MLOAD PUSH32 0x1E4FBDF700000000000000000000000000000000000000000000000000000000 DUP2 MSTORE PUSH1 0x4 ADD PUSH2 0x99 SWAP2 SWAP1 PUSH2 0x211 JUMP JUMPDEST PUSH1 0x40 MLOAD DUP1 SWAP2 SUB SWAP1 REVERT JUMPDEST PUSH2 0xB1 DUP2 PUSH2 0xB8 PUSH1 0x20 SHL PUSH1 0x20 SHR JUMP JUMPDEST POP POP PUSH2 0x22A JUMP JUMPDEST PUSH0 PUSH0 PUSH0 SWAP1 SLOAD SWAP1 PUSH2 0x100 EXP SWAP1 DIV PUSH20 0xFFFFFFFFFFFFFFFFFFFFFFFFFFFFFFFFFFFFFFFF AND SWAP1 POP DUP2 PUSH0 PUSH0 PUSH2 0x100 EXP DUP2 SLOAD DUP2 PUSH20 0xFFFFFFFFFFFFFFFFFFFFFFFFFFFFFFFFFFFFFFFF MUL NOT AND SWAP1 DUP4 PUSH20 0xFFFFFFFFFFFFFFFFFFFFFFFFFFFFFFFFFFFFFFFF AND MUL OR SWAP1 SSTORE POP DUP2 PUSH20 0xFFFFFFFFFFFFFFFFFFFFFFFFFFFFFFFFFFFFFFFF AND DUP2 PUSH20 0xFFFFFFFFFFFFFFFFFFFFFFFFFFFFFFFFFFFFFFFF AND PUSH32 0x8BE0079C531659141344CD1FD0A4F28419497F9722A3DAAFE3B4186F6B6457E0 PUSH1 0x40 MLOAD PUSH1 0x40 MLOAD DUP1 SWAP2 SUB SWAP1 LOG3 POP POP JUMP JUMPDEST PUSH0 PUSH0 REVERT JUMPDEST PUSH0 PUSH20 0xFFFFFFFFFFFFFFFFFFFFFFFFFFFFFFFFFFFFFFFF DUP3 AND SWAP1 POP SWAP2 SWAP1 POP JUMP JUMPDEST PUSH0 PUSH2 0x1A6 DUP3 PUSH2 0x17D JUMP JUMPDEST SWAP1 POP SWAP2 SWAP1 POP JUMP JUMPDEST PUSH2 0x1B6 DUP2 PUSH2 0x19C JUMP JUMPDEST DUP2 EQ PUSH2 0x1C0 JUMPI PUSH0 PUSH0 REVERT JUMPDEST POP JUMP JUMPDEST PUSH0 DUP2 MLOAD SWAP1 POP PUSH2 0x1D1 DUP2 PUSH2 0x1AD JUMP JUMPDEST SWAP3 SWAP2 POP POP JUMP JUMPDEST PUSH0 PUSH1 0x20 DUP3 DUP5 SUB SLT ISZERO PUSH2 0x1EC JUMPI PUSH2 0x1EB PUSH2 0x179 JUMP JUMPDEST JUMPDEST PUSH0 PUSH2 0x1F9 DUP5 DUP3 DUP6 ADD PUSH2 0x1C3 JUMP JUMPDEST SWAP2 POP POP SWAP3 SWAP2 POP POP JUMP JUMPDEST PUSH2 0x20B DUP2 PUSH2 0x19C JUMP JUMPDEST DUP3 MSTORE POP POP JUMP JUMPDEST PUSH0 PUSH1 0x20 DUP3 ADD SWAP1 POP PUSH2 0x224 PUSH0 DUP4 ADD DUP5 PUSH2 0x202 JUMP JUMPDEST SWAP3 SWAP2 POP POP JUMP JUMPDEST PUSH2 0x1EFB DUP1 PUSH2 0x237 PUSH0 CODECOPY PUSH0 RETURN INVALID PUSH1 0x80 PUSH1 0x40 MSTORE CALLVALUE DUP1 ISZERO PUSH2 0xF JUMPI PUSH0 PUSH0 REVERT JUMPDEST POP PUSH1 0x4 CALLDATASIZE LT PUSH2 0xCD JUMPI PUSH0 CALLDATALOAD PUSH1 0xE0 SHR DUP1 PUSH4 0x6EEB9B10 GT PUSH2 0x8A JUMPI DUP1 PUSH4 0x9584660F GT PUSH2 0x64 JUMPI DUP1 PUSH4 0x9584660F EQ PUSH2 0x1D5 JUMPI DUP1 PUSH4 0xBBE15627 EQ PUSH2 0x1F1 JUMPI DUP1 PUSH4 0xF2FDE38B EQ PUSH2 0x226 JUMPI DUP1 PUSH4 0xF5C91A08 EQ PUSH2 0x242 JUMPI PUSH2 0xCD JUMP JUMPDEST DUP1 PUSH4 0x6EEB9B10 EQ PUSH2 0x191 JUMPI DUP1 PUSH4 0x715018A6 EQ PUSH2 0x1AD JUMPI DUP1 PUSH4 0x8DA5CB5B EQ PUSH2 0x1B7 JUMPI PUSH2 0xCD JUMP JUMPDEST DUP1 PUSH4 0x139746C EQ PUSH2 0xD1 JUMPI DUP1 PUSH4 0xF53A470 EQ PUSH2 0xED JUMPI DUP1 PUSH4 0x1F54F729 EQ PUSH2 0x11D JUMPI DUP1 PUSH4 0x412738C8 EQ PUSH2 0x13B JUMPI DUP1 PUSH4 0x43F05743 EQ PUSH2 0x157 JUMPI DUP1 PUSH4 0x6B071CB3 EQ PUSH2 0x173 JUMPI JUMPDEST PUSH0 PUSH0 REVERT JUMPDEST PUSH2 0xEB PUSH1 0x4 DUP1 CALLDATASIZE SUB DUP2 ADD SWAP1 PUSH2 0xE6 SWAP2 SWAP1 PUSH2 0x127B JUMP JUMPDEST PUSH2 0x25E JUMP JUMPDEST STOP JUMPDEST PUSH2 0x107 PUSH1 0x4 DUP1 CALLDATASIZE SUB DUP2 ADD SWAP1 PUSH2 0x102 SWAP2 SWAP1 PUSH2 0x127B JUMP JUMPDEST PUSH2 0x300 JUMP JUMPDEST PUSH1 0x40 MLOAD PUSH2 0x114 SWAP2 SWAP1 PUSH2 0x1423 JUMP JUMPDEST PUSH1 0x40 MLOAD DUP1 SWAP2 SUB SWAP1 RETURN JUMPDEST PUSH2 0x125 PUSH2 0x63D JUMP JUMPDEST PUSH1 0x40 MLOAD PUSH2 0x132 SWAP2 SWAP1 PUSH2 0x1452 JUMP JUMPDEST PUSH1 0x40 MLOAD DUP1 SWAP2 SUB SWAP1 RETURN JUMPDEST PUSH2 0x155 PUSH1 0x4 DUP1 CALLDATASIZE SUB DUP2 ADD SWAP1 PUSH2 0x150 SWAP2 SWAP1 PUSH2 0x1635 JUMP JUMPDEST PUSH2 0x662 JUMP JUMPDEST STOP JUMPDEST PUSH2 0x171 PUSH1 0x4 DUP1 CALLDATASIZE SUB DUP2 ADD SWAP1 PUSH2 0x16C SWAP2 SWAP1 PUSH2 0x127B JUMP JUMPDEST PUSH2 0x9A8 JUMP JUMPDEST STOP JUMPDEST PUSH2 0x17B PUSH2 0xA88 JUMP JUMPDEST PUSH1 0x40 MLOAD PUSH2 0x188 SWAP2 SWAP1 PUSH2 0x1452 JUMP JUMPDEST PUSH1 0x40 MLOAD DUP1 SWAP2 SUB SWAP1 RETURN JUMPDEST PUSH2 0x1AB PUSH1 0x4 DUP1 CALLDATASIZE SUB DUP2 ADD SWAP1 PUSH2 0x1A6 SWAP2 SWAP1 PUSH2 0x16D9 JUMP JUMPDEST PUSH2 0xAAD JUMP JUMPDEST STOP JUMPDEST PUSH2 0x1B5 PUSH2 0xC5E JUMP JUMPDEST STOP JUMPDEST PUSH2 0x1BF PUSH2 0xC71 JUMP JUMPDEST PUSH1 0x40 MLOAD PUSH2 0x1CC SWAP2 SWAP1 PUSH2 0x1452 JUMP JUMPDEST PUSH1 0x40 MLOAD DUP1 SWAP2 SUB SWAP1 RETURN JUMPDEST PUSH2 0x1EF PUSH1 0x4 DUP1 CALLDATASIZE SUB DUP2 ADD SWAP1 PUSH2 0x1EA SWAP2 SWAP1 PUSH2 0x127B JUMP JUMPDEST PUSH2 0xC98 JUMP JUMPDEST STOP JUMPDEST PUSH2 0x20B PUSH1 0x4 DUP1 CALLDATASIZE SUB DUP2 ADD SWAP1 PUSH2 0x206 SWAP2 SWAP1 PUSH2 0x127B JUMP JUMPDEST PUSH2 0xD3A JUMP JUMPDEST PUSH1 0x40 MLOAD PUSH2 0x21D SWAP7 SWAP6 SWAP5 SWAP4 SWAP3 SWAP2 SWAP1 PUSH2 0x17EE JUMP JUMPDEST PUSH1 0x40 MLOAD DUP1 SWAP2 SUB SWAP1 RETURN JUMPDEST PUSH2 0x240 PUSH1 0x4 DUP1 CALLDATASIZE SUB DUP2 ADD SWAP1 PUSH2 0x23B SWAP2 SWAP1 PUSH2 0x127B JUMP JUMPDEST PUSH2 0xF23 JUMP JUMPDEST STOP JUMPDEST PUSH2 0x25C PUSH1 0x4 DUP1 CALLDATASIZE SUB DUP2 ADD SWAP1 PUSH2 0x257 SWAP2 SWAP1 PUSH2 0x188C JUMP JUMPDEST PUSH2 0xFA7 JUMP JUMPDEST STOP JUMPDEST PUSH2 0x266 PUSH2 0x1078 JUMP JUMPDEST DUP1 PUSH1 0x4 PUSH0 PUSH2 0x100 EXP DUP2 SLOAD DUP2 PUSH20 0xFFFFFFFFFFFFFFFFFFFFFFFFFFFFFFFFFFFFFFFF MUL NOT AND SWAP1 DUP4 PUSH20 0xFFFFFFFFFFFFFFFFFFFFFFFFFFFFFFFFFFFFFFFF AND MUL OR SWAP1 SSTORE POP DUP1 PUSH20 0xFFFFFFFFFFFFFFFFFFFFFFFFFFFFFFFFFFFFFFFF AND PUSH1 0x40 MLOAD PUSH2 0x2C9 SWAP1 PUSH2 0x191E JUMP JUMPDEST PUSH1 0x40 MLOAD DUP1 SWAP2 SUB SWAP1 KECCAK256 PUSH32 0xB67AE4AAF94E550DE2207405B340F22ED2172F1AD8F6BBCCAB6B5DFCD8C72B37 PUSH1 0x40 MLOAD PUSH1 0x40 MLOAD DUP1 SWAP2 SUB SWAP1 LOG3 POP JUMP JUMPDEST PUSH2 0x308 PUSH2 0x11C7 JUMP JUMPDEST PUSH0 PUSH20 0xFFFFFFFFFFFFFFFFFFFFFFFFFFFFFFFFFFFFFFFF AND PUSH1 0x1 PUSH0 DUP5 PUSH20 0xFFFFFFFFFFFFFFFFFFFFFFFFFFFFFFFFFFFFFFFF AND PUSH20 0xFFFFFFFFFFFFFFFFFFFFFFFFFFFFFFFFFFFFFFFF AND DUP2 MSTORE PUSH1 0x20 ADD SWAP1 DUP2 MSTORE PUSH1 0x20 ADD PUSH0 KECCAK256 PUSH0 ADD PUSH0 SWAP1 SLOAD SWAP1 PUSH2 0x100 EXP SWAP1 DIV PUSH20 0xFFFFFFFFFFFFFFFFFFFFFFFFFFFFFFFFFFFFFFFF AND PUSH20 0xFFFFFFFFFFFFFFFFFFFFFFFFFFFFFFFFFFFFFFFF AND SUB PUSH2 0x3D6 JUMPI DUP2 PUSH1 0x40 MLOAD PUSH32 0x4FAE3C9A00000000000000000000000000000000000000000000000000000000 DUP2 MSTORE PUSH1 0x4 ADD PUSH2 0x3CD SWAP2 SWAP1 PUSH2 0x1452 JUMP JUMPDEST PUSH1 0x40 MLOAD DUP1 SWAP2 SUB SWAP1 REVERT JUMPDEST PUSH1 0x1 PUSH0 DUP4 PUSH20 0xFFFFFFFFFFFFFFFFFFFFFFFFFFFFFFFFFFFFFFFF AND PUSH20 0xFFFFFFFFFFFFFFFFFFFFFFFFFFFFFFFFFFFFFFFF AND DUP2 MSTORE PUSH1 0x20 ADD SWAP1 DUP2 MSTORE PUSH1 0x20 ADD PUSH0 KECCAK256 PUSH1 0x40 MLOAD DUP1 PUSH1 0xC0 ADD PUSH1 0x40 MSTORE SWAP1 DUP2 PUSH0 DUP3 ADD PUSH0 SWAP1 SLOAD SWAP1 PUSH2 0x100 EXP SWAP1 DIV PUSH20 0xFFFFFFFFFFFFFFFFFFFFFFFFFFFFFFFFFFFFFFFF AND PUSH20 0xFFFFFFFFFFFFFFFFFFFFFFFFFFFFFFFFFFFFFFFF AND PUSH20 0xFFFFFFFFFFFFFFFFFFFFFFFFFFFFFFFFFFFFFFFF AND DUP2 MSTORE PUSH1 0x20 ADD PUSH1 0x1 DUP3 ADD DUP1 SLOAD PUSH2 0x482 SWAP1 PUSH2 0x195F JUMP JUMPDEST DUP1 PUSH1 0x1F ADD PUSH1 0x20 DUP1 SWAP2 DIV MUL PUSH1 0x20 ADD PUSH1 0x40 MLOAD SWAP1 DUP2 ADD PUSH1 0x40 MSTORE DUP1 SWAP3 SWAP2 SWAP1 DUP2 DUP2 MSTORE PUSH1 0x20 ADD DUP3 DUP1 SLOAD PUSH2 0x4AE SWAP1 PUSH2 0x195F JUMP JUMPDEST DUP1 ISZERO PUSH2 0x4F9 JUMPI DUP1 PUSH1 0x1F LT PUSH2 0x4D0 JUMPI PUSH2 0x100 DUP1 DUP4 SLOAD DIV MUL DUP4 MSTORE SWAP2 PUSH1 0x20 ADD SWAP2 PUSH2 0x4F9 JUMP JUMPDEST DUP3 ADD SWAP2 SWAP1 PUSH0 MSTORE PUSH1 0x20 PUSH0 KECCAK256 SWAP1 JUMPDEST DUP2 SLOAD DUP2 MSTORE SWAP1 PUSH1 0x1 ADD SWAP1 PUSH1 0x20 ADD DUP1 DUP4 GT PUSH2 0x4DC JUMPI DUP3 SWAP1 SUB PUSH1 0x1F AND DUP3 ADD SWAP2 JUMPDEST POP POP POP POP POP DUP2 MSTORE PUSH1 0x20 ADD PUSH1 0x2 DUP3 ADD DUP1 SLOAD PUSH2 0x512 SWAP1 PUSH2 0x195F JUMP JUMPDEST DUP1 PUSH1 0x1F ADD PUSH1 0x20 DUP1 SWAP2 DIV MUL PUSH1 0x20 ADD PUSH1 0x40 MLOAD SWAP1 DUP2 ADD PUSH1 0x40 MSTORE DUP1 SWAP3 SWAP2 SWAP1 DUP2 DUP2 MSTORE PUSH1 0x20 ADD DUP3 DUP1 SLOAD PUSH2 0x53E SWAP1 PUSH2 0x195F JUMP JUMPDEST DUP1 ISZERO PUSH2 0x589 JUMPI DUP1 PUSH1 0x1F LT PUSH2 0x560 JUMPI PUSH2 0x100 DUP1 DUP4 SLOAD DIV MUL DUP4 MSTORE SWAP2 PUSH1 0x20 ADD SWAP2 PUSH2 0x589 JUMP JUMPDEST DUP3 ADD SWAP2 SWAP1 PUSH0 MSTORE PUSH1 0x20 PUSH0 KECCAK256 SWAP1 JUMPDEST DUP2 SLOAD DUP2 MSTORE SWAP1 PUSH1 0x1 ADD SWAP1 PUSH1 0x20 ADD DUP1 DUP4 GT PUSH2 0x56C JUMPI DUP3 SWAP1 SUB PUSH1 0x1F AND DUP3 ADD SWAP2 JUMPDEST POP POP POP POP POP DUP2 MSTORE PUSH1 0x20 ADD PUSH1 0x3 DUP3 ADD DUP1 SLOAD PUSH2 0x5A2 SWAP1 PUSH2 0x195F JUMP JUMPDEST DUP1 PUSH1 0x1F ADD PUSH1 0x20 DUP1 SWAP2 DIV MUL PUSH1 0x20 ADD PUSH1 0x40 MLOAD SWAP1 DUP2 ADD PUSH1 0x40 MSTORE DUP1 SWAP3 SWAP2 SWAP1 DUP2 DUP2 MSTORE PUSH1 0x20 ADD DUP3 DUP1 SLOAD PUSH2 0x5CE SWAP1 PUSH2 0x195F JUMP JUMPDEST DUP1 ISZERO PUSH2 0x619 JUMPI DUP1 PUSH1 0x1F LT PUSH2 0x5F0 JUMPI PUSH2 0x100 DUP1 DUP4 SLOAD DIV MUL DUP4 MSTORE SWAP2 PUSH1 0x20 ADD SWAP2 PUSH2 0x619 JUMP JUMPDEST DUP3 ADD SWAP2 SWAP1 PUSH0 MSTORE PUSH1 0x20 PUSH0 KECCAK256 SWAP1 JUMPDEST DUP2 SLOAD DUP2 MSTORE SWAP1 PUSH1 0x1 ADD SWAP1 PUSH1 0x20 ADD DUP1 DUP4 GT PUSH2 0x5FC JUMPI DUP3 SWAP1 SUB PUSH1 0x1F AND DUP3 ADD SWAP2 JUMPDEST POP POP POP POP POP DUP2 MSTORE PUSH1 0x20 ADD PUSH1 0x4 DUP3 ADD SLOAD DUP2 MSTORE PUSH1 0x20 ADD PUSH1 0x5 DUP3 ADD SLOAD DUP2 MSTORE POP POP SWAP1 POP SWAP2 SWAP1 POP JUMP JUMPDEST PUSH1 0x3 PUSH0 SWAP1 SLOAD SWAP1 PUSH2 0x100 EXP SWAP1 DIV PUSH20 0xFFFFFFFFFFFFFFFFFFFFFFFFFFFFFFFFFFFFFFFF AND DUP2 JUMP JUMPDEST PUSH0 PUSH20 0xFFFFFFFFFFFFFFFFFFFFFFFFFFFFFFFFFFFFFFFF AND PUSH1 0x1 PUSH0 CALLER PUSH20 0xFFFFFFFFFFFFFFFFFFFFFFFFFFFFFFFFFFFFFFFF AND PUSH20 0xFFFFFFFFFFFFFFFFFFFFFFFFFFFFFFFFFFFFFFFF AND DUP2 MSTORE PUSH1 0x20 ADD SWAP1 DUP2 MSTORE PUSH1 0x20 ADD PUSH0 KECCAK256 PUSH0 ADD PUSH0 SWAP1 SLOAD SWAP1 PUSH2 0x100 EXP SWAP1 DIV PUSH20 0xFFFFFFFFFFFFFFFFFFFFFFFFFFFFFFFFFFFFFFFF AND PUSH20 0xFFFFFFFFFFFFFFFFFFFFFFFFFFFFFFFFFFFFFFFF AND EQ PUSH2 0x72E JUMPI PUSH1 0x40 MLOAD PUSH32 0x8C379A000000000000000000000000000000000000000000000000000000000 DUP2 MSTORE PUSH1 0x4 ADD PUSH2 0x725 SWAP1 PUSH2 0x19D9 JUMP JUMPDEST PUSH1 0x40 MLOAD DUP1 SWAP2 SUB SWAP1 REVERT JUMPDEST PUSH0 PUSH20 0xFFFFFFFFFFFFFFFFFFFFFFFFFFFFFFFFFFFFFFFF AND PUSH1 0x2 DUP5 PUSH1 0x40 MLOAD PUSH2 0x755 SWAP2 SWAP1 PUSH2 0x1A27 JUMP JUMPDEST SWAP1 DUP2 MSTORE PUSH1 0x20 ADD PUSH1 0x40 MLOAD DUP1 SWAP2 SUB SWAP1 KECCAK256 PUSH0 SWAP1 SLOAD SWAP1 PUSH2 0x100 EXP SWAP1 DIV PUSH20 0xFFFFFFFFFFFFFFFFFFFFFFFFFFFFFFFFFFFFFFFF AND PUSH20 0xFFFFFFFFFFFFFFFFFFFFFFFFFFFFFFFFFFFFFFFF AND EQ PUSH2 0x7DB JUMPI DUP3 PUSH1 0x40 MLOAD PUSH32 0x2B4E256700000000000000000000000000000000000000000000000000000000 DUP2 MSTORE PUSH1 0x4 ADD PUSH2 0x7D2 SWAP2 SWAP1 PUSH2 0x1A3D JUMP JUMPDEST PUSH1 0x40 MLOAD DUP1 SWAP2 SUB SWAP1 REVERT JUMPDEST PUSH1 0x40 MLOAD DUP1 PUSH1 0xC0 ADD PUSH1 0x40 MSTORE DUP1 CALLER PUSH20 0xFFFFFFFFFFFFFFFFFFFFFFFFFFFFFFFFFFFFFFFF AND DUP2 MSTORE PUSH1 0x20 ADD DUP5 DUP2 MSTORE PUSH1 0x20 ADD DUP4 DUP2 MSTORE PUSH1 0x20 ADD DUP3 DUP2 MSTORE PUSH1 0x20 ADD PUSH1 0x64 DUP2 MSTORE PUSH1 0x20 ADD PUSH0 DUP2 MSTORE POP PUSH1 0x1 PUSH0 CALLER PUSH20 0xFFFFFFFFFFFFFFFFFFFFFFFFFFFFFFFFFFFFFFFF AND PUSH20 0xFFFFFFFFFFFFFFFFFFFFFFFFFFFFFFFFFFFFFFFF AND DUP2 MSTORE PUSH1 0x20 ADD SWAP1 DUP2 MSTORE PUSH1 0x20 ADD PUSH0 KECCAK256 PUSH0 DUP3 ADD MLOAD DUP2 PUSH0 ADD PUSH0 PUSH2 0x100 EXP DUP2 SLOAD DUP2 PUSH20 0xFFFFFFFFFFFFFFFFFFFFFFFFFFFFFFFFFFFFFFFF MUL NOT AND SWAP1 DUP4 PUSH20 0xFFFFFFFFFFFFFFFFFFFFFFFFFFFFFFFFFFFFFFFF AND MUL OR SWAP1 SSTORE POP PUSH1 0x20 DUP3 ADD MLOAD DUP2 PUSH1 0x1 ADD SWAP1 DUP2 PUSH2 0x8B5 SWAP2 SWAP1 PUSH2 0x1BFD JUMP JUMPDEST POP PUSH1 0x40 DUP3 ADD MLOAD DUP2 PUSH1 0x2 ADD SWAP1 DUP2 PUSH2 0x8CB SWAP2 SWAP1 PUSH2 0x1BFD JUMP JUMPDEST POP PUSH1 0x60 DUP3 ADD MLOAD DUP2 PUSH1 0x3 ADD SWAP1 DUP2 PUSH2 0x8E1 SWAP2 SWAP1 PUSH2 0x1D24 JUMP JUMPDEST POP PUSH1 0x80 DUP3 ADD MLOAD DUP2 PUSH1 0x4 ADD SSTORE PUSH1 0xA0 DUP3 ADD MLOAD DUP2 PUSH1 0x5 ADD SSTORE SWAP1 POP POP CALLER PUSH1 0x2 DUP5 PUSH1 0x40 MLOAD PUSH2 0x90A SWAP2 SWAP1 PUSH2 0x1A27 JUMP JUMPDEST SWAP1 DUP2 MSTORE PUSH1 0x20 ADD PUSH1 0x40 MLOAD DUP1 SWAP2 SUB SWAP1 KECCAK256 PUSH0 PUSH2 0x100 EXP DUP2 SLOAD DUP2 PUSH20 0xFFFFFFFFFFFFFFFFFFFFFFFFFFFFFFFFFFFFFFFF MUL NOT AND SWAP1 DUP4 PUSH20 0xFFFFFFFFFFFFFFFFFFFFFFFFFFFFFFFFFFFFFFFF AND MUL OR SWAP1 SSTORE POP CALLER PUSH20 0xFFFFFFFFFFFFFFFFFFFFFFFFFFFFFFFFFFFFFFFF AND PUSH32 0xBAFDDECBD1DEC1C1AFB76D693F1DE16901F521BDF29A02438E3E6806C0B8D948 DUP5 PUSH1 0x40 MLOAD PUSH2 0x99B SWAP2 SWAP1 PUSH2 0x1A3D JUMP JUMPDEST PUSH1 0x40 MLOAD DUP1 SWAP2 SUB SWAP1 LOG2 POP POP POP JUMP JUMPDEST PUSH1 0x4 PUSH0 SWAP1 SLOAD SWAP1 PUSH2 0x100 EXP SWAP1 DIV PUSH20 0xFFFFFFFFFFFFFFFFFFFFFFFFFFFFFFFFFFFFFFFF AND DUP1 PUSH20 0xFFFFFFFFFFFFFFFFFFFFFFFFFFFFFFFFFFFFFFFF AND CALLER PUSH20 0xFFFFFFFFFFFFFFFFFFFFFFFFFFFFFFFFFFFFFFFF AND EQ PUSH2 0xA2F JUMPI PUSH1 0x40 MLOAD PUSH32 0x82B4290000000000000000000000000000000000000000000000000000000000 DUP2 MSTORE PUSH1 0x4 ADD PUSH1 0x40 MLOAD DUP1 SWAP2 SUB SWAP1 REVERT JUMPDEST PUSH1 0x1 PUSH0 DUP4 PUSH20 0xFFFFFFFFFFFFFFFFFFFFFFFFFFFFFFFFFFFFFFFF AND PUSH20 0xFFFFFFFFFFFFFFFFFFFFFFFFFFFFFFFFFFFFFFFF AND DUP2 MSTORE PUSH1 0x20 ADD SWAP1 DUP2 MSTORE PUSH1 0x20 ADD PUSH0 KECCAK256 PUSH1 0x5 ADD PUSH0 DUP2 SLOAD DUP1 SWAP3 SWAP2 SWAP1 PUSH2 0xA7F SWAP1 PUSH2 0x1E20 JUMP JUMPDEST SWAP2 SWAP1 POP SSTORE POP POP POP JUMP JUMPDEST PUSH1 0x4 PUSH0 SWAP1 SLOAD SWAP1 PUSH2 0x100 EXP SWAP1 DIV PUSH20 0xFFFFFFFFFFFFFFFFFFFFFFFFFFFFFFFFFFFFFFFF AND DUP2 JUMP JUMPDEST PUSH0 PUSH20 0xFFFFFFFFFFFFFFFFFFFFFFFFFFFFFFFFFFFFFFFF AND PUSH1 0x1 PUSH0 CALLER PUSH20 0xFFFFFFFFFFFFFFFFFFFFFFFFFFFFFFFFFFFFFFFF AND PUSH20 0xFFFFFFFFFFFFFFFFFFFFFFFFFFFFFFFFFFFFFFFF AND DUP2 MSTORE PUSH1 0x20 ADD SWAP1 DUP2 MSTORE PUSH1 0x20 ADD PUSH0 KECCAK256 PUSH0 ADD PUSH0 SWAP1 SLOAD SWAP1 PUSH2 0x100 EXP SWAP1 DIV PUSH20 0xFFFFFFFFFFFFFFFFFFFFFFFFFFFFFFFFFFFFFFFF AND PUSH20 0xFFFFFFFFFFFFFFFFFFFFFFFFFFFFFFFFFFFFFFFF AND SUB PUSH2 0xB7B JUMPI CALLER PUSH1 0x40 MLOAD PUSH32 0x4FAE3C9A00000000000000000000000000000000000000000000000000000000 DUP2 MSTORE PUSH1 0x4 ADD PUSH2 0xB72 SWAP2 SWAP1 PUSH2 0x1452 JUMP JUMPDEST PUSH1 0x40 MLOAD DUP1 SWAP2 SUB SWAP1 REVERT JUMPDEST DUP2 PUSH1 0x1 PUSH0 CALLER PUSH20 0xFFFFFFFFFFFFFFFFFFFFFFFFFFFFFFFFFFFFFFFF AND PUSH20 0xFFFFFFFFFFFFFFFFFFFFFFFFFFFFFFFFFFFFFFFF AND DUP2 MSTORE PUSH1 0x20 ADD SWAP1 DUP2 MSTORE PUSH1 0x20 ADD PUSH0 KECCAK256 PUSH1 0x2 ADD SWAP1 DUP2 PUSH2 0xBC8 SWAP2 SWAP1 PUSH2 0x1BFD JUMP JUMPDEST POP DUP1 PUSH1 0x1 PUSH0 CALLER PUSH20 0xFFFFFFFFFFFFFFFFFFFFFFFFFFFFFFFFFFFFFFFF AND PUSH20 0xFFFFFFFFFFFFFFFFFFFFFFFFFFFFFFFFFFFFFFFF AND DUP2 MSTORE PUSH1 0x20 ADD SWAP1 DUP2 MSTORE PUSH1 0x20 ADD PUSH0 KECCAK256 PUSH1 0x3 ADD SWAP1 DUP2 PUSH2 0xC16 SWAP2 SWAP1 PUSH2 0x1D24 JUMP JUMPDEST POP CALLER PUSH20 0xFFFFFFFFFFFFFFFFFFFFFFFFFFFFFFFFFFFFFFFF AND PUSH32 0xBE4EC58A792F909E102EE3D745D0C3B34A4D437A54D903C4DB098D31C556422F PUSH1 0x40 MLOAD PUSH1 0x40 MLOAD DUP1 SWAP2 SUB SWAP1 LOG2 POP POP JUMP JUMPDEST PUSH2 0xC66 PUSH2 0x1078 JUMP JUMPDEST PUSH2 0xC6F PUSH0 PUSH2 0x10FF JUMP JUMPDEST JUMP JUMPDEST PUSH0 PUSH0 PUSH0 SWAP1 SLOAD SWAP1 PUSH2 0x100 EXP SWAP1 DIV PUSH20 0xFFFFFFFFFFFFFFFFFFFFFFFFFFFFFFFFFFFFFFFF AND SWAP1 POP SWAP1 JUMP JUMPDEST PUSH2 0xCA0 PUSH2 0x1078 JUMP JUMPDEST DUP1 PUSH1 0x3 PUSH0 PUSH2 0x100 EXP DUP2 SLOAD DUP2 PUSH20 0xFFFFFFFFFFFFFFFFFFFFFFFFFFFFFFFFFFFFFFFF MUL NOT AND SWAP1 DUP4 PUSH20 0xFFFFFFFFFFFFFFFFFFFFFFFFFFFFFFFFFFFFFFFF AND MUL OR SWAP1 SSTORE POP DUP1 PUSH20 0xFFFFFFFFFFFFFFFFFFFFFFFFFFFFFFFFFFFFFFFF AND PUSH1 0x40 MLOAD PUSH2 0xD03 SWAP1 PUSH2 0x1EB1 JUMP JUMPDEST PUSH1 0x40 MLOAD DUP1 SWAP2 SUB SWAP1 KECCAK256 PUSH32 0xB67AE4AAF94E550DE2207405B340F22ED2172F1AD8F6BBCCAB6B5DFCD8C72B37 PUSH1 0x40 MLOAD PUSH1 0x40 MLOAD DUP1 SWAP2 SUB SWAP1 LOG3 POP JUMP JUMPDEST PUSH1 0x1 PUSH1 0x20 MSTORE DUP1 PUSH0 MSTORE PUSH1 0x40 PUSH0 KECCAK256 PUSH0 SWAP2 POP SWAP1 POP DUP1 PUSH0 ADD PUSH0 SWAP1 SLOAD SWAP1 PUSH2 0x100 EXP SWAP1 DIV PUSH20 0xFFFFFFFFFFFFFFFFFFFFFFFFFFFFFFFFFFFFFFFF AND SWAP1 DUP1 PUSH1 0x1 ADD DUP1 SLOAD PUSH2 0xD7E SWAP1 PUSH2 0x195F JUMP JUMPDEST DUP1 PUSH1 0x1F ADD PUSH1 0x20 DUP1 SWAP2 DIV MUL PUSH1 0x20 ADD PUSH1 0x40 MLOAD SWAP1 DUP2 ADD PUSH1 0x40 MSTORE DUP1 SWAP3 SWAP2 SWAP1 DUP2 DUP2 MSTORE PUSH1 0x20 ADD DUP3 DUP1 SLOAD PUSH2 0xDAA SWAP1 PUSH2 0x195F JUMP JUMPDEST DUP1 ISZERO PUSH2 0xDF5 JUMPI DUP1 PUSH1 0x1F LT PUSH2 0xDCC JUMPI PUSH2 0x100 DUP1 DUP4 SLOAD DIV MUL DUP4 MSTORE SWAP2 PUSH1 0x20 ADD SWAP2 PUSH2 0xDF5 JUMP JUMPDEST DUP3 ADD SWAP2 SWAP1 PUSH0 MSTORE PUSH1 0x20 PUSH0 KECCAK256 SWAP1 JUMPDEST DUP2 SLOAD DUP2 MSTORE SWAP1 PUSH1 0x1 ADD SWAP1 PUSH1 0x20 ADD DUP1 DUP4 GT PUSH2 0xDD8 JUMPI DUP3 SWAP1 SUB PUSH1 0x1F AND DUP3 ADD SWAP2 JUMPDEST POP POP POP POP POP SWAP1 DUP1 PUSH1 0x2 ADD DUP1 SLOAD PUSH2 0xE0A SWAP1 PUSH2 0x195F JUMP JUMPDEST DUP1 PUSH1 0x1F ADD PUSH1 0x20 DUP1 SWAP2 DIV MUL PUSH1 0x20 ADD PUSH1 0x40 MLOAD SWAP1 DUP2 ADD PUSH1 0x40 MSTORE DUP1 SWAP3 SWAP2 SWAP1 DUP2 DUP2 MSTORE PUSH1 0x20 ADD DUP3 DUP1 SLOAD PUSH2 0xE36 SWAP1 PUSH2 0x195F JUMP JUMPDEST DUP1 ISZERO PUSH2 0xE81 JUMPI DUP1 PUSH1 0x1F LT PUSH2 0xE58 JUMPI PUSH2 0x100 DUP1 DUP4 SLOAD DIV MUL DUP4 MSTORE SWAP2 PUSH1 0x20 ADD SWAP2 PUSH2 0xE81 JUMP JUMPDEST DUP3 ADD SWAP2 SWAP1 PUSH0 MSTORE PUSH1 0x20 PUSH0 KECCAK256 SWAP1 JUMPDEST DUP2 SLOAD DUP2 MSTORE SWAP1 PUSH1 0x1 ADD SWAP1 PUSH1 0x20 ADD DUP1 DUP4 GT PUSH2 0xE64 JUMPI DUP3 SWAP1 SUB PUSH1 0x1F AND DUP3 ADD SWAP2 JUMPDEST POP POP POP POP POP SWAP1 DUP1 PUSH1 0x3 ADD DUP1 SLOAD PUSH2 0xE96 SWAP1 PUSH2 0x195F JUMP JUMPDEST DUP1 PUSH1 0x1F ADD PUSH1 0x20 DUP1 SWAP2 DIV MUL PUSH1 0x20 ADD PUSH1 0x40 MLOAD SWAP1 DUP2 ADD PUSH1 0x40 MSTORE DUP1 SWAP3 SWAP2 SWAP1 DUP2 DUP2 MSTORE PUSH1 0x20 ADD DUP3 DUP1 SLOAD PUSH2 0xEC2 SWAP1 PUSH2 0x195F JUMP JUMPDEST DUP1 ISZERO PUSH2 0xF0D JUMPI DUP1 PUSH1 0x1F LT PUSH2 0xEE4 JUMPI PUSH2 0x100 DUP1 DUP4 SLOAD DIV MUL DUP4 MSTORE SWAP2 PUSH1 0x20 ADD SWAP2 PUSH2 0xF0D JUMP JUMPDEST DUP3 ADD SWAP2 SWAP1 PUSH0 MSTORE PUSH1 0x20 PUSH0 KECCAK256 SWAP1 JUMPDEST DUP2 SLOAD DUP2 MSTORE SWAP1 PUSH1 0x1 ADD SWAP1 PUSH1 0x20 ADD DUP1 DUP4 GT PUSH2 0xEF0 JUMPI DUP3 SWAP1 SUB PUSH1 0x1F AND DUP3 ADD SWAP2 JUMPDEST POP POP POP POP POP SWAP1 DUP1 PUSH1 0x4 ADD SLOAD SWAP1 DUP1 PUSH1 0x5 ADD SLOAD SWAP1 POP DUP7 JUMP JUMPDEST PUSH2 0xF2B PUSH2 0x1078 JUMP JUMPDEST PUSH0 PUSH20 0xFFFFFFFFFFFFFFFFFFFFFFFFFFFFFFFFFFFFFFFF AND DUP2 PUSH20 0xFFFFFFFFFFFFFFFFFFFFFFFFFFFFFFFFFFFFFFFF AND SUB PUSH2 0xF9B JUMPI PUSH0 PUSH1 0x40 MLOAD PUSH32 0x1E4FBDF700000000000000000000000000000000000000000000000000000000 DUP2 MSTORE PUSH1 0x4 ADD PUSH2 0xF92 SWAP2 SWAP1 PUSH2 0x1452 JUMP JUMPDEST PUSH1 0x40 MLOAD DUP1 SWAP2 SUB SWAP1 REVERT JUMPDEST PUSH2 0xFA4 DUP2 PUSH2 0x10FF JUMP JUMPDEST POP JUMP JUMPDEST PUSH1 0x3 PUSH0 SWAP1 SLOAD SWAP1 PUSH2 0x100 EXP SWAP1 DIV PUSH20 0xFFFFFFFFFFFFFFFFFFFFFFFFFFFFFFFFFFFFFFFF AND DUP1 PUSH20 0xFFFFFFFFFFFFFFFFFFFFFFFFFFFFFFFFFFFFFFFF AND CALLER PUSH20 0xFFFFFFFFFFFFFFFFFFFFFFFFFFFFFFFFFFFFFFFF AND EQ PUSH2 0x102E JUMPI PUSH1 0x40 MLOAD PUSH32 0x82B4290000000000000000000000000000000000000000000000000000000000 DUP2 MSTORE PUSH1 0x4 ADD PUSH1 0x40 MLOAD DUP1 SWAP2 SUB SWAP1 REVERT JUMPDEST DUP2 PUSH1 0x1 PUSH0 DUP6 PUSH20 0xFFFFFFFFFFFFFFFFFFFFFFFFFFFFFFFFFFFFFFFF AND PUSH20 0xFFFFFFFFFFFFFFFFFFFFFFFFFFFFFFFFFFFFFFFF AND DUP2 MSTORE PUSH1 0x20 ADD SWAP1 DUP2 MSTORE PUSH1 0x20 ADD PUSH0 KECCAK256 PUSH1 0x4 ADD DUP2 SWAP1 SSTORE POP POP POP POP JUMP JUMPDEST PUSH2 0x1080 PUSH2 0x11C0 JUMP JUMPDEST PUSH20 0xFFFFFFFFFFFFFFFFFFFFFFFFFFFFFFFFFFFFFFFF AND PUSH2 0x109E PUSH2 0xC71 JUMP JUMPDEST PUSH20 0xFFFFFFFFFFFFFFFFFFFFFFFFFFFFFFFFFFFFFFFF AND EQ PUSH2 0x10FD JUMPI PUSH2 0x10C1 PUSH2 0x11C0 JUMP JUMPDEST PUSH1 0x40 MLOAD PUSH32 0x118CDAA700000000000000000000000000000000000000000000000000000000 DUP2 MSTORE PUSH1 0x4 ADD PUSH2 0x10F4 SWAP2 SWAP1 PUSH2 0x1452 JUMP JUMPDEST PUSH1 0x40 MLOAD DUP1 SWAP2 SUB SWAP1 REVERT JUMPDEST JUMP JUMPDEST PUSH0 PUSH0 PUSH0 SWAP1 SLOAD SWAP1 PUSH2 0x100 EXP SWAP1 DIV PUSH20 0xFFFFFFFFFFFFFFFFFFFFFFFFFFFFFFFFFFFFFFFF AND SWAP1 POP DUP2 PUSH0 PUSH0 PUSH2 0x100 EXP DUP2 SLOAD DUP2 PUSH20 0xFFFFFFFFFFFFFFFFFFFFFFFFFFFFFFFFFFFFFFFF MUL NOT AND SWAP1 DUP4 PUSH20 0xFFFFFFFFFFFFFFFFFFFFFFFFFFFFFFFFFFFFFFFF AND MUL OR SWAP1 SSTORE POP DUP2 PUSH20 0xFFFFFFFFFFFFFFFFFFFFFFFFFFFFFFFFFFFFFFFF AND DUP2 PUSH20 0xFFFFFFFFFFFFFFFFFFFFFFFFFFFFFFFFFFFFFFFF AND PUSH32 0x8BE0079C531659141344CD1FD0A4F28419497F9722A3DAAFE3B4186F6B6457E0 PUSH1 0x40 MLOAD PUSH1 0x40 MLOAD DUP1 SWAP2 SUB SWAP1 LOG3 POP POP JUMP JUMPDEST PUSH0 CALLER SWAP1 POP SWAP1 JUMP JUMPDEST PUSH1 0x40 MLOAD DUP1 PUSH1 0xC0 ADD PUSH1 0x40 MSTORE DUP1 PUSH0 PUSH20 0xFFFFFFFFFFFFFFFFFFFFFFFFFFFFFFFFFFFFFFFF AND DUP2 MSTORE PUSH1 0x20 ADD PUSH1 0x60 DUP2 MSTORE PUSH1 0x20 ADD PUSH1 0x60 DUP2 MSTORE PUSH1 0x20 ADD PUSH1 0x60 DUP2 MSTORE PUSH1 0x20 ADD PUSH0 DUP2 MSTORE PUSH1 0x20 ADD PUSH0 DUP2 MSTORE POP SWAP1 JUMP JUMPDEST PUSH0 PUSH1 0x40 MLOAD SWAP1 POP SWAP1 JUMP JUMPDEST PUSH0 PUSH0 REVERT JUMPDEST PUSH0 PUSH0 REVERT JUMPDEST PUSH0 PUSH20 0xFFFFFFFFFFFFFFFFFFFFFFFFFFFFFFFFFFFFFFFF DUP3 AND SWAP1 POP SWAP2 SWAP1 POP JUMP JUMPDEST PUSH0 PUSH2 0x124A DUP3 PUSH2 0x1221 JUMP JUMPDEST SWAP1 POP SWAP2 SWAP1 POP JUMP JUMPDEST PUSH2 0x125A DUP2 PUSH2 0x1240 JUMP JUMPDEST DUP2 EQ PUSH2 0x1264 JUMPI PUSH0 PUSH0 REVERT JUMPDEST POP JUMP JUMPDEST PUSH0 DUP2 CALLDATALOAD SWAP1 POP PUSH2 0x1275 DUP2 PUSH2 0x1251 JUMP JUMPDEST SWAP3 SWAP2 POP POP JUMP JUMPDEST PUSH0 PUSH1 0x20 DUP3 DUP5 SUB SLT ISZERO PUSH2 0x1290 JUMPI PUSH2 0x128F PUSH2 0x1219 JUMP JUMPDEST JUMPDEST PUSH0 PUSH2 0x129D DUP5 DUP3 DUP6 ADD PUSH2 0x1267 JUMP JUMPDEST SWAP2 POP POP SWAP3 SWAP2 POP POP JUMP JUMPDEST PUSH2 0x12AF DUP2 PUSH2 0x1240 JUMP JUMPDEST DUP3 MSTORE POP POP JUMP JUMPDEST PUSH0 DUP2 MLOAD SWAP1 POP SWAP2 SWAP1 POP JUMP JUMPDEST PUSH0 DUP3 DUP3 MSTORE PUSH1 0x20 DUP3 ADD SWAP1 POP SWAP3 SWAP2 POP POP JUMP JUMPDEST DUP3 DUP2 DUP4 MCOPY PUSH0 DUP4 DUP4 ADD MSTORE POP POP POP JUMP JUMPDEST PUSH0 PUSH1 0x1F NOT PUSH1 0x1F DUP4 ADD AND SWAP1 POP SWAP2 SWAP1 POP JUMP JUMPDEST PUSH0 PUSH2 0x12F7 DUP3 PUSH2 0x12B5 JUMP JUMPDEST PUSH2 0x1301 DUP2 DUP6 PUSH2 0x12BF JUMP JUMPDEST SWAP4 POP PUSH2 0x1311 DUP2 DUP6 PUSH1 0x20 DUP7 ADD PUSH2 0x12CF JUMP JUMPDEST PUSH2 0x131A DUP2 PUSH2 0x12DD JUMP JUMPDEST DUP5 ADD SWAP2 POP POP SWAP3 SWAP2 POP POP JUMP JUMPDEST PUSH0 DUP2 MLOAD SWAP1 POP SWAP2 SWAP1 POP JUMP JUMPDEST PUSH0 DUP3 DUP3 MSTORE PUSH1 0x20 DUP3 ADD SWAP1 POP SWAP3 SWAP2 POP POP JUMP JUMPDEST PUSH0 PUSH2 0x1349 DUP3 PUSH2 0x1325 JUMP JUMPDEST PUSH2 0x1353 DUP2 DUP6 PUSH2 0x132F JUMP JUMPDEST SWAP4 POP PUSH2 0x1363 DUP2 DUP6 PUSH1 0x20 DUP7 ADD PUSH2 0x12CF JUMP JUMPDEST PUSH2 0x136C DUP2 PUSH2 0x12DD JUMP JUMPDEST DUP5 ADD SWAP2 POP POP SWAP3 SWAP2 POP POP JUMP JUMPDEST PUSH0 DUP2 SWAP1 POP SWAP2 SWAP1 POP JUMP JUMPDEST PUSH2 0x1389 DUP2 PUSH2 0x1377 JUMP JUMPDEST DUP3 MSTORE POP POP JUMP JUMPDEST PUSH0 PUSH1 0xC0 DUP4 ADD PUSH0 DUP4 ADD MLOAD PUSH2 0x13A4 PUSH0 DUP7 ADD DUP3 PUSH2 0x12A6 JUMP JUMPDEST POP PUSH1 0x20 DUP4 ADD MLOAD DUP5 DUP3 SUB PUSH1 0x20 DUP7 ADD MSTORE PUSH2 0x13BC DUP3 DUP3 PUSH2 0x12ED JUMP JUMPDEST SWAP2 POP POP PUSH1 0x40 DUP4 ADD MLOAD DUP5 DUP3 SUB PUSH1 0x40 DUP7 ADD MSTORE PUSH2 0x13D6 DUP3 DUP3 PUSH2 0x12ED JUMP JUMPDEST SWAP2 POP POP PUSH1 0x60 DUP4 ADD MLOAD DUP5 DUP3 SUB PUSH1 0x60 DUP7 ADD MSTORE PUSH2 0x13F0 DUP3 DUP3 PUSH2 0x133F JUMP JUMPDEST SWAP2 POP POP PUSH1 0x80 DUP4 ADD MLOAD PUSH2 0x1405 PUSH1 0x80 DUP7 ADD DUP3 PUSH2 0x1380 JUMP JUMPDEST POP PUSH1 0xA0 DUP4 ADD MLOAD PUSH2 0x1418 PUSH1 0xA0 DUP7 ADD DUP3 PUSH2 0x1380 JUMP JUMPDEST POP DUP1 SWAP2 POP POP SWAP3 SWAP2 POP POP JUMP JUMPDEST PUSH0 PUSH1 0x20 DUP3 ADD SWAP1 POP DUP2 DUP2 SUB PUSH0 DUP4 ADD MSTORE PUSH2 0x143B DUP2 DUP5 PUSH2 0x138F JUMP JUMPDEST SWAP1 POP SWAP3 SWAP2 POP POP JUMP JUMPDEST PUSH2 0x144C DUP2 PUSH2 0x1240 JUMP JUMPDEST DUP3 MSTORE POP POP JUMP JUMPDEST PUSH0 PUSH1 0x20 DUP3 ADD SWAP1 POP PUSH2 0x1465 PUSH0 DUP4 ADD DUP5 PUSH2 0x1443 JUMP JUMPDEST SWAP3 SWAP2 POP POP JUMP JUMPDEST PUSH0 PUSH0 REVERT JUMPDEST PUSH0 PUSH0 REVERT JUMPDEST PUSH32 0x4E487B7100000000000000000000000000000000000000000000000000000000 PUSH0 MSTORE PUSH1 0x41 PUSH1 0x4 MSTORE PUSH1 0x24 PUSH0 REVERT JUMPDEST PUSH2 0x14A9 DUP3 PUSH2 0x12DD JUMP JUMPDEST DUP2 ADD DUP2 DUP2 LT PUSH8 0xFFFFFFFFFFFFFFFF DUP3 GT OR ISZERO PUSH2 0x14C8 JUMPI PUSH2 0x14C7 PUSH2 0x1473 JUMP JUMPDEST JUMPDEST DUP1 PUSH1 0x40 MSTORE POP POP POP JUMP JUMPDEST PUSH0 PUSH2 0x14DA PUSH2 0x1210 JUMP JUMPDEST SWAP1 POP PUSH2 0x14E6 DUP3 DUP3 PUSH2 0x14A0 JUMP JUMPDEST SWAP2 SWAP1 POP JUMP JUMPDEST PUSH0 PUSH8 0xFFFFFFFFFFFFFFFF DUP3 GT ISZERO PUSH2 0x1505 JUMPI PUSH2 0x1504 PUSH2 0x1473 JUMP JUMPDEST JUMPDEST PUSH2 0x150E DUP3 PUSH2 0x12DD JUMP JUMPDEST SWAP1 POP PUSH1 0x20 DUP2 ADD SWAP1 POP SWAP2 SWAP1 POP JUMP JUMPDEST DUP3 DUP2 DUP4 CALLDATACOPY PUSH0 DUP4 DUP4 ADD MSTORE POP POP POP JUMP JUMPDEST PUSH0 PUSH2 0x153B PUSH2 0x1536 DUP5 PUSH2 0x14EB JUMP JUMPDEST PUSH2 0x14D1 JUMP JUMPDEST SWAP1 POP DUP3 DUP2 MSTORE PUSH1 0x20 DUP2 ADD DUP5 DUP5 DUP5 ADD GT ISZERO PUSH2 0x1557 JUMPI PUSH2 0x1556 PUSH2 0x146F JUMP JUMPDEST JUMPDEST PUSH2 0x1562 DUP5 DUP3 DUP6 PUSH2 0x151B JUMP JUMPDEST POP SWAP4 SWAP3 POP POP POP JUMP JUMPDEST PUSH0 DUP3 PUSH1 0x1F DUP4 ADD SLT PUSH2 0x157E JUMPI PUSH2 0x157D PUSH2 0x146B JUMP JUMPDEST JUMPDEST DUP2 CALLDATALOAD PUSH2 0x158E DUP5 DUP3 PUSH1 0x20 DUP7 ADD PUSH2 0x1529 JUMP JUMPDEST SWAP2 POP POP SWAP3 SWAP2 POP POP JUMP JUMPDEST PUSH0 PUSH8 0xFFFFFFFFFFFFFFFF DUP3 GT ISZERO PUSH2 0x15B1 JUMPI PUSH2 0x15B0 PUSH2 0x1473 JUMP JUMPDEST JUMPDEST PUSH2 0x15BA DUP3 PUSH2 0x12DD JUMP JUMPDEST SWAP1 POP PUSH1 0x20 DUP2 ADD SWAP1 POP SWAP2 SWAP1 POP JUMP JUMPDEST PUSH0 PUSH2 0x15D9 PUSH2 0x15D4 DUP5 PUSH2 0x1597 JUMP JUMPDEST PUSH2 0x14D1 JUMP JUMPDEST SWAP1 POP DUP3 DUP2 MSTORE PUSH1 0x20 DUP2 ADD DUP5 DUP5 DUP5 ADD GT ISZERO PUSH2 0x15F5 JUMPI PUSH2 0x15F4 PUSH2 0x146F JUMP JUMPDEST JUMPDEST PUSH2 0x1600 DUP5 DUP3 DUP6 PUSH2 0x151B JUMP JUMPDEST POP SWAP4 SWAP3 POP POP POP JUMP JUMPDEST PUSH0 DUP3 PUSH1 0x1F DUP4 ADD SLT PUSH2 0x161C JUMPI PUSH2 0x161B PUSH2 0x146B JUMP JUMPDEST JUMPDEST DUP2 CALLDATALOAD PUSH2 0x162C DUP5 DUP3 PUSH1 0x20 DUP7 ADD PUSH2 0x15C7 JUMP JUMPDEST SWAP2 POP POP SWAP3 SWAP2 POP POP JUMP JUMPDEST PUSH0 PUSH0 PUSH0 PUSH1 0x60 DUP5 DUP7 SUB SLT ISZERO PUSH2 0x164C JUMPI PUSH2 0x164B PUSH2 0x1219 JUMP JUMPDEST JUMPDEST PUSH0 DUP5 ADD CALLDATALOAD PUSH8 0xFFFFFFFFFFFFFFFF DUP2 GT ISZERO PUSH2 0x1669 JUMPI PUSH2 0x1668 PUSH2 0x121D JUMP JUMPDEST JUMPDEST PUSH2 0x1675 DUP7 DUP3 DUP8 ADD PUSH2 0x156A JUMP JUMPDEST SWAP4 POP POP PUSH1 0x20 DUP5 ADD CALLDATALOAD PUSH8 0xFFFFFFFFFFFFFFFF DUP2 GT ISZERO PUSH2 0x1696 JUMPI PUSH2 0x1695 PUSH2 0x121D JUMP JUMPDEST JUMPDEST PUSH2 0x16A2 DUP7 DUP3 DUP8 ADD PUSH2 0x156A JUMP JUMPDEST SWAP3 POP POP PUSH1 0x40 DUP5 ADD CALLDATALOAD PUSH8 0xFFFFFFFFFFFFFFFF DUP2 GT ISZERO PUSH2 0x16C3 JUMPI PUSH2 0x16C2 PUSH2 0x121D JUMP JUMPDEST JUMPDEST PUSH2 0x16CF DUP7 DUP3 DUP8 ADD PUSH2 0x1608 JUMP JUMPDEST SWAP2 POP POP SWAP3 POP SWAP3 POP SWAP3 JUMP JUMPDEST PUSH0 PUSH0 PUSH1 0x40 DUP4 DUP6 SUB SLT ISZERO PUSH2 0x16EF JUMPI PUSH2 0x16EE PUSH2 0x1219 JUMP JUMPDEST JUMPDEST PUSH0 DUP4 ADD CALLDATALOAD PUSH8 0xFFFFFFFFFFFFFFFF DUP2 GT ISZERO PUSH2 0x170C JUMPI PUSH2 0x170B PUSH2 0x121D JUMP JUMPDEST JUMPDEST PUSH2 0x1718 DUP6 DUP3 DUP7 ADD PUSH2 0x156A JUMP JUMPDEST SWAP3 POP POP PUSH1 0x20 DUP4 ADD CALLDATALOAD PUSH8 0xFFFFFFFFFFFFFFFF DUP2 GT ISZERO PUSH2 0x1739 JUMPI PUSH2 0x1738 PUSH2 0x121D JUMP JUMPDEST JUMPDEST PUSH2 0x1745 DUP6 DUP3 DUP7 ADD PUSH2 0x1608 JUMP JUMPDEST SWAP2 POP POP SWAP3 POP SWAP3 SWAP1 POP JUMP JUMPDEST PUSH0 DUP3 DUP3 MSTORE PUSH1 0x20 DUP3 ADD SWAP1 POP SWAP3 SWAP2 POP POP JUMP JUMPDEST PUSH0 PUSH2 0x1769 DUP3 PUSH2 0x12B5 JUMP JUMPDEST PUSH2 0x1773 DUP2 DUP6 PUSH2 0x174F JUMP JUMPDEST SWAP4 POP PUSH2 0x1783 DUP2 DUP6 PUSH1 0x20 DUP7 ADD PUSH2 0x12CF JUMP JUMPDEST PUSH2 0x178C DUP2 PUSH2 0x12DD JUMP JUMPDEST DUP5 ADD SWAP2 POP POP SWAP3 SWAP2 POP POP JUMP JUMPDEST PUSH0 DUP3 DUP3 MSTORE PUSH1 0x20 DUP3 ADD SWAP1 POP SWAP3 SWAP2 POP POP JUMP JUMPDEST PUSH0 PUSH2 0x17B1 DUP3 PUSH2 0x1325 JUMP JUMPDEST PUSH2 0x17BB DUP2 DUP6 PUSH2 0x1797 JUMP JUMPDEST SWAP4 POP PUSH2 0x17CB DUP2 DUP6 PUSH1 0x20 DUP7 ADD PUSH2 0x12CF JUMP JUMPDEST PUSH2 0x17D4 DUP2 PUSH2 0x12DD JUMP JUMPDEST DUP5 ADD SWAP2 POP POP SWAP3 SWAP2 POP POP JUMP JUMPDEST PUSH2 0x17E8 DUP2 PUSH2 0x1377 JUMP JUMPDEST DUP3 MSTORE POP POP JUMP JUMPDEST PUSH0 PUSH1 0xC0 DUP3 ADD SWAP1 POP PUSH2 0x1801 PUSH0 DUP4 ADD DUP10 PUSH2 0x1443 JUMP JUMPDEST DUP2 DUP2 SUB PUSH1 0x20 DUP4 ADD MSTORE PUSH2 0x1813 DUP2 DUP9 PUSH2 0x175F JUMP JUMPDEST SWAP1 POP DUP2 DUP2 SUB PUSH1 0x40 DUP4 ADD MSTORE PUSH2 0x1827 DUP2 DUP8 PUSH2 0x175F JUMP JUMPDEST SWAP1 POP DUP2 DUP2 SUB PUSH1 0x60 DUP4 ADD MSTORE PUSH2 0x183B DUP2 DUP7 PUSH2 0x17A7 JUMP JUMPDEST SWAP1 POP PUSH2 0x184A PUSH1 0x80 DUP4 ADD DUP6 PUSH2 0x17DF JUMP JUMPDEST PUSH2 0x1857 PUSH1 0xA0 DUP4 ADD DUP5 PUSH2 0x17DF JUMP JUMPDEST SWAP8 SWAP7 POP POP POP POP POP POP POP JUMP JUMPDEST PUSH2 0x186B DUP2 PUSH2 0x1377 JUMP JUMPDEST DUP2 EQ PUSH2 0x1875 JUMPI PUSH0 PUSH0 REVERT JUMPDEST POP JUMP JUMPDEST PUSH0 DUP2 CALLDATALOAD SWAP1 POP PUSH2 0x1886 DUP2 PUSH2 0x1862 JUMP JUMPDEST SWAP3 SWAP2 POP POP JUMP JUMPDEST PUSH0 PUSH0 PUSH1 0x40 DUP4 DUP6 SUB SLT ISZERO PUSH2 0x18A2 JUMPI PUSH2 0x18A1 PUSH2 0x1219 JUMP JUMPDEST JUMPDEST PUSH0 PUSH2 0x18AF DUP6 DUP3 DUP7 ADD PUSH2 0x1267 JUMP JUMPDEST SWAP3 POP POP PUSH1 0x20 PUSH2 0x18C0 DUP6 DUP3 DUP7 ADD PUSH2 0x1878 JUMP JUMPDEST SWAP2 POP POP SWAP3 POP SWAP3 SWAP1 POP JUMP JUMPDEST PUSH0 DUP2 SWAP1 POP SWAP3 SWAP2 POP POP JUMP JUMPDEST PUSH32 0x50726F6A656374417574686F7269747900000000000000000000000000000000 PUSH0 DUP3 ADD MSTORE POP JUMP JUMPDEST PUSH0 PUSH2 0x1908 PUSH1 0x10 DUP4 PUSH2 0x18CA JUMP JUMPDEST SWAP2 POP PUSH2 0x1913 DUP3 PUSH2 0x18D4 JUMP JUMPDEST PUSH1 0x10 DUP3 ADD SWAP1 POP SWAP2 SWAP1 POP JUMP JUMPDEST PUSH0 PUSH2 0x1928 DUP3 PUSH2 0x18FC JUMP JUMPDEST SWAP2 POP DUP2 SWAP1 POP SWAP2 SWAP1 POP JUMP JUMPDEST PUSH32 0x4E487B7100000000000000000000000000000000000000000000000000000000 PUSH0 MSTORE PUSH1 0x22 PUSH1 0x4 MSTORE PUSH1 0x24 PUSH0 REVERT JUMPDEST PUSH0 PUSH1 0x2 DUP3 DIV SWAP1 POP PUSH1 0x1 DUP3 AND DUP1 PUSH2 0x1976 JUMPI PUSH1 0x7F DUP3 AND SWAP2 POP JUMPDEST PUSH1 0x20 DUP3 LT DUP2 SUB PUSH2 0x1989 JUMPI PUSH2 0x1988 PUSH2 0x1932 JUMP JUMPDEST JUMPDEST POP SWAP2 SWAP1 POP JUMP JUMPDEST PUSH32 0x5573657220616C72656164792065786973747300000000000000000000000000 PUSH0 DUP3 ADD MSTORE POP JUMP JUMPDEST PUSH0 PUSH2 0x19C3 PUSH1 0x13 DUP4 PUSH2 0x174F JUMP JUMPDEST SWAP2 POP PUSH2 0x19CE DUP3 PUSH2 0x198F JUMP JUMPDEST PUSH1 0x20 DUP3 ADD SWAP1 POP SWAP2 SWAP1 POP JUMP JUMPDEST PUSH0 PUSH1 0x20 DUP3 ADD SWAP1 POP DUP2 DUP2 SUB PUSH0 DUP4 ADD MSTORE PUSH2 0x19F0 DUP2 PUSH2 0x19B7 JUMP JUMPDEST SWAP1 POP SWAP2 SWAP1 POP JUMP JUMPDEST PUSH0 PUSH2 0x1A01 DUP3 PUSH2 0x12B5 JUMP JUMPDEST PUSH2 0x1A0B DUP2 DUP6 PUSH2 0x18CA JUMP JUMPDEST SWAP4 POP PUSH2 0x1A1B DUP2 DUP6 PUSH1 0x20 DUP7 ADD PUSH2 0x12CF JUMP JUMPDEST DUP1 DUP5 ADD SWAP2 POP POP SWAP3 SWAP2 POP POP JUMP JUMPDEST PUSH0 PUSH2 0x1A32 DUP3 DUP5 PUSH2 0x19F7 JUMP JUMPDEST SWAP2 POP DUP2 SWAP1 POP SWAP3 SWAP2 POP POP JUMP JUMPDEST PUSH0 PUSH1 0x20 DUP3 ADD SWAP1 POP DUP2 DUP2 SUB PUSH0 DUP4 ADD MSTORE PUSH2 0x1A55 DUP2 DUP5 PUSH2 0x175F JUMP JUMPDEST SWAP1 POP SWAP3 SWAP2 POP POP JUMP JUMPDEST PUSH0 DUP2 SWAP1 POP DUP2 PUSH0 MSTORE PUSH1 0x20 PUSH0 KECCAK256 SWAP1 POP SWAP2 SWAP1 POP JUMP JUMPDEST PUSH0 PUSH1 0x20 PUSH1 0x1F DUP4 ADD DIV SWAP1 POP SWAP2 SWAP1 POP JUMP JUMPDEST PUSH0 DUP3 DUP3 SHL SWAP1 POP SWAP3 SWAP2 POP POP JUMP JUMPDEST PUSH0 PUSH1 0x8 DUP4 MUL PUSH2 0x1AB9 PUSH32 0xFFFFFFFFFFFFFFFFFFFFFFFFFFFFFFFFFFFFFFFFFFFFFFFFFFFFFFFFFFFFFFFF DUP3 PUSH2 0x1A7E JUMP JUMPDEST PUSH2 0x1AC3 DUP7 DUP4 PUSH2 0x1A7E JUMP JUMPDEST SWAP6 POP DUP1 NOT DUP5 AND SWAP4 POP DUP1 DUP7 AND DUP5 OR SWAP3 POP POP POP SWAP4 SWAP3 POP POP POP JUMP JUMPDEST PUSH0 DUP2 SWAP1 POP SWAP2 SWAP1 POP JUMP JUMPDEST PUSH0 PUSH2 0x1AFE PUSH2 0x1AF9 PUSH2 0x1AF4 DUP5 PUSH2 0x1377 JUMP JUMPDEST PUSH2 0x1ADB JUMP JUMPDEST PUSH2 0x1377 JUMP JUMPDEST SWAP1 POP SWAP2 SWAP1 POP JUMP JUMPDEST PUSH0 DUP2 SWAP1 POP SWAP2 SWAP1 POP JUMP JUMPDEST PUSH2 0x1B17 DUP4 PUSH2 0x1AE4 JUMP JUMPDEST PUSH2 0x1B2B PUSH2 0x1B23 DUP3 PUSH2 0x1B05 JUMP JUMPDEST DUP5 DUP5 SLOAD PUSH2 0x1A8A JUMP JUMPDEST DUP3 SSTORE POP POP POP POP JUMP JUMPDEST PUSH0 PUSH0 SWAP1 POP SWAP1 JUMP JUMPDEST PUSH2 0x1B42 PUSH2 0x1B33 JUMP JUMPDEST PUSH2 0x1B4D DUP2 DUP5 DUP5 PUSH2 0x1B0E JUMP JUMPDEST POP POP POP JUMP JUMPDEST JUMPDEST DUP2 DUP2 LT ISZERO PUSH2 0x1B70 JUMPI PUSH2 0x1B65 PUSH0 DUP3 PUSH2 0x1B3A JUMP JUMPDEST PUSH1 0x1 DUP2 ADD SWAP1 POP PUSH2 0x1B53 JUMP JUMPDEST POP POP JUMP JUMPDEST PUSH1 0x1F DUP3 GT ISZERO PUSH2 0x1BB5 JUMPI PUSH2 0x1B86 DUP2 PUSH2 0x1A5D JUMP JUMPDEST PUSH2 0x1B8F DUP5 PUSH2 0x1A6F JUMP JUMPDEST DUP2 ADD PUSH1 0x20 DUP6 LT ISZERO PUSH2 0x1B9E JUMPI DUP2 SWAP1 POP JUMPDEST PUSH2 0x1BB2 PUSH2 0x1BAA DUP6 PUSH2 0x1A6F JUMP JUMPDEST DUP4 ADD DUP3 PUSH2 0x1B52 JUMP JUMPDEST POP POP JUMPDEST POP POP POP JUMP JUMPDEST PUSH0 DUP3 DUP3 SHR SWAP1 POP SWAP3 SWAP2 POP POP JUMP JUMPDEST PUSH0 PUSH2 0x1BD5 PUSH0 NOT DUP5 PUSH1 0x8 MUL PUSH2 0x1BBA JUMP JUMPDEST NOT DUP1 DUP4 AND SWAP2 POP POP SWAP3 SWAP2 POP POP JUMP JUMPDEST PUSH0 PUSH2 0x1BED DUP4 DUP4 PUSH2 0x1BC6 JUMP JUMPDEST SWAP2 POP DUP3 PUSH1 0x2 MUL DUP3 OR SWAP1 POP SWAP3 SWAP2 POP POP JUMP JUMPDEST PUSH2 0x1C06 DUP3 PUSH2 0x12B5 JUMP JUMPDEST PUSH8 0xFFFFFFFFFFFFFFFF DUP2 GT ISZERO PUSH2 0x1C1F JUMPI PUSH2 0x1C1E PUSH2 0x1473 JUMP JUMPDEST JUMPDEST PUSH2 0x1C29 DUP3 SLOAD PUSH2 0x195F JUMP JUMPDEST PUSH2 0x1C34 DUP3 DUP3 DUP6 PUSH2 0x1B74 JUMP JUMPDEST PUSH0 PUSH1 0x20 SWAP1 POP PUSH1 0x1F DUP4 GT PUSH1 0x1 DUP2 EQ PUSH2 0x1C65 JUMPI PUSH0 DUP5 ISZERO PUSH2 0x1C53 JUMPI DUP3 DUP8 ADD MLOAD SWAP1 POP JUMPDEST PUSH2 0x1C5D DUP6 DUP3 PUSH2 0x1BE2 JUMP JUMPDEST DUP7 SSTORE POP PUSH2 0x1CC4 JUMP JUMPDEST PUSH1 0x1F NOT DUP5 AND PUSH2 0x1C73 DUP7 PUSH2 0x1A5D JUMP JUMPDEST PUSH0 JUMPDEST DUP3 DUP2 LT ISZERO PUSH2 0x1C9A JUMPI DUP5 DUP10 ADD MLOAD DUP3 SSTORE PUSH1 0x1 DUP3 ADD SWAP2 POP PUSH1 0x20 DUP6 ADD SWAP5 POP PUSH1 0x20 DUP2 ADD SWAP1 POP PUSH2 0x1C75 JUMP JUMPDEST DUP7 DUP4 LT ISZERO PUSH2 0x1CB7 JUMPI DUP5 DUP10 ADD MLOAD PUSH2 0x1CB3 PUSH1 0x1F DUP10 AND DUP3 PUSH2 0x1BC6 JUMP JUMPDEST DUP4 SSTORE POP JUMPDEST PUSH1 0x1 PUSH1 0x2 DUP9 MUL ADD DUP9 SSTORE POP POP POP JUMPDEST POP POP POP POP POP POP JUMP JUMPDEST PUSH0 DUP2 SWAP1 POP DUP2 PUSH0 MSTORE PUSH1 0x20 PUSH0 KECCAK256 SWAP1 POP SWAP2 SWAP1 POP JUMP JUMPDEST PUSH1 0x1F DUP3 GT ISZERO PUSH2 0x1D1F JUMPI PUSH2 0x1CF0 DUP2 PUSH2 0x1CCC JUMP JUMPDEST PUSH2 0x1CF9 DUP5 PUSH2 0x1A6F JUMP JUMPDEST DUP2 ADD PUSH1 0x20 DUP6 LT ISZERO PUSH2 0x1D08 JUMPI DUP2 SWAP1 POP JUMPDEST PUSH2 0x1D1C PUSH2 0x1D14 DUP6 PUSH2 0x1A6F JUMP JUMPDEST DUP4 ADD DUP3 PUSH2 0x1B52 JUMP JUMPDEST POP POP JUMPDEST POP POP POP JUMP JUMPDEST PUSH2 0x1D2D DUP3 PUSH2 0x1325 JUMP JUMPDEST PUSH8 0xFFFFFFFFFFFFFFFF DUP2 GT ISZERO PUSH2 0x1D46 JUMPI PUSH2 0x1D45 PUSH2 0x1473 JUMP JUMPDEST JUMPDEST PUSH2 0x1D50 DUP3 SLOAD PUSH2 0x195F JUMP JUMPDEST PUSH2 0x1D5B DUP3 DUP3 DUP6 PUSH2 0x1CDE JUMP JUMPDEST PUSH0 PUSH1 0x20 SWAP1 POP PUSH1 0x1F DUP4 GT PUSH1 0x1 DUP2 EQ PUSH2 0x1D8C JUMPI PUSH0 DUP5 ISZERO PUSH2 0x1D7A JUMPI DUP3 DUP8 ADD MLOAD SWAP1 POP JUMPDEST PUSH2 0x1D84 DUP6 DUP3 PUSH2 0x1BE2 JUMP JUMPDEST DUP7 SSTORE POP PUSH2 0x1DEB JUMP JUMPDEST PUSH1 0x1F NOT DUP5 AND PUSH2 0x1D9A DUP7 PUSH2 0x1CCC JUMP JUMPDEST PUSH0 JUMPDEST DUP3 DUP2 LT ISZERO PUSH2 0x1DC1 JUMPI DUP5 DUP10 ADD MLOAD DUP3 SSTORE PUSH1 0x1 DUP3 ADD SWAP2 POP PUSH1 0x20 DUP6 ADD SWAP5 POP PUSH1 0x20 DUP2 ADD SWAP1 POP PUSH2 0x1D9C JUMP JUMPDEST DUP7 DUP4 LT ISZERO PUSH2 0x1DDE JUMPI DUP5 DUP10 ADD MLOAD PUSH2 0x1DDA PUSH1 0x1F DUP10 AND DUP3 PUSH2 0x1BC6 JUMP JUMPDEST DUP4 SSTORE POP JUMPDEST PUSH1 0x1 PUSH1 0x2 DUP9 MUL ADD DUP9 SSTORE POP POP POP JUMPDEST POP POP POP POP POP POP JUMP JUMPDEST PUSH32 0x4E487B7100000000000000000000000000000000000000000000000000000000 PUSH0 MSTORE PUSH1 0x11 PUSH1 0x4 MSTORE PUSH1 0x24 PUSH0 REVERT JUMPDEST PUSH0 PUSH2 0x1E2A DUP3 PUSH2 0x1377 JUMP JUMPDEST SWAP2 POP PUSH32 0xFFFFFFFFFFFFFFFFFFFFFFFFFFFFFFFFFFFFFFFFFFFFFFFFFFFFFFFFFFFFFFFF DUP3 SUB PUSH2 0x1E5C JUMPI PUSH2 0x1E5B PUSH2 0x1DF3 JUMP JUMPDEST JUMPDEST PUSH1 0x1 DUP3 ADD SWAP1 POP SWAP2 SWAP1 POP JUMP JUMPDEST PUSH32 0x52657075746174696F6E00000000000000000000000000000000000000000000 PUSH0 DUP3 ADD MSTORE POP JUMP JUMPDEST PUSH0 PUSH2 0x1E9B PUSH1 0xA DUP4 PUSH2 0x18CA JUMP JUMPDEST SWAP2 POP PUSH2 0x1EA6 DUP3 PUSH2 0x1E67 JUMP JUMPDEST PUSH1 0xA DUP3 ADD SWAP1 POP SWAP2 SWAP1 POP JUMP JUMPDEST PUSH0 PUSH2 0x1EBB DUP3 PUSH2 0x1E8F JUMP JUMPDEST SWAP2 POP DUP2 SWAP1 POP SWAP2 SWAP1 POP JUMP INVALID LOG2 PUSH5 0x6970667358 0x22 SLT KECCAK256 CALLF 0x2871 TSTORE SWAP16 MLOAD 0xAB SWAP14 0xD2 0xF SWAP2 EXTCODEHASH 0x1E SMOD 0xD0 NOT 0xCF 0x2F BLOCKHASH 0xE SWAP13 0xD0 0xB2 GAS 0xB0 0xBB 0xA9 PUSH6 0x1433C1486473 PUSH16 0x6C634300081E00330000000000000000 "
				},
				"gasEstimates": {
					"creation": {
						"codeDepositCost": "1586200",
						"executionCost": "infinite",
						"totalCost": "infinite"
					},
					"external": {
						"createProfile(string,string,bytes)": "infinite",
						"getProfile(address)": "infinite",
						"incrementProjectsCompleted(address)": "27160",
						"owner()": "2581",
						"profiles(address)": "infinite",
						"projectAuthorityAddress()": "2619",
						"renounceOwnership()": "infinite",
						"reputationContractAddress()": "2553",
						"setProjectAuthority(address)": "infinite",
						"setReputationContract(address)": "infinite",
						"transferOwnership(address)": "infinite",
						"updateProfile(string,bytes)": "infinite",
						"updateReputation(address,uint256)": "25089"
					}
				},
				"methodIdentifiers": {
					"createProfile(string,string,bytes)": "412738c8",
					"getProfile(address)": "0f53a470",
					"incrementProjectsCompleted(address)": "43f05743",
					"owner()": "8da5cb5b",
					"profiles(address)": "bbe15627",
					"projectAuthorityAddress()": "6b071cb3",
					"renounceOwnership()": "715018a6",
					"reputationContractAddress()": "1f54f729",
					"setProjectAuthority(address)": "0139746c",
					"setReputationContract(address)": "9584660f",
					"transferOwnership(address)": "f2fde38b",
					"updateProfile(string,bytes)": "6eeb9b10",
					"updateReputation(address,uint256)": "f5c91a08"
				}
			},
			"storageLayout": {
				"storage": [
					{
						"astId": 35,
						"contract": "contracts/core/UserIdentity_flattened.sol:UserIdentity",
						"label": "_owner",
						"offset": 0,
						"slot": "0",
						"type": "t_address"
					},
					{
						"astId": 222,
						"contract": "contracts/core/UserIdentity_flattened.sol:UserIdentity",
						"label": "profiles",
						"offset": 0,
						"slot": "1",
						"type": "t_mapping(t_address,t_struct(UserProfile)190_storage)"
					},
					{
						"astId": 226,
						"contract": "contracts/core/UserIdentity_flattened.sol:UserIdentity",
						"label": "usernames",
						"offset": 0,
						"slot": "2",
						"type": "t_mapping(t_string_memory_ptr,t_address)"
					},
					{
						"astId": 228,
						"contract": "contracts/core/UserIdentity_flattened.sol:UserIdentity",
						"label": "reputationContractAddress",
						"offset": 0,
						"slot": "3",
						"type": "t_address"
					},
					{
						"astId": 230,
						"contract": "contracts/core/UserIdentity_flattened.sol:UserIdentity",
						"label": "projectAuthorityAddress",
						"offset": 0,
						"slot": "4",
						"type": "t_address"
					}
				],
				"types": {
					"t_address": {
						"encoding": "inplace",
						"label": "address",
						"numberOfBytes": "20"
					},
					"t_bytes_storage": {
						"encoding": "bytes",
						"label": "bytes",
						"numberOfBytes": "32"
					},
					"t_mapping(t_address,t_struct(UserProfile)190_storage)": {
						"encoding": "mapping",
						"key": "t_address",
						"label": "mapping(address => struct IUserIdentity.UserProfile)",
						"numberOfBytes": "32",
						"value": "t_struct(UserProfile)190_storage"
					},
					"t_mapping(t_string_memory_ptr,t_address)": {
						"encoding": "mapping",
						"key": "t_string_memory_ptr",
						"label": "mapping(string => address)",
						"numberOfBytes": "32",
						"value": "t_address"
					},
					"t_string_memory_ptr": {
						"encoding": "bytes",
						"label": "string",
						"numberOfBytes": "32"
					},
					"t_string_storage": {
						"encoding": "bytes",
						"label": "string",
						"numberOfBytes": "32"
					},
					"t_struct(UserProfile)190_storage": {
						"encoding": "inplace",
						"label": "struct IUserIdentity.UserProfile",
						"members": [
							{
								"astId": 179,
								"contract": "contracts/core/UserIdentity_flattened.sol:UserIdentity",
								"label": "userAddress",
								"offset": 0,
								"slot": "0",
								"type": "t_address"
							},
							{
								"astId": 181,
								"contract": "contracts/core/UserIdentity_flattened.sol:UserIdentity",
								"label": "username",
								"offset": 0,
								"slot": "1",
								"type": "t_string_storage"
							},
							{
								"astId": 183,
								"contract": "contracts/core/UserIdentity_flattened.sol:UserIdentity",
								"label": "skills",
								"offset": 0,
								"slot": "2",
								"type": "t_string_storage"
							},
							{
								"astId": 185,
								"contract": "contracts/core/UserIdentity_flattened.sol:UserIdentity",
								"label": "ipfsPortfolioHash",
								"offset": 0,
								"slot": "3",
								"type": "t_bytes_storage"
							},
							{
								"astId": 187,
								"contract": "contracts/core/UserIdentity_flattened.sol:UserIdentity",
								"label": "reputationScore",
								"offset": 0,
								"slot": "4",
								"type": "t_uint256"
							},
							{
								"astId": 189,
								"contract": "contracts/core/UserIdentity_flattened.sol:UserIdentity",
								"label": "projectsCompleted",
								"offset": 0,
								"slot": "5",
								"type": "t_uint256"
							}
						],
						"numberOfBytes": "192"
					},
					"t_uint256": {
						"encoding": "inplace",
						"label": "uint256",
						"numberOfBytes": "32"
					}
				}
			},
			"userdoc": {
				"kind": "user",
				"methods": {},
				"version": 1
			}
		}
	}
}