{
	"contracts/utils/Proposal.sol": {
		"Proposal": {
			"abi": [
				{
					"inputs": [
						{
							"internalType": "address",
							"name": "_submitter",
							"type": "address"
						},
						{
							"internalType": "string",
							"name": "_details",
							"type": "string"
						},
						{
							"internalType": "uint256",
							"name": "_proposedCost",
							"type": "uint256"
						},
						{
							"internalType": "address",
							"name": "_projectContract",
							"type": "address"
						}
					],
					"stateMutability": "nonpayable",
					"type": "constructor"
				},
				{
					"inputs": [
						{
							"internalType": "address",
							"name": "owner",
							"type": "address"
						}
					],
					"name": "OwnableInvalidOwner",
					"type": "error"
				},
				{
					"inputs": [
						{
							"internalType": "address",
							"name": "account",
							"type": "address"
						}
					],
					"name": "OwnableUnauthorizedAccount",
					"type": "error"
				},
				{
					"anonymous": false,
					"inputs": [],
					"name": "Accepted",
					"type": "event"
				},
				{
					"anonymous": false,
					"inputs": [
						{
							"indexed": true,
							"internalType": "address",
							"name": "previousOwner",
							"type": "address"
						},
						{
							"indexed": true,
							"internalType": "address",
							"name": "newOwner",
							"type": "address"
						}
					],
					"name": "OwnershipTransferred",
					"type": "event"
				},
				{
					"inputs": [],
					"name": "accept",
					"outputs": [],
					"stateMutability": "nonpayable",
					"type": "function"
				},
				{
					"inputs": [],
					"name": "details",
					"outputs": [
						{
							"internalType": "string",
							"name": "",
							"type": "string"
						}
					],
					"stateMutability": "view",
					"type": "function"
				},
				{
					"inputs": [],
					"name": "isAccepted",
					"outputs": [
						{
							"internalType": "bool",
							"name": "",
							"type": "bool"
						}
					],
					"stateMutability": "view",
					"type": "function"
				},
				{
					"inputs": [],
					"name": "owner",
					"outputs": [
						{
							"internalType": "address",
							"name": "",
							"type": "address"
						}
					],
					"stateMutability": "view",
					"type": "function"
				},
				{
					"inputs": [],
					"name": "proposedCost",
					"outputs": [
						{
							"internalType": "uint256",
							"name": "",
							"type": "uint256"
						}
					],
					"stateMutability": "view",
					"type": "function"
				},
				{
					"inputs": [],
					"name": "renounceOwnership",
					"outputs": [],
					"stateMutability": "nonpayable",
					"type": "function"
				},
				{
					"inputs": [],
					"name": "submitter",
					"outputs": [
						{
							"internalType": "address",
							"name": "",
							"type": "address"
						}
					],
					"stateMutability": "view",
					"type": "function"
				},
				{
					"inputs": [
						{
							"internalType": "address",
							"name": "newOwner",
							"type": "address"
						}
					],
					"name": "transferOwnership",
					"outputs": [],
					"stateMutability": "nonpayable",
					"type": "function"
				}
			],
			"devdoc": {
				"errors": {
					"OwnableInvalidOwner(address)": [
						{
							"details": "The owner is not a valid owner account. (eg. `address(0)`)"
						}
					],
					"OwnableUnauthorizedAccount(address)": [
						{
							"details": "The caller account is not authorized to perform an operation."
						}
					]
				},
				"kind": "dev",
				"methods": {
					"owner()": {
						"details": "Returns the address of the current owner."
					},
					"renounceOwnership()": {
						"details": "Leaves the contract without owner. It will not be possible to call `onlyOwner` functions. Can only be called by the current owner. NOTE: Renouncing ownership will leave the contract without an owner, thereby disabling any functionality that is only available to the owner."
					},
					"transferOwnership(address)": {
						"details": "Transfers ownership of the contract to a new account (`newOwner`). Can only be called by the current owner."
					}
				},
				"version": 1
			},
			"evm": {
				"assembly": "    /* \"contracts/utils/Proposal.sol\":113:658  contract Proposal is Ownable {... */\n  mstore(0x40, 0xc0)\n    /* \"contracts/utils/Proposal.sol\":299:521  constructor(address _submitter, string memory _details, uint256 _proposedCost, address _projectContract) Ownable(_projectContract) {... */\n  callvalue\n  dup1\n  iszero\n  tag_1\n  jumpi\n  revert(0x00, 0x00)\ntag_1:\n  pop\n  mload(0x40)\n  sub(codesize, bytecodeSize)\n  dup1\n  bytecodeSize\n  dup4\n  codecopy\n  dup2\n  dup2\n  add\n  0x40\n  mstore\n  dup2\n  add\n  swap1\n  tag_2\n  swap2\n  swap1\n  tag_3\n  jump\t// in\ntag_2:\n    /* \"contracts/utils/Proposal.sol\":412:428  _projectContract */\n  dup1\n    /* \"@openzeppelin/contracts/access/Ownable.sol\":1297:1298  0 */\n  0x00\n    /* \"@openzeppelin/contracts/access/Ownable.sol\":1273:1299  initialOwner == address(0) */\n  0xffffffffffffffffffffffffffffffffffffffff\n  and\n    /* \"@openzeppelin/contracts/access/Ownable.sol\":1273:1285  initialOwner */\n  dup2\n    /* \"@openzeppelin/contracts/access/Ownable.sol\":1273:1299  initialOwner == address(0) */\n  0xffffffffffffffffffffffffffffffffffffffff\n  and\n  sub\n    /* \"@openzeppelin/contracts/access/Ownable.sol\":1269:1364  if (initialOwner == address(0)) {... */\n  tag_7\n  jumpi\n    /* \"@openzeppelin/contracts/access/Ownable.sol\":1350:1351  0 */\n  0x00\n    /* \"@openzeppelin/contracts/access/Ownable.sol\":1322:1353  OwnableInvalidOwner(address(0)) */\n  mload(0x40)\n  0x1e4fbdf700000000000000000000000000000000000000000000000000000000\n  dup2\n  mstore\n  0x04\n  add\n  tag_8\n  swap2\n  swap1\n  tag_9\n  jump\t// in\ntag_8:\n  mload(0x40)\n  dup1\n  swap2\n  sub\n  swap1\n  revert\n    /* \"@openzeppelin/contracts/access/Ownable.sol\":1269:1364  if (initialOwner == address(0)) {... */\ntag_7:\n    /* \"@openzeppelin/contracts/access/Ownable.sol\":1373:1405  _transferOwnership(initialOwner) */\n  tag_10\n    /* \"@openzeppelin/contracts/access/Ownable.sol\":1392:1404  initialOwner */\n  dup2\n    /* \"@openzeppelin/contracts/access/Ownable.sol\":1373:1391  _transferOwnership */\n  shl(0x20, tag_11)\n    /* \"@openzeppelin/contracts/access/Ownable.sol\":1373:1405  _transferOwnership(initialOwner) */\n  0x20\n  shr\n  jump\t// in\ntag_10:\n    /* \"@openzeppelin/contracts/access/Ownable.sol\":1225:1412  constructor(address initialOwner) {... */\n  pop\n    /* \"contracts/utils/Proposal.sol\":453:463  _submitter */\n  dup4\n    /* \"contracts/utils/Proposal.sol\":441:463  submitter = _submitter */\n  0xffffffffffffffffffffffffffffffffffffffff\n  and\n  0x80\n  dup2\n  0xffffffffffffffffffffffffffffffffffffffff\n  and\n  dup2\n  mstore\n  pop\n  pop\n    /* \"contracts/utils/Proposal.sol\":480:493  _proposedCost */\n  dup2\n    /* \"contracts/utils/Proposal.sol\":465:493  proposedCost = _proposedCost */\n  0xa0\n  dup2\n  dup2\n  mstore\n  pop\n  pop\n    /* \"contracts/utils/Proposal.sol\":505:513  _details */\n  dup3\n    /* \"contracts/utils/Proposal.sol\":495:502  details */\n  0x01\n    /* \"contracts/utils/Proposal.sol\":495:513  details = _details */\n  swap1\n  dup2\n  tag_13\n  swap2\n  swap1\n  tag_14\n  jump\t// in\ntag_13:\n  pop\n    /* \"contracts/utils/Proposal.sol\":299:521  constructor(address _submitter, string memory _details, uint256 _proposedCost, address _projectContract) Ownable(_projectContract) {... */\n  pop\n  pop\n  pop\n  pop\n    /* \"contracts/utils/Proposal.sol\":113:658  contract Proposal is Ownable {... */\n  jump(tag_15)\n    /* \"@openzeppelin/contracts/access/Ownable.sol\":2912:3099  function _transferOwnership(address newOwner) internal virtual {... */\ntag_11:\n    /* \"@openzeppelin/contracts/access/Ownable.sol\":2985:3001  address oldOwner */\n  0x00\n    /* \"@openzeppelin/contracts/access/Ownable.sol\":3004:3010  _owner */\n  0x00\n  0x00\n  swap1\n  sload\n  swap1\n  0x0100\n  exp\n  swap1\n  div\n  0xffffffffffffffffffffffffffffffffffffffff\n  and\n    /* \"@openzeppelin/contracts/access/Ownable.sol\":2985:3010  address oldOwner = _owner */\n  swap1\n  pop\n    /* \"@openzeppelin/contracts/access/Ownable.sol\":3029:3037  newOwner */\n  dup2\n    /* \"@openzeppelin/contracts/access/Ownable.sol\":3020:3026  _owner */\n  0x00\n  0x00\n    /* \"@openzeppelin/contracts/access/Ownable.sol\":3020:3037  _owner = newOwner */\n  0x0100\n  exp\n  dup2\n  sload\n  dup2\n  0xffffffffffffffffffffffffffffffffffffffff\n  mul\n  not\n  and\n  swap1\n  dup4\n  0xffffffffffffffffffffffffffffffffffffffff\n  and\n  mul\n  or\n  swap1\n  sstore\n  pop\n    /* \"@openzeppelin/contracts/access/Ownable.sol\":3083:3091  newOwner */\n  dup2\n    /* \"@openzeppelin/contracts/access/Ownable.sol\":3052:3092  OwnershipTransferred(oldOwner, newOwner) */\n  0xffffffffffffffffffffffffffffffffffffffff\n  and\n    /* \"@openzeppelin/contracts/access/Ownable.sol\":3073:3081  oldOwner */\n  dup2\n    /* \"@openzeppelin/contracts/access/Ownable.sol\":3052:3092  OwnershipTransferred(oldOwner, newOwner) */\n  0xffffffffffffffffffffffffffffffffffffffff\n  and\n  0x8be0079c531659141344cd1fd0a4f28419497f9722a3daafe3b4186f6b6457e0\n  mload(0x40)\n  mload(0x40)\n  dup1\n  swap2\n  sub\n  swap1\n  log3\n    /* \"@openzeppelin/contracts/access/Ownable.sol\":2975:3099  {... */\n  pop\n    /* \"@openzeppelin/contracts/access/Ownable.sol\":2912:3099  function _transferOwnership(address newOwner) internal virtual {... */\n  pop\n  jump\t// out\n    /* \"#utility.yul\":7:82   */\ntag_17:\n    /* \"#utility.yul\":40:46   */\n  0x00\n    /* \"#utility.yul\":73:75   */\n  0x40\n    /* \"#utility.yul\":67:76   */\n  mload\n    /* \"#utility.yul\":57:76   */\n  swap1\n  pop\n    /* \"#utility.yul\":7:82   */\n  swap1\n  jump\t// out\n    /* \"#utility.yul\":88:205   */\ntag_18:\n    /* \"#utility.yul\":197:198   */\n  0x00\n    /* \"#utility.yul\":194:195   */\n  0x00\n    /* \"#utility.yul\":187:199   */\n  revert\n    /* \"#utility.yul\":211:328   */\ntag_19:\n    /* \"#utility.yul\":320:321   */\n  0x00\n    /* \"#utility.yul\":317:318   */\n  0x00\n    /* \"#utility.yul\":310:322   */\n  revert\n    /* \"#utility.yul\":334:460   */\ntag_20:\n    /* \"#utility.yul\":371:378   */\n  0x00\n    /* \"#utility.yul\":411:453   */\n  0xffffffffffffffffffffffffffffffffffffffff\n    /* \"#utility.yul\":404:409   */\n  dup3\n    /* \"#utility.yul\":400:454   */\n  and\n    /* \"#utility.yul\":389:454   */\n  swap1\n  pop\n    /* \"#utility.yul\":334:460   */\n  swap2\n  swap1\n  pop\n  jump\t// out\n    /* \"#utility.yul\":466:562   */\ntag_21:\n    /* \"#utility.yul\":503:510   */\n  0x00\n    /* \"#utility.yul\":532:556   */\n  tag_62\n    /* \"#utility.yul\":550:555   */\n  dup3\n    /* \"#utility.yul\":532:556   */\n  tag_20\n  jump\t// in\ntag_62:\n    /* \"#utility.yul\":521:556   */\n  swap1\n  pop\n    /* \"#utility.yul\":466:562   */\n  swap2\n  swap1\n  pop\n  jump\t// out\n    /* \"#utility.yul\":568:690   */\ntag_22:\n    /* \"#utility.yul\":641:665   */\n  tag_64\n    /* \"#utility.yul\":659:664   */\n  dup2\n    /* \"#utility.yul\":641:665   */\n  tag_21\n  jump\t// in\ntag_64:\n    /* \"#utility.yul\":634:639   */\n  dup2\n    /* \"#utility.yul\":631:666   */\n  eq\n    /* \"#utility.yul\":621:684   */\n  tag_65\n  jumpi\n    /* \"#utility.yul\":680:681   */\n  0x00\n    /* \"#utility.yul\":677:678   */\n  0x00\n    /* \"#utility.yul\":670:682   */\n  revert\n    /* \"#utility.yul\":621:684   */\ntag_65:\n    /* \"#utility.yul\":568:690   */\n  pop\n  jump\t// out\n    /* \"#utility.yul\":696:839   */\ntag_23:\n    /* \"#utility.yul\":753:758   */\n  0x00\n    /* \"#utility.yul\":784:790   */\n  dup2\n    /* \"#utility.yul\":778:791   */\n  mload\n    /* \"#utility.yul\":769:791   */\n  swap1\n  pop\n    /* \"#utility.yul\":800:833   */\n  tag_67\n    /* \"#utility.yul\":827:832   */\n  dup2\n    /* \"#utility.yul\":800:833   */\n  tag_22\n  jump\t// in\ntag_67:\n    /* \"#utility.yul\":696:839   */\n  swap3\n  swap2\n  pop\n  pop\n  jump\t// out\n    /* \"#utility.yul\":845:962   */\ntag_24:\n    /* \"#utility.yul\":954:955   */\n  0x00\n    /* \"#utility.yul\":951:952   */\n  0x00\n    /* \"#utility.yul\":944:956   */\n  revert\n    /* \"#utility.yul\":968:1085   */\ntag_25:\n    /* \"#utility.yul\":1077:1078   */\n  0x00\n    /* \"#utility.yul\":1074:1075   */\n  0x00\n    /* \"#utility.yul\":1067:1079   */\n  revert\n    /* \"#utility.yul\":1091:1193   */\ntag_26:\n    /* \"#utility.yul\":1132:1138   */\n  0x00\n    /* \"#utility.yul\":1183:1185   */\n  0x1f\n    /* \"#utility.yul\":1179:1186   */\n  not\n    /* \"#utility.yul\":1174:1176   */\n  0x1f\n    /* \"#utility.yul\":1167:1172   */\n  dup4\n    /* \"#utility.yul\":1163:1177   */\n  add\n    /* \"#utility.yul\":1159:1187   */\n  and\n    /* \"#utility.yul\":1149:1187   */\n  swap1\n  pop\n    /* \"#utility.yul\":1091:1193   */\n  swap2\n  swap1\n  pop\n  jump\t// out\n    /* \"#utility.yul\":1199:1379   */\ntag_27:\n    /* \"#utility.yul\":1247:1324   */\n  0x4e487b7100000000000000000000000000000000000000000000000000000000\n    /* \"#utility.yul\":1244:1245   */\n  0x00\n    /* \"#utility.yul\":1237:1325   */\n  mstore\n    /* \"#utility.yul\":1344:1348   */\n  0x41\n    /* \"#utility.yul\":1341:1342   */\n  0x04\n    /* \"#utility.yul\":1334:1349   */\n  mstore\n    /* \"#utility.yul\":1368:1372   */\n  0x24\n    /* \"#utility.yul\":1365:1366   */\n  0x00\n    /* \"#utility.yul\":1358:1373   */\n  revert\n    /* \"#utility.yul\":1385:1666   */\ntag_28:\n    /* \"#utility.yul\":1468:1495   */\n  tag_73\n    /* \"#utility.yul\":1490:1494   */\n  dup3\n    /* \"#utility.yul\":1468:1495   */\n  tag_26\n  jump\t// in\ntag_73:\n    /* \"#utility.yul\":1460:1466   */\n  dup2\n    /* \"#utility.yul\":1456:1496   */\n  add\n    /* \"#utility.yul\":1598:1604   */\n  dup2\n    /* \"#utility.yul\":1586:1596   */\n  dup2\n    /* \"#utility.yul\":1583:1605   */\n  lt\n    /* \"#utility.yul\":1562:1580   */\n  0xffffffffffffffff\n    /* \"#utility.yul\":1550:1560   */\n  dup3\n    /* \"#utility.yul\":1547:1581   */\n  gt\n    /* \"#utility.yul\":1544:1606   */\n  or\n    /* \"#utility.yul\":1541:1629   */\n  iszero\n  tag_74\n  jumpi\n    /* \"#utility.yul\":1609:1627   */\n  tag_75\n  tag_27\n  jump\t// in\ntag_75:\n    /* \"#utility.yul\":1541:1629   */\ntag_74:\n    /* \"#utility.yul\":1649:1659   */\n  dup1\n    /* \"#utility.yul\":1645:1647   */\n  0x40\n    /* \"#utility.yul\":1638:1660   */\n  mstore\n    /* \"#utility.yul\":1428:1666   */\n  pop\n    /* \"#utility.yul\":1385:1666   */\n  pop\n  pop\n  jump\t// out\n    /* \"#utility.yul\":1672:1801   */\ntag_29:\n    /* \"#utility.yul\":1706:1712   */\n  0x00\n    /* \"#utility.yul\":1733:1753   */\n  tag_77\n  tag_17\n  jump\t// in\ntag_77:\n    /* \"#utility.yul\":1723:1753   */\n  swap1\n  pop\n    /* \"#utility.yul\":1762:1795   */\n  tag_78\n    /* \"#utility.yul\":1790:1794   */\n  dup3\n    /* \"#utility.yul\":1782:1788   */\n  dup3\n    /* \"#utility.yul\":1762:1795   */\n  tag_28\n  jump\t// in\ntag_78:\n    /* \"#utility.yul\":1672:1801   */\n  swap2\n  swap1\n  pop\n  jump\t// out\n    /* \"#utility.yul\":1807:2115   */\ntag_30:\n    /* \"#utility.yul\":1869:1873   */\n  0x00\n    /* \"#utility.yul\":1959:1977   */\n  0xffffffffffffffff\n    /* \"#utility.yul\":1951:1957   */\n  dup3\n    /* \"#utility.yul\":1948:1978   */\n  gt\n    /* \"#utility.yul\":1945:2001   */\n  iszero\n  tag_80\n  jumpi\n    /* \"#utility.yul\":1981:1999   */\n  tag_81\n  tag_27\n  jump\t// in\ntag_81:\n    /* \"#utility.yul\":1945:2001   */\ntag_80:\n    /* \"#utility.yul\":2019:2048   */\n  tag_82\n    /* \"#utility.yul\":2041:2047   */\n  dup3\n    /* \"#utility.yul\":2019:2048   */\n  tag_26\n  jump\t// in\ntag_82:\n    /* \"#utility.yul\":2011:2048   */\n  swap1\n  pop\n    /* \"#utility.yul\":2103:2107   */\n  0x20\n    /* \"#utility.yul\":2097:2101   */\n  dup2\n    /* \"#utility.yul\":2093:2108   */\n  add\n    /* \"#utility.yul\":2085:2108   */\n  swap1\n  pop\n    /* \"#utility.yul\":1807:2115   */\n  swap2\n  swap1\n  pop\n  jump\t// out\n    /* \"#utility.yul\":2121:2260   */\ntag_31:\n    /* \"#utility.yul\":2210:2216   */\n  dup3\n    /* \"#utility.yul\":2205:2208   */\n  dup2\n    /* \"#utility.yul\":2200:2203   */\n  dup4\n    /* \"#utility.yul\":2194:2217   */\n  mcopy\n    /* \"#utility.yul\":2251:2252   */\n  0x00\n    /* \"#utility.yul\":2242:2248   */\n  dup4\n    /* \"#utility.yul\":2237:2240   */\n  dup4\n    /* \"#utility.yul\":2233:2249   */\n  add\n    /* \"#utility.yul\":2226:2253   */\n  mstore\n    /* \"#utility.yul\":2121:2260   */\n  pop\n  pop\n  pop\n  jump\t// out\n    /* \"#utility.yul\":2266:2700   */\ntag_32:\n    /* \"#utility.yul\":2355:2360   */\n  0x00\n    /* \"#utility.yul\":2380:2446   */\n  tag_85\n    /* \"#utility.yul\":2396:2445   */\n  tag_86\n    /* \"#utility.yul\":2438:2444   */\n  dup5\n    /* \"#utility.yul\":2396:2445   */\n  tag_30\n  jump\t// in\ntag_86:\n    /* \"#utility.yul\":2380:2446   */\n  tag_29\n  jump\t// in\ntag_85:\n    /* \"#utility.yul\":2371:2446   */\n  swap1\n  pop\n    /* \"#utility.yul\":2469:2475   */\n  dup3\n    /* \"#utility.yul\":2462:2467   */\n  dup2\n    /* \"#utility.yul\":2455:2476   */\n  mstore\n    /* \"#utility.yul\":2507:2511   */\n  0x20\n    /* \"#utility.yul\":2500:2505   */\n  dup2\n    /* \"#utility.yul\":2496:2512   */\n  add\n    /* \"#utility.yul\":2545:2548   */\n  dup5\n    /* \"#utility.yul\":2536:2542   */\n  dup5\n    /* \"#utility.yul\":2531:2534   */\n  dup5\n    /* \"#utility.yul\":2527:2543   */\n  add\n    /* \"#utility.yul\":2524:2549   */\n  gt\n    /* \"#utility.yul\":2521:2633   */\n  iszero\n  tag_87\n  jumpi\n    /* \"#utility.yul\":2552:2631   */\n  tag_88\n  tag_25\n  jump\t// in\ntag_88:\n    /* \"#utility.yul\":2521:2633   */\ntag_87:\n    /* \"#utility.yul\":2642:2694   */\n  tag_89\n    /* \"#utility.yul\":2687:2693   */\n  dup5\n    /* \"#utility.yul\":2682:2685   */\n  dup3\n    /* \"#utility.yul\":2677:2680   */\n  dup6\n    /* \"#utility.yul\":2642:2694   */\n  tag_31\n  jump\t// in\ntag_89:\n    /* \"#utility.yul\":2361:2700   */\n  pop\n    /* \"#utility.yul\":2266:2700   */\n  swap4\n  swap3\n  pop\n  pop\n  pop\n  jump\t// out\n    /* \"#utility.yul\":2720:3075   */\ntag_33:\n    /* \"#utility.yul\":2787:2792   */\n  0x00\n    /* \"#utility.yul\":2836:2839   */\n  dup3\n    /* \"#utility.yul\":2829:2833   */\n  0x1f\n    /* \"#utility.yul\":2821:2827   */\n  dup4\n    /* \"#utility.yul\":2817:2834   */\n  add\n    /* \"#utility.yul\":2813:2840   */\n  slt\n    /* \"#utility.yul\":2803:2925   */\n  tag_91\n  jumpi\n    /* \"#utility.yul\":2844:2923   */\n  tag_92\n  tag_24\n  jump\t// in\ntag_92:\n    /* \"#utility.yul\":2803:2925   */\ntag_91:\n    /* \"#utility.yul\":2954:2960   */\n  dup2\n    /* \"#utility.yul\":2948:2961   */\n  mload\n    /* \"#utility.yul\":2979:3069   */\n  tag_93\n    /* \"#utility.yul\":3065:3068   */\n  dup5\n    /* \"#utility.yul\":3057:3063   */\n  dup3\n    /* \"#utility.yul\":3050:3054   */\n  0x20\n    /* \"#utility.yul\":3042:3048   */\n  dup7\n    /* \"#utility.yul\":3038:3055   */\n  add\n    /* \"#utility.yul\":2979:3069   */\n  tag_32\n  jump\t// in\ntag_93:\n    /* \"#utility.yul\":2970:3069   */\n  swap2\n  pop\n    /* \"#utility.yul\":2793:3075   */\n  pop\n    /* \"#utility.yul\":2720:3075   */\n  swap3\n  swap2\n  pop\n  pop\n  jump\t// out\n    /* \"#utility.yul\":3081:3158   */\ntag_34:\n    /* \"#utility.yul\":3118:3125   */\n  0x00\n    /* \"#utility.yul\":3147:3152   */\n  dup2\n    /* \"#utility.yul\":3136:3152   */\n  swap1\n  pop\n    /* \"#utility.yul\":3081:3158   */\n  swap2\n  swap1\n  pop\n  jump\t// out\n    /* \"#utility.yul\":3164:3286   */\ntag_35:\n    /* \"#utility.yul\":3237:3261   */\n  tag_96\n    /* \"#utility.yul\":3255:3260   */\n  dup2\n    /* \"#utility.yul\":3237:3261   */\n  tag_34\n  jump\t// in\ntag_96:\n    /* \"#utility.yul\":3230:3235   */\n  dup2\n    /* \"#utility.yul\":3227:3262   */\n  eq\n    /* \"#utility.yul\":3217:3280   */\n  tag_97\n  jumpi\n    /* \"#utility.yul\":3276:3277   */\n  0x00\n    /* \"#utility.yul\":3273:3274   */\n  0x00\n    /* \"#utility.yul\":3266:3278   */\n  revert\n    /* \"#utility.yul\":3217:3280   */\ntag_97:\n    /* \"#utility.yul\":3164:3286   */\n  pop\n  jump\t// out\n    /* \"#utility.yul\":3292:3435   */\ntag_36:\n    /* \"#utility.yul\":3349:3354   */\n  0x00\n    /* \"#utility.yul\":3380:3386   */\n  dup2\n    /* \"#utility.yul\":3374:3387   */\n  mload\n    /* \"#utility.yul\":3365:3387   */\n  swap1\n  pop\n    /* \"#utility.yul\":3396:3429   */\n  tag_99\n    /* \"#utility.yul\":3423:3428   */\n  dup2\n    /* \"#utility.yul\":3396:3429   */\n  tag_35\n  jump\t// in\ntag_99:\n    /* \"#utility.yul\":3292:3435   */\n  swap3\n  swap2\n  pop\n  pop\n  jump\t// out\n    /* \"#utility.yul\":3441:4434   */\ntag_3:\n    /* \"#utility.yul\":3548:3554   */\n  0x00\n    /* \"#utility.yul\":3556:3562   */\n  0x00\n    /* \"#utility.yul\":3564:3570   */\n  0x00\n    /* \"#utility.yul\":3572:3578   */\n  0x00\n    /* \"#utility.yul\":3621:3624   */\n  0x80\n    /* \"#utility.yul\":3609:3618   */\n  dup6\n    /* \"#utility.yul\":3600:3607   */\n  dup8\n    /* \"#utility.yul\":3596:3619   */\n  sub\n    /* \"#utility.yul\":3592:3625   */\n  slt\n    /* \"#utility.yul\":3589:3709   */\n  iszero\n  tag_101\n  jumpi\n    /* \"#utility.yul\":3628:3707   */\n  tag_102\n  tag_18\n  jump\t// in\ntag_102:\n    /* \"#utility.yul\":3589:3709   */\ntag_101:\n    /* \"#utility.yul\":3748:3749   */\n  0x00\n    /* \"#utility.yul\":3773:3837   */\n  tag_103\n    /* \"#utility.yul\":3829:3836   */\n  dup8\n    /* \"#utility.yul\":3820:3826   */\n  dup3\n    /* \"#utility.yul\":3809:3818   */\n  dup9\n    /* \"#utility.yul\":3805:3827   */\n  add\n    /* \"#utility.yul\":3773:3837   */\n  tag_23\n  jump\t// in\ntag_103:\n    /* \"#utility.yul\":3763:3837   */\n  swap5\n  pop\n    /* \"#utility.yul\":3719:3847   */\n  pop\n    /* \"#utility.yul\":3907:3909   */\n  0x20\n    /* \"#utility.yul\":3896:3905   */\n  dup6\n    /* \"#utility.yul\":3892:3910   */\n  add\n    /* \"#utility.yul\":3886:3911   */\n  mload\n    /* \"#utility.yul\":3938:3956   */\n  0xffffffffffffffff\n    /* \"#utility.yul\":3930:3936   */\n  dup2\n    /* \"#utility.yul\":3927:3957   */\n  gt\n    /* \"#utility.yul\":3924:4041   */\n  iszero\n  tag_104\n  jumpi\n    /* \"#utility.yul\":3960:4039   */\n  tag_105\n  tag_19\n  jump\t// in\ntag_105:\n    /* \"#utility.yul\":3924:4041   */\ntag_104:\n    /* \"#utility.yul\":4065:4139   */\n  tag_106\n    /* \"#utility.yul\":4131:4138   */\n  dup8\n    /* \"#utility.yul\":4122:4128   */\n  dup3\n    /* \"#utility.yul\":4111:4120   */\n  dup9\n    /* \"#utility.yul\":4107:4129   */\n  add\n    /* \"#utility.yul\":4065:4139   */\n  tag_33\n  jump\t// in\ntag_106:\n    /* \"#utility.yul\":4055:4139   */\n  swap4\n  pop\n    /* \"#utility.yul\":3857:4149   */\n  pop\n    /* \"#utility.yul\":4188:4190   */\n  0x40\n    /* \"#utility.yul\":4214:4278   */\n  tag_107\n    /* \"#utility.yul\":4270:4277   */\n  dup8\n    /* \"#utility.yul\":4261:4267   */\n  dup3\n    /* \"#utility.yul\":4250:4259   */\n  dup9\n    /* \"#utility.yul\":4246:4268   */\n  add\n    /* \"#utility.yul\":4214:4278   */\n  tag_36\n  jump\t// in\ntag_107:\n    /* \"#utility.yul\":4204:4278   */\n  swap3\n  pop\n    /* \"#utility.yul\":4159:4288   */\n  pop\n    /* \"#utility.yul\":4327:4329   */\n  0x60\n    /* \"#utility.yul\":4353:4417   */\n  tag_108\n    /* \"#utility.yul\":4409:4416   */\n  dup8\n    /* \"#utility.yul\":4400:4406   */\n  dup3\n    /* \"#utility.yul\":4389:4398   */\n  dup9\n    /* \"#utility.yul\":4385:4407   */\n  add\n    /* \"#utility.yul\":4353:4417   */\n  tag_23\n  jump\t// in\ntag_108:\n    /* \"#utility.yul\":4343:4417   */\n  swap2\n  pop\n    /* \"#utility.yul\":4298:4427   */\n  pop\n    /* \"#utility.yul\":3441:4434   */\n  swap3\n  swap6\n  swap2\n  swap5\n  pop\n  swap3\n  pop\n  jump\t// out\n    /* \"#utility.yul\":4440:4558   */\ntag_37:\n    /* \"#utility.yul\":4527:4551   */\n  tag_110\n    /* \"#utility.yul\":4545:4550   */\n  dup2\n    /* \"#utility.yul\":4527:4551   */\n  tag_21\n  jump\t// in\ntag_110:\n    /* \"#utility.yul\":4522:4525   */\n  dup3\n    /* \"#utility.yul\":4515:4552   */\n  mstore\n    /* \"#utility.yul\":4440:4558   */\n  pop\n  pop\n  jump\t// out\n    /* \"#utility.yul\":4564:4786   */\ntag_9:\n    /* \"#utility.yul\":4657:4661   */\n  0x00\n    /* \"#utility.yul\":4695:4697   */\n  0x20\n    /* \"#utility.yul\":4684:4693   */\n  dup3\n    /* \"#utility.yul\":4680:4698   */\n  add\n    /* \"#utility.yul\":4672:4698   */\n  swap1\n  pop\n    /* \"#utility.yul\":4708:4779   */\n  tag_112\n    /* \"#utility.yul\":4776:4777   */\n  0x00\n    /* \"#utility.yul\":4765:4774   */\n  dup4\n    /* \"#utility.yul\":4761:4778   */\n  add\n    /* \"#utility.yul\":4752:4758   */\n  dup5\n    /* \"#utility.yul\":4708:4779   */\n  tag_37\n  jump\t// in\ntag_112:\n    /* \"#utility.yul\":4564:4786   */\n  swap3\n  swap2\n  pop\n  pop\n  jump\t// out\n    /* \"#utility.yul\":4792:4891   */\ntag_38:\n    /* \"#utility.yul\":4844:4850   */\n  0x00\n    /* \"#utility.yul\":4878:4883   */\n  dup2\n    /* \"#utility.yul\":4872:4884   */\n  mload\n    /* \"#utility.yul\":4862:4884   */\n  swap1\n  pop\n    /* \"#utility.yul\":4792:4891   */\n  swap2\n  swap1\n  pop\n  jump\t// out\n    /* \"#utility.yul\":4897:5077   */\ntag_39:\n    /* \"#utility.yul\":4945:5022   */\n  0x4e487b7100000000000000000000000000000000000000000000000000000000\n    /* \"#utility.yul\":4942:4943   */\n  0x00\n    /* \"#utility.yul\":4935:5023   */\n  mstore\n    /* \"#utility.yul\":5042:5046   */\n  0x22\n    /* \"#utility.yul\":5039:5040   */\n  0x04\n    /* \"#utility.yul\":5032:5047   */\n  mstore\n    /* \"#utility.yul\":5066:5070   */\n  0x24\n    /* \"#utility.yul\":5063:5064   */\n  0x00\n    /* \"#utility.yul\":5056:5071   */\n  revert\n    /* \"#utility.yul\":5083:5403   */\ntag_40:\n    /* \"#utility.yul\":5127:5133   */\n  0x00\n    /* \"#utility.yul\":5164:5165   */\n  0x02\n    /* \"#utility.yul\":5158:5162   */\n  dup3\n    /* \"#utility.yul\":5154:5166   */\n  div\n    /* \"#utility.yul\":5144:5166   */\n  swap1\n  pop\n    /* \"#utility.yul\":5211:5212   */\n  0x01\n    /* \"#utility.yul\":5205:5209   */\n  dup3\n    /* \"#utility.yul\":5201:5213   */\n  and\n    /* \"#utility.yul\":5232:5250   */\n  dup1\n    /* \"#utility.yul\":5222:5303   */\n  tag_116\n  jumpi\n    /* \"#utility.yul\":5288:5292   */\n  0x7f\n    /* \"#utility.yul\":5280:5286   */\n  dup3\n    /* \"#utility.yul\":5276:5293   */\n  and\n    /* \"#utility.yul\":5266:5293   */\n  swap2\n  pop\n    /* \"#utility.yul\":5222:5303   */\ntag_116:\n    /* \"#utility.yul\":5350:5352   */\n  0x20\n    /* \"#utility.yul\":5342:5348   */\n  dup3\n    /* \"#utility.yul\":5339:5353   */\n  lt\n    /* \"#utility.yul\":5319:5337   */\n  dup2\n    /* \"#utility.yul\":5316:5354   */\n  sub\n    /* \"#utility.yul\":5313:5397   */\n  tag_117\n  jumpi\n    /* \"#utility.yul\":5369:5387   */\n  tag_118\n  tag_39\n  jump\t// in\ntag_118:\n    /* \"#utility.yul\":5313:5397   */\ntag_117:\n    /* \"#utility.yul\":5134:5403   */\n  pop\n    /* \"#utility.yul\":5083:5403   */\n  swap2\n  swap1\n  pop\n  jump\t// out\n    /* \"#utility.yul\":5409:5550   */\ntag_41:\n    /* \"#utility.yul\":5458:5462   */\n  0x00\n    /* \"#utility.yul\":5481:5484   */\n  dup2\n    /* \"#utility.yul\":5473:5484   */\n  swap1\n  pop\n    /* \"#utility.yul\":5504:5507   */\n  dup2\n    /* \"#utility.yul\":5501:5502   */\n  0x00\n    /* \"#utility.yul\":5494:5508   */\n  mstore\n    /* \"#utility.yul\":5538:5542   */\n  0x20\n    /* \"#utility.yul\":5535:5536   */\n  0x00\n    /* \"#utility.yul\":5525:5543   */\n  keccak256\n    /* \"#utility.yul\":5517:5543   */\n  swap1\n  pop\n    /* \"#utility.yul\":5409:5550   */\n  swap2\n  swap1\n  pop\n  jump\t// out\n    /* \"#utility.yul\":5556:5649   */\ntag_42:\n    /* \"#utility.yul\":5593:5599   */\n  0x00\n    /* \"#utility.yul\":5640:5642   */\n  0x20\n    /* \"#utility.yul\":5635:5637   */\n  0x1f\n    /* \"#utility.yul\":5628:5633   */\n  dup4\n    /* \"#utility.yul\":5624:5638   */\n  add\n    /* \"#utility.yul\":5620:5643   */\n  div\n    /* \"#utility.yul\":5610:5643   */\n  swap1\n  pop\n    /* \"#utility.yul\":5556:5649   */\n  swap2\n  swap1\n  pop\n  jump\t// out\n    /* \"#utility.yul\":5655:5762   */\ntag_43:\n    /* \"#utility.yul\":5699:5707   */\n  0x00\n    /* \"#utility.yul\":5749:5754   */\n  dup3\n    /* \"#utility.yul\":5743:5747   */\n  dup3\n    /* \"#utility.yul\":5739:5755   */\n  shl\n    /* \"#utility.yul\":5718:5755   */\n  swap1\n  pop\n    /* \"#utility.yul\":5655:5762   */\n  swap3\n  swap2\n  pop\n  pop\n  jump\t// out\n    /* \"#utility.yul\":5768:6161   */\ntag_44:\n    /* \"#utility.yul\":5837:5843   */\n  0x00\n    /* \"#utility.yul\":5887:5888   */\n  0x08\n    /* \"#utility.yul\":5875:5885   */\n  dup4\n    /* \"#utility.yul\":5871:5889   */\n  mul\n    /* \"#utility.yul\":5910:6007   */\n  tag_123\n    /* \"#utility.yul\":5940:6006   */\n  0xffffffffffffffffffffffffffffffffffffffffffffffffffffffffffffffff\n    /* \"#utility.yul\":5929:5938   */\n  dup3\n    /* \"#utility.yul\":5910:6007   */\n  tag_43\n  jump\t// in\ntag_123:\n    /* \"#utility.yul\":6028:6067   */\n  tag_124\n    /* \"#utility.yul\":6058:6066   */\n  dup7\n    /* \"#utility.yul\":6047:6056   */\n  dup4\n    /* \"#utility.yul\":6028:6067   */\n  tag_43\n  jump\t// in\ntag_124:\n    /* \"#utility.yul\":6016:6067   */\n  swap6\n  pop\n    /* \"#utility.yul\":6100:6104   */\n  dup1\n    /* \"#utility.yul\":6096:6105   */\n  not\n    /* \"#utility.yul\":6089:6094   */\n  dup5\n    /* \"#utility.yul\":6085:6106   */\n  and\n    /* \"#utility.yul\":6076:6106   */\n  swap4\n  pop\n    /* \"#utility.yul\":6149:6153   */\n  dup1\n    /* \"#utility.yul\":6139:6147   */\n  dup7\n    /* \"#utility.yul\":6135:6154   */\n  and\n    /* \"#utility.yul\":6128:6133   */\n  dup5\n    /* \"#utility.yul\":6125:6155   */\n  or\n    /* \"#utility.yul\":6115:6155   */\n  swap3\n  pop\n    /* \"#utility.yul\":5844:6161   */\n  pop\n  pop\n    /* \"#utility.yul\":5768:6161   */\n  swap4\n  swap3\n  pop\n  pop\n  pop\n  jump\t// out\n    /* \"#utility.yul\":6167:6227   */\ntag_45:\n    /* \"#utility.yul\":6195:6198   */\n  0x00\n    /* \"#utility.yul\":6216:6221   */\n  dup2\n    /* \"#utility.yul\":6209:6221   */\n  swap1\n  pop\n    /* \"#utility.yul\":6167:6227   */\n  swap2\n  swap1\n  pop\n  jump\t// out\n    /* \"#utility.yul\":6233:6375   */\ntag_46:\n    /* \"#utility.yul\":6283:6292   */\n  0x00\n    /* \"#utility.yul\":6316:6369   */\n  tag_127\n    /* \"#utility.yul\":6334:6368   */\n  tag_128\n    /* \"#utility.yul\":6343:6367   */\n  tag_129\n    /* \"#utility.yul\":6361:6366   */\n  dup5\n    /* \"#utility.yul\":6343:6367   */\n  tag_34\n  jump\t// in\ntag_129:\n    /* \"#utility.yul\":6334:6368   */\n  tag_45\n  jump\t// in\ntag_128:\n    /* \"#utility.yul\":6316:6369   */\n  tag_34\n  jump\t// in\ntag_127:\n    /* \"#utility.yul\":6303:6369   */\n  swap1\n  pop\n    /* \"#utility.yul\":6233:6375   */\n  swap2\n  swap1\n  pop\n  jump\t// out\n    /* \"#utility.yul\":6381:6456   */\ntag_47:\n    /* \"#utility.yul\":6424:6427   */\n  0x00\n    /* \"#utility.yul\":6445:6450   */\n  dup2\n    /* \"#utility.yul\":6438:6450   */\n  swap1\n  pop\n    /* \"#utility.yul\":6381:6456   */\n  swap2\n  swap1\n  pop\n  jump\t// out\n    /* \"#utility.yul\":6462:6731   */\ntag_48:\n    /* \"#utility.yul\":6572:6611   */\n  tag_132\n    /* \"#utility.yul\":6603:6610   */\n  dup4\n    /* \"#utility.yul\":6572:6611   */\n  tag_46\n  jump\t// in\ntag_132:\n    /* \"#utility.yul\":6633:6724   */\n  tag_133\n    /* \"#utility.yul\":6682:6723   */\n  tag_134\n    /* \"#utility.yul\":6706:6722   */\n  dup3\n    /* \"#utility.yul\":6682:6723   */\n  tag_47\n  jump\t// in\ntag_134:\n    /* \"#utility.yul\":6674:6680   */\n  dup5\n    /* \"#utility.yul\":6667:6671   */\n  dup5\n    /* \"#utility.yul\":6661:6672   */\n  sload\n    /* \"#utility.yul\":6633:6724   */\n  tag_44\n  jump\t// in\ntag_133:\n    /* \"#utility.yul\":6627:6631   */\n  dup3\n    /* \"#utility.yul\":6620:6725   */\n  sstore\n    /* \"#utility.yul\":6538:6731   */\n  pop\n    /* \"#utility.yul\":6462:6731   */\n  pop\n  pop\n  pop\n  jump\t// out\n    /* \"#utility.yul\":6737:6810   */\ntag_49:\n    /* \"#utility.yul\":6782:6785   */\n  0x00\n    /* \"#utility.yul\":6803:6804   */\n  0x00\n    /* \"#utility.yul\":6796:6804   */\n  swap1\n  pop\n    /* \"#utility.yul\":6737:6810   */\n  swap1\n  jump\t// out\n    /* \"#utility.yul\":6816:7005   */\ntag_50:\n    /* \"#utility.yul\":6893:6925   */\n  tag_137\n  tag_49\n  jump\t// in\ntag_137:\n    /* \"#utility.yul\":6934:6999   */\n  tag_138\n    /* \"#utility.yul\":6992:6998   */\n  dup2\n    /* \"#utility.yul\":6984:6990   */\n  dup5\n    /* \"#utility.yul\":6978:6982   */\n  dup5\n    /* \"#utility.yul\":6934:6999   */\n  tag_48\n  jump\t// in\ntag_138:\n    /* \"#utility.yul\":6869:7005   */\n  pop\n    /* \"#utility.yul\":6816:7005   */\n  pop\n  pop\n  jump\t// out\n    /* \"#utility.yul\":7011:7197   */\ntag_51:\n    /* \"#utility.yul\":7071:7191   */\ntag_140:\n    /* \"#utility.yul\":7088:7091   */\n  dup2\n    /* \"#utility.yul\":7081:7086   */\n  dup2\n    /* \"#utility.yul\":7078:7092   */\n  lt\n    /* \"#utility.yul\":7071:7191   */\n  iszero\n  tag_142\n  jumpi\n    /* \"#utility.yul\":7142:7181   */\n  tag_143\n    /* \"#utility.yul\":7179:7180   */\n  0x00\n    /* \"#utility.yul\":7172:7177   */\n  dup3\n    /* \"#utility.yul\":7142:7181   */\n  tag_50\n  jump\t// in\ntag_143:\n    /* \"#utility.yul\":7115:7116   */\n  0x01\n    /* \"#utility.yul\":7108:7113   */\n  dup2\n    /* \"#utility.yul\":7104:7117   */\n  add\n    /* \"#utility.yul\":7095:7117   */\n  swap1\n  pop\n    /* \"#utility.yul\":7071:7191   */\n  jump(tag_140)\ntag_142:\n    /* \"#utility.yul\":7011:7197   */\n  pop\n  pop\n  jump\t// out\n    /* \"#utility.yul\":7203:7746   */\ntag_52:\n    /* \"#utility.yul\":7304:7306   */\n  0x1f\n    /* \"#utility.yul\":7299:7302   */\n  dup3\n    /* \"#utility.yul\":7296:7307   */\n  gt\n    /* \"#utility.yul\":7293:7739   */\n  iszero\n  tag_145\n  jumpi\n    /* \"#utility.yul\":7338:7376   */\n  tag_146\n    /* \"#utility.yul\":7370:7375   */\n  dup2\n    /* \"#utility.yul\":7338:7376   */\n  tag_41\n  jump\t// in\ntag_146:\n    /* \"#utility.yul\":7422:7451   */\n  tag_147\n    /* \"#utility.yul\":7440:7450   */\n  dup5\n    /* \"#utility.yul\":7422:7451   */\n  tag_42\n  jump\t// in\ntag_147:\n    /* \"#utility.yul\":7412:7420   */\n  dup2\n    /* \"#utility.yul\":7408:7452   */\n  add\n    /* \"#utility.yul\":7605:7607   */\n  0x20\n    /* \"#utility.yul\":7593:7603   */\n  dup6\n    /* \"#utility.yul\":7590:7608   */\n  lt\n    /* \"#utility.yul\":7587:7636   */\n  iszero\n  tag_148\n  jumpi\n    /* \"#utility.yul\":7626:7634   */\n  dup2\n    /* \"#utility.yul\":7611:7634   */\n  swap1\n  pop\n    /* \"#utility.yul\":7587:7636   */\ntag_148:\n    /* \"#utility.yul\":7649:7729   */\n  tag_149\n    /* \"#utility.yul\":7705:7727   */\n  tag_150\n    /* \"#utility.yul\":7723:7726   */\n  dup6\n    /* \"#utility.yul\":7705:7727   */\n  tag_42\n  jump\t// in\ntag_150:\n    /* \"#utility.yul\":7695:7703   */\n  dup4\n    /* \"#utility.yul\":7691:7728   */\n  add\n    /* \"#utility.yul\":7678:7689   */\n  dup3\n    /* \"#utility.yul\":7649:7729   */\n  tag_51\n  jump\t// in\ntag_149:\n    /* \"#utility.yul\":7308:7739   */\n  pop\n  pop\n    /* \"#utility.yul\":7293:7739   */\ntag_145:\n    /* \"#utility.yul\":7203:7746   */\n  pop\n  pop\n  pop\n  jump\t// out\n    /* \"#utility.yul\":7752:7869   */\ntag_53:\n    /* \"#utility.yul\":7806:7814   */\n  0x00\n    /* \"#utility.yul\":7856:7861   */\n  dup3\n    /* \"#utility.yul\":7850:7854   */\n  dup3\n    /* \"#utility.yul\":7846:7862   */\n  shr\n    /* \"#utility.yul\":7825:7862   */\n  swap1\n  pop\n    /* \"#utility.yul\":7752:7869   */\n  swap3\n  swap2\n  pop\n  pop\n  jump\t// out\n    /* \"#utility.yul\":7875:8044   */\ntag_54:\n    /* \"#utility.yul\":7919:7925   */\n  0x00\n    /* \"#utility.yul\":7952:8003   */\n  tag_153\n    /* \"#utility.yul\":8000:8001   */\n  0x00\n    /* \"#utility.yul\":7996:8002   */\n  not\n    /* \"#utility.yul\":7988:7993   */\n  dup5\n    /* \"#utility.yul\":7985:7986   */\n  0x08\n    /* \"#utility.yul\":7981:7994   */\n  mul\n    /* \"#utility.yul\":7952:8003   */\n  tag_53\n  jump\t// in\ntag_153:\n    /* \"#utility.yul\":7948:8004   */\n  not\n    /* \"#utility.yul\":8033:8037   */\n  dup1\n    /* \"#utility.yul\":8027:8031   */\n  dup4\n    /* \"#utility.yul\":8023:8038   */\n  and\n    /* \"#utility.yul\":8013:8038   */\n  swap2\n  pop\n    /* \"#utility.yul\":7926:8044   */\n  pop\n    /* \"#utility.yul\":7875:8044   */\n  swap3\n  swap2\n  pop\n  pop\n  jump\t// out\n    /* \"#utility.yul\":8049:8344   */\ntag_55:\n    /* \"#utility.yul\":8125:8129   */\n  0x00\n    /* \"#utility.yul\":8271:8300   */\n  tag_155\n    /* \"#utility.yul\":8296:8299   */\n  dup4\n    /* \"#utility.yul\":8290:8294   */\n  dup4\n    /* \"#utility.yul\":8271:8300   */\n  tag_54\n  jump\t// in\ntag_155:\n    /* \"#utility.yul\":8263:8300   */\n  swap2\n  pop\n    /* \"#utility.yul\":8333:8336   */\n  dup3\n    /* \"#utility.yul\":8330:8331   */\n  0x02\n    /* \"#utility.yul\":8326:8337   */\n  mul\n    /* \"#utility.yul\":8320:8324   */\n  dup3\n    /* \"#utility.yul\":8317:8338   */\n  or\n    /* \"#utility.yul\":8309:8338   */\n  swap1\n  pop\n    /* \"#utility.yul\":8049:8344   */\n  swap3\n  swap2\n  pop\n  pop\n  jump\t// out\n    /* \"#utility.yul\":8349:9744   */\ntag_14:\n    /* \"#utility.yul\":8466:8503   */\n  tag_157\n    /* \"#utility.yul\":8499:8502   */\n  dup3\n    /* \"#utility.yul\":8466:8503   */\n  tag_38\n  jump\t// in\ntag_157:\n    /* \"#utility.yul\":8568:8586   */\n  0xffffffffffffffff\n    /* \"#utility.yul\":8560:8566   */\n  dup2\n    /* \"#utility.yul\":8557:8587   */\n  gt\n    /* \"#utility.yul\":8554:8610   */\n  iszero\n  tag_158\n  jumpi\n    /* \"#utility.yul\":8590:8608   */\n  tag_159\n  tag_27\n  jump\t// in\ntag_159:\n    /* \"#utility.yul\":8554:8610   */\ntag_158:\n    /* \"#utility.yul\":8634:8672   */\n  tag_160\n    /* \"#utility.yul\":8666:8670   */\n  dup3\n    /* \"#utility.yul\":8660:8671   */\n  sload\n    /* \"#utility.yul\":8634:8672   */\n  tag_40\n  jump\t// in\ntag_160:\n    /* \"#utility.yul\":8719:8786   */\n  tag_161\n    /* \"#utility.yul\":8779:8785   */\n  dup3\n    /* \"#utility.yul\":8771:8777   */\n  dup3\n    /* \"#utility.yul\":8765:8769   */\n  dup6\n    /* \"#utility.yul\":8719:8786   */\n  tag_52\n  jump\t// in\ntag_161:\n    /* \"#utility.yul\":8813:8814   */\n  0x00\n    /* \"#utility.yul\":8837:8841   */\n  0x20\n    /* \"#utility.yul\":8824:8841   */\n  swap1\n  pop\n    /* \"#utility.yul\":8869:8871   */\n  0x1f\n    /* \"#utility.yul\":8861:8867   */\n  dup4\n    /* \"#utility.yul\":8858:8872   */\n  gt\n    /* \"#utility.yul\":8886:8887   */\n  0x01\n    /* \"#utility.yul\":8881:9499   */\n  dup2\n  eq\n  tag_163\n  jumpi\n    /* \"#utility.yul\":9543:9544   */\n  0x00\n    /* \"#utility.yul\":9560:9566   */\n  dup5\n    /* \"#utility.yul\":9557:9634   */\n  iszero\n  tag_164\n  jumpi\n    /* \"#utility.yul\":9609:9618   */\n  dup3\n    /* \"#utility.yul\":9604:9607   */\n  dup8\n    /* \"#utility.yul\":9600:9619   */\n  add\n    /* \"#utility.yul\":9594:9620   */\n  mload\n    /* \"#utility.yul\":9585:9620   */\n  swap1\n  pop\n    /* \"#utility.yul\":9557:9634   */\ntag_164:\n    /* \"#utility.yul\":9660:9727   */\n  tag_165\n    /* \"#utility.yul\":9720:9726   */\n  dup6\n    /* \"#utility.yul\":9713:9718   */\n  dup3\n    /* \"#utility.yul\":9660:9727   */\n  tag_55\n  jump\t// in\ntag_165:\n    /* \"#utility.yul\":9654:9658   */\n  dup7\n    /* \"#utility.yul\":9647:9728   */\n  sstore\n    /* \"#utility.yul\":9516:9738   */\n  pop\n    /* \"#utility.yul\":8851:9738   */\n  jump(tag_162)\n    /* \"#utility.yul\":8881:9499   */\ntag_163:\n    /* \"#utility.yul\":8933:8937   */\n  0x1f\n    /* \"#utility.yul\":8929:8938   */\n  not\n    /* \"#utility.yul\":8921:8927   */\n  dup5\n    /* \"#utility.yul\":8917:8939   */\n  and\n    /* \"#utility.yul\":8967:9004   */\n  tag_166\n    /* \"#utility.yul\":8999:9003   */\n  dup7\n    /* \"#utility.yul\":8967:9004   */\n  tag_41\n  jump\t// in\ntag_166:\n    /* \"#utility.yul\":9026:9027   */\n  0x00\n    /* \"#utility.yul\":9040:9248   */\ntag_167:\n    /* \"#utility.yul\":9054:9061   */\n  dup3\n    /* \"#utility.yul\":9051:9052   */\n  dup2\n    /* \"#utility.yul\":9048:9062   */\n  lt\n    /* \"#utility.yul\":9040:9248   */\n  iszero\n  tag_169\n  jumpi\n    /* \"#utility.yul\":9133:9142   */\n  dup5\n    /* \"#utility.yul\":9128:9131   */\n  dup10\n    /* \"#utility.yul\":9124:9143   */\n  add\n    /* \"#utility.yul\":9118:9144   */\n  mload\n    /* \"#utility.yul\":9110:9116   */\n  dup3\n    /* \"#utility.yul\":9103:9145   */\n  sstore\n    /* \"#utility.yul\":9184:9185   */\n  0x01\n    /* \"#utility.yul\":9176:9182   */\n  dup3\n    /* \"#utility.yul\":9172:9186   */\n  add\n    /* \"#utility.yul\":9162:9186   */\n  swap2\n  pop\n    /* \"#utility.yul\":9231:9233   */\n  0x20\n    /* \"#utility.yul\":9220:9229   */\n  dup6\n    /* \"#utility.yul\":9216:9234   */\n  add\n    /* \"#utility.yul\":9203:9234   */\n  swap5\n  pop\n    /* \"#utility.yul\":9077:9081   */\n  0x20\n    /* \"#utility.yul\":9074:9075   */\n  dup2\n    /* \"#utility.yul\":9070:9082   */\n  add\n    /* \"#utility.yul\":9065:9082   */\n  swap1\n  pop\n    /* \"#utility.yul\":9040:9248   */\n  jump(tag_167)\ntag_169:\n    /* \"#utility.yul\":9276:9282   */\n  dup7\n    /* \"#utility.yul\":9267:9274   */\n  dup4\n    /* \"#utility.yul\":9264:9283   */\n  lt\n    /* \"#utility.yul\":9261:9440   */\n  iszero\n  tag_170\n  jumpi\n    /* \"#utility.yul\":9334:9343   */\n  dup5\n    /* \"#utility.yul\":9329:9332   */\n  dup10\n    /* \"#utility.yul\":9325:9344   */\n  add\n    /* \"#utility.yul\":9319:9345   */\n  mload\n    /* \"#utility.yul\":9377:9425   */\n  tag_171\n    /* \"#utility.yul\":9419:9423   */\n  0x1f\n    /* \"#utility.yul\":9411:9417   */\n  dup10\n    /* \"#utility.yul\":9407:9424   */\n  and\n    /* \"#utility.yul\":9396:9405   */\n  dup3\n    /* \"#utility.yul\":9377:9425   */\n  tag_54\n  jump\t// in\ntag_171:\n    /* \"#utility.yul\":9369:9375   */\n  dup4\n    /* \"#utility.yul\":9362:9426   */\n  sstore\n    /* \"#utility.yul\":9284:9440   */\n  pop\n    /* \"#utility.yul\":9261:9440   */\ntag_170:\n    /* \"#utility.yul\":9486:9487   */\n  0x01\n    /* \"#utility.yul\":9482:9483   */\n  0x02\n    /* \"#utility.yul\":9474:9480   */\n  dup9\n    /* \"#utility.yul\":9470:9484   */\n  mul\n    /* \"#utility.yul\":9466:9488   */\n  add\n    /* \"#utility.yul\":9460:9464   */\n  dup9\n    /* \"#utility.yul\":9453:9489   */\n  sstore\n    /* \"#utility.yul\":8888:9499   */\n  pop\n  pop\n  pop\n    /* \"#utility.yul\":8851:9738   */\ntag_162:\n  pop\n    /* \"#utility.yul\":8441:9744   */\n  pop\n  pop\n  pop\n    /* \"#utility.yul\":8349:9744   */\n  pop\n  pop\n  jump\t// out\n    /* \"contracts/utils/Proposal.sol\":113:658  contract Proposal is Ownable {... */\ntag_15:\n  mload(0x80)\n  mload(0xa0)\n  codecopy(0x00, dataOffset(sub_0), dataSize(sub_0))\n  0x00\n  assignImmutable(\"0xb7700257a9e4b89511ea592d7ef488a6959d733cec4df010484e5af3e427a407\")\n  0x00\n  assignImmutable(\"0x6784108628bb46ca38406981c15d3f445c08955c04dc23f14d7a923bbb24a527\")\n  return(0x00, dataSize(sub_0))\nstop\n\nsub_0: assembly {\n        /* \"contracts/utils/Proposal.sol\":113:658  contract Proposal is Ownable {... */\n      mstore(0x40, 0x80)\n      callvalue\n      dup1\n      iszero\n      tag_1\n      jumpi\n      revert(0x00, 0x00)\n    tag_1:\n      pop\n      jumpi(tag_2, lt(calldatasize, 0x04))\n      shr(0xe0, calldataload(0x00))\n      dup1\n      0x715018a6\n      gt\n      tag_11\n      jumpi\n      dup1\n      0x715018a6\n      eq\n      tag_7\n      jumpi\n      dup1\n      0x8da5cb5b\n      eq\n      tag_8\n      jumpi\n      dup1\n      0x8dc45d9a\n      eq\n      tag_9\n      jumpi\n      dup1\n      0xf2fde38b\n      eq\n      tag_10\n      jumpi\n      jump(tag_2)\n    tag_11:\n      dup1\n      0x2852b71c\n      eq\n      tag_3\n      jumpi\n      dup1\n      0x5051a5ec\n      eq\n      tag_4\n      jumpi\n      dup1\n      0x565974d3\n      eq\n      tag_5\n      jumpi\n      dup1\n      0x5b9c161a\n      eq\n      tag_6\n      jumpi\n    tag_2:\n      revert(0x00, 0x00)\n        /* \"contracts/utils/Proposal.sol\":527:655  function accept() external onlyOwner { require(!isAccepted, \"Proposal: Already accepted\"); isAccepted = true; emit Accepted(); } */\n    tag_3:\n      tag_12\n      tag_13\n      jump\t// in\n    tag_12:\n      stop\n        /* \"contracts/utils/Proposal.sol\":247:269  bool public isAccepted */\n    tag_4:\n      tag_14\n      tag_15\n      jump\t// in\n    tag_14:\n      mload(0x40)\n      tag_16\n      swap2\n      swap1\n      tag_17\n      jump\t// in\n    tag_16:\n      mload(0x40)\n      dup1\n      swap2\n      sub\n      swap1\n      return\n        /* \"contracts/utils/Proposal.sol\":224:245  string public details */\n    tag_5:\n      tag_18\n      tag_19\n      jump\t// in\n    tag_18:\n      mload(0x40)\n      tag_20\n      swap2\n      swap1\n      tag_21\n      jump\t// in\n    tag_20:\n      mload(0x40)\n      dup1\n      swap2\n      sub\n      swap1\n      return\n        /* \"contracts/utils/Proposal.sol\":185:222  uint256 public immutable proposedCost */\n    tag_6:\n      tag_22\n      tag_23\n      jump\t// in\n    tag_22:\n      mload(0x40)\n      tag_24\n      swap2\n      swap1\n      tag_25\n      jump\t// in\n    tag_24:\n      mload(0x40)\n      dup1\n      swap2\n      sub\n      swap1\n      return\n        /* \"@openzeppelin/contracts/access/Ownable.sol\":2293:2394  function renounceOwnership() public virtual onlyOwner {... */\n    tag_7:\n      tag_26\n      tag_27\n      jump\t// in\n    tag_26:\n      stop\n        /* \"@openzeppelin/contracts/access/Ownable.sol\":1638:1723  function owner() public view virtual returns (address) {... */\n    tag_8:\n      tag_28\n      tag_29\n      jump\t// in\n    tag_28:\n      mload(0x40)\n      tag_30\n      swap2\n      swap1\n      tag_31\n      jump\t// in\n    tag_30:\n      mload(0x40)\n      dup1\n      swap2\n      sub\n      swap1\n      return\n        /* \"contracts/utils/Proposal.sol\":149:183  address public immutable submitter */\n    tag_9:\n      tag_32\n      tag_33\n      jump\t// in\n    tag_32:\n      mload(0x40)\n      tag_34\n      swap2\n      swap1\n      tag_31\n      jump\t// in\n    tag_34:\n      mload(0x40)\n      dup1\n      swap2\n      sub\n      swap1\n      return\n        /* \"@openzeppelin/contracts/access/Ownable.sol\":2543:2758  function transferOwnership(address newOwner) public virtual onlyOwner {... */\n    tag_10:\n      tag_35\n      0x04\n      dup1\n      calldatasize\n      sub\n      dup2\n      add\n      swap1\n      tag_36\n      swap2\n      swap1\n      tag_37\n      jump\t// in\n    tag_36:\n      tag_38\n      jump\t// in\n    tag_35:\n      stop\n        /* \"contracts/utils/Proposal.sol\":527:655  function accept() external onlyOwner { require(!isAccepted, \"Proposal: Already accepted\"); isAccepted = true; emit Accepted(); } */\n    tag_13:\n        /* \"@openzeppelin/contracts/access/Ownable.sol\":1531:1544  _checkOwner() */\n      tag_40\n        /* \"@openzeppelin/contracts/access/Ownable.sol\":1531:1542  _checkOwner */\n      tag_41\n        /* \"@openzeppelin/contracts/access/Ownable.sol\":1531:1544  _checkOwner() */\n      jump\t// in\n    tag_40:\n        /* \"contracts/utils/Proposal.sol\":575:585  isAccepted */\n      0x02\n      0x00\n      swap1\n      sload\n      swap1\n      0x0100\n      exp\n      swap1\n      div\n      0xff\n      and\n        /* \"contracts/utils/Proposal.sol\":574:585  !isAccepted */\n      iszero\n        /* \"contracts/utils/Proposal.sol\":566:616  require(!isAccepted, \"Proposal: Already accepted\") */\n      tag_43\n      jumpi\n      mload(0x40)\n      0x08c379a000000000000000000000000000000000000000000000000000000000\n      dup2\n      mstore\n      0x04\n      add\n      tag_44\n      swap1\n      tag_45\n      jump\t// in\n    tag_44:\n      mload(0x40)\n      dup1\n      swap2\n      sub\n      swap1\n      revert\n    tag_43:\n        /* \"contracts/utils/Proposal.sol\":631:635  true */\n      0x01\n        /* \"contracts/utils/Proposal.sol\":618:628  isAccepted */\n      0x02\n      0x00\n        /* \"contracts/utils/Proposal.sol\":618:635  isAccepted = true */\n      0x0100\n      exp\n      dup2\n      sload\n      dup2\n      0xff\n      mul\n      not\n      and\n      swap1\n      dup4\n      iszero\n      iszero\n      mul\n      or\n      swap1\n      sstore\n      pop\n        /* \"contracts/utils/Proposal.sol\":642:652  Accepted() */\n      0x33cf58f9d253f0e978ab033531f83d087d5dd176c31e6419a76fbd9a72c8bb84\n      mload(0x40)\n      mload(0x40)\n      dup1\n      swap2\n      sub\n      swap1\n      log1\n        /* \"contracts/utils/Proposal.sol\":527:655  function accept() external onlyOwner { require(!isAccepted, \"Proposal: Already accepted\"); isAccepted = true; emit Accepted(); } */\n      jump\t// out\n        /* \"contracts/utils/Proposal.sol\":247:269  bool public isAccepted */\n    tag_15:\n      0x02\n      0x00\n      swap1\n      sload\n      swap1\n      0x0100\n      exp\n      swap1\n      div\n      0xff\n      and\n      dup2\n      jump\t// out\n        /* \"contracts/utils/Proposal.sol\":224:245  string public details */\n    tag_19:\n      0x01\n      dup1\n      sload\n      tag_46\n      swap1\n      tag_47\n      jump\t// in\n    tag_46:\n      dup1\n      0x1f\n      add\n      0x20\n      dup1\n      swap2\n      div\n      mul\n      0x20\n      add\n      mload(0x40)\n      swap1\n      dup2\n      add\n      0x40\n      mstore\n      dup1\n      swap3\n      swap2\n      swap1\n      dup2\n      dup2\n      mstore\n      0x20\n      add\n      dup3\n      dup1\n      sload\n      tag_48\n      swap1\n      tag_47\n      jump\t// in\n    tag_48:\n      dup1\n      iszero\n      tag_49\n      jumpi\n      dup1\n      0x1f\n      lt\n      tag_50\n      jumpi\n      0x0100\n      dup1\n      dup4\n      sload\n      div\n      mul\n      dup4\n      mstore\n      swap2\n      0x20\n      add\n      swap2\n      jump(tag_49)\n    tag_50:\n      dup3\n      add\n      swap2\n      swap1\n      0x00\n      mstore\n      keccak256(0x00, 0x20)\n      swap1\n    tag_51:\n      dup2\n      sload\n      dup2\n      mstore\n      swap1\n      0x01\n      add\n      swap1\n      0x20\n      add\n      dup1\n      dup4\n      gt\n      tag_51\n      jumpi\n      dup3\n      swap1\n      sub\n      0x1f\n      and\n      dup3\n      add\n      swap2\n    tag_49:\n      pop\n      pop\n      pop\n      pop\n      pop\n      dup2\n      jump\t// out\n        /* \"contracts/utils/Proposal.sol\":185:222  uint256 public immutable proposedCost */\n    tag_23:\n      immutable(\"0xb7700257a9e4b89511ea592d7ef488a6959d733cec4df010484e5af3e427a407\")\n      dup2\n      jump\t// out\n        /* \"@openzeppelin/contracts/access/Ownable.sol\":2293:2394  function renounceOwnership() public virtual onlyOwner {... */\n    tag_27:\n        /* \"@openzeppelin/contracts/access/Ownable.sol\":1531:1544  _checkOwner() */\n      tag_53\n        /* \"@openzeppelin/contracts/access/Ownable.sol\":1531:1542  _checkOwner */\n      tag_41\n        /* \"@openzeppelin/contracts/access/Ownable.sol\":1531:1544  _checkOwner() */\n      jump\t// in\n    tag_53:\n        /* \"@openzeppelin/contracts/access/Ownable.sol\":2357:2387  _transferOwnership(address(0)) */\n      tag_55\n        /* \"@openzeppelin/contracts/access/Ownable.sol\":2384:2385  0 */\n      0x00\n        /* \"@openzeppelin/contracts/access/Ownable.sol\":2357:2375  _transferOwnership */\n      tag_56\n        /* \"@openzeppelin/contracts/access/Ownable.sol\":2357:2387  _transferOwnership(address(0)) */\n      jump\t// in\n    tag_55:\n        /* \"@openzeppelin/contracts/access/Ownable.sol\":2293:2394  function renounceOwnership() public virtual onlyOwner {... */\n      jump\t// out\n        /* \"@openzeppelin/contracts/access/Ownable.sol\":1638:1723  function owner() public view virtual returns (address) {... */\n    tag_29:\n        /* \"@openzeppelin/contracts/access/Ownable.sol\":1684:1691  address */\n      0x00\n        /* \"@openzeppelin/contracts/access/Ownable.sol\":1710:1716  _owner */\n      0x00\n      0x00\n      swap1\n      sload\n      swap1\n      0x0100\n      exp\n      swap1\n      div\n      0xffffffffffffffffffffffffffffffffffffffff\n      and\n        /* \"@openzeppelin/contracts/access/Ownable.sol\":1703:1716  return _owner */\n      swap1\n      pop\n        /* \"@openzeppelin/contracts/access/Ownable.sol\":1638:1723  function owner() public view virtual returns (address) {... */\n      swap1\n      jump\t// out\n        /* \"contracts/utils/Proposal.sol\":149:183  address public immutable submitter */\n    tag_33:\n      immutable(\"0x6784108628bb46ca38406981c15d3f445c08955c04dc23f14d7a923bbb24a527\")\n      dup2\n      jump\t// out\n        /* \"@openzeppelin/contracts/access/Ownable.sol\":2543:2758  function transferOwnership(address newOwner) public virtual onlyOwner {... */\n    tag_38:\n        /* \"@openzeppelin/contracts/access/Ownable.sol\":1531:1544  _checkOwner() */\n      tag_59\n        /* \"@openzeppelin/contracts/access/Ownable.sol\":1531:1542  _checkOwner */\n      tag_41\n        /* \"@openzeppelin/contracts/access/Ownable.sol\":1531:1544  _checkOwner() */\n      jump\t// in\n    tag_59:\n        /* \"@openzeppelin/contracts/access/Ownable.sol\":2647:2648  0 */\n      0x00\n        /* \"@openzeppelin/contracts/access/Ownable.sol\":2627:2649  newOwner == address(0) */\n      0xffffffffffffffffffffffffffffffffffffffff\n      and\n        /* \"@openzeppelin/contracts/access/Ownable.sol\":2627:2635  newOwner */\n      dup2\n        /* \"@openzeppelin/contracts/access/Ownable.sol\":2627:2649  newOwner == address(0) */\n      0xffffffffffffffffffffffffffffffffffffffff\n      and\n      sub\n        /* \"@openzeppelin/contracts/access/Ownable.sol\":2623:2714  if (newOwner == address(0)) {... */\n      tag_61\n      jumpi\n        /* \"@openzeppelin/contracts/access/Ownable.sol\":2700:2701  0 */\n      0x00\n        /* \"@openzeppelin/contracts/access/Ownable.sol\":2672:2703  OwnableInvalidOwner(address(0)) */\n      mload(0x40)\n      0x1e4fbdf700000000000000000000000000000000000000000000000000000000\n      dup2\n      mstore\n      0x04\n      add\n      tag_62\n      swap2\n      swap1\n      tag_31\n      jump\t// in\n    tag_62:\n      mload(0x40)\n      dup1\n      swap2\n      sub\n      swap1\n      revert\n        /* \"@openzeppelin/contracts/access/Ownable.sol\":2623:2714  if (newOwner == address(0)) {... */\n    tag_61:\n        /* \"@openzeppelin/contracts/access/Ownable.sol\":2723:2751  _transferOwnership(newOwner) */\n      tag_63\n        /* \"@openzeppelin/contracts/access/Ownable.sol\":2742:2750  newOwner */\n      dup2\n        /* \"@openzeppelin/contracts/access/Ownable.sol\":2723:2741  _transferOwnership */\n      tag_56\n        /* \"@openzeppelin/contracts/access/Ownable.sol\":2723:2751  _transferOwnership(newOwner) */\n      jump\t// in\n    tag_63:\n        /* \"@openzeppelin/contracts/access/Ownable.sol\":2543:2758  function transferOwnership(address newOwner) public virtual onlyOwner {... */\n      pop\n      jump\t// out\n        /* \"@openzeppelin/contracts/access/Ownable.sol\":1796:1958  function _checkOwner() internal view virtual {... */\n    tag_41:\n        /* \"@openzeppelin/contracts/access/Ownable.sol\":1866:1878  _msgSender() */\n      tag_65\n        /* \"@openzeppelin/contracts/access/Ownable.sol\":1866:1876  _msgSender */\n      tag_66\n        /* \"@openzeppelin/contracts/access/Ownable.sol\":1866:1878  _msgSender() */\n      jump\t// in\n    tag_65:\n        /* \"@openzeppelin/contracts/access/Ownable.sol\":1855:1878  owner() != _msgSender() */\n      0xffffffffffffffffffffffffffffffffffffffff\n      and\n        /* \"@openzeppelin/contracts/access/Ownable.sol\":1855:1862  owner() */\n      tag_67\n        /* \"@openzeppelin/contracts/access/Ownable.sol\":1855:1860  owner */\n      tag_29\n        /* \"@openzeppelin/contracts/access/Ownable.sol\":1855:1862  owner() */\n      jump\t// in\n    tag_67:\n        /* \"@openzeppelin/contracts/access/Ownable.sol\":1855:1878  owner() != _msgSender() */\n      0xffffffffffffffffffffffffffffffffffffffff\n      and\n      eq\n        /* \"@openzeppelin/contracts/access/Ownable.sol\":1851:1952  if (owner() != _msgSender()) {... */\n      tag_68\n      jumpi\n        /* \"@openzeppelin/contracts/access/Ownable.sol\":1928:1940  _msgSender() */\n      tag_69\n        /* \"@openzeppelin/contracts/access/Ownable.sol\":1928:1938  _msgSender */\n      tag_66\n        /* \"@openzeppelin/contracts/access/Ownable.sol\":1928:1940  _msgSender() */\n      jump\t// in\n    tag_69:\n        /* \"@openzeppelin/contracts/access/Ownable.sol\":1901:1941  OwnableUnauthorizedAccount(_msgSender()) */\n      mload(0x40)\n      0x118cdaa700000000000000000000000000000000000000000000000000000000\n      dup2\n      mstore\n      0x04\n      add\n      tag_70\n      swap2\n      swap1\n      tag_31\n      jump\t// in\n    tag_70:\n      mload(0x40)\n      dup1\n      swap2\n      sub\n      swap1\n      revert\n        /* \"@openzeppelin/contracts/access/Ownable.sol\":1851:1952  if (owner() != _msgSender()) {... */\n    tag_68:\n        /* \"@openzeppelin/contracts/access/Ownable.sol\":1796:1958  function _checkOwner() internal view virtual {... */\n      jump\t// out\n        /* \"@openzeppelin/contracts/access/Ownable.sol\":2912:3099  function _transferOwnership(address newOwner) internal virtual {... */\n    tag_56:\n        /* \"@openzeppelin/contracts/access/Ownable.sol\":2985:3001  address oldOwner */\n      0x00\n        /* \"@openzeppelin/contracts/access/Ownable.sol\":3004:3010  _owner */\n      0x00\n      0x00\n      swap1\n      sload\n      swap1\n      0x0100\n      exp\n      swap1\n      div\n      0xffffffffffffffffffffffffffffffffffffffff\n      and\n        /* \"@openzeppelin/contracts/access/Ownable.sol\":2985:3010  address oldOwner = _owner */\n      swap1\n      pop\n        /* \"@openzeppelin/contracts/access/Ownable.sol\":3029:3037  newOwner */\n      dup2\n        /* \"@openzeppelin/contracts/access/Ownable.sol\":3020:3026  _owner */\n      0x00\n      0x00\n        /* \"@openzeppelin/contracts/access/Ownable.sol\":3020:3037  _owner = newOwner */\n      0x0100\n      exp\n      dup2\n      sload\n      dup2\n      0xffffffffffffffffffffffffffffffffffffffff\n      mul\n      not\n      and\n      swap1\n      dup4\n      0xffffffffffffffffffffffffffffffffffffffff\n      and\n      mul\n      or\n      swap1\n      sstore\n      pop\n        /* \"@openzeppelin/contracts/access/Ownable.sol\":3083:3091  newOwner */\n      dup2\n        /* \"@openzeppelin/contracts/access/Ownable.sol\":3052:3092  OwnershipTransferred(oldOwner, newOwner) */\n      0xffffffffffffffffffffffffffffffffffffffff\n      and\n        /* \"@openzeppelin/contracts/access/Ownable.sol\":3073:3081  oldOwner */\n      dup2\n        /* \"@openzeppelin/contracts/access/Ownable.sol\":3052:3092  OwnershipTransferred(oldOwner, newOwner) */\n      0xffffffffffffffffffffffffffffffffffffffff\n      and\n      0x8be0079c531659141344cd1fd0a4f28419497f9722a3daafe3b4186f6b6457e0\n      mload(0x40)\n      mload(0x40)\n      dup1\n      swap2\n      sub\n      swap1\n      log3\n        /* \"@openzeppelin/contracts/access/Ownable.sol\":2975:3099  {... */\n      pop\n        /* \"@openzeppelin/contracts/access/Ownable.sol\":2912:3099  function _transferOwnership(address newOwner) internal virtual {... */\n      pop\n      jump\t// out\n        /* \"@openzeppelin/contracts/utils/Context.sol\":656:752  function _msgSender() internal view virtual returns (address) {... */\n    tag_66:\n        /* \"@openzeppelin/contracts/utils/Context.sol\":709:716  address */\n      0x00\n        /* \"@openzeppelin/contracts/utils/Context.sol\":735:745  msg.sender */\n      caller\n        /* \"@openzeppelin/contracts/utils/Context.sol\":728:745  return msg.sender */\n      swap1\n      pop\n        /* \"@openzeppelin/contracts/utils/Context.sol\":656:752  function _msgSender() internal view virtual returns (address) {... */\n      swap1\n      jump\t// out\n        /* \"#utility.yul\":7:97   */\n    tag_73:\n        /* \"#utility.yul\":41:48   */\n      0x00\n        /* \"#utility.yul\":84:89   */\n      dup2\n        /* \"#utility.yul\":77:90   */\n      iszero\n        /* \"#utility.yul\":70:91   */\n      iszero\n        /* \"#utility.yul\":59:91   */\n      swap1\n      pop\n        /* \"#utility.yul\":7:97   */\n      swap2\n      swap1\n      pop\n      jump\t// out\n        /* \"#utility.yul\":103:212   */\n    tag_74:\n        /* \"#utility.yul\":184:205   */\n      tag_96\n        /* \"#utility.yul\":199:204   */\n      dup2\n        /* \"#utility.yul\":184:205   */\n      tag_73\n      jump\t// in\n    tag_96:\n        /* \"#utility.yul\":179:182   */\n      dup3\n        /* \"#utility.yul\":172:206   */\n      mstore\n        /* \"#utility.yul\":103:212   */\n      pop\n      pop\n      jump\t// out\n        /* \"#utility.yul\":218:428   */\n    tag_17:\n        /* \"#utility.yul\":305:309   */\n      0x00\n        /* \"#utility.yul\":343:345   */\n      0x20\n        /* \"#utility.yul\":332:341   */\n      dup3\n        /* \"#utility.yul\":328:346   */\n      add\n        /* \"#utility.yul\":320:346   */\n      swap1\n      pop\n        /* \"#utility.yul\":356:421   */\n      tag_98\n        /* \"#utility.yul\":418:419   */\n      0x00\n        /* \"#utility.yul\":407:416   */\n      dup4\n        /* \"#utility.yul\":403:420   */\n      add\n        /* \"#utility.yul\":394:400   */\n      dup5\n        /* \"#utility.yul\":356:421   */\n      tag_74\n      jump\t// in\n    tag_98:\n        /* \"#utility.yul\":218:428   */\n      swap3\n      swap2\n      pop\n      pop\n      jump\t// out\n        /* \"#utility.yul\":434:533   */\n    tag_75:\n        /* \"#utility.yul\":486:492   */\n      0x00\n        /* \"#utility.yul\":520:525   */\n      dup2\n        /* \"#utility.yul\":514:526   */\n      mload\n        /* \"#utility.yul\":504:526   */\n      swap1\n      pop\n        /* \"#utility.yul\":434:533   */\n      swap2\n      swap1\n      pop\n      jump\t// out\n        /* \"#utility.yul\":539:708   */\n    tag_76:\n        /* \"#utility.yul\":623:634   */\n      0x00\n        /* \"#utility.yul\":657:663   */\n      dup3\n        /* \"#utility.yul\":652:655   */\n      dup3\n        /* \"#utility.yul\":645:664   */\n      mstore\n        /* \"#utility.yul\":697:701   */\n      0x20\n        /* \"#utility.yul\":692:695   */\n      dup3\n        /* \"#utility.yul\":688:702   */\n      add\n        /* \"#utility.yul\":673:702   */\n      swap1\n      pop\n        /* \"#utility.yul\":539:708   */\n      swap3\n      swap2\n      pop\n      pop\n      jump\t// out\n        /* \"#utility.yul\":714:853   */\n    tag_77:\n        /* \"#utility.yul\":803:809   */\n      dup3\n        /* \"#utility.yul\":798:801   */\n      dup2\n        /* \"#utility.yul\":793:796   */\n      dup4\n        /* \"#utility.yul\":787:810   */\n      mcopy\n        /* \"#utility.yul\":844:845   */\n      0x00\n        /* \"#utility.yul\":835:841   */\n      dup4\n        /* \"#utility.yul\":830:833   */\n      dup4\n        /* \"#utility.yul\":826:842   */\n      add\n        /* \"#utility.yul\":819:846   */\n      mstore\n        /* \"#utility.yul\":714:853   */\n      pop\n      pop\n      pop\n      jump\t// out\n        /* \"#utility.yul\":859:961   */\n    tag_78:\n        /* \"#utility.yul\":900:906   */\n      0x00\n        /* \"#utility.yul\":951:953   */\n      0x1f\n        /* \"#utility.yul\":947:954   */\n      not\n        /* \"#utility.yul\":942:944   */\n      0x1f\n        /* \"#utility.yul\":935:940   */\n      dup4\n        /* \"#utility.yul\":931:945   */\n      add\n        /* \"#utility.yul\":927:955   */\n      and\n        /* \"#utility.yul\":917:955   */\n      swap1\n      pop\n        /* \"#utility.yul\":859:961   */\n      swap2\n      swap1\n      pop\n      jump\t// out\n        /* \"#utility.yul\":967:1344   */\n    tag_79:\n        /* \"#utility.yul\":1055:1058   */\n      0x00\n        /* \"#utility.yul\":1083:1122   */\n      tag_104\n        /* \"#utility.yul\":1116:1121   */\n      dup3\n        /* \"#utility.yul\":1083:1122   */\n      tag_75\n      jump\t// in\n    tag_104:\n        /* \"#utility.yul\":1138:1209   */\n      tag_105\n        /* \"#utility.yul\":1202:1208   */\n      dup2\n        /* \"#utility.yul\":1197:1200   */\n      dup6\n        /* \"#utility.yul\":1138:1209   */\n      tag_76\n      jump\t// in\n    tag_105:\n        /* \"#utility.yul\":1131:1209   */\n      swap4\n      pop\n        /* \"#utility.yul\":1218:1283   */\n      tag_106\n        /* \"#utility.yul\":1276:1282   */\n      dup2\n        /* \"#utility.yul\":1271:1274   */\n      dup6\n        /* \"#utility.yul\":1264:1268   */\n      0x20\n        /* \"#utility.yul\":1257:1262   */\n      dup7\n        /* \"#utility.yul\":1253:1269   */\n      add\n        /* \"#utility.yul\":1218:1283   */\n      tag_77\n      jump\t// in\n    tag_106:\n        /* \"#utility.yul\":1308:1337   */\n      tag_107\n        /* \"#utility.yul\":1330:1336   */\n      dup2\n        /* \"#utility.yul\":1308:1337   */\n      tag_78\n      jump\t// in\n    tag_107:\n        /* \"#utility.yul\":1303:1306   */\n      dup5\n        /* \"#utility.yul\":1299:1338   */\n      add\n        /* \"#utility.yul\":1292:1338   */\n      swap2\n      pop\n        /* \"#utility.yul\":1059:1344   */\n      pop\n        /* \"#utility.yul\":967:1344   */\n      swap3\n      swap2\n      pop\n      pop\n      jump\t// out\n        /* \"#utility.yul\":1350:1663   */\n    tag_21:\n        /* \"#utility.yul\":1463:1467   */\n      0x00\n        /* \"#utility.yul\":1501:1503   */\n      0x20\n        /* \"#utility.yul\":1490:1499   */\n      dup3\n        /* \"#utility.yul\":1486:1504   */\n      add\n        /* \"#utility.yul\":1478:1504   */\n      swap1\n      pop\n        /* \"#utility.yul\":1550:1559   */\n      dup2\n        /* \"#utility.yul\":1544:1548   */\n      dup2\n        /* \"#utility.yul\":1540:1560   */\n      sub\n        /* \"#utility.yul\":1536:1537   */\n      0x00\n        /* \"#utility.yul\":1525:1534   */\n      dup4\n        /* \"#utility.yul\":1521:1538   */\n      add\n        /* \"#utility.yul\":1514:1561   */\n      mstore\n        /* \"#utility.yul\":1578:1656   */\n      tag_109\n        /* \"#utility.yul\":1651:1655   */\n      dup2\n        /* \"#utility.yul\":1642:1648   */\n      dup5\n        /* \"#utility.yul\":1578:1656   */\n      tag_79\n      jump\t// in\n    tag_109:\n        /* \"#utility.yul\":1570:1656   */\n      swap1\n      pop\n        /* \"#utility.yul\":1350:1663   */\n      swap3\n      swap2\n      pop\n      pop\n      jump\t// out\n        /* \"#utility.yul\":1669:1746   */\n    tag_80:\n        /* \"#utility.yul\":1706:1713   */\n      0x00\n        /* \"#utility.yul\":1735:1740   */\n      dup2\n        /* \"#utility.yul\":1724:1740   */\n      swap1\n      pop\n        /* \"#utility.yul\":1669:1746   */\n      swap2\n      swap1\n      pop\n      jump\t// out\n        /* \"#utility.yul\":1752:1870   */\n    tag_81:\n        /* \"#utility.yul\":1839:1863   */\n      tag_112\n        /* \"#utility.yul\":1857:1862   */\n      dup2\n        /* \"#utility.yul\":1839:1863   */\n      tag_80\n      jump\t// in\n    tag_112:\n        /* \"#utility.yul\":1834:1837   */\n      dup3\n        /* \"#utility.yul\":1827:1864   */\n      mstore\n        /* \"#utility.yul\":1752:1870   */\n      pop\n      pop\n      jump\t// out\n        /* \"#utility.yul\":1876:2098   */\n    tag_25:\n        /* \"#utility.yul\":1969:1973   */\n      0x00\n        /* \"#utility.yul\":2007:2009   */\n      0x20\n        /* \"#utility.yul\":1996:2005   */\n      dup3\n        /* \"#utility.yul\":1992:2010   */\n      add\n        /* \"#utility.yul\":1984:2010   */\n      swap1\n      pop\n        /* \"#utility.yul\":2020:2091   */\n      tag_114\n        /* \"#utility.yul\":2088:2089   */\n      0x00\n        /* \"#utility.yul\":2077:2086   */\n      dup4\n        /* \"#utility.yul\":2073:2090   */\n      add\n        /* \"#utility.yul\":2064:2070   */\n      dup5\n        /* \"#utility.yul\":2020:2091   */\n      tag_81\n      jump\t// in\n    tag_114:\n        /* \"#utility.yul\":1876:2098   */\n      swap3\n      swap2\n      pop\n      pop\n      jump\t// out\n        /* \"#utility.yul\":2104:2230   */\n    tag_82:\n        /* \"#utility.yul\":2141:2148   */\n      0x00\n        /* \"#utility.yul\":2181:2223   */\n      0xffffffffffffffffffffffffffffffffffffffff\n        /* \"#utility.yul\":2174:2179   */\n      dup3\n        /* \"#utility.yul\":2170:2224   */\n      and\n        /* \"#utility.yul\":2159:2224   */\n      swap1\n      pop\n        /* \"#utility.yul\":2104:2230   */\n      swap2\n      swap1\n      pop\n      jump\t// out\n        /* \"#utility.yul\":2236:2332   */\n    tag_83:\n        /* \"#utility.yul\":2273:2280   */\n      0x00\n        /* \"#utility.yul\":2302:2326   */\n      tag_117\n        /* \"#utility.yul\":2320:2325   */\n      dup3\n        /* \"#utility.yul\":2302:2326   */\n      tag_82\n      jump\t// in\n    tag_117:\n        /* \"#utility.yul\":2291:2326   */\n      swap1\n      pop\n        /* \"#utility.yul\":2236:2332   */\n      swap2\n      swap1\n      pop\n      jump\t// out\n        /* \"#utility.yul\":2338:2456   */\n    tag_84:\n        /* \"#utility.yul\":2425:2449   */\n      tag_119\n        /* \"#utility.yul\":2443:2448   */\n      dup2\n        /* \"#utility.yul\":2425:2449   */\n      tag_83\n      jump\t// in\n    tag_119:\n        /* \"#utility.yul\":2420:2423   */\n      dup3\n        /* \"#utility.yul\":2413:2450   */\n      mstore\n        /* \"#utility.yul\":2338:2456   */\n      pop\n      pop\n      jump\t// out\n        /* \"#utility.yul\":2462:2684   */\n    tag_31:\n        /* \"#utility.yul\":2555:2559   */\n      0x00\n        /* \"#utility.yul\":2593:2595   */\n      0x20\n        /* \"#utility.yul\":2582:2591   */\n      dup3\n        /* \"#utility.yul\":2578:2596   */\n      add\n        /* \"#utility.yul\":2570:2596   */\n      swap1\n      pop\n        /* \"#utility.yul\":2606:2677   */\n      tag_121\n        /* \"#utility.yul\":2674:2675   */\n      0x00\n        /* \"#utility.yul\":2663:2672   */\n      dup4\n        /* \"#utility.yul\":2659:2676   */\n      add\n        /* \"#utility.yul\":2650:2656   */\n      dup5\n        /* \"#utility.yul\":2606:2677   */\n      tag_84\n      jump\t// in\n    tag_121:\n        /* \"#utility.yul\":2462:2684   */\n      swap3\n      swap2\n      pop\n      pop\n      jump\t// out\n        /* \"#utility.yul\":2771:2888   */\n    tag_86:\n        /* \"#utility.yul\":2880:2881   */\n      0x00\n        /* \"#utility.yul\":2877:2878   */\n      0x00\n        /* \"#utility.yul\":2870:2882   */\n      revert\n        /* \"#utility.yul\":3017:3139   */\n    tag_88:\n        /* \"#utility.yul\":3090:3114   */\n      tag_126\n        /* \"#utility.yul\":3108:3113   */\n      dup2\n        /* \"#utility.yul\":3090:3114   */\n      tag_83\n      jump\t// in\n    tag_126:\n        /* \"#utility.yul\":3083:3088   */\n      dup2\n        /* \"#utility.yul\":3080:3115   */\n      eq\n        /* \"#utility.yul\":3070:3133   */\n      tag_127\n      jumpi\n        /* \"#utility.yul\":3129:3130   */\n      0x00\n        /* \"#utility.yul\":3126:3127   */\n      0x00\n        /* \"#utility.yul\":3119:3131   */\n      revert\n        /* \"#utility.yul\":3070:3133   */\n    tag_127:\n        /* \"#utility.yul\":3017:3139   */\n      pop\n      jump\t// out\n        /* \"#utility.yul\":3145:3284   */\n    tag_89:\n        /* \"#utility.yul\":3191:3196   */\n      0x00\n        /* \"#utility.yul\":3229:3235   */\n      dup2\n        /* \"#utility.yul\":3216:3236   */\n      calldataload\n        /* \"#utility.yul\":3207:3236   */\n      swap1\n      pop\n        /* \"#utility.yul\":3245:3278   */\n      tag_129\n        /* \"#utility.yul\":3272:3277   */\n      dup2\n        /* \"#utility.yul\":3245:3278   */\n      tag_88\n      jump\t// in\n    tag_129:\n        /* \"#utility.yul\":3145:3284   */\n      swap3\n      swap2\n      pop\n      pop\n      jump\t// out\n        /* \"#utility.yul\":3290:3619   */\n    tag_37:\n        /* \"#utility.yul\":3349:3355   */\n      0x00\n        /* \"#utility.yul\":3398:3400   */\n      0x20\n        /* \"#utility.yul\":3386:3395   */\n      dup3\n        /* \"#utility.yul\":3377:3384   */\n      dup5\n        /* \"#utility.yul\":3373:3396   */\n      sub\n        /* \"#utility.yul\":3369:3401   */\n      slt\n        /* \"#utility.yul\":3366:3485   */\n      iszero\n      tag_131\n      jumpi\n        /* \"#utility.yul\":3404:3483   */\n      tag_132\n      tag_86\n      jump\t// in\n    tag_132:\n        /* \"#utility.yul\":3366:3485   */\n    tag_131:\n        /* \"#utility.yul\":3524:3525   */\n      0x00\n        /* \"#utility.yul\":3549:3602   */\n      tag_133\n        /* \"#utility.yul\":3594:3601   */\n      dup5\n        /* \"#utility.yul\":3585:3591   */\n      dup3\n        /* \"#utility.yul\":3574:3583   */\n      dup6\n        /* \"#utility.yul\":3570:3592   */\n      add\n        /* \"#utility.yul\":3549:3602   */\n      tag_89\n      jump\t// in\n    tag_133:\n        /* \"#utility.yul\":3539:3602   */\n      swap2\n      pop\n        /* \"#utility.yul\":3495:3612   */\n      pop\n        /* \"#utility.yul\":3290:3619   */\n      swap3\n      swap2\n      pop\n      pop\n      jump\t// out\n        /* \"#utility.yul\":3625:3801   */\n    tag_90:\n        /* \"#utility.yul\":3765:3793   */\n      0x50726f706f73616c3a20416c7265616479206163636570746564000000000000\n        /* \"#utility.yul\":3761:3762   */\n      0x00\n        /* \"#utility.yul\":3753:3759   */\n      dup3\n        /* \"#utility.yul\":3749:3763   */\n      add\n        /* \"#utility.yul\":3742:3794   */\n      mstore\n        /* \"#utility.yul\":3625:3801   */\n      pop\n      jump\t// out\n        /* \"#utility.yul\":3807:4173   */\n    tag_91:\n        /* \"#utility.yul\":3949:3952   */\n      0x00\n        /* \"#utility.yul\":3970:4037   */\n      tag_136\n        /* \"#utility.yul\":4034:4036   */\n      0x1a\n        /* \"#utility.yul\":4029:4032   */\n      dup4\n        /* \"#utility.yul\":3970:4037   */\n      tag_76\n      jump\t// in\n    tag_136:\n        /* \"#utility.yul\":3963:4037   */\n      swap2\n      pop\n        /* \"#utility.yul\":4046:4139   */\n      tag_137\n        /* \"#utility.yul\":4135:4138   */\n      dup3\n        /* \"#utility.yul\":4046:4139   */\n      tag_90\n      jump\t// in\n    tag_137:\n        /* \"#utility.yul\":4164:4166   */\n      0x20\n        /* \"#utility.yul\":4159:4162   */\n      dup3\n        /* \"#utility.yul\":4155:4167   */\n      add\n        /* \"#utility.yul\":4148:4167   */\n      swap1\n      pop\n        /* \"#utility.yul\":3807:4173   */\n      swap2\n      swap1\n      pop\n      jump\t// out\n        /* \"#utility.yul\":4179:4598   */\n    tag_45:\n        /* \"#utility.yul\":4345:4349   */\n      0x00\n        /* \"#utility.yul\":4383:4385   */\n      0x20\n        /* \"#utility.yul\":4372:4381   */\n      dup3\n        /* \"#utility.yul\":4368:4386   */\n      add\n        /* \"#utility.yul\":4360:4386   */\n      swap1\n      pop\n        /* \"#utility.yul\":4432:4441   */\n      dup2\n        /* \"#utility.yul\":4426:4430   */\n      dup2\n        /* \"#utility.yul\":4422:4442   */\n      sub\n        /* \"#utility.yul\":4418:4419   */\n      0x00\n        /* \"#utility.yul\":4407:4416   */\n      dup4\n        /* \"#utility.yul\":4403:4420   */\n      add\n        /* \"#utility.yul\":4396:4443   */\n      mstore\n        /* \"#utility.yul\":4460:4591   */\n      tag_139\n        /* \"#utility.yul\":4586:4590   */\n      dup2\n        /* \"#utility.yul\":4460:4591   */\n      tag_91\n      jump\t// in\n    tag_139:\n        /* \"#utility.yul\":4452:4591   */\n      swap1\n      pop\n        /* \"#utility.yul\":4179:4598   */\n      swap2\n      swap1\n      pop\n      jump\t// out\n        /* \"#utility.yul\":4604:4784   */\n    tag_92:\n        /* \"#utility.yul\":4652:4729   */\n      0x4e487b7100000000000000000000000000000000000000000000000000000000\n        /* \"#utility.yul\":4649:4650   */\n      0x00\n        /* \"#utility.yul\":4642:4730   */\n      mstore\n        /* \"#utility.yul\":4749:4753   */\n      0x22\n        /* \"#utility.yul\":4746:4747   */\n      0x04\n        /* \"#utility.yul\":4739:4754   */\n      mstore\n        /* \"#utility.yul\":4773:4777   */\n      0x24\n        /* \"#utility.yul\":4770:4771   */\n      0x00\n        /* \"#utility.yul\":4763:4778   */\n      revert\n        /* \"#utility.yul\":4790:5110   */\n    tag_47:\n        /* \"#utility.yul\":4834:4840   */\n      0x00\n        /* \"#utility.yul\":4871:4872   */\n      0x02\n        /* \"#utility.yul\":4865:4869   */\n      dup3\n        /* \"#utility.yul\":4861:4873   */\n      div\n        /* \"#utility.yul\":4851:4873   */\n      swap1\n      pop\n        /* \"#utility.yul\":4918:4919   */\n      0x01\n        /* \"#utility.yul\":4912:4916   */\n      dup3\n        /* \"#utility.yul\":4908:4920   */\n      and\n        /* \"#utility.yul\":4939:4957   */\n      dup1\n        /* \"#utility.yul\":4929:5010   */\n      tag_142\n      jumpi\n        /* \"#utility.yul\":4995:4999   */\n      0x7f\n        /* \"#utility.yul\":4987:4993   */\n      dup3\n        /* \"#utility.yul\":4983:5000   */\n      and\n        /* \"#utility.yul\":4973:5000   */\n      swap2\n      pop\n        /* \"#utility.yul\":4929:5010   */\n    tag_142:\n        /* \"#utility.yul\":5057:5059   */\n      0x20\n        /* \"#utility.yul\":5049:5055   */\n      dup3\n        /* \"#utility.yul\":5046:5060   */\n      lt\n        /* \"#utility.yul\":5026:5044   */\n      dup2\n        /* \"#utility.yul\":5023:5061   */\n      sub\n        /* \"#utility.yul\":5020:5104   */\n      tag_143\n      jumpi\n        /* \"#utility.yul\":5076:5094   */\n      tag_144\n      tag_92\n      jump\t// in\n    tag_144:\n        /* \"#utility.yul\":5020:5104   */\n    tag_143:\n        /* \"#utility.yul\":4841:5110   */\n      pop\n        /* \"#utility.yul\":4790:5110   */\n      swap2\n      swap1\n      pop\n      jump\t// out\n\n    auxdata: 0xa26469706673582212203e41067616f3e8c6e2b6adc63d9ea9e2aa72e4914fc1d35255671f850634ff9364736f6c634300081e0033\n}\n",
				"bytecode": {
					"linkReferences": {},
					"object": "60c060405234801561000f575f5ffd5b50604051610ec3380380610ec3833981810160405281019061003191906103a2565b805f73ffffffffffffffffffffffffffffffffffffffff168173ffffffffffffffffffffffffffffffffffffffff16036100a2575f6040517f1e4fbdf70000000000000000000000000000000000000000000000000000000081526004016100999190610431565b60405180910390fd5b6100b18161010760201b60201c565b508373ffffffffffffffffffffffffffffffffffffffff1660808173ffffffffffffffffffffffffffffffffffffffff16815250508160a0818152505082600190816100fd9190610651565b5050505050610720565b5f5f5f9054906101000a900473ffffffffffffffffffffffffffffffffffffffff169050815f5f6101000a81548173ffffffffffffffffffffffffffffffffffffffff021916908373ffffffffffffffffffffffffffffffffffffffff1602179055508173ffffffffffffffffffffffffffffffffffffffff168173ffffffffffffffffffffffffffffffffffffffff167f8be0079c531659141344cd1fd0a4f28419497f9722a3daafe3b4186f6b6457e060405160405180910390a35050565b5f604051905090565b5f5ffd5b5f5ffd5b5f73ffffffffffffffffffffffffffffffffffffffff82169050919050565b5f610202826101d9565b9050919050565b610212816101f8565b811461021c575f5ffd5b50565b5f8151905061022d81610209565b92915050565b5f5ffd5b5f5ffd5b5f601f19601f8301169050919050565b7f4e487b71000000000000000000000000000000000000000000000000000000005f52604160045260245ffd5b6102818261023b565b810181811067ffffffffffffffff821117156102a05761029f61024b565b5b80604052505050565b5f6102b26101c8565b90506102be8282610278565b919050565b5f67ffffffffffffffff8211156102dd576102dc61024b565b5b6102e68261023b565b9050602081019050919050565b8281835e5f83830152505050565b5f61031361030e846102c3565b6102a9565b90508281526020810184848401111561032f5761032e610237565b5b61033a8482856102f3565b509392505050565b5f82601f83011261035657610355610233565b5b8151610366848260208601610301565b91505092915050565b5f819050919050565b6103818161036f565b811461038b575f5ffd5b50565b5f8151905061039c81610378565b92915050565b5f5f5f5f608085870312156103ba576103b96101d1565b5b5f6103c78782880161021f565b945050602085015167ffffffffffffffff8111156103e8576103e76101d5565b5b6103f487828801610342565b93505060406104058782880161038e565b92505060606104168782880161021f565b91505092959194509250565b61042b816101f8565b82525050565b5f6020820190506104445f830184610422565b92915050565b5f81519050919050565b7f4e487b71000000000000000000000000000000000000000000000000000000005f52602260045260245ffd5b5f600282049050600182168061049857607f821691505b6020821081036104ab576104aa610454565b5b50919050565b5f819050815f5260205f209050919050565b5f6020601f8301049050919050565b5f82821b905092915050565b5f6008830261050d7fffffffffffffffffffffffffffffffffffffffffffffffffffffffffffffffff826104d2565b61051786836104d2565b95508019841693508086168417925050509392505050565b5f819050919050565b5f61055261054d6105488461036f565b61052f565b61036f565b9050919050565b5f819050919050565b61056b83610538565b61057f61057782610559565b8484546104de565b825550505050565b5f5f905090565b610596610587565b6105a1818484610562565b505050565b5b818110156105c4576105b95f8261058e565b6001810190506105a7565b5050565b601f821115610609576105da816104b1565b6105e3846104c3565b810160208510156105f2578190505b6106066105fe856104c3565b8301826105a6565b50505b505050565b5f82821c905092915050565b5f6106295f198460080261060e565b1980831691505092915050565b5f610641838361061a565b9150826002028217905092915050565b61065a8261044a565b67ffffffffffffffff8111156106735761067261024b565b5b61067d8254610481565b6106888282856105c8565b5f60209050601f8311600181146106b9575f84156106a7578287015190505b6106b18582610636565b865550610718565b601f1984166106c7866104b1565b5f5b828110156106ee578489015182556001820191506020850194506020810190506106c9565b8683101561070b5784890151610707601f89168261061a565b8355505b6001600288020188555050505b505050505050565b60805160a0516107826107415f395f61028f01525f6102ed01526107825ff3fe608060405234801561000f575f5ffd5b5060043610610086575f3560e01c8063715018a611610059578063715018a6146100ee5780638da5cb5b146100f85780638dc45d9a14610116578063f2fde38b1461013457610086565b80632852b71c1461008a5780635051a5ec14610094578063565974d3146100b25780635b9c161a146100d0575b5f5ffd5b610092610150565b005b61009c6101ef565b6040516100a991906104fc565b60405180910390f35b6100ba610201565b6040516100c79190610585565b60405180910390f35b6100d861028d565b6040516100e591906105bd565b60405180910390f35b6100f66102b1565b005b6101006102c4565b60405161010d9190610615565b60405180910390f35b61011e6102eb565b60405161012b9190610615565b60405180910390f35b61014e6004803603810190610149919061065c565b61030f565b005b610158610393565b60025f9054906101000a900460ff16156101a7576040517f08c379a000000000000000000000000000000000000000000000000000000000815260040161019e906106d1565b60405180910390fd5b600160025f6101000a81548160ff0219169083151502179055507f33cf58f9d253f0e978ab033531f83d087d5dd176c31e6419a76fbd9a72c8bb8460405160405180910390a1565b60025f9054906101000a900460ff1681565b6001805461020e9061071c565b80601f016020809104026020016040519081016040528092919081815260200182805461023a9061071c565b80156102855780601f1061025c57610100808354040283529160200191610285565b820191905f5260205f20905b81548152906001019060200180831161026857829003601f168201915b505050505081565b7f000000000000000000000000000000000000000000000000000000000000000081565b6102b9610393565b6102c25f61041a565b565b5f5f5f9054906101000a900473ffffffffffffffffffffffffffffffffffffffff16905090565b7f000000000000000000000000000000000000000000000000000000000000000081565b610317610393565b5f73ffffffffffffffffffffffffffffffffffffffff168173ffffffffffffffffffffffffffffffffffffffff1603610387575f6040517f1e4fbdf700000000000000000000000000000000000000000000000000000000815260040161037e9190610615565b60405180910390fd5b6103908161041a565b50565b61039b6104db565b73ffffffffffffffffffffffffffffffffffffffff166103b96102c4565b73ffffffffffffffffffffffffffffffffffffffff1614610418576103dc6104db565b6040517f118cdaa700000000000000000000000000000000000000000000000000000000815260040161040f9190610615565b60405180910390fd5b565b5f5f5f9054906101000a900473ffffffffffffffffffffffffffffffffffffffff169050815f5f6101000a81548173ffffffffffffffffffffffffffffffffffffffff021916908373ffffffffffffffffffffffffffffffffffffffff1602179055508173ffffffffffffffffffffffffffffffffffffffff168173ffffffffffffffffffffffffffffffffffffffff167f8be0079c531659141344cd1fd0a4f28419497f9722a3daafe3b4186f6b6457e060405160405180910390a35050565b5f33905090565b5f8115159050919050565b6104f6816104e2565b82525050565b5f60208201905061050f5f8301846104ed565b92915050565b5f81519050919050565b5f82825260208201905092915050565b8281835e5f83830152505050565b5f601f19601f8301169050919050565b5f61055782610515565b610561818561051f565b935061057181856020860161052f565b61057a8161053d565b840191505092915050565b5f6020820190508181035f83015261059d818461054d565b905092915050565b5f819050919050565b6105b7816105a5565b82525050565b5f6020820190506105d05f8301846105ae565b92915050565b5f73ffffffffffffffffffffffffffffffffffffffff82169050919050565b5f6105ff826105d6565b9050919050565b61060f816105f5565b82525050565b5f6020820190506106285f830184610606565b92915050565b5f5ffd5b61063b816105f5565b8114610645575f5ffd5b50565b5f8135905061065681610632565b92915050565b5f602082840312156106715761067061062e565b5b5f61067e84828501610648565b91505092915050565b7f50726f706f73616c3a20416c72656164792061636365707465640000000000005f82015250565b5f6106bb601a8361051f565b91506106c682610687565b602082019050919050565b5f6020820190508181035f8301526106e8816106af565b9050919050565b7f4e487b71000000000000000000000000000000000000000000000000000000005f52602260045260245ffd5b5f600282049050600182168061073357607f821691505b602082108103610746576107456106ef565b5b5091905056fea26469706673582212203e41067616f3e8c6e2b6adc63d9ea9e2aa72e4914fc1d35255671f850634ff9364736f6c634300081e0033",
					"opcodes": "PUSH1 0xC0 PUSH1 0x40 MSTORE CALLVALUE DUP1 ISZERO PUSH2 0xF JUMPI PUSH0 PUSH0 REVERT JUMPDEST POP PUSH1 0x40 MLOAD PUSH2 0xEC3 CODESIZE SUB DUP1 PUSH2 0xEC3 DUP4 CODECOPY DUP2 DUP2 ADD PUSH1 0x40 MSTORE DUP2 ADD SWAP1 PUSH2 0x31 SWAP2 SWAP1 PUSH2 0x3A2 JUMP JUMPDEST DUP1 PUSH0 PUSH20 0xFFFFFFFFFFFFFFFFFFFFFFFFFFFFFFFFFFFFFFFF AND DUP2 PUSH20 0xFFFFFFFFFFFFFFFFFFFFFFFFFFFFFFFFFFFFFFFF AND SUB PUSH2 0xA2 JUMPI PUSH0 PUSH1 0x40 MLOAD PUSH32 0x1E4FBDF700000000000000000000000000000000000000000000000000000000 DUP2 MSTORE PUSH1 0x4 ADD PUSH2 0x99 SWAP2 SWAP1 PUSH2 0x431 JUMP JUMPDEST PUSH1 0x40 MLOAD DUP1 SWAP2 SUB SWAP1 REVERT JUMPDEST PUSH2 0xB1 DUP2 PUSH2 0x107 PUSH1 0x20 SHL PUSH1 0x20 SHR JUMP JUMPDEST POP DUP4 PUSH20 0xFFFFFFFFFFFFFFFFFFFFFFFFFFFFFFFFFFFFFFFF AND PUSH1 0x80 DUP2 PUSH20 0xFFFFFFFFFFFFFFFFFFFFFFFFFFFFFFFFFFFFFFFF AND DUP2 MSTORE POP POP DUP2 PUSH1 0xA0 DUP2 DUP2 MSTORE POP POP DUP3 PUSH1 0x1 SWAP1 DUP2 PUSH2 0xFD SWAP2 SWAP1 PUSH2 0x651 JUMP JUMPDEST POP POP POP POP POP PUSH2 0x720 JUMP JUMPDEST PUSH0 PUSH0 PUSH0 SWAP1 SLOAD SWAP1 PUSH2 0x100 EXP SWAP1 DIV PUSH20 0xFFFFFFFFFFFFFFFFFFFFFFFFFFFFFFFFFFFFFFFF AND SWAP1 POP DUP2 PUSH0 PUSH0 PUSH2 0x100 EXP DUP2 SLOAD DUP2 PUSH20 0xFFFFFFFFFFFFFFFFFFFFFFFFFFFFFFFFFFFFFFFF MUL NOT AND SWAP1 DUP4 PUSH20 0xFFFFFFFFFFFFFFFFFFFFFFFFFFFFFFFFFFFFFFFF AND MUL OR SWAP1 SSTORE POP DUP2 PUSH20 0xFFFFFFFFFFFFFFFFFFFFFFFFFFFFFFFFFFFFFFFF AND DUP2 PUSH20 0xFFFFFFFFFFFFFFFFFFFFFFFFFFFFFFFFFFFFFFFF AND PUSH32 0x8BE0079C531659141344CD1FD0A4F28419497F9722A3DAAFE3B4186F6B6457E0 PUSH1 0x40 MLOAD PUSH1 0x40 MLOAD DUP1 SWAP2 SUB SWAP1 LOG3 POP POP JUMP JUMPDEST PUSH0 PUSH1 0x40 MLOAD SWAP1 POP SWAP1 JUMP JUMPDEST PUSH0 PUSH0 REVERT JUMPDEST PUSH0 PUSH0 REVERT JUMPDEST PUSH0 PUSH20 0xFFFFFFFFFFFFFFFFFFFFFFFFFFFFFFFFFFFFFFFF DUP3 AND SWAP1 POP SWAP2 SWAP1 POP JUMP JUMPDEST PUSH0 PUSH2 0x202 DUP3 PUSH2 0x1D9 JUMP JUMPDEST SWAP1 POP SWAP2 SWAP1 POP JUMP JUMPDEST PUSH2 0x212 DUP2 PUSH2 0x1F8 JUMP JUMPDEST DUP2 EQ PUSH2 0x21C JUMPI PUSH0 PUSH0 REVERT JUMPDEST POP JUMP JUMPDEST PUSH0 DUP2 MLOAD SWAP1 POP PUSH2 0x22D DUP2 PUSH2 0x209 JUMP JUMPDEST SWAP3 SWAP2 POP POP JUMP JUMPDEST PUSH0 PUSH0 REVERT JUMPDEST PUSH0 PUSH0 REVERT JUMPDEST PUSH0 PUSH1 0x1F NOT PUSH1 0x1F DUP4 ADD AND SWAP1 POP SWAP2 SWAP1 POP JUMP JUMPDEST PUSH32 0x4E487B7100000000000000000000000000000000000000000000000000000000 PUSH0 MSTORE PUSH1 0x41 PUSH1 0x4 MSTORE PUSH1 0x24 PUSH0 REVERT JUMPDEST PUSH2 0x281 DUP3 PUSH2 0x23B JUMP JUMPDEST DUP2 ADD DUP2 DUP2 LT PUSH8 0xFFFFFFFFFFFFFFFF DUP3 GT OR ISZERO PUSH2 0x2A0 JUMPI PUSH2 0x29F PUSH2 0x24B JUMP JUMPDEST JUMPDEST DUP1 PUSH1 0x40 MSTORE POP POP POP JUMP JUMPDEST PUSH0 PUSH2 0x2B2 PUSH2 0x1C8 JUMP JUMPDEST SWAP1 POP PUSH2 0x2BE DUP3 DUP3 PUSH2 0x278 JUMP JUMPDEST SWAP2 SWAP1 POP JUMP JUMPDEST PUSH0 PUSH8 0xFFFFFFFFFFFFFFFF DUP3 GT ISZERO PUSH2 0x2DD JUMPI PUSH2 0x2DC PUSH2 0x24B JUMP JUMPDEST JUMPDEST PUSH2 0x2E6 DUP3 PUSH2 0x23B JUMP JUMPDEST SWAP1 POP PUSH1 0x20 DUP2 ADD SWAP1 POP SWAP2 SWAP1 POP JUMP JUMPDEST DUP3 DUP2 DUP4 MCOPY PUSH0 DUP4 DUP4 ADD MSTORE POP POP POP JUMP JUMPDEST PUSH0 PUSH2 0x313 PUSH2 0x30E DUP5 PUSH2 0x2C3 JUMP JUMPDEST PUSH2 0x2A9 JUMP JUMPDEST SWAP1 POP DUP3 DUP2 MSTORE PUSH1 0x20 DUP2 ADD DUP5 DUP5 DUP5 ADD GT ISZERO PUSH2 0x32F JUMPI PUSH2 0x32E PUSH2 0x237 JUMP JUMPDEST JUMPDEST PUSH2 0x33A DUP5 DUP3 DUP6 PUSH2 0x2F3 JUMP JUMPDEST POP SWAP4 SWAP3 POP POP POP JUMP JUMPDEST PUSH0 DUP3 PUSH1 0x1F DUP4 ADD SLT PUSH2 0x356 JUMPI PUSH2 0x355 PUSH2 0x233 JUMP JUMPDEST JUMPDEST DUP2 MLOAD PUSH2 0x366 DUP5 DUP3 PUSH1 0x20 DUP7 ADD PUSH2 0x301 JUMP JUMPDEST SWAP2 POP POP SWAP3 SWAP2 POP POP JUMP JUMPDEST PUSH0 DUP2 SWAP1 POP SWAP2 SWAP1 POP JUMP JUMPDEST PUSH2 0x381 DUP2 PUSH2 0x36F JUMP JUMPDEST DUP2 EQ PUSH2 0x38B JUMPI PUSH0 PUSH0 REVERT JUMPDEST POP JUMP JUMPDEST PUSH0 DUP2 MLOAD SWAP1 POP PUSH2 0x39C DUP2 PUSH2 0x378 JUMP JUMPDEST SWAP3 SWAP2 POP POP JUMP JUMPDEST PUSH0 PUSH0 PUSH0 PUSH0 PUSH1 0x80 DUP6 DUP8 SUB SLT ISZERO PUSH2 0x3BA JUMPI PUSH2 0x3B9 PUSH2 0x1D1 JUMP JUMPDEST JUMPDEST PUSH0 PUSH2 0x3C7 DUP8 DUP3 DUP9 ADD PUSH2 0x21F JUMP JUMPDEST SWAP5 POP POP PUSH1 0x20 DUP6 ADD MLOAD PUSH8 0xFFFFFFFFFFFFFFFF DUP2 GT ISZERO PUSH2 0x3E8 JUMPI PUSH2 0x3E7 PUSH2 0x1D5 JUMP JUMPDEST JUMPDEST PUSH2 0x3F4 DUP8 DUP3 DUP9 ADD PUSH2 0x342 JUMP JUMPDEST SWAP4 POP POP PUSH1 0x40 PUSH2 0x405 DUP8 DUP3 DUP9 ADD PUSH2 0x38E JUMP JUMPDEST SWAP3 POP POP PUSH1 0x60 PUSH2 0x416 DUP8 DUP3 DUP9 ADD PUSH2 0x21F JUMP JUMPDEST SWAP2 POP POP SWAP3 SWAP6 SWAP2 SWAP5 POP SWAP3 POP JUMP JUMPDEST PUSH2 0x42B DUP2 PUSH2 0x1F8 JUMP JUMPDEST DUP3 MSTORE POP POP JUMP JUMPDEST PUSH0 PUSH1 0x20 DUP3 ADD SWAP1 POP PUSH2 0x444 PUSH0 DUP4 ADD DUP5 PUSH2 0x422 JUMP JUMPDEST SWAP3 SWAP2 POP POP JUMP JUMPDEST PUSH0 DUP2 MLOAD SWAP1 POP SWAP2 SWAP1 POP JUMP JUMPDEST PUSH32 0x4E487B7100000000000000000000000000000000000000000000000000000000 PUSH0 MSTORE PUSH1 0x22 PUSH1 0x4 MSTORE PUSH1 0x24 PUSH0 REVERT JUMPDEST PUSH0 PUSH1 0x2 DUP3 DIV SWAP1 POP PUSH1 0x1 DUP3 AND DUP1 PUSH2 0x498 JUMPI PUSH1 0x7F DUP3 AND SWAP2 POP JUMPDEST PUSH1 0x20 DUP3 LT DUP2 SUB PUSH2 0x4AB JUMPI PUSH2 0x4AA PUSH2 0x454 JUMP JUMPDEST JUMPDEST POP SWAP2 SWAP1 POP JUMP JUMPDEST PUSH0 DUP2 SWAP1 POP DUP2 PUSH0 MSTORE PUSH1 0x20 PUSH0 KECCAK256 SWAP1 POP SWAP2 SWAP1 POP JUMP JUMPDEST PUSH0 PUSH1 0x20 PUSH1 0x1F DUP4 ADD DIV SWAP1 POP SWAP2 SWAP1 POP JUMP JUMPDEST PUSH0 DUP3 DUP3 SHL SWAP1 POP SWAP3 SWAP2 POP POP JUMP JUMPDEST PUSH0 PUSH1 0x8 DUP4 MUL PUSH2 0x50D PUSH32 0xFFFFFFFFFFFFFFFFFFFFFFFFFFFFFFFFFFFFFFFFFFFFFFFFFFFFFFFFFFFFFFFF DUP3 PUSH2 0x4D2 JUMP JUMPDEST PUSH2 0x517 DUP7 DUP4 PUSH2 0x4D2 JUMP JUMPDEST SWAP6 POP DUP1 NOT DUP5 AND SWAP4 POP DUP1 DUP7 AND DUP5 OR SWAP3 POP POP POP SWAP4 SWAP3 POP POP POP JUMP JUMPDEST PUSH0 DUP2 SWAP1 POP SWAP2 SWAP1 POP JUMP JUMPDEST PUSH0 PUSH2 0x552 PUSH2 0x54D PUSH2 0x548 DUP5 PUSH2 0x36F JUMP JUMPDEST PUSH2 0x52F JUMP JUMPDEST PUSH2 0x36F JUMP JUMPDEST SWAP1 POP SWAP2 SWAP1 POP JUMP JUMPDEST PUSH0 DUP2 SWAP1 POP SWAP2 SWAP1 POP JUMP JUMPDEST PUSH2 0x56B DUP4 PUSH2 0x538 JUMP JUMPDEST PUSH2 0x57F PUSH2 0x577 DUP3 PUSH2 0x559 JUMP JUMPDEST DUP5 DUP5 SLOAD PUSH2 0x4DE JUMP JUMPDEST DUP3 SSTORE POP POP POP POP JUMP JUMPDEST PUSH0 PUSH0 SWAP1 POP SWAP1 JUMP JUMPDEST PUSH2 0x596 PUSH2 0x587 JUMP JUMPDEST PUSH2 0x5A1 DUP2 DUP5 DUP5 PUSH2 0x562 JUMP JUMPDEST POP POP POP JUMP JUMPDEST JUMPDEST DUP2 DUP2 LT ISZERO PUSH2 0x5C4 JUMPI PUSH2 0x5B9 PUSH0 DUP3 PUSH2 0x58E JUMP JUMPDEST PUSH1 0x1 DUP2 ADD SWAP1 POP PUSH2 0x5A7 JUMP JUMPDEST POP POP JUMP JUMPDEST PUSH1 0x1F DUP3 GT ISZERO PUSH2 0x609 JUMPI PUSH2 0x5DA DUP2 PUSH2 0x4B1 JUMP JUMPDEST PUSH2 0x5E3 DUP5 PUSH2 0x4C3 JUMP JUMPDEST DUP2 ADD PUSH1 0x20 DUP6 LT ISZERO PUSH2 0x5F2 JUMPI DUP2 SWAP1 POP JUMPDEST PUSH2 0x606 PUSH2 0x5FE DUP6 PUSH2 0x4C3 JUMP JUMPDEST DUP4 ADD DUP3 PUSH2 0x5A6 JUMP JUMPDEST POP POP JUMPDEST POP POP POP JUMP JUMPDEST PUSH0 DUP3 DUP3 SHR SWAP1 POP SWAP3 SWAP2 POP POP JUMP JUMPDEST PUSH0 PUSH2 0x629 PUSH0 NOT DUP5 PUSH1 0x8 MUL PUSH2 0x60E JUMP JUMPDEST NOT DUP1 DUP4 AND SWAP2 POP POP SWAP3 SWAP2 POP POP JUMP JUMPDEST PUSH0 PUSH2 0x641 DUP4 DUP4 PUSH2 0x61A JUMP JUMPDEST SWAP2 POP DUP3 PUSH1 0x2 MUL DUP3 OR SWAP1 POP SWAP3 SWAP2 POP POP JUMP JUMPDEST PUSH2 0x65A DUP3 PUSH2 0x44A JUMP JUMPDEST PUSH8 0xFFFFFFFFFFFFFFFF DUP2 GT ISZERO PUSH2 0x673 JUMPI PUSH2 0x672 PUSH2 0x24B JUMP JUMPDEST JUMPDEST PUSH2 0x67D DUP3 SLOAD PUSH2 0x481 JUMP JUMPDEST PUSH2 0x688 DUP3 DUP3 DUP6 PUSH2 0x5C8 JUMP JUMPDEST PUSH0 PUSH1 0x20 SWAP1 POP PUSH1 0x1F DUP4 GT PUSH1 0x1 DUP2 EQ PUSH2 0x6B9 JUMPI PUSH0 DUP5 ISZERO PUSH2 0x6A7 JUMPI DUP3 DUP8 ADD MLOAD SWAP1 POP JUMPDEST PUSH2 0x6B1 DUP6 DUP3 PUSH2 0x636 JUMP JUMPDEST DUP7 SSTORE POP PUSH2 0x718 JUMP JUMPDEST PUSH1 0x1F NOT DUP5 AND PUSH2 0x6C7 DUP7 PUSH2 0x4B1 JUMP JUMPDEST PUSH0 JUMPDEST DUP3 DUP2 LT ISZERO PUSH2 0x6EE JUMPI DUP5 DUP10 ADD MLOAD DUP3 SSTORE PUSH1 0x1 DUP3 ADD SWAP2 POP PUSH1 0x20 DUP6 ADD SWAP5 POP PUSH1 0x20 DUP2 ADD SWAP1 POP PUSH2 0x6C9 JUMP JUMPDEST DUP7 DUP4 LT ISZERO PUSH2 0x70B JUMPI DUP5 DUP10 ADD MLOAD PUSH2 0x707 PUSH1 0x1F DUP10 AND DUP3 PUSH2 0x61A JUMP JUMPDEST DUP4 SSTORE POP JUMPDEST PUSH1 0x1 PUSH1 0x2 DUP9 MUL ADD DUP9 SSTORE POP POP POP JUMPDEST POP POP POP POP POP POP JUMP JUMPDEST PUSH1 0x80 MLOAD PUSH1 0xA0 MLOAD PUSH2 0x782 PUSH2 0x741 PUSH0 CODECOPY PUSH0 PUSH2 0x28F ADD MSTORE PUSH0 PUSH2 0x2ED ADD MSTORE PUSH2 0x782 PUSH0 RETURN INVALID PUSH1 0x80 PUSH1 0x40 MSTORE CALLVALUE DUP1 ISZERO PUSH2 0xF JUMPI PUSH0 PUSH0 REVERT JUMPDEST POP PUSH1 0x4 CALLDATASIZE LT PUSH2 0x86 JUMPI PUSH0 CALLDATALOAD PUSH1 0xE0 SHR DUP1 PUSH4 0x715018A6 GT PUSH2 0x59 JUMPI DUP1 PUSH4 0x715018A6 EQ PUSH2 0xEE JUMPI DUP1 PUSH4 0x8DA5CB5B EQ PUSH2 0xF8 JUMPI DUP1 PUSH4 0x8DC45D9A EQ PUSH2 0x116 JUMPI DUP1 PUSH4 0xF2FDE38B EQ PUSH2 0x134 JUMPI PUSH2 0x86 JUMP JUMPDEST DUP1 PUSH4 0x2852B71C EQ PUSH2 0x8A JUMPI DUP1 PUSH4 0x5051A5EC EQ PUSH2 0x94 JUMPI DUP1 PUSH4 0x565974D3 EQ PUSH2 0xB2 JUMPI DUP1 PUSH4 0x5B9C161A EQ PUSH2 0xD0 JUMPI JUMPDEST PUSH0 PUSH0 REVERT JUMPDEST PUSH2 0x92 PUSH2 0x150 JUMP JUMPDEST STOP JUMPDEST PUSH2 0x9C PUSH2 0x1EF JUMP JUMPDEST PUSH1 0x40 MLOAD PUSH2 0xA9 SWAP2 SWAP1 PUSH2 0x4FC JUMP JUMPDEST PUSH1 0x40 MLOAD DUP1 SWAP2 SUB SWAP1 RETURN JUMPDEST PUSH2 0xBA PUSH2 0x201 JUMP JUMPDEST PUSH1 0x40 MLOAD PUSH2 0xC7 SWAP2 SWAP1 PUSH2 0x585 JUMP JUMPDEST PUSH1 0x40 MLOAD DUP1 SWAP2 SUB SWAP1 RETURN JUMPDEST PUSH2 0xD8 PUSH2 0x28D JUMP JUMPDEST PUSH1 0x40 MLOAD PUSH2 0xE5 SWAP2 SWAP1 PUSH2 0x5BD JUMP JUMPDEST PUSH1 0x40 MLOAD DUP1 SWAP2 SUB SWAP1 RETURN JUMPDEST PUSH2 0xF6 PUSH2 0x2B1 JUMP JUMPDEST STOP JUMPDEST PUSH2 0x100 PUSH2 0x2C4 JUMP JUMPDEST PUSH1 0x40 MLOAD PUSH2 0x10D SWAP2 SWAP1 PUSH2 0x615 JUMP JUMPDEST PUSH1 0x40 MLOAD DUP1 SWAP2 SUB SWAP1 RETURN JUMPDEST PUSH2 0x11E PUSH2 0x2EB JUMP JUMPDEST PUSH1 0x40 MLOAD PUSH2 0x12B SWAP2 SWAP1 PUSH2 0x615 JUMP JUMPDEST PUSH1 0x40 MLOAD DUP1 SWAP2 SUB SWAP1 RETURN JUMPDEST PUSH2 0x14E PUSH1 0x4 DUP1 CALLDATASIZE SUB DUP2 ADD SWAP1 PUSH2 0x149 SWAP2 SWAP1 PUSH2 0x65C JUMP JUMPDEST PUSH2 0x30F JUMP JUMPDEST STOP JUMPDEST PUSH2 0x158 PUSH2 0x393 JUMP JUMPDEST PUSH1 0x2 PUSH0 SWAP1 SLOAD SWAP1 PUSH2 0x100 EXP SWAP1 DIV PUSH1 0xFF AND ISZERO PUSH2 0x1A7 JUMPI PUSH1 0x40 MLOAD PUSH32 0x8C379A000000000000000000000000000000000000000000000000000000000 DUP2 MSTORE PUSH1 0x4 ADD PUSH2 0x19E SWAP1 PUSH2 0x6D1 JUMP JUMPDEST PUSH1 0x40 MLOAD DUP1 SWAP2 SUB SWAP1 REVERT JUMPDEST PUSH1 0x1 PUSH1 0x2 PUSH0 PUSH2 0x100 EXP DUP2 SLOAD DUP2 PUSH1 0xFF MUL NOT AND SWAP1 DUP4 ISZERO ISZERO MUL OR SWAP1 SSTORE POP PUSH32 0x33CF58F9D253F0E978AB033531F83D087D5DD176C31E6419A76FBD9A72C8BB84 PUSH1 0x40 MLOAD PUSH1 0x40 MLOAD DUP1 SWAP2 SUB SWAP1 LOG1 JUMP JUMPDEST PUSH1 0x2 PUSH0 SWAP1 SLOAD SWAP1 PUSH2 0x100 EXP SWAP1 DIV PUSH1 0xFF AND DUP2 JUMP JUMPDEST PUSH1 0x1 DUP1 SLOAD PUSH2 0x20E SWAP1 PUSH2 0x71C JUMP JUMPDEST DUP1 PUSH1 0x1F ADD PUSH1 0x20 DUP1 SWAP2 DIV MUL PUSH1 0x20 ADD PUSH1 0x40 MLOAD SWAP1 DUP2 ADD PUSH1 0x40 MSTORE DUP1 SWAP3 SWAP2 SWAP1 DUP2 DUP2 MSTORE PUSH1 0x20 ADD DUP3 DUP1 SLOAD PUSH2 0x23A SWAP1 PUSH2 0x71C JUMP JUMPDEST DUP1 ISZERO PUSH2 0x285 JUMPI DUP1 PUSH1 0x1F LT PUSH2 0x25C JUMPI PUSH2 0x100 DUP1 DUP4 SLOAD DIV MUL DUP4 MSTORE SWAP2 PUSH1 0x20 ADD SWAP2 PUSH2 0x285 JUMP JUMPDEST DUP3 ADD SWAP2 SWAP1 PUSH0 MSTORE PUSH1 0x20 PUSH0 KECCAK256 SWAP1 JUMPDEST DUP2 SLOAD DUP2 MSTORE SWAP1 PUSH1 0x1 ADD SWAP1 PUSH1 0x20 ADD DUP1 DUP4 GT PUSH2 0x268 JUMPI DUP3 SWAP1 SUB PUSH1 0x1F AND DUP3 ADD SWAP2 JUMPDEST POP POP POP POP POP DUP2 JUMP JUMPDEST PUSH32 0x0 DUP2 JUMP JUMPDEST PUSH2 0x2B9 PUSH2 0x393 JUMP JUMPDEST PUSH2 0x2C2 PUSH0 PUSH2 0x41A JUMP JUMPDEST JUMP JUMPDEST PUSH0 PUSH0 PUSH0 SWAP1 SLOAD SWAP1 PUSH2 0x100 EXP SWAP1 DIV PUSH20 0xFFFFFFFFFFFFFFFFFFFFFFFFFFFFFFFFFFFFFFFF AND SWAP1 POP SWAP1 JUMP JUMPDEST PUSH32 0x0 DUP2 JUMP JUMPDEST PUSH2 0x317 PUSH2 0x393 JUMP JUMPDEST PUSH0 PUSH20 0xFFFFFFFFFFFFFFFFFFFFFFFFFFFFFFFFFFFFFFFF AND DUP2 PUSH20 0xFFFFFFFFFFFFFFFFFFFFFFFFFFFFFFFFFFFFFFFF AND SUB PUSH2 0x387 JUMPI PUSH0 PUSH1 0x40 MLOAD PUSH32 0x1E4FBDF700000000000000000000000000000000000000000000000000000000 DUP2 MSTORE PUSH1 0x4 ADD PUSH2 0x37E SWAP2 SWAP1 PUSH2 0x615 JUMP JUMPDEST PUSH1 0x40 MLOAD DUP1 SWAP2 SUB SWAP1 REVERT JUMPDEST PUSH2 0x390 DUP2 PUSH2 0x41A JUMP JUMPDEST POP JUMP JUMPDEST PUSH2 0x39B PUSH2 0x4DB JUMP JUMPDEST PUSH20 0xFFFFFFFFFFFFFFFFFFFFFFFFFFFFFFFFFFFFFFFF AND PUSH2 0x3B9 PUSH2 0x2C4 JUMP JUMPDEST PUSH20 0xFFFFFFFFFFFFFFFFFFFFFFFFFFFFFFFFFFFFFFFF AND EQ PUSH2 0x418 JUMPI PUSH2 0x3DC PUSH2 0x4DB JUMP JUMPDEST PUSH1 0x40 MLOAD PUSH32 0x118CDAA700000000000000000000000000000000000000000000000000000000 DUP2 MSTORE PUSH1 0x4 ADD PUSH2 0x40F SWAP2 SWAP1 PUSH2 0x615 JUMP JUMPDEST PUSH1 0x40 MLOAD DUP1 SWAP2 SUB SWAP1 REVERT JUMPDEST JUMP JUMPDEST PUSH0 PUSH0 PUSH0 SWAP1 SLOAD SWAP1 PUSH2 0x100 EXP SWAP1 DIV PUSH20 0xFFFFFFFFFFFFFFFFFFFFFFFFFFFFFFFFFFFFFFFF AND SWAP1 POP DUP2 PUSH0 PUSH0 PUSH2 0x100 EXP DUP2 SLOAD DUP2 PUSH20 0xFFFFFFFFFFFFFFFFFFFFFFFFFFFFFFFFFFFFFFFF MUL NOT AND SWAP1 DUP4 PUSH20 0xFFFFFFFFFFFFFFFFFFFFFFFFFFFFFFFFFFFFFFFF AND MUL OR SWAP1 SSTORE POP DUP2 PUSH20 0xFFFFFFFFFFFFFFFFFFFFFFFFFFFFFFFFFFFFFFFF AND DUP2 PUSH20 0xFFFFFFFFFFFFFFFFFFFFFFFFFFFFFFFFFFFFFFFF AND PUSH32 0x8BE0079C531659141344CD1FD0A4F28419497F9722A3DAAFE3B4186F6B6457E0 PUSH1 0x40 MLOAD PUSH1 0x40 MLOAD DUP1 SWAP2 SUB SWAP1 LOG3 POP POP JUMP JUMPDEST PUSH0 CALLER SWAP1 POP SWAP1 JUMP JUMPDEST PUSH0 DUP2 ISZERO ISZERO SWAP1 POP SWAP2 SWAP1 POP JUMP JUMPDEST PUSH2 0x4F6 DUP2 PUSH2 0x4E2 JUMP JUMPDEST DUP3 MSTORE POP POP JUMP JUMPDEST PUSH0 PUSH1 0x20 DUP3 ADD SWAP1 POP PUSH2 0x50F PUSH0 DUP4 ADD DUP5 PUSH2 0x4ED JUMP JUMPDEST SWAP3 SWAP2 POP POP JUMP JUMPDEST PUSH0 DUP2 MLOAD SWAP1 POP SWAP2 SWAP1 POP JUMP JUMPDEST PUSH0 DUP3 DUP3 MSTORE PUSH1 0x20 DUP3 ADD SWAP1 POP SWAP3 SWAP2 POP POP JUMP JUMPDEST DUP3 DUP2 DUP4 MCOPY PUSH0 DUP4 DUP4 ADD MSTORE POP POP POP JUMP JUMPDEST PUSH0 PUSH1 0x1F NOT PUSH1 0x1F DUP4 ADD AND SWAP1 POP SWAP2 SWAP1 POP JUMP JUMPDEST PUSH0 PUSH2 0x557 DUP3 PUSH2 0x515 JUMP JUMPDEST PUSH2 0x561 DUP2 DUP6 PUSH2 0x51F JUMP JUMPDEST SWAP4 POP PUSH2 0x571 DUP2 DUP6 PUSH1 0x20 DUP7 ADD PUSH2 0x52F JUMP JUMPDEST PUSH2 0x57A DUP2 PUSH2 0x53D JUMP JUMPDEST DUP5 ADD SWAP2 POP POP SWAP3 SWAP2 POP POP JUMP JUMPDEST PUSH0 PUSH1 0x20 DUP3 ADD SWAP1 POP DUP2 DUP2 SUB PUSH0 DUP4 ADD MSTORE PUSH2 0x59D DUP2 DUP5 PUSH2 0x54D JUMP JUMPDEST SWAP1 POP SWAP3 SWAP2 POP POP JUMP JUMPDEST PUSH0 DUP2 SWAP1 POP SWAP2 SWAP1 POP JUMP JUMPDEST PUSH2 0x5B7 DUP2 PUSH2 0x5A5 JUMP JUMPDEST DUP3 MSTORE POP POP JUMP JUMPDEST PUSH0 PUSH1 0x20 DUP3 ADD SWAP1 POP PUSH2 0x5D0 PUSH0 DUP4 ADD DUP5 PUSH2 0x5AE JUMP JUMPDEST SWAP3 SWAP2 POP POP JUMP JUMPDEST PUSH0 PUSH20 0xFFFFFFFFFFFFFFFFFFFFFFFFFFFFFFFFFFFFFFFF DUP3 AND SWAP1 POP SWAP2 SWAP1 POP JUMP JUMPDEST PUSH0 PUSH2 0x5FF DUP3 PUSH2 0x5D6 JUMP JUMPDEST SWAP1 POP SWAP2 SWAP1 POP JUMP JUMPDEST PUSH2 0x60F DUP2 PUSH2 0x5F5 JUMP JUMPDEST DUP3 MSTORE POP POP JUMP JUMPDEST PUSH0 PUSH1 0x20 DUP3 ADD SWAP1 POP PUSH2 0x628 PUSH0 DUP4 ADD DUP5 PUSH2 0x606 JUMP JUMPDEST SWAP3 SWAP2 POP POP JUMP JUMPDEST PUSH0 PUSH0 REVERT JUMPDEST PUSH2 0x63B DUP2 PUSH2 0x5F5 JUMP JUMPDEST DUP2 EQ PUSH2 0x645 JUMPI PUSH0 PUSH0 REVERT JUMPDEST POP JUMP JUMPDEST PUSH0 DUP2 CALLDATALOAD SWAP1 POP PUSH2 0x656 DUP2 PUSH2 0x632 JUMP JUMPDEST SWAP3 SWAP2 POP POP JUMP JUMPDEST PUSH0 PUSH1 0x20 DUP3 DUP5 SUB SLT ISZERO PUSH2 0x671 JUMPI PUSH2 0x670 PUSH2 0x62E JUMP JUMPDEST JUMPDEST PUSH0 PUSH2 0x67E DUP5 DUP3 DUP6 ADD PUSH2 0x648 JUMP JUMPDEST SWAP2 POP POP SWAP3 SWAP2 POP POP JUMP JUMPDEST PUSH32 0x50726F706F73616C3A20416C7265616479206163636570746564000000000000 PUSH0 DUP3 ADD MSTORE POP JUMP JUMPDEST PUSH0 PUSH2 0x6BB PUSH1 0x1A DUP4 PUSH2 0x51F JUMP JUMPDEST SWAP2 POP PUSH2 0x6C6 DUP3 PUSH2 0x687 JUMP JUMPDEST PUSH1 0x20 DUP3 ADD SWAP1 POP SWAP2 SWAP1 POP JUMP JUMPDEST PUSH0 PUSH1 0x20 DUP3 ADD SWAP1 POP DUP2 DUP2 SUB PUSH0 DUP4 ADD MSTORE PUSH2 0x6E8 DUP2 PUSH2 0x6AF JUMP JUMPDEST SWAP1 POP SWAP2 SWAP1 POP JUMP JUMPDEST PUSH32 0x4E487B7100000000000000000000000000000000000000000000000000000000 PUSH0 MSTORE PUSH1 0x22 PUSH1 0x4 MSTORE PUSH1 0x24 PUSH0 REVERT JUMPDEST PUSH0 PUSH1 0x2 DUP3 DIV SWAP1 POP PUSH1 0x1 DUP3 AND DUP1 PUSH2 0x733 JUMPI PUSH1 0x7F DUP3 AND SWAP2 POP JUMPDEST PUSH1 0x20 DUP3 LT DUP2 SUB PUSH2 0x746 JUMPI PUSH2 0x745 PUSH2 0x6EF JUMP JUMPDEST JUMPDEST POP SWAP2 SWAP1 POP JUMP INVALID LOG2 PUSH5 0x6970667358 0x22 SLT KECCAK256 RETURNDATACOPY COINBASE MOD PUSH23 0x16F3E8C6E2B6ADC63D9EA9E2AA72E4914FC1D35255671F DUP6 MOD CALLVALUE SELFDESTRUCT SWAP4 PUSH5 0x736F6C6343 STOP ADDMOD 0x1E STOP CALLER "
				},
				"gasEstimates": {
					"creation": {
						"codeDepositCost": "384400",
						"executionCost": "infinite",
						"totalCost": "infinite"
					},
					"external": {
						"accept()": "infinite",
						"details()": "infinite",
						"isAccepted()": "2489",
						"owner()": "2536",
						"proposedCost()": "infinite",
						"renounceOwnership()": "infinite",
						"submitter()": "infinite",
						"transferOwnership(address)": "infinite"
					}
				},
				"methodIdentifiers": {
					"accept()": "2852b71c",
					"details()": "565974d3",
					"isAccepted()": "5051a5ec",
					"owner()": "8da5cb5b",
					"proposedCost()": "5b9c161a",
					"renounceOwnership()": "715018a6",
					"submitter()": "8dc45d9a",
					"transferOwnership(address)": "f2fde38b"
				}
			},
			"storageLayout": {
				"storage": [
					{
						"astId": 8,
						"contract": "contracts/utils/Proposal.sol:Proposal",
						"label": "_owner",
						"offset": 0,
						"slot": "0",
						"type": "t_address"
					},
					{
						"astId": 188,
						"contract": "contracts/utils/Proposal.sol:Proposal",
						"label": "details",
						"offset": 0,
						"slot": "1",
						"type": "t_string_storage"
					},
					{
						"astId": 190,
						"contract": "contracts/utils/Proposal.sol:Proposal",
						"label": "isAccepted",
						"offset": 0,
						"slot": "2",
						"type": "t_bool"
					}
				],
				"types": {
					"t_address": {
						"encoding": "inplace",
						"label": "address",
						"numberOfBytes": "20"
					},
					"t_bool": {
						"encoding": "inplace",
						"label": "bool",
						"numberOfBytes": "1"
					},
					"t_string_storage": {
						"encoding": "bytes",
						"label": "string",
						"numberOfBytes": "32"
					}
				}
			},
			"userdoc": {
				"kind": "user",
				"methods": {},
				"version": 1
			}
		}
	}
}