{
	"contracts/Governance/DisputeResolution.sol": {
		"DisputeResolution": {
			"abi": [
				{
					"inputs": [
						{
							"internalType": "address",
							"name": "_initialOwner",
							"type": "address"
						}
					],
					"stateMutability": "nonpayable",
					"type": "constructor"
				},
				{
					"inputs": [
						{
							"internalType": "address",
							"name": "owner",
							"type": "address"
						}
					],
					"name": "OwnableInvalidOwner",
					"type": "error"
				},
				{
					"inputs": [
						{
							"internalType": "address",
							"name": "account",
							"type": "address"
						}
					],
					"name": "OwnableUnauthorizedAccount",
					"type": "error"
				},
				{
					"anonymous": false,
					"inputs": [
						{
							"indexed": true,
							"internalType": "uint256",
							"name": "disputeId",
							"type": "uint256"
						},
						{
							"indexed": true,
							"internalType": "address",
							"name": "escrowContract",
							"type": "address"
						}
					],
					"name": "DisputeOpened",
					"type": "event"
				},
				{
					"anonymous": false,
					"inputs": [
						{
							"indexed": true,
							"internalType": "uint256",
							"name": "disputeId",
							"type": "uint256"
						},
						{
							"indexed": false,
							"internalType": "enum DisputeResolution.Verdict",
							"name": "verdict",
							"type": "uint8"
						}
					],
					"name": "DisputeResolved",
					"type": "event"
				},
				{
					"anonymous": false,
					"inputs": [
						{
							"indexed": true,
							"internalType": "address",
							"name": "previousOwner",
							"type": "address"
						},
						{
							"indexed": true,
							"internalType": "address",
							"name": "newOwner",
							"type": "address"
						}
					],
					"name": "OwnershipTransferred",
					"type": "event"
				},
				{
					"anonymous": false,
					"inputs": [
						{
							"indexed": true,
							"internalType": "uint256",
							"name": "disputeId",
							"type": "uint256"
						},
						{
							"indexed": true,
							"internalType": "address",
							"name": "juror",
							"type": "address"
						},
						{
							"indexed": false,
							"internalType": "enum DisputeResolution.Verdict",
							"name": "vote",
							"type": "uint8"
						}
					],
					"name": "VoteCast",
					"type": "event"
				},
				{
					"inputs": [
						{
							"internalType": "address",
							"name": "_juror",
							"type": "address"
						}
					],
					"name": "addJuror",
					"outputs": [],
					"stateMutability": "nonpayable",
					"type": "function"
				},
				{
					"inputs": [
						{
							"internalType": "uint256",
							"name": "_disputeId",
							"type": "uint256"
						},
						{
							"internalType": "enum DisputeResolution.Verdict",
							"name": "_vote",
							"type": "uint8"
						}
					],
					"name": "castVote",
					"outputs": [],
					"stateMutability": "nonpayable",
					"type": "function"
				},
				{
					"inputs": [],
					"name": "disputeCount",
					"outputs": [
						{
							"internalType": "uint256",
							"name": "",
							"type": "uint256"
						}
					],
					"stateMutability": "view",
					"type": "function"
				},
				{
					"inputs": [
						{
							"internalType": "uint256",
							"name": "",
							"type": "uint256"
						}
					],
					"name": "disputes",
					"outputs": [
						{
							"internalType": "address",
							"name": "escrowContract",
							"type": "address"
						},
						{
							"internalType": "address",
							"name": "plaintiff",
							"type": "address"
						},
						{
							"internalType": "address",
							"name": "defendant",
							"type": "address"
						},
						{
							"internalType": "uint256",
							"name": "plaintiffVotes",
							"type": "uint256"
						},
						{
							"internalType": "uint256",
							"name": "defendantVotes",
							"type": "uint256"
						},
						{
							"internalType": "enum DisputeResolution.DisputeStatus",
							"name": "status",
							"type": "uint8"
						},
						{
							"internalType": "enum DisputeResolution.Verdict",
							"name": "verdict",
							"type": "uint8"
						}
					],
					"stateMutability": "view",
					"type": "function"
				},
				{
					"inputs": [
						{
							"internalType": "uint256",
							"name": "",
							"type": "uint256"
						},
						{
							"internalType": "address",
							"name": "",
							"type": "address"
						}
					],
					"name": "hasJurorVoted",
					"outputs": [
						{
							"internalType": "bool",
							"name": "",
							"type": "bool"
						}
					],
					"stateMutability": "view",
					"type": "function"
				},
				{
					"inputs": [
						{
							"internalType": "address",
							"name": "",
							"type": "address"
						}
					],
					"name": "isJuror",
					"outputs": [
						{
							"internalType": "bool",
							"name": "",
							"type": "bool"
						}
					],
					"stateMutability": "view",
					"type": "function"
				},
				{
					"inputs": [
						{
							"internalType": "address",
							"name": "_escrowContract",
							"type": "address"
						},
						{
							"internalType": "address",
							"name": "_plaintiff",
							"type": "address"
						},
						{
							"internalType": "address",
							"name": "_defendant",
							"type": "address"
						}
					],
					"name": "openDispute",
					"outputs": [],
					"stateMutability": "nonpayable",
					"type": "function"
				},
				{
					"inputs": [],
					"name": "owner",
					"outputs": [
						{
							"internalType": "address",
							"name": "",
							"type": "address"
						}
					],
					"stateMutability": "view",
					"type": "function"
				},
				{
					"inputs": [
						{
							"internalType": "address",
							"name": "_juror",
							"type": "address"
						}
					],
					"name": "removeJuror",
					"outputs": [],
					"stateMutability": "nonpayable",
					"type": "function"
				},
				{
					"inputs": [],
					"name": "renounceOwnership",
					"outputs": [],
					"stateMutability": "nonpayable",
					"type": "function"
				},
				{
					"inputs": [
						{
							"internalType": "uint256",
							"name": "_disputeId",
							"type": "uint256"
						}
					],
					"name": "resolveDispute",
					"outputs": [],
					"stateMutability": "nonpayable",
					"type": "function"
				},
				{
					"inputs": [
						{
							"internalType": "address",
							"name": "newOwner",
							"type": "address"
						}
					],
					"name": "transferOwnership",
					"outputs": [],
					"stateMutability": "nonpayable",
					"type": "function"
				}
			],
			"devdoc": {
				"errors": {
					"OwnableInvalidOwner(address)": [
						{
							"details": "The owner is not a valid owner account. (eg. `address(0)`)"
						}
					],
					"OwnableUnauthorizedAccount(address)": [
						{
							"details": "The caller account is not authorized to perform an operation."
						}
					]
				},
				"kind": "dev",
				"methods": {
					"owner()": {
						"details": "Returns the address of the current owner."
					},
					"renounceOwnership()": {
						"details": "Leaves the contract without owner. It will not be possible to call `onlyOwner` functions. Can only be called by the current owner. NOTE: Renouncing ownership will leave the contract without an owner, thereby disabling any functionality that is only available to the owner."
					},
					"transferOwnership(address)": {
						"details": "Transfers ownership of the contract to a new account (`newOwner`). Can only be called by the current owner."
					}
				},
				"version": 1
			},
			"evm": {
				"assembly": "    /* \"contracts/Governance/DisputeResolution.sol\":143:2827  contract DisputeResolution is Ownable {... */\n  mstore(0x40, 0x80)\n    /* \"contracts/Governance/DisputeResolution.sol\":857:917  constructor(address _initialOwner) Ownable(_initialOwner) {} */\n  callvalue\n  dup1\n  iszero\n  tag_1\n  jumpi\n  revert(0x00, 0x00)\ntag_1:\n  pop\n  mload(0x40)\n  sub(codesize, bytecodeSize)\n  dup1\n  bytecodeSize\n  dup4\n  codecopy\n  dup2\n  dup2\n  add\n  0x40\n  mstore\n  dup2\n  add\n  swap1\n  tag_2\n  swap2\n  swap1\n  tag_3\n  jump\t// in\ntag_2:\n    /* \"contracts/Governance/DisputeResolution.sol\":900:913  _initialOwner */\n  dup1\n    /* \"@openzeppelin/contracts/access/Ownable.sol\":1297:1298  0 */\n  0x00\n    /* \"@openzeppelin/contracts/access/Ownable.sol\":1273:1299  initialOwner == address(0) */\n  0xffffffffffffffffffffffffffffffffffffffff\n  and\n    /* \"@openzeppelin/contracts/access/Ownable.sol\":1273:1285  initialOwner */\n  dup2\n    /* \"@openzeppelin/contracts/access/Ownable.sol\":1273:1299  initialOwner == address(0) */\n  0xffffffffffffffffffffffffffffffffffffffff\n  and\n  sub\n    /* \"@openzeppelin/contracts/access/Ownable.sol\":1269:1364  if (initialOwner == address(0)) {... */\n  tag_7\n  jumpi\n    /* \"@openzeppelin/contracts/access/Ownable.sol\":1350:1351  0 */\n  0x00\n    /* \"@openzeppelin/contracts/access/Ownable.sol\":1322:1353  OwnableInvalidOwner(address(0)) */\n  mload(0x40)\n  0x1e4fbdf700000000000000000000000000000000000000000000000000000000\n  dup2\n  mstore\n  0x04\n  add\n  tag_8\n  swap2\n  swap1\n  tag_9\n  jump\t// in\ntag_8:\n  mload(0x40)\n  dup1\n  swap2\n  sub\n  swap1\n  revert\n    /* \"@openzeppelin/contracts/access/Ownable.sol\":1269:1364  if (initialOwner == address(0)) {... */\ntag_7:\n    /* \"@openzeppelin/contracts/access/Ownable.sol\":1373:1405  _transferOwnership(initialOwner) */\n  tag_10\n    /* \"@openzeppelin/contracts/access/Ownable.sol\":1392:1404  initialOwner */\n  dup2\n    /* \"@openzeppelin/contracts/access/Ownable.sol\":1373:1391  _transferOwnership */\n  shl(0x20, tag_11)\n    /* \"@openzeppelin/contracts/access/Ownable.sol\":1373:1405  _transferOwnership(initialOwner) */\n  0x20\n  shr\n  jump\t// in\ntag_10:\n    /* \"@openzeppelin/contracts/access/Ownable.sol\":1225:1412  constructor(address initialOwner) {... */\n  pop\n    /* \"contracts/Governance/DisputeResolution.sol\":857:917  constructor(address _initialOwner) Ownable(_initialOwner) {} */\n  pop\n    /* \"contracts/Governance/DisputeResolution.sol\":143:2827  contract DisputeResolution is Ownable {... */\n  jump(tag_13)\n    /* \"@openzeppelin/contracts/access/Ownable.sol\":2912:3099  function _transferOwnership(address newOwner) internal virtual {... */\ntag_11:\n    /* \"@openzeppelin/contracts/access/Ownable.sol\":2985:3001  address oldOwner */\n  0x00\n    /* \"@openzeppelin/contracts/access/Ownable.sol\":3004:3010  _owner */\n  0x00\n  0x00\n  swap1\n  sload\n  swap1\n  0x0100\n  exp\n  swap1\n  div\n  0xffffffffffffffffffffffffffffffffffffffff\n  and\n    /* \"@openzeppelin/contracts/access/Ownable.sol\":2985:3010  address oldOwner = _owner */\n  swap1\n  pop\n    /* \"@openzeppelin/contracts/access/Ownable.sol\":3029:3037  newOwner */\n  dup2\n    /* \"@openzeppelin/contracts/access/Ownable.sol\":3020:3026  _owner */\n  0x00\n  0x00\n    /* \"@openzeppelin/contracts/access/Ownable.sol\":3020:3037  _owner = newOwner */\n  0x0100\n  exp\n  dup2\n  sload\n  dup2\n  0xffffffffffffffffffffffffffffffffffffffff\n  mul\n  not\n  and\n  swap1\n  dup4\n  0xffffffffffffffffffffffffffffffffffffffff\n  and\n  mul\n  or\n  swap1\n  sstore\n  pop\n    /* \"@openzeppelin/contracts/access/Ownable.sol\":3083:3091  newOwner */\n  dup2\n    /* \"@openzeppelin/contracts/access/Ownable.sol\":3052:3092  OwnershipTransferred(oldOwner, newOwner) */\n  0xffffffffffffffffffffffffffffffffffffffff\n  and\n    /* \"@openzeppelin/contracts/access/Ownable.sol\":3073:3081  oldOwner */\n  dup2\n    /* \"@openzeppelin/contracts/access/Ownable.sol\":3052:3092  OwnershipTransferred(oldOwner, newOwner) */\n  0xffffffffffffffffffffffffffffffffffffffff\n  and\n  0x8be0079c531659141344cd1fd0a4f28419497f9722a3daafe3b4186f6b6457e0\n  mload(0x40)\n  mload(0x40)\n  dup1\n  swap2\n  sub\n  swap1\n  log3\n    /* \"@openzeppelin/contracts/access/Ownable.sol\":2975:3099  {... */\n  pop\n    /* \"@openzeppelin/contracts/access/Ownable.sol\":2912:3099  function _transferOwnership(address newOwner) internal virtual {... */\n  pop\n  jump\t// out\n    /* \"#utility.yul\":88:205   */\ntag_16:\n    /* \"#utility.yul\":197:198   */\n  0x00\n    /* \"#utility.yul\":194:195   */\n  0x00\n    /* \"#utility.yul\":187:199   */\n  revert\n    /* \"#utility.yul\":334:460   */\ntag_18:\n    /* \"#utility.yul\":371:378   */\n  0x00\n    /* \"#utility.yul\":411:453   */\n  0xffffffffffffffffffffffffffffffffffffffff\n    /* \"#utility.yul\":404:409   */\n  dup3\n    /* \"#utility.yul\":400:454   */\n  and\n    /* \"#utility.yul\":389:454   */\n  swap1\n  pop\n    /* \"#utility.yul\":334:460   */\n  swap2\n  swap1\n  pop\n  jump\t// out\n    /* \"#utility.yul\":466:562   */\ntag_19:\n    /* \"#utility.yul\":503:510   */\n  0x00\n    /* \"#utility.yul\":532:556   */\n  tag_29\n    /* \"#utility.yul\":550:555   */\n  dup3\n    /* \"#utility.yul\":532:556   */\n  tag_18\n  jump\t// in\ntag_29:\n    /* \"#utility.yul\":521:556   */\n  swap1\n  pop\n    /* \"#utility.yul\":466:562   */\n  swap2\n  swap1\n  pop\n  jump\t// out\n    /* \"#utility.yul\":568:690   */\ntag_20:\n    /* \"#utility.yul\":641:665   */\n  tag_31\n    /* \"#utility.yul\":659:664   */\n  dup2\n    /* \"#utility.yul\":641:665   */\n  tag_19\n  jump\t// in\ntag_31:\n    /* \"#utility.yul\":634:639   */\n  dup2\n    /* \"#utility.yul\":631:666   */\n  eq\n    /* \"#utility.yul\":621:684   */\n  tag_32\n  jumpi\n    /* \"#utility.yul\":680:681   */\n  0x00\n    /* \"#utility.yul\":677:678   */\n  0x00\n    /* \"#utility.yul\":670:682   */\n  revert\n    /* \"#utility.yul\":621:684   */\ntag_32:\n    /* \"#utility.yul\":568:690   */\n  pop\n  jump\t// out\n    /* \"#utility.yul\":696:839   */\ntag_21:\n    /* \"#utility.yul\":753:758   */\n  0x00\n    /* \"#utility.yul\":784:790   */\n  dup2\n    /* \"#utility.yul\":778:791   */\n  mload\n    /* \"#utility.yul\":769:791   */\n  swap1\n  pop\n    /* \"#utility.yul\":800:833   */\n  tag_34\n    /* \"#utility.yul\":827:832   */\n  dup2\n    /* \"#utility.yul\":800:833   */\n  tag_20\n  jump\t// in\ntag_34:\n    /* \"#utility.yul\":696:839   */\n  swap3\n  swap2\n  pop\n  pop\n  jump\t// out\n    /* \"#utility.yul\":845:1196   */\ntag_3:\n    /* \"#utility.yul\":915:921   */\n  0x00\n    /* \"#utility.yul\":964:966   */\n  0x20\n    /* \"#utility.yul\":952:961   */\n  dup3\n    /* \"#utility.yul\":943:950   */\n  dup5\n    /* \"#utility.yul\":939:962   */\n  sub\n    /* \"#utility.yul\":935:967   */\n  slt\n    /* \"#utility.yul\":932:1051   */\n  iszero\n  tag_36\n  jumpi\n    /* \"#utility.yul\":970:1049   */\n  tag_37\n  tag_16\n  jump\t// in\ntag_37:\n    /* \"#utility.yul\":932:1051   */\ntag_36:\n    /* \"#utility.yul\":1090:1091   */\n  0x00\n    /* \"#utility.yul\":1115:1179   */\n  tag_38\n    /* \"#utility.yul\":1171:1178   */\n  dup5\n    /* \"#utility.yul\":1162:1168   */\n  dup3\n    /* \"#utility.yul\":1151:1160   */\n  dup6\n    /* \"#utility.yul\":1147:1169   */\n  add\n    /* \"#utility.yul\":1115:1179   */\n  tag_21\n  jump\t// in\ntag_38:\n    /* \"#utility.yul\":1105:1179   */\n  swap2\n  pop\n    /* \"#utility.yul\":1061:1189   */\n  pop\n    /* \"#utility.yul\":845:1196   */\n  swap3\n  swap2\n  pop\n  pop\n  jump\t// out\n    /* \"#utility.yul\":1202:1320   */\ntag_22:\n    /* \"#utility.yul\":1289:1313   */\n  tag_40\n    /* \"#utility.yul\":1307:1312   */\n  dup2\n    /* \"#utility.yul\":1289:1313   */\n  tag_19\n  jump\t// in\ntag_40:\n    /* \"#utility.yul\":1284:1287   */\n  dup3\n    /* \"#utility.yul\":1277:1314   */\n  mstore\n    /* \"#utility.yul\":1202:1320   */\n  pop\n  pop\n  jump\t// out\n    /* \"#utility.yul\":1326:1548   */\ntag_9:\n    /* \"#utility.yul\":1419:1423   */\n  0x00\n    /* \"#utility.yul\":1457:1459   */\n  0x20\n    /* \"#utility.yul\":1446:1455   */\n  dup3\n    /* \"#utility.yul\":1442:1460   */\n  add\n    /* \"#utility.yul\":1434:1460   */\n  swap1\n  pop\n    /* \"#utility.yul\":1470:1541   */\n  tag_42\n    /* \"#utility.yul\":1538:1539   */\n  0x00\n    /* \"#utility.yul\":1527:1536   */\n  dup4\n    /* \"#utility.yul\":1523:1540   */\n  add\n    /* \"#utility.yul\":1514:1520   */\n  dup5\n    /* \"#utility.yul\":1470:1541   */\n  tag_22\n  jump\t// in\ntag_42:\n    /* \"#utility.yul\":1326:1548   */\n  swap3\n  swap2\n  pop\n  pop\n  jump\t// out\n    /* \"contracts/Governance/DisputeResolution.sol\":143:2827  contract DisputeResolution is Ownable {... */\ntag_13:\n  dataSize(sub_0)\n  dup1\n  dataOffset(sub_0)\n  0x00\n  codecopy\n  0x00\n  return\nstop\n\nsub_0: assembly {\n        /* \"contracts/Governance/DisputeResolution.sol\":143:2827  contract DisputeResolution is Ownable {... */\n      mstore(0x40, 0x80)\n      callvalue\n      dup1\n      iszero\n      tag_1\n      jumpi\n      revert(0x00, 0x00)\n    tag_1:\n      pop\n      jumpi(tag_2, lt(calldatasize, 0x04))\n      shr(0xe0, calldataload(0x00))\n      dup1\n      0x8da5cb5b\n      gt\n      tag_15\n      jumpi\n      dup1\n      0x8da5cb5b\n      eq\n      tag_9\n      jumpi\n      dup1\n      0xa28889e1\n      eq\n      tag_10\n      jumpi\n      dup1\n      0xc2b7b868\n      eq\n      tag_11\n      jumpi\n      dup1\n      0xcb552b46\n      eq\n      tag_12\n      jumpi\n      dup1\n      0xf2fde38b\n      eq\n      tag_13\n      jumpi\n      dup1\n      0xf6cd25f0\n      eq\n      tag_14\n      jumpi\n      jump(tag_2)\n    tag_15:\n      dup1\n      0x15b39b68\n      eq\n      tag_3\n      jumpi\n      dup1\n      0x2037a7aa\n      eq\n      tag_4\n      jumpi\n      dup1\n      0x564a565d\n      eq\n      tag_5\n      jumpi\n      dup1\n      0x56781388\n      eq\n      tag_6\n      jumpi\n      dup1\n      0x6c8dc288\n      eq\n      tag_7\n      jumpi\n      dup1\n      0x715018a6\n      eq\n      tag_8\n      jumpi\n    tag_2:\n      revert(0x00, 0x00)\n        /* \"contracts/Governance/DisputeResolution.sol\":923:1348  function openDispute(address _escrowContract, address _plaintiff, address _defendant) external onlyOwner {... */\n    tag_3:\n      tag_16\n      0x04\n      dup1\n      calldatasize\n      sub\n      dup2\n      add\n      swap1\n      tag_17\n      swap2\n      swap1\n      tag_18\n      jump\t// in\n    tag_17:\n      tag_19\n      jump\t// in\n    tag_16:\n      stop\n        /* \"contracts/Governance/DisputeResolution.sol\":456:495  mapping(address => bool) public isJuror */\n    tag_4:\n      tag_20\n      0x04\n      dup1\n      calldatasize\n      sub\n      dup2\n      add\n      swap1\n      tag_21\n      swap2\n      swap1\n      tag_22\n      jump\t// in\n    tag_21:\n      tag_23\n      jump\t// in\n    tag_20:\n      mload(0x40)\n      tag_24\n      swap2\n      swap1\n      tag_25\n      jump\t// in\n    tag_24:\n      mload(0x40)\n      dup1\n      swap2\n      sub\n      swap1\n      return\n        /* \"contracts/Governance/DisputeResolution.sol\":523:563  mapping(uint => Dispute) public disputes */\n    tag_5:\n      tag_26\n      0x04\n      dup1\n      calldatasize\n      sub\n      dup2\n      add\n      swap1\n      tag_27\n      swap2\n      swap1\n      tag_28\n      jump\t// in\n    tag_27:\n      tag_29\n      jump\t// in\n    tag_26:\n      mload(0x40)\n      tag_30\n      swap8\n      swap7\n      swap6\n      swap5\n      swap4\n      swap3\n      swap2\n      swap1\n      tag_31\n      jump\t// in\n    tag_30:\n      mload(0x40)\n      dup1\n      swap2\n      sub\n      swap1\n      return\n        /* \"contracts/Governance/DisputeResolution.sol\":1354:2004  function castVote(uint _disputeId, Verdict _vote) external {... */\n    tag_6:\n      tag_32\n      0x04\n      dup1\n      calldatasize\n      sub\n      dup2\n      add\n      swap1\n      tag_33\n      swap2\n      swap1\n      tag_34\n      jump\t// in\n    tag_33:\n      tag_35\n      jump\t// in\n    tag_32:\n      stop\n        /* \"contracts/Governance/DisputeResolution.sol\":565:627  mapping(uint => mapping(address => bool)) public hasJurorVoted */\n    tag_7:\n      tag_36\n      0x04\n      dup1\n      calldatasize\n      sub\n      dup2\n      add\n      swap1\n      tag_37\n      swap2\n      swap1\n      tag_38\n      jump\t// in\n    tag_37:\n      tag_39\n      jump\t// in\n    tag_36:\n      mload(0x40)\n      tag_40\n      swap2\n      swap1\n      tag_25\n      jump\t// in\n    tag_40:\n      mload(0x40)\n      dup1\n      swap2\n      sub\n      swap1\n      return\n        /* \"@openzeppelin/contracts/access/Ownable.sol\":2293:2394  function renounceOwnership() public virtual onlyOwner {... */\n    tag_8:\n      tag_41\n      tag_42\n      jump\t// in\n    tag_41:\n      stop\n        /* \"@openzeppelin/contracts/access/Ownable.sol\":1638:1723  function owner() public view virtual returns (address) {... */\n    tag_9:\n      tag_43\n      tag_44\n      jump\t// in\n    tag_43:\n      mload(0x40)\n      tag_45\n      swap2\n      swap1\n      tag_46\n      jump\t// in\n    tag_45:\n      mload(0x40)\n      dup1\n      swap2\n      sub\n      swap1\n      return\n        /* \"contracts/Governance/DisputeResolution.sol\":497:521  uint public disputeCount */\n    tag_10:\n      tag_47\n      tag_48\n      jump\t// in\n    tag_47:\n      mload(0x40)\n      tag_49\n      swap2\n      swap1\n      tag_50\n      jump\t// in\n    tag_49:\n      mload(0x40)\n      dup1\n      swap2\n      sub\n      swap1\n      return\n        /* \"contracts/Governance/DisputeResolution.sol\":2010:2648  function resolveDispute(uint _disputeId) external onlyOwner {... */\n    tag_11:\n      tag_51\n      0x04\n      dup1\n      calldatasize\n      sub\n      dup2\n      add\n      swap1\n      tag_52\n      swap2\n      swap1\n      tag_28\n      jump\t// in\n    tag_52:\n      tag_53\n      jump\t// in\n    tag_51:\n      stop\n        /* \"contracts/Governance/DisputeResolution.sol\":2654:2734  function addJuror(address _juror) external onlyOwner { isJuror[_juror] = true; } */\n    tag_12:\n      tag_54\n      0x04\n      dup1\n      calldatasize\n      sub\n      dup2\n      add\n      swap1\n      tag_55\n      swap2\n      swap1\n      tag_22\n      jump\t// in\n    tag_55:\n      tag_56\n      jump\t// in\n    tag_54:\n      stop\n        /* \"@openzeppelin/contracts/access/Ownable.sol\":2543:2758  function transferOwnership(address newOwner) public virtual onlyOwner {... */\n    tag_13:\n      tag_57\n      0x04\n      dup1\n      calldatasize\n      sub\n      dup2\n      add\n      swap1\n      tag_58\n      swap2\n      swap1\n      tag_22\n      jump\t// in\n    tag_58:\n      tag_59\n      jump\t// in\n    tag_57:\n      stop\n        /* \"contracts/Governance/DisputeResolution.sol\":2740:2824  function removeJuror(address _juror) external onlyOwner { isJuror[_juror] = false; } */\n    tag_14:\n      tag_60\n      0x04\n      dup1\n      calldatasize\n      sub\n      dup2\n      add\n      swap1\n      tag_61\n      swap2\n      swap1\n      tag_22\n      jump\t// in\n    tag_61:\n      tag_62\n      jump\t// in\n    tag_60:\n      stop\n        /* \"contracts/Governance/DisputeResolution.sol\":923:1348  function openDispute(address _escrowContract, address _plaintiff, address _defendant) external onlyOwner {... */\n    tag_19:\n        /* \"@openzeppelin/contracts/access/Ownable.sol\":1531:1544  _checkOwner() */\n      tag_64\n        /* \"@openzeppelin/contracts/access/Ownable.sol\":1531:1542  _checkOwner */\n      tag_65\n        /* \"@openzeppelin/contracts/access/Ownable.sol\":1531:1544  _checkOwner() */\n      jump\t// in\n    tag_64:\n        /* \"contracts/Governance/DisputeResolution.sol\":1039:1051  disputeCount */\n      0x02\n      0x00\n        /* \"contracts/Governance/DisputeResolution.sol\":1039:1053  disputeCount++ */\n      dup2\n      sload\n      dup1\n      swap3\n      swap2\n      swap1\n      tag_67\n      swap1\n      tag_68\n      jump\t// in\n    tag_67:\n      swap2\n      swap1\n      pop\n      sstore\n      pop\n        /* \"contracts/Governance/DisputeResolution.sol\":1055:1062  uint id */\n      0x00\n        /* \"contracts/Governance/DisputeResolution.sol\":1065:1077  disputeCount */\n      sload(0x02)\n        /* \"contracts/Governance/DisputeResolution.sol\":1055:1077  uint id = disputeCount */\n      swap1\n      pop\n        /* \"contracts/Governance/DisputeResolution.sol\":1103:1290  Dispute({ escrowContract: _escrowContract, plaintiff: _plaintiff, defendant: _defendant, plaintiffVotes: 0, defendantVotes: 0, status: DisputeStatus.Voting, verdict: Verdict.Unresolved }) */\n      mload(0x40)\n      dup1\n      0xe0\n      add\n      0x40\n      mstore\n      dup1\n        /* \"contracts/Governance/DisputeResolution.sol\":1129:1144  _escrowContract */\n      dup6\n        /* \"contracts/Governance/DisputeResolution.sol\":1103:1290  Dispute({ escrowContract: _escrowContract, plaintiff: _plaintiff, defendant: _defendant, plaintiffVotes: 0, defendantVotes: 0, status: DisputeStatus.Voting, verdict: Verdict.Unresolved }) */\n      0xffffffffffffffffffffffffffffffffffffffff\n      and\n      dup2\n      mstore\n      0x20\n      add\n        /* \"contracts/Governance/DisputeResolution.sol\":1157:1167  _plaintiff */\n      dup5\n        /* \"contracts/Governance/DisputeResolution.sol\":1103:1290  Dispute({ escrowContract: _escrowContract, plaintiff: _plaintiff, defendant: _defendant, plaintiffVotes: 0, defendantVotes: 0, status: DisputeStatus.Voting, verdict: Verdict.Unresolved }) */\n      0xffffffffffffffffffffffffffffffffffffffff\n      and\n      dup2\n      mstore\n      0x20\n      add\n        /* \"contracts/Governance/DisputeResolution.sol\":1180:1190  _defendant */\n      dup4\n        /* \"contracts/Governance/DisputeResolution.sol\":1103:1290  Dispute({ escrowContract: _escrowContract, plaintiff: _plaintiff, defendant: _defendant, plaintiffVotes: 0, defendantVotes: 0, status: DisputeStatus.Voting, verdict: Verdict.Unresolved }) */\n      0xffffffffffffffffffffffffffffffffffffffff\n      and\n      dup2\n      mstore\n      0x20\n      add\n        /* \"contracts/Governance/DisputeResolution.sol\":1208:1209  0 */\n      0x00\n        /* \"contracts/Governance/DisputeResolution.sol\":1103:1290  Dispute({ escrowContract: _escrowContract, plaintiff: _plaintiff, defendant: _defendant, plaintiffVotes: 0, defendantVotes: 0, status: DisputeStatus.Voting, verdict: Verdict.Unresolved }) */\n      dup2\n      mstore\n      0x20\n      add\n        /* \"contracts/Governance/DisputeResolution.sol\":1227:1228  0 */\n      0x00\n        /* \"contracts/Governance/DisputeResolution.sol\":1103:1290  Dispute({ escrowContract: _escrowContract, plaintiff: _plaintiff, defendant: _defendant, plaintiffVotes: 0, defendantVotes: 0, status: DisputeStatus.Voting, verdict: Verdict.Unresolved }) */\n      dup2\n      mstore\n      0x20\n      add\n        /* \"contracts/Governance/DisputeResolution.sol\":1238:1258  DisputeStatus.Voting */\n      0x00\n        /* \"contracts/Governance/DisputeResolution.sol\":1103:1290  Dispute({ escrowContract: _escrowContract, plaintiff: _plaintiff, defendant: _defendant, plaintiffVotes: 0, defendantVotes: 0, status: DisputeStatus.Voting, verdict: Verdict.Unresolved }) */\n      0x01\n      dup2\n      gt\n      iszero\n      tag_69\n      jumpi\n      tag_70\n      tag_71\n      jump\t// in\n    tag_70:\n    tag_69:\n      dup2\n      mstore\n      0x20\n      add\n        /* \"contracts/Governance/DisputeResolution.sol\":1269:1287  Verdict.Unresolved */\n      0x00\n        /* \"contracts/Governance/DisputeResolution.sol\":1103:1290  Dispute({ escrowContract: _escrowContract, plaintiff: _plaintiff, defendant: _defendant, plaintiffVotes: 0, defendantVotes: 0, status: DisputeStatus.Voting, verdict: Verdict.Unresolved }) */\n      0x02\n      dup2\n      gt\n      iszero\n      tag_72\n      jumpi\n      tag_73\n      tag_71\n      jump\t// in\n    tag_73:\n    tag_72:\n      dup2\n      mstore\n      pop\n        /* \"contracts/Governance/DisputeResolution.sol\":1088:1096  disputes */\n      0x03\n        /* \"contracts/Governance/DisputeResolution.sol\":1088:1100  disputes[id] */\n      0x00\n        /* \"contracts/Governance/DisputeResolution.sol\":1097:1099  id */\n      dup4\n        /* \"contracts/Governance/DisputeResolution.sol\":1088:1100  disputes[id] */\n      dup2\n      mstore\n      0x20\n      add\n      swap1\n      dup2\n      mstore\n      0x20\n      add\n      0x00\n      keccak256\n        /* \"contracts/Governance/DisputeResolution.sol\":1088:1290  disputes[id] = Dispute({ escrowContract: _escrowContract, plaintiff: _plaintiff, defendant: _defendant, plaintiffVotes: 0, defendantVotes: 0, status: DisputeStatus.Voting, verdict: Verdict.Unresolved }) */\n      0x00\n      dup3\n      add\n      mload\n      dup2\n      0x00\n      add\n      exp(0x0100, 0x00)\n      dup2\n      sload\n      dup2\n      0xffffffffffffffffffffffffffffffffffffffff\n      mul\n      not\n      and\n      swap1\n      dup4\n      0xffffffffffffffffffffffffffffffffffffffff\n      and\n      mul\n      or\n      swap1\n      sstore\n      pop\n      0x20\n      dup3\n      add\n      mload\n      dup2\n      0x01\n      add\n      exp(0x0100, 0x00)\n      dup2\n      sload\n      dup2\n      0xffffffffffffffffffffffffffffffffffffffff\n      mul\n      not\n      and\n      swap1\n      dup4\n      0xffffffffffffffffffffffffffffffffffffffff\n      and\n      mul\n      or\n      swap1\n      sstore\n      pop\n      0x40\n      dup3\n      add\n      mload\n      dup2\n      0x02\n      add\n      exp(0x0100, 0x00)\n      dup2\n      sload\n      dup2\n      0xffffffffffffffffffffffffffffffffffffffff\n      mul\n      not\n      and\n      swap1\n      dup4\n      0xffffffffffffffffffffffffffffffffffffffff\n      and\n      mul\n      or\n      swap1\n      sstore\n      pop\n      0x60\n      dup3\n      add\n      mload\n      dup2\n      0x03\n      add\n      sstore\n      0x80\n      dup3\n      add\n      mload\n      dup2\n      0x04\n      add\n      sstore\n      0xa0\n      dup3\n      add\n      mload\n      dup2\n      0x05\n      add\n      exp(0x0100, 0x00)\n      dup2\n      sload\n      dup2\n      0xff\n      mul\n      not\n      and\n      swap1\n      dup4\n      0x01\n      dup2\n      gt\n      iszero\n      tag_74\n      jumpi\n      tag_75\n      tag_71\n      jump\t// in\n    tag_75:\n    tag_74:\n      mul\n      or\n      swap1\n      sstore\n      pop\n      0xc0\n      dup3\n      add\n      mload\n      dup2\n      0x05\n      add\n      exp(0x0100, 0x01)\n      dup2\n      sload\n      dup2\n      0xff\n      mul\n      not\n      and\n      swap1\n      dup4\n      0x02\n      dup2\n      gt\n      iszero\n      tag_76\n      jumpi\n      tag_77\n      tag_71\n      jump\t// in\n    tag_77:\n    tag_76:\n      mul\n      or\n      swap1\n      sstore\n      pop\n      swap1\n      pop\n      pop\n        /* \"contracts/Governance/DisputeResolution.sol\":1324:1339  _escrowContract */\n      dup4\n        /* \"contracts/Governance/DisputeResolution.sol\":1306:1340  DisputeOpened(id, _escrowContract) */\n      0xffffffffffffffffffffffffffffffffffffffff\n      and\n        /* \"contracts/Governance/DisputeResolution.sol\":1320:1322  id */\n      dup2\n        /* \"contracts/Governance/DisputeResolution.sol\":1306:1340  DisputeOpened(id, _escrowContract) */\n      0x44f3c3ed15c708331582bc379d28659a58f183a563abe41aa4c8889db469f71c\n      mload(0x40)\n      mload(0x40)\n      dup1\n      swap2\n      sub\n      swap1\n      log3\n        /* \"contracts/Governance/DisputeResolution.sol\":1028:1348  {... */\n      pop\n        /* \"contracts/Governance/DisputeResolution.sol\":923:1348  function openDispute(address _escrowContract, address _plaintiff, address _defendant) external onlyOwner {... */\n      pop\n      pop\n      pop\n      jump\t// out\n        /* \"contracts/Governance/DisputeResolution.sol\":456:495  mapping(address => bool) public isJuror */\n    tag_23:\n      mstore(0x20, 0x01)\n      dup1\n      0x00\n      mstore\n      keccak256(0x00, 0x40)\n      0x00\n      swap2\n      pop\n      sload\n      swap1\n      0x0100\n      exp\n      swap1\n      div\n      0xff\n      and\n      dup2\n      jump\t// out\n        /* \"contracts/Governance/DisputeResolution.sol\":523:563  mapping(uint => Dispute) public disputes */\n    tag_29:\n      mstore(0x20, 0x03)\n      dup1\n      0x00\n      mstore\n      keccak256(0x00, 0x40)\n      0x00\n      swap2\n      pop\n      swap1\n      pop\n      dup1\n      0x00\n      add\n      0x00\n      swap1\n      sload\n      swap1\n      0x0100\n      exp\n      swap1\n      div\n      0xffffffffffffffffffffffffffffffffffffffff\n      and\n      swap1\n      dup1\n      0x01\n      add\n      0x00\n      swap1\n      sload\n      swap1\n      0x0100\n      exp\n      swap1\n      div\n      0xffffffffffffffffffffffffffffffffffffffff\n      and\n      swap1\n      dup1\n      0x02\n      add\n      0x00\n      swap1\n      sload\n      swap1\n      0x0100\n      exp\n      swap1\n      div\n      0xffffffffffffffffffffffffffffffffffffffff\n      and\n      swap1\n      dup1\n      0x03\n      add\n      sload\n      swap1\n      dup1\n      0x04\n      add\n      sload\n      swap1\n      dup1\n      0x05\n      add\n      0x00\n      swap1\n      sload\n      swap1\n      0x0100\n      exp\n      swap1\n      div\n      0xff\n      and\n      swap1\n      dup1\n      0x05\n      add\n      0x01\n      swap1\n      sload\n      swap1\n      0x0100\n      exp\n      swap1\n      div\n      0xff\n      and\n      swap1\n      pop\n      dup8\n      jump\t// out\n        /* \"contracts/Governance/DisputeResolution.sol\":1354:2004  function castVote(uint _disputeId, Verdict _vote) external {... */\n    tag_35:\n        /* \"contracts/Governance/DisputeResolution.sol\":1432:1439  isJuror */\n      0x01\n        /* \"contracts/Governance/DisputeResolution.sol\":1432:1451  isJuror[msg.sender] */\n      0x00\n        /* \"contracts/Governance/DisputeResolution.sol\":1440:1450  msg.sender */\n      caller\n        /* \"contracts/Governance/DisputeResolution.sol\":1432:1451  isJuror[msg.sender] */\n      0xffffffffffffffffffffffffffffffffffffffff\n      and\n      0xffffffffffffffffffffffffffffffffffffffff\n      and\n      dup2\n      mstore\n      0x20\n      add\n      swap1\n      dup2\n      mstore\n      0x20\n      add\n      0x00\n      keccak256\n      0x00\n      swap1\n      sload\n      swap1\n      0x0100\n      exp\n      swap1\n      div\n      0xff\n      and\n        /* \"contracts/Governance/DisputeResolution.sol\":1424:1476  require(isJuror[msg.sender], \"Dispute: Not a juror\") */\n      tag_79\n      jumpi\n      mload(0x40)\n      0x08c379a000000000000000000000000000000000000000000000000000000000\n      dup2\n      mstore\n      0x04\n      add\n      tag_80\n      swap1\n      tag_81\n      jump\t// in\n    tag_80:\n      mload(0x40)\n      dup1\n      swap2\n      sub\n      swap1\n      revert\n    tag_79:\n        /* \"contracts/Governance/DisputeResolution.sol\":1478:1501  Dispute storage dispute */\n      0x00\n        /* \"contracts/Governance/DisputeResolution.sol\":1504:1512  disputes */\n      0x03\n        /* \"contracts/Governance/DisputeResolution.sol\":1504:1524  disputes[_disputeId] */\n      0x00\n        /* \"contracts/Governance/DisputeResolution.sol\":1513:1523  _disputeId */\n      dup5\n        /* \"contracts/Governance/DisputeResolution.sol\":1504:1524  disputes[_disputeId] */\n      dup2\n      mstore\n      0x20\n      add\n      swap1\n      dup2\n      mstore\n      0x20\n      add\n      0x00\n      keccak256\n        /* \"contracts/Governance/DisputeResolution.sol\":1478:1524  Dispute storage dispute = disputes[_disputeId] */\n      swap1\n      pop\n        /* \"contracts/Governance/DisputeResolution.sol\":1552:1572  DisputeStatus.Voting */\n      0x00\n        /* \"contracts/Governance/DisputeResolution.sol\":1534:1572  dispute.status == DisputeStatus.Voting */\n      0x01\n      dup2\n      gt\n      iszero\n      tag_82\n      jumpi\n      tag_83\n      tag_71\n      jump\t// in\n    tag_83:\n    tag_82:\n        /* \"contracts/Governance/DisputeResolution.sol\":1534:1541  dispute */\n      dup2\n        /* \"contracts/Governance/DisputeResolution.sol\":1534:1548  dispute.status */\n      0x05\n      add\n      0x00\n      swap1\n      sload\n      swap1\n      0x0100\n      exp\n      swap1\n      div\n      0xff\n      and\n        /* \"contracts/Governance/DisputeResolution.sol\":1534:1572  dispute.status == DisputeStatus.Voting */\n      0x01\n      dup2\n      gt\n      iszero\n      tag_84\n      jumpi\n      tag_85\n      tag_71\n      jump\t// in\n    tag_85:\n    tag_84:\n      eq\n        /* \"contracts/Governance/DisputeResolution.sol\":1526:1603  require(dispute.status == DisputeStatus.Voting, \"Dispute: Voting not active\") */\n      tag_86\n      jumpi\n      mload(0x40)\n      0x08c379a000000000000000000000000000000000000000000000000000000000\n      dup2\n      mstore\n      0x04\n      add\n      tag_87\n      swap1\n      tag_88\n      jump\t// in\n    tag_87:\n      mload(0x40)\n      dup1\n      swap2\n      sub\n      swap1\n      revert\n    tag_86:\n        /* \"contracts/Governance/DisputeResolution.sol\":1614:1627  hasJurorVoted */\n      0x04\n        /* \"contracts/Governance/DisputeResolution.sol\":1614:1639  hasJurorVoted[_disputeId] */\n      0x00\n        /* \"contracts/Governance/DisputeResolution.sol\":1628:1638  _disputeId */\n      dup5\n        /* \"contracts/Governance/DisputeResolution.sol\":1614:1639  hasJurorVoted[_disputeId] */\n      dup2\n      mstore\n      0x20\n      add\n      swap1\n      dup2\n      mstore\n      0x20\n      add\n      0x00\n      keccak256\n        /* \"contracts/Governance/DisputeResolution.sol\":1614:1651  hasJurorVoted[_disputeId][msg.sender] */\n      0x00\n        /* \"contracts/Governance/DisputeResolution.sol\":1640:1650  msg.sender */\n      caller\n        /* \"contracts/Governance/DisputeResolution.sol\":1614:1651  hasJurorVoted[_disputeId][msg.sender] */\n      0xffffffffffffffffffffffffffffffffffffffff\n      and\n      0xffffffffffffffffffffffffffffffffffffffff\n      and\n      dup2\n      mstore\n      0x20\n      add\n      swap1\n      dup2\n      mstore\n      0x20\n      add\n      0x00\n      keccak256\n      0x00\n      swap1\n      sload\n      swap1\n      0x0100\n      exp\n      swap1\n      div\n      0xff\n      and\n        /* \"contracts/Governance/DisputeResolution.sol\":1613:1651  !hasJurorVoted[_disputeId][msg.sender] */\n      iszero\n        /* \"contracts/Governance/DisputeResolution.sol\":1605:1688  require(!hasJurorVoted[_disputeId][msg.sender], \"Dispute: Juror has already voted\") */\n      tag_89\n      jumpi\n      mload(0x40)\n      0x08c379a000000000000000000000000000000000000000000000000000000000\n      dup2\n      mstore\n      0x04\n      add\n      tag_90\n      swap1\n      tag_91\n      jump\t// in\n    tag_90:\n      mload(0x40)\n      dup1\n      swap2\n      sub\n      swap1\n      revert\n    tag_89:\n        /* \"contracts/Governance/DisputeResolution.sol\":1707:1727  Verdict.ForPlaintiff */\n      0x01\n        /* \"contracts/Governance/DisputeResolution.sol\":1698:1727  _vote == Verdict.ForPlaintiff */\n      0x02\n      dup2\n      gt\n      iszero\n      tag_92\n      jumpi\n      tag_93\n      tag_71\n      jump\t// in\n    tag_93:\n    tag_92:\n        /* \"contracts/Governance/DisputeResolution.sol\":1698:1703  _vote */\n      dup3\n        /* \"contracts/Governance/DisputeResolution.sol\":1698:1727  _vote == Verdict.ForPlaintiff */\n      0x02\n      dup2\n      gt\n      iszero\n      tag_94\n      jumpi\n      tag_95\n      tag_71\n      jump\t// in\n    tag_95:\n    tag_94:\n      eq\n        /* \"contracts/Governance/DisputeResolution.sol\":1698:1760  _vote == Verdict.ForPlaintiff || _vote == Verdict.ForDefendant */\n      dup1\n      tag_96\n      jumpi\n      pop\n        /* \"contracts/Governance/DisputeResolution.sol\":1740:1760  Verdict.ForDefendant */\n      0x02\n        /* \"contracts/Governance/DisputeResolution.sol\":1731:1760  _vote == Verdict.ForDefendant */\n      dup1\n      dup2\n      gt\n      iszero\n      tag_97\n      jumpi\n      tag_98\n      tag_71\n      jump\t// in\n    tag_98:\n    tag_97:\n        /* \"contracts/Governance/DisputeResolution.sol\":1731:1736  _vote */\n      dup3\n        /* \"contracts/Governance/DisputeResolution.sol\":1731:1760  _vote == Verdict.ForDefendant */\n      0x02\n      dup2\n      gt\n      iszero\n      tag_99\n      jumpi\n      tag_100\n      tag_71\n      jump\t// in\n    tag_100:\n    tag_99:\n      eq\n        /* \"contracts/Governance/DisputeResolution.sol\":1698:1760  _vote == Verdict.ForPlaintiff || _vote == Verdict.ForDefendant */\n    tag_96:\n        /* \"contracts/Governance/DisputeResolution.sol\":1690:1786  require(_vote == Verdict.ForPlaintiff || _vote == Verdict.ForDefendant, \"Dispute: Invalid vote\") */\n      tag_101\n      jumpi\n      mload(0x40)\n      0x08c379a000000000000000000000000000000000000000000000000000000000\n      dup2\n      mstore\n      0x04\n      add\n      tag_102\n      swap1\n      tag_103\n      jump\t// in\n    tag_102:\n      mload(0x40)\n      dup1\n      swap2\n      sub\n      swap1\n      revert\n    tag_101:\n        /* \"contracts/Governance/DisputeResolution.sol\":1810:1830  Verdict.ForPlaintiff */\n      0x01\n        /* \"contracts/Governance/DisputeResolution.sol\":1801:1830  _vote == Verdict.ForPlaintiff */\n      0x02\n      dup2\n      gt\n      iszero\n      tag_104\n      jumpi\n      tag_105\n      tag_71\n      jump\t// in\n    tag_105:\n    tag_104:\n        /* \"contracts/Governance/DisputeResolution.sol\":1801:1806  _vote */\n      dup3\n        /* \"contracts/Governance/DisputeResolution.sol\":1801:1830  _vote == Verdict.ForPlaintiff */\n      0x02\n      dup2\n      gt\n      iszero\n      tag_106\n      jumpi\n      tag_107\n      tag_71\n      jump\t// in\n    tag_107:\n    tag_106:\n      sub\n        /* \"contracts/Governance/DisputeResolution.sol\":1797:1896  if (_vote == Verdict.ForPlaintiff) { dispute.plaintiffVotes++; } else { dispute.defendantVotes++; } */\n      tag_108\n      jumpi\n        /* \"contracts/Governance/DisputeResolution.sol\":1834:1841  dispute */\n      dup1\n        /* \"contracts/Governance/DisputeResolution.sol\":1834:1856  dispute.plaintiffVotes */\n      0x03\n      add\n      0x00\n        /* \"contracts/Governance/DisputeResolution.sol\":1834:1858  dispute.plaintiffVotes++ */\n      dup2\n      sload\n      dup1\n      swap3\n      swap2\n      swap1\n      tag_109\n      swap1\n      tag_68\n      jump\t// in\n    tag_109:\n      swap2\n      swap1\n      pop\n      sstore\n      pop\n        /* \"contracts/Governance/DisputeResolution.sol\":1797:1896  if (_vote == Verdict.ForPlaintiff) { dispute.plaintiffVotes++; } else { dispute.defendantVotes++; } */\n      jump(tag_110)\n    tag_108:\n        /* \"contracts/Governance/DisputeResolution.sol\":1869:1876  dispute */\n      dup1\n        /* \"contracts/Governance/DisputeResolution.sol\":1869:1891  dispute.defendantVotes */\n      0x04\n      add\n      0x00\n        /* \"contracts/Governance/DisputeResolution.sol\":1869:1893  dispute.defendantVotes++ */\n      dup2\n      sload\n      dup1\n      swap3\n      swap2\n      swap1\n      tag_111\n      swap1\n      tag_68\n      jump\t// in\n    tag_111:\n      swap2\n      swap1\n      pop\n      sstore\n      pop\n        /* \"contracts/Governance/DisputeResolution.sol\":1797:1896  if (_vote == Verdict.ForPlaintiff) { dispute.plaintiffVotes++; } else { dispute.defendantVotes++; } */\n    tag_110:\n        /* \"contracts/Governance/DisputeResolution.sol\":1946:1950  true */\n      0x01\n        /* \"contracts/Governance/DisputeResolution.sol\":1906:1919  hasJurorVoted */\n      0x04\n        /* \"contracts/Governance/DisputeResolution.sol\":1906:1931  hasJurorVoted[_disputeId] */\n      0x00\n        /* \"contracts/Governance/DisputeResolution.sol\":1920:1930  _disputeId */\n      dup6\n        /* \"contracts/Governance/DisputeResolution.sol\":1906:1931  hasJurorVoted[_disputeId] */\n      dup2\n      mstore\n      0x20\n      add\n      swap1\n      dup2\n      mstore\n      0x20\n      add\n      0x00\n      keccak256\n        /* \"contracts/Governance/DisputeResolution.sol\":1906:1943  hasJurorVoted[_disputeId][msg.sender] */\n      0x00\n        /* \"contracts/Governance/DisputeResolution.sol\":1932:1942  msg.sender */\n      caller\n        /* \"contracts/Governance/DisputeResolution.sol\":1906:1943  hasJurorVoted[_disputeId][msg.sender] */\n      0xffffffffffffffffffffffffffffffffffffffff\n      and\n      0xffffffffffffffffffffffffffffffffffffffff\n      and\n      dup2\n      mstore\n      0x20\n      add\n      swap1\n      dup2\n      mstore\n      0x20\n      add\n      0x00\n      keccak256\n      0x00\n        /* \"contracts/Governance/DisputeResolution.sol\":1906:1950  hasJurorVoted[_disputeId][msg.sender] = true */\n      0x0100\n      exp\n      dup2\n      sload\n      dup2\n      0xff\n      mul\n      not\n      and\n      swap1\n      dup4\n      iszero\n      iszero\n      mul\n      or\n      swap1\n      sstore\n      pop\n        /* \"contracts/Governance/DisputeResolution.sol\":1978:1988  msg.sender */\n      caller\n        /* \"contracts/Governance/DisputeResolution.sol\":1957:1996  VoteCast(_disputeId, msg.sender, _vote) */\n      0xffffffffffffffffffffffffffffffffffffffff\n      and\n        /* \"contracts/Governance/DisputeResolution.sol\":1966:1976  _disputeId */\n      dup4\n        /* \"contracts/Governance/DisputeResolution.sol\":1957:1996  VoteCast(_disputeId, msg.sender, _vote) */\n      0xeba4866100b822f0f391e610e7edfab790b9e8766c0012733c26b2f1858e8dd7\n        /* \"contracts/Governance/DisputeResolution.sol\":1990:1995  _vote */\n      dup5\n        /* \"contracts/Governance/DisputeResolution.sol\":1957:1996  VoteCast(_disputeId, msg.sender, _vote) */\n      mload(0x40)\n      tag_112\n      swap2\n      swap1\n      tag_113\n      jump\t// in\n    tag_112:\n      mload(0x40)\n      dup1\n      swap2\n      sub\n      swap1\n      log3\n        /* \"contracts/Governance/DisputeResolution.sol\":1413:2004  {... */\n      pop\n        /* \"contracts/Governance/DisputeResolution.sol\":1354:2004  function castVote(uint _disputeId, Verdict _vote) external {... */\n      pop\n      pop\n      jump\t// out\n        /* \"contracts/Governance/DisputeResolution.sol\":565:627  mapping(uint => mapping(address => bool)) public hasJurorVoted */\n    tag_39:\n      mstore(0x20, 0x04)\n      dup2\n      0x00\n      mstore\n      mstore(0x20, keccak256(0x00, 0x40))\n      dup1\n      0x00\n      mstore\n      keccak256(0x00, 0x40)\n      0x00\n      swap2\n      pop\n      swap2\n      pop\n      swap1\n      sload\n      swap1\n      0x0100\n      exp\n      swap1\n      div\n      0xff\n      and\n      dup2\n      jump\t// out\n        /* \"@openzeppelin/contracts/access/Ownable.sol\":2293:2394  function renounceOwnership() public virtual onlyOwner {... */\n    tag_42:\n        /* \"@openzeppelin/contracts/access/Ownable.sol\":1531:1544  _checkOwner() */\n      tag_115\n        /* \"@openzeppelin/contracts/access/Ownable.sol\":1531:1542  _checkOwner */\n      tag_65\n        /* \"@openzeppelin/contracts/access/Ownable.sol\":1531:1544  _checkOwner() */\n      jump\t// in\n    tag_115:\n        /* \"@openzeppelin/contracts/access/Ownable.sol\":2357:2387  _transferOwnership(address(0)) */\n      tag_117\n        /* \"@openzeppelin/contracts/access/Ownable.sol\":2384:2385  0 */\n      0x00\n        /* \"@openzeppelin/contracts/access/Ownable.sol\":2357:2375  _transferOwnership */\n      tag_118\n        /* \"@openzeppelin/contracts/access/Ownable.sol\":2357:2387  _transferOwnership(address(0)) */\n      jump\t// in\n    tag_117:\n        /* \"@openzeppelin/contracts/access/Ownable.sol\":2293:2394  function renounceOwnership() public virtual onlyOwner {... */\n      jump\t// out\n        /* \"@openzeppelin/contracts/access/Ownable.sol\":1638:1723  function owner() public view virtual returns (address) {... */\n    tag_44:\n        /* \"@openzeppelin/contracts/access/Ownable.sol\":1684:1691  address */\n      0x00\n        /* \"@openzeppelin/contracts/access/Ownable.sol\":1710:1716  _owner */\n      0x00\n      0x00\n      swap1\n      sload\n      swap1\n      0x0100\n      exp\n      swap1\n      div\n      0xffffffffffffffffffffffffffffffffffffffff\n      and\n        /* \"@openzeppelin/contracts/access/Ownable.sol\":1703:1716  return _owner */\n      swap1\n      pop\n        /* \"@openzeppelin/contracts/access/Ownable.sol\":1638:1723  function owner() public view virtual returns (address) {... */\n      swap1\n      jump\t// out\n        /* \"contracts/Governance/DisputeResolution.sol\":497:521  uint public disputeCount */\n    tag_48:\n      sload(0x02)\n      dup2\n      jump\t// out\n        /* \"contracts/Governance/DisputeResolution.sol\":2010:2648  function resolveDispute(uint _disputeId) external onlyOwner {... */\n    tag_53:\n        /* \"@openzeppelin/contracts/access/Ownable.sol\":1531:1544  _checkOwner() */\n      tag_121\n        /* \"@openzeppelin/contracts/access/Ownable.sol\":1531:1542  _checkOwner */\n      tag_65\n        /* \"@openzeppelin/contracts/access/Ownable.sol\":1531:1544  _checkOwner() */\n      jump\t// in\n    tag_121:\n        /* \"contracts/Governance/DisputeResolution.sol\":2081:2104  Dispute storage dispute */\n      0x00\n        /* \"contracts/Governance/DisputeResolution.sol\":2107:2115  disputes */\n      0x03\n        /* \"contracts/Governance/DisputeResolution.sol\":2107:2127  disputes[_disputeId] */\n      0x00\n        /* \"contracts/Governance/DisputeResolution.sol\":2116:2126  _disputeId */\n      dup4\n        /* \"contracts/Governance/DisputeResolution.sol\":2107:2127  disputes[_disputeId] */\n      dup2\n      mstore\n      0x20\n      add\n      swap1\n      dup2\n      mstore\n      0x20\n      add\n      0x00\n      keccak256\n        /* \"contracts/Governance/DisputeResolution.sol\":2081:2127  Dispute storage dispute = disputes[_disputeId] */\n      swap1\n      pop\n        /* \"contracts/Governance/DisputeResolution.sol\":2155:2175  DisputeStatus.Voting */\n      0x00\n        /* \"contracts/Governance/DisputeResolution.sol\":2137:2175  dispute.status == DisputeStatus.Voting */\n      0x01\n      dup2\n      gt\n      iszero\n      tag_123\n      jumpi\n      tag_124\n      tag_71\n      jump\t// in\n    tag_124:\n    tag_123:\n        /* \"contracts/Governance/DisputeResolution.sol\":2137:2144  dispute */\n      dup2\n        /* \"contracts/Governance/DisputeResolution.sol\":2137:2151  dispute.status */\n      0x05\n      add\n      0x00\n      swap1\n      sload\n      swap1\n      0x0100\n      exp\n      swap1\n      div\n      0xff\n      and\n        /* \"contracts/Governance/DisputeResolution.sol\":2137:2175  dispute.status == DisputeStatus.Voting */\n      0x01\n      dup2\n      gt\n      iszero\n      tag_125\n      jumpi\n      tag_126\n      tag_71\n      jump\t// in\n    tag_126:\n    tag_125:\n      eq\n        /* \"contracts/Governance/DisputeResolution.sol\":2129:2202  require(dispute.status == DisputeStatus.Voting, \"Dispute: Not in voting\") */\n      tag_127\n      jumpi\n      mload(0x40)\n      0x08c379a000000000000000000000000000000000000000000000000000000000\n      dup2\n      mstore\n      0x04\n      add\n      tag_128\n      swap1\n      tag_129\n      jump\t// in\n    tag_128:\n      mload(0x40)\n      dup1\n      swap2\n      sub\n      swap1\n      revert\n    tag_127:\n        /* \"contracts/Governance/DisputeResolution.sol\":2213:2233  Verdict finalVerdict */\n      0x00\n        /* \"contracts/Governance/DisputeResolution.sol\":2262:2269  dispute */\n      dup2\n        /* \"contracts/Governance/DisputeResolution.sol\":2262:2284  dispute.defendantVotes */\n      0x04\n      add\n      sload\n        /* \"contracts/Governance/DisputeResolution.sol\":2237:2244  dispute */\n      dup3\n        /* \"contracts/Governance/DisputeResolution.sol\":2237:2259  dispute.plaintiffVotes */\n      0x03\n      add\n      sload\n        /* \"contracts/Governance/DisputeResolution.sol\":2237:2284  dispute.plaintiffVotes > dispute.defendantVotes */\n      gt\n        /* \"contracts/Governance/DisputeResolution.sol\":2236:2331  (dispute.plaintiffVotes > dispute.defendantVotes) ? Verdict.ForPlaintiff : Verdict.ForDefendant */\n      tag_130\n      jumpi\n        /* \"contracts/Governance/DisputeResolution.sol\":2311:2331  Verdict.ForDefendant */\n      0x02\n        /* \"contracts/Governance/DisputeResolution.sol\":2236:2331  (dispute.plaintiffVotes > dispute.defendantVotes) ? Verdict.ForPlaintiff : Verdict.ForDefendant */\n      jump(tag_131)\n    tag_130:\n        /* \"contracts/Governance/DisputeResolution.sol\":2288:2308  Verdict.ForPlaintiff */\n      0x01\n        /* \"contracts/Governance/DisputeResolution.sol\":2236:2331  (dispute.plaintiffVotes > dispute.defendantVotes) ? Verdict.ForPlaintiff : Verdict.ForDefendant */\n    tag_131:\n        /* \"contracts/Governance/DisputeResolution.sol\":2213:2331  Verdict finalVerdict = (dispute.plaintiffVotes > dispute.defendantVotes) ? Verdict.ForPlaintiff : Verdict.ForDefendant */\n      swap1\n      pop\n        /* \"contracts/Governance/DisputeResolution.sol\":2359:2381  DisputeStatus.Resolved */\n      0x01\n        /* \"contracts/Governance/DisputeResolution.sol\":2342:2349  dispute */\n      dup3\n        /* \"contracts/Governance/DisputeResolution.sol\":2342:2356  dispute.status */\n      0x05\n      add\n      0x00\n        /* \"contracts/Governance/DisputeResolution.sol\":2342:2381  dispute.status = DisputeStatus.Resolved */\n      0x0100\n      exp\n      dup2\n      sload\n      dup2\n      0xff\n      mul\n      not\n      and\n      swap1\n      dup4\n      0x01\n      dup2\n      gt\n      iszero\n      tag_132\n      jumpi\n      tag_133\n      tag_71\n      jump\t// in\n    tag_133:\n    tag_132:\n      mul\n      or\n      swap1\n      sstore\n      pop\n        /* \"contracts/Governance/DisputeResolution.sol\":2401:2413  finalVerdict */\n      dup1\n        /* \"contracts/Governance/DisputeResolution.sol\":2383:2390  dispute */\n      dup3\n        /* \"contracts/Governance/DisputeResolution.sol\":2383:2398  dispute.verdict */\n      0x05\n      add\n      0x01\n        /* \"contracts/Governance/DisputeResolution.sol\":2383:2413  dispute.verdict = finalVerdict */\n      0x0100\n      exp\n      dup2\n      sload\n      dup2\n      0xff\n      mul\n      not\n      and\n      swap1\n      dup4\n      0x02\n      dup2\n      gt\n      iszero\n      tag_134\n      jumpi\n      tag_135\n      tag_71\n      jump\t// in\n    tag_135:\n    tag_134:\n      mul\n      or\n      swap1\n      sstore\n      pop\n        /* \"contracts/Governance/DisputeResolution.sol\":2424:2438  address winner */\n      0x00\n        /* \"contracts/Governance/DisputeResolution.sol\":2458:2478  Verdict.ForPlaintiff */\n      0x01\n        /* \"contracts/Governance/DisputeResolution.sol\":2442:2478  finalVerdict == Verdict.ForPlaintiff */\n      0x02\n      dup2\n      gt\n      iszero\n      tag_136\n      jumpi\n      tag_137\n      tag_71\n      jump\t// in\n    tag_137:\n    tag_136:\n        /* \"contracts/Governance/DisputeResolution.sol\":2442:2454  finalVerdict */\n      dup3\n        /* \"contracts/Governance/DisputeResolution.sol\":2442:2478  finalVerdict == Verdict.ForPlaintiff */\n      0x02\n      dup2\n      gt\n      iszero\n      tag_138\n      jumpi\n      tag_139\n      tag_71\n      jump\t// in\n    tag_139:\n    tag_138:\n      eq\n        /* \"contracts/Governance/DisputeResolution.sol\":2441:2519  (finalVerdict == Verdict.ForPlaintiff) ? dispute.plaintiff : dispute.defendant */\n      tag_140\n      jumpi\n        /* \"contracts/Governance/DisputeResolution.sol\":2502:2509  dispute */\n      dup3\n        /* \"contracts/Governance/DisputeResolution.sol\":2502:2519  dispute.defendant */\n      0x02\n      add\n      0x00\n      swap1\n      sload\n      swap1\n      0x0100\n      exp\n      swap1\n      div\n      0xffffffffffffffffffffffffffffffffffffffff\n      and\n        /* \"contracts/Governance/DisputeResolution.sol\":2441:2519  (finalVerdict == Verdict.ForPlaintiff) ? dispute.plaintiff : dispute.defendant */\n      jump(tag_141)\n    tag_140:\n        /* \"contracts/Governance/DisputeResolution.sol\":2482:2489  dispute */\n      dup3\n        /* \"contracts/Governance/DisputeResolution.sol\":2482:2499  dispute.plaintiff */\n      0x01\n      add\n      0x00\n      swap1\n      sload\n      swap1\n      0x0100\n      exp\n      swap1\n      div\n      0xffffffffffffffffffffffffffffffffffffffff\n      and\n        /* \"contracts/Governance/DisputeResolution.sol\":2441:2519  (finalVerdict == Verdict.ForPlaintiff) ? dispute.plaintiff : dispute.defendant */\n    tag_141:\n        /* \"contracts/Governance/DisputeResolution.sol\":2424:2519  address winner = (finalVerdict == Verdict.ForPlaintiff) ? dispute.plaintiff : dispute.defendant */\n      swap1\n      pop\n        /* \"contracts/Governance/DisputeResolution.sol\":2537:2544  dispute */\n      dup3\n        /* \"contracts/Governance/DisputeResolution.sol\":2537:2559  dispute.escrowContract */\n      0x00\n      add\n      0x00\n      swap1\n      sload\n      swap1\n      0x0100\n      exp\n      swap1\n      div\n      0xffffffffffffffffffffffffffffffffffffffff\n      and\n        /* \"contracts/Governance/DisputeResolution.sol\":2530:2575  Escrow(dispute.escrowContract).resolveDispute */\n      0xffffffffffffffffffffffffffffffffffffffff\n      and\n      0xd8461182\n        /* \"contracts/Governance/DisputeResolution.sol\":2576:2582  winner */\n      dup3\n        /* \"contracts/Governance/DisputeResolution.sol\":2530:2583  Escrow(dispute.escrowContract).resolveDispute(winner) */\n      mload(0x40)\n      dup3\n      0xffffffff\n      and\n      0xe0\n      shl\n      dup2\n      mstore\n      0x04\n      add\n      tag_142\n      swap2\n      swap1\n      tag_46\n      jump\t// in\n    tag_142:\n      0x00\n      mload(0x40)\n      dup1\n      dup4\n      sub\n      dup2\n      0x00\n      dup8\n      dup1\n      extcodesize\n      iszero\n      dup1\n      iszero\n      tag_143\n      jumpi\n      revert(0x00, 0x00)\n    tag_143:\n      pop\n      gas\n      call\n      iszero\n      dup1\n      iszero\n      tag_145\n      jumpi\n      returndatacopy(0x00, 0x00, returndatasize)\n      revert(0x00, returndatasize)\n    tag_145:\n      pop\n      pop\n      pop\n      pop\n        /* \"contracts/Governance/DisputeResolution.sol\":2615:2625  _disputeId */\n      dup4\n        /* \"contracts/Governance/DisputeResolution.sol\":2599:2640  DisputeResolved(_disputeId, finalVerdict) */\n      0x2ffcfee146bc0d5ff304c6b65111a0d485af9456dc64eee7d66ebdcc90b223ea\n        /* \"contracts/Governance/DisputeResolution.sol\":2627:2639  finalVerdict */\n      dup4\n        /* \"contracts/Governance/DisputeResolution.sol\":2599:2640  DisputeResolved(_disputeId, finalVerdict) */\n      mload(0x40)\n      tag_146\n      swap2\n      swap1\n      tag_113\n      jump\t// in\n    tag_146:\n      mload(0x40)\n      dup1\n      swap2\n      sub\n      swap1\n      log2\n        /* \"contracts/Governance/DisputeResolution.sol\":2070:2648  {... */\n      pop\n      pop\n      pop\n        /* \"contracts/Governance/DisputeResolution.sol\":2010:2648  function resolveDispute(uint _disputeId) external onlyOwner {... */\n      pop\n      jump\t// out\n        /* \"contracts/Governance/DisputeResolution.sol\":2654:2734  function addJuror(address _juror) external onlyOwner { isJuror[_juror] = true; } */\n    tag_56:\n        /* \"@openzeppelin/contracts/access/Ownable.sol\":1531:1544  _checkOwner() */\n      tag_148\n        /* \"@openzeppelin/contracts/access/Ownable.sol\":1531:1542  _checkOwner */\n      tag_65\n        /* \"@openzeppelin/contracts/access/Ownable.sol\":1531:1544  _checkOwner() */\n      jump\t// in\n    tag_148:\n        /* \"contracts/Governance/DisputeResolution.sol\":2727:2731  true */\n      0x01\n        /* \"contracts/Governance/DisputeResolution.sol\":2709:2716  isJuror */\n      dup1\n        /* \"contracts/Governance/DisputeResolution.sol\":2709:2724  isJuror[_juror] */\n      0x00\n        /* \"contracts/Governance/DisputeResolution.sol\":2717:2723  _juror */\n      dup4\n        /* \"contracts/Governance/DisputeResolution.sol\":2709:2724  isJuror[_juror] */\n      0xffffffffffffffffffffffffffffffffffffffff\n      and\n      0xffffffffffffffffffffffffffffffffffffffff\n      and\n      dup2\n      mstore\n      0x20\n      add\n      swap1\n      dup2\n      mstore\n      0x20\n      add\n      0x00\n      keccak256\n      0x00\n        /* \"contracts/Governance/DisputeResolution.sol\":2709:2731  isJuror[_juror] = true */\n      0x0100\n      exp\n      dup2\n      sload\n      dup2\n      0xff\n      mul\n      not\n      and\n      swap1\n      dup4\n      iszero\n      iszero\n      mul\n      or\n      swap1\n      sstore\n      pop\n        /* \"contracts/Governance/DisputeResolution.sol\":2654:2734  function addJuror(address _juror) external onlyOwner { isJuror[_juror] = true; } */\n      pop\n      jump\t// out\n        /* \"@openzeppelin/contracts/access/Ownable.sol\":2543:2758  function transferOwnership(address newOwner) public virtual onlyOwner {... */\n    tag_59:\n        /* \"@openzeppelin/contracts/access/Ownable.sol\":1531:1544  _checkOwner() */\n      tag_151\n        /* \"@openzeppelin/contracts/access/Ownable.sol\":1531:1542  _checkOwner */\n      tag_65\n        /* \"@openzeppelin/contracts/access/Ownable.sol\":1531:1544  _checkOwner() */\n      jump\t// in\n    tag_151:\n        /* \"@openzeppelin/contracts/access/Ownable.sol\":2647:2648  0 */\n      0x00\n        /* \"@openzeppelin/contracts/access/Ownable.sol\":2627:2649  newOwner == address(0) */\n      0xffffffffffffffffffffffffffffffffffffffff\n      and\n        /* \"@openzeppelin/contracts/access/Ownable.sol\":2627:2635  newOwner */\n      dup2\n        /* \"@openzeppelin/contracts/access/Ownable.sol\":2627:2649  newOwner == address(0) */\n      0xffffffffffffffffffffffffffffffffffffffff\n      and\n      sub\n        /* \"@openzeppelin/contracts/access/Ownable.sol\":2623:2714  if (newOwner == address(0)) {... */\n      tag_153\n      jumpi\n        /* \"@openzeppelin/contracts/access/Ownable.sol\":2700:2701  0 */\n      0x00\n        /* \"@openzeppelin/contracts/access/Ownable.sol\":2672:2703  OwnableInvalidOwner(address(0)) */\n      mload(0x40)\n      0x1e4fbdf700000000000000000000000000000000000000000000000000000000\n      dup2\n      mstore\n      0x04\n      add\n      tag_154\n      swap2\n      swap1\n      tag_46\n      jump\t// in\n    tag_154:\n      mload(0x40)\n      dup1\n      swap2\n      sub\n      swap1\n      revert\n        /* \"@openzeppelin/contracts/access/Ownable.sol\":2623:2714  if (newOwner == address(0)) {... */\n    tag_153:\n        /* \"@openzeppelin/contracts/access/Ownable.sol\":2723:2751  _transferOwnership(newOwner) */\n      tag_155\n        /* \"@openzeppelin/contracts/access/Ownable.sol\":2742:2750  newOwner */\n      dup2\n        /* \"@openzeppelin/contracts/access/Ownable.sol\":2723:2741  _transferOwnership */\n      tag_118\n        /* \"@openzeppelin/contracts/access/Ownable.sol\":2723:2751  _transferOwnership(newOwner) */\n      jump\t// in\n    tag_155:\n        /* \"@openzeppelin/contracts/access/Ownable.sol\":2543:2758  function transferOwnership(address newOwner) public virtual onlyOwner {... */\n      pop\n      jump\t// out\n        /* \"contracts/Governance/DisputeResolution.sol\":2740:2824  function removeJuror(address _juror) external onlyOwner { isJuror[_juror] = false; } */\n    tag_62:\n        /* \"@openzeppelin/contracts/access/Ownable.sol\":1531:1544  _checkOwner() */\n      tag_157\n        /* \"@openzeppelin/contracts/access/Ownable.sol\":1531:1542  _checkOwner */\n      tag_65\n        /* \"@openzeppelin/contracts/access/Ownable.sol\":1531:1544  _checkOwner() */\n      jump\t// in\n    tag_157:\n        /* \"contracts/Governance/DisputeResolution.sol\":2816:2821  false */\n      0x00\n        /* \"contracts/Governance/DisputeResolution.sol\":2798:2805  isJuror */\n      0x01\n        /* \"contracts/Governance/DisputeResolution.sol\":2798:2813  isJuror[_juror] */\n      0x00\n        /* \"contracts/Governance/DisputeResolution.sol\":2806:2812  _juror */\n      dup4\n        /* \"contracts/Governance/DisputeResolution.sol\":2798:2813  isJuror[_juror] */\n      0xffffffffffffffffffffffffffffffffffffffff\n      and\n      0xffffffffffffffffffffffffffffffffffffffff\n      and\n      dup2\n      mstore\n      0x20\n      add\n      swap1\n      dup2\n      mstore\n      0x20\n      add\n      0x00\n      keccak256\n      0x00\n        /* \"contracts/Governance/DisputeResolution.sol\":2798:2821  isJuror[_juror] = false */\n      0x0100\n      exp\n      dup2\n      sload\n      dup2\n      0xff\n      mul\n      not\n      and\n      swap1\n      dup4\n      iszero\n      iszero\n      mul\n      or\n      swap1\n      sstore\n      pop\n        /* \"contracts/Governance/DisputeResolution.sol\":2740:2824  function removeJuror(address _juror) external onlyOwner { isJuror[_juror] = false; } */\n      pop\n      jump\t// out\n        /* \"@openzeppelin/contracts/access/Ownable.sol\":1796:1958  function _checkOwner() internal view virtual {... */\n    tag_65:\n        /* \"@openzeppelin/contracts/access/Ownable.sol\":1866:1878  _msgSender() */\n      tag_160\n        /* \"@openzeppelin/contracts/access/Ownable.sol\":1866:1876  _msgSender */\n      tag_161\n        /* \"@openzeppelin/contracts/access/Ownable.sol\":1866:1878  _msgSender() */\n      jump\t// in\n    tag_160:\n        /* \"@openzeppelin/contracts/access/Ownable.sol\":1855:1878  owner() != _msgSender() */\n      0xffffffffffffffffffffffffffffffffffffffff\n      and\n        /* \"@openzeppelin/contracts/access/Ownable.sol\":1855:1862  owner() */\n      tag_162\n        /* \"@openzeppelin/contracts/access/Ownable.sol\":1855:1860  owner */\n      tag_44\n        /* \"@openzeppelin/contracts/access/Ownable.sol\":1855:1862  owner() */\n      jump\t// in\n    tag_162:\n        /* \"@openzeppelin/contracts/access/Ownable.sol\":1855:1878  owner() != _msgSender() */\n      0xffffffffffffffffffffffffffffffffffffffff\n      and\n      eq\n        /* \"@openzeppelin/contracts/access/Ownable.sol\":1851:1952  if (owner() != _msgSender()) {... */\n      tag_163\n      jumpi\n        /* \"@openzeppelin/contracts/access/Ownable.sol\":1928:1940  _msgSender() */\n      tag_164\n        /* \"@openzeppelin/contracts/access/Ownable.sol\":1928:1938  _msgSender */\n      tag_161\n        /* \"@openzeppelin/contracts/access/Ownable.sol\":1928:1940  _msgSender() */\n      jump\t// in\n    tag_164:\n        /* \"@openzeppelin/contracts/access/Ownable.sol\":1901:1941  OwnableUnauthorizedAccount(_msgSender()) */\n      mload(0x40)\n      0x118cdaa700000000000000000000000000000000000000000000000000000000\n      dup2\n      mstore\n      0x04\n      add\n      tag_165\n      swap2\n      swap1\n      tag_46\n      jump\t// in\n    tag_165:\n      mload(0x40)\n      dup1\n      swap2\n      sub\n      swap1\n      revert\n        /* \"@openzeppelin/contracts/access/Ownable.sol\":1851:1952  if (owner() != _msgSender()) {... */\n    tag_163:\n        /* \"@openzeppelin/contracts/access/Ownable.sol\":1796:1958  function _checkOwner() internal view virtual {... */\n      jump\t// out\n        /* \"@openzeppelin/contracts/access/Ownable.sol\":2912:3099  function _transferOwnership(address newOwner) internal virtual {... */\n    tag_118:\n        /* \"@openzeppelin/contracts/access/Ownable.sol\":2985:3001  address oldOwner */\n      0x00\n        /* \"@openzeppelin/contracts/access/Ownable.sol\":3004:3010  _owner */\n      0x00\n      0x00\n      swap1\n      sload\n      swap1\n      0x0100\n      exp\n      swap1\n      div\n      0xffffffffffffffffffffffffffffffffffffffff\n      and\n        /* \"@openzeppelin/contracts/access/Ownable.sol\":2985:3010  address oldOwner = _owner */\n      swap1\n      pop\n        /* \"@openzeppelin/contracts/access/Ownable.sol\":3029:3037  newOwner */\n      dup2\n        /* \"@openzeppelin/contracts/access/Ownable.sol\":3020:3026  _owner */\n      0x00\n      0x00\n        /* \"@openzeppelin/contracts/access/Ownable.sol\":3020:3037  _owner = newOwner */\n      0x0100\n      exp\n      dup2\n      sload\n      dup2\n      0xffffffffffffffffffffffffffffffffffffffff\n      mul\n      not\n      and\n      swap1\n      dup4\n      0xffffffffffffffffffffffffffffffffffffffff\n      and\n      mul\n      or\n      swap1\n      sstore\n      pop\n        /* \"@openzeppelin/contracts/access/Ownable.sol\":3083:3091  newOwner */\n      dup2\n        /* \"@openzeppelin/contracts/access/Ownable.sol\":3052:3092  OwnershipTransferred(oldOwner, newOwner) */\n      0xffffffffffffffffffffffffffffffffffffffff\n      and\n        /* \"@openzeppelin/contracts/access/Ownable.sol\":3073:3081  oldOwner */\n      dup2\n        /* \"@openzeppelin/contracts/access/Ownable.sol\":3052:3092  OwnershipTransferred(oldOwner, newOwner) */\n      0xffffffffffffffffffffffffffffffffffffffff\n      and\n      0x8be0079c531659141344cd1fd0a4f28419497f9722a3daafe3b4186f6b6457e0\n      mload(0x40)\n      mload(0x40)\n      dup1\n      swap2\n      sub\n      swap1\n      log3\n        /* \"@openzeppelin/contracts/access/Ownable.sol\":2975:3099  {... */\n      pop\n        /* \"@openzeppelin/contracts/access/Ownable.sol\":2912:3099  function _transferOwnership(address newOwner) internal virtual {... */\n      pop\n      jump\t// out\n        /* \"@openzeppelin/contracts/utils/Context.sol\":656:752  function _msgSender() internal view virtual returns (address) {... */\n    tag_161:\n        /* \"@openzeppelin/contracts/utils/Context.sol\":709:716  address */\n      0x00\n        /* \"@openzeppelin/contracts/utils/Context.sol\":735:745  msg.sender */\n      caller\n        /* \"@openzeppelin/contracts/utils/Context.sol\":728:745  return msg.sender */\n      swap1\n      pop\n        /* \"@openzeppelin/contracts/utils/Context.sol\":656:752  function _msgSender() internal view virtual returns (address) {... */\n      swap1\n      jump\t// out\n        /* \"#utility.yul\":88:205   */\n    tag_169:\n        /* \"#utility.yul\":197:198   */\n      0x00\n        /* \"#utility.yul\":194:195   */\n      0x00\n        /* \"#utility.yul\":187:199   */\n      revert\n        /* \"#utility.yul\":334:460   */\n    tag_171:\n        /* \"#utility.yul\":371:378   */\n      0x00\n        /* \"#utility.yul\":411:453   */\n      0xffffffffffffffffffffffffffffffffffffffff\n        /* \"#utility.yul\":404:409   */\n      dup3\n        /* \"#utility.yul\":400:454   */\n      and\n        /* \"#utility.yul\":389:454   */\n      swap1\n      pop\n        /* \"#utility.yul\":334:460   */\n      swap2\n      swap1\n      pop\n      jump\t// out\n        /* \"#utility.yul\":466:562   */\n    tag_172:\n        /* \"#utility.yul\":503:510   */\n      0x00\n        /* \"#utility.yul\":532:556   */\n      tag_210\n        /* \"#utility.yul\":550:555   */\n      dup3\n        /* \"#utility.yul\":532:556   */\n      tag_171\n      jump\t// in\n    tag_210:\n        /* \"#utility.yul\":521:556   */\n      swap1\n      pop\n        /* \"#utility.yul\":466:562   */\n      swap2\n      swap1\n      pop\n      jump\t// out\n        /* \"#utility.yul\":568:690   */\n    tag_173:\n        /* \"#utility.yul\":641:665   */\n      tag_212\n        /* \"#utility.yul\":659:664   */\n      dup2\n        /* \"#utility.yul\":641:665   */\n      tag_172\n      jump\t// in\n    tag_212:\n        /* \"#utility.yul\":634:639   */\n      dup2\n        /* \"#utility.yul\":631:666   */\n      eq\n        /* \"#utility.yul\":621:684   */\n      tag_213\n      jumpi\n        /* \"#utility.yul\":680:681   */\n      0x00\n        /* \"#utility.yul\":677:678   */\n      0x00\n        /* \"#utility.yul\":670:682   */\n      revert\n        /* \"#utility.yul\":621:684   */\n    tag_213:\n        /* \"#utility.yul\":568:690   */\n      pop\n      jump\t// out\n        /* \"#utility.yul\":696:835   */\n    tag_174:\n        /* \"#utility.yul\":742:747   */\n      0x00\n        /* \"#utility.yul\":780:786   */\n      dup2\n        /* \"#utility.yul\":767:787   */\n      calldataload\n        /* \"#utility.yul\":758:787   */\n      swap1\n      pop\n        /* \"#utility.yul\":796:829   */\n      tag_215\n        /* \"#utility.yul\":823:828   */\n      dup2\n        /* \"#utility.yul\":796:829   */\n      tag_173\n      jump\t// in\n    tag_215:\n        /* \"#utility.yul\":696:835   */\n      swap3\n      swap2\n      pop\n      pop\n      jump\t// out\n        /* \"#utility.yul\":841:1460   */\n    tag_18:\n        /* \"#utility.yul\":918:924   */\n      0x00\n        /* \"#utility.yul\":926:932   */\n      0x00\n        /* \"#utility.yul\":934:940   */\n      0x00\n        /* \"#utility.yul\":983:985   */\n      0x60\n        /* \"#utility.yul\":971:980   */\n      dup5\n        /* \"#utility.yul\":962:969   */\n      dup7\n        /* \"#utility.yul\":958:981   */\n      sub\n        /* \"#utility.yul\":954:986   */\n      slt\n        /* \"#utility.yul\":951:1070   */\n      iszero\n      tag_217\n      jumpi\n        /* \"#utility.yul\":989:1068   */\n      tag_218\n      tag_169\n      jump\t// in\n    tag_218:\n        /* \"#utility.yul\":951:1070   */\n    tag_217:\n        /* \"#utility.yul\":1109:1110   */\n      0x00\n        /* \"#utility.yul\":1134:1187   */\n      tag_219\n        /* \"#utility.yul\":1179:1186   */\n      dup7\n        /* \"#utility.yul\":1170:1176   */\n      dup3\n        /* \"#utility.yul\":1159:1168   */\n      dup8\n        /* \"#utility.yul\":1155:1177   */\n      add\n        /* \"#utility.yul\":1134:1187   */\n      tag_174\n      jump\t// in\n    tag_219:\n        /* \"#utility.yul\":1124:1187   */\n      swap4\n      pop\n        /* \"#utility.yul\":1080:1197   */\n      pop\n        /* \"#utility.yul\":1236:1238   */\n      0x20\n        /* \"#utility.yul\":1262:1315   */\n      tag_220\n        /* \"#utility.yul\":1307:1314   */\n      dup7\n        /* \"#utility.yul\":1298:1304   */\n      dup3\n        /* \"#utility.yul\":1287:1296   */\n      dup8\n        /* \"#utility.yul\":1283:1305   */\n      add\n        /* \"#utility.yul\":1262:1315   */\n      tag_174\n      jump\t// in\n    tag_220:\n        /* \"#utility.yul\":1252:1315   */\n      swap3\n      pop\n        /* \"#utility.yul\":1207:1325   */\n      pop\n        /* \"#utility.yul\":1364:1366   */\n      0x40\n        /* \"#utility.yul\":1390:1443   */\n      tag_221\n        /* \"#utility.yul\":1435:1442   */\n      dup7\n        /* \"#utility.yul\":1426:1432   */\n      dup3\n        /* \"#utility.yul\":1415:1424   */\n      dup8\n        /* \"#utility.yul\":1411:1433   */\n      add\n        /* \"#utility.yul\":1390:1443   */\n      tag_174\n      jump\t// in\n    tag_221:\n        /* \"#utility.yul\":1380:1443   */\n      swap2\n      pop\n        /* \"#utility.yul\":1335:1453   */\n      pop\n        /* \"#utility.yul\":841:1460   */\n      swap3\n      pop\n      swap3\n      pop\n      swap3\n      jump\t// out\n        /* \"#utility.yul\":1466:1795   */\n    tag_22:\n        /* \"#utility.yul\":1525:1531   */\n      0x00\n        /* \"#utility.yul\":1574:1576   */\n      0x20\n        /* \"#utility.yul\":1562:1571   */\n      dup3\n        /* \"#utility.yul\":1553:1560   */\n      dup5\n        /* \"#utility.yul\":1549:1572   */\n      sub\n        /* \"#utility.yul\":1545:1577   */\n      slt\n        /* \"#utility.yul\":1542:1661   */\n      iszero\n      tag_223\n      jumpi\n        /* \"#utility.yul\":1580:1659   */\n      tag_224\n      tag_169\n      jump\t// in\n    tag_224:\n        /* \"#utility.yul\":1542:1661   */\n    tag_223:\n        /* \"#utility.yul\":1700:1701   */\n      0x00\n        /* \"#utility.yul\":1725:1778   */\n      tag_225\n        /* \"#utility.yul\":1770:1777   */\n      dup5\n        /* \"#utility.yul\":1761:1767   */\n      dup3\n        /* \"#utility.yul\":1750:1759   */\n      dup6\n        /* \"#utility.yul\":1746:1768   */\n      add\n        /* \"#utility.yul\":1725:1778   */\n      tag_174\n      jump\t// in\n    tag_225:\n        /* \"#utility.yul\":1715:1778   */\n      swap2\n      pop\n        /* \"#utility.yul\":1671:1788   */\n      pop\n        /* \"#utility.yul\":1466:1795   */\n      swap3\n      swap2\n      pop\n      pop\n      jump\t// out\n        /* \"#utility.yul\":1801:1891   */\n    tag_175:\n        /* \"#utility.yul\":1835:1842   */\n      0x00\n        /* \"#utility.yul\":1878:1883   */\n      dup2\n        /* \"#utility.yul\":1871:1884   */\n      iszero\n        /* \"#utility.yul\":1864:1885   */\n      iszero\n        /* \"#utility.yul\":1853:1885   */\n      swap1\n      pop\n        /* \"#utility.yul\":1801:1891   */\n      swap2\n      swap1\n      pop\n      jump\t// out\n        /* \"#utility.yul\":1897:2006   */\n    tag_176:\n        /* \"#utility.yul\":1978:1999   */\n      tag_228\n        /* \"#utility.yul\":1993:1998   */\n      dup2\n        /* \"#utility.yul\":1978:1999   */\n      tag_175\n      jump\t// in\n    tag_228:\n        /* \"#utility.yul\":1973:1976   */\n      dup3\n        /* \"#utility.yul\":1966:2000   */\n      mstore\n        /* \"#utility.yul\":1897:2006   */\n      pop\n      pop\n      jump\t// out\n        /* \"#utility.yul\":2012:2222   */\n    tag_25:\n        /* \"#utility.yul\":2099:2103   */\n      0x00\n        /* \"#utility.yul\":2137:2139   */\n      0x20\n        /* \"#utility.yul\":2126:2135   */\n      dup3\n        /* \"#utility.yul\":2122:2140   */\n      add\n        /* \"#utility.yul\":2114:2140   */\n      swap1\n      pop\n        /* \"#utility.yul\":2150:2215   */\n      tag_230\n        /* \"#utility.yul\":2212:2213   */\n      0x00\n        /* \"#utility.yul\":2201:2210   */\n      dup4\n        /* \"#utility.yul\":2197:2214   */\n      add\n        /* \"#utility.yul\":2188:2194   */\n      dup5\n        /* \"#utility.yul\":2150:2215   */\n      tag_176\n      jump\t// in\n    tag_230:\n        /* \"#utility.yul\":2012:2222   */\n      swap3\n      swap2\n      pop\n      pop\n      jump\t// out\n        /* \"#utility.yul\":2228:2305   */\n    tag_177:\n        /* \"#utility.yul\":2265:2272   */\n      0x00\n        /* \"#utility.yul\":2294:2299   */\n      dup2\n        /* \"#utility.yul\":2283:2299   */\n      swap1\n      pop\n        /* \"#utility.yul\":2228:2305   */\n      swap2\n      swap1\n      pop\n      jump\t// out\n        /* \"#utility.yul\":2311:2433   */\n    tag_178:\n        /* \"#utility.yul\":2384:2408   */\n      tag_233\n        /* \"#utility.yul\":2402:2407   */\n      dup2\n        /* \"#utility.yul\":2384:2408   */\n      tag_177\n      jump\t// in\n    tag_233:\n        /* \"#utility.yul\":2377:2382   */\n      dup2\n        /* \"#utility.yul\":2374:2409   */\n      eq\n        /* \"#utility.yul\":2364:2427   */\n      tag_234\n      jumpi\n        /* \"#utility.yul\":2423:2424   */\n      0x00\n        /* \"#utility.yul\":2420:2421   */\n      0x00\n        /* \"#utility.yul\":2413:2425   */\n      revert\n        /* \"#utility.yul\":2364:2427   */\n    tag_234:\n        /* \"#utility.yul\":2311:2433   */\n      pop\n      jump\t// out\n        /* \"#utility.yul\":2439:2578   */\n    tag_179:\n        /* \"#utility.yul\":2485:2490   */\n      0x00\n        /* \"#utility.yul\":2523:2529   */\n      dup2\n        /* \"#utility.yul\":2510:2530   */\n      calldataload\n        /* \"#utility.yul\":2501:2530   */\n      swap1\n      pop\n        /* \"#utility.yul\":2539:2572   */\n      tag_236\n        /* \"#utility.yul\":2566:2571   */\n      dup2\n        /* \"#utility.yul\":2539:2572   */\n      tag_178\n      jump\t// in\n    tag_236:\n        /* \"#utility.yul\":2439:2578   */\n      swap3\n      swap2\n      pop\n      pop\n      jump\t// out\n        /* \"#utility.yul\":2584:2913   */\n    tag_28:\n        /* \"#utility.yul\":2643:2649   */\n      0x00\n        /* \"#utility.yul\":2692:2694   */\n      0x20\n        /* \"#utility.yul\":2680:2689   */\n      dup3\n        /* \"#utility.yul\":2671:2678   */\n      dup5\n        /* \"#utility.yul\":2667:2690   */\n      sub\n        /* \"#utility.yul\":2663:2695   */\n      slt\n        /* \"#utility.yul\":2660:2779   */\n      iszero\n      tag_238\n      jumpi\n        /* \"#utility.yul\":2698:2777   */\n      tag_239\n      tag_169\n      jump\t// in\n    tag_239:\n        /* \"#utility.yul\":2660:2779   */\n    tag_238:\n        /* \"#utility.yul\":2818:2819   */\n      0x00\n        /* \"#utility.yul\":2843:2896   */\n      tag_240\n        /* \"#utility.yul\":2888:2895   */\n      dup5\n        /* \"#utility.yul\":2879:2885   */\n      dup3\n        /* \"#utility.yul\":2868:2877   */\n      dup6\n        /* \"#utility.yul\":2864:2886   */\n      add\n        /* \"#utility.yul\":2843:2896   */\n      tag_179\n      jump\t// in\n    tag_240:\n        /* \"#utility.yul\":2833:2896   */\n      swap2\n      pop\n        /* \"#utility.yul\":2789:2906   */\n      pop\n        /* \"#utility.yul\":2584:2913   */\n      swap3\n      swap2\n      pop\n      pop\n      jump\t// out\n        /* \"#utility.yul\":2919:3037   */\n    tag_180:\n        /* \"#utility.yul\":3006:3030   */\n      tag_242\n        /* \"#utility.yul\":3024:3029   */\n      dup2\n        /* \"#utility.yul\":3006:3030   */\n      tag_172\n      jump\t// in\n    tag_242:\n        /* \"#utility.yul\":3001:3004   */\n      dup3\n        /* \"#utility.yul\":2994:3031   */\n      mstore\n        /* \"#utility.yul\":2919:3037   */\n      pop\n      pop\n      jump\t// out\n        /* \"#utility.yul\":3043:3161   */\n    tag_181:\n        /* \"#utility.yul\":3130:3154   */\n      tag_244\n        /* \"#utility.yul\":3148:3153   */\n      dup2\n        /* \"#utility.yul\":3130:3154   */\n      tag_177\n      jump\t// in\n    tag_244:\n        /* \"#utility.yul\":3125:3128   */\n      dup3\n        /* \"#utility.yul\":3118:3155   */\n      mstore\n        /* \"#utility.yul\":3043:3161   */\n      pop\n      pop\n      jump\t// out\n        /* \"#utility.yul\":3167:3347   */\n    tag_71:\n        /* \"#utility.yul\":3215:3292   */\n      0x4e487b7100000000000000000000000000000000000000000000000000000000\n        /* \"#utility.yul\":3212:3213   */\n      0x00\n        /* \"#utility.yul\":3205:3293   */\n      mstore\n        /* \"#utility.yul\":3312:3316   */\n      0x21\n        /* \"#utility.yul\":3309:3310   */\n      0x04\n        /* \"#utility.yul\":3302:3317   */\n      mstore\n        /* \"#utility.yul\":3336:3340   */\n      0x24\n        /* \"#utility.yul\":3333:3334   */\n      0x00\n        /* \"#utility.yul\":3326:3341   */\n      revert\n        /* \"#utility.yul\":3353:3475   */\n    tag_182:\n        /* \"#utility.yul\":3443:3444   */\n      0x02\n        /* \"#utility.yul\":3436:3441   */\n      dup2\n        /* \"#utility.yul\":3433:3445   */\n      lt\n        /* \"#utility.yul\":3423:3469   */\n      tag_247\n      jumpi\n        /* \"#utility.yul\":3449:3467   */\n      tag_248\n      tag_71\n      jump\t// in\n    tag_248:\n        /* \"#utility.yul\":3423:3469   */\n    tag_247:\n        /* \"#utility.yul\":3353:3475   */\n      pop\n      jump\t// out\n        /* \"#utility.yul\":3481:3626   */\n    tag_183:\n        /* \"#utility.yul\":3535:3542   */\n      0x00\n        /* \"#utility.yul\":3564:3569   */\n      dup2\n        /* \"#utility.yul\":3553:3569   */\n      swap1\n      pop\n        /* \"#utility.yul\":3570:3620   */\n      tag_250\n        /* \"#utility.yul\":3614:3619   */\n      dup3\n        /* \"#utility.yul\":3570:3620   */\n      tag_182\n      jump\t// in\n    tag_250:\n        /* \"#utility.yul\":3481:3626   */\n      swap2\n      swap1\n      pop\n      jump\t// out\n        /* \"#utility.yul\":3632:3777   */\n    tag_184:\n        /* \"#utility.yul\":3697:3706   */\n      0x00\n        /* \"#utility.yul\":3730:3771   */\n      tag_252\n        /* \"#utility.yul\":3765:3770   */\n      dup3\n        /* \"#utility.yul\":3730:3771   */\n      tag_183\n      jump\t// in\n    tag_252:\n        /* \"#utility.yul\":3717:3771   */\n      swap1\n      pop\n        /* \"#utility.yul\":3632:3777   */\n      swap2\n      swap1\n      pop\n      jump\t// out\n        /* \"#utility.yul\":3783:3944   */\n    tag_185:\n        /* \"#utility.yul\":3885:3937   */\n      tag_254\n        /* \"#utility.yul\":3931:3936   */\n      dup2\n        /* \"#utility.yul\":3885:3937   */\n      tag_184\n      jump\t// in\n    tag_254:\n        /* \"#utility.yul\":3880:3883   */\n      dup3\n        /* \"#utility.yul\":3873:3938   */\n      mstore\n        /* \"#utility.yul\":3783:3944   */\n      pop\n      pop\n      jump\t// out\n        /* \"#utility.yul\":3950:4066   */\n    tag_186:\n        /* \"#utility.yul\":4034:4035   */\n      0x03\n        /* \"#utility.yul\":4027:4032   */\n      dup2\n        /* \"#utility.yul\":4024:4036   */\n      lt\n        /* \"#utility.yul\":4014:4060   */\n      tag_256\n      jumpi\n        /* \"#utility.yul\":4040:4058   */\n      tag_257\n      tag_71\n      jump\t// in\n    tag_257:\n        /* \"#utility.yul\":4014:4060   */\n    tag_256:\n        /* \"#utility.yul\":3950:4066   */\n      pop\n      jump\t// out\n        /* \"#utility.yul\":4072:4205   */\n    tag_187:\n        /* \"#utility.yul\":4120:4127   */\n      0x00\n        /* \"#utility.yul\":4149:4154   */\n      dup2\n        /* \"#utility.yul\":4138:4154   */\n      swap1\n      pop\n        /* \"#utility.yul\":4155:4199   */\n      tag_259\n        /* \"#utility.yul\":4193:4198   */\n      dup3\n        /* \"#utility.yul\":4155:4199   */\n      tag_186\n      jump\t// in\n    tag_259:\n        /* \"#utility.yul\":4072:4205   */\n      swap2\n      swap1\n      pop\n      jump\t// out\n        /* \"#utility.yul\":4211:4344   */\n    tag_188:\n        /* \"#utility.yul\":4270:4279   */\n      0x00\n        /* \"#utility.yul\":4303:4338   */\n      tag_261\n        /* \"#utility.yul\":4332:4337   */\n      dup3\n        /* \"#utility.yul\":4303:4338   */\n      tag_187\n      jump\t// in\n    tag_261:\n        /* \"#utility.yul\":4290:4338   */\n      swap1\n      pop\n        /* \"#utility.yul\":4211:4344   */\n      swap2\n      swap1\n      pop\n      jump\t// out\n        /* \"#utility.yul\":4350:4499   */\n    tag_189:\n        /* \"#utility.yul\":4446:4492   */\n      tag_263\n        /* \"#utility.yul\":4486:4491   */\n      dup2\n        /* \"#utility.yul\":4446:4492   */\n      tag_188\n      jump\t// in\n    tag_263:\n        /* \"#utility.yul\":4441:4444   */\n      dup3\n        /* \"#utility.yul\":4434:4493   */\n      mstore\n        /* \"#utility.yul\":4350:4499   */\n      pop\n      pop\n      jump\t// out\n        /* \"#utility.yul\":4505:5439   */\n    tag_31:\n        /* \"#utility.yul\":4790:4794   */\n      0x00\n        /* \"#utility.yul\":4828:4831   */\n      0xe0\n        /* \"#utility.yul\":4817:4826   */\n      dup3\n        /* \"#utility.yul\":4813:4832   */\n      add\n        /* \"#utility.yul\":4805:4832   */\n      swap1\n      pop\n        /* \"#utility.yul\":4842:4913   */\n      tag_265\n        /* \"#utility.yul\":4910:4911   */\n      0x00\n        /* \"#utility.yul\":4899:4908   */\n      dup4\n        /* \"#utility.yul\":4895:4912   */\n      add\n        /* \"#utility.yul\":4886:4892   */\n      dup11\n        /* \"#utility.yul\":4842:4913   */\n      tag_180\n      jump\t// in\n    tag_265:\n        /* \"#utility.yul\":4923:4995   */\n      tag_266\n        /* \"#utility.yul\":4991:4993   */\n      0x20\n        /* \"#utility.yul\":4980:4989   */\n      dup4\n        /* \"#utility.yul\":4976:4994   */\n      add\n        /* \"#utility.yul\":4967:4973   */\n      dup10\n        /* \"#utility.yul\":4923:4995   */\n      tag_180\n      jump\t// in\n    tag_266:\n        /* \"#utility.yul\":5005:5077   */\n      tag_267\n        /* \"#utility.yul\":5073:5075   */\n      0x40\n        /* \"#utility.yul\":5062:5071   */\n      dup4\n        /* \"#utility.yul\":5058:5076   */\n      add\n        /* \"#utility.yul\":5049:5055   */\n      dup9\n        /* \"#utility.yul\":5005:5077   */\n      tag_180\n      jump\t// in\n    tag_267:\n        /* \"#utility.yul\":5087:5159   */\n      tag_268\n        /* \"#utility.yul\":5155:5157   */\n      0x60\n        /* \"#utility.yul\":5144:5153   */\n      dup4\n        /* \"#utility.yul\":5140:5158   */\n      add\n        /* \"#utility.yul\":5131:5137   */\n      dup8\n        /* \"#utility.yul\":5087:5159   */\n      tag_181\n      jump\t// in\n    tag_268:\n        /* \"#utility.yul\":5169:5242   */\n      tag_269\n        /* \"#utility.yul\":5237:5240   */\n      0x80\n        /* \"#utility.yul\":5226:5235   */\n      dup4\n        /* \"#utility.yul\":5222:5241   */\n      add\n        /* \"#utility.yul\":5213:5219   */\n      dup7\n        /* \"#utility.yul\":5169:5242   */\n      tag_181\n      jump\t// in\n    tag_269:\n        /* \"#utility.yul\":5252:5340   */\n      tag_270\n        /* \"#utility.yul\":5335:5338   */\n      0xa0\n        /* \"#utility.yul\":5324:5333   */\n      dup4\n        /* \"#utility.yul\":5320:5339   */\n      add\n        /* \"#utility.yul\":5311:5317   */\n      dup6\n        /* \"#utility.yul\":5252:5340   */\n      tag_185\n      jump\t// in\n    tag_270:\n        /* \"#utility.yul\":5350:5432   */\n      tag_271\n        /* \"#utility.yul\":5427:5430   */\n      0xc0\n        /* \"#utility.yul\":5416:5425   */\n      dup4\n        /* \"#utility.yul\":5412:5431   */\n      add\n        /* \"#utility.yul\":5403:5409   */\n      dup5\n        /* \"#utility.yul\":5350:5432   */\n      tag_189\n      jump\t// in\n    tag_271:\n        /* \"#utility.yul\":4505:5439   */\n      swap9\n      swap8\n      pop\n      pop\n      pop\n      pop\n      pop\n      pop\n      pop\n      pop\n      jump\t// out\n        /* \"#utility.yul\":5445:5555   */\n    tag_190:\n        /* \"#utility.yul\":5529:5530   */\n      0x03\n        /* \"#utility.yul\":5522:5527   */\n      dup2\n        /* \"#utility.yul\":5519:5531   */\n      lt\n        /* \"#utility.yul\":5509:5549   */\n      tag_273\n      jumpi\n        /* \"#utility.yul\":5545:5546   */\n      0x00\n        /* \"#utility.yul\":5542:5543   */\n      0x00\n        /* \"#utility.yul\":5535:5547   */\n      revert\n        /* \"#utility.yul\":5509:5549   */\n    tag_273:\n        /* \"#utility.yul\":5445:5555   */\n      pop\n      jump\t// out\n        /* \"#utility.yul\":5561:5722   */\n    tag_191:\n        /* \"#utility.yul\":5618:5623   */\n      0x00\n        /* \"#utility.yul\":5656:5662   */\n      dup2\n        /* \"#utility.yul\":5643:5663   */\n      calldataload\n        /* \"#utility.yul\":5634:5663   */\n      swap1\n      pop\n        /* \"#utility.yul\":5672:5716   */\n      tag_275\n        /* \"#utility.yul\":5710:5715   */\n      dup2\n        /* \"#utility.yul\":5672:5716   */\n      tag_190\n      jump\t// in\n    tag_275:\n        /* \"#utility.yul\":5561:5722   */\n      swap3\n      swap2\n      pop\n      pop\n      jump\t// out\n        /* \"#utility.yul\":5728:6224   */\n    tag_34:\n        /* \"#utility.yul\":5807:5813   */\n      0x00\n        /* \"#utility.yul\":5815:5821   */\n      0x00\n        /* \"#utility.yul\":5864:5866   */\n      0x40\n        /* \"#utility.yul\":5852:5861   */\n      dup4\n        /* \"#utility.yul\":5843:5850   */\n      dup6\n        /* \"#utility.yul\":5839:5862   */\n      sub\n        /* \"#utility.yul\":5835:5867   */\n      slt\n        /* \"#utility.yul\":5832:5951   */\n      iszero\n      tag_277\n      jumpi\n        /* \"#utility.yul\":5870:5949   */\n      tag_278\n      tag_169\n      jump\t// in\n    tag_278:\n        /* \"#utility.yul\":5832:5951   */\n    tag_277:\n        /* \"#utility.yul\":5990:5991   */\n      0x00\n        /* \"#utility.yul\":6015:6068   */\n      tag_279\n        /* \"#utility.yul\":6060:6067   */\n      dup6\n        /* \"#utility.yul\":6051:6057   */\n      dup3\n        /* \"#utility.yul\":6040:6049   */\n      dup7\n        /* \"#utility.yul\":6036:6058   */\n      add\n        /* \"#utility.yul\":6015:6068   */\n      tag_179\n      jump\t// in\n    tag_279:\n        /* \"#utility.yul\":6005:6068   */\n      swap3\n      pop\n        /* \"#utility.yul\":5961:6078   */\n      pop\n        /* \"#utility.yul\":6117:6119   */\n      0x20\n        /* \"#utility.yul\":6143:6207   */\n      tag_280\n        /* \"#utility.yul\":6199:6206   */\n      dup6\n        /* \"#utility.yul\":6190:6196   */\n      dup3\n        /* \"#utility.yul\":6179:6188   */\n      dup7\n        /* \"#utility.yul\":6175:6197   */\n      add\n        /* \"#utility.yul\":6143:6207   */\n      tag_191\n      jump\t// in\n    tag_280:\n        /* \"#utility.yul\":6133:6207   */\n      swap2\n      pop\n        /* \"#utility.yul\":6088:6217   */\n      pop\n        /* \"#utility.yul\":5728:6224   */\n      swap3\n      pop\n      swap3\n      swap1\n      pop\n      jump\t// out\n        /* \"#utility.yul\":6230:6704   */\n    tag_38:\n        /* \"#utility.yul\":6298:6304   */\n      0x00\n        /* \"#utility.yul\":6306:6312   */\n      0x00\n        /* \"#utility.yul\":6355:6357   */\n      0x40\n        /* \"#utility.yul\":6343:6352   */\n      dup4\n        /* \"#utility.yul\":6334:6341   */\n      dup6\n        /* \"#utility.yul\":6330:6353   */\n      sub\n        /* \"#utility.yul\":6326:6358   */\n      slt\n        /* \"#utility.yul\":6323:6442   */\n      iszero\n      tag_282\n      jumpi\n        /* \"#utility.yul\":6361:6440   */\n      tag_283\n      tag_169\n      jump\t// in\n    tag_283:\n        /* \"#utility.yul\":6323:6442   */\n    tag_282:\n        /* \"#utility.yul\":6481:6482   */\n      0x00\n        /* \"#utility.yul\":6506:6559   */\n      tag_284\n        /* \"#utility.yul\":6551:6558   */\n      dup6\n        /* \"#utility.yul\":6542:6548   */\n      dup3\n        /* \"#utility.yul\":6531:6540   */\n      dup7\n        /* \"#utility.yul\":6527:6549   */\n      add\n        /* \"#utility.yul\":6506:6559   */\n      tag_179\n      jump\t// in\n    tag_284:\n        /* \"#utility.yul\":6496:6559   */\n      swap3\n      pop\n        /* \"#utility.yul\":6452:6569   */\n      pop\n        /* \"#utility.yul\":6608:6610   */\n      0x20\n        /* \"#utility.yul\":6634:6687   */\n      tag_285\n        /* \"#utility.yul\":6679:6686   */\n      dup6\n        /* \"#utility.yul\":6670:6676   */\n      dup3\n        /* \"#utility.yul\":6659:6668   */\n      dup7\n        /* \"#utility.yul\":6655:6677   */\n      add\n        /* \"#utility.yul\":6634:6687   */\n      tag_174\n      jump\t// in\n    tag_285:\n        /* \"#utility.yul\":6624:6687   */\n      swap2\n      pop\n        /* \"#utility.yul\":6579:6697   */\n      pop\n        /* \"#utility.yul\":6230:6704   */\n      swap3\n      pop\n      swap3\n      swap1\n      pop\n      jump\t// out\n        /* \"#utility.yul\":6710:6932   */\n    tag_46:\n        /* \"#utility.yul\":6803:6807   */\n      0x00\n        /* \"#utility.yul\":6841:6843   */\n      0x20\n        /* \"#utility.yul\":6830:6839   */\n      dup3\n        /* \"#utility.yul\":6826:6844   */\n      add\n        /* \"#utility.yul\":6818:6844   */\n      swap1\n      pop\n        /* \"#utility.yul\":6854:6925   */\n      tag_287\n        /* \"#utility.yul\":6922:6923   */\n      0x00\n        /* \"#utility.yul\":6911:6920   */\n      dup4\n        /* \"#utility.yul\":6907:6924   */\n      add\n        /* \"#utility.yul\":6898:6904   */\n      dup5\n        /* \"#utility.yul\":6854:6925   */\n      tag_180\n      jump\t// in\n    tag_287:\n        /* \"#utility.yul\":6710:6932   */\n      swap3\n      swap2\n      pop\n      pop\n      jump\t// out\n        /* \"#utility.yul\":6938:7160   */\n    tag_50:\n        /* \"#utility.yul\":7031:7035   */\n      0x00\n        /* \"#utility.yul\":7069:7071   */\n      0x20\n        /* \"#utility.yul\":7058:7067   */\n      dup3\n        /* \"#utility.yul\":7054:7072   */\n      add\n        /* \"#utility.yul\":7046:7072   */\n      swap1\n      pop\n        /* \"#utility.yul\":7082:7153   */\n      tag_289\n        /* \"#utility.yul\":7150:7151   */\n      0x00\n        /* \"#utility.yul\":7139:7148   */\n      dup4\n        /* \"#utility.yul\":7135:7152   */\n      add\n        /* \"#utility.yul\":7126:7132   */\n      dup5\n        /* \"#utility.yul\":7082:7153   */\n      tag_181\n      jump\t// in\n    tag_289:\n        /* \"#utility.yul\":6938:7160   */\n      swap3\n      swap2\n      pop\n      pop\n      jump\t// out\n        /* \"#utility.yul\":7166:7346   */\n    tag_192:\n        /* \"#utility.yul\":7214:7291   */\n      0x4e487b7100000000000000000000000000000000000000000000000000000000\n        /* \"#utility.yul\":7211:7212   */\n      0x00\n        /* \"#utility.yul\":7204:7292   */\n      mstore\n        /* \"#utility.yul\":7311:7315   */\n      0x11\n        /* \"#utility.yul\":7308:7309   */\n      0x04\n        /* \"#utility.yul\":7301:7316   */\n      mstore\n        /* \"#utility.yul\":7335:7339   */\n      0x24\n        /* \"#utility.yul\":7332:7333   */\n      0x00\n        /* \"#utility.yul\":7325:7340   */\n      revert\n        /* \"#utility.yul\":7352:7585   */\n    tag_68:\n        /* \"#utility.yul\":7391:7394   */\n      0x00\n        /* \"#utility.yul\":7414:7438   */\n      tag_292\n        /* \"#utility.yul\":7432:7437   */\n      dup3\n        /* \"#utility.yul\":7414:7438   */\n      tag_177\n      jump\t// in\n    tag_292:\n        /* \"#utility.yul\":7405:7438   */\n      swap2\n      pop\n        /* \"#utility.yul\":7460:7526   */\n      0xffffffffffffffffffffffffffffffffffffffffffffffffffffffffffffffff\n        /* \"#utility.yul\":7453:7458   */\n      dup3\n        /* \"#utility.yul\":7450:7527   */\n      sub\n        /* \"#utility.yul\":7447:7550   */\n      tag_293\n      jumpi\n        /* \"#utility.yul\":7530:7548   */\n      tag_294\n      tag_192\n      jump\t// in\n    tag_294:\n        /* \"#utility.yul\":7447:7550   */\n    tag_293:\n        /* \"#utility.yul\":7577:7578   */\n      0x01\n        /* \"#utility.yul\":7570:7575   */\n      dup3\n        /* \"#utility.yul\":7566:7579   */\n      add\n        /* \"#utility.yul\":7559:7579   */\n      swap1\n      pop\n        /* \"#utility.yul\":7352:7585   */\n      swap2\n      swap1\n      pop\n      jump\t// out\n        /* \"#utility.yul\":7591:7760   */\n    tag_193:\n        /* \"#utility.yul\":7675:7686   */\n      0x00\n        /* \"#utility.yul\":7709:7715   */\n      dup3\n        /* \"#utility.yul\":7704:7707   */\n      dup3\n        /* \"#utility.yul\":7697:7716   */\n      mstore\n        /* \"#utility.yul\":7749:7753   */\n      0x20\n        /* \"#utility.yul\":7744:7747   */\n      dup3\n        /* \"#utility.yul\":7740:7754   */\n      add\n        /* \"#utility.yul\":7725:7754   */\n      swap1\n      pop\n        /* \"#utility.yul\":7591:7760   */\n      swap3\n      swap2\n      pop\n      pop\n      jump\t// out\n        /* \"#utility.yul\":7766:7936   */\n    tag_194:\n        /* \"#utility.yul\":7906:7928   */\n      0x446973707574653a204e6f742061206a75726f72000000000000000000000000\n        /* \"#utility.yul\":7902:7903   */\n      0x00\n        /* \"#utility.yul\":7894:7900   */\n      dup3\n        /* \"#utility.yul\":7890:7904   */\n      add\n        /* \"#utility.yul\":7883:7929   */\n      mstore\n        /* \"#utility.yul\":7766:7936   */\n      pop\n      jump\t// out\n        /* \"#utility.yul\":7942:8308   */\n    tag_195:\n        /* \"#utility.yul\":8084:8087   */\n      0x00\n        /* \"#utility.yul\":8105:8172   */\n      tag_298\n        /* \"#utility.yul\":8169:8171   */\n      0x14\n        /* \"#utility.yul\":8164:8167   */\n      dup4\n        /* \"#utility.yul\":8105:8172   */\n      tag_193\n      jump\t// in\n    tag_298:\n        /* \"#utility.yul\":8098:8172   */\n      swap2\n      pop\n        /* \"#utility.yul\":8181:8274   */\n      tag_299\n        /* \"#utility.yul\":8270:8273   */\n      dup3\n        /* \"#utility.yul\":8181:8274   */\n      tag_194\n      jump\t// in\n    tag_299:\n        /* \"#utility.yul\":8299:8301   */\n      0x20\n        /* \"#utility.yul\":8294:8297   */\n      dup3\n        /* \"#utility.yul\":8290:8302   */\n      add\n        /* \"#utility.yul\":8283:8302   */\n      swap1\n      pop\n        /* \"#utility.yul\":7942:8308   */\n      swap2\n      swap1\n      pop\n      jump\t// out\n        /* \"#utility.yul\":8314:8733   */\n    tag_81:\n        /* \"#utility.yul\":8480:8484   */\n      0x00\n        /* \"#utility.yul\":8518:8520   */\n      0x20\n        /* \"#utility.yul\":8507:8516   */\n      dup3\n        /* \"#utility.yul\":8503:8521   */\n      add\n        /* \"#utility.yul\":8495:8521   */\n      swap1\n      pop\n        /* \"#utility.yul\":8567:8576   */\n      dup2\n        /* \"#utility.yul\":8561:8565   */\n      dup2\n        /* \"#utility.yul\":8557:8577   */\n      sub\n        /* \"#utility.yul\":8553:8554   */\n      0x00\n        /* \"#utility.yul\":8542:8551   */\n      dup4\n        /* \"#utility.yul\":8538:8555   */\n      add\n        /* \"#utility.yul\":8531:8578   */\n      mstore\n        /* \"#utility.yul\":8595:8726   */\n      tag_301\n        /* \"#utility.yul\":8721:8725   */\n      dup2\n        /* \"#utility.yul\":8595:8726   */\n      tag_195\n      jump\t// in\n    tag_301:\n        /* \"#utility.yul\":8587:8726   */\n      swap1\n      pop\n        /* \"#utility.yul\":8314:8733   */\n      swap2\n      swap1\n      pop\n      jump\t// out\n        /* \"#utility.yul\":8739:8915   */\n    tag_196:\n        /* \"#utility.yul\":8879:8907   */\n      0x446973707574653a20566f74696e67206e6f7420616374697665000000000000\n        /* \"#utility.yul\":8875:8876   */\n      0x00\n        /* \"#utility.yul\":8867:8873   */\n      dup3\n        /* \"#utility.yul\":8863:8877   */\n      add\n        /* \"#utility.yul\":8856:8908   */\n      mstore\n        /* \"#utility.yul\":8739:8915   */\n      pop\n      jump\t// out\n        /* \"#utility.yul\":8921:9287   */\n    tag_197:\n        /* \"#utility.yul\":9063:9066   */\n      0x00\n        /* \"#utility.yul\":9084:9151   */\n      tag_304\n        /* \"#utility.yul\":9148:9150   */\n      0x1a\n        /* \"#utility.yul\":9143:9146   */\n      dup4\n        /* \"#utility.yul\":9084:9151   */\n      tag_193\n      jump\t// in\n    tag_304:\n        /* \"#utility.yul\":9077:9151   */\n      swap2\n      pop\n        /* \"#utility.yul\":9160:9253   */\n      tag_305\n        /* \"#utility.yul\":9249:9252   */\n      dup3\n        /* \"#utility.yul\":9160:9253   */\n      tag_196\n      jump\t// in\n    tag_305:\n        /* \"#utility.yul\":9278:9280   */\n      0x20\n        /* \"#utility.yul\":9273:9276   */\n      dup3\n        /* \"#utility.yul\":9269:9281   */\n      add\n        /* \"#utility.yul\":9262:9281   */\n      swap1\n      pop\n        /* \"#utility.yul\":8921:9287   */\n      swap2\n      swap1\n      pop\n      jump\t// out\n        /* \"#utility.yul\":9293:9712   */\n    tag_88:\n        /* \"#utility.yul\":9459:9463   */\n      0x00\n        /* \"#utility.yul\":9497:9499   */\n      0x20\n        /* \"#utility.yul\":9486:9495   */\n      dup3\n        /* \"#utility.yul\":9482:9500   */\n      add\n        /* \"#utility.yul\":9474:9500   */\n      swap1\n      pop\n        /* \"#utility.yul\":9546:9555   */\n      dup2\n        /* \"#utility.yul\":9540:9544   */\n      dup2\n        /* \"#utility.yul\":9536:9556   */\n      sub\n        /* \"#utility.yul\":9532:9533   */\n      0x00\n        /* \"#utility.yul\":9521:9530   */\n      dup4\n        /* \"#utility.yul\":9517:9534   */\n      add\n        /* \"#utility.yul\":9510:9557   */\n      mstore\n        /* \"#utility.yul\":9574:9705   */\n      tag_307\n        /* \"#utility.yul\":9700:9704   */\n      dup2\n        /* \"#utility.yul\":9574:9705   */\n      tag_197\n      jump\t// in\n    tag_307:\n        /* \"#utility.yul\":9566:9705   */\n      swap1\n      pop\n        /* \"#utility.yul\":9293:9712   */\n      swap2\n      swap1\n      pop\n      jump\t// out\n        /* \"#utility.yul\":9718:9900   */\n    tag_198:\n        /* \"#utility.yul\":9858:9892   */\n      0x446973707574653a204a75726f722068617320616c726561647920766f746564\n        /* \"#utility.yul\":9854:9855   */\n      0x00\n        /* \"#utility.yul\":9846:9852   */\n      dup3\n        /* \"#utility.yul\":9842:9856   */\n      add\n        /* \"#utility.yul\":9835:9893   */\n      mstore\n        /* \"#utility.yul\":9718:9900   */\n      pop\n      jump\t// out\n        /* \"#utility.yul\":9906:10272   */\n    tag_199:\n        /* \"#utility.yul\":10048:10051   */\n      0x00\n        /* \"#utility.yul\":10069:10136   */\n      tag_310\n        /* \"#utility.yul\":10133:10135   */\n      0x20\n        /* \"#utility.yul\":10128:10131   */\n      dup4\n        /* \"#utility.yul\":10069:10136   */\n      tag_193\n      jump\t// in\n    tag_310:\n        /* \"#utility.yul\":10062:10136   */\n      swap2\n      pop\n        /* \"#utility.yul\":10145:10238   */\n      tag_311\n        /* \"#utility.yul\":10234:10237   */\n      dup3\n        /* \"#utility.yul\":10145:10238   */\n      tag_198\n      jump\t// in\n    tag_311:\n        /* \"#utility.yul\":10263:10265   */\n      0x20\n        /* \"#utility.yul\":10258:10261   */\n      dup3\n        /* \"#utility.yul\":10254:10266   */\n      add\n        /* \"#utility.yul\":10247:10266   */\n      swap1\n      pop\n        /* \"#utility.yul\":9906:10272   */\n      swap2\n      swap1\n      pop\n      jump\t// out\n        /* \"#utility.yul\":10278:10697   */\n    tag_91:\n        /* \"#utility.yul\":10444:10448   */\n      0x00\n        /* \"#utility.yul\":10482:10484   */\n      0x20\n        /* \"#utility.yul\":10471:10480   */\n      dup3\n        /* \"#utility.yul\":10467:10485   */\n      add\n        /* \"#utility.yul\":10459:10485   */\n      swap1\n      pop\n        /* \"#utility.yul\":10531:10540   */\n      dup2\n        /* \"#utility.yul\":10525:10529   */\n      dup2\n        /* \"#utility.yul\":10521:10541   */\n      sub\n        /* \"#utility.yul\":10517:10518   */\n      0x00\n        /* \"#utility.yul\":10506:10515   */\n      dup4\n        /* \"#utility.yul\":10502:10519   */\n      add\n        /* \"#utility.yul\":10495:10542   */\n      mstore\n        /* \"#utility.yul\":10559:10690   */\n      tag_313\n        /* \"#utility.yul\":10685:10689   */\n      dup2\n        /* \"#utility.yul\":10559:10690   */\n      tag_199\n      jump\t// in\n    tag_313:\n        /* \"#utility.yul\":10551:10690   */\n      swap1\n      pop\n        /* \"#utility.yul\":10278:10697   */\n      swap2\n      swap1\n      pop\n      jump\t// out\n        /* \"#utility.yul\":10703:10874   */\n    tag_200:\n        /* \"#utility.yul\":10843:10866   */\n      0x446973707574653a20496e76616c696420766f74650000000000000000000000\n        /* \"#utility.yul\":10839:10840   */\n      0x00\n        /* \"#utility.yul\":10831:10837   */\n      dup3\n        /* \"#utility.yul\":10827:10841   */\n      add\n        /* \"#utility.yul\":10820:10867   */\n      mstore\n        /* \"#utility.yul\":10703:10874   */\n      pop\n      jump\t// out\n        /* \"#utility.yul\":10880:11246   */\n    tag_201:\n        /* \"#utility.yul\":11022:11025   */\n      0x00\n        /* \"#utility.yul\":11043:11110   */\n      tag_316\n        /* \"#utility.yul\":11107:11109   */\n      0x15\n        /* \"#utility.yul\":11102:11105   */\n      dup4\n        /* \"#utility.yul\":11043:11110   */\n      tag_193\n      jump\t// in\n    tag_316:\n        /* \"#utility.yul\":11036:11110   */\n      swap2\n      pop\n        /* \"#utility.yul\":11119:11212   */\n      tag_317\n        /* \"#utility.yul\":11208:11211   */\n      dup3\n        /* \"#utility.yul\":11119:11212   */\n      tag_200\n      jump\t// in\n    tag_317:\n        /* \"#utility.yul\":11237:11239   */\n      0x20\n        /* \"#utility.yul\":11232:11235   */\n      dup3\n        /* \"#utility.yul\":11228:11240   */\n      add\n        /* \"#utility.yul\":11221:11240   */\n      swap1\n      pop\n        /* \"#utility.yul\":10880:11246   */\n      swap2\n      swap1\n      pop\n      jump\t// out\n        /* \"#utility.yul\":11252:11671   */\n    tag_103:\n        /* \"#utility.yul\":11418:11422   */\n      0x00\n        /* \"#utility.yul\":11456:11458   */\n      0x20\n        /* \"#utility.yul\":11445:11454   */\n      dup3\n        /* \"#utility.yul\":11441:11459   */\n      add\n        /* \"#utility.yul\":11433:11459   */\n      swap1\n      pop\n        /* \"#utility.yul\":11505:11514   */\n      dup2\n        /* \"#utility.yul\":11499:11503   */\n      dup2\n        /* \"#utility.yul\":11495:11515   */\n      sub\n        /* \"#utility.yul\":11491:11492   */\n      0x00\n        /* \"#utility.yul\":11480:11489   */\n      dup4\n        /* \"#utility.yul\":11476:11493   */\n      add\n        /* \"#utility.yul\":11469:11516   */\n      mstore\n        /* \"#utility.yul\":11533:11664   */\n      tag_319\n        /* \"#utility.yul\":11659:11663   */\n      dup2\n        /* \"#utility.yul\":11533:11664   */\n      tag_201\n      jump\t// in\n    tag_319:\n        /* \"#utility.yul\":11525:11664   */\n      swap1\n      pop\n        /* \"#utility.yul\":11252:11671   */\n      swap2\n      swap1\n      pop\n      jump\t// out\n        /* \"#utility.yul\":11677:11917   */\n    tag_113:\n        /* \"#utility.yul\":11779:11783   */\n      0x00\n        /* \"#utility.yul\":11817:11819   */\n      0x20\n        /* \"#utility.yul\":11806:11815   */\n      dup3\n        /* \"#utility.yul\":11802:11820   */\n      add\n        /* \"#utility.yul\":11794:11820   */\n      swap1\n      pop\n        /* \"#utility.yul\":11830:11910   */\n      tag_321\n        /* \"#utility.yul\":11907:11908   */\n      0x00\n        /* \"#utility.yul\":11896:11905   */\n      dup4\n        /* \"#utility.yul\":11892:11909   */\n      add\n        /* \"#utility.yul\":11883:11889   */\n      dup5\n        /* \"#utility.yul\":11830:11910   */\n      tag_189\n      jump\t// in\n    tag_321:\n        /* \"#utility.yul\":11677:11917   */\n      swap3\n      swap2\n      pop\n      pop\n      jump\t// out\n        /* \"#utility.yul\":11923:12095   */\n    tag_202:\n        /* \"#utility.yul\":12063:12087   */\n      0x446973707574653a204e6f7420696e20766f74696e6700000000000000000000\n        /* \"#utility.yul\":12059:12060   */\n      0x00\n        /* \"#utility.yul\":12051:12057   */\n      dup3\n        /* \"#utility.yul\":12047:12061   */\n      add\n        /* \"#utility.yul\":12040:12088   */\n      mstore\n        /* \"#utility.yul\":11923:12095   */\n      pop\n      jump\t// out\n        /* \"#utility.yul\":12101:12467   */\n    tag_203:\n        /* \"#utility.yul\":12243:12246   */\n      0x00\n        /* \"#utility.yul\":12264:12331   */\n      tag_324\n        /* \"#utility.yul\":12328:12330   */\n      0x16\n        /* \"#utility.yul\":12323:12326   */\n      dup4\n        /* \"#utility.yul\":12264:12331   */\n      tag_193\n      jump\t// in\n    tag_324:\n        /* \"#utility.yul\":12257:12331   */\n      swap2\n      pop\n        /* \"#utility.yul\":12340:12433   */\n      tag_325\n        /* \"#utility.yul\":12429:12432   */\n      dup3\n        /* \"#utility.yul\":12340:12433   */\n      tag_202\n      jump\t// in\n    tag_325:\n        /* \"#utility.yul\":12458:12460   */\n      0x20\n        /* \"#utility.yul\":12453:12456   */\n      dup3\n        /* \"#utility.yul\":12449:12461   */\n      add\n        /* \"#utility.yul\":12442:12461   */\n      swap1\n      pop\n        /* \"#utility.yul\":12101:12467   */\n      swap2\n      swap1\n      pop\n      jump\t// out\n        /* \"#utility.yul\":12473:12892   */\n    tag_129:\n        /* \"#utility.yul\":12639:12643   */\n      0x00\n        /* \"#utility.yul\":12677:12679   */\n      0x20\n        /* \"#utility.yul\":12666:12675   */\n      dup3\n        /* \"#utility.yul\":12662:12680   */\n      add\n        /* \"#utility.yul\":12654:12680   */\n      swap1\n      pop\n        /* \"#utility.yul\":12726:12735   */\n      dup2\n        /* \"#utility.yul\":12720:12724   */\n      dup2\n        /* \"#utility.yul\":12716:12736   */\n      sub\n        /* \"#utility.yul\":12712:12713   */\n      0x00\n        /* \"#utility.yul\":12701:12710   */\n      dup4\n        /* \"#utility.yul\":12697:12714   */\n      add\n        /* \"#utility.yul\":12690:12737   */\n      mstore\n        /* \"#utility.yul\":12754:12885   */\n      tag_327\n        /* \"#utility.yul\":12880:12884   */\n      dup2\n        /* \"#utility.yul\":12754:12885   */\n      tag_203\n      jump\t// in\n    tag_327:\n        /* \"#utility.yul\":12746:12885   */\n      swap1\n      pop\n        /* \"#utility.yul\":12473:12892   */\n      swap2\n      swap1\n      pop\n      jump\t// out\n\n    auxdata: 0xa26469706673582212200cd6ce253af0023b48f193a541b2f7fe5c17aab5ba4cc474ccadc3464bc3ee8164736f6c634300081e0033\n}\n",
				"bytecode": {
					"linkReferences": {},
					"object": "608060405234801561000f575f5ffd5b5060405161169c38038061169c833981810160405281019061003191906101d7565b805f73ffffffffffffffffffffffffffffffffffffffff168173ffffffffffffffffffffffffffffffffffffffff16036100a2575f6040517f1e4fbdf70000000000000000000000000000000000000000000000000000000081526004016100999190610211565b60405180910390fd5b6100b1816100b860201b60201c565b505061022a565b5f5f5f9054906101000a900473ffffffffffffffffffffffffffffffffffffffff169050815f5f6101000a81548173ffffffffffffffffffffffffffffffffffffffff021916908373ffffffffffffffffffffffffffffffffffffffff1602179055508173ffffffffffffffffffffffffffffffffffffffff168173ffffffffffffffffffffffffffffffffffffffff167f8be0079c531659141344cd1fd0a4f28419497f9722a3daafe3b4186f6b6457e060405160405180910390a35050565b5f5ffd5b5f73ffffffffffffffffffffffffffffffffffffffff82169050919050565b5f6101a68261017d565b9050919050565b6101b68161019c565b81146101c0575f5ffd5b50565b5f815190506101d1816101ad565b92915050565b5f602082840312156101ec576101eb610179565b5b5f6101f9848285016101c3565b91505092915050565b61020b8161019c565b82525050565b5f6020820190506102245f830184610202565b92915050565b611465806102375f395ff3fe608060405234801561000f575f5ffd5b50600436106100b2575f3560e01c80638da5cb5b1161006f5780638da5cb5b1461018e578063a28889e1146101ac578063c2b7b868146101ca578063cb552b46146101e6578063f2fde38b14610202578063f6cd25f01461021e576100b2565b806315b39b68146100b65780632037a7aa146100d2578063564a565d1461010257806356781388146101385780636c8dc28814610154578063715018a614610184575b5f5ffd5b6100d060048036038101906100cb9190610e69565b61023a565b005b6100ec60048036038101906100e79190610eb9565b610499565b6040516100f99190610efe565b60405180910390f35b61011c60048036038101906101179190610f4a565b6104b6565b60405161012f979695949392919061104c565b60405180910390f35b610152600480360381019061014d91906110dc565b61056a565b005b61016e6004803603810190610169919061111a565b6108c7565b60405161017b9190610efe565b60405180910390f35b61018c6108f1565b005b610196610904565b6040516101a39190611158565b60405180910390f35b6101b461092b565b6040516101c19190611171565b60405180910390f35b6101e460048036038101906101df9190610f4a565b610931565b005b61020060048036038101906101fb9190610eb9565b610b7a565b005b61021c60048036038101906102179190610eb9565b610bd9565b005b61023860048036038101906102339190610eb9565b610c5d565b005b610242610cbc565b60025f815480929190610254906111b7565b91905055505f60025490506040518060e001604052808573ffffffffffffffffffffffffffffffffffffffff1681526020018473ffffffffffffffffffffffffffffffffffffffff1681526020018373ffffffffffffffffffffffffffffffffffffffff1681526020015f81526020015f81526020015f60018111156102dd576102dc610f93565b5b81526020015f60028111156102f5576102f4610f93565b5b81525060035f8381526020019081526020015f205f820151815f015f6101000a81548173ffffffffffffffffffffffffffffffffffffffff021916908373ffffffffffffffffffffffffffffffffffffffff1602179055506020820151816001015f6101000a81548173ffffffffffffffffffffffffffffffffffffffff021916908373ffffffffffffffffffffffffffffffffffffffff1602179055506040820151816002015f6101000a81548173ffffffffffffffffffffffffffffffffffffffff021916908373ffffffffffffffffffffffffffffffffffffffff160217905550606082015181600301556080820151816004015560a0820151816005015f6101000a81548160ff0219169083600181111561041757610416610f93565b5b021790555060c08201518160050160016101000a81548160ff0219169083600281111561044757610446610f93565b5b02179055509050508373ffffffffffffffffffffffffffffffffffffffff16817f44f3c3ed15c708331582bc379d28659a58f183a563abe41aa4c8889db469f71c60405160405180910390a350505050565b6001602052805f5260405f205f915054906101000a900460ff1681565b6003602052805f5260405f205f91509050805f015f9054906101000a900473ffffffffffffffffffffffffffffffffffffffff1690806001015f9054906101000a900473ffffffffffffffffffffffffffffffffffffffff1690806002015f9054906101000a900473ffffffffffffffffffffffffffffffffffffffff1690806003015490806004015490806005015f9054906101000a900460ff16908060050160019054906101000a900460ff16905087565b60015f3373ffffffffffffffffffffffffffffffffffffffff1673ffffffffffffffffffffffffffffffffffffffff1681526020019081526020015f205f9054906101000a900460ff166105f3576040517f08c379a00000000000000000000000000000000000000000000000000000000081526004016105ea90611258565b60405180910390fd5b5f60035f8481526020019081526020015f2090505f600181111561061a57610619610f93565b5b816005015f9054906101000a900460ff16600181111561063d5761063c610f93565b5b1461067d576040517f08c379a0000000000000000000000000000000000000000000000000000000008152600401610674906112c0565b60405180910390fd5b60045f8481526020019081526020015f205f3373ffffffffffffffffffffffffffffffffffffffff1673ffffffffffffffffffffffffffffffffffffffff1681526020019081526020015f205f9054906101000a900460ff1615610716576040517f08c379a000000000000000000000000000000000000000000000000000000000815260040161070d90611328565b60405180910390fd5b6001600281111561072a57610729610f93565b5b82600281111561073d5761073c610f93565b5b148061076c575060028081111561075757610756610f93565b5b82600281111561076a57610769610f93565b5b145b6107ab576040517f08c379a00000000000000000000000000000000000000000000000000000000081526004016107a290611390565b60405180910390fd5b600160028111156107bf576107be610f93565b5b8260028111156107d2576107d1610f93565b5b036107f557806003015f8154809291906107eb906111b7565b919050555061080f565b806004015f815480929190610809906111b7565b91905055505b600160045f8581526020019081526020015f205f3373ffffffffffffffffffffffffffffffffffffffff1673ffffffffffffffffffffffffffffffffffffffff1681526020019081526020015f205f6101000a81548160ff0219169083151502179055503373ffffffffffffffffffffffffffffffffffffffff16837feba4866100b822f0f391e610e7edfab790b9e8766c0012733c26b2f1858e8dd7846040516108ba91906113ae565b60405180910390a3505050565b6004602052815f5260405f20602052805f5260405f205f915091509054906101000a900460ff1681565b6108f9610cbc565b6109025f610d43565b565b5f5f5f9054906101000a900473ffffffffffffffffffffffffffffffffffffffff16905090565b60025481565b610939610cbc565b5f60035f8381526020019081526020015f2090505f60018111156109605761095f610f93565b5b816005015f9054906101000a900460ff16600181111561098357610982610f93565b5b146109c3576040517f08c379a00000000000000000000000000000000000000000000000000000000081526004016109ba90611411565b60405180910390fd5b5f81600401548260030154116109da5760026109dd565b60015b90506001826005015f6101000a81548160ff02191690836001811115610a0657610a05610f93565b5b0217905550808260050160016101000a81548160ff02191690836002811115610a3257610a31610f93565b5b02179055505f60016002811115610a4c57610a4b610f93565b5b826002811115610a5f57610a5e610f93565b5b14610a8d57826002015f9054906101000a900473ffffffffffffffffffffffffffffffffffffffff16610ab2565b826001015f9054906101000a900473ffffffffffffffffffffffffffffffffffffffff165b9050825f015f9054906101000a900473ffffffffffffffffffffffffffffffffffffffff1673ffffffffffffffffffffffffffffffffffffffff1663d8461182826040518263ffffffff1660e01b8152600401610b0f9190611158565b5f604051808303815f87803b158015610b26575f5ffd5b505af1158015610b38573d5f5f3e3d5ffd5b50505050837f2ffcfee146bc0d5ff304c6b65111a0d485af9456dc64eee7d66ebdcc90b223ea83604051610b6c91906113ae565b60405180910390a250505050565b610b82610cbc565b6001805f8373ffffffffffffffffffffffffffffffffffffffff1673ffffffffffffffffffffffffffffffffffffffff1681526020019081526020015f205f6101000a81548160ff02191690831515021790555050565b610be1610cbc565b5f73ffffffffffffffffffffffffffffffffffffffff168173ffffffffffffffffffffffffffffffffffffffff1603610c51575f6040517f1e4fbdf7000000000000000000000000000000000000000000000000000000008152600401610c489190611158565b60405180910390fd5b610c5a81610d43565b50565b610c65610cbc565b5f60015f8373ffffffffffffffffffffffffffffffffffffffff1673ffffffffffffffffffffffffffffffffffffffff1681526020019081526020015f205f6101000a81548160ff02191690831515021790555050565b610cc4610e04565b73ffffffffffffffffffffffffffffffffffffffff16610ce2610904565b73ffffffffffffffffffffffffffffffffffffffff1614610d4157610d05610e04565b6040517f118cdaa7000000000000000000000000000000000000000000000000000000008152600401610d389190611158565b60405180910390fd5b565b5f5f5f9054906101000a900473ffffffffffffffffffffffffffffffffffffffff169050815f5f6101000a81548173ffffffffffffffffffffffffffffffffffffffff021916908373ffffffffffffffffffffffffffffffffffffffff1602179055508173ffffffffffffffffffffffffffffffffffffffff168173ffffffffffffffffffffffffffffffffffffffff167f8be0079c531659141344cd1fd0a4f28419497f9722a3daafe3b4186f6b6457e060405160405180910390a35050565b5f33905090565b5f5ffd5b5f73ffffffffffffffffffffffffffffffffffffffff82169050919050565b5f610e3882610e0f565b9050919050565b610e4881610e2e565b8114610e52575f5ffd5b50565b5f81359050610e6381610e3f565b92915050565b5f5f5f60608486031215610e8057610e7f610e0b565b5b5f610e8d86828701610e55565b9350506020610e9e86828701610e55565b9250506040610eaf86828701610e55565b9150509250925092565b5f60208284031215610ece57610ecd610e0b565b5b5f610edb84828501610e55565b91505092915050565b5f8115159050919050565b610ef881610ee4565b82525050565b5f602082019050610f115f830184610eef565b92915050565b5f819050919050565b610f2981610f17565b8114610f33575f5ffd5b50565b5f81359050610f4481610f20565b92915050565b5f60208284031215610f5f57610f5e610e0b565b5b5f610f6c84828501610f36565b91505092915050565b610f7e81610e2e565b82525050565b610f8d81610f17565b82525050565b7f4e487b71000000000000000000000000000000000000000000000000000000005f52602160045260245ffd5b60028110610fd157610fd0610f93565b5b50565b5f819050610fe182610fc0565b919050565b5f610ff082610fd4565b9050919050565b61100081610fe6565b82525050565b6003811061101757611016610f93565b5b50565b5f81905061102782611006565b919050565b5f6110368261101a565b9050919050565b6110468161102c565b82525050565b5f60e08201905061105f5f83018a610f75565b61106c6020830189610f75565b6110796040830188610f75565b6110866060830187610f84565b6110936080830186610f84565b6110a060a0830185610ff7565b6110ad60c083018461103d565b98975050505050505050565b600381106110c5575f5ffd5b50565b5f813590506110d6816110b9565b92915050565b5f5f604083850312156110f2576110f1610e0b565b5b5f6110ff85828601610f36565b9250506020611110858286016110c8565b9150509250929050565b5f5f604083850312156111305761112f610e0b565b5b5f61113d85828601610f36565b925050602061114e85828601610e55565b9150509250929050565b5f60208201905061116b5f830184610f75565b92915050565b5f6020820190506111845f830184610f84565b92915050565b7f4e487b71000000000000000000000000000000000000000000000000000000005f52601160045260245ffd5b5f6111c182610f17565b91507fffffffffffffffffffffffffffffffffffffffffffffffffffffffffffffffff82036111f3576111f261118a565b5b600182019050919050565b5f82825260208201905092915050565b7f446973707574653a204e6f742061206a75726f720000000000000000000000005f82015250565b5f6112426014836111fe565b915061124d8261120e565b602082019050919050565b5f6020820190508181035f83015261126f81611236565b9050919050565b7f446973707574653a20566f74696e67206e6f74206163746976650000000000005f82015250565b5f6112aa601a836111fe565b91506112b582611276565b602082019050919050565b5f6020820190508181035f8301526112d78161129e565b9050919050565b7f446973707574653a204a75726f722068617320616c726561647920766f7465645f82015250565b5f6113126020836111fe565b915061131d826112de565b602082019050919050565b5f6020820190508181035f83015261133f81611306565b9050919050565b7f446973707574653a20496e76616c696420766f746500000000000000000000005f82015250565b5f61137a6015836111fe565b915061138582611346565b602082019050919050565b5f6020820190508181035f8301526113a78161136e565b9050919050565b5f6020820190506113c15f83018461103d565b92915050565b7f446973707574653a204e6f7420696e20766f74696e67000000000000000000005f82015250565b5f6113fb6016836111fe565b9150611406826113c7565b602082019050919050565b5f6020820190508181035f830152611428816113ef565b905091905056fea26469706673582212200cd6ce253af0023b48f193a541b2f7fe5c17aab5ba4cc474ccadc3464bc3ee8164736f6c634300081e0033",
					"opcodes": "PUSH1 0x80 PUSH1 0x40 MSTORE CALLVALUE DUP1 ISZERO PUSH2 0xF JUMPI PUSH0 PUSH0 REVERT JUMPDEST POP PUSH1 0x40 MLOAD PUSH2 0x169C CODESIZE SUB DUP1 PUSH2 0x169C DUP4 CODECOPY DUP2 DUP2 ADD PUSH1 0x40 MSTORE DUP2 ADD SWAP1 PUSH2 0x31 SWAP2 SWAP1 PUSH2 0x1D7 JUMP JUMPDEST DUP1 PUSH0 PUSH20 0xFFFFFFFFFFFFFFFFFFFFFFFFFFFFFFFFFFFFFFFF AND DUP2 PUSH20 0xFFFFFFFFFFFFFFFFFFFFFFFFFFFFFFFFFFFFFFFF AND SUB PUSH2 0xA2 JUMPI PUSH0 PUSH1 0x40 MLOAD PUSH32 0x1E4FBDF700000000000000000000000000000000000000000000000000000000 DUP2 MSTORE PUSH1 0x4 ADD PUSH2 0x99 SWAP2 SWAP1 PUSH2 0x211 JUMP JUMPDEST PUSH1 0x40 MLOAD DUP1 SWAP2 SUB SWAP1 REVERT JUMPDEST PUSH2 0xB1 DUP2 PUSH2 0xB8 PUSH1 0x20 SHL PUSH1 0x20 SHR JUMP JUMPDEST POP POP PUSH2 0x22A JUMP JUMPDEST PUSH0 PUSH0 PUSH0 SWAP1 SLOAD SWAP1 PUSH2 0x100 EXP SWAP1 DIV PUSH20 0xFFFFFFFFFFFFFFFFFFFFFFFFFFFFFFFFFFFFFFFF AND SWAP1 POP DUP2 PUSH0 PUSH0 PUSH2 0x100 EXP DUP2 SLOAD DUP2 PUSH20 0xFFFFFFFFFFFFFFFFFFFFFFFFFFFFFFFFFFFFFFFF MUL NOT AND SWAP1 DUP4 PUSH20 0xFFFFFFFFFFFFFFFFFFFFFFFFFFFFFFFFFFFFFFFF AND MUL OR SWAP1 SSTORE POP DUP2 PUSH20 0xFFFFFFFFFFFFFFFFFFFFFFFFFFFFFFFFFFFFFFFF AND DUP2 PUSH20 0xFFFFFFFFFFFFFFFFFFFFFFFFFFFFFFFFFFFFFFFF AND PUSH32 0x8BE0079C531659141344CD1FD0A4F28419497F9722A3DAAFE3B4186F6B6457E0 PUSH1 0x40 MLOAD PUSH1 0x40 MLOAD DUP1 SWAP2 SUB SWAP1 LOG3 POP POP JUMP JUMPDEST PUSH0 PUSH0 REVERT JUMPDEST PUSH0 PUSH20 0xFFFFFFFFFFFFFFFFFFFFFFFFFFFFFFFFFFFFFFFF DUP3 AND SWAP1 POP SWAP2 SWAP1 POP JUMP JUMPDEST PUSH0 PUSH2 0x1A6 DUP3 PUSH2 0x17D JUMP JUMPDEST SWAP1 POP SWAP2 SWAP1 POP JUMP JUMPDEST PUSH2 0x1B6 DUP2 PUSH2 0x19C JUMP JUMPDEST DUP2 EQ PUSH2 0x1C0 JUMPI PUSH0 PUSH0 REVERT JUMPDEST POP JUMP JUMPDEST PUSH0 DUP2 MLOAD SWAP1 POP PUSH2 0x1D1 DUP2 PUSH2 0x1AD JUMP JUMPDEST SWAP3 SWAP2 POP POP JUMP JUMPDEST PUSH0 PUSH1 0x20 DUP3 DUP5 SUB SLT ISZERO PUSH2 0x1EC JUMPI PUSH2 0x1EB PUSH2 0x179 JUMP JUMPDEST JUMPDEST PUSH0 PUSH2 0x1F9 DUP5 DUP3 DUP6 ADD PUSH2 0x1C3 JUMP JUMPDEST SWAP2 POP POP SWAP3 SWAP2 POP POP JUMP JUMPDEST PUSH2 0x20B DUP2 PUSH2 0x19C JUMP JUMPDEST DUP3 MSTORE POP POP JUMP JUMPDEST PUSH0 PUSH1 0x20 DUP3 ADD SWAP1 POP PUSH2 0x224 PUSH0 DUP4 ADD DUP5 PUSH2 0x202 JUMP JUMPDEST SWAP3 SWAP2 POP POP JUMP JUMPDEST PUSH2 0x1465 DUP1 PUSH2 0x237 PUSH0 CODECOPY PUSH0 RETURN INVALID PUSH1 0x80 PUSH1 0x40 MSTORE CALLVALUE DUP1 ISZERO PUSH2 0xF JUMPI PUSH0 PUSH0 REVERT JUMPDEST POP PUSH1 0x4 CALLDATASIZE LT PUSH2 0xB2 JUMPI PUSH0 CALLDATALOAD PUSH1 0xE0 SHR DUP1 PUSH4 0x8DA5CB5B GT PUSH2 0x6F JUMPI DUP1 PUSH4 0x8DA5CB5B EQ PUSH2 0x18E JUMPI DUP1 PUSH4 0xA28889E1 EQ PUSH2 0x1AC JUMPI DUP1 PUSH4 0xC2B7B868 EQ PUSH2 0x1CA JUMPI DUP1 PUSH4 0xCB552B46 EQ PUSH2 0x1E6 JUMPI DUP1 PUSH4 0xF2FDE38B EQ PUSH2 0x202 JUMPI DUP1 PUSH4 0xF6CD25F0 EQ PUSH2 0x21E JUMPI PUSH2 0xB2 JUMP JUMPDEST DUP1 PUSH4 0x15B39B68 EQ PUSH2 0xB6 JUMPI DUP1 PUSH4 0x2037A7AA EQ PUSH2 0xD2 JUMPI DUP1 PUSH4 0x564A565D EQ PUSH2 0x102 JUMPI DUP1 PUSH4 0x56781388 EQ PUSH2 0x138 JUMPI DUP1 PUSH4 0x6C8DC288 EQ PUSH2 0x154 JUMPI DUP1 PUSH4 0x715018A6 EQ PUSH2 0x184 JUMPI JUMPDEST PUSH0 PUSH0 REVERT JUMPDEST PUSH2 0xD0 PUSH1 0x4 DUP1 CALLDATASIZE SUB DUP2 ADD SWAP1 PUSH2 0xCB SWAP2 SWAP1 PUSH2 0xE69 JUMP JUMPDEST PUSH2 0x23A JUMP JUMPDEST STOP JUMPDEST PUSH2 0xEC PUSH1 0x4 DUP1 CALLDATASIZE SUB DUP2 ADD SWAP1 PUSH2 0xE7 SWAP2 SWAP1 PUSH2 0xEB9 JUMP JUMPDEST PUSH2 0x499 JUMP JUMPDEST PUSH1 0x40 MLOAD PUSH2 0xF9 SWAP2 SWAP1 PUSH2 0xEFE JUMP JUMPDEST PUSH1 0x40 MLOAD DUP1 SWAP2 SUB SWAP1 RETURN JUMPDEST PUSH2 0x11C PUSH1 0x4 DUP1 CALLDATASIZE SUB DUP2 ADD SWAP1 PUSH2 0x117 SWAP2 SWAP1 PUSH2 0xF4A JUMP JUMPDEST PUSH2 0x4B6 JUMP JUMPDEST PUSH1 0x40 MLOAD PUSH2 0x12F SWAP8 SWAP7 SWAP6 SWAP5 SWAP4 SWAP3 SWAP2 SWAP1 PUSH2 0x104C JUMP JUMPDEST PUSH1 0x40 MLOAD DUP1 SWAP2 SUB SWAP1 RETURN JUMPDEST PUSH2 0x152 PUSH1 0x4 DUP1 CALLDATASIZE SUB DUP2 ADD SWAP1 PUSH2 0x14D SWAP2 SWAP1 PUSH2 0x10DC JUMP JUMPDEST PUSH2 0x56A JUMP JUMPDEST STOP JUMPDEST PUSH2 0x16E PUSH1 0x4 DUP1 CALLDATASIZE SUB DUP2 ADD SWAP1 PUSH2 0x169 SWAP2 SWAP1 PUSH2 0x111A JUMP JUMPDEST PUSH2 0x8C7 JUMP JUMPDEST PUSH1 0x40 MLOAD PUSH2 0x17B SWAP2 SWAP1 PUSH2 0xEFE JUMP JUMPDEST PUSH1 0x40 MLOAD DUP1 SWAP2 SUB SWAP1 RETURN JUMPDEST PUSH2 0x18C PUSH2 0x8F1 JUMP JUMPDEST STOP JUMPDEST PUSH2 0x196 PUSH2 0x904 JUMP JUMPDEST PUSH1 0x40 MLOAD PUSH2 0x1A3 SWAP2 SWAP1 PUSH2 0x1158 JUMP JUMPDEST PUSH1 0x40 MLOAD DUP1 SWAP2 SUB SWAP1 RETURN JUMPDEST PUSH2 0x1B4 PUSH2 0x92B JUMP JUMPDEST PUSH1 0x40 MLOAD PUSH2 0x1C1 SWAP2 SWAP1 PUSH2 0x1171 JUMP JUMPDEST PUSH1 0x40 MLOAD DUP1 SWAP2 SUB SWAP1 RETURN JUMPDEST PUSH2 0x1E4 PUSH1 0x4 DUP1 CALLDATASIZE SUB DUP2 ADD SWAP1 PUSH2 0x1DF SWAP2 SWAP1 PUSH2 0xF4A JUMP JUMPDEST PUSH2 0x931 JUMP JUMPDEST STOP JUMPDEST PUSH2 0x200 PUSH1 0x4 DUP1 CALLDATASIZE SUB DUP2 ADD SWAP1 PUSH2 0x1FB SWAP2 SWAP1 PUSH2 0xEB9 JUMP JUMPDEST PUSH2 0xB7A JUMP JUMPDEST STOP JUMPDEST PUSH2 0x21C PUSH1 0x4 DUP1 CALLDATASIZE SUB DUP2 ADD SWAP1 PUSH2 0x217 SWAP2 SWAP1 PUSH2 0xEB9 JUMP JUMPDEST PUSH2 0xBD9 JUMP JUMPDEST STOP JUMPDEST PUSH2 0x238 PUSH1 0x4 DUP1 CALLDATASIZE SUB DUP2 ADD SWAP1 PUSH2 0x233 SWAP2 SWAP1 PUSH2 0xEB9 JUMP JUMPDEST PUSH2 0xC5D JUMP JUMPDEST STOP JUMPDEST PUSH2 0x242 PUSH2 0xCBC JUMP JUMPDEST PUSH1 0x2 PUSH0 DUP2 SLOAD DUP1 SWAP3 SWAP2 SWAP1 PUSH2 0x254 SWAP1 PUSH2 0x11B7 JUMP JUMPDEST SWAP2 SWAP1 POP SSTORE POP PUSH0 PUSH1 0x2 SLOAD SWAP1 POP PUSH1 0x40 MLOAD DUP1 PUSH1 0xE0 ADD PUSH1 0x40 MSTORE DUP1 DUP6 PUSH20 0xFFFFFFFFFFFFFFFFFFFFFFFFFFFFFFFFFFFFFFFF AND DUP2 MSTORE PUSH1 0x20 ADD DUP5 PUSH20 0xFFFFFFFFFFFFFFFFFFFFFFFFFFFFFFFFFFFFFFFF AND DUP2 MSTORE PUSH1 0x20 ADD DUP4 PUSH20 0xFFFFFFFFFFFFFFFFFFFFFFFFFFFFFFFFFFFFFFFF AND DUP2 MSTORE PUSH1 0x20 ADD PUSH0 DUP2 MSTORE PUSH1 0x20 ADD PUSH0 DUP2 MSTORE PUSH1 0x20 ADD PUSH0 PUSH1 0x1 DUP2 GT ISZERO PUSH2 0x2DD JUMPI PUSH2 0x2DC PUSH2 0xF93 JUMP JUMPDEST JUMPDEST DUP2 MSTORE PUSH1 0x20 ADD PUSH0 PUSH1 0x2 DUP2 GT ISZERO PUSH2 0x2F5 JUMPI PUSH2 0x2F4 PUSH2 0xF93 JUMP JUMPDEST JUMPDEST DUP2 MSTORE POP PUSH1 0x3 PUSH0 DUP4 DUP2 MSTORE PUSH1 0x20 ADD SWAP1 DUP2 MSTORE PUSH1 0x20 ADD PUSH0 KECCAK256 PUSH0 DUP3 ADD MLOAD DUP2 PUSH0 ADD PUSH0 PUSH2 0x100 EXP DUP2 SLOAD DUP2 PUSH20 0xFFFFFFFFFFFFFFFFFFFFFFFFFFFFFFFFFFFFFFFF MUL NOT AND SWAP1 DUP4 PUSH20 0xFFFFFFFFFFFFFFFFFFFFFFFFFFFFFFFFFFFFFFFF AND MUL OR SWAP1 SSTORE POP PUSH1 0x20 DUP3 ADD MLOAD DUP2 PUSH1 0x1 ADD PUSH0 PUSH2 0x100 EXP DUP2 SLOAD DUP2 PUSH20 0xFFFFFFFFFFFFFFFFFFFFFFFFFFFFFFFFFFFFFFFF MUL NOT AND SWAP1 DUP4 PUSH20 0xFFFFFFFFFFFFFFFFFFFFFFFFFFFFFFFFFFFFFFFF AND MUL OR SWAP1 SSTORE POP PUSH1 0x40 DUP3 ADD MLOAD DUP2 PUSH1 0x2 ADD PUSH0 PUSH2 0x100 EXP DUP2 SLOAD DUP2 PUSH20 0xFFFFFFFFFFFFFFFFFFFFFFFFFFFFFFFFFFFFFFFF MUL NOT AND SWAP1 DUP4 PUSH20 0xFFFFFFFFFFFFFFFFFFFFFFFFFFFFFFFFFFFFFFFF AND MUL OR SWAP1 SSTORE POP PUSH1 0x60 DUP3 ADD MLOAD DUP2 PUSH1 0x3 ADD SSTORE PUSH1 0x80 DUP3 ADD MLOAD DUP2 PUSH1 0x4 ADD SSTORE PUSH1 0xA0 DUP3 ADD MLOAD DUP2 PUSH1 0x5 ADD PUSH0 PUSH2 0x100 EXP DUP2 SLOAD DUP2 PUSH1 0xFF MUL NOT AND SWAP1 DUP4 PUSH1 0x1 DUP2 GT ISZERO PUSH2 0x417 JUMPI PUSH2 0x416 PUSH2 0xF93 JUMP JUMPDEST JUMPDEST MUL OR SWAP1 SSTORE POP PUSH1 0xC0 DUP3 ADD MLOAD DUP2 PUSH1 0x5 ADD PUSH1 0x1 PUSH2 0x100 EXP DUP2 SLOAD DUP2 PUSH1 0xFF MUL NOT AND SWAP1 DUP4 PUSH1 0x2 DUP2 GT ISZERO PUSH2 0x447 JUMPI PUSH2 0x446 PUSH2 0xF93 JUMP JUMPDEST JUMPDEST MUL OR SWAP1 SSTORE POP SWAP1 POP POP DUP4 PUSH20 0xFFFFFFFFFFFFFFFFFFFFFFFFFFFFFFFFFFFFFFFF AND DUP2 PUSH32 0x44F3C3ED15C708331582BC379D28659A58F183A563ABE41AA4C8889DB469F71C PUSH1 0x40 MLOAD PUSH1 0x40 MLOAD DUP1 SWAP2 SUB SWAP1 LOG3 POP POP POP POP JUMP JUMPDEST PUSH1 0x1 PUSH1 0x20 MSTORE DUP1 PUSH0 MSTORE PUSH1 0x40 PUSH0 KECCAK256 PUSH0 SWAP2 POP SLOAD SWAP1 PUSH2 0x100 EXP SWAP1 DIV PUSH1 0xFF AND DUP2 JUMP JUMPDEST PUSH1 0x3 PUSH1 0x20 MSTORE DUP1 PUSH0 MSTORE PUSH1 0x40 PUSH0 KECCAK256 PUSH0 SWAP2 POP SWAP1 POP DUP1 PUSH0 ADD PUSH0 SWAP1 SLOAD SWAP1 PUSH2 0x100 EXP SWAP1 DIV PUSH20 0xFFFFFFFFFFFFFFFFFFFFFFFFFFFFFFFFFFFFFFFF AND SWAP1 DUP1 PUSH1 0x1 ADD PUSH0 SWAP1 SLOAD SWAP1 PUSH2 0x100 EXP SWAP1 DIV PUSH20 0xFFFFFFFFFFFFFFFFFFFFFFFFFFFFFFFFFFFFFFFF AND SWAP1 DUP1 PUSH1 0x2 ADD PUSH0 SWAP1 SLOAD SWAP1 PUSH2 0x100 EXP SWAP1 DIV PUSH20 0xFFFFFFFFFFFFFFFFFFFFFFFFFFFFFFFFFFFFFFFF AND SWAP1 DUP1 PUSH1 0x3 ADD SLOAD SWAP1 DUP1 PUSH1 0x4 ADD SLOAD SWAP1 DUP1 PUSH1 0x5 ADD PUSH0 SWAP1 SLOAD SWAP1 PUSH2 0x100 EXP SWAP1 DIV PUSH1 0xFF AND SWAP1 DUP1 PUSH1 0x5 ADD PUSH1 0x1 SWAP1 SLOAD SWAP1 PUSH2 0x100 EXP SWAP1 DIV PUSH1 0xFF AND SWAP1 POP DUP8 JUMP JUMPDEST PUSH1 0x1 PUSH0 CALLER PUSH20 0xFFFFFFFFFFFFFFFFFFFFFFFFFFFFFFFFFFFFFFFF AND PUSH20 0xFFFFFFFFFFFFFFFFFFFFFFFFFFFFFFFFFFFFFFFF AND DUP2 MSTORE PUSH1 0x20 ADD SWAP1 DUP2 MSTORE PUSH1 0x20 ADD PUSH0 KECCAK256 PUSH0 SWAP1 SLOAD SWAP1 PUSH2 0x100 EXP SWAP1 DIV PUSH1 0xFF AND PUSH2 0x5F3 JUMPI PUSH1 0x40 MLOAD PUSH32 0x8C379A000000000000000000000000000000000000000000000000000000000 DUP2 MSTORE PUSH1 0x4 ADD PUSH2 0x5EA SWAP1 PUSH2 0x1258 JUMP JUMPDEST PUSH1 0x40 MLOAD DUP1 SWAP2 SUB SWAP1 REVERT JUMPDEST PUSH0 PUSH1 0x3 PUSH0 DUP5 DUP2 MSTORE PUSH1 0x20 ADD SWAP1 DUP2 MSTORE PUSH1 0x20 ADD PUSH0 KECCAK256 SWAP1 POP PUSH0 PUSH1 0x1 DUP2 GT ISZERO PUSH2 0x61A JUMPI PUSH2 0x619 PUSH2 0xF93 JUMP JUMPDEST JUMPDEST DUP2 PUSH1 0x5 ADD PUSH0 SWAP1 SLOAD SWAP1 PUSH2 0x100 EXP SWAP1 DIV PUSH1 0xFF AND PUSH1 0x1 DUP2 GT ISZERO PUSH2 0x63D JUMPI PUSH2 0x63C PUSH2 0xF93 JUMP JUMPDEST JUMPDEST EQ PUSH2 0x67D JUMPI PUSH1 0x40 MLOAD PUSH32 0x8C379A000000000000000000000000000000000000000000000000000000000 DUP2 MSTORE PUSH1 0x4 ADD PUSH2 0x674 SWAP1 PUSH2 0x12C0 JUMP JUMPDEST PUSH1 0x40 MLOAD DUP1 SWAP2 SUB SWAP1 REVERT JUMPDEST PUSH1 0x4 PUSH0 DUP5 DUP2 MSTORE PUSH1 0x20 ADD SWAP1 DUP2 MSTORE PUSH1 0x20 ADD PUSH0 KECCAK256 PUSH0 CALLER PUSH20 0xFFFFFFFFFFFFFFFFFFFFFFFFFFFFFFFFFFFFFFFF AND PUSH20 0xFFFFFFFFFFFFFFFFFFFFFFFFFFFFFFFFFFFFFFFF AND DUP2 MSTORE PUSH1 0x20 ADD SWAP1 DUP2 MSTORE PUSH1 0x20 ADD PUSH0 KECCAK256 PUSH0 SWAP1 SLOAD SWAP1 PUSH2 0x100 EXP SWAP1 DIV PUSH1 0xFF AND ISZERO PUSH2 0x716 JUMPI PUSH1 0x40 MLOAD PUSH32 0x8C379A000000000000000000000000000000000000000000000000000000000 DUP2 MSTORE PUSH1 0x4 ADD PUSH2 0x70D SWAP1 PUSH2 0x1328 JUMP JUMPDEST PUSH1 0x40 MLOAD DUP1 SWAP2 SUB SWAP1 REVERT JUMPDEST PUSH1 0x1 PUSH1 0x2 DUP2 GT ISZERO PUSH2 0x72A JUMPI PUSH2 0x729 PUSH2 0xF93 JUMP JUMPDEST JUMPDEST DUP3 PUSH1 0x2 DUP2 GT ISZERO PUSH2 0x73D JUMPI PUSH2 0x73C PUSH2 0xF93 JUMP JUMPDEST JUMPDEST EQ DUP1 PUSH2 0x76C JUMPI POP PUSH1 0x2 DUP1 DUP2 GT ISZERO PUSH2 0x757 JUMPI PUSH2 0x756 PUSH2 0xF93 JUMP JUMPDEST JUMPDEST DUP3 PUSH1 0x2 DUP2 GT ISZERO PUSH2 0x76A JUMPI PUSH2 0x769 PUSH2 0xF93 JUMP JUMPDEST JUMPDEST EQ JUMPDEST PUSH2 0x7AB JUMPI PUSH1 0x40 MLOAD PUSH32 0x8C379A000000000000000000000000000000000000000000000000000000000 DUP2 MSTORE PUSH1 0x4 ADD PUSH2 0x7A2 SWAP1 PUSH2 0x1390 JUMP JUMPDEST PUSH1 0x40 MLOAD DUP1 SWAP2 SUB SWAP1 REVERT JUMPDEST PUSH1 0x1 PUSH1 0x2 DUP2 GT ISZERO PUSH2 0x7BF JUMPI PUSH2 0x7BE PUSH2 0xF93 JUMP JUMPDEST JUMPDEST DUP3 PUSH1 0x2 DUP2 GT ISZERO PUSH2 0x7D2 JUMPI PUSH2 0x7D1 PUSH2 0xF93 JUMP JUMPDEST JUMPDEST SUB PUSH2 0x7F5 JUMPI DUP1 PUSH1 0x3 ADD PUSH0 DUP2 SLOAD DUP1 SWAP3 SWAP2 SWAP1 PUSH2 0x7EB SWAP1 PUSH2 0x11B7 JUMP JUMPDEST SWAP2 SWAP1 POP SSTORE POP PUSH2 0x80F JUMP JUMPDEST DUP1 PUSH1 0x4 ADD PUSH0 DUP2 SLOAD DUP1 SWAP3 SWAP2 SWAP1 PUSH2 0x809 SWAP1 PUSH2 0x11B7 JUMP JUMPDEST SWAP2 SWAP1 POP SSTORE POP JUMPDEST PUSH1 0x1 PUSH1 0x4 PUSH0 DUP6 DUP2 MSTORE PUSH1 0x20 ADD SWAP1 DUP2 MSTORE PUSH1 0x20 ADD PUSH0 KECCAK256 PUSH0 CALLER PUSH20 0xFFFFFFFFFFFFFFFFFFFFFFFFFFFFFFFFFFFFFFFF AND PUSH20 0xFFFFFFFFFFFFFFFFFFFFFFFFFFFFFFFFFFFFFFFF AND DUP2 MSTORE PUSH1 0x20 ADD SWAP1 DUP2 MSTORE PUSH1 0x20 ADD PUSH0 KECCAK256 PUSH0 PUSH2 0x100 EXP DUP2 SLOAD DUP2 PUSH1 0xFF MUL NOT AND SWAP1 DUP4 ISZERO ISZERO MUL OR SWAP1 SSTORE POP CALLER PUSH20 0xFFFFFFFFFFFFFFFFFFFFFFFFFFFFFFFFFFFFFFFF AND DUP4 PUSH32 0xEBA4866100B822F0F391E610E7EDFAB790B9E8766C0012733C26B2F1858E8DD7 DUP5 PUSH1 0x40 MLOAD PUSH2 0x8BA SWAP2 SWAP1 PUSH2 0x13AE JUMP JUMPDEST PUSH1 0x40 MLOAD DUP1 SWAP2 SUB SWAP1 LOG3 POP POP POP JUMP JUMPDEST PUSH1 0x4 PUSH1 0x20 MSTORE DUP2 PUSH0 MSTORE PUSH1 0x40 PUSH0 KECCAK256 PUSH1 0x20 MSTORE DUP1 PUSH0 MSTORE PUSH1 0x40 PUSH0 KECCAK256 PUSH0 SWAP2 POP SWAP2 POP SWAP1 SLOAD SWAP1 PUSH2 0x100 EXP SWAP1 DIV PUSH1 0xFF AND DUP2 JUMP JUMPDEST PUSH2 0x8F9 PUSH2 0xCBC JUMP JUMPDEST PUSH2 0x902 PUSH0 PUSH2 0xD43 JUMP JUMPDEST JUMP JUMPDEST PUSH0 PUSH0 PUSH0 SWAP1 SLOAD SWAP1 PUSH2 0x100 EXP SWAP1 DIV PUSH20 0xFFFFFFFFFFFFFFFFFFFFFFFFFFFFFFFFFFFFFFFF AND SWAP1 POP SWAP1 JUMP JUMPDEST PUSH1 0x2 SLOAD DUP2 JUMP JUMPDEST PUSH2 0x939 PUSH2 0xCBC JUMP JUMPDEST PUSH0 PUSH1 0x3 PUSH0 DUP4 DUP2 MSTORE PUSH1 0x20 ADD SWAP1 DUP2 MSTORE PUSH1 0x20 ADD PUSH0 KECCAK256 SWAP1 POP PUSH0 PUSH1 0x1 DUP2 GT ISZERO PUSH2 0x960 JUMPI PUSH2 0x95F PUSH2 0xF93 JUMP JUMPDEST JUMPDEST DUP2 PUSH1 0x5 ADD PUSH0 SWAP1 SLOAD SWAP1 PUSH2 0x100 EXP SWAP1 DIV PUSH1 0xFF AND PUSH1 0x1 DUP2 GT ISZERO PUSH2 0x983 JUMPI PUSH2 0x982 PUSH2 0xF93 JUMP JUMPDEST JUMPDEST EQ PUSH2 0x9C3 JUMPI PUSH1 0x40 MLOAD PUSH32 0x8C379A000000000000000000000000000000000000000000000000000000000 DUP2 MSTORE PUSH1 0x4 ADD PUSH2 0x9BA SWAP1 PUSH2 0x1411 JUMP JUMPDEST PUSH1 0x40 MLOAD DUP1 SWAP2 SUB SWAP1 REVERT JUMPDEST PUSH0 DUP2 PUSH1 0x4 ADD SLOAD DUP3 PUSH1 0x3 ADD SLOAD GT PUSH2 0x9DA JUMPI PUSH1 0x2 PUSH2 0x9DD JUMP JUMPDEST PUSH1 0x1 JUMPDEST SWAP1 POP PUSH1 0x1 DUP3 PUSH1 0x5 ADD PUSH0 PUSH2 0x100 EXP DUP2 SLOAD DUP2 PUSH1 0xFF MUL NOT AND SWAP1 DUP4 PUSH1 0x1 DUP2 GT ISZERO PUSH2 0xA06 JUMPI PUSH2 0xA05 PUSH2 0xF93 JUMP JUMPDEST JUMPDEST MUL OR SWAP1 SSTORE POP DUP1 DUP3 PUSH1 0x5 ADD PUSH1 0x1 PUSH2 0x100 EXP DUP2 SLOAD DUP2 PUSH1 0xFF MUL NOT AND SWAP1 DUP4 PUSH1 0x2 DUP2 GT ISZERO PUSH2 0xA32 JUMPI PUSH2 0xA31 PUSH2 0xF93 JUMP JUMPDEST JUMPDEST MUL OR SWAP1 SSTORE POP PUSH0 PUSH1 0x1 PUSH1 0x2 DUP2 GT ISZERO PUSH2 0xA4C JUMPI PUSH2 0xA4B PUSH2 0xF93 JUMP JUMPDEST JUMPDEST DUP3 PUSH1 0x2 DUP2 GT ISZERO PUSH2 0xA5F JUMPI PUSH2 0xA5E PUSH2 0xF93 JUMP JUMPDEST JUMPDEST EQ PUSH2 0xA8D JUMPI DUP3 PUSH1 0x2 ADD PUSH0 SWAP1 SLOAD SWAP1 PUSH2 0x100 EXP SWAP1 DIV PUSH20 0xFFFFFFFFFFFFFFFFFFFFFFFFFFFFFFFFFFFFFFFF AND PUSH2 0xAB2 JUMP JUMPDEST DUP3 PUSH1 0x1 ADD PUSH0 SWAP1 SLOAD SWAP1 PUSH2 0x100 EXP SWAP1 DIV PUSH20 0xFFFFFFFFFFFFFFFFFFFFFFFFFFFFFFFFFFFFFFFF AND JUMPDEST SWAP1 POP DUP3 PUSH0 ADD PUSH0 SWAP1 SLOAD SWAP1 PUSH2 0x100 EXP SWAP1 DIV PUSH20 0xFFFFFFFFFFFFFFFFFFFFFFFFFFFFFFFFFFFFFFFF AND PUSH20 0xFFFFFFFFFFFFFFFFFFFFFFFFFFFFFFFFFFFFFFFF AND PUSH4 0xD8461182 DUP3 PUSH1 0x40 MLOAD DUP3 PUSH4 0xFFFFFFFF AND PUSH1 0xE0 SHL DUP2 MSTORE PUSH1 0x4 ADD PUSH2 0xB0F SWAP2 SWAP1 PUSH2 0x1158 JUMP JUMPDEST PUSH0 PUSH1 0x40 MLOAD DUP1 DUP4 SUB DUP2 PUSH0 DUP8 DUP1 EXTCODESIZE ISZERO DUP1 ISZERO PUSH2 0xB26 JUMPI PUSH0 PUSH0 REVERT JUMPDEST POP GAS CALL ISZERO DUP1 ISZERO PUSH2 0xB38 JUMPI RETURNDATASIZE PUSH0 PUSH0 RETURNDATACOPY RETURNDATASIZE PUSH0 REVERT JUMPDEST POP POP POP POP DUP4 PUSH32 0x2FFCFEE146BC0D5FF304C6B65111A0D485AF9456DC64EEE7D66EBDCC90B223EA DUP4 PUSH1 0x40 MLOAD PUSH2 0xB6C SWAP2 SWAP1 PUSH2 0x13AE JUMP JUMPDEST PUSH1 0x40 MLOAD DUP1 SWAP2 SUB SWAP1 LOG2 POP POP POP POP JUMP JUMPDEST PUSH2 0xB82 PUSH2 0xCBC JUMP JUMPDEST PUSH1 0x1 DUP1 PUSH0 DUP4 PUSH20 0xFFFFFFFFFFFFFFFFFFFFFFFFFFFFFFFFFFFFFFFF AND PUSH20 0xFFFFFFFFFFFFFFFFFFFFFFFFFFFFFFFFFFFFFFFF AND DUP2 MSTORE PUSH1 0x20 ADD SWAP1 DUP2 MSTORE PUSH1 0x20 ADD PUSH0 KECCAK256 PUSH0 PUSH2 0x100 EXP DUP2 SLOAD DUP2 PUSH1 0xFF MUL NOT AND SWAP1 DUP4 ISZERO ISZERO MUL OR SWAP1 SSTORE POP POP JUMP JUMPDEST PUSH2 0xBE1 PUSH2 0xCBC JUMP JUMPDEST PUSH0 PUSH20 0xFFFFFFFFFFFFFFFFFFFFFFFFFFFFFFFFFFFFFFFF AND DUP2 PUSH20 0xFFFFFFFFFFFFFFFFFFFFFFFFFFFFFFFFFFFFFFFF AND SUB PUSH2 0xC51 JUMPI PUSH0 PUSH1 0x40 MLOAD PUSH32 0x1E4FBDF700000000000000000000000000000000000000000000000000000000 DUP2 MSTORE PUSH1 0x4 ADD PUSH2 0xC48 SWAP2 SWAP1 PUSH2 0x1158 JUMP JUMPDEST PUSH1 0x40 MLOAD DUP1 SWAP2 SUB SWAP1 REVERT JUMPDEST PUSH2 0xC5A DUP2 PUSH2 0xD43 JUMP JUMPDEST POP JUMP JUMPDEST PUSH2 0xC65 PUSH2 0xCBC JUMP JUMPDEST PUSH0 PUSH1 0x1 PUSH0 DUP4 PUSH20 0xFFFFFFFFFFFFFFFFFFFFFFFFFFFFFFFFFFFFFFFF AND PUSH20 0xFFFFFFFFFFFFFFFFFFFFFFFFFFFFFFFFFFFFFFFF AND DUP2 MSTORE PUSH1 0x20 ADD SWAP1 DUP2 MSTORE PUSH1 0x20 ADD PUSH0 KECCAK256 PUSH0 PUSH2 0x100 EXP DUP2 SLOAD DUP2 PUSH1 0xFF MUL NOT AND SWAP1 DUP4 ISZERO ISZERO MUL OR SWAP1 SSTORE POP POP JUMP JUMPDEST PUSH2 0xCC4 PUSH2 0xE04 JUMP JUMPDEST PUSH20 0xFFFFFFFFFFFFFFFFFFFFFFFFFFFFFFFFFFFFFFFF AND PUSH2 0xCE2 PUSH2 0x904 JUMP JUMPDEST PUSH20 0xFFFFFFFFFFFFFFFFFFFFFFFFFFFFFFFFFFFFFFFF AND EQ PUSH2 0xD41 JUMPI PUSH2 0xD05 PUSH2 0xE04 JUMP JUMPDEST PUSH1 0x40 MLOAD PUSH32 0x118CDAA700000000000000000000000000000000000000000000000000000000 DUP2 MSTORE PUSH1 0x4 ADD PUSH2 0xD38 SWAP2 SWAP1 PUSH2 0x1158 JUMP JUMPDEST PUSH1 0x40 MLOAD DUP1 SWAP2 SUB SWAP1 REVERT JUMPDEST JUMP JUMPDEST PUSH0 PUSH0 PUSH0 SWAP1 SLOAD SWAP1 PUSH2 0x100 EXP SWAP1 DIV PUSH20 0xFFFFFFFFFFFFFFFFFFFFFFFFFFFFFFFFFFFFFFFF AND SWAP1 POP DUP2 PUSH0 PUSH0 PUSH2 0x100 EXP DUP2 SLOAD DUP2 PUSH20 0xFFFFFFFFFFFFFFFFFFFFFFFFFFFFFFFFFFFFFFFF MUL NOT AND SWAP1 DUP4 PUSH20 0xFFFFFFFFFFFFFFFFFFFFFFFFFFFFFFFFFFFFFFFF AND MUL OR SWAP1 SSTORE POP DUP2 PUSH20 0xFFFFFFFFFFFFFFFFFFFFFFFFFFFFFFFFFFFFFFFF AND DUP2 PUSH20 0xFFFFFFFFFFFFFFFFFFFFFFFFFFFFFFFFFFFFFFFF AND PUSH32 0x8BE0079C531659141344CD1FD0A4F28419497F9722A3DAAFE3B4186F6B6457E0 PUSH1 0x40 MLOAD PUSH1 0x40 MLOAD DUP1 SWAP2 SUB SWAP1 LOG3 POP POP JUMP JUMPDEST PUSH0 CALLER SWAP1 POP SWAP1 JUMP JUMPDEST PUSH0 PUSH0 REVERT JUMPDEST PUSH0 PUSH20 0xFFFFFFFFFFFFFFFFFFFFFFFFFFFFFFFFFFFFFFFF DUP3 AND SWAP1 POP SWAP2 SWAP1 POP JUMP JUMPDEST PUSH0 PUSH2 0xE38 DUP3 PUSH2 0xE0F JUMP JUMPDEST SWAP1 POP SWAP2 SWAP1 POP JUMP JUMPDEST PUSH2 0xE48 DUP2 PUSH2 0xE2E JUMP JUMPDEST DUP2 EQ PUSH2 0xE52 JUMPI PUSH0 PUSH0 REVERT JUMPDEST POP JUMP JUMPDEST PUSH0 DUP2 CALLDATALOAD SWAP1 POP PUSH2 0xE63 DUP2 PUSH2 0xE3F JUMP JUMPDEST SWAP3 SWAP2 POP POP JUMP JUMPDEST PUSH0 PUSH0 PUSH0 PUSH1 0x60 DUP5 DUP7 SUB SLT ISZERO PUSH2 0xE80 JUMPI PUSH2 0xE7F PUSH2 0xE0B JUMP JUMPDEST JUMPDEST PUSH0 PUSH2 0xE8D DUP7 DUP3 DUP8 ADD PUSH2 0xE55 JUMP JUMPDEST SWAP4 POP POP PUSH1 0x20 PUSH2 0xE9E DUP7 DUP3 DUP8 ADD PUSH2 0xE55 JUMP JUMPDEST SWAP3 POP POP PUSH1 0x40 PUSH2 0xEAF DUP7 DUP3 DUP8 ADD PUSH2 0xE55 JUMP JUMPDEST SWAP2 POP POP SWAP3 POP SWAP3 POP SWAP3 JUMP JUMPDEST PUSH0 PUSH1 0x20 DUP3 DUP5 SUB SLT ISZERO PUSH2 0xECE JUMPI PUSH2 0xECD PUSH2 0xE0B JUMP JUMPDEST JUMPDEST PUSH0 PUSH2 0xEDB DUP5 DUP3 DUP6 ADD PUSH2 0xE55 JUMP JUMPDEST SWAP2 POP POP SWAP3 SWAP2 POP POP JUMP JUMPDEST PUSH0 DUP2 ISZERO ISZERO SWAP1 POP SWAP2 SWAP1 POP JUMP JUMPDEST PUSH2 0xEF8 DUP2 PUSH2 0xEE4 JUMP JUMPDEST DUP3 MSTORE POP POP JUMP JUMPDEST PUSH0 PUSH1 0x20 DUP3 ADD SWAP1 POP PUSH2 0xF11 PUSH0 DUP4 ADD DUP5 PUSH2 0xEEF JUMP JUMPDEST SWAP3 SWAP2 POP POP JUMP JUMPDEST PUSH0 DUP2 SWAP1 POP SWAP2 SWAP1 POP JUMP JUMPDEST PUSH2 0xF29 DUP2 PUSH2 0xF17 JUMP JUMPDEST DUP2 EQ PUSH2 0xF33 JUMPI PUSH0 PUSH0 REVERT JUMPDEST POP JUMP JUMPDEST PUSH0 DUP2 CALLDATALOAD SWAP1 POP PUSH2 0xF44 DUP2 PUSH2 0xF20 JUMP JUMPDEST SWAP3 SWAP2 POP POP JUMP JUMPDEST PUSH0 PUSH1 0x20 DUP3 DUP5 SUB SLT ISZERO PUSH2 0xF5F JUMPI PUSH2 0xF5E PUSH2 0xE0B JUMP JUMPDEST JUMPDEST PUSH0 PUSH2 0xF6C DUP5 DUP3 DUP6 ADD PUSH2 0xF36 JUMP JUMPDEST SWAP2 POP POP SWAP3 SWAP2 POP POP JUMP JUMPDEST PUSH2 0xF7E DUP2 PUSH2 0xE2E JUMP JUMPDEST DUP3 MSTORE POP POP JUMP JUMPDEST PUSH2 0xF8D DUP2 PUSH2 0xF17 JUMP JUMPDEST DUP3 MSTORE POP POP JUMP JUMPDEST PUSH32 0x4E487B7100000000000000000000000000000000000000000000000000000000 PUSH0 MSTORE PUSH1 0x21 PUSH1 0x4 MSTORE PUSH1 0x24 PUSH0 REVERT JUMPDEST PUSH1 0x2 DUP2 LT PUSH2 0xFD1 JUMPI PUSH2 0xFD0 PUSH2 0xF93 JUMP JUMPDEST JUMPDEST POP JUMP JUMPDEST PUSH0 DUP2 SWAP1 POP PUSH2 0xFE1 DUP3 PUSH2 0xFC0 JUMP JUMPDEST SWAP2 SWAP1 POP JUMP JUMPDEST PUSH0 PUSH2 0xFF0 DUP3 PUSH2 0xFD4 JUMP JUMPDEST SWAP1 POP SWAP2 SWAP1 POP JUMP JUMPDEST PUSH2 0x1000 DUP2 PUSH2 0xFE6 JUMP JUMPDEST DUP3 MSTORE POP POP JUMP JUMPDEST PUSH1 0x3 DUP2 LT PUSH2 0x1017 JUMPI PUSH2 0x1016 PUSH2 0xF93 JUMP JUMPDEST JUMPDEST POP JUMP JUMPDEST PUSH0 DUP2 SWAP1 POP PUSH2 0x1027 DUP3 PUSH2 0x1006 JUMP JUMPDEST SWAP2 SWAP1 POP JUMP JUMPDEST PUSH0 PUSH2 0x1036 DUP3 PUSH2 0x101A JUMP JUMPDEST SWAP1 POP SWAP2 SWAP1 POP JUMP JUMPDEST PUSH2 0x1046 DUP2 PUSH2 0x102C JUMP JUMPDEST DUP3 MSTORE POP POP JUMP JUMPDEST PUSH0 PUSH1 0xE0 DUP3 ADD SWAP1 POP PUSH2 0x105F PUSH0 DUP4 ADD DUP11 PUSH2 0xF75 JUMP JUMPDEST PUSH2 0x106C PUSH1 0x20 DUP4 ADD DUP10 PUSH2 0xF75 JUMP JUMPDEST PUSH2 0x1079 PUSH1 0x40 DUP4 ADD DUP9 PUSH2 0xF75 JUMP JUMPDEST PUSH2 0x1086 PUSH1 0x60 DUP4 ADD DUP8 PUSH2 0xF84 JUMP JUMPDEST PUSH2 0x1093 PUSH1 0x80 DUP4 ADD DUP7 PUSH2 0xF84 JUMP JUMPDEST PUSH2 0x10A0 PUSH1 0xA0 DUP4 ADD DUP6 PUSH2 0xFF7 JUMP JUMPDEST PUSH2 0x10AD PUSH1 0xC0 DUP4 ADD DUP5 PUSH2 0x103D JUMP JUMPDEST SWAP9 SWAP8 POP POP POP POP POP POP POP POP JUMP JUMPDEST PUSH1 0x3 DUP2 LT PUSH2 0x10C5 JUMPI PUSH0 PUSH0 REVERT JUMPDEST POP JUMP JUMPDEST PUSH0 DUP2 CALLDATALOAD SWAP1 POP PUSH2 0x10D6 DUP2 PUSH2 0x10B9 JUMP JUMPDEST SWAP3 SWAP2 POP POP JUMP JUMPDEST PUSH0 PUSH0 PUSH1 0x40 DUP4 DUP6 SUB SLT ISZERO PUSH2 0x10F2 JUMPI PUSH2 0x10F1 PUSH2 0xE0B JUMP JUMPDEST JUMPDEST PUSH0 PUSH2 0x10FF DUP6 DUP3 DUP7 ADD PUSH2 0xF36 JUMP JUMPDEST SWAP3 POP POP PUSH1 0x20 PUSH2 0x1110 DUP6 DUP3 DUP7 ADD PUSH2 0x10C8 JUMP JUMPDEST SWAP2 POP POP SWAP3 POP SWAP3 SWAP1 POP JUMP JUMPDEST PUSH0 PUSH0 PUSH1 0x40 DUP4 DUP6 SUB SLT ISZERO PUSH2 0x1130 JUMPI PUSH2 0x112F PUSH2 0xE0B JUMP JUMPDEST JUMPDEST PUSH0 PUSH2 0x113D DUP6 DUP3 DUP7 ADD PUSH2 0xF36 JUMP JUMPDEST SWAP3 POP POP PUSH1 0x20 PUSH2 0x114E DUP6 DUP3 DUP7 ADD PUSH2 0xE55 JUMP JUMPDEST SWAP2 POP POP SWAP3 POP SWAP3 SWAP1 POP JUMP JUMPDEST PUSH0 PUSH1 0x20 DUP3 ADD SWAP1 POP PUSH2 0x116B PUSH0 DUP4 ADD DUP5 PUSH2 0xF75 JUMP JUMPDEST SWAP3 SWAP2 POP POP JUMP JUMPDEST PUSH0 PUSH1 0x20 DUP3 ADD SWAP1 POP PUSH2 0x1184 PUSH0 DUP4 ADD DUP5 PUSH2 0xF84 JUMP JUMPDEST SWAP3 SWAP2 POP POP JUMP JUMPDEST PUSH32 0x4E487B7100000000000000000000000000000000000000000000000000000000 PUSH0 MSTORE PUSH1 0x11 PUSH1 0x4 MSTORE PUSH1 0x24 PUSH0 REVERT JUMPDEST PUSH0 PUSH2 0x11C1 DUP3 PUSH2 0xF17 JUMP JUMPDEST SWAP2 POP PUSH32 0xFFFFFFFFFFFFFFFFFFFFFFFFFFFFFFFFFFFFFFFFFFFFFFFFFFFFFFFFFFFFFFFF DUP3 SUB PUSH2 0x11F3 JUMPI PUSH2 0x11F2 PUSH2 0x118A JUMP JUMPDEST JUMPDEST PUSH1 0x1 DUP3 ADD SWAP1 POP SWAP2 SWAP1 POP JUMP JUMPDEST PUSH0 DUP3 DUP3 MSTORE PUSH1 0x20 DUP3 ADD SWAP1 POP SWAP3 SWAP2 POP POP JUMP JUMPDEST PUSH32 0x446973707574653A204E6F742061206A75726F72000000000000000000000000 PUSH0 DUP3 ADD MSTORE POP JUMP JUMPDEST PUSH0 PUSH2 0x1242 PUSH1 0x14 DUP4 PUSH2 0x11FE JUMP JUMPDEST SWAP2 POP PUSH2 0x124D DUP3 PUSH2 0x120E JUMP JUMPDEST PUSH1 0x20 DUP3 ADD SWAP1 POP SWAP2 SWAP1 POP JUMP JUMPDEST PUSH0 PUSH1 0x20 DUP3 ADD SWAP1 POP DUP2 DUP2 SUB PUSH0 DUP4 ADD MSTORE PUSH2 0x126F DUP2 PUSH2 0x1236 JUMP JUMPDEST SWAP1 POP SWAP2 SWAP1 POP JUMP JUMPDEST PUSH32 0x446973707574653A20566F74696E67206E6F7420616374697665000000000000 PUSH0 DUP3 ADD MSTORE POP JUMP JUMPDEST PUSH0 PUSH2 0x12AA PUSH1 0x1A DUP4 PUSH2 0x11FE JUMP JUMPDEST SWAP2 POP PUSH2 0x12B5 DUP3 PUSH2 0x1276 JUMP JUMPDEST PUSH1 0x20 DUP3 ADD SWAP1 POP SWAP2 SWAP1 POP JUMP JUMPDEST PUSH0 PUSH1 0x20 DUP3 ADD SWAP1 POP DUP2 DUP2 SUB PUSH0 DUP4 ADD MSTORE PUSH2 0x12D7 DUP2 PUSH2 0x129E JUMP JUMPDEST SWAP1 POP SWAP2 SWAP1 POP JUMP JUMPDEST PUSH32 0x446973707574653A204A75726F722068617320616C726561647920766F746564 PUSH0 DUP3 ADD MSTORE POP JUMP JUMPDEST PUSH0 PUSH2 0x1312 PUSH1 0x20 DUP4 PUSH2 0x11FE JUMP JUMPDEST SWAP2 POP PUSH2 0x131D DUP3 PUSH2 0x12DE JUMP JUMPDEST PUSH1 0x20 DUP3 ADD SWAP1 POP SWAP2 SWAP1 POP JUMP JUMPDEST PUSH0 PUSH1 0x20 DUP3 ADD SWAP1 POP DUP2 DUP2 SUB PUSH0 DUP4 ADD MSTORE PUSH2 0x133F DUP2 PUSH2 0x1306 JUMP JUMPDEST SWAP1 POP SWAP2 SWAP1 POP JUMP JUMPDEST PUSH32 0x446973707574653A20496E76616C696420766F74650000000000000000000000 PUSH0 DUP3 ADD MSTORE POP JUMP JUMPDEST PUSH0 PUSH2 0x137A PUSH1 0x15 DUP4 PUSH2 0x11FE JUMP JUMPDEST SWAP2 POP PUSH2 0x1385 DUP3 PUSH2 0x1346 JUMP JUMPDEST PUSH1 0x20 DUP3 ADD SWAP1 POP SWAP2 SWAP1 POP JUMP JUMPDEST PUSH0 PUSH1 0x20 DUP3 ADD SWAP1 POP DUP2 DUP2 SUB PUSH0 DUP4 ADD MSTORE PUSH2 0x13A7 DUP2 PUSH2 0x136E JUMP JUMPDEST SWAP1 POP SWAP2 SWAP1 POP JUMP JUMPDEST PUSH0 PUSH1 0x20 DUP3 ADD SWAP1 POP PUSH2 0x13C1 PUSH0 DUP4 ADD DUP5 PUSH2 0x103D JUMP JUMPDEST SWAP3 SWAP2 POP POP JUMP JUMPDEST PUSH32 0x446973707574653A204E6F7420696E20766F74696E6700000000000000000000 PUSH0 DUP3 ADD MSTORE POP JUMP JUMPDEST PUSH0 PUSH2 0x13FB PUSH1 0x16 DUP4 PUSH2 0x11FE JUMP JUMPDEST SWAP2 POP PUSH2 0x1406 DUP3 PUSH2 0x13C7 JUMP JUMPDEST PUSH1 0x20 DUP3 ADD SWAP1 POP SWAP2 SWAP1 POP JUMP JUMPDEST PUSH0 PUSH1 0x20 DUP3 ADD SWAP1 POP DUP2 DUP2 SUB PUSH0 DUP4 ADD MSTORE PUSH2 0x1428 DUP2 PUSH2 0x13EF JUMP JUMPDEST SWAP1 POP SWAP2 SWAP1 POP JUMP INVALID LOG2 PUSH5 0x6970667358 0x22 SLT KECCAK256 0xC 0xD6 0xCE 0x25 GASPRICE CREATE MUL EXTCODESIZE BASEFEE CALL SWAP4 0xA5 COINBASE 0xB2 0xF7 INVALID TLOAD OR 0xAA 0xB5 0xBA 0x4C 0xC4 PUSH21 0xCCADC3464BC3EE8164736F6C634300081E00330000 "
				},
				"gasEstimates": {
					"creation": {
						"codeDepositCost": "1044200",
						"executionCost": "infinite",
						"totalCost": "infinite"
					},
					"external": {
						"addJuror(address)": "infinite",
						"castVote(uint256,uint8)": "infinite",
						"disputeCount()": "2447",
						"disputes(uint256)": "infinite",
						"hasJurorVoted(uint256,address)": "3159",
						"isJuror(address)": "2856",
						"openDispute(address,address,address)": "infinite",
						"owner()": "2514",
						"removeJuror(address)": "infinite",
						"renounceOwnership()": "infinite",
						"resolveDispute(uint256)": "infinite",
						"transferOwnership(address)": "infinite"
					}
				},
				"methodIdentifiers": {
					"addJuror(address)": "cb552b46",
					"castVote(uint256,uint8)": "56781388",
					"disputeCount()": "a28889e1",
					"disputes(uint256)": "564a565d",
					"hasJurorVoted(uint256,address)": "6c8dc288",
					"isJuror(address)": "2037a7aa",
					"openDispute(address,address,address)": "15b39b68",
					"owner()": "8da5cb5b",
					"removeJuror(address)": "f6cd25f0",
					"renounceOwnership()": "715018a6",
					"resolveDispute(uint256)": "c2b7b868",
					"transferOwnership(address)": "f2fde38b"
				}
			},
			"storageLayout": {
				"storage": [
					{
						"astId": 8,
						"contract": "contracts/Governance/DisputeResolution.sol:DisputeResolution",
						"label": "_owner",
						"offset": 0,
						"slot": "0",
						"type": "t_address"
					},
					{
						"astId": 289,
						"contract": "contracts/Governance/DisputeResolution.sol:DisputeResolution",
						"label": "isJuror",
						"offset": 0,
						"slot": "1",
						"type": "t_mapping(t_address,t_bool)"
					},
					{
						"astId": 291,
						"contract": "contracts/Governance/DisputeResolution.sol:DisputeResolution",
						"label": "disputeCount",
						"offset": 0,
						"slot": "2",
						"type": "t_uint256"
					},
					{
						"astId": 296,
						"contract": "contracts/Governance/DisputeResolution.sol:DisputeResolution",
						"label": "disputes",
						"offset": 0,
						"slot": "3",
						"type": "t_mapping(t_uint256,t_struct(Dispute)285_storage)"
					},
					{
						"astId": 302,
						"contract": "contracts/Governance/DisputeResolution.sol:DisputeResolution",
						"label": "hasJurorVoted",
						"offset": 0,
						"slot": "4",
						"type": "t_mapping(t_uint256,t_mapping(t_address,t_bool))"
					}
				],
				"types": {
					"t_address": {
						"encoding": "inplace",
						"label": "address",
						"numberOfBytes": "20"
					},
					"t_bool": {
						"encoding": "inplace",
						"label": "bool",
						"numberOfBytes": "1"
					},
					"t_enum(DisputeStatus)264": {
						"encoding": "inplace",
						"label": "enum DisputeResolution.DisputeStatus",
						"numberOfBytes": "1"
					},
					"t_enum(Verdict)268": {
						"encoding": "inplace",
						"label": "enum DisputeResolution.Verdict",
						"numberOfBytes": "1"
					},
					"t_mapping(t_address,t_bool)": {
						"encoding": "mapping",
						"key": "t_address",
						"label": "mapping(address => bool)",
						"numberOfBytes": "32",
						"value": "t_bool"
					},
					"t_mapping(t_uint256,t_mapping(t_address,t_bool))": {
						"encoding": "mapping",
						"key": "t_uint256",
						"label": "mapping(uint256 => mapping(address => bool))",
						"numberOfBytes": "32",
						"value": "t_mapping(t_address,t_bool)"
					},
					"t_mapping(t_uint256,t_struct(Dispute)285_storage)": {
						"encoding": "mapping",
						"key": "t_uint256",
						"label": "mapping(uint256 => struct DisputeResolution.Dispute)",
						"numberOfBytes": "32",
						"value": "t_struct(Dispute)285_storage"
					},
					"t_struct(Dispute)285_storage": {
						"encoding": "inplace",
						"label": "struct DisputeResolution.Dispute",
						"members": [
							{
								"astId": 270,
								"contract": "contracts/Governance/DisputeResolution.sol:DisputeResolution",
								"label": "escrowContract",
								"offset": 0,
								"slot": "0",
								"type": "t_address"
							},
							{
								"astId": 272,
								"contract": "contracts/Governance/DisputeResolution.sol:DisputeResolution",
								"label": "plaintiff",
								"offset": 0,
								"slot": "1",
								"type": "t_address"
							},
							{
								"astId": 274,
								"contract": "contracts/Governance/DisputeResolution.sol:DisputeResolution",
								"label": "defendant",
								"offset": 0,
								"slot": "2",
								"type": "t_address"
							},
							{
								"astId": 276,
								"contract": "contracts/Governance/DisputeResolution.sol:DisputeResolution",
								"label": "plaintiffVotes",
								"offset": 0,
								"slot": "3",
								"type": "t_uint256"
							},
							{
								"astId": 278,
								"contract": "contracts/Governance/DisputeResolution.sol:DisputeResolution",
								"label": "defendantVotes",
								"offset": 0,
								"slot": "4",
								"type": "t_uint256"
							},
							{
								"astId": 281,
								"contract": "contracts/Governance/DisputeResolution.sol:DisputeResolution",
								"label": "status",
								"offset": 0,
								"slot": "5",
								"type": "t_enum(DisputeStatus)264"
							},
							{
								"astId": 284,
								"contract": "contracts/Governance/DisputeResolution.sol:DisputeResolution",
								"label": "verdict",
								"offset": 1,
								"slot": "5",
								"type": "t_enum(Verdict)268"
							}
						],
						"numberOfBytes": "192"
					},
					"t_uint256": {
						"encoding": "inplace",
						"label": "uint256",
						"numberOfBytes": "32"
					}
				}
			},
			"userdoc": {
				"kind": "user",
				"methods": {},
				"version": 1
			}
		}
	}
}