{
	"contracts/Governance/Reputation.sol": {
		"Reputation": {
			"abi": [
				{
					"inputs": [
						{
							"internalType": "address",
							"name": "_initialOwner",
							"type": "address"
						},
						{
							"internalType": "address",
							"name": "_userIdentityAddress",
							"type": "address"
						}
					],
					"stateMutability": "nonpayable",
					"type": "constructor"
				},
				{
					"inputs": [
						{
							"internalType": "address",
							"name": "owner",
							"type": "address"
						}
					],
					"name": "OwnableInvalidOwner",
					"type": "error"
				},
				{
					"inputs": [
						{
							"internalType": "address",
							"name": "account",
							"type": "address"
						}
					],
					"name": "OwnableUnauthorizedAccount",
					"type": "error"
				},
				{
					"anonymous": false,
					"inputs": [
						{
							"indexed": true,
							"internalType": "address",
							"name": "newAuthority",
							"type": "address"
						}
					],
					"name": "AuthorityUpdated",
					"type": "event"
				},
				{
					"anonymous": false,
					"inputs": [
						{
							"indexed": true,
							"internalType": "address",
							"name": "previousOwner",
							"type": "address"
						},
						{
							"indexed": true,
							"internalType": "address",
							"name": "newOwner",
							"type": "address"
						}
					],
					"name": "OwnershipTransferred",
					"type": "event"
				},
				{
					"anonymous": false,
					"inputs": [
						{
							"indexed": true,
							"internalType": "address",
							"name": "rater",
							"type": "address"
						},
						{
							"indexed": true,
							"internalType": "address",
							"name": "ratee",
							"type": "address"
						},
						{
							"indexed": false,
							"internalType": "uint256",
							"name": "score",
							"type": "uint256"
						}
					],
					"name": "RatingSubmitted",
					"type": "event"
				},
				{
					"inputs": [],
					"name": "owner",
					"outputs": [
						{
							"internalType": "address",
							"name": "",
							"type": "address"
						}
					],
					"stateMutability": "view",
					"type": "function"
				},
				{
					"inputs": [],
					"name": "projectAuthority",
					"outputs": [
						{
							"internalType": "address",
							"name": "",
							"type": "address"
						}
					],
					"stateMutability": "view",
					"type": "function"
				},
				{
					"inputs": [],
					"name": "renounceOwnership",
					"outputs": [],
					"stateMutability": "nonpayable",
					"type": "function"
				},
				{
					"inputs": [
						{
							"internalType": "address",
							"name": "_authority",
							"type": "address"
						}
					],
					"name": "setProjectAuthority",
					"outputs": [],
					"stateMutability": "nonpayable",
					"type": "function"
				},
				{
					"inputs": [
						{
							"internalType": "address",
							"name": "_rater",
							"type": "address"
						},
						{
							"internalType": "address",
							"name": "_ratee",
							"type": "address"
						},
						{
							"internalType": "uint256",
							"name": "_score",
							"type": "uint256"
						}
					],
					"name": "submitRating",
					"outputs": [],
					"stateMutability": "nonpayable",
					"type": "function"
				},
				{
					"inputs": [
						{
							"internalType": "address",
							"name": "newOwner",
							"type": "address"
						}
					],
					"name": "transferOwnership",
					"outputs": [],
					"stateMutability": "nonpayable",
					"type": "function"
				},
				{
					"inputs": [],
					"name": "userIdentity",
					"outputs": [
						{
							"internalType": "contract IUserIdentity",
							"name": "",
							"type": "address"
						}
					],
					"stateMutability": "view",
					"type": "function"
				}
			],
			"devdoc": {
				"errors": {
					"OwnableInvalidOwner(address)": [
						{
							"details": "The owner is not a valid owner account. (eg. `address(0)`)"
						}
					],
					"OwnableUnauthorizedAccount(address)": [
						{
							"details": "The caller account is not authorized to perform an operation."
						}
					]
				},
				"kind": "dev",
				"methods": {
					"owner()": {
						"details": "Returns the address of the current owner."
					},
					"renounceOwnership()": {
						"details": "Leaves the contract without owner. It will not be possible to call `onlyOwner` functions. Can only be called by the current owner. NOTE: Renouncing ownership will leave the contract without an owner, thereby disabling any functionality that is only available to the owner."
					},
					"transferOwnership(address)": {
						"details": "Transfers ownership of the contract to a new account (`newOwner`). Can only be called by the current owner."
					}
				},
				"version": 1
			},
			"evm": {
				"assembly": "    /* \"contracts/Governance/Reputation.sol\":156:1496  contract Reputation is Ownable {... */\n  mstore(0x40, 0xa0)\n    /* \"contracts/Governance/Reputation.sol\":430:573  constructor(address _initialOwner, address _userIdentityAddress) Ownable(_initialOwner) { userIdentity = IUserIdentity(_userIdentityAddress); } */\n  callvalue\n  dup1\n  iszero\n  tag_1\n  jumpi\n  revert(0x00, 0x00)\ntag_1:\n  pop\n  mload(0x40)\n  sub(codesize, bytecodeSize)\n  dup1\n  bytecodeSize\n  dup4\n  codecopy\n  dup2\n  dup2\n  add\n  0x40\n  mstore\n  dup2\n  add\n  swap1\n  tag_2\n  swap2\n  swap1\n  tag_3\n  jump\t// in\ntag_2:\n    /* \"contracts/Governance/Reputation.sol\":503:516  _initialOwner */\n  dup2\n    /* \"@openzeppelin/contracts/access/Ownable.sol\":1297:1298  0 */\n  0x00\n    /* \"@openzeppelin/contracts/access/Ownable.sol\":1273:1299  initialOwner == address(0) */\n  0xffffffffffffffffffffffffffffffffffffffff\n  and\n    /* \"@openzeppelin/contracts/access/Ownable.sol\":1273:1285  initialOwner */\n  dup2\n    /* \"@openzeppelin/contracts/access/Ownable.sol\":1273:1299  initialOwner == address(0) */\n  0xffffffffffffffffffffffffffffffffffffffff\n  and\n  sub\n    /* \"@openzeppelin/contracts/access/Ownable.sol\":1269:1364  if (initialOwner == address(0)) {... */\n  tag_7\n  jumpi\n    /* \"@openzeppelin/contracts/access/Ownable.sol\":1350:1351  0 */\n  0x00\n    /* \"@openzeppelin/contracts/access/Ownable.sol\":1322:1353  OwnableInvalidOwner(address(0)) */\n  mload(0x40)\n  0x1e4fbdf700000000000000000000000000000000000000000000000000000000\n  dup2\n  mstore\n  0x04\n  add\n  tag_8\n  swap2\n  swap1\n  tag_9\n  jump\t// in\ntag_8:\n  mload(0x40)\n  dup1\n  swap2\n  sub\n  swap1\n  revert\n    /* \"@openzeppelin/contracts/access/Ownable.sol\":1269:1364  if (initialOwner == address(0)) {... */\ntag_7:\n    /* \"@openzeppelin/contracts/access/Ownable.sol\":1373:1405  _transferOwnership(initialOwner) */\n  tag_10\n    /* \"@openzeppelin/contracts/access/Ownable.sol\":1392:1404  initialOwner */\n  dup2\n    /* \"@openzeppelin/contracts/access/Ownable.sol\":1373:1391  _transferOwnership */\n  shl(0x20, tag_11)\n    /* \"@openzeppelin/contracts/access/Ownable.sol\":1373:1405  _transferOwnership(initialOwner) */\n  0x20\n  shr\n  jump\t// in\ntag_10:\n    /* \"@openzeppelin/contracts/access/Ownable.sol\":1225:1412  constructor(address initialOwner) {... */\n  pop\n    /* \"contracts/Governance/Reputation.sol\":549:569  _userIdentityAddress */\n  dup1\n    /* \"contracts/Governance/Reputation.sol\":520:570  userIdentity = IUserIdentity(_userIdentityAddress) */\n  0xffffffffffffffffffffffffffffffffffffffff\n  and\n  0x80\n  dup2\n  0xffffffffffffffffffffffffffffffffffffffff\n  and\n  dup2\n  mstore\n  pop\n  pop\n    /* \"contracts/Governance/Reputation.sol\":430:573  constructor(address _initialOwner, address _userIdentityAddress) Ownable(_initialOwner) { userIdentity = IUserIdentity(_userIdentityAddress); } */\n  pop\n  pop\n    /* \"contracts/Governance/Reputation.sol\":156:1496  contract Reputation is Ownable {... */\n  jump(tag_13)\n    /* \"@openzeppelin/contracts/access/Ownable.sol\":2912:3099  function _transferOwnership(address newOwner) internal virtual {... */\ntag_11:\n    /* \"@openzeppelin/contracts/access/Ownable.sol\":2985:3001  address oldOwner */\n  0x00\n    /* \"@openzeppelin/contracts/access/Ownable.sol\":3004:3010  _owner */\n  0x00\n  0x00\n  swap1\n  sload\n  swap1\n  0x0100\n  exp\n  swap1\n  div\n  0xffffffffffffffffffffffffffffffffffffffff\n  and\n    /* \"@openzeppelin/contracts/access/Ownable.sol\":2985:3010  address oldOwner = _owner */\n  swap1\n  pop\n    /* \"@openzeppelin/contracts/access/Ownable.sol\":3029:3037  newOwner */\n  dup2\n    /* \"@openzeppelin/contracts/access/Ownable.sol\":3020:3026  _owner */\n  0x00\n  0x00\n    /* \"@openzeppelin/contracts/access/Ownable.sol\":3020:3037  _owner = newOwner */\n  0x0100\n  exp\n  dup2\n  sload\n  dup2\n  0xffffffffffffffffffffffffffffffffffffffff\n  mul\n  not\n  and\n  swap1\n  dup4\n  0xffffffffffffffffffffffffffffffffffffffff\n  and\n  mul\n  or\n  swap1\n  sstore\n  pop\n    /* \"@openzeppelin/contracts/access/Ownable.sol\":3083:3091  newOwner */\n  dup2\n    /* \"@openzeppelin/contracts/access/Ownable.sol\":3052:3092  OwnershipTransferred(oldOwner, newOwner) */\n  0xffffffffffffffffffffffffffffffffffffffff\n  and\n    /* \"@openzeppelin/contracts/access/Ownable.sol\":3073:3081  oldOwner */\n  dup2\n    /* \"@openzeppelin/contracts/access/Ownable.sol\":3052:3092  OwnershipTransferred(oldOwner, newOwner) */\n  0xffffffffffffffffffffffffffffffffffffffff\n  and\n  0x8be0079c531659141344cd1fd0a4f28419497f9722a3daafe3b4186f6b6457e0\n  mload(0x40)\n  mload(0x40)\n  dup1\n  swap2\n  sub\n  swap1\n  log3\n    /* \"@openzeppelin/contracts/access/Ownable.sol\":2975:3099  {... */\n  pop\n    /* \"@openzeppelin/contracts/access/Ownable.sol\":2912:3099  function _transferOwnership(address newOwner) internal virtual {... */\n  pop\n  jump\t// out\n    /* \"#utility.yul\":88:205   */\ntag_16:\n    /* \"#utility.yul\":197:198   */\n  0x00\n    /* \"#utility.yul\":194:195   */\n  0x00\n    /* \"#utility.yul\":187:199   */\n  revert\n    /* \"#utility.yul\":334:460   */\ntag_18:\n    /* \"#utility.yul\":371:378   */\n  0x00\n    /* \"#utility.yul\":411:453   */\n  0xffffffffffffffffffffffffffffffffffffffff\n    /* \"#utility.yul\":404:409   */\n  dup3\n    /* \"#utility.yul\":400:454   */\n  and\n    /* \"#utility.yul\":389:454   */\n  swap1\n  pop\n    /* \"#utility.yul\":334:460   */\n  swap2\n  swap1\n  pop\n  jump\t// out\n    /* \"#utility.yul\":466:562   */\ntag_19:\n    /* \"#utility.yul\":503:510   */\n  0x00\n    /* \"#utility.yul\":532:556   */\n  tag_29\n    /* \"#utility.yul\":550:555   */\n  dup3\n    /* \"#utility.yul\":532:556   */\n  tag_18\n  jump\t// in\ntag_29:\n    /* \"#utility.yul\":521:556   */\n  swap1\n  pop\n    /* \"#utility.yul\":466:562   */\n  swap2\n  swap1\n  pop\n  jump\t// out\n    /* \"#utility.yul\":568:690   */\ntag_20:\n    /* \"#utility.yul\":641:665   */\n  tag_31\n    /* \"#utility.yul\":659:664   */\n  dup2\n    /* \"#utility.yul\":641:665   */\n  tag_19\n  jump\t// in\ntag_31:\n    /* \"#utility.yul\":634:639   */\n  dup2\n    /* \"#utility.yul\":631:666   */\n  eq\n    /* \"#utility.yul\":621:684   */\n  tag_32\n  jumpi\n    /* \"#utility.yul\":680:681   */\n  0x00\n    /* \"#utility.yul\":677:678   */\n  0x00\n    /* \"#utility.yul\":670:682   */\n  revert\n    /* \"#utility.yul\":621:684   */\ntag_32:\n    /* \"#utility.yul\":568:690   */\n  pop\n  jump\t// out\n    /* \"#utility.yul\":696:839   */\ntag_21:\n    /* \"#utility.yul\":753:758   */\n  0x00\n    /* \"#utility.yul\":784:790   */\n  dup2\n    /* \"#utility.yul\":778:791   */\n  mload\n    /* \"#utility.yul\":769:791   */\n  swap1\n  pop\n    /* \"#utility.yul\":800:833   */\n  tag_34\n    /* \"#utility.yul\":827:832   */\n  dup2\n    /* \"#utility.yul\":800:833   */\n  tag_20\n  jump\t// in\ntag_34:\n    /* \"#utility.yul\":696:839   */\n  swap3\n  swap2\n  pop\n  pop\n  jump\t// out\n    /* \"#utility.yul\":845:1352   */\ntag_3:\n    /* \"#utility.yul\":924:930   */\n  0x00\n    /* \"#utility.yul\":932:938   */\n  0x00\n    /* \"#utility.yul\":981:983   */\n  0x40\n    /* \"#utility.yul\":969:978   */\n  dup4\n    /* \"#utility.yul\":960:967   */\n  dup6\n    /* \"#utility.yul\":956:979   */\n  sub\n    /* \"#utility.yul\":952:984   */\n  slt\n    /* \"#utility.yul\":949:1068   */\n  iszero\n  tag_36\n  jumpi\n    /* \"#utility.yul\":987:1066   */\n  tag_37\n  tag_16\n  jump\t// in\ntag_37:\n    /* \"#utility.yul\":949:1068   */\ntag_36:\n    /* \"#utility.yul\":1107:1108   */\n  0x00\n    /* \"#utility.yul\":1132:1196   */\n  tag_38\n    /* \"#utility.yul\":1188:1195   */\n  dup6\n    /* \"#utility.yul\":1179:1185   */\n  dup3\n    /* \"#utility.yul\":1168:1177   */\n  dup7\n    /* \"#utility.yul\":1164:1186   */\n  add\n    /* \"#utility.yul\":1132:1196   */\n  tag_21\n  jump\t// in\ntag_38:\n    /* \"#utility.yul\":1122:1196   */\n  swap3\n  pop\n    /* \"#utility.yul\":1078:1206   */\n  pop\n    /* \"#utility.yul\":1245:1247   */\n  0x20\n    /* \"#utility.yul\":1271:1335   */\n  tag_39\n    /* \"#utility.yul\":1327:1334   */\n  dup6\n    /* \"#utility.yul\":1318:1324   */\n  dup3\n    /* \"#utility.yul\":1307:1316   */\n  dup7\n    /* \"#utility.yul\":1303:1325   */\n  add\n    /* \"#utility.yul\":1271:1335   */\n  tag_21\n  jump\t// in\ntag_39:\n    /* \"#utility.yul\":1261:1335   */\n  swap2\n  pop\n    /* \"#utility.yul\":1216:1345   */\n  pop\n    /* \"#utility.yul\":845:1352   */\n  swap3\n  pop\n  swap3\n  swap1\n  pop\n  jump\t// out\n    /* \"#utility.yul\":1358:1476   */\ntag_22:\n    /* \"#utility.yul\":1445:1469   */\n  tag_41\n    /* \"#utility.yul\":1463:1468   */\n  dup2\n    /* \"#utility.yul\":1445:1469   */\n  tag_19\n  jump\t// in\ntag_41:\n    /* \"#utility.yul\":1440:1443   */\n  dup3\n    /* \"#utility.yul\":1433:1470   */\n  mstore\n    /* \"#utility.yul\":1358:1476   */\n  pop\n  pop\n  jump\t// out\n    /* \"#utility.yul\":1482:1704   */\ntag_9:\n    /* \"#utility.yul\":1575:1579   */\n  0x00\n    /* \"#utility.yul\":1613:1615   */\n  0x20\n    /* \"#utility.yul\":1602:1611   */\n  dup3\n    /* \"#utility.yul\":1598:1616   */\n  add\n    /* \"#utility.yul\":1590:1616   */\n  swap1\n  pop\n    /* \"#utility.yul\":1626:1697   */\n  tag_43\n    /* \"#utility.yul\":1694:1695   */\n  0x00\n    /* \"#utility.yul\":1683:1692   */\n  dup4\n    /* \"#utility.yul\":1679:1696   */\n  add\n    /* \"#utility.yul\":1670:1676   */\n  dup5\n    /* \"#utility.yul\":1626:1697   */\n  tag_22\n  jump\t// in\ntag_43:\n    /* \"#utility.yul\":1482:1704   */\n  swap3\n  swap2\n  pop\n  pop\n  jump\t// out\n    /* \"contracts/Governance/Reputation.sol\":156:1496  contract Reputation is Ownable {... */\ntag_13:\n  mload(0x80)\n  codecopy(0x00, dataOffset(sub_0), dataSize(sub_0))\n  0x00\n  assignImmutable(\"0xb7700257a9e4b89511ea592d7ef488a6959d733cec4df010484e5af3e427a407\")\n  return(0x00, dataSize(sub_0))\nstop\n\nsub_0: assembly {\n        /* \"contracts/Governance/Reputation.sol\":156:1496  contract Reputation is Ownable {... */\n      mstore(0x40, 0x80)\n      callvalue\n      dup1\n      iszero\n      tag_1\n      jumpi\n      revert(0x00, 0x00)\n    tag_1:\n      pop\n      jumpi(tag_2, lt(calldatasize, 0x04))\n      shr(0xe0, calldataload(0x00))\n      dup1\n      0x8da5cb5b\n      gt\n      tag_10\n      jumpi\n      dup1\n      0x8da5cb5b\n      eq\n      tag_6\n      jumpi\n      dup1\n      0xb0087cfa\n      eq\n      tag_7\n      jumpi\n      dup1\n      0xe6007bed\n      eq\n      tag_8\n      jumpi\n      dup1\n      0xf2fde38b\n      eq\n      tag_9\n      jumpi\n      jump(tag_2)\n    tag_10:\n      dup1\n      0x0139746c\n      eq\n      tag_3\n      jumpi\n      dup1\n      0x5435029a\n      eq\n      tag_4\n      jumpi\n      dup1\n      0x715018a6\n      eq\n      tag_5\n      jumpi\n    tag_2:\n      revert(0x00, 0x00)\n        /* \"contracts/Governance/Reputation.sol\":1356:1493  function setProjectAuthority(address _authority) external onlyOwner { projectAuthority = _authority; emit AuthorityUpdated(_authority); } */\n    tag_3:\n      tag_11\n      0x04\n      dup1\n      calldatasize\n      sub\n      dup2\n      add\n      swap1\n      tag_12\n      swap2\n      swap1\n      tag_13\n      jump\t// in\n    tag_12:\n      tag_14\n      jump\t// in\n    tag_11:\n      stop\n        /* \"contracts/Governance/Reputation.sol\":698:1350  function submitRating(address _rater, address _ratee, uint256 _score) external onlyAuthorized {... */\n    tag_4:\n      tag_15\n      0x04\n      dup1\n      calldatasize\n      sub\n      dup2\n      add\n      swap1\n      tag_16\n      swap2\n      swap1\n      tag_17\n      jump\t// in\n    tag_16:\n      tag_18\n      jump\t// in\n    tag_15:\n      stop\n        /* \"@openzeppelin/contracts/access/Ownable.sol\":2293:2394  function renounceOwnership() public virtual onlyOwner {... */\n    tag_5:\n      tag_19\n      tag_20\n      jump\t// in\n    tag_19:\n      stop\n        /* \"@openzeppelin/contracts/access/Ownable.sol\":1638:1723  function owner() public view virtual returns (address) {... */\n    tag_6:\n      tag_21\n      tag_22\n      jump\t// in\n    tag_21:\n      mload(0x40)\n      tag_23\n      swap2\n      swap1\n      tag_24\n      jump\t// in\n    tag_23:\n      mload(0x40)\n      dup1\n      swap2\n      sub\n      swap1\n      return\n        /* \"contracts/Governance/Reputation.sol\":244:275  address public projectAuthority */\n    tag_7:\n      tag_25\n      tag_26\n      jump\t// in\n    tag_25:\n      mload(0x40)\n      tag_27\n      swap2\n      swap1\n      tag_24\n      jump\t// in\n    tag_27:\n      mload(0x40)\n      dup1\n      swap2\n      sub\n      swap1\n      return\n        /* \"contracts/Governance/Reputation.sol\":194:237  IUserIdentity public immutable userIdentity */\n    tag_8:\n      tag_28\n      tag_29\n      jump\t// in\n    tag_28:\n      mload(0x40)\n      tag_30\n      swap2\n      swap1\n      tag_31\n      jump\t// in\n    tag_30:\n      mload(0x40)\n      dup1\n      swap2\n      sub\n      swap1\n      return\n        /* \"@openzeppelin/contracts/access/Ownable.sol\":2543:2758  function transferOwnership(address newOwner) public virtual onlyOwner {... */\n    tag_9:\n      tag_32\n      0x04\n      dup1\n      calldatasize\n      sub\n      dup2\n      add\n      swap1\n      tag_33\n      swap2\n      swap1\n      tag_13\n      jump\t// in\n    tag_33:\n      tag_34\n      jump\t// in\n    tag_32:\n      stop\n        /* \"contracts/Governance/Reputation.sol\":1356:1493  function setProjectAuthority(address _authority) external onlyOwner { projectAuthority = _authority; emit AuthorityUpdated(_authority); } */\n    tag_14:\n        /* \"@openzeppelin/contracts/access/Ownable.sol\":1531:1544  _checkOwner() */\n      tag_36\n        /* \"@openzeppelin/contracts/access/Ownable.sol\":1531:1542  _checkOwner */\n      tag_37\n        /* \"@openzeppelin/contracts/access/Ownable.sol\":1531:1544  _checkOwner() */\n      jump\t// in\n    tag_36:\n        /* \"contracts/Governance/Reputation.sol\":1445:1455  _authority */\n      dup1\n        /* \"contracts/Governance/Reputation.sol\":1426:1442  projectAuthority */\n      0x01\n      0x00\n        /* \"contracts/Governance/Reputation.sol\":1426:1455  projectAuthority = _authority */\n      0x0100\n      exp\n      dup2\n      sload\n      dup2\n      0xffffffffffffffffffffffffffffffffffffffff\n      mul\n      not\n      and\n      swap1\n      dup4\n      0xffffffffffffffffffffffffffffffffffffffff\n      and\n      mul\n      or\n      swap1\n      sstore\n      pop\n        /* \"contracts/Governance/Reputation.sol\":1479:1489  _authority */\n      dup1\n        /* \"contracts/Governance/Reputation.sol\":1462:1490  AuthorityUpdated(_authority) */\n      0xffffffffffffffffffffffffffffffffffffffff\n      and\n      0x2f658b440c35314f52658ea8a740e05b284cdc84dc9ae01e891f21b8933e7cad\n      mload(0x40)\n      mload(0x40)\n      dup1\n      swap2\n      sub\n      swap1\n      log2\n        /* \"contracts/Governance/Reputation.sol\":1356:1493  function setProjectAuthority(address _authority) external onlyOwner { projectAuthority = _authority; emit AuthorityUpdated(_authority); } */\n      pop\n      jump\t// out\n        /* \"contracts/Governance/Reputation.sol\":698:1350  function submitRating(address _rater, address _ratee, uint256 _score) external onlyAuthorized {... */\n    tag_18:\n        /* \"contracts/Governance/Reputation.sol\":629:645  projectAuthority */\n      0x01\n      0x00\n      swap1\n      sload\n      swap1\n      0x0100\n      exp\n      swap1\n      div\n      0xffffffffffffffffffffffffffffffffffffffff\n      and\n        /* \"contracts/Governance/Reputation.sol\":615:645  msg.sender == projectAuthority */\n      0xffffffffffffffffffffffffffffffffffffffff\n      and\n        /* \"contracts/Governance/Reputation.sol\":615:625  msg.sender */\n      caller\n        /* \"contracts/Governance/Reputation.sol\":615:645  msg.sender == projectAuthority */\n      0xffffffffffffffffffffffffffffffffffffffff\n      and\n      eq\n        /* \"contracts/Governance/Reputation.sol\":607:686  require(msg.sender == projectAuthority, \"Reputation: Not an authorized caller\") */\n      tag_40\n      jumpi\n      mload(0x40)\n      0x08c379a000000000000000000000000000000000000000000000000000000000\n      dup2\n      mstore\n      0x04\n      add\n      tag_41\n      swap1\n      tag_42\n      jump\t// in\n    tag_41:\n      mload(0x40)\n      dup1\n      swap2\n      sub\n      swap1\n      revert\n    tag_40:\n        /* \"contracts/Governance/Reputation.sol\":821:822  1 */\n      0x01\n        /* \"contracts/Governance/Reputation.sol\":811:817  _score */\n      dup2\n        /* \"contracts/Governance/Reputation.sol\":811:822  _score >= 1 */\n      lt\n      iszero\n        /* \"contracts/Governance/Reputation.sol\":811:837  _score >= 1 && _score <= 5 */\n      dup1\n      iszero\n      tag_44\n      jumpi\n      pop\n        /* \"contracts/Governance/Reputation.sol\":836:837  5 */\n      0x05\n        /* \"contracts/Governance/Reputation.sol\":826:832  _score */\n      dup2\n        /* \"contracts/Governance/Reputation.sol\":826:837  _score <= 5 */\n      gt\n      iszero\n        /* \"contracts/Governance/Reputation.sol\":811:837  _score >= 1 && _score <= 5 */\n    tag_44:\n        /* \"contracts/Governance/Reputation.sol\":803:883  require(_score >= 1 && _score <= 5, \"Reputation: Score must be between 1 and 5\") */\n      tag_45\n      jumpi\n      mload(0x40)\n      0x08c379a000000000000000000000000000000000000000000000000000000000\n      dup2\n      mstore\n      0x04\n      add\n      tag_46\n      swap1\n      tag_47\n      jump\t// in\n    tag_46:\n      mload(0x40)\n      dup1\n      swap2\n      sub\n      swap1\n      revert\n    tag_45:\n        /* \"contracts/Governance/Reputation.sol\":894:934  IUserIdentity.UserProfile memory profile */\n      0x00\n        /* \"contracts/Governance/Reputation.sol\":937:949  userIdentity */\n      immutable(\"0xb7700257a9e4b89511ea592d7ef488a6959d733cec4df010484e5af3e427a407\")\n        /* \"contracts/Governance/Reputation.sol\":937:960  userIdentity.getProfile */\n      0xffffffffffffffffffffffffffffffffffffffff\n      and\n      0x0f53a470\n        /* \"contracts/Governance/Reputation.sol\":961:967  _ratee */\n      dup5\n        /* \"contracts/Governance/Reputation.sol\":937:968  userIdentity.getProfile(_ratee) */\n      mload(0x40)\n      dup3\n      0xffffffff\n      and\n      0xe0\n      shl\n      dup2\n      mstore\n      0x04\n      add\n      tag_48\n      swap2\n      swap1\n      tag_24\n      jump\t// in\n    tag_48:\n      0x00\n      mload(0x40)\n      dup1\n      dup4\n      sub\n      dup2\n      dup7\n      gas\n      staticcall\n      iszero\n      dup1\n      iszero\n      tag_50\n      jumpi\n      returndatacopy(0x00, 0x00, returndatasize)\n      revert(0x00, returndatasize)\n    tag_50:\n      pop\n      pop\n      pop\n      pop\n      mload(0x40)\n      returndatasize\n      0x00\n      dup3\n      returndatacopy\n      returndatasize\n      not(0x1f)\n      0x1f\n      dup3\n      add\n      and\n      dup3\n      add\n      dup1\n      0x40\n      mstore\n      pop\n      dup2\n      add\n      swap1\n      tag_51\n      swap2\n      swap1\n      tag_52\n      jump\t// in\n    tag_51:\n        /* \"contracts/Governance/Reputation.sol\":894:968  IUserIdentity.UserProfile memory profile = userIdentity.getProfile(_ratee) */\n      swap1\n      pop\n        /* \"contracts/Governance/Reputation.sol\":979:998  uint256 scaledScore */\n      0x00\n        /* \"contracts/Governance/Reputation.sol\":1010:1013  100 */\n      0x64\n        /* \"contracts/Governance/Reputation.sol\":1001:1007  _score */\n      dup4\n        /* \"contracts/Governance/Reputation.sol\":1001:1013  _score * 100 */\n      tag_53\n      swap2\n      swap1\n      tag_54\n      jump\t// in\n    tag_53:\n        /* \"contracts/Governance/Reputation.sol\":979:1013  uint256 scaledScore = _score * 100 */\n      swap1\n      pop\n        /* \"contracts/Governance/Reputation.sol\":1015:1031  uint256 newScore */\n      0x00\n        /* \"contracts/Governance/Reputation.sol\":1075:1076  0 */\n      0x00\n        /* \"contracts/Governance/Reputation.sol\":1046:1053  profile */\n      dup4\n        /* \"contracts/Governance/Reputation.sol\":1046:1071  profile.projectsCompleted */\n      0xa0\n      add\n      mload\n        /* \"contracts/Governance/Reputation.sol\":1046:1076  profile.projectsCompleted == 0 */\n      sub\n        /* \"contracts/Governance/Reputation.sol\":1042:1230  if (profile.projectsCompleted == 0) { newScore = scaledScore; } else { newScore = ((profile.reputationScore * profile.projectsCompleted) + scaledScore) / (profile.projectsCompleted + 1); } */\n      tag_55\n      jumpi\n        /* \"contracts/Governance/Reputation.sol\":1091:1102  scaledScore */\n      dup2\n        /* \"contracts/Governance/Reputation.sol\":1080:1102  newScore = scaledScore */\n      swap1\n      pop\n        /* \"contracts/Governance/Reputation.sol\":1042:1230  if (profile.projectsCompleted == 0) { newScore = scaledScore; } else { newScore = ((profile.reputationScore * profile.projectsCompleted) + scaledScore) / (profile.projectsCompleted + 1); } */\n      jump(tag_56)\n    tag_55:\n        /* \"contracts/Governance/Reputation.sol\":1225:1226  1 */\n      0x01\n        /* \"contracts/Governance/Reputation.sol\":1197:1204  profile */\n      dup4\n        /* \"contracts/Governance/Reputation.sol\":1197:1222  profile.projectsCompleted */\n      0xa0\n      add\n      mload\n        /* \"contracts/Governance/Reputation.sol\":1197:1226  profile.projectsCompleted + 1 */\n      tag_57\n      swap2\n      swap1\n      tag_58\n      jump\t// in\n    tag_57:\n        /* \"contracts/Governance/Reputation.sol\":1181:1192  scaledScore */\n      dup3\n        /* \"contracts/Governance/Reputation.sol\":1152:1159  profile */\n      dup5\n        /* \"contracts/Governance/Reputation.sol\":1152:1177  profile.projectsCompleted */\n      0xa0\n      add\n      mload\n        /* \"contracts/Governance/Reputation.sol\":1126:1133  profile */\n      dup6\n        /* \"contracts/Governance/Reputation.sol\":1126:1149  profile.reputationScore */\n      0x80\n      add\n      mload\n        /* \"contracts/Governance/Reputation.sol\":1126:1177  profile.reputationScore * profile.projectsCompleted */\n      tag_59\n      swap2\n      swap1\n      tag_54\n      jump\t// in\n    tag_59:\n        /* \"contracts/Governance/Reputation.sol\":1125:1192  (profile.reputationScore * profile.projectsCompleted) + scaledScore */\n      tag_60\n      swap2\n      swap1\n      tag_58\n      jump\t// in\n    tag_60:\n        /* \"contracts/Governance/Reputation.sol\":1124:1227  ((profile.reputationScore * profile.projectsCompleted) + scaledScore) / (profile.projectsCompleted + 1) */\n      tag_61\n      swap2\n      swap1\n      tag_62\n      jump\t// in\n    tag_61:\n        /* \"contracts/Governance/Reputation.sol\":1113:1227  newScore = ((profile.reputationScore * profile.projectsCompleted) + scaledScore) / (profile.projectsCompleted + 1) */\n      swap1\n      pop\n        /* \"contracts/Governance/Reputation.sol\":1042:1230  if (profile.projectsCompleted == 0) { newScore = scaledScore; } else { newScore = ((profile.reputationScore * profile.projectsCompleted) + scaledScore) / (profile.projectsCompleted + 1); } */\n    tag_56:\n        /* \"contracts/Governance/Reputation.sol\":1240:1252  userIdentity */\n      immutable(\"0xb7700257a9e4b89511ea592d7ef488a6959d733cec4df010484e5af3e427a407\")\n        /* \"contracts/Governance/Reputation.sol\":1240:1269  userIdentity.updateReputation */\n      0xffffffffffffffffffffffffffffffffffffffff\n      and\n      0xf5c91a08\n        /* \"contracts/Governance/Reputation.sol\":1270:1276  _ratee */\n      dup7\n        /* \"contracts/Governance/Reputation.sol\":1278:1286  newScore */\n      dup4\n        /* \"contracts/Governance/Reputation.sol\":1240:1287  userIdentity.updateReputation(_ratee, newScore) */\n      mload(0x40)\n      dup4\n      0xffffffff\n      and\n      0xe0\n      shl\n      dup2\n      mstore\n      0x04\n      add\n      tag_63\n      swap3\n      swap2\n      swap1\n      tag_64\n      jump\t// in\n    tag_63:\n      0x00\n      mload(0x40)\n      dup1\n      dup4\n      sub\n      dup2\n      0x00\n      dup8\n      dup1\n      extcodesize\n      iszero\n      dup1\n      iszero\n      tag_65\n      jumpi\n      revert(0x00, 0x00)\n    tag_65:\n      pop\n      gas\n      call\n      iszero\n      dup1\n      iszero\n      tag_67\n      jumpi\n      returndatacopy(0x00, 0x00, returndatasize)\n      revert(0x00, returndatasize)\n    tag_67:\n      pop\n      pop\n      pop\n      pop\n        /* \"contracts/Governance/Reputation.sol\":1327:1333  _ratee */\n      dup5\n        /* \"contracts/Governance/Reputation.sol\":1303:1342  RatingSubmitted(_rater, _ratee, _score) */\n      0xffffffffffffffffffffffffffffffffffffffff\n      and\n        /* \"contracts/Governance/Reputation.sol\":1319:1325  _rater */\n      dup7\n        /* \"contracts/Governance/Reputation.sol\":1303:1342  RatingSubmitted(_rater, _ratee, _score) */\n      0xffffffffffffffffffffffffffffffffffffffff\n      and\n      0xdcba9448b55b807611f7e3ece24acdc6afaec1d8c5a16f3e70c571758f606654\n        /* \"contracts/Governance/Reputation.sol\":1335:1341  _score */\n      dup7\n        /* \"contracts/Governance/Reputation.sol\":1303:1342  RatingSubmitted(_rater, _ratee, _score) */\n      mload(0x40)\n      tag_68\n      swap2\n      swap1\n      tag_69\n      jump\t// in\n    tag_68:\n      mload(0x40)\n      dup1\n      swap2\n      sub\n      swap1\n      log3\n        /* \"contracts/Governance/Reputation.sol\":792:1350  {... */\n      pop\n      pop\n      pop\n        /* \"contracts/Governance/Reputation.sol\":698:1350  function submitRating(address _rater, address _ratee, uint256 _score) external onlyAuthorized {... */\n      pop\n      pop\n      pop\n      jump\t// out\n        /* \"@openzeppelin/contracts/access/Ownable.sol\":2293:2394  function renounceOwnership() public virtual onlyOwner {... */\n    tag_20:\n        /* \"@openzeppelin/contracts/access/Ownable.sol\":1531:1544  _checkOwner() */\n      tag_71\n        /* \"@openzeppelin/contracts/access/Ownable.sol\":1531:1542  _checkOwner */\n      tag_37\n        /* \"@openzeppelin/contracts/access/Ownable.sol\":1531:1544  _checkOwner() */\n      jump\t// in\n    tag_71:\n        /* \"@openzeppelin/contracts/access/Ownable.sol\":2357:2387  _transferOwnership(address(0)) */\n      tag_73\n        /* \"@openzeppelin/contracts/access/Ownable.sol\":2384:2385  0 */\n      0x00\n        /* \"@openzeppelin/contracts/access/Ownable.sol\":2357:2375  _transferOwnership */\n      tag_74\n        /* \"@openzeppelin/contracts/access/Ownable.sol\":2357:2387  _transferOwnership(address(0)) */\n      jump\t// in\n    tag_73:\n        /* \"@openzeppelin/contracts/access/Ownable.sol\":2293:2394  function renounceOwnership() public virtual onlyOwner {... */\n      jump\t// out\n        /* \"@openzeppelin/contracts/access/Ownable.sol\":1638:1723  function owner() public view virtual returns (address) {... */\n    tag_22:\n        /* \"@openzeppelin/contracts/access/Ownable.sol\":1684:1691  address */\n      0x00\n        /* \"@openzeppelin/contracts/access/Ownable.sol\":1710:1716  _owner */\n      0x00\n      0x00\n      swap1\n      sload\n      swap1\n      0x0100\n      exp\n      swap1\n      div\n      0xffffffffffffffffffffffffffffffffffffffff\n      and\n        /* \"@openzeppelin/contracts/access/Ownable.sol\":1703:1716  return _owner */\n      swap1\n      pop\n        /* \"@openzeppelin/contracts/access/Ownable.sol\":1638:1723  function owner() public view virtual returns (address) {... */\n      swap1\n      jump\t// out\n        /* \"contracts/Governance/Reputation.sol\":244:275  address public projectAuthority */\n    tag_26:\n      0x01\n      0x00\n      swap1\n      sload\n      swap1\n      0x0100\n      exp\n      swap1\n      div\n      0xffffffffffffffffffffffffffffffffffffffff\n      and\n      dup2\n      jump\t// out\n        /* \"contracts/Governance/Reputation.sol\":194:237  IUserIdentity public immutable userIdentity */\n    tag_29:\n      immutable(\"0xb7700257a9e4b89511ea592d7ef488a6959d733cec4df010484e5af3e427a407\")\n      dup2\n      jump\t// out\n        /* \"@openzeppelin/contracts/access/Ownable.sol\":2543:2758  function transferOwnership(address newOwner) public virtual onlyOwner {... */\n    tag_34:\n        /* \"@openzeppelin/contracts/access/Ownable.sol\":1531:1544  _checkOwner() */\n      tag_77\n        /* \"@openzeppelin/contracts/access/Ownable.sol\":1531:1542  _checkOwner */\n      tag_37\n        /* \"@openzeppelin/contracts/access/Ownable.sol\":1531:1544  _checkOwner() */\n      jump\t// in\n    tag_77:\n        /* \"@openzeppelin/contracts/access/Ownable.sol\":2647:2648  0 */\n      0x00\n        /* \"@openzeppelin/contracts/access/Ownable.sol\":2627:2649  newOwner == address(0) */\n      0xffffffffffffffffffffffffffffffffffffffff\n      and\n        /* \"@openzeppelin/contracts/access/Ownable.sol\":2627:2635  newOwner */\n      dup2\n        /* \"@openzeppelin/contracts/access/Ownable.sol\":2627:2649  newOwner == address(0) */\n      0xffffffffffffffffffffffffffffffffffffffff\n      and\n      sub\n        /* \"@openzeppelin/contracts/access/Ownable.sol\":2623:2714  if (newOwner == address(0)) {... */\n      tag_79\n      jumpi\n        /* \"@openzeppelin/contracts/access/Ownable.sol\":2700:2701  0 */\n      0x00\n        /* \"@openzeppelin/contracts/access/Ownable.sol\":2672:2703  OwnableInvalidOwner(address(0)) */\n      mload(0x40)\n      0x1e4fbdf700000000000000000000000000000000000000000000000000000000\n      dup2\n      mstore\n      0x04\n      add\n      tag_80\n      swap2\n      swap1\n      tag_24\n      jump\t// in\n    tag_80:\n      mload(0x40)\n      dup1\n      swap2\n      sub\n      swap1\n      revert\n        /* \"@openzeppelin/contracts/access/Ownable.sol\":2623:2714  if (newOwner == address(0)) {... */\n    tag_79:\n        /* \"@openzeppelin/contracts/access/Ownable.sol\":2723:2751  _transferOwnership(newOwner) */\n      tag_81\n        /* \"@openzeppelin/contracts/access/Ownable.sol\":2742:2750  newOwner */\n      dup2\n        /* \"@openzeppelin/contracts/access/Ownable.sol\":2723:2741  _transferOwnership */\n      tag_74\n        /* \"@openzeppelin/contracts/access/Ownable.sol\":2723:2751  _transferOwnership(newOwner) */\n      jump\t// in\n    tag_81:\n        /* \"@openzeppelin/contracts/access/Ownable.sol\":2543:2758  function transferOwnership(address newOwner) public virtual onlyOwner {... */\n      pop\n      jump\t// out\n        /* \"@openzeppelin/contracts/access/Ownable.sol\":1796:1958  function _checkOwner() internal view virtual {... */\n    tag_37:\n        /* \"@openzeppelin/contracts/access/Ownable.sol\":1866:1878  _msgSender() */\n      tag_83\n        /* \"@openzeppelin/contracts/access/Ownable.sol\":1866:1876  _msgSender */\n      tag_84\n        /* \"@openzeppelin/contracts/access/Ownable.sol\":1866:1878  _msgSender() */\n      jump\t// in\n    tag_83:\n        /* \"@openzeppelin/contracts/access/Ownable.sol\":1855:1878  owner() != _msgSender() */\n      0xffffffffffffffffffffffffffffffffffffffff\n      and\n        /* \"@openzeppelin/contracts/access/Ownable.sol\":1855:1862  owner() */\n      tag_85\n        /* \"@openzeppelin/contracts/access/Ownable.sol\":1855:1860  owner */\n      tag_22\n        /* \"@openzeppelin/contracts/access/Ownable.sol\":1855:1862  owner() */\n      jump\t// in\n    tag_85:\n        /* \"@openzeppelin/contracts/access/Ownable.sol\":1855:1878  owner() != _msgSender() */\n      0xffffffffffffffffffffffffffffffffffffffff\n      and\n      eq\n        /* \"@openzeppelin/contracts/access/Ownable.sol\":1851:1952  if (owner() != _msgSender()) {... */\n      tag_86\n      jumpi\n        /* \"@openzeppelin/contracts/access/Ownable.sol\":1928:1940  _msgSender() */\n      tag_87\n        /* \"@openzeppelin/contracts/access/Ownable.sol\":1928:1938  _msgSender */\n      tag_84\n        /* \"@openzeppelin/contracts/access/Ownable.sol\":1928:1940  _msgSender() */\n      jump\t// in\n    tag_87:\n        /* \"@openzeppelin/contracts/access/Ownable.sol\":1901:1941  OwnableUnauthorizedAccount(_msgSender()) */\n      mload(0x40)\n      0x118cdaa700000000000000000000000000000000000000000000000000000000\n      dup2\n      mstore\n      0x04\n      add\n      tag_88\n      swap2\n      swap1\n      tag_24\n      jump\t// in\n    tag_88:\n      mload(0x40)\n      dup1\n      swap2\n      sub\n      swap1\n      revert\n        /* \"@openzeppelin/contracts/access/Ownable.sol\":1851:1952  if (owner() != _msgSender()) {... */\n    tag_86:\n        /* \"@openzeppelin/contracts/access/Ownable.sol\":1796:1958  function _checkOwner() internal view virtual {... */\n      jump\t// out\n        /* \"@openzeppelin/contracts/access/Ownable.sol\":2912:3099  function _transferOwnership(address newOwner) internal virtual {... */\n    tag_74:\n        /* \"@openzeppelin/contracts/access/Ownable.sol\":2985:3001  address oldOwner */\n      0x00\n        /* \"@openzeppelin/contracts/access/Ownable.sol\":3004:3010  _owner */\n      0x00\n      0x00\n      swap1\n      sload\n      swap1\n      0x0100\n      exp\n      swap1\n      div\n      0xffffffffffffffffffffffffffffffffffffffff\n      and\n        /* \"@openzeppelin/contracts/access/Ownable.sol\":2985:3010  address oldOwner = _owner */\n      swap1\n      pop\n        /* \"@openzeppelin/contracts/access/Ownable.sol\":3029:3037  newOwner */\n      dup2\n        /* \"@openzeppelin/contracts/access/Ownable.sol\":3020:3026  _owner */\n      0x00\n      0x00\n        /* \"@openzeppelin/contracts/access/Ownable.sol\":3020:3037  _owner = newOwner */\n      0x0100\n      exp\n      dup2\n      sload\n      dup2\n      0xffffffffffffffffffffffffffffffffffffffff\n      mul\n      not\n      and\n      swap1\n      dup4\n      0xffffffffffffffffffffffffffffffffffffffff\n      and\n      mul\n      or\n      swap1\n      sstore\n      pop\n        /* \"@openzeppelin/contracts/access/Ownable.sol\":3083:3091  newOwner */\n      dup2\n        /* \"@openzeppelin/contracts/access/Ownable.sol\":3052:3092  OwnershipTransferred(oldOwner, newOwner) */\n      0xffffffffffffffffffffffffffffffffffffffff\n      and\n        /* \"@openzeppelin/contracts/access/Ownable.sol\":3073:3081  oldOwner */\n      dup2\n        /* \"@openzeppelin/contracts/access/Ownable.sol\":3052:3092  OwnershipTransferred(oldOwner, newOwner) */\n      0xffffffffffffffffffffffffffffffffffffffff\n      and\n      0x8be0079c531659141344cd1fd0a4f28419497f9722a3daafe3b4186f6b6457e0\n      mload(0x40)\n      mload(0x40)\n      dup1\n      swap2\n      sub\n      swap1\n      log3\n        /* \"@openzeppelin/contracts/access/Ownable.sol\":2975:3099  {... */\n      pop\n        /* \"@openzeppelin/contracts/access/Ownable.sol\":2912:3099  function _transferOwnership(address newOwner) internal virtual {... */\n      pop\n      jump\t// out\n        /* \"@openzeppelin/contracts/utils/Context.sol\":656:752  function _msgSender() internal view virtual returns (address) {... */\n    tag_84:\n        /* \"@openzeppelin/contracts/utils/Context.sol\":709:716  address */\n      0x00\n        /* \"@openzeppelin/contracts/utils/Context.sol\":735:745  msg.sender */\n      caller\n        /* \"@openzeppelin/contracts/utils/Context.sol\":728:745  return msg.sender */\n      swap1\n      pop\n        /* \"@openzeppelin/contracts/utils/Context.sol\":656:752  function _msgSender() internal view virtual returns (address) {... */\n      swap1\n      jump\t// out\n        /* \"#utility.yul\":7:82   */\n    tag_91:\n        /* \"#utility.yul\":40:46   */\n      0x00\n        /* \"#utility.yul\":73:75   */\n      0x40\n        /* \"#utility.yul\":67:76   */\n      mload\n        /* \"#utility.yul\":57:76   */\n      swap1\n      pop\n        /* \"#utility.yul\":7:82   */\n      swap1\n      jump\t// out\n        /* \"#utility.yul\":88:205   */\n    tag_92:\n        /* \"#utility.yul\":197:198   */\n      0x00\n        /* \"#utility.yul\":194:195   */\n      0x00\n        /* \"#utility.yul\":187:199   */\n      revert\n        /* \"#utility.yul\":211:328   */\n    tag_93:\n        /* \"#utility.yul\":320:321   */\n      0x00\n        /* \"#utility.yul\":317:318   */\n      0x00\n        /* \"#utility.yul\":310:322   */\n      revert\n        /* \"#utility.yul\":334:460   */\n    tag_94:\n        /* \"#utility.yul\":371:378   */\n      0x00\n        /* \"#utility.yul\":411:453   */\n      0xffffffffffffffffffffffffffffffffffffffff\n        /* \"#utility.yul\":404:409   */\n      dup3\n        /* \"#utility.yul\":400:454   */\n      and\n        /* \"#utility.yul\":389:454   */\n      swap1\n      pop\n        /* \"#utility.yul\":334:460   */\n      swap2\n      swap1\n      pop\n      jump\t// out\n        /* \"#utility.yul\":466:562   */\n    tag_95:\n        /* \"#utility.yul\":503:510   */\n      0x00\n        /* \"#utility.yul\":532:556   */\n      tag_139\n        /* \"#utility.yul\":550:555   */\n      dup3\n        /* \"#utility.yul\":532:556   */\n      tag_94\n      jump\t// in\n    tag_139:\n        /* \"#utility.yul\":521:556   */\n      swap1\n      pop\n        /* \"#utility.yul\":466:562   */\n      swap2\n      swap1\n      pop\n      jump\t// out\n        /* \"#utility.yul\":568:690   */\n    tag_96:\n        /* \"#utility.yul\":641:665   */\n      tag_141\n        /* \"#utility.yul\":659:664   */\n      dup2\n        /* \"#utility.yul\":641:665   */\n      tag_95\n      jump\t// in\n    tag_141:\n        /* \"#utility.yul\":634:639   */\n      dup2\n        /* \"#utility.yul\":631:666   */\n      eq\n        /* \"#utility.yul\":621:684   */\n      tag_142\n      jumpi\n        /* \"#utility.yul\":680:681   */\n      0x00\n        /* \"#utility.yul\":677:678   */\n      0x00\n        /* \"#utility.yul\":670:682   */\n      revert\n        /* \"#utility.yul\":621:684   */\n    tag_142:\n        /* \"#utility.yul\":568:690   */\n      pop\n      jump\t// out\n        /* \"#utility.yul\":696:835   */\n    tag_97:\n        /* \"#utility.yul\":742:747   */\n      0x00\n        /* \"#utility.yul\":780:786   */\n      dup2\n        /* \"#utility.yul\":767:787   */\n      calldataload\n        /* \"#utility.yul\":758:787   */\n      swap1\n      pop\n        /* \"#utility.yul\":796:829   */\n      tag_144\n        /* \"#utility.yul\":823:828   */\n      dup2\n        /* \"#utility.yul\":796:829   */\n      tag_96\n      jump\t// in\n    tag_144:\n        /* \"#utility.yul\":696:835   */\n      swap3\n      swap2\n      pop\n      pop\n      jump\t// out\n        /* \"#utility.yul\":841:1170   */\n    tag_13:\n        /* \"#utility.yul\":900:906   */\n      0x00\n        /* \"#utility.yul\":949:951   */\n      0x20\n        /* \"#utility.yul\":937:946   */\n      dup3\n        /* \"#utility.yul\":928:935   */\n      dup5\n        /* \"#utility.yul\":924:947   */\n      sub\n        /* \"#utility.yul\":920:952   */\n      slt\n        /* \"#utility.yul\":917:1036   */\n      iszero\n      tag_146\n      jumpi\n        /* \"#utility.yul\":955:1034   */\n      tag_147\n      tag_92\n      jump\t// in\n    tag_147:\n        /* \"#utility.yul\":917:1036   */\n    tag_146:\n        /* \"#utility.yul\":1075:1076   */\n      0x00\n        /* \"#utility.yul\":1100:1153   */\n      tag_148\n        /* \"#utility.yul\":1145:1152   */\n      dup5\n        /* \"#utility.yul\":1136:1142   */\n      dup3\n        /* \"#utility.yul\":1125:1134   */\n      dup6\n        /* \"#utility.yul\":1121:1143   */\n      add\n        /* \"#utility.yul\":1100:1153   */\n      tag_97\n      jump\t// in\n    tag_148:\n        /* \"#utility.yul\":1090:1153   */\n      swap2\n      pop\n        /* \"#utility.yul\":1046:1163   */\n      pop\n        /* \"#utility.yul\":841:1170   */\n      swap3\n      swap2\n      pop\n      pop\n      jump\t// out\n        /* \"#utility.yul\":1176:1253   */\n    tag_98:\n        /* \"#utility.yul\":1213:1220   */\n      0x00\n        /* \"#utility.yul\":1242:1247   */\n      dup2\n        /* \"#utility.yul\":1231:1247   */\n      swap1\n      pop\n        /* \"#utility.yul\":1176:1253   */\n      swap2\n      swap1\n      pop\n      jump\t// out\n        /* \"#utility.yul\":1259:1381   */\n    tag_99:\n        /* \"#utility.yul\":1332:1356   */\n      tag_151\n        /* \"#utility.yul\":1350:1355   */\n      dup2\n        /* \"#utility.yul\":1332:1356   */\n      tag_98\n      jump\t// in\n    tag_151:\n        /* \"#utility.yul\":1325:1330   */\n      dup2\n        /* \"#utility.yul\":1322:1357   */\n      eq\n        /* \"#utility.yul\":1312:1375   */\n      tag_152\n      jumpi\n        /* \"#utility.yul\":1371:1372   */\n      0x00\n        /* \"#utility.yul\":1368:1369   */\n      0x00\n        /* \"#utility.yul\":1361:1373   */\n      revert\n        /* \"#utility.yul\":1312:1375   */\n    tag_152:\n        /* \"#utility.yul\":1259:1381   */\n      pop\n      jump\t// out\n        /* \"#utility.yul\":1387:1526   */\n    tag_100:\n        /* \"#utility.yul\":1433:1438   */\n      0x00\n        /* \"#utility.yul\":1471:1477   */\n      dup2\n        /* \"#utility.yul\":1458:1478   */\n      calldataload\n        /* \"#utility.yul\":1449:1478   */\n      swap1\n      pop\n        /* \"#utility.yul\":1487:1520   */\n      tag_154\n        /* \"#utility.yul\":1514:1519   */\n      dup2\n        /* \"#utility.yul\":1487:1520   */\n      tag_99\n      jump\t// in\n    tag_154:\n        /* \"#utility.yul\":1387:1526   */\n      swap3\n      swap2\n      pop\n      pop\n      jump\t// out\n        /* \"#utility.yul\":1532:2151   */\n    tag_17:\n        /* \"#utility.yul\":1609:1615   */\n      0x00\n        /* \"#utility.yul\":1617:1623   */\n      0x00\n        /* \"#utility.yul\":1625:1631   */\n      0x00\n        /* \"#utility.yul\":1674:1676   */\n      0x60\n        /* \"#utility.yul\":1662:1671   */\n      dup5\n        /* \"#utility.yul\":1653:1660   */\n      dup7\n        /* \"#utility.yul\":1649:1672   */\n      sub\n        /* \"#utility.yul\":1645:1677   */\n      slt\n        /* \"#utility.yul\":1642:1761   */\n      iszero\n      tag_156\n      jumpi\n        /* \"#utility.yul\":1680:1759   */\n      tag_157\n      tag_92\n      jump\t// in\n    tag_157:\n        /* \"#utility.yul\":1642:1761   */\n    tag_156:\n        /* \"#utility.yul\":1800:1801   */\n      0x00\n        /* \"#utility.yul\":1825:1878   */\n      tag_158\n        /* \"#utility.yul\":1870:1877   */\n      dup7\n        /* \"#utility.yul\":1861:1867   */\n      dup3\n        /* \"#utility.yul\":1850:1859   */\n      dup8\n        /* \"#utility.yul\":1846:1868   */\n      add\n        /* \"#utility.yul\":1825:1878   */\n      tag_97\n      jump\t// in\n    tag_158:\n        /* \"#utility.yul\":1815:1878   */\n      swap4\n      pop\n        /* \"#utility.yul\":1771:1888   */\n      pop\n        /* \"#utility.yul\":1927:1929   */\n      0x20\n        /* \"#utility.yul\":1953:2006   */\n      tag_159\n        /* \"#utility.yul\":1998:2005   */\n      dup7\n        /* \"#utility.yul\":1989:1995   */\n      dup3\n        /* \"#utility.yul\":1978:1987   */\n      dup8\n        /* \"#utility.yul\":1974:1996   */\n      add\n        /* \"#utility.yul\":1953:2006   */\n      tag_97\n      jump\t// in\n    tag_159:\n        /* \"#utility.yul\":1943:2006   */\n      swap3\n      pop\n        /* \"#utility.yul\":1898:2016   */\n      pop\n        /* \"#utility.yul\":2055:2057   */\n      0x40\n        /* \"#utility.yul\":2081:2134   */\n      tag_160\n        /* \"#utility.yul\":2126:2133   */\n      dup7\n        /* \"#utility.yul\":2117:2123   */\n      dup3\n        /* \"#utility.yul\":2106:2115   */\n      dup8\n        /* \"#utility.yul\":2102:2124   */\n      add\n        /* \"#utility.yul\":2081:2134   */\n      tag_100\n      jump\t// in\n    tag_160:\n        /* \"#utility.yul\":2071:2134   */\n      swap2\n      pop\n        /* \"#utility.yul\":2026:2144   */\n      pop\n        /* \"#utility.yul\":1532:2151   */\n      swap3\n      pop\n      swap3\n      pop\n      swap3\n      jump\t// out\n        /* \"#utility.yul\":2157:2275   */\n    tag_101:\n        /* \"#utility.yul\":2244:2268   */\n      tag_162\n        /* \"#utility.yul\":2262:2267   */\n      dup2\n        /* \"#utility.yul\":2244:2268   */\n      tag_95\n      jump\t// in\n    tag_162:\n        /* \"#utility.yul\":2239:2242   */\n      dup3\n        /* \"#utility.yul\":2232:2269   */\n      mstore\n        /* \"#utility.yul\":2157:2275   */\n      pop\n      pop\n      jump\t// out\n        /* \"#utility.yul\":2281:2503   */\n    tag_24:\n        /* \"#utility.yul\":2374:2378   */\n      0x00\n        /* \"#utility.yul\":2412:2414   */\n      0x20\n        /* \"#utility.yul\":2401:2410   */\n      dup3\n        /* \"#utility.yul\":2397:2415   */\n      add\n        /* \"#utility.yul\":2389:2415   */\n      swap1\n      pop\n        /* \"#utility.yul\":2425:2496   */\n      tag_164\n        /* \"#utility.yul\":2493:2494   */\n      0x00\n        /* \"#utility.yul\":2482:2491   */\n      dup4\n        /* \"#utility.yul\":2478:2495   */\n      add\n        /* \"#utility.yul\":2469:2475   */\n      dup5\n        /* \"#utility.yul\":2425:2496   */\n      tag_101\n      jump\t// in\n    tag_164:\n        /* \"#utility.yul\":2281:2503   */\n      swap3\n      swap2\n      pop\n      pop\n      jump\t// out\n        /* \"#utility.yul\":2509:2569   */\n    tag_102:\n        /* \"#utility.yul\":2537:2540   */\n      0x00\n        /* \"#utility.yul\":2558:2563   */\n      dup2\n        /* \"#utility.yul\":2551:2563   */\n      swap1\n      pop\n        /* \"#utility.yul\":2509:2569   */\n      swap2\n      swap1\n      pop\n      jump\t// out\n        /* \"#utility.yul\":2575:2717   */\n    tag_103:\n        /* \"#utility.yul\":2625:2634   */\n      0x00\n        /* \"#utility.yul\":2658:2711   */\n      tag_167\n        /* \"#utility.yul\":2676:2710   */\n      tag_168\n        /* \"#utility.yul\":2685:2709   */\n      tag_169\n        /* \"#utility.yul\":2703:2708   */\n      dup5\n        /* \"#utility.yul\":2685:2709   */\n      tag_94\n      jump\t// in\n    tag_169:\n        /* \"#utility.yul\":2676:2710   */\n      tag_102\n      jump\t// in\n    tag_168:\n        /* \"#utility.yul\":2658:2711   */\n      tag_94\n      jump\t// in\n    tag_167:\n        /* \"#utility.yul\":2645:2711   */\n      swap1\n      pop\n        /* \"#utility.yul\":2575:2717   */\n      swap2\n      swap1\n      pop\n      jump\t// out\n        /* \"#utility.yul\":2723:2849   */\n    tag_104:\n        /* \"#utility.yul\":2773:2782   */\n      0x00\n        /* \"#utility.yul\":2806:2843   */\n      tag_171\n        /* \"#utility.yul\":2837:2842   */\n      dup3\n        /* \"#utility.yul\":2806:2843   */\n      tag_103\n      jump\t// in\n    tag_171:\n        /* \"#utility.yul\":2793:2843   */\n      swap1\n      pop\n        /* \"#utility.yul\":2723:2849   */\n      swap2\n      swap1\n      pop\n      jump\t// out\n        /* \"#utility.yul\":2855:3002   */\n    tag_105:\n        /* \"#utility.yul\":2926:2935   */\n      0x00\n        /* \"#utility.yul\":2959:2996   */\n      tag_173\n        /* \"#utility.yul\":2990:2995   */\n      dup3\n        /* \"#utility.yul\":2959:2996   */\n      tag_104\n      jump\t// in\n    tag_173:\n        /* \"#utility.yul\":2946:2996   */\n      swap1\n      pop\n        /* \"#utility.yul\":2855:3002   */\n      swap2\n      swap1\n      pop\n      jump\t// out\n        /* \"#utility.yul\":3008:3181   */\n    tag_106:\n        /* \"#utility.yul\":3116:3174   */\n      tag_175\n        /* \"#utility.yul\":3168:3173   */\n      dup2\n        /* \"#utility.yul\":3116:3174   */\n      tag_105\n      jump\t// in\n    tag_175:\n        /* \"#utility.yul\":3111:3114   */\n      dup3\n        /* \"#utility.yul\":3104:3175   */\n      mstore\n        /* \"#utility.yul\":3008:3181   */\n      pop\n      pop\n      jump\t// out\n        /* \"#utility.yul\":3187:3451   */\n    tag_31:\n        /* \"#utility.yul\":3301:3305   */\n      0x00\n        /* \"#utility.yul\":3339:3341   */\n      0x20\n        /* \"#utility.yul\":3328:3337   */\n      dup3\n        /* \"#utility.yul\":3324:3342   */\n      add\n        /* \"#utility.yul\":3316:3342   */\n      swap1\n      pop\n        /* \"#utility.yul\":3352:3444   */\n      tag_177\n        /* \"#utility.yul\":3441:3442   */\n      0x00\n        /* \"#utility.yul\":3430:3439   */\n      dup4\n        /* \"#utility.yul\":3426:3443   */\n      add\n        /* \"#utility.yul\":3417:3423   */\n      dup5\n        /* \"#utility.yul\":3352:3444   */\n      tag_106\n      jump\t// in\n    tag_177:\n        /* \"#utility.yul\":3187:3451   */\n      swap3\n      swap2\n      pop\n      pop\n      jump\t// out\n        /* \"#utility.yul\":3457:3626   */\n    tag_107:\n        /* \"#utility.yul\":3541:3552   */\n      0x00\n        /* \"#utility.yul\":3575:3581   */\n      dup3\n        /* \"#utility.yul\":3570:3573   */\n      dup3\n        /* \"#utility.yul\":3563:3582   */\n      mstore\n        /* \"#utility.yul\":3615:3619   */\n      0x20\n        /* \"#utility.yul\":3610:3613   */\n      dup3\n        /* \"#utility.yul\":3606:3620   */\n      add\n        /* \"#utility.yul\":3591:3620   */\n      swap1\n      pop\n        /* \"#utility.yul\":3457:3626   */\n      swap3\n      swap2\n      pop\n      pop\n      jump\t// out\n        /* \"#utility.yul\":3632:3855   */\n    tag_108:\n        /* \"#utility.yul\":3772:3806   */\n      0x52657075746174696f6e3a204e6f7420616e20617574686f72697a6564206361\n        /* \"#utility.yul\":3768:3769   */\n      0x00\n        /* \"#utility.yul\":3760:3766   */\n      dup3\n        /* \"#utility.yul\":3756:3770   */\n      add\n        /* \"#utility.yul\":3749:3807   */\n      mstore\n        /* \"#utility.yul\":3841:3847   */\n      0x6c6c657200000000000000000000000000000000000000000000000000000000\n        /* \"#utility.yul\":3836:3838   */\n      0x20\n        /* \"#utility.yul\":3828:3834   */\n      dup3\n        /* \"#utility.yul\":3824:3839   */\n      add\n        /* \"#utility.yul\":3817:3848   */\n      mstore\n        /* \"#utility.yul\":3632:3855   */\n      pop\n      jump\t// out\n        /* \"#utility.yul\":3861:4227   */\n    tag_109:\n        /* \"#utility.yul\":4003:4006   */\n      0x00\n        /* \"#utility.yul\":4024:4091   */\n      tag_181\n        /* \"#utility.yul\":4088:4090   */\n      0x24\n        /* \"#utility.yul\":4083:4086   */\n      dup4\n        /* \"#utility.yul\":4024:4091   */\n      tag_107\n      jump\t// in\n    tag_181:\n        /* \"#utility.yul\":4017:4091   */\n      swap2\n      pop\n        /* \"#utility.yul\":4100:4193   */\n      tag_182\n        /* \"#utility.yul\":4189:4192   */\n      dup3\n        /* \"#utility.yul\":4100:4193   */\n      tag_108\n      jump\t// in\n    tag_182:\n        /* \"#utility.yul\":4218:4220   */\n      0x40\n        /* \"#utility.yul\":4213:4216   */\n      dup3\n        /* \"#utility.yul\":4209:4221   */\n      add\n        /* \"#utility.yul\":4202:4221   */\n      swap1\n      pop\n        /* \"#utility.yul\":3861:4227   */\n      swap2\n      swap1\n      pop\n      jump\t// out\n        /* \"#utility.yul\":4233:4652   */\n    tag_42:\n        /* \"#utility.yul\":4399:4403   */\n      0x00\n        /* \"#utility.yul\":4437:4439   */\n      0x20\n        /* \"#utility.yul\":4426:4435   */\n      dup3\n        /* \"#utility.yul\":4422:4440   */\n      add\n        /* \"#utility.yul\":4414:4440   */\n      swap1\n      pop\n        /* \"#utility.yul\":4486:4495   */\n      dup2\n        /* \"#utility.yul\":4480:4484   */\n      dup2\n        /* \"#utility.yul\":4476:4496   */\n      sub\n        /* \"#utility.yul\":4472:4473   */\n      0x00\n        /* \"#utility.yul\":4461:4470   */\n      dup4\n        /* \"#utility.yul\":4457:4474   */\n      add\n        /* \"#utility.yul\":4450:4497   */\n      mstore\n        /* \"#utility.yul\":4514:4645   */\n      tag_184\n        /* \"#utility.yul\":4640:4644   */\n      dup2\n        /* \"#utility.yul\":4514:4645   */\n      tag_109\n      jump\t// in\n    tag_184:\n        /* \"#utility.yul\":4506:4645   */\n      swap1\n      pop\n        /* \"#utility.yul\":4233:4652   */\n      swap2\n      swap1\n      pop\n      jump\t// out\n        /* \"#utility.yul\":4658:4886   */\n    tag_110:\n        /* \"#utility.yul\":4798:4832   */\n      0x52657075746174696f6e3a2053636f7265206d75737420626520626574776565\n        /* \"#utility.yul\":4794:4795   */\n      0x00\n        /* \"#utility.yul\":4786:4792   */\n      dup3\n        /* \"#utility.yul\":4782:4796   */\n      add\n        /* \"#utility.yul\":4775:4833   */\n      mstore\n        /* \"#utility.yul\":4867:4878   */\n      0x6e203120616e6420350000000000000000000000000000000000000000000000\n        /* \"#utility.yul\":4862:4864   */\n      0x20\n        /* \"#utility.yul\":4854:4860   */\n      dup3\n        /* \"#utility.yul\":4850:4865   */\n      add\n        /* \"#utility.yul\":4843:4879   */\n      mstore\n        /* \"#utility.yul\":4658:4886   */\n      pop\n      jump\t// out\n        /* \"#utility.yul\":4892:5258   */\n    tag_111:\n        /* \"#utility.yul\":5034:5037   */\n      0x00\n        /* \"#utility.yul\":5055:5122   */\n      tag_187\n        /* \"#utility.yul\":5119:5121   */\n      0x29\n        /* \"#utility.yul\":5114:5117   */\n      dup4\n        /* \"#utility.yul\":5055:5122   */\n      tag_107\n      jump\t// in\n    tag_187:\n        /* \"#utility.yul\":5048:5122   */\n      swap2\n      pop\n        /* \"#utility.yul\":5131:5224   */\n      tag_188\n        /* \"#utility.yul\":5220:5223   */\n      dup3\n        /* \"#utility.yul\":5131:5224   */\n      tag_110\n      jump\t// in\n    tag_188:\n        /* \"#utility.yul\":5249:5251   */\n      0x40\n        /* \"#utility.yul\":5244:5247   */\n      dup3\n        /* \"#utility.yul\":5240:5252   */\n      add\n        /* \"#utility.yul\":5233:5252   */\n      swap1\n      pop\n        /* \"#utility.yul\":4892:5258   */\n      swap2\n      swap1\n      pop\n      jump\t// out\n        /* \"#utility.yul\":5264:5683   */\n    tag_47:\n        /* \"#utility.yul\":5430:5434   */\n      0x00\n        /* \"#utility.yul\":5468:5470   */\n      0x20\n        /* \"#utility.yul\":5457:5466   */\n      dup3\n        /* \"#utility.yul\":5453:5471   */\n      add\n        /* \"#utility.yul\":5445:5471   */\n      swap1\n      pop\n        /* \"#utility.yul\":5517:5526   */\n      dup2\n        /* \"#utility.yul\":5511:5515   */\n      dup2\n        /* \"#utility.yul\":5507:5527   */\n      sub\n        /* \"#utility.yul\":5503:5504   */\n      0x00\n        /* \"#utility.yul\":5492:5501   */\n      dup4\n        /* \"#utility.yul\":5488:5505   */\n      add\n        /* \"#utility.yul\":5481:5528   */\n      mstore\n        /* \"#utility.yul\":5545:5676   */\n      tag_190\n        /* \"#utility.yul\":5671:5675   */\n      dup2\n        /* \"#utility.yul\":5545:5676   */\n      tag_111\n      jump\t// in\n    tag_190:\n        /* \"#utility.yul\":5537:5676   */\n      swap1\n      pop\n        /* \"#utility.yul\":5264:5683   */\n      swap2\n      swap1\n      pop\n      jump\t// out\n        /* \"#utility.yul\":5689:5806   */\n    tag_112:\n        /* \"#utility.yul\":5798:5799   */\n      0x00\n        /* \"#utility.yul\":5795:5796   */\n      0x00\n        /* \"#utility.yul\":5788:5800   */\n      revert\n        /* \"#utility.yul\":5812:5914   */\n    tag_113:\n        /* \"#utility.yul\":5853:5859   */\n      0x00\n        /* \"#utility.yul\":5904:5906   */\n      0x1f\n        /* \"#utility.yul\":5900:5907   */\n      not\n        /* \"#utility.yul\":5895:5897   */\n      0x1f\n        /* \"#utility.yul\":5888:5893   */\n      dup4\n        /* \"#utility.yul\":5884:5898   */\n      add\n        /* \"#utility.yul\":5880:5908   */\n      and\n        /* \"#utility.yul\":5870:5908   */\n      swap1\n      pop\n        /* \"#utility.yul\":5812:5914   */\n      swap2\n      swap1\n      pop\n      jump\t// out\n        /* \"#utility.yul\":5920:6100   */\n    tag_114:\n        /* \"#utility.yul\":5968:6045   */\n      0x4e487b7100000000000000000000000000000000000000000000000000000000\n        /* \"#utility.yul\":5965:5966   */\n      0x00\n        /* \"#utility.yul\":5958:6046   */\n      mstore\n        /* \"#utility.yul\":6065:6069   */\n      0x41\n        /* \"#utility.yul\":6062:6063   */\n      0x04\n        /* \"#utility.yul\":6055:6070   */\n      mstore\n        /* \"#utility.yul\":6089:6093   */\n      0x24\n        /* \"#utility.yul\":6086:6087   */\n      0x00\n        /* \"#utility.yul\":6079:6094   */\n      revert\n        /* \"#utility.yul\":6106:6387   */\n    tag_115:\n        /* \"#utility.yul\":6189:6216   */\n      tag_195\n        /* \"#utility.yul\":6211:6215   */\n      dup3\n        /* \"#utility.yul\":6189:6216   */\n      tag_113\n      jump\t// in\n    tag_195:\n        /* \"#utility.yul\":6181:6187   */\n      dup2\n        /* \"#utility.yul\":6177:6217   */\n      add\n        /* \"#utility.yul\":6319:6325   */\n      dup2\n        /* \"#utility.yul\":6307:6317   */\n      dup2\n        /* \"#utility.yul\":6304:6326   */\n      lt\n        /* \"#utility.yul\":6283:6301   */\n      0xffffffffffffffff\n        /* \"#utility.yul\":6271:6281   */\n      dup3\n        /* \"#utility.yul\":6268:6302   */\n      gt\n        /* \"#utility.yul\":6265:6327   */\n      or\n        /* \"#utility.yul\":6262:6350   */\n      iszero\n      tag_196\n      jumpi\n        /* \"#utility.yul\":6330:6348   */\n      tag_197\n      tag_114\n      jump\t// in\n    tag_197:\n        /* \"#utility.yul\":6262:6350   */\n    tag_196:\n        /* \"#utility.yul\":6370:6380   */\n      dup1\n        /* \"#utility.yul\":6366:6368   */\n      0x40\n        /* \"#utility.yul\":6359:6381   */\n      mstore\n        /* \"#utility.yul\":6149:6387   */\n      pop\n        /* \"#utility.yul\":6106:6387   */\n      pop\n      pop\n      jump\t// out\n        /* \"#utility.yul\":6393:6522   */\n    tag_116:\n        /* \"#utility.yul\":6427:6433   */\n      0x00\n        /* \"#utility.yul\":6454:6474   */\n      tag_199\n      tag_91\n      jump\t// in\n    tag_199:\n        /* \"#utility.yul\":6444:6474   */\n      swap1\n      pop\n        /* \"#utility.yul\":6483:6516   */\n      tag_200\n        /* \"#utility.yul\":6511:6515   */\n      dup3\n        /* \"#utility.yul\":6503:6509   */\n      dup3\n        /* \"#utility.yul\":6483:6516   */\n      tag_115\n      jump\t// in\n    tag_200:\n        /* \"#utility.yul\":6393:6522   */\n      swap2\n      swap1\n      pop\n      jump\t// out\n        /* \"#utility.yul\":6528:6645   */\n    tag_117:\n        /* \"#utility.yul\":6637:6638   */\n      0x00\n        /* \"#utility.yul\":6634:6635   */\n      0x00\n        /* \"#utility.yul\":6627:6639   */\n      revert\n        /* \"#utility.yul\":6651:6794   */\n    tag_118:\n        /* \"#utility.yul\":6708:6713   */\n      0x00\n        /* \"#utility.yul\":6739:6745   */\n      dup2\n        /* \"#utility.yul\":6733:6746   */\n      mload\n        /* \"#utility.yul\":6724:6746   */\n      swap1\n      pop\n        /* \"#utility.yul\":6755:6788   */\n      tag_203\n        /* \"#utility.yul\":6782:6787   */\n      dup2\n        /* \"#utility.yul\":6755:6788   */\n      tag_96\n      jump\t// in\n    tag_203:\n        /* \"#utility.yul\":6651:6794   */\n      swap3\n      swap2\n      pop\n      pop\n      jump\t// out\n        /* \"#utility.yul\":6800:6917   */\n    tag_119:\n        /* \"#utility.yul\":6909:6910   */\n      0x00\n        /* \"#utility.yul\":6906:6907   */\n      0x00\n        /* \"#utility.yul\":6899:6911   */\n      revert\n        /* \"#utility.yul\":6923:7040   */\n    tag_120:\n        /* \"#utility.yul\":7032:7033   */\n      0x00\n        /* \"#utility.yul\":7029:7030   */\n      0x00\n        /* \"#utility.yul\":7022:7034   */\n      revert\n        /* \"#utility.yul\":7046:7354   */\n    tag_121:\n        /* \"#utility.yul\":7108:7112   */\n      0x00\n        /* \"#utility.yul\":7198:7216   */\n      0xffffffffffffffff\n        /* \"#utility.yul\":7190:7196   */\n      dup3\n        /* \"#utility.yul\":7187:7217   */\n      gt\n        /* \"#utility.yul\":7184:7240   */\n      iszero\n      tag_207\n      jumpi\n        /* \"#utility.yul\":7220:7238   */\n      tag_208\n      tag_114\n      jump\t// in\n    tag_208:\n        /* \"#utility.yul\":7184:7240   */\n    tag_207:\n        /* \"#utility.yul\":7258:7287   */\n      tag_209\n        /* \"#utility.yul\":7280:7286   */\n      dup3\n        /* \"#utility.yul\":7258:7287   */\n      tag_113\n      jump\t// in\n    tag_209:\n        /* \"#utility.yul\":7250:7287   */\n      swap1\n      pop\n        /* \"#utility.yul\":7342:7346   */\n      0x20\n        /* \"#utility.yul\":7336:7340   */\n      dup2\n        /* \"#utility.yul\":7332:7347   */\n      add\n        /* \"#utility.yul\":7324:7347   */\n      swap1\n      pop\n        /* \"#utility.yul\":7046:7354   */\n      swap2\n      swap1\n      pop\n      jump\t// out\n        /* \"#utility.yul\":7360:7499   */\n    tag_122:\n        /* \"#utility.yul\":7449:7455   */\n      dup3\n        /* \"#utility.yul\":7444:7447   */\n      dup2\n        /* \"#utility.yul\":7439:7442   */\n      dup4\n        /* \"#utility.yul\":7433:7456   */\n      mcopy\n        /* \"#utility.yul\":7490:7491   */\n      0x00\n        /* \"#utility.yul\":7481:7487   */\n      dup4\n        /* \"#utility.yul\":7476:7479   */\n      dup4\n        /* \"#utility.yul\":7472:7488   */\n      add\n        /* \"#utility.yul\":7465:7492   */\n      mstore\n        /* \"#utility.yul\":7360:7499   */\n      pop\n      pop\n      pop\n      jump\t// out\n        /* \"#utility.yul\":7505:7939   */\n    tag_123:\n        /* \"#utility.yul\":7594:7599   */\n      0x00\n        /* \"#utility.yul\":7619:7685   */\n      tag_212\n        /* \"#utility.yul\":7635:7684   */\n      tag_213\n        /* \"#utility.yul\":7677:7683   */\n      dup5\n        /* \"#utility.yul\":7635:7684   */\n      tag_121\n      jump\t// in\n    tag_213:\n        /* \"#utility.yul\":7619:7685   */\n      tag_116\n      jump\t// in\n    tag_212:\n        /* \"#utility.yul\":7610:7685   */\n      swap1\n      pop\n        /* \"#utility.yul\":7708:7714   */\n      dup3\n        /* \"#utility.yul\":7701:7706   */\n      dup2\n        /* \"#utility.yul\":7694:7715   */\n      mstore\n        /* \"#utility.yul\":7746:7750   */\n      0x20\n        /* \"#utility.yul\":7739:7744   */\n      dup2\n        /* \"#utility.yul\":7735:7751   */\n      add\n        /* \"#utility.yul\":7784:7787   */\n      dup5\n        /* \"#utility.yul\":7775:7781   */\n      dup5\n        /* \"#utility.yul\":7770:7773   */\n      dup5\n        /* \"#utility.yul\":7766:7782   */\n      add\n        /* \"#utility.yul\":7763:7788   */\n      gt\n        /* \"#utility.yul\":7760:7872   */\n      iszero\n      tag_214\n      jumpi\n        /* \"#utility.yul\":7791:7870   */\n      tag_215\n      tag_120\n      jump\t// in\n    tag_215:\n        /* \"#utility.yul\":7760:7872   */\n    tag_214:\n        /* \"#utility.yul\":7881:7933   */\n      tag_216\n        /* \"#utility.yul\":7926:7932   */\n      dup5\n        /* \"#utility.yul\":7921:7924   */\n      dup3\n        /* \"#utility.yul\":7916:7919   */\n      dup6\n        /* \"#utility.yul\":7881:7933   */\n      tag_122\n      jump\t// in\n    tag_216:\n        /* \"#utility.yul\":7600:7939   */\n      pop\n        /* \"#utility.yul\":7505:7939   */\n      swap4\n      swap3\n      pop\n      pop\n      pop\n      jump\t// out\n        /* \"#utility.yul\":7959:8314   */\n    tag_124:\n        /* \"#utility.yul\":8026:8031   */\n      0x00\n        /* \"#utility.yul\":8075:8078   */\n      dup3\n        /* \"#utility.yul\":8068:8072   */\n      0x1f\n        /* \"#utility.yul\":8060:8066   */\n      dup4\n        /* \"#utility.yul\":8056:8073   */\n      add\n        /* \"#utility.yul\":8052:8079   */\n      slt\n        /* \"#utility.yul\":8042:8164   */\n      tag_218\n      jumpi\n        /* \"#utility.yul\":8083:8162   */\n      tag_219\n      tag_119\n      jump\t// in\n    tag_219:\n        /* \"#utility.yul\":8042:8164   */\n    tag_218:\n        /* \"#utility.yul\":8193:8199   */\n      dup2\n        /* \"#utility.yul\":8187:8200   */\n      mload\n        /* \"#utility.yul\":8218:8308   */\n      tag_220\n        /* \"#utility.yul\":8304:8307   */\n      dup5\n        /* \"#utility.yul\":8296:8302   */\n      dup3\n        /* \"#utility.yul\":8289:8293   */\n      0x20\n        /* \"#utility.yul\":8281:8287   */\n      dup7\n        /* \"#utility.yul\":8277:8294   */\n      add\n        /* \"#utility.yul\":8218:8308   */\n      tag_123\n      jump\t// in\n    tag_220:\n        /* \"#utility.yul\":8209:8308   */\n      swap2\n      pop\n        /* \"#utility.yul\":8032:8314   */\n      pop\n        /* \"#utility.yul\":7959:8314   */\n      swap3\n      swap2\n      pop\n      pop\n      jump\t// out\n        /* \"#utility.yul\":8320:8627   */\n    tag_125:\n        /* \"#utility.yul\":8381:8385   */\n      0x00\n        /* \"#utility.yul\":8471:8489   */\n      0xffffffffffffffff\n        /* \"#utility.yul\":8463:8469   */\n      dup3\n        /* \"#utility.yul\":8460:8490   */\n      gt\n        /* \"#utility.yul\":8457:8513   */\n      iszero\n      tag_222\n      jumpi\n        /* \"#utility.yul\":8493:8511   */\n      tag_223\n      tag_114\n      jump\t// in\n    tag_223:\n        /* \"#utility.yul\":8457:8513   */\n    tag_222:\n        /* \"#utility.yul\":8531:8560   */\n      tag_224\n        /* \"#utility.yul\":8553:8559   */\n      dup3\n        /* \"#utility.yul\":8531:8560   */\n      tag_113\n      jump\t// in\n    tag_224:\n        /* \"#utility.yul\":8523:8560   */\n      swap1\n      pop\n        /* \"#utility.yul\":8615:8619   */\n      0x20\n        /* \"#utility.yul\":8609:8613   */\n      dup2\n        /* \"#utility.yul\":8605:8620   */\n      add\n        /* \"#utility.yul\":8597:8620   */\n      swap1\n      pop\n        /* \"#utility.yul\":8320:8627   */\n      swap2\n      swap1\n      pop\n      jump\t// out\n        /* \"#utility.yul\":8633:9065   */\n    tag_126:\n        /* \"#utility.yul\":8721:8726   */\n      0x00\n        /* \"#utility.yul\":8746:8811   */\n      tag_226\n        /* \"#utility.yul\":8762:8810   */\n      tag_227\n        /* \"#utility.yul\":8803:8809   */\n      dup5\n        /* \"#utility.yul\":8762:8810   */\n      tag_125\n      jump\t// in\n    tag_227:\n        /* \"#utility.yul\":8746:8811   */\n      tag_116\n      jump\t// in\n    tag_226:\n        /* \"#utility.yul\":8737:8811   */\n      swap1\n      pop\n        /* \"#utility.yul\":8834:8840   */\n      dup3\n        /* \"#utility.yul\":8827:8832   */\n      dup2\n        /* \"#utility.yul\":8820:8841   */\n      mstore\n        /* \"#utility.yul\":8872:8876   */\n      0x20\n        /* \"#utility.yul\":8865:8870   */\n      dup2\n        /* \"#utility.yul\":8861:8877   */\n      add\n        /* \"#utility.yul\":8910:8913   */\n      dup5\n        /* \"#utility.yul\":8901:8907   */\n      dup5\n        /* \"#utility.yul\":8896:8899   */\n      dup5\n        /* \"#utility.yul\":8892:8908   */\n      add\n        /* \"#utility.yul\":8889:8914   */\n      gt\n        /* \"#utility.yul\":8886:8998   */\n      iszero\n      tag_228\n      jumpi\n        /* \"#utility.yul\":8917:8996   */\n      tag_229\n      tag_120\n      jump\t// in\n    tag_229:\n        /* \"#utility.yul\":8886:8998   */\n    tag_228:\n        /* \"#utility.yul\":9007:9059   */\n      tag_230\n        /* \"#utility.yul\":9052:9058   */\n      dup5\n        /* \"#utility.yul\":9047:9050   */\n      dup3\n        /* \"#utility.yul\":9042:9045   */\n      dup6\n        /* \"#utility.yul\":9007:9059   */\n      tag_122\n      jump\t// in\n    tag_230:\n        /* \"#utility.yul\":8727:9065   */\n      pop\n        /* \"#utility.yul\":8633:9065   */\n      swap4\n      swap3\n      pop\n      pop\n      pop\n      jump\t// out\n        /* \"#utility.yul\":9084:9437   */\n    tag_127:\n        /* \"#utility.yul\":9150:9155   */\n      0x00\n        /* \"#utility.yul\":9199:9202   */\n      dup3\n        /* \"#utility.yul\":9192:9196   */\n      0x1f\n        /* \"#utility.yul\":9184:9190   */\n      dup4\n        /* \"#utility.yul\":9180:9197   */\n      add\n        /* \"#utility.yul\":9176:9203   */\n      slt\n        /* \"#utility.yul\":9166:9288   */\n      tag_232\n      jumpi\n        /* \"#utility.yul\":9207:9286   */\n      tag_233\n      tag_119\n      jump\t// in\n    tag_233:\n        /* \"#utility.yul\":9166:9288   */\n    tag_232:\n        /* \"#utility.yul\":9317:9323   */\n      dup2\n        /* \"#utility.yul\":9311:9324   */\n      mload\n        /* \"#utility.yul\":9342:9431   */\n      tag_234\n        /* \"#utility.yul\":9427:9430   */\n      dup5\n        /* \"#utility.yul\":9419:9425   */\n      dup3\n        /* \"#utility.yul\":9412:9416   */\n      0x20\n        /* \"#utility.yul\":9404:9410   */\n      dup7\n        /* \"#utility.yul\":9400:9417   */\n      add\n        /* \"#utility.yul\":9342:9431   */\n      tag_126\n      jump\t// in\n    tag_234:\n        /* \"#utility.yul\":9333:9431   */\n      swap2\n      pop\n        /* \"#utility.yul\":9156:9437   */\n      pop\n        /* \"#utility.yul\":9084:9437   */\n      swap3\n      swap2\n      pop\n      pop\n      jump\t// out\n        /* \"#utility.yul\":9443:9586   */\n    tag_128:\n        /* \"#utility.yul\":9500:9505   */\n      0x00\n        /* \"#utility.yul\":9531:9537   */\n      dup2\n        /* \"#utility.yul\":9525:9538   */\n      mload\n        /* \"#utility.yul\":9516:9538   */\n      swap1\n      pop\n        /* \"#utility.yul\":9547:9580   */\n      tag_236\n        /* \"#utility.yul\":9574:9579   */\n      dup2\n        /* \"#utility.yul\":9547:9580   */\n      tag_99\n      jump\t// in\n    tag_236:\n        /* \"#utility.yul\":9443:9586   */\n      swap3\n      swap2\n      pop\n      pop\n      jump\t// out\n        /* \"#utility.yul\":9632:11470   */\n    tag_129:\n        /* \"#utility.yul\":9720:9725   */\n      0x00\n        /* \"#utility.yul\":9764:9768   */\n      0xc0\n        /* \"#utility.yul\":9752:9761   */\n      dup3\n        /* \"#utility.yul\":9747:9750   */\n      dup5\n        /* \"#utility.yul\":9743:9762   */\n      sub\n        /* \"#utility.yul\":9739:9769   */\n      slt\n        /* \"#utility.yul\":9736:9853   */\n      iszero\n      tag_238\n      jumpi\n        /* \"#utility.yul\":9772:9851   */\n      tag_239\n      tag_112\n      jump\t// in\n    tag_239:\n        /* \"#utility.yul\":9736:9853   */\n    tag_238:\n        /* \"#utility.yul\":9871:9892   */\n      tag_240\n        /* \"#utility.yul\":9887:9891   */\n      0xc0\n        /* \"#utility.yul\":9871:9892   */\n      tag_116\n      jump\t// in\n    tag_240:\n        /* \"#utility.yul\":9862:9892   */\n      swap1\n      pop\n        /* \"#utility.yul\":9958:9959   */\n      0x00\n        /* \"#utility.yul\":9998:10058   */\n      tag_241\n        /* \"#utility.yul\":10054:10057   */\n      dup5\n        /* \"#utility.yul\":10045:10051   */\n      dup3\n        /* \"#utility.yul\":10034:10043   */\n      dup6\n        /* \"#utility.yul\":10030:10052   */\n      add\n        /* \"#utility.yul\":9998:10058   */\n      tag_118\n      jump\t// in\n    tag_241:\n        /* \"#utility.yul\":9991:9995   */\n      0x00\n        /* \"#utility.yul\":9984:9989   */\n      dup4\n        /* \"#utility.yul\":9980:9996   */\n      add\n        /* \"#utility.yul\":9973:10059   */\n      mstore\n        /* \"#utility.yul\":9902:10070   */\n      pop\n        /* \"#utility.yul\":10154:10156   */\n      0x20\n        /* \"#utility.yul\":10143:10152   */\n      dup3\n        /* \"#utility.yul\":10139:10157   */\n      add\n        /* \"#utility.yul\":10133:10158   */\n      mload\n        /* \"#utility.yul\":10185:10203   */\n      0xffffffffffffffff\n        /* \"#utility.yul\":10177:10183   */\n      dup2\n        /* \"#utility.yul\":10174:10204   */\n      gt\n        /* \"#utility.yul\":10171:10288   */\n      iszero\n      tag_242\n      jumpi\n        /* \"#utility.yul\":10207:10286   */\n      tag_243\n      tag_117\n      jump\t// in\n    tag_243:\n        /* \"#utility.yul\":10171:10288   */\n    tag_242:\n        /* \"#utility.yul\":10327:10397   */\n      tag_244\n        /* \"#utility.yul\":10393:10396   */\n      dup5\n        /* \"#utility.yul\":10384:10390   */\n      dup3\n        /* \"#utility.yul\":10373:10382   */\n      dup6\n        /* \"#utility.yul\":10369:10391   */\n      add\n        /* \"#utility.yul\":10327:10397   */\n      tag_124\n      jump\t// in\n    tag_244:\n        /* \"#utility.yul\":10320:10324   */\n      0x20\n        /* \"#utility.yul\":10313:10318   */\n      dup4\n        /* \"#utility.yul\":10309:10325   */\n      add\n        /* \"#utility.yul\":10302:10398   */\n      mstore\n        /* \"#utility.yul\":10080:10409   */\n      pop\n        /* \"#utility.yul\":10491:10493   */\n      0x40\n        /* \"#utility.yul\":10480:10489   */\n      dup3\n        /* \"#utility.yul\":10476:10494   */\n      add\n        /* \"#utility.yul\":10470:10495   */\n      mload\n        /* \"#utility.yul\":10522:10540   */\n      0xffffffffffffffff\n        /* \"#utility.yul\":10514:10520   */\n      dup2\n        /* \"#utility.yul\":10511:10541   */\n      gt\n        /* \"#utility.yul\":10508:10625   */\n      iszero\n      tag_245\n      jumpi\n        /* \"#utility.yul\":10544:10623   */\n      tag_246\n      tag_117\n      jump\t// in\n    tag_246:\n        /* \"#utility.yul\":10508:10625   */\n    tag_245:\n        /* \"#utility.yul\":10664:10734   */\n      tag_247\n        /* \"#utility.yul\":10730:10733   */\n      dup5\n        /* \"#utility.yul\":10721:10727   */\n      dup3\n        /* \"#utility.yul\":10710:10719   */\n      dup6\n        /* \"#utility.yul\":10706:10728   */\n      add\n        /* \"#utility.yul\":10664:10734   */\n      tag_124\n      jump\t// in\n    tag_247:\n        /* \"#utility.yul\":10657:10661   */\n      0x40\n        /* \"#utility.yul\":10650:10655   */\n      dup4\n        /* \"#utility.yul\":10646:10662   */\n      add\n        /* \"#utility.yul\":10639:10735   */\n      mstore\n        /* \"#utility.yul\":10419:10746   */\n      pop\n        /* \"#utility.yul\":10839:10841   */\n      0x60\n        /* \"#utility.yul\":10828:10837   */\n      dup3\n        /* \"#utility.yul\":10824:10842   */\n      add\n        /* \"#utility.yul\":10818:10843   */\n      mload\n        /* \"#utility.yul\":10870:10888   */\n      0xffffffffffffffff\n        /* \"#utility.yul\":10862:10868   */\n      dup2\n        /* \"#utility.yul\":10859:10889   */\n      gt\n        /* \"#utility.yul\":10856:10973   */\n      iszero\n      tag_248\n      jumpi\n        /* \"#utility.yul\":10892:10971   */\n      tag_249\n      tag_117\n      jump\t// in\n    tag_249:\n        /* \"#utility.yul\":10856:10973   */\n    tag_248:\n        /* \"#utility.yul\":11012:11081   */\n      tag_250\n        /* \"#utility.yul\":11077:11080   */\n      dup5\n        /* \"#utility.yul\":11068:11074   */\n      dup3\n        /* \"#utility.yul\":11057:11066   */\n      dup6\n        /* \"#utility.yul\":11053:11075   */\n      add\n        /* \"#utility.yul\":11012:11081   */\n      tag_127\n      jump\t// in\n    tag_250:\n        /* \"#utility.yul\":11005:11009   */\n      0x60\n        /* \"#utility.yul\":10998:11003   */\n      dup4\n        /* \"#utility.yul\":10994:11010   */\n      add\n        /* \"#utility.yul\":10987:11082   */\n      mstore\n        /* \"#utility.yul\":10756:11093   */\n      pop\n        /* \"#utility.yul\":11163:11166   */\n      0x80\n        /* \"#utility.yul\":11205:11265   */\n      tag_251\n        /* \"#utility.yul\":11261:11264   */\n      dup5\n        /* \"#utility.yul\":11252:11258   */\n      dup3\n        /* \"#utility.yul\":11241:11250   */\n      dup6\n        /* \"#utility.yul\":11237:11259   */\n      add\n        /* \"#utility.yul\":11205:11265   */\n      tag_128\n      jump\t// in\n    tag_251:\n        /* \"#utility.yul\":11198:11202   */\n      0x80\n        /* \"#utility.yul\":11191:11196   */\n      dup4\n        /* \"#utility.yul\":11187:11203   */\n      add\n        /* \"#utility.yul\":11180:11266   */\n      mstore\n        /* \"#utility.yul\":11103:11277   */\n      pop\n        /* \"#utility.yul\":11349:11352   */\n      0xa0\n        /* \"#utility.yul\":11391:11451   */\n      tag_252\n        /* \"#utility.yul\":11447:11450   */\n      dup5\n        /* \"#utility.yul\":11438:11444   */\n      dup3\n        /* \"#utility.yul\":11427:11436   */\n      dup6\n        /* \"#utility.yul\":11423:11445   */\n      add\n        /* \"#utility.yul\":11391:11451   */\n      tag_128\n      jump\t// in\n    tag_252:\n        /* \"#utility.yul\":11384:11388   */\n      0xa0\n        /* \"#utility.yul\":11377:11382   */\n      dup4\n        /* \"#utility.yul\":11373:11389   */\n      add\n        /* \"#utility.yul\":11366:11452   */\n      mstore\n        /* \"#utility.yul\":11287:11463   */\n      pop\n        /* \"#utility.yul\":9632:11470   */\n      swap3\n      swap2\n      pop\n      pop\n      jump\t// out\n        /* \"#utility.yul\":11476:12036   */\n    tag_52:\n        /* \"#utility.yul\":11574:11580   */\n      0x00\n        /* \"#utility.yul\":11623:11625   */\n      0x20\n        /* \"#utility.yul\":11611:11620   */\n      dup3\n        /* \"#utility.yul\":11602:11609   */\n      dup5\n        /* \"#utility.yul\":11598:11621   */\n      sub\n        /* \"#utility.yul\":11594:11626   */\n      slt\n        /* \"#utility.yul\":11591:11710   */\n      iszero\n      tag_254\n      jumpi\n        /* \"#utility.yul\":11629:11708   */\n      tag_255\n      tag_92\n      jump\t// in\n    tag_255:\n        /* \"#utility.yul\":11591:11710   */\n    tag_254:\n        /* \"#utility.yul\":11770:11771   */\n      0x00\n        /* \"#utility.yul\":11759:11768   */\n      dup3\n        /* \"#utility.yul\":11755:11772   */\n      add\n        /* \"#utility.yul\":11749:11773   */\n      mload\n        /* \"#utility.yul\":11800:11818   */\n      0xffffffffffffffff\n        /* \"#utility.yul\":11792:11798   */\n      dup2\n        /* \"#utility.yul\":11789:11819   */\n      gt\n        /* \"#utility.yul\":11786:11903   */\n      iszero\n      tag_256\n      jumpi\n        /* \"#utility.yul\":11822:11901   */\n      tag_257\n      tag_93\n      jump\t// in\n    tag_257:\n        /* \"#utility.yul\":11786:11903   */\n    tag_256:\n        /* \"#utility.yul\":11927:12019   */\n      tag_258\n        /* \"#utility.yul\":12011:12018   */\n      dup5\n        /* \"#utility.yul\":12002:12008   */\n      dup3\n        /* \"#utility.yul\":11991:12000   */\n      dup6\n        /* \"#utility.yul\":11987:12009   */\n      add\n        /* \"#utility.yul\":11927:12019   */\n      tag_129\n      jump\t// in\n    tag_258:\n        /* \"#utility.yul\":11917:12019   */\n      swap2\n      pop\n        /* \"#utility.yul\":11720:12029   */\n      pop\n        /* \"#utility.yul\":11476:12036   */\n      swap3\n      swap2\n      pop\n      pop\n      jump\t// out\n        /* \"#utility.yul\":12042:12222   */\n    tag_130:\n        /* \"#utility.yul\":12090:12167   */\n      0x4e487b7100000000000000000000000000000000000000000000000000000000\n        /* \"#utility.yul\":12087:12088   */\n      0x00\n        /* \"#utility.yul\":12080:12168   */\n      mstore\n        /* \"#utility.yul\":12187:12191   */\n      0x11\n        /* \"#utility.yul\":12184:12185   */\n      0x04\n        /* \"#utility.yul\":12177:12192   */\n      mstore\n        /* \"#utility.yul\":12211:12215   */\n      0x24\n        /* \"#utility.yul\":12208:12209   */\n      0x00\n        /* \"#utility.yul\":12201:12216   */\n      revert\n        /* \"#utility.yul\":12228:12638   */\n    tag_54:\n        /* \"#utility.yul\":12268:12275   */\n      0x00\n        /* \"#utility.yul\":12291:12311   */\n      tag_261\n        /* \"#utility.yul\":12309:12310   */\n      dup3\n        /* \"#utility.yul\":12291:12311   */\n      tag_98\n      jump\t// in\n    tag_261:\n        /* \"#utility.yul\":12286:12311   */\n      swap2\n      pop\n        /* \"#utility.yul\":12325:12345   */\n      tag_262\n        /* \"#utility.yul\":12343:12344   */\n      dup4\n        /* \"#utility.yul\":12325:12345   */\n      tag_98\n      jump\t// in\n    tag_262:\n        /* \"#utility.yul\":12320:12345   */\n      swap3\n      pop\n        /* \"#utility.yul\":12380:12381   */\n      dup3\n        /* \"#utility.yul\":12377:12378   */\n      dup3\n        /* \"#utility.yul\":12373:12382   */\n      mul\n        /* \"#utility.yul\":12402:12432   */\n      tag_263\n        /* \"#utility.yul\":12420:12431   */\n      dup2\n        /* \"#utility.yul\":12402:12432   */\n      tag_98\n      jump\t// in\n    tag_263:\n        /* \"#utility.yul\":12391:12432   */\n      swap2\n      pop\n        /* \"#utility.yul\":12581:12582   */\n      dup3\n        /* \"#utility.yul\":12572:12579   */\n      dup3\n        /* \"#utility.yul\":12568:12583   */\n      div\n        /* \"#utility.yul\":12565:12566   */\n      dup5\n        /* \"#utility.yul\":12562:12584   */\n      eq\n        /* \"#utility.yul\":12542:12543   */\n      dup4\n        /* \"#utility.yul\":12535:12544   */\n      iszero\n        /* \"#utility.yul\":12515:12598   */\n      or\n        /* \"#utility.yul\":12492:12631   */\n      tag_264\n      jumpi\n        /* \"#utility.yul\":12611:12629   */\n      tag_265\n      tag_130\n      jump\t// in\n    tag_265:\n        /* \"#utility.yul\":12492:12631   */\n    tag_264:\n        /* \"#utility.yul\":12276:12638   */\n      pop\n        /* \"#utility.yul\":12228:12638   */\n      swap3\n      swap2\n      pop\n      pop\n      jump\t// out\n        /* \"#utility.yul\":12644:12835   */\n    tag_58:\n        /* \"#utility.yul\":12684:12687   */\n      0x00\n        /* \"#utility.yul\":12703:12723   */\n      tag_267\n        /* \"#utility.yul\":12721:12722   */\n      dup3\n        /* \"#utility.yul\":12703:12723   */\n      tag_98\n      jump\t// in\n    tag_267:\n        /* \"#utility.yul\":12698:12723   */\n      swap2\n      pop\n        /* \"#utility.yul\":12737:12757   */\n      tag_268\n        /* \"#utility.yul\":12755:12756   */\n      dup4\n        /* \"#utility.yul\":12737:12757   */\n      tag_98\n      jump\t// in\n    tag_268:\n        /* \"#utility.yul\":12732:12757   */\n      swap3\n      pop\n        /* \"#utility.yul\":12780:12781   */\n      dup3\n        /* \"#utility.yul\":12777:12778   */\n      dup3\n        /* \"#utility.yul\":12773:12782   */\n      add\n        /* \"#utility.yul\":12766:12782   */\n      swap1\n      pop\n        /* \"#utility.yul\":12801:12804   */\n      dup1\n        /* \"#utility.yul\":12798:12799   */\n      dup3\n        /* \"#utility.yul\":12795:12805   */\n      gt\n        /* \"#utility.yul\":12792:12828   */\n      iszero\n      tag_269\n      jumpi\n        /* \"#utility.yul\":12808:12826   */\n      tag_270\n      tag_130\n      jump\t// in\n    tag_270:\n        /* \"#utility.yul\":12792:12828   */\n    tag_269:\n        /* \"#utility.yul\":12644:12835   */\n      swap3\n      swap2\n      pop\n      pop\n      jump\t// out\n        /* \"#utility.yul\":12841:13021   */\n    tag_131:\n        /* \"#utility.yul\":12889:12966   */\n      0x4e487b7100000000000000000000000000000000000000000000000000000000\n        /* \"#utility.yul\":12886:12887   */\n      0x00\n        /* \"#utility.yul\":12879:12967   */\n      mstore\n        /* \"#utility.yul\":12986:12990   */\n      0x12\n        /* \"#utility.yul\":12983:12984   */\n      0x04\n        /* \"#utility.yul\":12976:12991   */\n      mstore\n        /* \"#utility.yul\":13010:13014   */\n      0x24\n        /* \"#utility.yul\":13007:13008   */\n      0x00\n        /* \"#utility.yul\":13000:13015   */\n      revert\n        /* \"#utility.yul\":13027:13212   */\n    tag_62:\n        /* \"#utility.yul\":13067:13068   */\n      0x00\n        /* \"#utility.yul\":13084:13104   */\n      tag_273\n        /* \"#utility.yul\":13102:13103   */\n      dup3\n        /* \"#utility.yul\":13084:13104   */\n      tag_98\n      jump\t// in\n    tag_273:\n        /* \"#utility.yul\":13079:13104   */\n      swap2\n      pop\n        /* \"#utility.yul\":13118:13138   */\n      tag_274\n        /* \"#utility.yul\":13136:13137   */\n      dup4\n        /* \"#utility.yul\":13118:13138   */\n      tag_98\n      jump\t// in\n    tag_274:\n        /* \"#utility.yul\":13113:13138   */\n      swap3\n      pop\n        /* \"#utility.yul\":13157:13158   */\n      dup3\n        /* \"#utility.yul\":13147:13182   */\n      tag_275\n      jumpi\n        /* \"#utility.yul\":13162:13180   */\n      tag_276\n      tag_131\n      jump\t// in\n    tag_276:\n        /* \"#utility.yul\":13147:13182   */\n    tag_275:\n        /* \"#utility.yul\":13204:13205   */\n      dup3\n        /* \"#utility.yul\":13201:13202   */\n      dup3\n        /* \"#utility.yul\":13197:13206   */\n      div\n        /* \"#utility.yul\":13192:13206   */\n      swap1\n      pop\n        /* \"#utility.yul\":13027:13212   */\n      swap3\n      swap2\n      pop\n      pop\n      jump\t// out\n        /* \"#utility.yul\":13218:13336   */\n    tag_132:\n        /* \"#utility.yul\":13305:13329   */\n      tag_278\n        /* \"#utility.yul\":13323:13328   */\n      dup2\n        /* \"#utility.yul\":13305:13329   */\n      tag_98\n      jump\t// in\n    tag_278:\n        /* \"#utility.yul\":13300:13303   */\n      dup3\n        /* \"#utility.yul\":13293:13330   */\n      mstore\n        /* \"#utility.yul\":13218:13336   */\n      pop\n      pop\n      jump\t// out\n        /* \"#utility.yul\":13342:13674   */\n    tag_64:\n        /* \"#utility.yul\":13463:13467   */\n      0x00\n        /* \"#utility.yul\":13501:13503   */\n      0x40\n        /* \"#utility.yul\":13490:13499   */\n      dup3\n        /* \"#utility.yul\":13486:13504   */\n      add\n        /* \"#utility.yul\":13478:13504   */\n      swap1\n      pop\n        /* \"#utility.yul\":13514:13585   */\n      tag_280\n        /* \"#utility.yul\":13582:13583   */\n      0x00\n        /* \"#utility.yul\":13571:13580   */\n      dup4\n        /* \"#utility.yul\":13567:13584   */\n      add\n        /* \"#utility.yul\":13558:13564   */\n      dup6\n        /* \"#utility.yul\":13514:13585   */\n      tag_101\n      jump\t// in\n    tag_280:\n        /* \"#utility.yul\":13595:13667   */\n      tag_281\n        /* \"#utility.yul\":13663:13665   */\n      0x20\n        /* \"#utility.yul\":13652:13661   */\n      dup4\n        /* \"#utility.yul\":13648:13666   */\n      add\n        /* \"#utility.yul\":13639:13645   */\n      dup5\n        /* \"#utility.yul\":13595:13667   */\n      tag_132\n      jump\t// in\n    tag_281:\n        /* \"#utility.yul\":13342:13674   */\n      swap4\n      swap3\n      pop\n      pop\n      pop\n      jump\t// out\n        /* \"#utility.yul\":13680:13902   */\n    tag_69:\n        /* \"#utility.yul\":13773:13777   */\n      0x00\n        /* \"#utility.yul\":13811:13813   */\n      0x20\n        /* \"#utility.yul\":13800:13809   */\n      dup3\n        /* \"#utility.yul\":13796:13814   */\n      add\n        /* \"#utility.yul\":13788:13814   */\n      swap1\n      pop\n        /* \"#utility.yul\":13824:13895   */\n      tag_283\n        /* \"#utility.yul\":13892:13893   */\n      0x00\n        /* \"#utility.yul\":13881:13890   */\n      dup4\n        /* \"#utility.yul\":13877:13894   */\n      add\n        /* \"#utility.yul\":13868:13874   */\n      dup5\n        /* \"#utility.yul\":13824:13895   */\n      tag_132\n      jump\t// in\n    tag_283:\n        /* \"#utility.yul\":13680:13902   */\n      swap3\n      swap2\n      pop\n      pop\n      jump\t// out\n\n    auxdata: 0xa264697066735822122039297933438c83bc8f9ece6ce849ae1116bb45501ac8138b0048ccbbcf246fd564736f6c634300081e0033\n}\n",
				"bytecode": {
					"linkReferences": {},
					"object": "60a060405234801561000f575f5ffd5b5060405161112d38038061112d8339818101604052810190610031919061020c565b815f73ffffffffffffffffffffffffffffffffffffffff168173ffffffffffffffffffffffffffffffffffffffff16036100a2575f6040517f1e4fbdf70000000000000000000000000000000000000000000000000000000081526004016100999190610259565b60405180910390fd5b6100b1816100ed60201b60201c565b508073ffffffffffffffffffffffffffffffffffffffff1660808173ffffffffffffffffffffffffffffffffffffffff16815250505050610272565b5f5f5f9054906101000a900473ffffffffffffffffffffffffffffffffffffffff169050815f5f6101000a81548173ffffffffffffffffffffffffffffffffffffffff021916908373ffffffffffffffffffffffffffffffffffffffff1602179055508173ffffffffffffffffffffffffffffffffffffffff168173ffffffffffffffffffffffffffffffffffffffff167f8be0079c531659141344cd1fd0a4f28419497f9722a3daafe3b4186f6b6457e060405160405180910390a35050565b5f5ffd5b5f73ffffffffffffffffffffffffffffffffffffffff82169050919050565b5f6101db826101b2565b9050919050565b6101eb816101d1565b81146101f5575f5ffd5b50565b5f81519050610206816101e2565b92915050565b5f5f60408385031215610222576102216101ae565b5b5f61022f858286016101f8565b9250506020610240858286016101f8565b9150509250929050565b610253816101d1565b82525050565b5f60208201905061026c5f83018461024a565b92915050565b608051610e956102985f395f81816102a8015281816103a601526104fa0152610e955ff3fe608060405234801561000f575f5ffd5b506004361061007b575f3560e01c80638da5cb5b116100595780638da5cb5b146100c1578063b0087cfa146100df578063e6007bed146100fd578063f2fde38b1461011b5761007b565b80630139746c1461007f5780635435029a1461009b578063715018a6146100b7575b5f5ffd5b6100996004803603810190610094919061075a565b610137565b005b6100b560048036038101906100b091906107b8565b6101c5565b005b6100bf610499565b005b6100c96104ac565b6040516100d69190610817565b60405180910390f35b6100e76104d3565b6040516100f49190610817565b60405180910390f35b6101056104f8565b604051610112919061088b565b60405180910390f35b6101356004803603810190610130919061075a565b61051c565b005b61013f6105a0565b8060015f6101000a81548173ffffffffffffffffffffffffffffffffffffffff021916908373ffffffffffffffffffffffffffffffffffffffff1602179055508073ffffffffffffffffffffffffffffffffffffffff167f2f658b440c35314f52658ea8a740e05b284cdc84dc9ae01e891f21b8933e7cad60405160405180910390a250565b60015f9054906101000a900473ffffffffffffffffffffffffffffffffffffffff1673ffffffffffffffffffffffffffffffffffffffff163373ffffffffffffffffffffffffffffffffffffffff1614610254576040517f08c379a000000000000000000000000000000000000000000000000000000000815260040161024b90610924565b60405180910390fd5b60018110158015610266575060058111155b6102a5576040517f08c379a000000000000000000000000000000000000000000000000000000000815260040161029c906109b2565b60405180910390fd5b5f7f000000000000000000000000000000000000000000000000000000000000000073ffffffffffffffffffffffffffffffffffffffff16630f53a470846040518263ffffffff1660e01b81526004016102ff9190610817565b5f60405180830381865afa158015610319573d5f5f3e3d5ffd5b505050506040513d5f823e3d601f19601f820116820180604052508101906103419190610ccb565b90505f6064836103519190610d3f565b90505f5f8360a0015103610367578190506103a4565b60018360a001516103789190610d80565b828460a00151856080015161038d9190610d3f565b6103979190610d80565b6103a19190610de0565b90505b7f000000000000000000000000000000000000000000000000000000000000000073ffffffffffffffffffffffffffffffffffffffff1663f5c91a0886836040518363ffffffff1660e01b81526004016103ff929190610e1f565b5f604051808303815f87803b158015610416575f5ffd5b505af1158015610428573d5f5f3e3d5ffd5b505050508473ffffffffffffffffffffffffffffffffffffffff168673ffffffffffffffffffffffffffffffffffffffff167fdcba9448b55b807611f7e3ece24acdc6afaec1d8c5a16f3e70c571758f606654866040516104899190610e46565b60405180910390a3505050505050565b6104a16105a0565b6104aa5f610627565b565b5f5f5f9054906101000a900473ffffffffffffffffffffffffffffffffffffffff16905090565b60015f9054906101000a900473ffffffffffffffffffffffffffffffffffffffff1681565b7f000000000000000000000000000000000000000000000000000000000000000081565b6105246105a0565b5f73ffffffffffffffffffffffffffffffffffffffff168173ffffffffffffffffffffffffffffffffffffffff1603610594575f6040517f1e4fbdf700000000000000000000000000000000000000000000000000000000815260040161058b9190610817565b60405180910390fd5b61059d81610627565b50565b6105a86106e8565b73ffffffffffffffffffffffffffffffffffffffff166105c66104ac565b73ffffffffffffffffffffffffffffffffffffffff1614610625576105e96106e8565b6040517f118cdaa700000000000000000000000000000000000000000000000000000000815260040161061c9190610817565b60405180910390fd5b565b5f5f5f9054906101000a900473ffffffffffffffffffffffffffffffffffffffff169050815f5f6101000a81548173ffffffffffffffffffffffffffffffffffffffff021916908373ffffffffffffffffffffffffffffffffffffffff1602179055508173ffffffffffffffffffffffffffffffffffffffff168173ffffffffffffffffffffffffffffffffffffffff167f8be0079c531659141344cd1fd0a4f28419497f9722a3daafe3b4186f6b6457e060405160405180910390a35050565b5f33905090565b5f604051905090565b5f5ffd5b5f5ffd5b5f73ffffffffffffffffffffffffffffffffffffffff82169050919050565b5f61072982610700565b9050919050565b6107398161071f565b8114610743575f5ffd5b50565b5f8135905061075481610730565b92915050565b5f6020828403121561076f5761076e6106f8565b5b5f61077c84828501610746565b91505092915050565b5f819050919050565b61079781610785565b81146107a1575f5ffd5b50565b5f813590506107b28161078e565b92915050565b5f5f5f606084860312156107cf576107ce6106f8565b5b5f6107dc86828701610746565b93505060206107ed86828701610746565b92505060406107fe868287016107a4565b9150509250925092565b6108118161071f565b82525050565b5f60208201905061082a5f830184610808565b92915050565b5f819050919050565b5f61085361084e61084984610700565b610830565b610700565b9050919050565b5f61086482610839565b9050919050565b5f6108758261085a565b9050919050565b6108858161086b565b82525050565b5f60208201905061089e5f83018461087c565b92915050565b5f82825260208201905092915050565b7f52657075746174696f6e3a204e6f7420616e20617574686f72697a65642063615f8201527f6c6c657200000000000000000000000000000000000000000000000000000000602082015250565b5f61090e6024836108a4565b9150610919826108b4565b604082019050919050565b5f6020820190508181035f83015261093b81610902565b9050919050565b7f52657075746174696f6e3a2053636f7265206d757374206265206265747765655f8201527f6e203120616e6420350000000000000000000000000000000000000000000000602082015250565b5f61099c6029836108a4565b91506109a782610942565b604082019050919050565b5f6020820190508181035f8301526109c981610990565b9050919050565b5f5ffd5b5f601f19601f8301169050919050565b7f4e487b71000000000000000000000000000000000000000000000000000000005f52604160045260245ffd5b610a1a826109d4565b810181811067ffffffffffffffff82111715610a3957610a386109e4565b5b80604052505050565b5f610a4b6106ef565b9050610a578282610a11565b919050565b5f5ffd5b5f81519050610a6e81610730565b92915050565b5f5ffd5b5f5ffd5b5f67ffffffffffffffff821115610a9657610a956109e4565b5b610a9f826109d4565b9050602081019050919050565b8281835e5f83830152505050565b5f610acc610ac784610a7c565b610a42565b905082815260208101848484011115610ae857610ae7610a78565b5b610af3848285610aac565b509392505050565b5f82601f830112610b0f57610b0e610a74565b5b8151610b1f848260208601610aba565b91505092915050565b5f67ffffffffffffffff821115610b4257610b416109e4565b5b610b4b826109d4565b9050602081019050919050565b5f610b6a610b6584610b28565b610a42565b905082815260208101848484011115610b8657610b85610a78565b5b610b91848285610aac565b509392505050565b5f82601f830112610bad57610bac610a74565b5b8151610bbd848260208601610b58565b91505092915050565b5f81519050610bd48161078e565b92915050565b5f60c08284031215610bef57610bee6109d0565b5b610bf960c0610a42565b90505f610c0884828501610a60565b5f83015250602082015167ffffffffffffffff811115610c2b57610c2a610a5c565b5b610c3784828501610afb565b602083015250604082015167ffffffffffffffff811115610c5b57610c5a610a5c565b5b610c6784828501610afb565b604083015250606082015167ffffffffffffffff811115610c8b57610c8a610a5c565b5b610c9784828501610b99565b6060830152506080610cab84828501610bc6565b60808301525060a0610cbf84828501610bc6565b60a08301525092915050565b5f60208284031215610ce057610cdf6106f8565b5b5f82015167ffffffffffffffff811115610cfd57610cfc6106fc565b5b610d0984828501610bda565b91505092915050565b7f4e487b71000000000000000000000000000000000000000000000000000000005f52601160045260245ffd5b5f610d4982610785565b9150610d5483610785565b9250828202610d6281610785565b91508282048414831517610d7957610d78610d12565b5b5092915050565b5f610d8a82610785565b9150610d9583610785565b9250828201905080821115610dad57610dac610d12565b5b92915050565b7f4e487b71000000000000000000000000000000000000000000000000000000005f52601260045260245ffd5b5f610dea82610785565b9150610df583610785565b925082610e0557610e04610db3565b5b828204905092915050565b610e1981610785565b82525050565b5f604082019050610e325f830185610808565b610e3f6020830184610e10565b9392505050565b5f602082019050610e595f830184610e10565b9291505056fea264697066735822122039297933438c83bc8f9ece6ce849ae1116bb45501ac8138b0048ccbbcf246fd564736f6c634300081e0033",
					"opcodes": "PUSH1 0xA0 PUSH1 0x40 MSTORE CALLVALUE DUP1 ISZERO PUSH2 0xF JUMPI PUSH0 PUSH0 REVERT JUMPDEST POP PUSH1 0x40 MLOAD PUSH2 0x112D CODESIZE SUB DUP1 PUSH2 0x112D DUP4 CODECOPY DUP2 DUP2 ADD PUSH1 0x40 MSTORE DUP2 ADD SWAP1 PUSH2 0x31 SWAP2 SWAP1 PUSH2 0x20C JUMP JUMPDEST DUP2 PUSH0 PUSH20 0xFFFFFFFFFFFFFFFFFFFFFFFFFFFFFFFFFFFFFFFF AND DUP2 PUSH20 0xFFFFFFFFFFFFFFFFFFFFFFFFFFFFFFFFFFFFFFFF AND SUB PUSH2 0xA2 JUMPI PUSH0 PUSH1 0x40 MLOAD PUSH32 0x1E4FBDF700000000000000000000000000000000000000000000000000000000 DUP2 MSTORE PUSH1 0x4 ADD PUSH2 0x99 SWAP2 SWAP1 PUSH2 0x259 JUMP JUMPDEST PUSH1 0x40 MLOAD DUP1 SWAP2 SUB SWAP1 REVERT JUMPDEST PUSH2 0xB1 DUP2 PUSH2 0xED PUSH1 0x20 SHL PUSH1 0x20 SHR JUMP JUMPDEST POP DUP1 PUSH20 0xFFFFFFFFFFFFFFFFFFFFFFFFFFFFFFFFFFFFFFFF AND PUSH1 0x80 DUP2 PUSH20 0xFFFFFFFFFFFFFFFFFFFFFFFFFFFFFFFFFFFFFFFF AND DUP2 MSTORE POP POP POP POP PUSH2 0x272 JUMP JUMPDEST PUSH0 PUSH0 PUSH0 SWAP1 SLOAD SWAP1 PUSH2 0x100 EXP SWAP1 DIV PUSH20 0xFFFFFFFFFFFFFFFFFFFFFFFFFFFFFFFFFFFFFFFF AND SWAP1 POP DUP2 PUSH0 PUSH0 PUSH2 0x100 EXP DUP2 SLOAD DUP2 PUSH20 0xFFFFFFFFFFFFFFFFFFFFFFFFFFFFFFFFFFFFFFFF MUL NOT AND SWAP1 DUP4 PUSH20 0xFFFFFFFFFFFFFFFFFFFFFFFFFFFFFFFFFFFFFFFF AND MUL OR SWAP1 SSTORE POP DUP2 PUSH20 0xFFFFFFFFFFFFFFFFFFFFFFFFFFFFFFFFFFFFFFFF AND DUP2 PUSH20 0xFFFFFFFFFFFFFFFFFFFFFFFFFFFFFFFFFFFFFFFF AND PUSH32 0x8BE0079C531659141344CD1FD0A4F28419497F9722A3DAAFE3B4186F6B6457E0 PUSH1 0x40 MLOAD PUSH1 0x40 MLOAD DUP1 SWAP2 SUB SWAP1 LOG3 POP POP JUMP JUMPDEST PUSH0 PUSH0 REVERT JUMPDEST PUSH0 PUSH20 0xFFFFFFFFFFFFFFFFFFFFFFFFFFFFFFFFFFFFFFFF DUP3 AND SWAP1 POP SWAP2 SWAP1 POP JUMP JUMPDEST PUSH0 PUSH2 0x1DB DUP3 PUSH2 0x1B2 JUMP JUMPDEST SWAP1 POP SWAP2 SWAP1 POP JUMP JUMPDEST PUSH2 0x1EB DUP2 PUSH2 0x1D1 JUMP JUMPDEST DUP2 EQ PUSH2 0x1F5 JUMPI PUSH0 PUSH0 REVERT JUMPDEST POP JUMP JUMPDEST PUSH0 DUP2 MLOAD SWAP1 POP PUSH2 0x206 DUP2 PUSH2 0x1E2 JUMP JUMPDEST SWAP3 SWAP2 POP POP JUMP JUMPDEST PUSH0 PUSH0 PUSH1 0x40 DUP4 DUP6 SUB SLT ISZERO PUSH2 0x222 JUMPI PUSH2 0x221 PUSH2 0x1AE JUMP JUMPDEST JUMPDEST PUSH0 PUSH2 0x22F DUP6 DUP3 DUP7 ADD PUSH2 0x1F8 JUMP JUMPDEST SWAP3 POP POP PUSH1 0x20 PUSH2 0x240 DUP6 DUP3 DUP7 ADD PUSH2 0x1F8 JUMP JUMPDEST SWAP2 POP POP SWAP3 POP SWAP3 SWAP1 POP JUMP JUMPDEST PUSH2 0x253 DUP2 PUSH2 0x1D1 JUMP JUMPDEST DUP3 MSTORE POP POP JUMP JUMPDEST PUSH0 PUSH1 0x20 DUP3 ADD SWAP1 POP PUSH2 0x26C PUSH0 DUP4 ADD DUP5 PUSH2 0x24A JUMP JUMPDEST SWAP3 SWAP2 POP POP JUMP JUMPDEST PUSH1 0x80 MLOAD PUSH2 0xE95 PUSH2 0x298 PUSH0 CODECOPY PUSH0 DUP2 DUP2 PUSH2 0x2A8 ADD MSTORE DUP2 DUP2 PUSH2 0x3A6 ADD MSTORE PUSH2 0x4FA ADD MSTORE PUSH2 0xE95 PUSH0 RETURN INVALID PUSH1 0x80 PUSH1 0x40 MSTORE CALLVALUE DUP1 ISZERO PUSH2 0xF JUMPI PUSH0 PUSH0 REVERT JUMPDEST POP PUSH1 0x4 CALLDATASIZE LT PUSH2 0x7B JUMPI PUSH0 CALLDATALOAD PUSH1 0xE0 SHR DUP1 PUSH4 0x8DA5CB5B GT PUSH2 0x59 JUMPI DUP1 PUSH4 0x8DA5CB5B EQ PUSH2 0xC1 JUMPI DUP1 PUSH4 0xB0087CFA EQ PUSH2 0xDF JUMPI DUP1 PUSH4 0xE6007BED EQ PUSH2 0xFD JUMPI DUP1 PUSH4 0xF2FDE38B EQ PUSH2 0x11B JUMPI PUSH2 0x7B JUMP JUMPDEST DUP1 PUSH4 0x139746C EQ PUSH2 0x7F JUMPI DUP1 PUSH4 0x5435029A EQ PUSH2 0x9B JUMPI DUP1 PUSH4 0x715018A6 EQ PUSH2 0xB7 JUMPI JUMPDEST PUSH0 PUSH0 REVERT JUMPDEST PUSH2 0x99 PUSH1 0x4 DUP1 CALLDATASIZE SUB DUP2 ADD SWAP1 PUSH2 0x94 SWAP2 SWAP1 PUSH2 0x75A JUMP JUMPDEST PUSH2 0x137 JUMP JUMPDEST STOP JUMPDEST PUSH2 0xB5 PUSH1 0x4 DUP1 CALLDATASIZE SUB DUP2 ADD SWAP1 PUSH2 0xB0 SWAP2 SWAP1 PUSH2 0x7B8 JUMP JUMPDEST PUSH2 0x1C5 JUMP JUMPDEST STOP JUMPDEST PUSH2 0xBF PUSH2 0x499 JUMP JUMPDEST STOP JUMPDEST PUSH2 0xC9 PUSH2 0x4AC JUMP JUMPDEST PUSH1 0x40 MLOAD PUSH2 0xD6 SWAP2 SWAP1 PUSH2 0x817 JUMP JUMPDEST PUSH1 0x40 MLOAD DUP1 SWAP2 SUB SWAP1 RETURN JUMPDEST PUSH2 0xE7 PUSH2 0x4D3 JUMP JUMPDEST PUSH1 0x40 MLOAD PUSH2 0xF4 SWAP2 SWAP1 PUSH2 0x817 JUMP JUMPDEST PUSH1 0x40 MLOAD DUP1 SWAP2 SUB SWAP1 RETURN JUMPDEST PUSH2 0x105 PUSH2 0x4F8 JUMP JUMPDEST PUSH1 0x40 MLOAD PUSH2 0x112 SWAP2 SWAP1 PUSH2 0x88B JUMP JUMPDEST PUSH1 0x40 MLOAD DUP1 SWAP2 SUB SWAP1 RETURN JUMPDEST PUSH2 0x135 PUSH1 0x4 DUP1 CALLDATASIZE SUB DUP2 ADD SWAP1 PUSH2 0x130 SWAP2 SWAP1 PUSH2 0x75A JUMP JUMPDEST PUSH2 0x51C JUMP JUMPDEST STOP JUMPDEST PUSH2 0x13F PUSH2 0x5A0 JUMP JUMPDEST DUP1 PUSH1 0x1 PUSH0 PUSH2 0x100 EXP DUP2 SLOAD DUP2 PUSH20 0xFFFFFFFFFFFFFFFFFFFFFFFFFFFFFFFFFFFFFFFF MUL NOT AND SWAP1 DUP4 PUSH20 0xFFFFFFFFFFFFFFFFFFFFFFFFFFFFFFFFFFFFFFFF AND MUL OR SWAP1 SSTORE POP DUP1 PUSH20 0xFFFFFFFFFFFFFFFFFFFFFFFFFFFFFFFFFFFFFFFF AND PUSH32 0x2F658B440C35314F52658EA8A740E05B284CDC84DC9AE01E891F21B8933E7CAD PUSH1 0x40 MLOAD PUSH1 0x40 MLOAD DUP1 SWAP2 SUB SWAP1 LOG2 POP JUMP JUMPDEST PUSH1 0x1 PUSH0 SWAP1 SLOAD SWAP1 PUSH2 0x100 EXP SWAP1 DIV PUSH20 0xFFFFFFFFFFFFFFFFFFFFFFFFFFFFFFFFFFFFFFFF AND PUSH20 0xFFFFFFFFFFFFFFFFFFFFFFFFFFFFFFFFFFFFFFFF AND CALLER PUSH20 0xFFFFFFFFFFFFFFFFFFFFFFFFFFFFFFFFFFFFFFFF AND EQ PUSH2 0x254 JUMPI PUSH1 0x40 MLOAD PUSH32 0x8C379A000000000000000000000000000000000000000000000000000000000 DUP2 MSTORE PUSH1 0x4 ADD PUSH2 0x24B SWAP1 PUSH2 0x924 JUMP JUMPDEST PUSH1 0x40 MLOAD DUP1 SWAP2 SUB SWAP1 REVERT JUMPDEST PUSH1 0x1 DUP2 LT ISZERO DUP1 ISZERO PUSH2 0x266 JUMPI POP PUSH1 0x5 DUP2 GT ISZERO JUMPDEST PUSH2 0x2A5 JUMPI PUSH1 0x40 MLOAD PUSH32 0x8C379A000000000000000000000000000000000000000000000000000000000 DUP2 MSTORE PUSH1 0x4 ADD PUSH2 0x29C SWAP1 PUSH2 0x9B2 JUMP JUMPDEST PUSH1 0x40 MLOAD DUP1 SWAP2 SUB SWAP1 REVERT JUMPDEST PUSH0 PUSH32 0x0 PUSH20 0xFFFFFFFFFFFFFFFFFFFFFFFFFFFFFFFFFFFFFFFF AND PUSH4 0xF53A470 DUP5 PUSH1 0x40 MLOAD DUP3 PUSH4 0xFFFFFFFF AND PUSH1 0xE0 SHL DUP2 MSTORE PUSH1 0x4 ADD PUSH2 0x2FF SWAP2 SWAP1 PUSH2 0x817 JUMP JUMPDEST PUSH0 PUSH1 0x40 MLOAD DUP1 DUP4 SUB DUP2 DUP7 GAS STATICCALL ISZERO DUP1 ISZERO PUSH2 0x319 JUMPI RETURNDATASIZE PUSH0 PUSH0 RETURNDATACOPY RETURNDATASIZE PUSH0 REVERT JUMPDEST POP POP POP POP PUSH1 0x40 MLOAD RETURNDATASIZE PUSH0 DUP3 RETURNDATACOPY RETURNDATASIZE PUSH1 0x1F NOT PUSH1 0x1F DUP3 ADD AND DUP3 ADD DUP1 PUSH1 0x40 MSTORE POP DUP2 ADD SWAP1 PUSH2 0x341 SWAP2 SWAP1 PUSH2 0xCCB JUMP JUMPDEST SWAP1 POP PUSH0 PUSH1 0x64 DUP4 PUSH2 0x351 SWAP2 SWAP1 PUSH2 0xD3F JUMP JUMPDEST SWAP1 POP PUSH0 PUSH0 DUP4 PUSH1 0xA0 ADD MLOAD SUB PUSH2 0x367 JUMPI DUP2 SWAP1 POP PUSH2 0x3A4 JUMP JUMPDEST PUSH1 0x1 DUP4 PUSH1 0xA0 ADD MLOAD PUSH2 0x378 SWAP2 SWAP1 PUSH2 0xD80 JUMP JUMPDEST DUP3 DUP5 PUSH1 0xA0 ADD MLOAD DUP6 PUSH1 0x80 ADD MLOAD PUSH2 0x38D SWAP2 SWAP1 PUSH2 0xD3F JUMP JUMPDEST PUSH2 0x397 SWAP2 SWAP1 PUSH2 0xD80 JUMP JUMPDEST PUSH2 0x3A1 SWAP2 SWAP1 PUSH2 0xDE0 JUMP JUMPDEST SWAP1 POP JUMPDEST PUSH32 0x0 PUSH20 0xFFFFFFFFFFFFFFFFFFFFFFFFFFFFFFFFFFFFFFFF AND PUSH4 0xF5C91A08 DUP7 DUP4 PUSH1 0x40 MLOAD DUP4 PUSH4 0xFFFFFFFF AND PUSH1 0xE0 SHL DUP2 MSTORE PUSH1 0x4 ADD PUSH2 0x3FF SWAP3 SWAP2 SWAP1 PUSH2 0xE1F JUMP JUMPDEST PUSH0 PUSH1 0x40 MLOAD DUP1 DUP4 SUB DUP2 PUSH0 DUP8 DUP1 EXTCODESIZE ISZERO DUP1 ISZERO PUSH2 0x416 JUMPI PUSH0 PUSH0 REVERT JUMPDEST POP GAS CALL ISZERO DUP1 ISZERO PUSH2 0x428 JUMPI RETURNDATASIZE PUSH0 PUSH0 RETURNDATACOPY RETURNDATASIZE PUSH0 REVERT JUMPDEST POP POP POP POP DUP5 PUSH20 0xFFFFFFFFFFFFFFFFFFFFFFFFFFFFFFFFFFFFFFFF AND DUP7 PUSH20 0xFFFFFFFFFFFFFFFFFFFFFFFFFFFFFFFFFFFFFFFF AND PUSH32 0xDCBA9448B55B807611F7E3ECE24ACDC6AFAEC1D8C5A16F3E70C571758F606654 DUP7 PUSH1 0x40 MLOAD PUSH2 0x489 SWAP2 SWAP1 PUSH2 0xE46 JUMP JUMPDEST PUSH1 0x40 MLOAD DUP1 SWAP2 SUB SWAP1 LOG3 POP POP POP POP POP POP JUMP JUMPDEST PUSH2 0x4A1 PUSH2 0x5A0 JUMP JUMPDEST PUSH2 0x4AA PUSH0 PUSH2 0x627 JUMP JUMPDEST JUMP JUMPDEST PUSH0 PUSH0 PUSH0 SWAP1 SLOAD SWAP1 PUSH2 0x100 EXP SWAP1 DIV PUSH20 0xFFFFFFFFFFFFFFFFFFFFFFFFFFFFFFFFFFFFFFFF AND SWAP1 POP SWAP1 JUMP JUMPDEST PUSH1 0x1 PUSH0 SWAP1 SLOAD SWAP1 PUSH2 0x100 EXP SWAP1 DIV PUSH20 0xFFFFFFFFFFFFFFFFFFFFFFFFFFFFFFFFFFFFFFFF AND DUP2 JUMP JUMPDEST PUSH32 0x0 DUP2 JUMP JUMPDEST PUSH2 0x524 PUSH2 0x5A0 JUMP JUMPDEST PUSH0 PUSH20 0xFFFFFFFFFFFFFFFFFFFFFFFFFFFFFFFFFFFFFFFF AND DUP2 PUSH20 0xFFFFFFFFFFFFFFFFFFFFFFFFFFFFFFFFFFFFFFFF AND SUB PUSH2 0x594 JUMPI PUSH0 PUSH1 0x40 MLOAD PUSH32 0x1E4FBDF700000000000000000000000000000000000000000000000000000000 DUP2 MSTORE PUSH1 0x4 ADD PUSH2 0x58B SWAP2 SWAP1 PUSH2 0x817 JUMP JUMPDEST PUSH1 0x40 MLOAD DUP1 SWAP2 SUB SWAP1 REVERT JUMPDEST PUSH2 0x59D DUP2 PUSH2 0x627 JUMP JUMPDEST POP JUMP JUMPDEST PUSH2 0x5A8 PUSH2 0x6E8 JUMP JUMPDEST PUSH20 0xFFFFFFFFFFFFFFFFFFFFFFFFFFFFFFFFFFFFFFFF AND PUSH2 0x5C6 PUSH2 0x4AC JUMP JUMPDEST PUSH20 0xFFFFFFFFFFFFFFFFFFFFFFFFFFFFFFFFFFFFFFFF AND EQ PUSH2 0x625 JUMPI PUSH2 0x5E9 PUSH2 0x6E8 JUMP JUMPDEST PUSH1 0x40 MLOAD PUSH32 0x118CDAA700000000000000000000000000000000000000000000000000000000 DUP2 MSTORE PUSH1 0x4 ADD PUSH2 0x61C SWAP2 SWAP1 PUSH2 0x817 JUMP JUMPDEST PUSH1 0x40 MLOAD DUP1 SWAP2 SUB SWAP1 REVERT JUMPDEST JUMP JUMPDEST PUSH0 PUSH0 PUSH0 SWAP1 SLOAD SWAP1 PUSH2 0x100 EXP SWAP1 DIV PUSH20 0xFFFFFFFFFFFFFFFFFFFFFFFFFFFFFFFFFFFFFFFF AND SWAP1 POP DUP2 PUSH0 PUSH0 PUSH2 0x100 EXP DUP2 SLOAD DUP2 PUSH20 0xFFFFFFFFFFFFFFFFFFFFFFFFFFFFFFFFFFFFFFFF MUL NOT AND SWAP1 DUP4 PUSH20 0xFFFFFFFFFFFFFFFFFFFFFFFFFFFFFFFFFFFFFFFF AND MUL OR SWAP1 SSTORE POP DUP2 PUSH20 0xFFFFFFFFFFFFFFFFFFFFFFFFFFFFFFFFFFFFFFFF AND DUP2 PUSH20 0xFFFFFFFFFFFFFFFFFFFFFFFFFFFFFFFFFFFFFFFF AND PUSH32 0x8BE0079C531659141344CD1FD0A4F28419497F9722A3DAAFE3B4186F6B6457E0 PUSH1 0x40 MLOAD PUSH1 0x40 MLOAD DUP1 SWAP2 SUB SWAP1 LOG3 POP POP JUMP JUMPDEST PUSH0 CALLER SWAP1 POP SWAP1 JUMP JUMPDEST PUSH0 PUSH1 0x40 MLOAD SWAP1 POP SWAP1 JUMP JUMPDEST PUSH0 PUSH0 REVERT JUMPDEST PUSH0 PUSH0 REVERT JUMPDEST PUSH0 PUSH20 0xFFFFFFFFFFFFFFFFFFFFFFFFFFFFFFFFFFFFFFFF DUP3 AND SWAP1 POP SWAP2 SWAP1 POP JUMP JUMPDEST PUSH0 PUSH2 0x729 DUP3 PUSH2 0x700 JUMP JUMPDEST SWAP1 POP SWAP2 SWAP1 POP JUMP JUMPDEST PUSH2 0x739 DUP2 PUSH2 0x71F JUMP JUMPDEST DUP2 EQ PUSH2 0x743 JUMPI PUSH0 PUSH0 REVERT JUMPDEST POP JUMP JUMPDEST PUSH0 DUP2 CALLDATALOAD SWAP1 POP PUSH2 0x754 DUP2 PUSH2 0x730 JUMP JUMPDEST SWAP3 SWAP2 POP POP JUMP JUMPDEST PUSH0 PUSH1 0x20 DUP3 DUP5 SUB SLT ISZERO PUSH2 0x76F JUMPI PUSH2 0x76E PUSH2 0x6F8 JUMP JUMPDEST JUMPDEST PUSH0 PUSH2 0x77C DUP5 DUP3 DUP6 ADD PUSH2 0x746 JUMP JUMPDEST SWAP2 POP POP SWAP3 SWAP2 POP POP JUMP JUMPDEST PUSH0 DUP2 SWAP1 POP SWAP2 SWAP1 POP JUMP JUMPDEST PUSH2 0x797 DUP2 PUSH2 0x785 JUMP JUMPDEST DUP2 EQ PUSH2 0x7A1 JUMPI PUSH0 PUSH0 REVERT JUMPDEST POP JUMP JUMPDEST PUSH0 DUP2 CALLDATALOAD SWAP1 POP PUSH2 0x7B2 DUP2 PUSH2 0x78E JUMP JUMPDEST SWAP3 SWAP2 POP POP JUMP JUMPDEST PUSH0 PUSH0 PUSH0 PUSH1 0x60 DUP5 DUP7 SUB SLT ISZERO PUSH2 0x7CF JUMPI PUSH2 0x7CE PUSH2 0x6F8 JUMP JUMPDEST JUMPDEST PUSH0 PUSH2 0x7DC DUP7 DUP3 DUP8 ADD PUSH2 0x746 JUMP JUMPDEST SWAP4 POP POP PUSH1 0x20 PUSH2 0x7ED DUP7 DUP3 DUP8 ADD PUSH2 0x746 JUMP JUMPDEST SWAP3 POP POP PUSH1 0x40 PUSH2 0x7FE DUP7 DUP3 DUP8 ADD PUSH2 0x7A4 JUMP JUMPDEST SWAP2 POP POP SWAP3 POP SWAP3 POP SWAP3 JUMP JUMPDEST PUSH2 0x811 DUP2 PUSH2 0x71F JUMP JUMPDEST DUP3 MSTORE POP POP JUMP JUMPDEST PUSH0 PUSH1 0x20 DUP3 ADD SWAP1 POP PUSH2 0x82A PUSH0 DUP4 ADD DUP5 PUSH2 0x808 JUMP JUMPDEST SWAP3 SWAP2 POP POP JUMP JUMPDEST PUSH0 DUP2 SWAP1 POP SWAP2 SWAP1 POP JUMP JUMPDEST PUSH0 PUSH2 0x853 PUSH2 0x84E PUSH2 0x849 DUP5 PUSH2 0x700 JUMP JUMPDEST PUSH2 0x830 JUMP JUMPDEST PUSH2 0x700 JUMP JUMPDEST SWAP1 POP SWAP2 SWAP1 POP JUMP JUMPDEST PUSH0 PUSH2 0x864 DUP3 PUSH2 0x839 JUMP JUMPDEST SWAP1 POP SWAP2 SWAP1 POP JUMP JUMPDEST PUSH0 PUSH2 0x875 DUP3 PUSH2 0x85A JUMP JUMPDEST SWAP1 POP SWAP2 SWAP1 POP JUMP JUMPDEST PUSH2 0x885 DUP2 PUSH2 0x86B JUMP JUMPDEST DUP3 MSTORE POP POP JUMP JUMPDEST PUSH0 PUSH1 0x20 DUP3 ADD SWAP1 POP PUSH2 0x89E PUSH0 DUP4 ADD DUP5 PUSH2 0x87C JUMP JUMPDEST SWAP3 SWAP2 POP POP JUMP JUMPDEST PUSH0 DUP3 DUP3 MSTORE PUSH1 0x20 DUP3 ADD SWAP1 POP SWAP3 SWAP2 POP POP JUMP JUMPDEST PUSH32 0x52657075746174696F6E3A204E6F7420616E20617574686F72697A6564206361 PUSH0 DUP3 ADD MSTORE PUSH32 0x6C6C657200000000000000000000000000000000000000000000000000000000 PUSH1 0x20 DUP3 ADD MSTORE POP JUMP JUMPDEST PUSH0 PUSH2 0x90E PUSH1 0x24 DUP4 PUSH2 0x8A4 JUMP JUMPDEST SWAP2 POP PUSH2 0x919 DUP3 PUSH2 0x8B4 JUMP JUMPDEST PUSH1 0x40 DUP3 ADD SWAP1 POP SWAP2 SWAP1 POP JUMP JUMPDEST PUSH0 PUSH1 0x20 DUP3 ADD SWAP1 POP DUP2 DUP2 SUB PUSH0 DUP4 ADD MSTORE PUSH2 0x93B DUP2 PUSH2 0x902 JUMP JUMPDEST SWAP1 POP SWAP2 SWAP1 POP JUMP JUMPDEST PUSH32 0x52657075746174696F6E3A2053636F7265206D75737420626520626574776565 PUSH0 DUP3 ADD MSTORE PUSH32 0x6E203120616E6420350000000000000000000000000000000000000000000000 PUSH1 0x20 DUP3 ADD MSTORE POP JUMP JUMPDEST PUSH0 PUSH2 0x99C PUSH1 0x29 DUP4 PUSH2 0x8A4 JUMP JUMPDEST SWAP2 POP PUSH2 0x9A7 DUP3 PUSH2 0x942 JUMP JUMPDEST PUSH1 0x40 DUP3 ADD SWAP1 POP SWAP2 SWAP1 POP JUMP JUMPDEST PUSH0 PUSH1 0x20 DUP3 ADD SWAP1 POP DUP2 DUP2 SUB PUSH0 DUP4 ADD MSTORE PUSH2 0x9C9 DUP2 PUSH2 0x990 JUMP JUMPDEST SWAP1 POP SWAP2 SWAP1 POP JUMP JUMPDEST PUSH0 PUSH0 REVERT JUMPDEST PUSH0 PUSH1 0x1F NOT PUSH1 0x1F DUP4 ADD AND SWAP1 POP SWAP2 SWAP1 POP JUMP JUMPDEST PUSH32 0x4E487B7100000000000000000000000000000000000000000000000000000000 PUSH0 MSTORE PUSH1 0x41 PUSH1 0x4 MSTORE PUSH1 0x24 PUSH0 REVERT JUMPDEST PUSH2 0xA1A DUP3 PUSH2 0x9D4 JUMP JUMPDEST DUP2 ADD DUP2 DUP2 LT PUSH8 0xFFFFFFFFFFFFFFFF DUP3 GT OR ISZERO PUSH2 0xA39 JUMPI PUSH2 0xA38 PUSH2 0x9E4 JUMP JUMPDEST JUMPDEST DUP1 PUSH1 0x40 MSTORE POP POP POP JUMP JUMPDEST PUSH0 PUSH2 0xA4B PUSH2 0x6EF JUMP JUMPDEST SWAP1 POP PUSH2 0xA57 DUP3 DUP3 PUSH2 0xA11 JUMP JUMPDEST SWAP2 SWAP1 POP JUMP JUMPDEST PUSH0 PUSH0 REVERT JUMPDEST PUSH0 DUP2 MLOAD SWAP1 POP PUSH2 0xA6E DUP2 PUSH2 0x730 JUMP JUMPDEST SWAP3 SWAP2 POP POP JUMP JUMPDEST PUSH0 PUSH0 REVERT JUMPDEST PUSH0 PUSH0 REVERT JUMPDEST PUSH0 PUSH8 0xFFFFFFFFFFFFFFFF DUP3 GT ISZERO PUSH2 0xA96 JUMPI PUSH2 0xA95 PUSH2 0x9E4 JUMP JUMPDEST JUMPDEST PUSH2 0xA9F DUP3 PUSH2 0x9D4 JUMP JUMPDEST SWAP1 POP PUSH1 0x20 DUP2 ADD SWAP1 POP SWAP2 SWAP1 POP JUMP JUMPDEST DUP3 DUP2 DUP4 MCOPY PUSH0 DUP4 DUP4 ADD MSTORE POP POP POP JUMP JUMPDEST PUSH0 PUSH2 0xACC PUSH2 0xAC7 DUP5 PUSH2 0xA7C JUMP JUMPDEST PUSH2 0xA42 JUMP JUMPDEST SWAP1 POP DUP3 DUP2 MSTORE PUSH1 0x20 DUP2 ADD DUP5 DUP5 DUP5 ADD GT ISZERO PUSH2 0xAE8 JUMPI PUSH2 0xAE7 PUSH2 0xA78 JUMP JUMPDEST JUMPDEST PUSH2 0xAF3 DUP5 DUP3 DUP6 PUSH2 0xAAC JUMP JUMPDEST POP SWAP4 SWAP3 POP POP POP JUMP JUMPDEST PUSH0 DUP3 PUSH1 0x1F DUP4 ADD SLT PUSH2 0xB0F JUMPI PUSH2 0xB0E PUSH2 0xA74 JUMP JUMPDEST JUMPDEST DUP2 MLOAD PUSH2 0xB1F DUP5 DUP3 PUSH1 0x20 DUP7 ADD PUSH2 0xABA JUMP JUMPDEST SWAP2 POP POP SWAP3 SWAP2 POP POP JUMP JUMPDEST PUSH0 PUSH8 0xFFFFFFFFFFFFFFFF DUP3 GT ISZERO PUSH2 0xB42 JUMPI PUSH2 0xB41 PUSH2 0x9E4 JUMP JUMPDEST JUMPDEST PUSH2 0xB4B DUP3 PUSH2 0x9D4 JUMP JUMPDEST SWAP1 POP PUSH1 0x20 DUP2 ADD SWAP1 POP SWAP2 SWAP1 POP JUMP JUMPDEST PUSH0 PUSH2 0xB6A PUSH2 0xB65 DUP5 PUSH2 0xB28 JUMP JUMPDEST PUSH2 0xA42 JUMP JUMPDEST SWAP1 POP DUP3 DUP2 MSTORE PUSH1 0x20 DUP2 ADD DUP5 DUP5 DUP5 ADD GT ISZERO PUSH2 0xB86 JUMPI PUSH2 0xB85 PUSH2 0xA78 JUMP JUMPDEST JUMPDEST PUSH2 0xB91 DUP5 DUP3 DUP6 PUSH2 0xAAC JUMP JUMPDEST POP SWAP4 SWAP3 POP POP POP JUMP JUMPDEST PUSH0 DUP3 PUSH1 0x1F DUP4 ADD SLT PUSH2 0xBAD JUMPI PUSH2 0xBAC PUSH2 0xA74 JUMP JUMPDEST JUMPDEST DUP2 MLOAD PUSH2 0xBBD DUP5 DUP3 PUSH1 0x20 DUP7 ADD PUSH2 0xB58 JUMP JUMPDEST SWAP2 POP POP SWAP3 SWAP2 POP POP JUMP JUMPDEST PUSH0 DUP2 MLOAD SWAP1 POP PUSH2 0xBD4 DUP2 PUSH2 0x78E JUMP JUMPDEST SWAP3 SWAP2 POP POP JUMP JUMPDEST PUSH0 PUSH1 0xC0 DUP3 DUP5 SUB SLT ISZERO PUSH2 0xBEF JUMPI PUSH2 0xBEE PUSH2 0x9D0 JUMP JUMPDEST JUMPDEST PUSH2 0xBF9 PUSH1 0xC0 PUSH2 0xA42 JUMP JUMPDEST SWAP1 POP PUSH0 PUSH2 0xC08 DUP5 DUP3 DUP6 ADD PUSH2 0xA60 JUMP JUMPDEST PUSH0 DUP4 ADD MSTORE POP PUSH1 0x20 DUP3 ADD MLOAD PUSH8 0xFFFFFFFFFFFFFFFF DUP2 GT ISZERO PUSH2 0xC2B JUMPI PUSH2 0xC2A PUSH2 0xA5C JUMP JUMPDEST JUMPDEST PUSH2 0xC37 DUP5 DUP3 DUP6 ADD PUSH2 0xAFB JUMP JUMPDEST PUSH1 0x20 DUP4 ADD MSTORE POP PUSH1 0x40 DUP3 ADD MLOAD PUSH8 0xFFFFFFFFFFFFFFFF DUP2 GT ISZERO PUSH2 0xC5B JUMPI PUSH2 0xC5A PUSH2 0xA5C JUMP JUMPDEST JUMPDEST PUSH2 0xC67 DUP5 DUP3 DUP6 ADD PUSH2 0xAFB JUMP JUMPDEST PUSH1 0x40 DUP4 ADD MSTORE POP PUSH1 0x60 DUP3 ADD MLOAD PUSH8 0xFFFFFFFFFFFFFFFF DUP2 GT ISZERO PUSH2 0xC8B JUMPI PUSH2 0xC8A PUSH2 0xA5C JUMP JUMPDEST JUMPDEST PUSH2 0xC97 DUP5 DUP3 DUP6 ADD PUSH2 0xB99 JUMP JUMPDEST PUSH1 0x60 DUP4 ADD MSTORE POP PUSH1 0x80 PUSH2 0xCAB DUP5 DUP3 DUP6 ADD PUSH2 0xBC6 JUMP JUMPDEST PUSH1 0x80 DUP4 ADD MSTORE POP PUSH1 0xA0 PUSH2 0xCBF DUP5 DUP3 DUP6 ADD PUSH2 0xBC6 JUMP JUMPDEST PUSH1 0xA0 DUP4 ADD MSTORE POP SWAP3 SWAP2 POP POP JUMP JUMPDEST PUSH0 PUSH1 0x20 DUP3 DUP5 SUB SLT ISZERO PUSH2 0xCE0 JUMPI PUSH2 0xCDF PUSH2 0x6F8 JUMP JUMPDEST JUMPDEST PUSH0 DUP3 ADD MLOAD PUSH8 0xFFFFFFFFFFFFFFFF DUP2 GT ISZERO PUSH2 0xCFD JUMPI PUSH2 0xCFC PUSH2 0x6FC JUMP JUMPDEST JUMPDEST PUSH2 0xD09 DUP5 DUP3 DUP6 ADD PUSH2 0xBDA JUMP JUMPDEST SWAP2 POP POP SWAP3 SWAP2 POP POP JUMP JUMPDEST PUSH32 0x4E487B7100000000000000000000000000000000000000000000000000000000 PUSH0 MSTORE PUSH1 0x11 PUSH1 0x4 MSTORE PUSH1 0x24 PUSH0 REVERT JUMPDEST PUSH0 PUSH2 0xD49 DUP3 PUSH2 0x785 JUMP JUMPDEST SWAP2 POP PUSH2 0xD54 DUP4 PUSH2 0x785 JUMP JUMPDEST SWAP3 POP DUP3 DUP3 MUL PUSH2 0xD62 DUP2 PUSH2 0x785 JUMP JUMPDEST SWAP2 POP DUP3 DUP3 DIV DUP5 EQ DUP4 ISZERO OR PUSH2 0xD79 JUMPI PUSH2 0xD78 PUSH2 0xD12 JUMP JUMPDEST JUMPDEST POP SWAP3 SWAP2 POP POP JUMP JUMPDEST PUSH0 PUSH2 0xD8A DUP3 PUSH2 0x785 JUMP JUMPDEST SWAP2 POP PUSH2 0xD95 DUP4 PUSH2 0x785 JUMP JUMPDEST SWAP3 POP DUP3 DUP3 ADD SWAP1 POP DUP1 DUP3 GT ISZERO PUSH2 0xDAD JUMPI PUSH2 0xDAC PUSH2 0xD12 JUMP JUMPDEST JUMPDEST SWAP3 SWAP2 POP POP JUMP JUMPDEST PUSH32 0x4E487B7100000000000000000000000000000000000000000000000000000000 PUSH0 MSTORE PUSH1 0x12 PUSH1 0x4 MSTORE PUSH1 0x24 PUSH0 REVERT JUMPDEST PUSH0 PUSH2 0xDEA DUP3 PUSH2 0x785 JUMP JUMPDEST SWAP2 POP PUSH2 0xDF5 DUP4 PUSH2 0x785 JUMP JUMPDEST SWAP3 POP DUP3 PUSH2 0xE05 JUMPI PUSH2 0xE04 PUSH2 0xDB3 JUMP JUMPDEST JUMPDEST DUP3 DUP3 DIV SWAP1 POP SWAP3 SWAP2 POP POP JUMP JUMPDEST PUSH2 0xE19 DUP2 PUSH2 0x785 JUMP JUMPDEST DUP3 MSTORE POP POP JUMP JUMPDEST PUSH0 PUSH1 0x40 DUP3 ADD SWAP1 POP PUSH2 0xE32 PUSH0 DUP4 ADD DUP6 PUSH2 0x808 JUMP JUMPDEST PUSH2 0xE3F PUSH1 0x20 DUP4 ADD DUP5 PUSH2 0xE10 JUMP JUMPDEST SWAP4 SWAP3 POP POP POP JUMP JUMPDEST PUSH0 PUSH1 0x20 DUP3 ADD SWAP1 POP PUSH2 0xE59 PUSH0 DUP4 ADD DUP5 PUSH2 0xE10 JUMP JUMPDEST SWAP3 SWAP2 POP POP JUMP INVALID LOG2 PUSH5 0x6970667358 0x22 SLT KECCAK256 CODECOPY 0x29 PUSH26 0x33438C83BC8F9ECE6CE849AE1116BB45501AC8138B0048CCBBCF 0x24 PUSH16 0xD564736F6C634300081E003300000000 "
				},
				"gasEstimates": {
					"creation": {
						"codeDepositCost": "746600",
						"executionCost": "infinite",
						"totalCost": "infinite"
					},
					"external": {
						"owner()": "2514",
						"projectAuthority()": "2530",
						"renounceOwnership()": "infinite",
						"setProjectAuthority(address)": "infinite",
						"submitRating(address,address,uint256)": "infinite",
						"transferOwnership(address)": "infinite",
						"userIdentity()": "infinite"
					}
				},
				"methodIdentifiers": {
					"owner()": "8da5cb5b",
					"projectAuthority()": "b0087cfa",
					"renounceOwnership()": "715018a6",
					"setProjectAuthority(address)": "0139746c",
					"submitRating(address,address,uint256)": "5435029a",
					"transferOwnership(address)": "f2fde38b",
					"userIdentity()": "e6007bed"
				}
			},
			"storageLayout": {
				"storage": [
					{
						"astId": 8,
						"contract": "contracts/Governance/Reputation.sol:Reputation",
						"label": "_owner",
						"offset": 0,
						"slot": "0",
						"type": "t_address"
					},
					{
						"astId": 188,
						"contract": "contracts/Governance/Reputation.sol:Reputation",
						"label": "projectAuthority",
						"offset": 0,
						"slot": "1",
						"type": "t_address"
					}
				],
				"types": {
					"t_address": {
						"encoding": "inplace",
						"label": "address",
						"numberOfBytes": "20"
					}
				}
			},
			"userdoc": {
				"kind": "user",
				"methods": {},
				"version": 1
			}
		}
	}
}